PAROOT     CREATED BY  MACRO  ON 17-MAY-88 AT 14:33	PAGE 1

SYMBOL CROSS REFERENCE                                  CREF   04.00

SYMBOL	VALUE		REFERENCES

ABMSG 	  001051 RG	 178-7167  #178-7167   178-7167
ABOMSG	  000365 RG	 174-7015  #174-7015   174-7015
ACBMSG	  001372 RG	 182-7366  #182-7366   182-7366   183-7375   183-7375   190-7482   190-7482   193-7551   193-7551
ADD   	= 000270	#23-879
ADDB  	= 000273	#23-880
ADDI  	= 000271	#23-881
ADDM  	= 000272	#23-882
ADH   	= 000004	#117-4986  #117-4986   117-4986   117-4986
ADL   	= 000000	#117-4986   117-4986   117-4986  #117-4986   117-4986   117-4986  #117-4986   117-4986   117-4986
                        #117-4986   117-4986   117-4986  #117-4986   117-4986   117-4986  #117-4986   117-4986   117-4986
                         117-4986  #117-4986   117-4986   117-4986
ADMSG 	  001011 RG	 178-7144  #178-7144   178-7144
ADRTMP	  007320 R	*244-9475  *244-9476   244-9477  #244-9489
ADXMSG	  001014 RG	 178-7146  #178-7146   178-7146
ALLMSG	  001414 RG	 184-7382  #184-7382   184-7382   189-7463   189-7463
AMBERM	  003670 R	#191-7523   191-7523
AND   	= 000404	#23-884
ANDB  	= 000407	#23-885
ANDCA 	= 000410	#23-886
ANDCAB	= 000413	#23-887
ANDCAI	= 000411	#23-888
ANDCAM	= 000412	#23-889
ANDCB 	= 000440	#23-890
ANDCBB	= 000443	#23-891
ANDCBI	= 000441	#23-892
ANDCBM	= 000442	#23-893
ANDCM 	= 000420	#23-894
ANDCMB	= 000423	#23-895
ANDCMI	= 000421	#23-896
ANDCMM	= 000422	#23-897
ANDI  	= 000405	#23-898
ANDM  	= 000406	#23-899
AOBJN 	= 000253	#23-901
AOBJP 	= 000252	#23-902
AOJ   	= 000340	#23-904
AOJA  	= 000344	#23-905
AOJE  	= 000342	#23-906
AOJG  	= 000347	#23-907
AOJGE 	= 000345	#23-908
AOJL  	= 000341	#23-909
AOJLE 	= 000343	#23-910
AOJN  	= 000346	#23-911
AOS   	= 000350	#23-913
AOSA  	= 000354	#23-914
AOSE  	= 000352	#23-915
AOSG  	= 000357	#23-916
AOSGE 	= 000355	#23-917
AOSL  	= 000351	#23-918
AOSLE 	= 000353	#23-919
AOSN  	= 000356	#23-920
APEERM	  000000 R	#181-7266   181-7266
APR   	= 000000	#7-245
PAROOT     CREATED BY  MACRO  ON 17-MAY-88 AT 14:33	PAGE 2

SYMBOL CROSS REFERENCE                                  CREF   04.00

SYMBOL	VALUE		REFERENCES

APRMSG	  001273 RG	 180-7242  #180-7242   180-7242
AP.ALL	= 000177	#9-350
AP.ARP	= 001000	#16-635     16-639     131-5461
AP.CDP	= 000004	#9-345      9-350
AP.EIP	= 000400	#16-637     16-639     131-5469
AP.IPF	= 000020	#9-347      9-350
AP.MPE	= 000010	#9-346      9-350
AP.NRM	= 001400	#16-639     16-641
AP.NXM	= 000040	#9-348      9-350
AP.PWF	= 000001	#9-343      9-350
AP.SAP	= 000002	#9-344      9-350
AP.SBE	= 000100	#9-349      9-350
ARMSG 	  000773 RG	 176-7108  #176-7108   176-7108   178-7148   178-7148   189-7465   189-7465
ARXMSG	  001020 RG	 178-7150  #178-7150   178-7150
ASH   	= 000240	#23-922
ASHC  	= 000244	#23-923
AUGMSG	  001317 RG	 180-7250  #180-7250   180-7250
A.LULU	= 000002	#70-3088    70-3090
A.LUNA	= 000004	#70-3088
A.LUNU	= 000006	#70-3088
BAEERM	  000023 R	#181-7268   181-7268
BCCTER	  003362 R	 88-3872   #88-3877
BIT0  	= 000001	#87-3839
BIT00 	= 000001	#9-307      10-385     11-411     11-431     12-468     12-469     13-492     13-515     22-844
                         22-858     62-2648    130-5422   139-5779
BIT01 	= 000002	#9-308      10-388     11-407     11-429     12-466     12-467     13-493     13-514     22-845
                         22-859     130-5421
BIT02 	= 000004	#9-309      10-380     11-406     11-428     11-433     12-464     12-465     13-494     13-513
                         22-846     22-860     97-4165    130-5420
BIT03 	= 000010	#9-310      10-379     11-405     11-425     12-461     12-463     13-495     13-512     22-847
                         22-861     128-5327   130-5419
BIT04 	= 000020	#9-311      10-377     10-378     11-404     11-423     11-424     12-459     13-496     13-511
                         22-848     22-862
BIT05 	= 000040	#9-312      10-375     11-411     11-422     12-457     12-458     13-497     13-510     22-849
                         22-863     139-5776
BIT06 	= 000100	#9-313      10-374     11-400     11-433     12-455     12-456     13-486     13-509     22-850
                         22-864
BIT07 	= 000200	#9-314      10-372     10-373     11-411     11-433     12-453     13-485     13-508     22-851
                         22-865
BIT08 	= 000400	#9-315      10-371     11-411     11-433     12-451     13-484     13-507     22-866
BIT09 	= 001000	#9-316      10-367     10-370     11-411     11-433     12-449     13-483     13-506
BIT1  	= 000002	#87-3839
BIT10 	= 002000	#9-317      10-366     10-369     11-411     11-433     12-448     13-482     13-505    #87-3839
BIT11 	= 004000	#9-318      10-365     10-368     11-411     11-433     12-446     13-481     13-504    #87-3839
BIT12 	= 010000	#9-319      10-364     11-411     11-433     12-444     12-445     13-480     13-503    #87-3839
BIT13 	= 020000	#9-320      10-363     11-396     11-411     11-433     12-442     13-479    #87-3839
BIT14 	= 040000	#9-321      10-362     11-393     11-394     11-411     11-416     11-433     12-441     13-478
                        #87-3839
BIT15 	= 100000	#9-322      10-361     11-392     11-411     11-415     11-433     12-439     13-477     35-1490
                         35-1575    72-3204    73-3254    74-3314   #87-3839
BIT2  	= 000004	#87-3839
BIT3  	= 000010	#87-3839
PAROOT     CREATED BY  MACRO  ON 17-MAY-88 AT 14:33	PAGE 3

SYMBOL CROSS REFERENCE                                  CREF   04.00

SYMBOL	VALUE		REFERENCES

BIT4  	= 000020	#87-3839
BIT5  	= 000040	#87-3839
BIT6  	= 000100	#87-3839
BIT7  	= 000200	#87-3839
BIT8  	= 000400	#87-3839
BIT9  	= 001000	#87-3839
BLKI  	= 000000	#7-234
BLKIS 	  002232 R	 230-8987  #230-8999
BLKO  	= 000002	#7-236
BLKOS 	  002245 R	 230-8989  #230-9001
BLT   	= 000251	#23-925
BPARER	= 000020	#87-3839
BRMSG 	  001024 RG	 178-7152  #178-7152   178-7152
BRXMSG	  001027 RG	 178-7154  #178-7154   178-7154
CAEERM	  000052 R	#181-7270   181-7270
CAI   	= 000300	#24-927
CAIA  	= 000304	#24-928
CAIE  	= 000302	#24-929
CAIG  	= 000307	#24-930
CAIGE 	= 000305	#24-931
CAIL  	= 000301	#24-932
CAILE 	= 000303	#24-933
CAIN  	= 000306	#24-934
CALERM	  000104 R	#181-7271   181-7271
CALL  	= 000040	#24-936
CALLI 	= 000047	#24-937
CAM   	= 000310	#24-939
CAMA  	= 000314	#24-940
CAME  	= 000312	#24-941
CAMG  	= 000317	#24-942
CAMGE 	= 000315	#24-943
CAML  	= 000311	#24-944
CAMLE 	= 000313	#24-945
CAMN  	= 000316	#24-946
CAPERM	  000133 R	#181-7272   181-7272
CBOERM	  000166 R	#181-7273   181-7273
CCA   	= 000014	#7-248
CC.ALL	= 003417	#15-613
CC.NRM	= 000000	#15-612     143-5952
CDD   	= 000020	#87-3839
CDIERM	  000224 R	#181-7274   181-7274
CD.ALL	= 003400	#15-610     15-613
CD.CLC	= 000400	#15-608     131-5465
CD.CRC	= 002000	#15-606     131-5450
CD.DPC	= 001000	#15-607     131-5457
CD.NRM	= 000000	#15-609
CESCES	  000016 R	 47-2105   #47-2108
CESERM	  003722 R	#191-7525   191-7525
CFHERM	  000305 R	#181-7275   181-7275
CHNPNT	= 000001	#87-3839
CH.ALP	= 000001	#22-844     22-853     41-1842    42-1845    42-1846    42-1847    42-1848    42-1849    42-1850
                         42-1851    42-1852    42-1853    42-1854    42-1855    42-1856    42-1857    42-1858    42-1859
PAROOT     CREATED BY  MACRO  ON 17-MAY-88 AT 14:33	PAGE 4

SYMBOL CROSS REFERENCE                                  CREF   04.00

SYMBOL	VALUE		REFERENCES

                         42-1860    42-1861    42-1862    42-1863    42-1864    42-1865    42-1866    42-1867    42-1868
                         42-1869    42-1870    48-2147
CH.ANM	= 000003	#22-853
CH.AOP	= 000100	#22-850     41-1817    41-1818    41-1819    41-1820    41-1822    41-1824    42-1846    42-1847
                         42-1848    42-1859    42-1875    42-1876
CH.END	= 000034	#22-852     59-2553    169-6868
CH.EOC	= 000010	#22-847     22-852     40-1776    40-1777    41-1821    41-1837    41-1838    49-2184    51-2249
                         53-2315
CH.EOL	= 000004	#22-846     22-852     40-1776
CH.EOS	= 000020	#22-848     22-852     40-1776    40-1777    41-1809    41-1811    41-1816    41-1819    41-1820
                         41-1821    41-1822    41-1824    41-1837    41-1838    41-1840    41-1841    42-1876    52-2286
CH.ILL	= 000200	#22-851     40-1778    40-1779    40-1780    40-1781    40-1782    40-1783    40-1784    40-1785
                         40-1786    40-1787    40-1788    40-1789    40-1790    40-1791    40-1792    40-1793    40-1794
                         40-1795    40-1796    40-1797    40-1798    40-1799    41-1801    41-1802    41-1803    41-1804
                         41-1805    41-1806    41-1807    41-1808    41-1810    41-1812    41-1813    41-1814    41-1815
                         41-1823    41-1839    41-1843    42-1872    42-1873    42-1874    42-1877
CH.NUL	= 000000	#22-843
CH.NUM	= 000002	#22-845     22-853     41-1826    41-1827    41-1828    41-1829    41-1830    41-1831    41-1832
                         41-1833    41-1834    41-1835    48-2154    238-9288
CH.PFX	= 000040	#22-849     41-1817    41-1820    41-1822    41-1842    42-1875    48-2154
CIDLUN	= 000001	#21-820     160-6595   224-8709   260-10121  260-10126
CKCILS	  000152 R	 49-2187   #49-2189    51-2258    52-2287    52-2289
CKCMRA	  000160 R	 48-2155    49-2185   #49-2192    53-2316
CKEEOC	  000250 R	 51-2256   #51-2260
CKRKLR	  000366 R	 54-2358   #54-2366
CLEAR 	= 000400	#24-948
CLEARB	= 000403	#24-949
CLEARI	= 000401	#24-950
CLEARM	= 000402	#24-951
CLEERM	  000343 R	#181-7276   181-7276
CLKMSG	  001617 RG	 190-7484  #190-7484   190-7484   193-7553   193-7553
CLOATR	= 000256 R	*75-3344   *75-3348   #75-3371
CLOATT	= 000262 R	*75-3350   #75-3378
CLODAC	  000240 R	 75-3351   #75-3366    75-3369    75-3370    75-3371
CLOFCF	  002160 R	 75-3352    75-3354   #75-3360
CLOIOF	= 000242 R	*75-3343   *75-3347   #75-3369
CLOLUN	= 000244 R	*75-3349   #75-3370
CLOSE 	= 000070	#24-953
CLOWAT	  000260 R	 75-3348   #75-3373    75-3378
CLRMSG	  000373 RG	 174-7017  #174-7017   174-7017
CNRERM	  000400 R	#181-7277   181-7277
CNTMSG	  000401 RG	 174-7019  #174-7019   174-7019
CNUPE 	= 000002	#87-3839
CODLUN	= 000002	#21-821     260-10103
CONI  	= 000005	#7-239
CONIS 	  002265 R	 230-8992  #230-9004
CONMSG	  001625 RG	 190-7486  #190-7486   190-7486   193-7555   193-7555
CONO  	= 000004	#7-238      117-4986   117-4986
CONOS 	  002260 R	 230-8991  #230-9003
CONSO 	= 000007	#7-241
CONSOS	  002300 R	 230-8994  #230-9006
CONSZ 	= 000006	#7-240
PAROOT     CREATED BY  MACRO  ON 17-MAY-88 AT 14:33	PAGE 5

SYMBOL CROSS REFERENCE                                  CREF   04.00

SYMBOL	VALUE		REFERENCES

CONSZS	  002272 R	 230-8993  #230-9005
CPEERM	  000440 R	#181-7278   181-7278
CPUMSG	  001420 RG	 184-7384  #184-7384   184-7384
CPUNUM	= 000002	#87-3839
CPVMSG	  000000 RG	#39-1729
CRAMSG	  001054 RG	 178-7169  #178-7169   178-7169
CRHERM	  000467 R	#181-7279   181-7279
CRLMSG	  001063 RG	 178-7171  #178-7171   178-7171
CRMMSG	  001450 RG	 62-2673    185-7405  #185-7405   185-7405   189-7467   189-7467
CR.ALL	= 000003	#15-598     15-613
CR.CR1	= 000001	#15-592     15-598     131-5463
CR.CR2	= 000002	#15-593     15-598     131-5455
CR.FUL	= 000000	#15-594
CR.HLF	= 000001	#15-595
CR.NRM	= 000000	#15-591
CR.QTR	= 000002	#15-596
CR.SLO	= 000003	#15-597
CS.ALL	= 000014	#15-589     15-613
CS.CS1	= 000004	#15-583     15-589     131-5448
CS.CS2	= 000010	#15-584     15-589     131-5442
CS.EXP	= 177670	#87-3839
CS.EXT	= 000010	#15-587
CS.FST	= 000004	#15-585     15-586
CS.MGN	= 000004	#15-586
CS.NRM	= 000000	#15-582
CS.UDF	= 000014	#15-588
CTLMSG	  001467 RG	 185-7409  #185-7409   185-7409
CTYPTR	= ******  GX	 160-6599
DATABX	  000312 RG	#35-1616    262-10134
DATAI 	= 000001	#7-235
DATAIS	  002237 R	 230-8988  #230-9000
DATAO 	= 000003	#7-237
DATAOS	  002252 R	 230-8990  #230-9002
DATMSG	  001635 RG	 190-7488  #190-7488   190-7488   193-7557   193-7557
DAVERM	  000531 R	#181-7284   181-7284
DBTERM	  000562 R	#181-7285   181-7285
DCKERM	  000612 R	#181-7286   181-7286
DCOMST	= 000001	#87-3839
DCRMSG	  000724 RG	 175-7093  #175-7093   175-7093   176-7114   176-7114   177-7129   177-7129   178-7202   178-7202
DEB880	= ******	 44-1922    47-2100    56-2424    90-3943    94-4057    97-4166    99-4235    99-4251    100-4277
                         104-4422   104-4430   106-4488   108-4584   110-4660   114-4839   115-4852   115-4881   117-4971
                         128-5328   139-5792   149-6125   152-6221
DECMSG	  001361 RG	 180-7258  #180-7258   180-7258
DEP   	= 010000	#87-3839
DEPMSG	  000412 RG	 174-7021  #174-7021   174-7021
DEX   	= 000400	#87-3839
DEXDON	= 000004	#87-3839
DEXWD1	= 174406	#87-3839
DEXWD2	= 174404	#87-3839
DEXWD3	= 174402	#87-3839
DFAD  	= 000110	#24-955
DFBEND	= 000362 RG	#37-1687
PAROOT     CREATED BY  MACRO  ON 17-MAY-88 AT 14:33	PAGE 6

SYMBOL CROSS REFERENCE                                  CREF   04.00

SYMBOL	VALUE		REFERENCES

DFDV  	= 000113	#24-956
DFMP  	= 000112	#24-957
DFN   	= 000131	#24-958
DFSB  	= 000111	#24-959
DFUNC 	= 000200	#87-3839
DF.DMG	= 000004	#87-3839
DF.DMN	= 000007	#87-3839
DF.DOR	= 000001	#87-3839
DF.EHG	= 000010	#87-3839
DF.EHM	= 000011	#87-3839
DF.EMG	= 000005	#87-3839
DF.EMN	= 000006	#87-3839
DF.KLR	= 000012	#87-3839    106-4531
DF.KLW	= 000013	#87-3839    108-4628
DF.KLX	= 000014	#87-3839    111-4730
DF.OFF	= 000002	#87-3839
DF.ON 	= 000003	#87-3839
DF.PDP	= 000016	#87-3839    102-4346
DF.PEX	= 000015	#87-3839    102-4364
DIAG1 	= 174430	#87-3839
DIAG2 	= 174432	#87-3839
DIAG3 	= 174436	#87-3839
DIKL10	= 000010	#87-3839
DISMSG	  000422 RG	 174-7023  #174-7023   174-7023
DIV   	= 000234	#24-961
DIVB  	= 000237	#24-962
DIVI  	= 000235	#24-963
DIVM  	= 000236	#24-964
DLYCNT	= 174400	#87-3839
DMFERM	  000635 R	#181-7287   181-7287
DMOVE 	= 000120	#24-966
DMOVEM	= 000124	#24-967
DMOVN 	= 000121	#24-968
DMOVNM	= 000125	#24-969
DNFERM	  000724 R	#181-7289   181-7289
DNPERM	  000763 R	#181-7290   181-7290
DOCCNR	  010102 R	 159-6528  #159-6551
DON10C	= 040000	#87-3839
DON10S	= 100000	#87-3839
DON11C	= 000100	#87-3839
DON11S	= 000200	#87-3839
DORERM	  000674 R	#181-7288   181-7288
DPB   	= 000137	#24-971
DPDTEN	= 000322 RG	#102-4347
DPS4  	= 040000	#87-3839
DPTMSG	  001455 RG	 185-7407  #185-7407   185-7407
DRAMSG	  001071 RG	 178-7173  #178-7173   178-7173
DRDMSG	  002144 R	 216-8364  #217-8394
DRESET	= 000100	#87-3839
DRMMSG	  001573 RG	 62-2672    189-7469  #189-7469   189-7469
DR.DTE	= 000011	#87-3839    102-4346   102-4364   106-4531   108-4628   111-4730
DSEND 	= 000004	#87-3839
PAROOT     CREATED BY  MACRO  ON 17-MAY-88 AT 14:33	PAGE 7

SYMBOL CROSS REFERENCE                                  CREF   04.00

SYMBOL	VALUE		REFERENCES

DSFERM	  001022 R	#181-7291   181-7291
DS04  	= 004000	#87-3839
DS05  	= 002000	#87-3839
DS06  	= 001000	#87-3839
DTCERM	  001055 R	#181-7292   181-7292
DTECMD	= 000451	#87-3839
DTEDSF	  003626 R	 94-4062   #94-4075
DTEFLG	= 000444	#87-3839
DTEF11	= 000450	#87-3839
DTEMSG	  001100 RG	 178-7175  #178-7175   178-7175   184-7386   184-7386
DTEMTD	= 000455	#87-3839
DTEMTI	= 000456	#87-3839
DTKMSG	  002215 R	 218-8436  #220-8502
DTRMSG	  002063 R	 216-8349  #217-8382
DUPE  	= 000020	#87-3839
DURE  	= 000004	#87-3839
DWRMSG	  002150 R	 216-8367  #217-8396
DW1MSG	  002104 R	 217-8376  #217-8385
DW2MSG	  002114 R	 217-8377  #217-8387
DW3MSG	  002134 R	 217-8379  #217-8391
DXWRD1	= 002000	#87-3839
D.CDLS	= ******  GX	 160-6601
D1.CES	= 004000	#10-368     47-2104    114-4838
D1.DCS	= 000001	#10-385
D1.DDT	= 000040	#10-375     10-388
D1.DEX	= 000400	#10-371     10-388
D1.DFM	= 000010	#10-379
D1.DS0	= 100000	#10-361
D1.DS1	= 040000	#10-362
D1.DS2	= 020000	#10-363
D1.DS3	= 010000	#10-364
D1.DS4	= 004000	#10-365
D1.DS5	= 002000	#10-366
D1.DS6	= 001000	#10-367
D1.HLP	= 001000	#10-370     104-4421   104-4429   115-4851   115-4880   117-4970   152-6220
D1.LBK	= 000200	#10-373
D1.MBZ	= 000442	#10-388     94-4084
D1.PLS	= 000020	#10-378
D1.RUN	= 002000	#10-369
D1.T10	= 000200	#10-372
D1.T11	= 000100	#10-374
D1.V04	= 000020	#10-377
D1.XFR	= 000004	#10-380
D1011 	= 000040	#87-3839
D2RST 	  004344 R	 142-5899  #142-5907
D2.EBD	= 040000	#11-394
D2.MBZ	= 177641	#11-411     94-4085
D2.MS1	= 000002	#11-407
D2.MS2	= 000004	#11-406
D2.MS4	= 000010	#11-405
D2.MS8	= 000020	#11-404
D2.RA0	= 100000	#11-392
PAROOT     CREATED BY  MACRO  ON 17-MAY-88 AT 14:33	PAGE 8

SYMBOL CROSS REFERENCE                                  CREF   04.00

SYMBOL	VALUE		REFERENCES

D2.RA1	= 040000	#11-393
D2.RA2	= 020000	#11-396
D2.RST	= 000100	#11-400     142-5908
D3RST 	  004346 R	 142-5901  #142-5909
D3.CDD	= 000020	#11-424
D3.MBZ	= 177704	#11-433     94-4087
D3.NPE	= 000002	#11-429
D3.PAR	= 040000	#11-416
D3.RST	= 000001	#11-435     142-5910
D3.SCD	= 000040	#11-422
D3.SSL	= 100000	#11-415
D3.TXB	= 000001	#11-431     11-435
D3.UPE	= 000020	#11-423
D3.URE	= 000004	#11-428
D3.WEP	= 000010	#11-425
EBCECT	  003722 R	 97-4173   #97-4177
EBPEPE	  000424 R	 56-2425   #56-2428
EBRMSG	  001107 RG	 178-7177  #178-7177   178-7177
EBSEL 	= 000100	#87-3839
EBSMSG	  001033 RG	 178-7156  #178-7156   178-7156
EBUSPC	= 000020	#87-3839
EBUSPS	= 000004	#87-3839
ECTERM	  001127 R	#181-7294   181-7294
EDEPT 	  002154 R	 220-8483  #220-8490
EDEXV 	  002160 R	 220-8484  #220-8492
EDONES	= 040000	#87-3839
EDPHY 	  002174 R	 220-8487  #220-8498
EDTYTB	  007264 R	 219-8469  #220-8482
EDUPT 	  002164 R	 220-8485  #220-8494
EDUSV 	  002170 R	 220-8486  #220-8496
ED.EPT	= 000000	#9-326
ED.EXV	= 000040	#9-327
ED.PHY	= 000200	#9-330      102-4346   102-4364
ED.UPT	= 000100	#9-328
ED.USV	= 000140	#9-329
EF.CRI	= ******  GX	 141-5851
ELBBIN	  007350 RG	 246-9574  #250-9735
ELBOCT	  007354 RG	 246-9578  #250-9738
ELEMSG	  000776 RG	 176-7110  #176-7110   176-7110   178-7179   178-7179   186-7430   186-7430
ELNBIN	  007342 RG	 245-9535  #250-9731
ELNNOR	  013214 R	 225-8742   225-8744   225-8749   225-8751  #225-8754
ELNOCT	  007360 RG	 245-9539  #250-9743
EMFERM	  001160 R	#181-7295   181-7295
ENBMSG	  001600 RG	 189-7471  #189-7471   189-7471
ENTCRE	  000070 R	 72-3186   #72-3203
ENTDEL	  000144 R	 72-3195   #72-3209
ENTENA	  000114 R	 72-3190   #72-3206
ENTER 	= 000077	#25-973
ENTFEN	  001730 R	 72-3187    72-3189   #72-3197
EOCERM	  001217 R	#181-7296   181-7296
EOFMSG	  000335 R	 77-3463   #77-3472
EPEERM	  001255 R	#181-7297   181-7297
PAROOT     CREATED BY  MACRO  ON 17-MAY-88 AT 14:33	PAGE 9

SYMBOL CROSS REFERENCE                                  CREF   04.00

SYMBOL	VALUE		REFERENCES

EPTR  	= 000000	#87-3839
EQV   	= 000444	#25-975
EQVB  	= 000447	#25-976
EQVI  	= 000445	#25-977
EQVM  	= 000446	#25-978
ERRMSG	  001424 RG	 184-7388  #184-7388   184-7388
ERR10C	= 010000	#87-3839
ERR10S	= 020000	#87-3839
ERR11C	= 000001	#87-3839
ERR11S	= 000002	#87-3839
ERSMSG	  000107 R	 62-2671   #63-2681
ESDERM	  001305 R	#181-7298   181-7298
ESEERM	  001342 R	#181-7299   181-7299
ETRMSG	  002200 R	 218-8431  #220-8500
EXAMSG	  000435 RG	 174-7025  #174-7025   174-7025
EXCH  	= 000250	#25-980
EXDDMF	  004134 R	 101-4310  #101-4322
EXDEMF	  004142 R	 101-4304  #101-4325
EXDESD	  004104 R	 101-4309  #101-4314
EXDESE	  004120 R	 101-4303  #101-4318
EXDTEN	= 000334 RG	#102-4365
EXECTO	  004354 R	 104-4435  #104-4455
EXRTBL	= 000012  G	#178-7166
EXTEND	= 000123	#25-981
EXTEXT	  000214 R	 74-3291   #74-3313
EXTFEF	  002036 R	 74-3292    74-3294   #74-3299
EXTMSG	  001477 RG	 185-7411  #185-7411   185-7411
E.FCID	= 000002	#21-804     160-6595   224-8709   260-10121
E.FCOD	= 000003	#21-805     260-10103  260-10126
E.FCTC	= ******  GX	 50-2218
E.FFIL	= 000006	#21-808     70-3093    71-3156    72-3204    72-3207    72-3210    73-3254    74-3314    75-3367
                         80-3575    85-3784
E.FHTO	= 000001	#21-803     91-3973    149-6126
E.FKLN	= 000004	#21-806
E.FLOD	= 000005	#21-807     260-10112
FAD   	= 000140	#25-983
FADB  	= 000143	#25-984
FADL  	= 000141	#25-985
FADM  	= 000142	#25-986
FADR  	= 000144	#25-988
FADRB 	= 000147	#25-989
FADRI 	= 000145	#25-990
FADRM 	= 000146	#25-991
FCFERM	  001377 R	#181-7301   181-7301
FDV   	= 000170	#25-993
FDVB  	= 000173	#25-994
FDVL  	= 000171	#25-995
FDVM  	= 000172	#25-996
FDVR  	= 000174	#25-998
FDVRB 	= 000177	#25-999
FDVRI 	= 000175	#25-1000
FDVRM 	= 000176	#25-1001
PAROOT     CREATED BY  MACRO  ON 17-MAY-88 AT 14:33	PAGE 10

SYMBOL CROSS REFERENCE                                  CREF   04.00

SYMBOL	VALUE		REFERENCES

FEBMSG	  001254 RG	 180-7238  #180-7238   180-7238
FEFERM	  001430 R	#181-7302   181-7302
FENERM	  001462 R	#181-7303   181-7303
FERMSG	  001113 RG	 178-7181  #178-7181   178-7181
FIX   	= 000122	#25-1003
FIXR  	= 000126	#25-1004
FLDMSG	  000050 R	 60-2592   #60-2599
FLFERM	  001513 R	#181-7304   181-7304
FLGMSG	  001116 RG	 178-7183  #178-7183   178-7183
FLTMSG	  001642 RG	 190-7490  #190-7490   190-7490   193-7559   193-7559
FLTR  	= 000127	#25-1006
FMMSG 	  001040 RG	 62-2674    178-7159  #178-7159   178-7159   189-7473   189-7473
FMP   	= 000160	#25-1008
FMPB  	= 000163	#25-1009
FMPL  	= 000161	#25-1010
FMPM  	= 000162	#25-1011
FMPR  	= 000164	#25-1013
FMPRB 	= 000167	#25-1014
FMPRI 	= 000165	#25-1015
FMPRM 	= 000166	#25-1016
FNDALN	  000000 R	 70-3066   #70-3087    70-3090
FNDALU	= 000002 R	*70-3065   #70-3090
FNDCAL	  001550 R	 70-3067   #70-3079
FNDDNF	  001556 R	 70-3071    70-3073   #70-3081
FNDFNA	  000010 R	 70-3070   #70-3092    70-3095    70-3096
FNDFNB	= 000036 R	*70-3069   #70-3096
FNDLUN	= 000014 R	*70-3068   #70-3095
FOFERM	  001545 R	#181-7305   181-7305
FORPRO	= 000020	#87-3839
FRDERM	  001575 R	#181-7306   181-7306
FRDFRF	  004436 R	 106-4493  #106-4510
FRDMSG	  000445 RG	 174-7027  #174-7027   174-7027
FRDTEN	= 000346 RG	#106-4532
FRFERM	  003754 R	#191-7527   191-7527
FR.ADX	= 000254	#18-726
FR.APR	= 000220	#18-704
FR.ARX	= 000252	#18-724
FR.BRX	= 000250	#18-722
FR.CA1	= 000312	#19-756     19-757
FR.CA2	= 000310	#19-753     19-754
FR.CL1	= 000316	#19-763
FR.CL2	= 000314	#19-760
FR.CRD	= 000302	#19-747     132-5498
FR.CR1	= 000316	#19-762     19-763
FR.CR2	= 000314	#19-759     19-760
FR.CR3	= 000312	#19-757
FR.CR4	= 000310	#19-754     134-5575
FR.DA1	= 000260	#18-732
FR.DA2	= 000262	#18-735
FR.EBS	= 000356	#20-790
FR.FE1	= 000266	#18-739
FR.FE2	= 000264	#18-737
PAROOT     CREATED BY  MACRO  ON 17-MAY-88 AT 14:33	PAGE 11

SYMBOL CROSS REFERENCE                                  CREF   04.00

SYMBOL	VALUE		REFERENCES

FR.PI0	= 000200	#18-693
FR.PI1	= 000202	#18-695
FR.RAD	= 000256	#18-728
FR.RAR	= 000240	#18-714
FR.RBR	= 000242	#18-716
FR.RFM	= 000246	#18-720     137-5709
FR.RMQ	= 000244	#18-718
FR.SC1	= 000262	#18-734
FR.SC2	= 000260	#18-731
FR.SR1	= 000306	#19-751
FR.SR2	= 000304	#19-749
FR.VM0	= 000320	#19-766
FR.VM1	= 000322	#19-768
FR.VM2	= 000324	#19-770
FR.VM3	= 000326	#19-772
FR.VM4	= 000330	#19-774
FR.VM5	= 000332	#19-776
FR.VM6	= 000334	#19-778
FR.VM7	= 000336	#19-780
FR.100	= 000200	#18-692     18-693
FR.101	= 000202	#18-694     18-695
FR.102	= 000204	#18-696     139-5775
FR.103	= 000206	#18-697
FR.104	= 000210	#18-698     97-4163    131-5438
FR.105	= 000212	#18-699     131-5439
FR.106	= 000214	#18-700     131-5440
FR.107	= 000216	#18-701     131-5441
FR.110	= 000220	#18-703     18-704
FR.111	= 000222	#18-705
FR.112	= 000224	#18-706
FR.113	= 000226	#18-707
FR.114	= 000230	#18-708     136-5665   138-5738
FR.115	= 000232	#18-709
FR.116	= 000234	#18-710
FR.117	= 000236	#18-711
FR.120	= 000240	#18-713     18-714
FR.121	= 000242	#18-715     18-716
FR.122	= 000244	#18-717     18-718
FR.123	= 000246	#18-719     18-720
FR.124	= 000250	#18-721     18-722
FR.125	= 000252	#18-723     18-724
FR.126	= 000254	#18-725     18-726
FR.127	= 000256	#18-727     18-728
FR.130	= 000260	#18-730     18-731     18-732
FR.131	= 000262	#18-733     18-734     18-735
FR.132	= 000264	#18-736     18-737
FR.133	= 000266	#18-738     18-739
FR.134	= 000270	#18-740
FR.135	= 000272	#18-741
FR.136	= 000274	#18-742
FR.137	= 000276	#18-743
FR.140	= 000300	#19-745
PAROOT     CREATED BY  MACRO  ON 17-MAY-88 AT 14:33	PAGE 12

SYMBOL CROSS REFERENCE                                  CREF   04.00

SYMBOL	VALUE		REFERENCES

FR.141	= 000302	#19-746     19-747
FR.142	= 000304	#19-748     19-749
FR.143	= 000306	#19-750     19-751
FR.144	= 000310	#19-752     19-753
FR.145	= 000312	#19-755     19-756
FR.146	= 000314	#19-758     19-759
FR.147	= 000316	#19-761     19-762
FR.150	= 000320	#19-765     19-766
FR.151	= 000322	#19-767     19-768
FR.152	= 000324	#19-769     19-770
FR.153	= 000326	#19-771     19-772
FR.154	= 000330	#19-773     19-774
FR.155	= 000332	#19-775     19-776
FR.156	= 000334	#19-777     19-778
FR.157	= 000336	#19-779     19-780
FR.160	= 000340	#20-782
FR.161	= 000342	#20-783
FR.162	= 000344	#20-784     128-5325
FR.163	= 000346	#20-785
FR.164	= 000350	#20-786
FR.165	= 000352	#20-787
FR.166	= 000354	#20-788
FR.167	= 000356	#20-789     20-790
FR.170	= 000360	#20-792
FR.171	= 000362	#20-793
FR.172	= 000364	#20-794
FR.173	= 000366	#20-795
FR.174	= 000370	#20-796
FR.175	= 000372	#20-797
FR.176	= 000374	#20-798
FR.177	= 000376	#20-799
FSB   	= 000150	#25-1018
FSBB  	= 000153	#25-1019
FSBL  	= 000151	#25-1020
FSBM  	= 000152	#25-1021
FSBR  	= 000154	#26-1023
FSBRB 	= 000157	#26-1024
FSBRI 	= 000155	#26-1025
FSBRM 	= 000156	#26-1026
FSC   	= 000132	#26-1028
FSSMSG	  001607 RG	 62-2675    189-7475  #189-7475   189-7475   190-7492   190-7492
FSWERM	  001625 R	#181-7307   181-7307
FTBYTE	= 000000	#2-66
FTCRAM	= 000000	#2-67
FTDEBU	= 000001	#2-68       35-1503    68-2881    160-6576
FTDISP	= 000000	#2-69
FTDRAM	= 000000	#2-70       35-1511    181-7281
FTHELP	= 000000	#2-71       174-7035
FTKLE 	= 000001	#2-78       159-6543   163-6672   223-8621
FTKLER	= 000000	#2-72
FTKLI 	= ******	 69-2943    69-2954    74-3304    77-3419
FTLCMN	= 000001  G	 1-1        33-1410   #262-10132
PAROOT     CREATED BY  MACRO  ON 17-MAY-88 AT 14:33	PAGE 13

SYMBOL CROSS REFERENCE                                  CREF   04.00

SYMBOL	VALUE		REFERENCES

FTLCVT	= 000000	#2-73       42-1878    224-8677
FTLIST	= 000001	#2-74
FTTRAK	= 000001	#2-75       13-491     35-1592    94-4064    99-4240    106-4503   108-4598   111-4700   190-7514
                         193-7581   213-8250   215-8344   218-8425
FTTRP4	= 000001	#2-76
FTUCVR	= 000130	#2-77
FT1105	= 000001	#2-65      #2-102
FT1110	= 000001	#2-64      #2-98       2-101
FT1115	= 000001	#2-63      #2-94       2-97
FT1120	= 000001	#2-62      #2-90       2-93
FT1135	= 000001	#2-61      #2-86       2-89
FT1140	= 000001	#2-60       2-85       3-111
FT1145	= 000000	#2-59       2-81
FULMSG	  001530 RG	 185-7417  #185-7417   185-7417
FWDTEN	= 000360 RG	#108-4629
FWFERM	  004001 R	#191-7528   191-7528
FWRFWF	  004560 R	 108-4589  #108-4607
FWRMSG	  000453 RG	 174-7029  #174-7029   174-7029
FWTERM	  001652 R	#181-7308   181-7308
FW.APE	= 000116	#16-629
FW.CA1	= 000122	#16-645     126-5267   134-5589   141-5862   155-6395
FW.CA2	= 000124	#16-647     126-5260   134-5591   141-5861   155-6397
FW.CDR	= 000112	#15-601
FW.CHN	= 000160	#17-677     128-5320
FW.CRD	= 000126	#16-649     155-6392
FW.CR1	= 000136	#16-657
FW.CR2	= 000134	#16-655
FW.CR3	= 000132	#16-653
FW.CR4	= 000130	#16-651     155-6375
FW.CSR	= 000110	#15-577     124-5193
FW.DJE	= 000146	#17-666
FW.DJO	= 000150	#17-668
FW.DR1	= 000140	#17-660
FW.DR2	= 000142	#17-662
FW.DR3	= 000144	#17-664
FW.EBL	= 000174	#17-685     141-5864
FW.IAC	= 000154	#17-672
FW.IOJ	= 000152	#17-670
FW.IPE	= 000114	#16-616     124-5199
FW.KLO	= 000156	#17-674     141-5863
FW.LAR	= 000176	#17-688     116-4929   120-5086   154-6307
FW.LBL	= 000106	#15-575     122-5133   141-5860
FW.LBR	= 000104	#15-573     122-5124   141-5859
FW.MBX	= 000162	#17-679     141-5867
FW.SBR	= 000174	#17-686
FW.040	= 000100	#15-570
FW.041	= 000102	#15-571
FW.042	= 000104	#15-572     15-573
FW.043	= 000106	#15-574     15-575
FW.044	= 000110	#15-576     15-577     108-4592
FW.045	= 000112	#15-600     15-601
FW.046	= 000114	#16-615     16-616
PAROOT     CREATED BY  MACRO  ON 17-MAY-88 AT 14:33	PAGE 14

SYMBOL CROSS REFERENCE                                  CREF   04.00

SYMBOL	VALUE		REFERENCES

FW.047	= 000116	#16-628     16-629     108-4594
FW.050	= 000120	#16-643
FW.051	= 000122	#16-644     16-645
FW.052	= 000124	#16-646     16-647
FW.053	= 000126	#16-648     16-649
FW.054	= 000130	#16-650     16-651
FW.055	= 000132	#16-652     16-653
FW.056	= 000134	#16-654     16-655
FW.057	= 000136	#16-656     16-657
FW.060	= 000140	#17-659     17-660
FW.061	= 000142	#17-661     17-662
FW.062	= 000144	#17-663     17-664
FW.063	= 000146	#17-665     17-666
FW.064	= 000150	#17-667     17-668
FW.065	= 000152	#17-669     17-670
FW.066	= 000154	#17-671     17-672
FW.067	= 000156	#17-673     17-674
FW.070	= 000160	#17-676     17-677
FW.071	= 000162	#17-678     17-679
FW.072	= 000164	#17-680
FW.073	= 000166	#17-681
FW.074	= 000170	#17-682
FW.075	= 000172	#17-683
FW.076	= 000174	#17-684     17-685     17-686
FW.077	= 000176	#17-687     17-688
FXCFXF	  004730 R	 110-4665  #111-4708
FXCMSG	  000462 RG	 174-7031  #174-7031   174-7031
FXDTEN	= 000372 RG	#111-4731
FXFERM	  004027 R	#191-7529   191-7529
FX.BMC	= 000012	#14-530     88-3874
FX.CMR	= 000014	#14-532     128-5337
FX.CON	= 000024	#14-541     113-4784   119-5028   120-5088
FX.CRF	= 000020	#14-537     90-3948    110-4691
FX.CSP	= 000000	#14-520
FX.CST	= 000002	#14-522     110-4668   147-6066
FX.EBC	= 000006	#14-526     134-5571
FX.MBC	= 000004	#14-524     97-4161    128-5332
FX.SMR	= 000016	#14-534     110-4670   127-5306
FX.SRF	= 000022	#14-539     110-4685   150-6159
FX.SYC	= 000010	#14-528     153-6264
FX.UDR	= 000032	#14-546
FX.UIR	= 000030	#14-544
FX.000	= 000000	#14-519     14-520
FX.001	= 000002	#14-521     14-522
FX.002	= 000004	#14-523     14-524
FX.003	= 000006	#14-525     14-526
FX.004	= 000010	#14-527     14-528
FX.005	= 000012	#14-529     14-530
FX.006	= 000014	#14-531     14-532
FX.007	= 000016	#14-533     14-534
FX.010	= 000020	#14-536     14-537
FX.011	= 000022	#14-538     14-539
PAROOT     CREATED BY  MACRO  ON 17-MAY-88 AT 14:33	PAGE 15

SYMBOL CROSS REFERENCE                                  CREF   04.00

SYMBOL	VALUE		REFERENCES

FX.012	= 000024	#14-540     14-541
FX.013	= 000026	#14-542
FX.014	= 000030	#14-543     14-544
FX.015	= 000032	#14-545     14-546
FX.016	= 000034	#14-547
FX.017	= 000036	#14-548
FX.020	= 000040	#14-550
FX.021	= 000042	#14-551
FX.022	= 000044	#14-552
FX.023	= 000046	#14-553
FX.024	= 000050	#14-554
FX.025	= 000052	#14-555
FX.026	= 000054	#14-556
FX.027	= 000056	#14-557
FX.030	= 000060	#14-559
FX.031	= 000062	#14-560
FX.032	= 000064	#14-561
FX.033	= 000066	#14-562
FX.034	= 000070	#14-563
FX.035	= 000072	#14-564
FX.036	= 000074	#14-565
FX.037	= 000076	#14-566
GETSTS	= 000062	#26-1030
GTFILC	  014264 R	 236-9202  #236-9213
GTKKLA	  013274 R	 227-8814   227-8816  #227-8818
GTLCBO	  013130 R	 224-8666  #224-8698
GTLILC	  013136 R	 223-8654   224-8680  #224-8701
GTNILI	  013700 R	 230-8944   230-8958   230-8976  #230-8980
GTNMRA	  014526 R	 239-9313  #239-9315
GTNNER	  013506 R	 228-8852   228-8862  #229-8903   230-8960
GTNNOR	  014534 R	 225-8755   229-8901   238-9293   238-9299  #239-9318
GTNORE	  013502 R	 228-8866   228-8868  #229-8900   230-8963   230-8965
HARMSG	  001773 RG	 193-7561  #193-7561   193-7561
HIBYTE	= 177400	#87-3839
HLFMSG	  001535 RG	 185-7419  #185-7419   185-7419
HLL   	= 000500	#26-1032
HLLE  	= 000530	#26-1033
HLLEI 	= 000531	#26-1034
HLLEM 	= 000532	#26-1035
HLLES 	= 000533	#26-1036
HLLI  	= 000501	#26-1038
HLLM  	= 000502	#26-1039
HLLO  	= 000520	#26-1041
HLLOI 	= 000521	#26-1042
HLLOM 	= 000522	#26-1043
HLLOS 	= 000523	#26-1044
HLLS  	= 000503	#26-1046
HLLZ  	= 000510	#26-1048
HLLZI 	= 000511	#26-1049
HLLZM 	= 000512	#26-1050
HLLZS 	= 000513	#26-1051
HLR   	= 000544	#26-1053
PAROOT     CREATED BY  MACRO  ON 17-MAY-88 AT 14:33	PAGE 16

SYMBOL CROSS REFERENCE                                  CREF   04.00

SYMBOL	VALUE		REFERENCES

HLRE  	= 000574	#26-1055
HLREI 	= 000575	#26-1056
HLREM 	= 000576	#26-1057
HLRES 	= 000577	#26-1058
HLRO  	= 000564	#26-1060
HLROI 	= 000565	#26-1061
HLROM 	= 000566	#26-1062
HLROS 	= 000567	#26-1063
HLRS  	= 000547	#26-1065
HLRZ  	= 000554	#26-1067
HLRZI 	= 000555	#26-1068
HLRZM 	= 000556	#26-1069
HLRZS 	= 000557	#26-1070
HLTMSG	  000467 RG	 174-7033  #174-7033   174-7033
HRL   	= 000504	#27-1072
HRLE  	= 000534	#27-1074
HRLEI 	= 000535	#27-1075
HRLEM 	= 000536	#27-1076
HRLES 	= 000537	#27-1077
HRLI  	= 000505	#27-1079
HRLM  	= 000506	#27-1080
HRLO  	= 000564	#27-1082
HRLOI 	= 000565	#27-1083
HRLOM 	= 000566	#27-1084
HRLOS 	= 000567	#27-1085
HRLS  	= 000507	#27-1087
HRLZ  	= 000514	#27-1089
HRLZI 	= 000515	#27-1090
HRLZM 	= 000516	#27-1091
HRLZS 	= 000517	#27-1092
HRR   	= 000540	#27-1094
HRRE  	= 000570	#27-1096
HRREI 	= 000571	#27-1097
HRREM 	= 000572	#27-1098
HRRES 	= 000573	#27-1099
HRRI  	= 000541	#27-1101
HRRM  	= 000542	#27-1102
HRRO  	= 000560	#27-1104
HRROI 	= 000561	#27-1105
HRROM 	= 000562	#27-1106
HRROS 	= 000563	#27-1107
HRRS  	= 000543	#27-1109
HRRZ  	= 000550	#27-1111
HRRZI 	= 000551	#27-1112
HRRZM 	= 000552	#27-1113
HRRZS 	= 000553	#27-1114
I     	= 000000	#117-4986   117-4986
IBP   	= 000133	#28-1116
IDFERM	  001703 R	#181-7310   181-7310
IDIV  	= 000230	#28-1118
IDIVB 	= 000233	#28-1119
IDIVI 	= 000231	#28-1120
PAROOT     CREATED BY  MACRO  ON 17-MAY-88 AT 14:33	PAGE 17

SYMBOL CROSS REFERENCE                                  CREF   04.00

SYMBOL	VALUE		REFERENCES

IDIVM 	= 000232	#28-1121
IDPB  	= 000136	#28-1123
IE.EBX	= ******  GX	 100-4285
IE.EOF	= ******  GX	 85-3793
IE.NSF	= ******  GX	 71-3142
IFCERM	  001735 R	#181-7311   181-7311
IFLOP 	= 100000	#87-3839
ILCERM	  004057 R	#191-7531   191-7531
ILDB  	= 000134	#28-1125
ILIERM	  001771 R	#181-7312   181-7312
ILSERM	  004111 R	#191-7532   191-7532
IMUL  	= 000220	#28-1127
IMULB 	= 000223	#28-1128
IMULI 	= 000221	#28-1129
IMULM 	= 000222	#28-1130
IN    	= 000056	#28-1132
INBUF 	= 000064	#28-1133
INCMSG	  000736 RG	 175-7095  #175-7095   175-7095   176-7116   176-7116   177-7131   177-7131   178-7204   178-7204
                         190-7494   190-7494   193-7563   193-7563
INDLUN	= 000005	#21-824     77-3461    80-3575    80-3587    160-6585
INIMSG	  000474 RG	 174-7039  #174-7039   174-7039   184-7390   184-7390
INIT  	= 000041	#28-1134
INPUT 	= 000066	#28-1135
INTMSG	  001510 RG	 185-7413  #185-7413   185-7413
INTROF	= 000010	#87-3839
INTRON	= 000040	#87-3839
INTSON	= 000001	#87-3839
INT10S	= 000400	#87-3839
INT11C	= 002000	#87-3839
INT11S	= 004000	#87-3839
IOCERM	  002015 R	#181-7313   181-7313
IOMSG 	  001432 RG	 184-7392  #184-7392   184-7392
IOR   	= 000434	#28-1137    29-1205
IORB  	= 000437	#28-1138    29-1206
IORI  	= 000435	#28-1139    30-1223
IORM  	= 000436	#28-1140    30-1224
IOTAB 	  007276 R	 230-8942   230-8950  #230-8986
IO.ATT	= ******  GX	 260-10121
IO.CRE	= ******  GX	 72-3204
IO.DAC	= ******  GX	 75-3347
IO.DEL	= ******  GX	 72-3210    75-3343
IO.DET	= ******  GX	 160-6595   260-10126
IO.ENA	= ******  GX	 72-3207
IO.EXT	= ******  GX	 74-3314
IO.FNA	= ******  GX	 70-3093    71-3132
IO.RLB	= ******  GX	 224-8709
IO.RNA	= ******  GX	 71-3129
IO.RVB	= ******  GX	 80-3575
IO.WLB	= ******  GX	 260-10103  260-10112
IO.WVB	= ******  GX	 85-3784
IPCERM	  004155 R	#191-7533   191-7533
IP.ALL	= 000017	#16-626
PAROOT     CREATED BY  MACRO  ON 17-MAY-88 AT 14:33	PAGE 18

SYMBOL CROSS REFERENCE                                  CREF   04.00

SYMBOL	VALUE		REFERENCES

IP.CRP	= 000004	#16-622     16-625     131-5452
IP.DRP	= 000002	#16-623     16-625     131-5459
IP.FMP	= 000010	#16-621     16-625     131-5445
IP.FSS	= 000001	#16-624     16-626     131-5467
IP.NRM	= 000016	#16-625     16-626     16-641
IRCERM	  002045 R	#181-7314   181-7314
IREERM	  002100 R	#181-7315   181-7315
IS.SET	= ******  GX	 50-2219
ITFERM	  002130 R	#181-7316   181-7316
ITNERM	  002162 R	#181-7317   181-7317
JANMSG	  001244 RG	 180-7236  #180-7236   180-7236
JFCL  	= 000255	#28-1142
JFFO  	= 000243	#28-1144
JMPMSG	  000507 RG	 174-7041  #174-7041   174-7041
JRA   	= 000267	#28-1146
JRST  	= 000254	#28-1148
JSA   	= 000266	#28-1150
JSP   	= 000265	#28-1152
JSR   	= 000264	#28-1154
JSYS  	= 000104	#28-1156
JULMSG	  001312 RG	 180-7248  #180-7248   180-7248
JUMP  	= 000320	#28-1158
JUMPA 	= 000324	#28-1159
JUMPE 	= 000322	#28-1160
JUMPG 	= 000327	#28-1161
JUMPGE	= 000325	#28-1162
JUMPL 	= 000321	#28-1163
JUMPLE	= 000323	#28-1164
JUMPN 	= 000326	#28-1165
JUNMSG	  001305 RG	 180-7246  #180-7246   180-7246
KCNERM	  002212 R	#181-7319   181-7319
KF.BRM	= 001000	#13-483     119-5022
KF.CES	= 000100	#13-486     47-2114    128-5339
KF.CLK	= 100000	#13-477     47-2112    54-2355    101-4315   101-4319   103-4394   104-4439   104-4445   108-4596
                         110-4667   113-4786   113-4792   117-4960   119-5025   119-5040   119-5042   163-6684
KF.CON	= 000200	#13-485     13-487     47-2112    113-4794   128-5339
KF.DEF	= 000200	#13-487
KF.KLO	= 000400	#13-484
KF.MRS	= 020000	#13-479     127-5308   128-5339
KF.RUN	= 040000	#13-478     47-2112    54-2355    103-4394   104-4439   104-4449   110-4684   113-4792   119-5025
                         119-5036   119-5045   146-6032   148-6094   163-6686
KF.SIM	= 010000	#13-480     113-4780   119-5022
KF.SMC	= 004000	#13-481
KF.SPM	= 002000	#13-482     113-4778   119-5022
KLABIN	  007336 RG	 247-9623  #250-9728
KLAERM	  002240 R	#181-7320   181-7320
KLAOCT	  007362 RG	 247-9627  #250-9745
KLEPRM	  000034 RG	#39-1737    163-6673
KLHCFH	  005156 R	#115-4886
KLIMSG	  001661 RG	 190-7496  #190-7496   190-7496   193-7565   193-7565
KLIOT 	= 000700	#28-1167
KLMSG 	  001124 RG	 178-7185  #178-7185   178-7185
PAROOT     CREATED BY  MACRO  ON 17-MAY-88 AT 14:33	PAGE 19

SYMBOL CROSS REFERENCE                                  CREF   04.00

SYMBOL	VALUE		REFERENCES

KLNBIN	  007326 RG	 248-9662  #250-9723
KLNOCT	  007356 RG	 248-9666  #250-9741
KLP   	= 000574	#7-249      117-4986   117-4986
KLPSTP	  005274 RG	#117-4988
KLPWRF	= 000010	#87-3839
KLRERM	  002265 R	#181-7321   181-7321
KLSCFH	  005266 R	 117-4978  #117-4981
KNCERM	  002327 R	#181-7322   181-7322
KWEERM	  002363 R	#181-7323   181-7323
LDB   	= 000135	#29-1169
LG.ALL	= 000007	#22-868     174-7023   178-7163   178-7185   179-7217   179-7217   179-7219   179-7221   179-7226
                         179-7228   180-7236   180-7238   180-7240   180-7242   180-7244   180-7246   180-7248   180-7250
                         180-7252   180-7254   180-7256   180-7258   190-7496   193-7557   193-7559   193-7565
LG.ARG	= 000010	#22-861
LG.MAR	= 000020	#22-862
LG.MNT	= 000004	#22-860     22-868     54-2352    174-7027   174-7029   174-7031   174-7045   174-7060   174-7064
                         174-7074   174-7078   182-7366   183-7373   183-7375   185-7403   185-7405   185-7407   185-7409
                         185-7411   185-7413   185-7415   185-7417   185-7419   185-7421   185-7423   189-7463   189-7465
                         189-7467   189-7469   189-7471   189-7473   189-7475   190-7482   190-7484   190-7492   190-7506
                         190-7512   193-7551   193-7579
LG.MOD	= 000040	#22-863
LG.NUL	= 000000	#22-857
LG.OPR	= 000001	#22-858     22-867     174-7013   174-7015   174-7017   174-7025   174-7041   174-7043   174-7047
                         174-7049   174-7051   174-7054   174-7056   174-7062   174-7066   174-7068   174-7070   174-7076
                         174-7080   174-7082   175-7093   175-7095   175-7097   175-7099   175-7101   176-7114   176-7116
                         176-7118   176-7120   176-7122   177-7129   177-7131   177-7133   177-7135   177-7137   178-7179
                         178-7191   178-7202   178-7204   178-7206   178-7208   178-7210   179-7219   186-7430   186-7432
                         187-7439   187-7441   187-7443   187-7445   188-7452   188-7454   188-7456   190-7486   190-7494
                         190-7498   190-7500   190-7504   190-7510   193-7555   193-7561   193-7563   193-7567   193-7571
                         193-7577   193-7585
LG.PRG	= 000002	#22-859     22-867     54-2345    174-7019   174-7021   174-7033   174-7039   174-7058   174-7072
                         174-7084   174-7086   176-7108   176-7110   176-7112   178-7144   178-7146   178-7148   178-7150
                         178-7152   178-7154   178-7156   178-7159   178-7161   178-7167   178-7169   178-7171   178-7173
                         178-7175   178-7177   178-7181   178-7183   178-7187   178-7189   178-7193   178-7194   178-7196
                         178-7198   178-7200   184-7382   184-7384   184-7386   184-7388   184-7390   184-7392   184-7394
                         184-7396   190-7488   190-7490   190-7502   190-7508   190-7512   190-7515   192-7542   192-7544
                         193-7553   193-7569   193-7573   193-7575   193-7579   193-7582
LG.PRM	= 000003	#22-867     22-868     179-7221
LG.RNG	= 000100	#22-864
LG.RPT	= 000400	#22-866     159-6527   174-7013   174-7017   174-7019   174-7021   174-7025   174-7027   174-7029
                         174-7031   174-7033   174-7039   174-7051   174-7058   174-7066   174-7072   174-7074   174-7084
                         175-7093   175-7095   175-7097   175-7099   175-7101   176-7108   176-7110   176-7112   176-7114
                         176-7116   176-7118   176-7120   176-7122   177-7129   177-7131   177-7133   177-7135   177-7137
                         178-7144   178-7146   178-7148   178-7150   178-7152   178-7154   178-7156   178-7159   178-7161
                         178-7163   178-7167   178-7169   178-7171   178-7173   178-7175   178-7177   178-7179   178-7181
                         178-7183   178-7185   178-7187   178-7189   178-7191   178-7193   178-7194   178-7196   178-7198
                         178-7200   178-7202   178-7204   178-7206   178-7208   178-7210   184-7382   184-7384   184-7386
                         184-7388   184-7390   184-7392   184-7394   184-7396   185-7403   185-7405   185-7407   185-7409
                         185-7411   185-7413   185-7415   185-7417   185-7419   185-7421   185-7423   190-7484   190-7492
                         190-7500   190-7506   192-7542   192-7544   193-7553   193-7557   193-7573
LG.STR	= 000200	#22-865
LOAD11	= 000004	#87-3839
PAROOT     CREATED BY  MACRO  ON 17-MAY-88 AT 14:33	PAGE 20

SYMBOL CROSS REFERENCE                                  CREF   04.00

SYMBOL	VALUE		REFERENCES

LOGLUN	= 000004	#21-823     72-3204    72-3207    72-3210    74-3303    74-3314    85-3784    160-6593
LOGMSG	  001557 RG	 188-7452  #188-7452   188-7452
LOKFLF	  001656 R	 71-3138    71-3143   #71-3149
LOKFNA	  000040 R	 71-3137   #71-3155    71-3158    71-3159    71-3160
LOKFNB	= 000066 R	*71-3136   #71-3160
LOKIOF	= 000042 R	*71-3129   *71-3132   #71-3158
LOKLUN	= 000044 R	*71-3135   #71-3159
LOOKUP	= 000076	#29-1171
LPTMSG	  001563 RG	 188-7454  #188-7454   188-7454
LSH   	= 000242	#29-1173
LSHC  	= 000246	#29-1174
LSTLUN	= 000003	#21-822     260-10112
MAP   	= 000257	#29-1176
MARMSG	  001265 RG	 180-7240  #180-7240   180-7240
MAYMSG	  001301 RG	 180-7244  #180-7244   180-7244
MBZTAB	  004212 R	 93-4030   #94-4083
MCRMSG	  000535 RG	 174-7047  #174-7047   174-7047
MEMMSG	  001670 RG	 190-7498  #190-7498   190-7498   193-7567   193-7567
MGNMSG	  001521 RG	 185-7415  #185-7415   185-7415
MMSG  	  000514 RG	 174-7043  #174-7043   174-7043
MNTMSG	  001170 RG	 179-7217  #179-7217   179-7217   187-7439   187-7439
MOVE  	= 000200	#29-1178
MOVEI 	= 000201	#29-1179
MOVEM 	= 000202	#29-1180
MOVES 	= 000203	#29-1181
MOVM  	= 000214	#29-1183
MOVMI 	= 000215	#29-1184
MOVMM 	= 000216	#29-1185
MOVMS 	= 000217	#29-1186
MOVN  	= 000210	#29-1188
MOVNI 	= 000211	#29-1189
MOVNM 	= 000212	#29-1190
MOVNS 	= 000213	#29-1191
MOVS  	= 000204	#29-1193
MOVSI 	= 000205	#29-1194
MOVSM 	= 000206	#29-1195
MOVSS 	= 000207	#29-1196
MPE11 	= 001000	#87-3839
MQMSG 	  001043 RG	 178-7161  #178-7161   178-7161
MRAERM	  002415 R	#181-7325   181-7325
MRHERM	  002455 R	#181-7326   181-7326
MRKMSG	  000516 RG	 174-7045  #174-7045   174-7045
MUL   	= 000224	#29-1198
MULB  	= 000227	#29-1199
MULI  	= 000225	#29-1200
MULM  	= 000226	#29-1201
M.KTAE	= 000010	#91-3973
M.KTEF	= 000002	#91-3973
M.KTMG	= 000004	#91-3973
M.KTUN	= 000006	#91-3973
M.PARQ	= ******  GX	 160-6597
NDIERM	  002521 R	#181-7328   181-7328
PAROOT     CREATED BY  MACRO  ON 17-MAY-88 AT 14:33	PAGE 21

SYMBOL CROSS REFERENCE                                  CREF   04.00

SYMBOL	VALUE		REFERENCES

NEBMSG	  000122 R	 62-2661   #63-2683
NERERM	  002551 R	#181-7329   181-7329
NORERM	  002613 R	#181-7330   181-7330
NOTMSG	  001677 RG	 190-7500  #190-7500   190-7500
NOVMSG	  001350 RG	 180-7256  #180-7256   180-7256
NPIERM	  002653 R	#181-7331   181-7331
NRMMSG	  001441 RG	 185-7403  #185-7403   185-7403
NSFERM	  002707 R	#181-7332   181-7332
NSKERM	  004220 R	#191-7535   191-7535
NSTERM	  002732 R	#181-7333   181-7333
NTIERM	  002755 R	#181-7334   181-7334
NULMSG	  000364 RG	 174-7013  #174-7013   174-7013
NULSTP	= 000040	#87-3839
NUPE  	= 000002	#87-3839
NXTMSG	  000750 RG	 175-7097  #175-7097   175-7097   176-7118   176-7118   177-7133   177-7133   178-7206   178-7206
OAIERM	  003005 R	#181-7336   181-7336
OCTMSG	  001340 RG	 180-7254  #180-7254   180-7254
OFCERM	  003035 R	#181-7337   181-7337
OFFMSG	  000044 RG	#39-1741
OFSMSG	  001703 RG	 190-7502  #190-7502   190-7502   193-7569   193-7569
ONMSG 	  000041 RG	#39-1739
OPEACC	  000160 R	 73-3243   #73-3253    73-3256    73-3257    73-3258
OPEATT	= 000210 R	*73-3241   *73-3242   #73-3265
OPEFID	= 000174 R	*73-3240   #73-3258
OPEFOF	  001776 R	 73-3244   #73-3247
OPEFUN	= 000162 R	*73-3238   #73-3256
OPELUN	= 000164 R	*73-3239   #73-3257
OPEN  	= 000050	#29-1203
OPERAT	  000206 R	 73-3254   #73-3260    73-3265
OPRMSG	  001204 RG	 179-7219  #179-7219   179-7219   187-7441   187-7441
OR    	= 000434	#29-1205
ORB   	= 000437	#29-1206
ORCA  	= 000454	#29-1208
ORCAB 	= 000457	#29-1209
ORCAI 	= 000455	#29-1210
ORCAM 	= 000456	#29-1211
ORCB  	= 000470	#30-1213
ORCBB 	= 000473	#30-1214
ORCBI 	= 000471	#30-1215
ORCBM 	= 000472	#30-1216
ORCM  	= 000464	#30-1218
ORCMB 	= 000467	#30-1219
ORCMI 	= 000465	#30-1220
ORCMM 	= 000466	#30-1221
ORI   	= 000435	#30-1223
ORM   	= 000436	#30-1224
OUT   	= 000057	#30-1226
OUTBUF	= 000065	#30-1227
OUTMSG	  001712 RG	 190-7504  #190-7504   190-7504   193-7571   193-7571
OUTPUT	= 000067	#30-1228
PAG   	= 000010	#7-247
PAGMSG	  001435 RG	 184-7394  #184-7394   184-7394
PAROOT     CREATED BY  MACRO  ON 17-MAY-88 AT 14:33	PAGE 22

SYMBOL CROSS REFERENCE                                  CREF   04.00

SYMBOL	VALUE		REFERENCES

PARERC	  000662 R	 58-2538    58-2538    59-2550    59-2550    59-2561    59-2561    60-2586    60-2586   #61-2605
                         61-2621    61-2621    62-2642    62-2642
PARERX	  000506 R	#58-2539    59-2572    60-2594    62-2665
PARMSG	  000011 RG	#39-1731    61-2606
PARNAM	  000021 RG	 35-1486   #39-1733    156-6440   158-6513   163-6669
PARUEC	  000734 R	 58-2531   #61-2618
PAR$$E	= 000000	#1-51       39-1730
PAR$$K	= 000126	#1-55       39-1730
PAR$$V	= 000016	#1-50       39-1730
PCMSG 	  001046 RG	 178-7163  #178-7163   178-7163
PC.AFI	= 000020	#13-511
PC.AT0	= 000004	#13-513
PC.AT1	= 000010	#13-512
PC.BIS	= 000400	#13-507
PC.CY0	= 004000	#13-504
PC.CY1	= 002000	#13-505
PC.FOV	= 001000	#13-506
PC.FUF	= 000002	#13-514
PC.LIP	= 000040	#13-510
PC.NDV	= 000001	#13-515
PC.OVF	= 010000	#13-503
PC.UIO	= 000100	#13-509
PC.USR	= 000200	#13-508
PERCLR	= 001000	#87-3839
PE.ALL	= 000037	#9-339
PE.CES	= 000001	#9-334      9-339
PE.CRM	= 000004	#9-336      9-339
PE.DRM	= 000002	#9-335      9-339
PE.FMP	= 000010	#9-337      9-339
PE.FSS	= 000020	#9-338      9-339
PHYS  	= 100000	#87-3839
PI    	= 000004	#7-246
PIDENT	= 000000	#87-3839
PIMSG 	  001127 RG	 178-7187  #178-7187   178-7187   184-7396   184-7396
POP   	= 000262	#30-1230
POPJ  	= 000263	#30-1231
PRGMSG	  001215 RG	 179-7221  #179-7221   179-7221   187-7443   187-7443
PRI7  	= 000340	#87-3839
PRMFM 	  002306 R	*244-9463   244-9464  #244-9495
PROMPT	  000030 RG	#39-1735    163-6681
PROPNT	= 000021	#87-3839
PRTOFF	= 004000	#87-3839
PRVMSG	  000755 RG	 175-7099  #175-7099   175-7099   176-7120   176-7120   177-7135   177-7135   178-7208   178-7208
PR0   	= 000000	#87-3839
PR1   	= 000040	#87-3839
PR2   	= 000100	#87-3839
PR3   	= 000140	#87-3839
PR4   	= 000200	#87-3839
PR5   	= 000240	#87-3839
PR6   	= 000300	#87-3839
PR7   	= 000340	#87-3839
PS    	= 177776	#87-3839    160-6598  *160-6598  *160-6603
PAROOT     CREATED BY  MACRO  ON 17-MAY-88 AT 14:33	PAGE 23

SYMBOL CROSS REFERENCE                                  CREF   04.00

SYMBOL	VALUE		REFERENCES

PSTMSG	  001721 RG	 190-7506  #190-7506   190-7506   193-7573   193-7573
PSWW1 	= 000005	#87-3839
PSWW10	= 000014	#87-3839
PSWW11	= 000015	#87-3839
PSWW12	= 000016	#87-3839
PSWW13	= 000017	#87-3839
PSWW2 	= 000006	#87-3839
PSWW3 	= 000007	#87-3839
PSWW4 	= 000010	#87-3839
PSWW5 	= 000011	#87-3839
PSWW6 	= 000012	#87-3839
PSWW7 	= 000013	#87-3839
PS.NRM	= 001416	#16-641     143-5956
PTLERM	  003065 R	#181-7339   181-7339
PTOATM	  000270 R	 68-2876   #68-2895
PTRTEM	  000151 R	 64-2716   #67-2838
PTRTHM	  000221 R	 67-2823   #67-2840
PULSE 	= 000020	#87-3839
PUSH  	= 000261	#30-1233
PUSHJ 	= 000260	#30-1234
QRESMS	  000552 RG	 174-7054  #174-7054   174-7054
QSAVMS	  000560 RG	 174-7056  #174-7056   174-7056
QSIZE 	= 000023	#87-3839
QTRMSG	  001542 RG	 185-7421  #185-7421   185-7421
QUTMSG	  000701 RG	 174-7080  #174-7080   174-7080
Q.BYCT	= 000016	#21-815     224-8712   260-10106  260-10115
Q.IBUF	= 000014	#21-813
Q.IOAE	= 000012	#70-3093   #71-3156   #72-3204   #72-3207   #72-3210   #73-3254   #74-3314   #75-3367   #224-8709
                        #260-10103 #260-10112 #260-10121 #260-10126
Q.IOEF	= 000006	#70-3093   #71-3156   #72-3204   #72-3207   #72-3210   #73-3254   #74-3314   #75-3367   #224-8709
                        #260-10103 #260-10112 #260-10121 #260-10126
Q.IOFN	= 000002	#70-3093   #71-3156    71-3158   #72-3204   #72-3207   #72-3210   #73-3254    73-3256   #74-3314
                        #75-3367    75-3369   #224-8709  #260-10103 #260-10112 #260-10121 #260-10126
Q.IOLU	= 000004	#70-3093    70-3095   #71-3156    71-3159   #72-3204   #72-3207   #72-3210   #73-3254    73-3257
                        #74-3314   #75-3367    75-3370   #224-8709  #260-10103 #260-10112 #260-10121 #260-10126
Q.IOPL	= 000014	#21-812     21-813     21-814     21-815     21-816    #70-3093    70-3096   #71-3156    71-3160
                        #72-3204   #72-3207   #72-3210   #73-3254    73-3258   #74-3314   #75-3367    75-3371   #224-8709
                         224-8711  #260-10103  260-10105 #260-10112  260-10114 #260-10121 #260-10126
Q.IOPR	= 000007	#70-3093   #71-3156   #72-3204   #72-3207   #72-3210   #73-3254   #74-3314   #75-3367   #224-8709
                        #260-10103 #260-10112 #260-10121 #260-10126
Q.IOSB	= 000010	#70-3093   #71-3156   #72-3204   #72-3207   #72-3210   #73-3254   #74-3314   #75-3367   #224-8709
                        #260-10103 #260-10112 #260-10121 #260-10126
Q.OBUF	= 000014	#21-814
Q.OVFC	= 000020	#21-816     260-10107  260-10116
Q0    	  000126 RG	#35-1529
Q1    	  000134 RG	#35-1530
Q2    	  000142 RG	#35-1531
Q3    	  000150 RG	#35-1532
RAMIS0	= 010000	#87-3839
RDCPT1	  004270 R	 129-5372  #131-5437
RDCPT2	  004250 R	 130-5391  #130-5418
RDCPT3	  004260 R	 129-5373   130-5388  #130-5426
PAROOT     CREATED BY  MACRO  ON 17-MAY-88 AT 14:33	PAGE 24

SYMBOL CROSS REFERENCE                                  CREF   04.00

SYMBOL	VALUE		REFERENCES

RDCRME	  006504 R	 134-5569  #134-5596
REAFRD	  002570 R	 80-3576    80-3578   #80-3585
REGMSG	  001132 RG	 178-7189  #178-7189   178-7189
REGTAB	  007240 R	 216-8352  #217-8375
RELEAS	= 000071	#30-1236
REMMSG	  001230 RG	 179-7226  #179-7226   179-7226
RENAME	= 000055	#30-1237
REPIRC	  011122 R	 172-6944  #172-6950
RESETT	  004334 R	 141-5832  #141-5858
RESMSG	  000566 RG	 174-7058  #174-7058   174-7058
RFMAD0	= 100000	#87-3839
RFMAD1	= 040000	#87-3839
RFMAD2	= 020000	#87-3839
RFMAD3	= 010000	#87-3839
RGDTEN	= 000310 RG	#95-4113
RLDMSG	  001735 RG	 190-7508  #190-7508   190-7508   193-7575   193-7575
RM    	= 000010	#87-3839
RMSG  	  000541 RG	 174-7049  #174-7049   174-7049
ROT   	= 000241	#30-1239
ROTC  	= 000245	#30-1240
RPMERM	  003115 R	#181-7341   181-7341
RPTMSG	  000543 RG	 174-7051  #174-7051   174-7051   190-7510   190-7510   193-7577   193-7577
RSTEND	= 004342 R	 141-5844  #141-5865
RSTMSG	  000574 RG	 174-7060  #174-7060   174-7060
RTYMSG	  001744 RG	 190-7512  #190-7512   190-7512   193-7579   193-7579
RUNMSG	  000604 RG	 174-7062  #174-7062   174-7062
SAVMSG	  000610 RG	 174-7064  #174-7064   174-7064
SBRMSG	  001161 RG	 178-7198  #178-7198   178-7198
SCD   	= 000040	#87-3839
SCFERM	  003155 R	#181-7343   181-7343
SCRMSG	  001165 RG	 178-7200  #178-7200   178-7200
SEPMSG	  001326 RG	 180-7252  #180-7252   180-7252
SETA  	= 000424	#30-1242
SETAB 	= 000427	#30-1243
SETAI 	= 000425	#30-1244
SETAM 	= 000426	#30-1245
SETCA 	= 000450	#30-1247
SETCAB	= 000453	#30-1248
SETCAI	= 000451	#30-1249
SETCAM	= 000452	#30-1250
SETCM 	= 000460	#30-1252
SETCMB	= 000463	#30-1253
SETCMI	= 000461	#30-1254
SETCMM	= 000462	#30-1255
SETM  	= 000414	#31-1257
SETMB 	= 000417	#31-1258
SETMI 	= 000415	#31-1259
SETMM 	= 000416	#31-1260
SETMSG	  000615 RG	 174-7066  #174-7066   174-7066
SETO  	= 000474	#31-1262
SETOB 	= 000477	#31-1263
SETOI 	= 000475	#31-1264
PAROOT     CREATED BY  MACRO  ON 17-MAY-88 AT 14:33	PAGE 25

SYMBOL CROSS REFERENCE                                  CREF   04.00

SYMBOL	VALUE		REFERENCES

SETOM 	= 000476	#31-1265
SETSTS	= 000060	#31-1267
SETZ  	= 000400	#31-1269
SETZB 	= 000403	#31-1270
SETZI 	= 000401	#31-1271
SETZM 	= 000402	#31-1272
SHOMSG	  000621 RG	 174-7068  #174-7068   174-7068
SHUMSG	  000626 RG	 174-7070  #174-7070   174-7070
SKIERM	  003204 R	#181-7344   181-7344
SKIP  	= 000330	#31-1274
SKIPA 	= 000334	#31-1275
SKIPE 	= 000332	#31-1276
SKIPG 	= 000337	#31-1277
SKIPGE	= 000335	#31-1278
SKIPL 	= 000331	#31-1279
SKIPLE	= 000333	#31-1280
SKIPN 	= 000336	#31-1281
SLOMSG	  001552 RG	 185-7423  #185-7423   185-7423
SOJ   	= 000360	#31-1283
SOJA  	= 000364	#31-1284
SOJE  	= 000362	#31-1285
SOJG  	= 000367	#31-1286
SOJGE 	= 000365	#31-1287
SOJL  	= 000361	#31-1288
SOJLE 	= 000363	#31-1289
SOJN  	= 000366	#31-1290
SOS   	= 000370	#31-1292
SOSA  	= 000374	#31-1293
SOSE  	= 000372	#31-1294
SOSG  	= 000377	#31-1295
SOSGE 	= 000375	#31-1296
SOSL  	= 000371	#31-1297
SOSLE 	= 000373	#31-1298
SOSN  	= 000376	#31-1299
SPCEST	  001646 R	 62-2646   #62-2670
SPCMSG	  001403 RG	 183-7373  #183-7373   183-7373
SPFERM	  003261 R	#181-7345   181-7345
SSTLEN	= 000010  G	#36-1667
SSTTBE	= 000334 RG	#36-1668    64-2713
STAMSG	  002124 R	 217-8378  #217-8389
STAT  	= 174434	#87-3839
STATO 	= 000061	#31-1301
STATUS	= 000022	#31-1302   #87-3839
STATZ 	= 000063	#31-1303
STPCI 	  004242 R	#117-4985   117-4990
STRMSG	  000637 RG	 174-7072  #174-7072   174-7072
STSW1 	= ******  GX	*160-6600
STUCAE	  007454 R	 152-6210  #152-6231
STUUNL	  007462 R	 152-6228  #152-6234
ST.CED	= 000100	#12-456     12-471
ST.CLE	= 000001	#12-469     12-471
ST.CTD	= 040000	#12-441
PAROOT     CREATED BY  MACRO  ON 17-MAY-88 AT 14:33	PAGE 26

SYMBOL CROSS REFERENCE                                  CREF   04.00

SYMBOL	VALUE		REFERENCES

ST.CTE	= 010000	#12-445     12-471
ST.DW1	= 002000	#12-448
ST.DXD	= 000004	#12-464
ST.EBS	= 000100	#12-455
ST.EDB	= 004000	#12-446
ST.EPE	= 000020	#12-459     12-471     56-2423
ST.IDS	= 000010	#12-463
ST.IEN	= 000040	#12-458
ST.ION	= 000001	#12-468
ST.MBZ	= 000000	#12-473     94-4086
ST.MOD	= 000010	#12-461
ST.MPE	= 001000	#12-449     12-471
ST.NST	= 000040	#12-457
ST.RIZ	= 010000	#12-444
ST.RST	= 011121	#12-471
ST.SEP	= 000004	#12-465
ST.STE	= 000002	#12-467
ST.TED	= 000200	#12-453
ST.TER	= 000002	#12-466
ST.TXD	= 100000	#12-439
ST.TXE	= 020000	#12-442
ST.XDB	= 000400	#12-451
SUB   	= 000274	#32-1305
SUBB  	= 000277	#32-1306
SUBI  	= 000275	#32-1307
SUBM  	= 000276	#32-1308
SWPMSG	  000645 RG	 174-7074  #174-7074   174-7074
SWR   	= 177570	#87-3839
SWSLLT	= 100000	#87-3839
SXCT  	= 000106	#32-1310
SZIERM	  003311 R	#181-7346   181-7346
TAAERM	  003345 R	#181-7348   181-7348
TAKMSG	  000653 RG	 174-7076  #174-7076   174-7076
TC.CON	= 000377	#22-875
TC.CTC	= 000002	#22-872     50-2223    66-2796
TC.ERR	= 000000	#22-874     47-2119    49-2190    49-2193    51-2261    54-2367    56-2429    70-3080    70-3082
                         71-3150    72-3198    73-3248    74-3308    75-3361    80-3590    85-3799    88-3878    94-4076
                         97-4178    101-4316   101-4320   101-4323   101-4326   104-4456   106-4511   108-4608   111-4709
                         115-4887   117-4982   134-5597   152-6232   152-6235   155-6402   159-6552   167-6805   167-6808
                         167-6811   172-6951   199-7761   224-8699   224-8702   227-8819   229-8904   230-8981   236-9214
                         237-9254   239-9316   239-9319
TC.RST	= 000001	#22-873
TDC   	= 000650	#32-1312
TDCA  	= 000654	#32-1313
TDCE  	= 000652	#32-1314
TDCN  	= 000656	#32-1315
TDMSG0	  000345 R	 166-6783  #167-6816
TDN   	= 000610	#32-1317
TDNA  	= 000614	#32-1318
TDNE  	= 000612	#32-1319
TDNN  	= 000616	#32-1320
TDO   	= 000670	#32-1322
PAROOT     CREATED BY  MACRO  ON 17-MAY-88 AT 14:33	PAGE 27

SYMBOL CROSS REFERENCE                                  CREF   04.00

SYMBOL	VALUE		REFERENCES

TDOA  	= 000674	#32-1323
TDOE  	= 000672	#32-1324
TDON  	= 000676	#32-1325
TDZ   	= 000630	#32-1327
TDZA  	= 000634	#32-1328
TDZE  	= 000632	#32-1329
TDZN  	= 000636	#32-1330
TENAD1	= 174410	#87-3839
TENAD2	= 174412	#87-3839
TENMSG	  001005 RG	 176-7112  #176-7112   176-7112   178-7191   178-7191   186-7432   186-7432   192-7542   192-7542
TFRMSG	  002014 R	 213-8258  #214-8303
TFWMSG	  002031 R	 213-8265  #214-8305
TFXMSG	  002046 R	 213-8272  #214-8307
THSMSG	  000766 RG	 175-7101  #175-7101   175-7101   176-7122   176-7122   177-7137   177-7137   178-7210   178-7210
TLC   	= 000641	#32-1332
TLCA  	= 000645	#32-1333
TLCE  	= 000643	#32-1334
TLCN  	= 000647	#32-1335
TLN   	= 000601	#32-1337
TLNA  	= 000605	#32-1338
TLNE  	= 000603	#32-1339
TLNN  	= 000607	#32-1340
TLO   	= 000661	#32-1342
TLOA  	= 000665	#32-1343
TLOE  	= 000663	#32-1344
TLON  	= 000667	#32-1345
TLZ   	= 000621	#32-1347
TLZA  	= 000625	#32-1348
TLZE  	= 000623	#32-1349
TLZN  	= 000627	#32-1350
TOBM  	= 000004	#87-3839
TOIP  	= 000002	#87-3839
TOIT  	= 000001	#87-3839
TORERM	  003402 R	#181-7349   181-7349
TO10  	= 000200	#87-3839
TO10AD	= 174420	#87-3839
TO10BC	= 174414	#87-3839
TO10BM	= 000001	#87-3839
TO10DB	= 000400	#87-3839
TO10DN	= 100000	#87-3839
TO10DT	= 174424	#87-3839
TO10ER	= 020000	#87-3839
TO11  	= 000100	#87-3839
TO11AD	= 174422	#87-3839
TO11BC	= 174416	#87-3839
TO11BM	= 020000	#87-3839
TO11DB	= 004000	#87-3839
TO11DN	= 000200	#87-3839
TO11DT	= 174426	#87-3839
TO11ER	= 000002	#87-3839
TPDDCK	  011364 R	 198-7712  #199-7760
TPDDVD	  007232 R	#197-7699   198-7727
PAROOT     CREATED BY  MACRO  ON 17-MAY-88 AT 14:33	PAGE 28

SYMBOL CROSS REFERENCE                                  CREF   04.00

SYMBOL	VALUE		REFERENCES

TPDDVS	  007224 R	#197-7697   198-7726
TPDRMN	  007216 R	#197-7695   198-7715   198-7725   199-7753
TRADDR	  007250 R	 219-8446   219-8457  #220-8478
TRC   	= 000640	#32-1352
TRCA  	= 000644	#32-1353
TRCE  	= 000642	#32-1354
TRCN  	= 000646	#32-1355
TRDATA	  007256 R	 219-8451   219-8461  #220-8480
TRKMSG	  001752 RG	 190-7515  #190-7515   190-7515   193-7582   193-7582
TRN   	= 000600	#33-1357
TRNA  	= 000604	#33-1358
TRNE  	= 000602	#33-1359
TRNN  	= 000606	#33-1360
TRO   	= 000660	#33-1362
TROA  	= 000664	#33-1363
TROE  	= 000662	#33-1364
TRON  	= 000666	#33-1365
TRZ   	= 000620	#33-1367
TRZA  	= 000624	#33-1368
TRZE  	= 000622	#33-1369
TRZN  	= 000626	#33-1370
TR.ALL	= 000077	#13-498
TR.DEP	= 000020	#13-496     13-498     99-4257
TR.DTE	= 000040	#13-497     13-498     94-4065
TR.EXM	= 000010	#13-495     13-498     99-4241
TR.FRD	= 000002	#13-493     13-498     106-4504
TR.FWR	= 000004	#13-494     13-498     108-4599
TR.FXC	= 000001	#13-492     13-498     111-4701
TSC   	= 000651	#33-1372
TSCA  	= 000655	#33-1373
TSCAMB	  010746 R	 165-6757  #167-6803
TSCE  	= 000653	#33-1374
TSCN  	= 000657	#33-1375
TSCNSK	  010760 R	 165-6766  #167-6807
TSCWRM	  010766 R	 165-6769  #167-6810
TSN   	= 000611	#33-1377
TSNA  	= 000615	#33-1378
TSNE  	= 000613	#33-1379
TSNN  	= 000617	#33-1380
TSO   	= 000671	#33-1382
TSOA  	= 000675	#33-1383
TSOE  	= 000673	#33-1384
TSON  	= 000677	#33-1385
TSZ   	= 000631	#33-1387
TSZA  	= 000635	#33-1388
TSZE  	= 000633	#33-1389
TSZN  	= 000637	#33-1390
TTCALL	= 000051	#33-1392
TTYMSG	  001567 RG	 188-7456  #188-7456   188-7456
TT.OUT	= ******  GX	 160-6600
TYODIE	  015766 R	 257-9993   257-9995   257-9997   257-9999   257-10006  257-10008 #258-10028
UBRMSG	  001144 RG	 178-7193  #178-7193   178-7193
PAROOT     CREATED BY  MACRO  ON 17-MAY-88 AT 14:33	PAGE 29

SYMBOL CROSS REFERENCE                                  CREF   04.00

SYMBOL	VALUE		REFERENCES

UCDMSG	  001761 RG	 192-7544  #192-7544   192-7544
UECMSG	  000060 R	 61-2632   #61-2636
UECMSP	  001644 R	 61-2620   #61-2631
UGETF 	= 000073	#33-1394
UJEN  	= 000100	#33-1396
UNASG1	= 000032	#87-3839
UNASG2	= 000033	#87-3839
UNASG3	= 000034	#87-3839
UNASG4	= 000035	#87-3839
UNASG5	= 000036	#87-3839
UNASG6	= 000037	#87-3839
UNLERM	  003432 R	#181-7351   181-7351
UNMMSG	  000660 RG	 174-7078  #174-7078   174-7078
USETI 	= 000074	#33-1398
USETO 	= 000075	#33-1399
USRMSG	  001237 RG	 179-7228  #179-7228   179-7228   187-7445   187-7445
VERMSG	  002004 RG	 193-7585  #193-7585   193-7585
VFYERM	  003470 R	#181-7353   181-7353
VF.DSP	= 000060	#21-830
VF.FFD	= 000061	#21-831
VF.INT	= 000000	#21-828     260-10103  260-10112
VF.OVR	= 000053	#21-832
VF.PRM	= 000044	#21-833
VF.SSP	= 000040	#21-829
VMAMSG	  001150 RG	 178-7194  #178-7194   178-7194
VMHMSG	  001154 RG	 178-7196  #178-7196   178-7196
WEP   	= 000010	#87-3839
WHAMSG	  000706 RG	 174-7082  #174-7082   174-7082
WRCRME	  007710 R	 155-6372  #155-6401
WRIFWT	  003326 R	 85-3785    85-3794   #85-3798
WRMERM	  003524 R	#181-7355   181-7355
XCT   	= 000256	#33-1401
XCTMSG	  000713 RG	 174-7084  #174-7084   174-7084
XOR   	= 000430	#33-1403
XORB  	= 000433	#33-1404
XORI  	= 000431	#33-1405
XORM  	= 000432	#33-1406
XR    	= 000000	#117-4986   117-4986
XTOERM	  003635 R	#181-7359   181-7359
YORERM	  003605 R	#181-7357   181-7357
ZERMSG	  000717 RG	 174-7086  #174-7086   174-7086
ZSTOP 	= 040000	#87-3839
$DIV  	= ******  GX	 259-10060  259-10060
$DSW  	= ******  GX	 50-2219    100-4285
$$    	= 000037	#47-2103    47-2103   #47-2109    47-2109   #48-2146    48-2146   #51-2254    51-2254   #53-2314
                         53-2314   #56-2422    56-2422   #58-2538    58-2538   #59-2550    59-2550   #59-2555    59-2555
                        #59-2561    59-2561   #59-2565    59-2565   #59-2568    59-2568   #59-2571    59-2571   #60-2586
                         60-2586   #60-2591    60-2591   #60-2593    60-2593   #61-2607    61-2607   #61-2609    61-2609
                        #61-2611    61-2611   #61-2613    61-2613   #61-2614    61-2614   #61-2621    61-2621   #61-2623
                         61-2623   #62-2642    62-2642   #62-2643    62-2643   #62-2651    62-2651   #62-2652    62-2652
                        #62-2653    62-2653   #62-2662    62-2662   #64-2715    64-2715   #64-2717    64-2717   #64-2719
                         64-2719   #64-2720    64-2720   #66-2786    66-2786   #66-2792    66-2792   #66-2806    66-2806
PAROOT     CREATED BY  MACRO  ON 17-MAY-88 AT 14:33	PAGE 30

SYMBOL CROSS REFERENCE                                  CREF   04.00

SYMBOL	VALUE		REFERENCES

                        #66-2808    66-2808   #67-2824    67-2824   #67-2825    67-2825   #67-2831    67-2831   #68-2872
                         68-2872   #68-2875    68-2875   #68-2877    68-2877   #68-2879    68-2879   #68-2880    68-2880
                        #68-2885    68-2885   #71-3133    71-3133   #71-3134    71-3134   #74-3307    74-3307   #77-3447
                         77-3447   #77-3453    77-3453   #77-3462    77-3462   #77-3464    77-3464   #78-3507    78-3507
                        #79-3540    79-3540   #80-3589    80-3589   #81-3637    81-3637   #81-3641    81-3641   #82-3681
                         82-3681   #83-3712    83-3712   #84-3750    84-3750   #84-3754    84-3754   #84-3756    84-3756
                        #85-3795    85-3795   #88-3869    88-3869   #88-3873    88-3873   #89-3906    89-3906   #89-3916
                         89-3916   #90-3949    90-3949   #97-4157    97-4157   #97-4162    97-4162   #97-4164    97-4164
                        #99-4234    99-4234   #99-4243    99-4243   #99-4250    99-4250   #99-4259    99-4259   #100-4289
                         100-4289  #100-4292   100-4292  #103-4398   103-4398  #103-4400   103-4400  #104-4417   104-4417
                        #104-4419   104-4419  #104-4420   104-4420  #104-4425   104-4425  #104-4428   104-4428  #104-4441
                         104-4441  #104-4447   104-4447  #104-4451   104-4451  #106-4506   106-4506  #108-4601   108-4601
                        #111-4703   111-4703  #113-4782   113-4782  #113-4785   113-4785  #113-4788   113-4788  #114-4837
                         114-4837  #114-4842   114-4842  #115-4850   115-4850  #115-4861   115-4861  #115-4874   115-4874
                        #115-4878   115-4878  #115-4879   115-4879  #116-4927   116-4927  #116-4930   116-4930  #117-4967
                         117-4967  #117-4969   117-4969  #117-4991   117-4991  #119-5027   119-5027  #119-5029   119-5029
                        #119-5038   119-5038  #119-5044   119-5044  #120-5085   120-5085  #120-5087   120-5087  #122-5117
                         122-5117  #122-5120   122-5120  #122-5126   122-5126  #122-5129   122-5129  #122-5134   122-5134
                        #124-5191   124-5191  #124-5197   124-5197  #124-5203   124-5203  #124-5207   124-5207  #124-5212
                         124-5212  #126-5250   126-5250  #126-5252   126-5252  #126-5258   126-5258  #126-5261   126-5261
                        #126-5265   126-5265  #126-5268   126-5268  #127-5307   127-5307  #127-5309   127-5309  #128-5318
                         128-5318  #128-5319   128-5319  #128-5321   128-5321  #128-5326   128-5326  #128-5333   128-5333
                        #128-5336   128-5336  #128-5338   128-5338  #129-5369   129-5369  #129-5377   129-5377  #132-5499
                         132-5499  #132-5501   132-5501  #134-5570   134-5570  #134-5572   134-5572  #134-5580   134-5580
                        #134-5585   134-5585  #134-5587   134-5587  #134-5590   134-5590  #134-5592   134-5592  #135-5627
                         135-5627  #135-5629   135-5629  #136-5666   136-5666  #136-5668   136-5668  #136-5673   136-5673
                        #137-5706   137-5706  #137-5710   137-5710  #138-5739   138-5739  #138-5742   138-5742  #139-5774
                         139-5774  #139-5783   139-5783  #141-5831   141-5831  #141-5833   141-5833  #141-5836   141-5836
                        #141-5837   141-5837  #141-5838   141-5838  #141-5839   141-5839  #141-5843   141-5843  #141-5848
                         141-5848  #142-5900   142-5900  #143-5950   143-5950  #143-5955   143-5955  #145-5993   145-5993
                        #145-5994   145-5994  #145-5997   145-5997  #145-5999   145-5999  #145-6003   145-6003  #146-6034
                         146-6034  #147-6063   147-6063  #147-6067   147-6067  #148-6097   148-6097  #150-6161   150-6161
                        #152-6212   152-6212  #152-6213   152-6213  #152-6215   152-6215  #152-6216   152-6216  #152-6219
                         152-6219  #153-6265   153-6265  #154-6303   154-6303  #154-6305   154-6305  #154-6308   154-6308
                        #155-6377   155-6377  #155-6385   155-6385  #155-6390   155-6390  #155-6393   155-6393  #155-6394
                         155-6394  #155-6396   155-6396  #155-6398   155-6398  #158-6514   158-6514  #159-6523   159-6523
                        #159-6525   159-6525  #159-6533   159-6533  #159-6534   159-6534  #159-6548   159-6548  #160-6587
                         160-6587  #160-6591   160-6591  #160-6594   160-6594  #160-6602   160-6602  #162-6658   162-6658
                        #163-6670   163-6670  #163-6678   163-6678  #163-6682   163-6682  #163-6694   163-6694  #163-6696
                         163-6696  #163-6699   163-6699  #165-6737   165-6737  #165-6738   165-6738  #165-6748   165-6748
                        #166-6778   166-6778  #166-6780   166-6780  #166-6782   166-6782  #166-6784   166-6784  #166-6792
                         166-6792  #166-6793   166-6793  #172-6941   172-6941  #172-6943   172-6943  #172-6945   172-6945
                        #172-6947   172-6947  #198-7708   198-7708  #198-7710   198-7710  #198-7711   198-7711  #199-7740
                         199-7740  #199-7742   199-7742  #199-7745   199-7745  #200-7805   200-7805  #207-8030   207-8030
                        #207-8033   207-8033  #207-8036   207-8036  #207-8054   207-8054  #207-8061   207-8061  #210-8162
                         210-8162  #210-8163   210-8163  #211-8175   211-8175  #211-8177   211-8177  #211-8178   211-8178
                        #211-8186   211-8186  #211-8188   211-8188  #211-8189   211-8189  #214-8282   214-8282  #214-8287
                         214-8287  #214-8290   214-8290  #214-8291   214-8291  #214-8292   214-8292  #214-8294   214-8294
                        #216-8350   216-8350  #216-8353   216-8353  #216-8354   216-8354  #216-8363   216-8363  #216-8369
                         216-8369  #218-8430   218-8430  #218-8435   218-8435  #219-8456   219-8456  #219-8458   219-8458
                        #219-8459   219-8459  #219-8460   219-8460  #219-8462   219-8462  #219-8463   219-8463  #219-8470
                         219-8470  #222-8574   222-8574  #222-8580   222-8580  #223-8625   223-8625  #223-8634   223-8634
PAROOT     CREATED BY  MACRO  ON 17-MAY-88 AT 14:33	PAGE 31

SYMBOL CROSS REFERENCE                                  CREF   04.00

SYMBOL	VALUE		REFERENCES

                        #223-8639   223-8639  #223-8648   223-8648  #223-8649   223-8649  #226-8783   226-8783  #226-8784
                         226-8784  #227-8812   227-8812  #228-8850   228-8850  #228-8853   228-8853  #228-8854   228-8854
                        #228-8856   228-8856  #228-8858   228-8858  #228-8861   228-8861  #228-8863   228-8863  #229-8876
                         229-8876  #229-8883   229-8883  #229-8884   229-8884  #229-8885   229-8885  #230-8946   230-8946
                        #230-8959   230-8959  #230-8961   230-8961  #231-9035   231-9035  #232-9062   232-9062  #232-9065
                         232-9065  #233-9095   233-9095  #234-9130   234-9130  #234-9133   234-9133  #235-9173   235-9173
                        #236-9201   236-9201  #237-9232   237-9232  #237-9237   237-9237  #237-9238   237-9238  #237-9243
                         237-9243  #237-9246   237-9246  #237-9251   237-9251  #238-9294   238-9294  #238-9297   238-9297
                        #243-9420   243-9420  #244-9465   244-9465  #244-9473   244-9473  #244-9474   244-9474  #244-9478
                         244-9478  #244-9479   244-9479  #244-9480   244-9480  #244-9482   244-9482  #244-9483   244-9483
                        #249-9709   249-9709  #249-9714   249-9714  #251-9789   251-9789  #252-9811   252-9811  #252-9814
                         252-9814  #252-9816   252-9816  #253-9859   253-9859  #253-9863   253-9863  #253-9872   253-9872
                        #254-9901   254-9901  #256-9954   256-9954  #256-9956   256-9956  #257-10014  257-10014 #259-10060
                         259-10060 #259-10067  259-10067
$$A   	= 000000	#117-4986   117-4986
$$B   	= 000000	#117-4986   117-4986
$$C   	= 000002	#117-4986   117-4986
$$D   	= 000176	#117-4986   117-4986
$$E   	= 000017	#117-4986   117-4986
$$F   	= 000000	#117-4986   117-4986
$$PASS	= 000000	 174-7013   174-7015   174-7017   174-7019   174-7021   174-7023   174-7025   174-7027   174-7029
                         174-7031   174-7033   174-7039   174-7041   174-7043   174-7045   174-7047   174-7049   174-7051
                         174-7054   174-7056   174-7058   174-7060   174-7062   174-7064   174-7066   174-7068   174-7070
                         174-7072   174-7074   174-7076   174-7078   174-7080   174-7082   174-7084   174-7086   175-7093
                         175-7095   175-7097   175-7099   175-7101   176-7108   176-7110   176-7112   176-7114   176-7116
                         176-7118   176-7120   176-7122   177-7129   177-7131   177-7133   177-7135   177-7137   178-7144
                         178-7146   178-7148   178-7150   178-7152   178-7154   178-7156   178-7159   178-7161   178-7163
                         178-7167   178-7169   178-7171   178-7173   178-7175   178-7177   178-7179   178-7181   178-7183
                         178-7185   178-7187   178-7189   178-7191   178-7193   178-7194   178-7196   178-7198   178-7200
                         178-7202   178-7204   178-7206   178-7208   178-7210   179-7217   179-7219   179-7221   179-7226
                         179-7228   180-7236   180-7238   180-7240   180-7242   180-7244   180-7246   180-7248   180-7250
                         180-7252   180-7254   180-7256   180-7258   182-7366   183-7373   183-7375   184-7382   184-7384
                         184-7386   184-7388   184-7390   184-7392   184-7394   184-7396   185-7403   185-7405   185-7407
                         185-7409   185-7411   185-7413   185-7415   185-7417   185-7419   185-7421   185-7423   186-7430
                         186-7432   187-7439   187-7441   187-7443   187-7445   188-7452   188-7454   188-7456   189-7463
                         189-7465   189-7467   189-7469   189-7471   189-7473   189-7475   190-7482   190-7484   190-7486
                         190-7488   190-7490   190-7492   190-7494   190-7496   190-7498   190-7500   190-7502   190-7504
                         190-7506   190-7508   190-7510   190-7512   190-7515   192-7542   192-7544   193-7551   193-7553
                         193-7555   193-7557   193-7559   193-7561   193-7563   193-7565   193-7567   193-7569   193-7571
                         193-7573   193-7575   193-7577   193-7579   193-7582   193-7585  #193-7590
$$$AB 	= 000001	 178-7167  #178-7167   178-7167
$$$ABO	= 000001	 174-7015  #174-7015   174-7015
$$$ACB	= 000004	 182-7366  #182-7366   182-7366   183-7375  #183-7375   183-7375   190-7482  #190-7482   190-7482
                         193-7551  #193-7551   193-7551
$$$AD 	= 000001	 178-7144  #178-7144   178-7144
$$$ADX	= 000001	 178-7146  #178-7146   178-7146
$$$ALL	= 000002	 184-7382  #184-7382   184-7382   189-7463  #189-7463   189-7463
$$$APR	= 000001	 180-7242  #180-7242   180-7242
$$$AR 	= 000003	 176-7108  #176-7108   176-7108   178-7148  #178-7148   178-7148   189-7465  #189-7465   189-7465
$$$ARG	= 000006	#70-3088    70-3088   #70-3088    70-3088   #70-3088    70-3088   #70-3093    70-3093   #70-3093
                         70-3093   #70-3093    70-3093   #70-3093    70-3093   #70-3093    70-3093   #70-3093    70-3093
                        #70-3093    70-3093   #71-3156    71-3156   #71-3156    71-3156   #71-3156    71-3156   #71-3156
PAROOT     CREATED BY  MACRO  ON 17-MAY-88 AT 14:33	PAGE 32

SYMBOL CROSS REFERENCE                                  CREF   04.00

SYMBOL	VALUE		REFERENCES

                         71-3156   #71-3156    71-3156   #71-3156    71-3156   #71-3156    71-3156   #72-3204    72-3204
                        #72-3204    72-3204   #72-3204    72-3204   #72-3204    72-3204   #72-3204    72-3204   #72-3207
                         72-3207   #72-3207    72-3207   #72-3207    72-3207   #72-3207    72-3207   #72-3207    72-3207
                        #72-3207    72-3207   #72-3207    72-3207   #72-3210    72-3210   #73-3254    73-3254   #73-3254
                         73-3254   #73-3254    73-3254   #73-3254    73-3254   #73-3254    73-3254   #73-3254    73-3254
                        #74-3314    74-3314   #74-3314    74-3314   #74-3314    74-3314   #74-3314    74-3314   #74-3314
                         74-3314   #75-3367    75-3367   #75-3367    75-3367   #75-3367    75-3367   #80-3575    80-3575
                         80-3575    80-3575    80-3575    80-3575    80-3575    80-3575    80-3575    80-3575    80-3575
                         80-3575   #85-3784    85-3784    85-3784    85-3784    85-3784    85-3784    85-3784    85-3784
                         85-3784    85-3784    85-3784    85-3784   #160-6595   160-6595   160-6595   160-6595   160-6595
                         160-6595   160-6595   160-6595   160-6595   160-6595   160-6595   160-6595  #224-8709   224-8709
                        #224-8709   224-8709  #224-8709   224-8709  #260-10103  260-10103 #260-10103  260-10103 #260-10103
                         260-10103 #260-10103  260-10103 #260-10112  260-10112 #260-10112  260-10112 #260-10112  260-10112
                        #260-10112  260-10112 #260-10121  260-10121 #260-10126  260-10126
$$$ARX	= 000001	 178-7150  #178-7150   178-7150
$$$AUG	= 000001	 180-7250  #180-7250   180-7250
$$$BR 	= 000001	 178-7152  #178-7152   178-7152
$$$BRX	= 000001	 178-7154  #178-7154   178-7154
$$$CLK	= 000002	 190-7484  #190-7484   190-7484   193-7553  #193-7553   193-7553
$$$CLR	= 000001	 174-7017  #174-7017   174-7017
$$$CNT	= 000001	 174-7019  #174-7019   174-7019
$$$CON	= 000002	 190-7486  #190-7486   190-7486   193-7555  #193-7555   193-7555
$$$CPU	= 000001	 184-7384  #184-7384   184-7384
$$$CRA	= 000001	 178-7169  #178-7169   178-7169
$$$CRL	= 000001	 178-7171  #178-7171   178-7171
$$$CRM	= 000002	 185-7405  #185-7405   185-7405   189-7467  #189-7467   189-7467
$$$CTL	= 000001	 185-7409  #185-7409   185-7409
$$$DAT	= 000002	 190-7488  #190-7488   190-7488   193-7557  #193-7557   193-7557
$$$DCR	= 000004	 175-7093  #175-7093   175-7093   176-7114  #176-7114   176-7114   177-7129  #177-7129   177-7129
                         178-7202  #178-7202   178-7202
$$$DEC	= 000001	 180-7258  #180-7258   180-7258
$$$DEP	= 000001	 174-7021  #174-7021   174-7021
$$$DIS	= 000001	 174-7023  #174-7023   174-7023
$$$DPT	= 000001	 185-7407  #185-7407   185-7407
$$$DRA	= 000001	 178-7173  #178-7173   178-7173
$$$DRM	= 000001	 189-7469  #189-7469   189-7469
$$$DTE	= 000002	 178-7175  #178-7175   178-7175   184-7386  #184-7386   184-7386
$$$EBR	= 000001	 178-7177  #178-7177   178-7177
$$$EBS	= 000001	 178-7156  #178-7156   178-7156
$$$ELE	= 000003	 176-7110  #176-7110   176-7110   178-7179  #178-7179   178-7179   186-7430  #186-7430   186-7430
$$$ENB	= 000001	 189-7471  #189-7471   189-7471
$$$ERR	= 000001	 184-7388  #184-7388   184-7388
$$$EXA	= 000001	 174-7025  #174-7025   174-7025
$$$EXT	= 000001	 185-7411  #185-7411   185-7411
$$$FEB	= 000001	 180-7238  #180-7238   180-7238
$$$FER	= 000001	 178-7181  #178-7181   178-7181
$$$FLG	= 000001	 178-7183  #178-7183   178-7183
$$$FLT	= 000002	 190-7490  #190-7490   190-7490   193-7559  #193-7559   193-7559
$$$FM 	= 000002	 178-7159  #178-7159   178-7159   189-7473  #189-7473   189-7473
$$$FRD	= 000001	 174-7027  #174-7027   174-7027
$$$FSS	= 000002	 189-7475  #189-7475   189-7475   190-7492  #190-7492   190-7492
$$$FUL	= 000001	 185-7417  #185-7417   185-7417
PAROOT     CREATED BY  MACRO  ON 17-MAY-88 AT 14:33	PAGE 33

SYMBOL CROSS REFERENCE                                  CREF   04.00

SYMBOL	VALUE		REFERENCES

$$$FWR	= 000001	 174-7029  #174-7029   174-7029
$$$FXC	= 000001	 174-7031  #174-7031   174-7031
$$$GLB	= ******	 70-3088    70-3088    70-3088    70-3088    70-3093    70-3093    70-3093    70-3093    70-3093
                         70-3093    70-3093    70-3093    71-3156    71-3156    71-3156    71-3156    71-3156    71-3156
                         71-3156    71-3156    72-3204    72-3204    72-3204    72-3204    72-3204    72-3204    72-3204
                         72-3204    72-3207    72-3207    72-3207    72-3207    72-3207    72-3207    72-3207    72-3207
                         72-3210    72-3210    72-3210    72-3210    72-3210    72-3210    72-3210    72-3210    73-3254
                         73-3254    73-3254    73-3254    73-3254    73-3254    73-3254    73-3254    74-3314    74-3314
                         74-3314    74-3314    74-3314    74-3314    74-3314    74-3314    75-3367    75-3367    75-3367
                         75-3367    75-3367    75-3367    75-3367    75-3367    91-3973    91-3973    91-3973    91-3973
                         91-3973    224-8709   224-8709   224-8709   224-8709   224-8709   224-8709   224-8709   224-8709
                         260-10103  260-10103  260-10103  260-10103  260-10103  260-10103  260-10103  260-10103  260-10112
                         260-10112  260-10112  260-10112  260-10112  260-10112  260-10112  260-10112  260-10121  260-10121
                         260-10121  260-10121  260-10121  260-10121  260-10121  260-10121  260-10126  260-10126  260-10126
                         260-10126  260-10126  260-10126  260-10126  260-10126
$$$HAR	= 000001	 193-7561  #193-7561   193-7561
$$$HLF	= 000001	 185-7419  #185-7419   185-7419
$$$HLT	= 000001	 174-7033  #174-7033   174-7033
$$$INC	= 000006	 175-7095  #175-7095   175-7095   176-7116  #176-7116   176-7116   177-7131  #177-7131   177-7131
                         178-7204  #178-7204   178-7204   190-7494  #190-7494   190-7494   193-7563  #193-7563   193-7563
$$$INI	= 000002	 174-7039  #174-7039   174-7039   184-7390  #184-7390   184-7390
$$$INT	= 000001	 185-7413  #185-7413   185-7413
$$$IO 	= 000001	 184-7392  #184-7392   184-7392
$$$JAN	= 000001	 180-7236  #180-7236   180-7236
$$$JMP	= 000001	 174-7041  #174-7041   174-7041
$$$JUL	= 000001	 180-7248  #180-7248   180-7248
$$$JUN	= 000001	 180-7246  #180-7246   180-7246
$$$KL 	= 000001	 178-7185  #178-7185   178-7185
$$$KLI	= 000002	 190-7496  #190-7496   190-7496   193-7565  #193-7565   193-7565
$$$LOG	= 000001	 188-7452  #188-7452   188-7452
$$$LPT	= 000001	 188-7454  #188-7454   188-7454
$$$M  	= 000001	 174-7043  #174-7043   174-7043
$$$MAR	= 000001	 180-7240  #180-7240   180-7240
$$$MAY	= 000001	 180-7244  #180-7244   180-7244
$$$MCR	= 000001	 174-7047  #174-7047   174-7047
$$$MEM	= 000002	 190-7498  #190-7498   190-7498   193-7567  #193-7567   193-7567
$$$MGN	= 000001	 185-7415  #185-7415   185-7415
$$$MNT	= 000002	 179-7217  #179-7217   179-7217   187-7439  #187-7439   187-7439
$$$MQ 	= 000001	 178-7161  #178-7161   178-7161
$$$MRK	= 000001	 174-7045  #174-7045   174-7045
$$$NOT	= 000001	 190-7500  #190-7500   190-7500
$$$NOV	= 000001	 180-7256  #180-7256   180-7256
$$$NRM	= 000001	 185-7403  #185-7403   185-7403
$$$NUL	= 000001	 174-7013  #174-7013   174-7013
$$$NXT	= 000004	 175-7097  #175-7097   175-7097   176-7118  #176-7118   176-7118   177-7133  #177-7133   177-7133
                         178-7206  #178-7206   178-7206
$$$OCT	= 000001	 180-7254  #180-7254   180-7254
$$$OFS	= 000002	 190-7502  #190-7502   190-7502   193-7569  #193-7569   193-7569
$$$OPR	= 000002	 179-7219  #179-7219   179-7219   187-7441  #187-7441   187-7441
$$$OST	= 000014	#70-3088    70-3088    70-3088   #70-3088    70-3088    70-3088   #70-3088    70-3088    70-3088
                        #70-3088   #70-3093    70-3093    70-3093   #70-3093    70-3093    70-3093   #70-3093    70-3093
                         70-3093   #70-3093    70-3093    70-3093   #70-3093    70-3093    70-3093   #70-3093    70-3093
PAROOT     CREATED BY  MACRO  ON 17-MAY-88 AT 14:33	PAGE 34

SYMBOL CROSS REFERENCE                                  CREF   04.00

SYMBOL	VALUE		REFERENCES

                         70-3093   #70-3093    70-3093   #71-3156    71-3156    71-3156   #71-3156    71-3156    71-3156
                        #71-3156    71-3156    71-3156   #71-3156    71-3156    71-3156   #71-3156    71-3156    71-3156
                        #71-3156    71-3156    71-3156   #71-3156    71-3156   #72-3204    72-3204    72-3204   #72-3204
                         72-3204    72-3204   #72-3204    72-3204    72-3204   #72-3204    72-3204    72-3204   #72-3204
                         72-3204    72-3204   #72-3204    72-3204    72-3204   #72-3204    72-3204   #72-3207    72-3207
                         72-3207   #72-3207    72-3207    72-3207   #72-3207    72-3207    72-3207   #72-3207    72-3207
                         72-3207   #72-3207    72-3207    72-3207   #72-3207    72-3207    72-3207   #72-3207    72-3207
                        #72-3210    72-3210    72-3210   #72-3210    72-3210    72-3210   #72-3210    72-3210    72-3210
                        #72-3210    72-3210    72-3210   #72-3210    72-3210    72-3210   #72-3210    72-3210    72-3210
                        #72-3210    72-3210   #73-3254    73-3254    73-3254   #73-3254    73-3254    73-3254   #73-3254
                         73-3254    73-3254   #73-3254    73-3254    73-3254   #73-3254    73-3254    73-3254   #73-3254
                         73-3254    73-3254   #73-3254    73-3254   #74-3314    74-3314    74-3314   #74-3314    74-3314
                         74-3314   #74-3314    74-3314    74-3314   #74-3314    74-3314    74-3314   #74-3314    74-3314
                         74-3314   #74-3314    74-3314    74-3314   #74-3314    74-3314   #75-3367    75-3367    75-3367
                        #75-3367    75-3367    75-3367   #75-3367    75-3367    75-3367   #75-3367    75-3367    75-3367
                        #75-3367    75-3367    75-3367   #75-3367    75-3367    75-3367   #75-3367    75-3367   #91-3973
                         91-3973    91-3973   #91-3973    91-3973    91-3973   #91-3973    91-3973    91-3973   #91-3973
                         91-3973    91-3973   #91-3973   #224-8709   224-8709   224-8709  #224-8709   224-8709   224-8709
                        #224-8709   224-8709   224-8709  #224-8709   224-8709   224-8709  #224-8709   224-8709   224-8709
                        #224-8709   224-8709   224-8709  #224-8709   224-8709  #260-10103  260-10103  260-10103 #260-10103
                         260-10103  260-10103 #260-10103  260-10103  260-10103 #260-10103  260-10103  260-10103 #260-10103
                         260-10103  260-10103 #260-10103  260-10103  260-10103 #260-10103  260-10103 #260-10112  260-10112
                         260-10112 #260-10112  260-10112  260-10112 #260-10112  260-10112  260-10112 #260-10112  260-10112
                         260-10112 #260-10112  260-10112  260-10112 #260-10112  260-10112  260-10112 #260-10112  260-10112
                        #260-10121  260-10121  260-10121 #260-10121  260-10121  260-10121 #260-10121  260-10121  260-10121
                        #260-10121  260-10121  260-10121 #260-10121  260-10121  260-10121 #260-10121  260-10121  260-10121
                        #260-10121  260-10121 #260-10126  260-10126  260-10126 #260-10126  260-10126  260-10126 #260-10126
                         260-10126  260-10126 #260-10126  260-10126  260-10126 #260-10126  260-10126  260-10126 #260-10126
                         260-10126  260-10126 #260-10126  260-10126
$$$OUT	= 000002	 190-7504  #190-7504   190-7504   193-7571  #193-7571   193-7571
$$$PAG	= 000001	 184-7394  #184-7394   184-7394
$$$PC 	= 000001	 178-7163  #178-7163   178-7163
$$$PI 	= 000002	 178-7187  #178-7187   178-7187   184-7396  #184-7396   184-7396
$$$PRG	= 000002	 179-7221  #179-7221   179-7221   187-7443  #187-7443   187-7443
$$$PRV	= 000004	 175-7099  #175-7099   175-7099   176-7120  #176-7120   176-7120   177-7135  #177-7135   177-7135
                         178-7208  #178-7208   178-7208
$$$PST	= 000002	 190-7506  #190-7506   190-7506   193-7573  #193-7573   193-7573
$$$QRE	= 000001	 174-7054  #174-7054   174-7054
$$$QSA	= 000001	 174-7056  #174-7056   174-7056
$$$QTR	= 000001	 185-7421  #185-7421   185-7421
$$$QUT	= 000001	 174-7080  #174-7080   174-7080
$$$R  	= 000001	 174-7049  #174-7049   174-7049
$$$REG	= 000001	 178-7189  #178-7189   178-7189
$$$REM	= 000001	 179-7226  #179-7226   179-7226
$$$RES	= 000001	 174-7058  #174-7058   174-7058
$$$RLD	= 000002	 190-7508  #190-7508   190-7508   193-7575  #193-7575   193-7575
$$$RPT	= 000003	 174-7051  #174-7051   174-7051   190-7510  #190-7510   190-7510   193-7577  #193-7577   193-7577
$$$RST	= 000001	 174-7060  #174-7060   174-7060
$$$RTY	= 000002	 190-7512  #190-7512   190-7512   193-7579  #193-7579   193-7579
$$$RUN	= 000001	 174-7062  #174-7062   174-7062
$$$SAV	= 000001	 174-7064  #174-7064   174-7064
$$$SBR	= 000001	 178-7198  #178-7198   178-7198
PAROOT     CREATED BY  MACRO  ON 17-MAY-88 AT 14:33	PAGE 35

SYMBOL CROSS REFERENCE                                  CREF   04.00

SYMBOL	VALUE		REFERENCES

$$$SCR	= 000001	 178-7200  #178-7200   178-7200
$$$SEP	= 000001	 180-7252  #180-7252   180-7252
$$$SET	= 000001	 174-7066  #174-7066   174-7066
$$$SHO	= 000001	 174-7068  #174-7068   174-7068
$$$SHU	= 000001	 174-7070  #174-7070   174-7070
$$$SLO	= 000001	 185-7423  #185-7423   185-7423
$$$SPC	= 000001	 183-7373  #183-7373   183-7373
$$$STR	= 000001	 174-7072  #174-7072   174-7072
$$$SWP	= 000001	 174-7074  #174-7074   174-7074
$$$TAK	= 000001	 174-7076  #174-7076   174-7076
$$$TEN	= 000004	 176-7112  #176-7112   176-7112   178-7191  #178-7191   178-7191   186-7432  #186-7432   186-7432
                         192-7542  #192-7542   192-7542
$$$THS	= 000004	 175-7101  #175-7101   175-7101   176-7122  #176-7122   176-7122   177-7137  #177-7137   177-7137
                         178-7210  #178-7210   178-7210
$$$TRK	= 000002	 190-7515  #190-7515   190-7515   193-7582  #193-7582   193-7582
$$$TTY	= 000001	 188-7456  #188-7456   188-7456
$$$T1 	= 000006	#70-3088    70-3088    70-3088   #70-3088    70-3088    70-3088   #70-3088    70-3088    70-3088
                        #80-3575    80-3575   #85-3784    85-3784   #160-6595   160-6595
$$$UBR	= 000001	 178-7193  #178-7193   178-7193
$$$UCD	= 000001	 192-7544  #192-7544   192-7544
$$$UNM	= 000001	 174-7078  #174-7078   174-7078
$$$USR	= 000002	 179-7228  #179-7228   179-7228   187-7445  #187-7445   187-7445
$$$VER	= 000001	 193-7585  #193-7585   193-7585
$$$VMA	= 000001	 178-7194  #178-7194   178-7194
$$$VMH	= 000001	 178-7196  #178-7196   178-7196
$$$WHA	= 000001	 174-7082  #174-7082   174-7082
$$$XCT	= 000001	 174-7084  #174-7084   174-7084
$$$ZER	= 000001	 174-7086  #174-7086   174-7086
.ABRTC	= ******  GX	 174-7015
.ACBLK	  000000 RG	#35-1481
.APRWD	  000002 RG	#35-1483    35-1579
.ATCID	  000460 RG	 257-9992  #260-10120
.ATLMD	= 000033	#21-839
.BRCLK	= 005000	#87-3839
.BRMBC	  003334 RG	#88-3868
.BUFSZ	= 001000  G	#69-2952    69-2971    69-3008    80-3575    85-3784    85-3791
.BURST	  003340 RG	#88-3870    115-4878   115-4878
.CCMDN	  000004 RG	#35-1485    61-2610   *156-6440  *158-6513  *158-6516  *163-6669   166-6781
.CDIBC	= 000412 R	#224-8712
.CDIBP	= 000410 R	#224-8711
.CDINP	  000374 RG	 223-8641  #224-8708   224-8711   224-8712
.CDOBC	= 000432 RG	*223-8637   254-9903  *255-9939   257-10001 *258-10023 #260-10106
.CDOBP	= 000430 RG	*223-8636   257-10000 *258-10024 #260-10105
.CDOFC	= 000434 RG	#260-10107
.CDOUT	  000414 RG	 257-9994  #260-10102  260-10105  260-10106  260-10107
.CECLK	= 004000	#87-3839
.CESCK	  000000 RG	#47-2099    97-4157    97-4157    100-4289   100-4289   147-6063   147-6063   159-6548   159-6548
.CHTAB	  001502 RG	#40-1775    48-2147    48-2154    49-2184    51-2249    52-2286    53-2315    59-2553    169-6868
                         223-8655   238-9288
.CIBFL	= 000214  G	#38-1695    224-8709
.CIBFR	  000362 RG	#38-1693    38-1695    223-8618   223-8632   223-8636   223-8645   224-8709
.CISTS	  000006 RG	#35-1487    223-8626   223-8633   223-8637   223-8643   223-8646   223-8650   224-8709
PAROOT     CREATED BY  MACRO  ON 17-MAY-88 AT 14:33	PAGE 36

SYMBOL CROSS REFERENCE                                  CREF   04.00

SYMBOL	VALUE		REFERENCES

.CKARG	  000070 RG	#48-2145    228-8854   228-8854   228-8861   228-8861   230-8959   230-8959   236-9201   236-9201
.CKCOL	  000130 RG	#49-2182
.CKCTC	  000166 RG	#50-2217    165-6737   165-6737
.CKEOC	  000214 RG	#51-2247    156-6441   166-6778   166-6778   172-6945   172-6945
.CKEOS	  000256 RG	#52-2284    229-8884   229-8884
.CKOBJ	  000300 RG	#53-2313
.CKRNP	  000316 RG	#54-2343
.CKRUN	  000326 RG	#54-2348
.CKSYM	  000374 RG	 48-2146    48-2146    51-2254    51-2254    53-2314    53-2314   #55-2392    55-2395    165-6738
                         165-6738   228-8850   228-8850
.CLDFB	  003370 RG	#89-3905    122-5120   122-5120   128-5319   128-5319   141-5839   141-5839
.CLDFR	  003374 RG	#89-3907
.CLDFW	  003404 RG	 89-3906    89-3906   #89-3912    124-5203   124-5203   126-5252   126-5252   134-5587   134-5587
                         155-6394   155-6394
.CLKWD	  000012 RG	#35-1489    124-5192  *129-5380   130-5393   145-5996
.CLOSE	  002114 RG	 74-3307    74-3307   #75-3346    77-3462    77-3462    80-3589    80-3589    160-6587   160-6587
                         160-6594   160-6594
.CLRCM	= ******  GX	 174-7017
.CLRFF	  003420 RG	#90-3941    114-4842   114-4842   117-4967   117-4967   152-6212   152-6212
.CLRMR	= 006000	#87-3839
.CLRUN	= 010000	#87-3839
.CMDTB	  004350 RG	 158-6512  #174-7012
.CMNDL	= 000430  G	#38-1703    224-8665
.COBFL	= 000204  G	#38-1699    258-10025
.COBFR	  000576 RG	 35-1613   #38-1697    258-10024  258-10026  260-10103  260-10112
.COMEF	= ******  GX	*141-5851
.COMMA	= 000054	#21-837
.COMND	  001012 RG	#38-1701    38-1703    163-6695
.CONBT	= 012000	#87-3839
.CONTC	= ******  GX	 174-7019
.COSTS	  000014 RG	#35-1491    257-9996   260-10103
.CRAMA	  000020 RG	#35-1493   *135-5628
.CRAMR	  000022 RG	#35-1495    134-5574   134-5593
.CRAMW	  000044 RG	#35-1499
.CSHRG	= 164000	#87-3839
.DBGSW	  000066 RG	#35-1504    68-2882    160-6577
.DELET	  002100 RG	#75-3342
.DEPAR	= ******  GX	 176-7108
.DFBLK	  000336 RG	#37-1672    106-4531   108-4628   111-4730
.DFRB 	  000344 RG	#37-1675    89-3909    106-4494   213-8257
.DFRED	= ******  GX	 174-7027
.DFWB 	  000336 RG	#37-1673    89-3914    107-4568  *122-5123  *122-5131  *124-5205   126-5253   155-6379   213-8264
.DFWRT	= ******  GX	 174-7029
.DFXCT	= ******  GX	 174-7031
.DIAG1	= 000000	#10-354
.DIAG2	= 000002	#10-355     93-4018    93-4039
.DIAG3	= 000006	#10-357     93-4026    93-4047
.DISCC	= ******  GX	 174-7023
.DOCMD	  007730 RG	#158-6504   163-6699   163-6699   172-6947   172-6947
.DPBFR	  000070 RG	#35-1507    102-4346
.DPBFX	  000076 RG	#35-1509
.DPDPB	  000312 RG	 101-4307   101-4308  #102-4345
PAROOT     CREATED BY  MACRO  ON 17-MAY-88 AT 14:33	PAGE 37

SYMBOL CROSS REFERENCE                                  CREF   04.00

SYMBOL	VALUE		REFERENCES

.DPETB	  004674 RG	#175-7092
.DPKLM	  003762 RG	#99-4247
.DPOEL	= ******  GX	 176-7110
.DPOKL	= ******  GX	 176-7112
.DPOSC	= ******  GX	 174-7021
.DPOSD	= ******  GX	 175-7093   176-7114
.DPOSI	= ******  GX	 175-7095   176-7116
.DPOSN	= ******  GX	 175-7097   176-7118
.DPOSP	= ******  GX	 175-7099   176-7120
.DPOSZ	= ******  GX	 175-7101   176-7122
.DPOTB	  004734 RG	#176-7107
.DPTRK	  012454 RG	 99-4259    99-4259   #218-8434
.DREG 	  000352 RG	#37-1678   *94-4056    94-4063    95-4111    106-4531   108-4628   111-4730
.DRLTC	= 015000	#87-3839
.DSACF	= 066000	#87-3839
.DSIOJ	= 065000	#87-3839
.DTAB 	  004232 R	 99-4249   #101-4306
.DTCID	  000474 RG	 257-9998  #260-10125
.DTDI1	  000352 RG	#37-1679
.DTDI2	  000354 RG	#37-1681
.DTDI3	  000360 RG	#37-1685
.DTDW1	  003530 RG	 47-2103    47-2103   #93-4034    104-4420   104-4420   104-4428   104-4428   114-4837   114-4837
                         115-4850   115-4850   115-4879   115-4879   117-4969   117-4969   152-6219   152-6219
.DTDW2	  003536 RG	#93-4038
.DTDW3	  003556 RG	#93-4046
.DTSTA	  003546 RG	 56-2422    56-2422   #93-4042
.DTSTS	  000356 RG	#37-1683
.DTSTW	= 000004	#10-356     93-4022    93-4043
.DTTRK	  012332 RG	 94-4067   #216-8346
.DWDW1	  003454 RG	#93-4013
.DWDW2	  003462 RG	#93-4017    142-5900   142-5900
.DWDW3	  003502 RG	#93-4025    142-5902
.DWSTA	  003472 RG	#93-4021
.EBCLK	  003634 RG	#97-4155    104-4419   104-4419
.EBPCK	  000410 RG	#56-2421    159-6549
.EDELA	  000104 RG	#35-1519    68-2878
.EDKLA	  000106 RG	#35-1521    102-4346   102-4364
.EDKLX	  000114 RG	#35-1523
.EIOJA	= 067000	#87-3839
.ELDDW	  000122 RG	#35-1525
.ELEDW	  000124 RG	#35-1527
.ELNCK	  013144 RG	#225-8738   226-8784   226-8784
.ENTER	  001664 RG	#72-3185
.ETAB 	  004222 R	 99-4233   #101-4300
.EXAD 	= ******  GX	 178-7144
.EXADX	= ******  GX	 178-7146
.EXAMC	= ******  GX	 174-7025
.EXAMD	= ******  GX	 177-7129   178-7202
.EXAMF	= ******  GX	 178-7183
.EXAMI	= ******  GX	 177-7131   178-7204
.EXAMK	= ******  GX	 178-7185
.EXAMN	= ******  GX	 177-7133   178-7206
PAROOT     CREATED BY  MACRO  ON 17-MAY-88 AT 14:33	PAGE 38

SYMBOL CROSS REFERENCE                                  CREF   04.00

SYMBOL	VALUE		REFERENCES

.EXAMP	= ******  GX	 177-7135   178-7208
.EXAMZ	= ******  GX	 177-7137   178-7210
.EXARR	= ******  GX	 178-7148
.EXARX	= ******  GX	 178-7150
.EXBFR	  000156 RG	#35-1533    102-4364
.EXBRR	= ******  GX	 178-7152
.EXBRX	= ******  GX	 178-7154
.EXCRA	= ******  GX	 178-7169
.EXCRL	= ******  GX	 178-7171
.EXCTC	= ******  GX	 174-7084
.EXCTF	  004150 RG	#103-4391   117-4991   117-4991
.EXDPB	  000324 RG	 101-4301   101-4302  #102-4363
.EXDPM	  004020 RG	 99-4234    99-4234    99-4250    99-4250   #100-4269
.EXDRA	= ******  GX	 178-7173
.EXDTE	= ******  GX	 178-7175
.EXEBR	= ******  GX	 178-7177
.EXEBS	= ******  GX	 178-7156
.EXECT	  004226 RG	#104-4414
.EXETB	  005016 RG	#177-7128
.EXFER	= ******  GX	 178-7181
.EXFMR	= ******  GX	 178-7159
.EXITP	  010110 RG	#160-6575   224-8696   258-10029
.EXKLM	  003730 RG	#99-4231
.EXMEL	= ******  GX	 178-7179
.EXMKL	= ******  GX	 178-7191
.EXMPI	= ******  GX	 178-7187
.EXMQR	= ******  GX	 178-7161
.EXMTB	  005056 RG	#178-7143   178-7166
.EXREG	= ******  GX	 178-7189
.EXSBR	= ******  GX	 178-7198
.EXSCR	= ******  GX	 178-7200
.EXTND	  002004 RG	#74-3290    85-3795    85-3795
.EXTRK	  012442 RG	 99-4243    99-4243   #218-8429
.EXUBR	= ******  GX	 178-7193
.EXVAB	= ******  GX	 178-7167
.EXVMA	= ******  GX	 178-7194
.EXVMH	= ******  GX	 178-7196
.EXVPC	= ******  GX	 178-7163
.FEMOD	= ******  GX	 54-2357    165-6768   166-6788
.FISTS	  001662 RG	#69-2949    70-3072    70-3093    71-3139    71-3142    71-3156    72-3188    72-3192    72-3204
                         72-3207    73-3254    74-3293    74-3314    75-3353    75-3367    80-3575    80-3577    80-3580
                         85-3784    85-3786    85-3793
.FNDIR	  001452 RG	#70-3062    71-3133    71-3133
.FREAD	  004362 RG	 97-4164    97-4164   #106-4486   128-5326   128-5326   129-5377   129-5377   132-5499   132-5499
                         134-5580   134-5580   136-5666   136-5666   137-5710   137-5710   138-5739   138-5739   139-5783
                         139-5783
.FRTRK	  012172 RG	 106-4506   106-4506  #213-8254
.FWRIT	  004444 RG	#107-4566   116-4930   116-4930   120-5087   120-5087   122-5126   122-5126   122-5134   122-5134
                         124-5207   124-5207   124-5212   124-5212   126-5261   126-5261   126-5268   126-5268   128-5321
                         128-5321   134-5590   134-5590   134-5592   134-5592   141-5843   141-5843   141-5848   141-5848
                         154-6308   154-6308   155-6385   155-6385   155-6393   155-6393   155-6396   155-6396   155-6398
                         155-6398
PAROOT     CREATED BY  MACRO  ON 17-MAY-88 AT 14:33	PAGE 39

SYMBOL CROSS REFERENCE                                  CREF   04.00

SYMBOL	VALUE		REFERENCES

.FWTRK	  012212 RG	 108-4601   108-4601  #213-8261
.FXCT 	  004566 RG	 88-3875    90-3949    90-3949    97-4162    97-4162   #110-4658   113-4785   113-4785   119-5029
                         119-5029   120-5089   127-5307   127-5307   128-5333   128-5333   128-5338   128-5338   134-5572
                         134-5572   147-6067   147-6067   150-6161   150-6161   153-6265   153-6265
.FXTRK	  012232 RG	 111-4703   111-4703  #213-8268
.GFNR 	= 102000	#87-3839
.GTCMD	  012610 RG	 163-6696   163-6696  #222-8570
.GTELN	  013220 RG	#226-8778   230-8961   230-8961
.GTEXP	  013706 RG	 228-8858   228-8858   229-8883   229-8883  #231-9034   237-9251   237-9251
.GTFCT	  014114 RG	 233-9095   233-9095   234-9130   234-9130  #235-9164   237-9232   237-9232   237-9237   237-9237
                         237-9243   237-9243
.GTKLA	  013250 RG	#227-8811
.GTKLN	  013302 RG	 172-6941   172-6941  #228-8848
.GTLIN	  012644 RG	 222-8574   222-8574  #223-8616
.GTNBR	  014410 RG	 235-9173   235-9173  #238-9279
.GTNUM	  013302 RG	 226-8783   226-8783   227-8812   227-8812  #228-8847
.GTOPC	  013514 RG	 228-8856   228-8856  #230-8937
.GTTRM	  014002 RG	 231-9035   231-9035   232-9062   232-9062  #233-9094
.HALTC	= ******  GX	 174-7033
.INATT	  002750 RG	#69-2983    80-3573    80-3586    160-6584
.INBBC	  001712 RG	#69-2966   *78-3504    78-3505   *78-3511    79-3538   *79-3544   *80-3580
.INBUF	  001716 RG	#69-2970    80-3575    80-3579
.INCHC	  000164 RG	#35-1535   *223-8619  *224-8664   224-8665   224-8671  *238-9280  *238-9290   239-9312
.INDFG	  001660 RG	#69-2945   *77-3459   *80-3588    160-6582  *160-6586   223-8620
.INFN 	  001666 RG	#69-2956
.INFNB	  002716 RG	#69-2973    77-3460
.INICL	= 070000	#87-3839
.INICP	= ******  GX	 35-1617
.INITC	= ******  GX	 174-7039
.INPOS	  001714 RG	#69-2968    78-3501   *78-3503    78-3509   *78-3510    79-3542   *79-3543   *80-3579
.INVBN	  001706 RG	#69-2964   *80-3571   *80-3572    80-3573    80-3575    80-3575
.IRADX	  000166 RG	#35-1537   *66-2794    172-6935  *172-6936  *172-6942   236-9206  *237-9222  *237-9226  *237-9230
                        *237-9233   238-9284
.IRLTC	= 014000	#87-3839
.JUMPC	= ******  GX	 174-7041
.KLCON	  004736 RG	 104-4441   104-4441  #113-4774
.KLDFR	  000336 RG	 60-2576   *106-4487   106-4491  #106-4530   213-8256
.KLDFW	  000350 RG	 60-2580   *107-4567   108-4587   108-4591  #108-4627   213-8263
.KLDFX	  000362 RG	 60-2584   *110-4659   110-4663   110-4666  #111-4729   213-8270
.KLE  	= ******  GX	 223-8625   223-8625
.KLEDF	  000176 RG	#35-1541   *163-6676   223-8623
.KLEPT	  000200 RG	#35-1543
.KLERQ	= ******  GX	 159-6544  *160-6596   163-6674
.KLEVL	  000202 RG	#35-1545
.KLFLG	= ******  GX	*47-2112   *47-2114    54-2353   *101-4315  *101-4319   103-4392   104-4416  *108-4596   110-4672
                        *110-4674   110-4678  *110-4680  *110-4687  *110-4693   113-4776   116-4931   117-4960   119-5042
                        *127-5308  *128-5339   148-6094   148-6096   163-6671
.KLGO 	  004744 RG	#113-4777   116-4932
.KLHLT	  005034 RG	#114-4835   116-4927   116-4927   117-4962   120-5085   120-5085
.KLINC	  000170 RG	#35-1539
.KLMTB	  005366 RG	#179-7216
.KLMT1	  005412 RG	#179-7225
PAROOT     CREATED BY  MACRO  ON 17-MAY-88 AT 14:33	PAGE 40

SYMBOL CROSS REFERENCE                                  CREF   04.00

SYMBOL	VALUE		REFERENCES

.KLRST	  005310 RG	#119-5019   146-6034   146-6034
.KLSNP	  000203 RG	#35-1547
.KLST 	  005164 RG	#116-4925
.KLSTP	  005212 RG	#117-4959   148-6097   148-6097
.KLXCT	  005442 RG	 103-4400   103-4400   104-4417   104-4417  #120-5084
.LCRDL	= 052000	#87-3839
.LCRDR	= 051000	#87-3839
.LCRM1	= 057000	#87-3839
.LCRM2	= 056000	#87-3839
.LCRM3	= 055000	#87-3839
.LCRM4	= 054000	#87-3839
.LCRM5	= 053000	#87-3839
.LDAR 	= 077000	#87-3839
.LDBRC	  005466 RG	#122-5116
.LDBRG	  005472 RG	 88-3873    88-3873   #122-5118
.LDBRL	= 043000	#87-3839
.LDBRR	= 042000	#87-3839
.LDCK1	= 046000	#87-3839
.LDCK2	= 047000	#87-3839
.LDCLK	  005570 RG	#124-5190   141-5836   141-5836   143-5955   143-5955   145-5999   145-5999
.LDCRA	  005666 RG	#126-5247   134-5570   134-5570   152-6215   152-6215   155-6377   155-6377
.LDDIS	= 045000	#87-3839
.LDOBC	= 000454 RG	*223-8646  *257-10001  257-10013 #260-10115
.LDOBP	= 000452 RG	*223-8645  *257-10000  257-10012 #260-10114
.LDOFC	= 000456 R	#260-10116
.LDOUT	  000436 RG	 257-10005 #260-10111  260-10114  260-10115  260-10116
.LDPAR	  005606 RG	#124-5196   141-5837   141-5837   145-6003   145-6003
.LDRJD	= 064000	#87-3839
.LDRJV	= 063000	#87-3839
.LDRM1	= 060000	#87-3839
.LDRM2	= 061000	#87-3839
.LDRM3	= 062000	#87-3839
.LDSEL	= 044000	#87-3839
.LDSTS	  000212 RG	#35-1558    257-10007  260-10112
.LDZFL	  000220 RG	#35-1562   *214-8281  *216-8347  *245-9529  *247-9618   249-9707  *249-9712   252-9820  *252-9824
.LGLWD	  000216 RG	#35-1560   *158-6515   159-6527  *159-6538  *163-6697
.LOKUP	  001574 RG	#71-3131
.MARKC	= ******  GX	 174-7045
.MEMFL	  000222 RG	#35-1564
.MEMRS	= 076000	#87-3839
.MISC 	= ******  GX	*160-6597
.MONTB	  005430 RG	#180-7235
.MRCLR	  006002 RG	#127-5304   141-5838   141-5838
.MTDPB	  000266 RG	 90-3944   #91-3972
.NOERR	= ******  GX	*47-2110   *149-6129
.NOHLT	= ******  GX	*90-3947   *113-4795  *119-5047  *146-6035
.NOTSW	  000224 RG	#35-1566
.NSETB	  005542 RG	 58-2528   #181-7265
.NULLC	  007716 RG	#156-6439   174-7013
.OPEN 	  001736 RG	#73-3237
.ORADX	  000226 RG	#35-1568   *66-2795    245-9533   245-9537   246-9572   246-9576   247-9621   247-9625   248-9660
                         248-9664   252-9813
PAROOT     CREATED BY  MACRO  ON 17-MAY-88 AT 14:33	PAGE 41

SYMBOL CROSS REFERENCE                                  CREF   04.00

SYMBOL	VALUE		REFERENCES

.OTATT	  004050 RG	#69-3020   *74-3295   *74-3296   *74-3300   *74-3301    74-3302    81-3633   *81-3635   *84-3741
                        *84-3742   *85-3788   *85-3789    160-6592
.OTBBC	  003012 RG	#69-3003   *82-3678    82-3679   *82-3684    83-3710   *83-3715    84-3743    84-3745    84-3751
                        *85-3791
.OTBUF	  003016 RG	#69-3007    74-3301    84-3742    85-3784    85-3790
.OTFN 	  002766 RG	#69-2993
.OTFNB	  004016 RG	#69-3010    72-3204    72-3207
.OTPOS	  003014 RG	#69-3005    74-3300    82-3675   *82-3677    82-3682   *82-3683    83-3713   *83-3714    84-3741
                         84-3746   *85-3790
.OTVBN	  003006 RG	#69-3001   *85-3782   *85-3783    85-3784    85-3784    85-3788    85-3789
.OUTLG	  000206 RG	#35-1551   *74-3305    160-6588  *160-6590   257-10009
.OUTLP	  000207 RG	#35-1553    257-10003
.OUTTY	  000210 RG	#35-1555    257-9990
.PARER	  000432 RG	#58-2513    66-2808    66-2808
.PASS 	  000204 RG	#35-1549    244-9460
.PCAB1	= 150000	#87-3839
.PCAB2	= 151000	#87-3839
.PCAB3	= 152000	#87-3839
.PCAB4	= 153000	#87-3839
.PEWRD	  000230 RG	#35-1570    139-5777
.PITAB	  000232 RG	#35-1572
.PSCWD	  000236 RG	#35-1574    124-5198  *129-5381   130-5399   145-5995
.PTDIE	  001046 RG	#64-2706    68-2874
.PTOAT	  001352 RG	 35-1597   #68-2869
.PTTRP	  001124 RG	 36-1665   #66-2778
.QUITC	= ******  GX	 174-7080
.RCRM1	= 147000	#87-3839
.RCRM2	= 146000	#87-3839
.RCRM3	= 145000	#87-3839
.RCRM4	= 144000	#87-3839
.RCSPF	= 141000	#87-3839
.RDCPP	  006150 RG	#129-5368   145-5994   145-5994
.RDCRA	= ******  GX	 135-5627   135-5627
.RDCRD	  006304 RG	#132-5495   134-5585   134-5585
.RDCRM	  006342 RG	#134-5566
.RDCRO	  006512 R	#135-5626
.RDCRR	  006374 RG	#134-5573   135-5629   135-5629
.RDFMA	  006532 RG	#136-5662   137-5706   137-5706
.RDFMO	  006614 RG	#137-5703
.RDFMP	  006650 RG	#138-5736
.RDIPE	  006704 RG	 62-2643    62-2643   #139-5773
.RDJ14	= 134000	#87-3839
.RDJ71	= 135000	#87-3839
.RDMAB	= 133000	#87-3839
.RDXSV	  000240 RG	#35-1576    66-2794    66-2795   *172-6935   172-6942
.READ 	  002440 RG	 78-3507    78-3507    79-3540    79-3540   #80-3570
.READB	  002406 RG	 77-3453    77-3453   #79-3537
.READR	  002224 RG	#77-3445    223-8634   223-8634
.READW	  002330 RG	 77-3447    77-3447   #78-3500
.RECNT	  004066 RG	#69-3028   *81-3626    81-3632   *81-3645
.RECPT	  004070 RG	#69-3030    81-3624   *81-3625   *81-3644
.RECRD	  004072 RG	 69-3031   #69-3032    81-3631    81-3644
PAROOT     CREATED BY  MACRO  ON 17-MAY-88 AT 14:33	PAGE 42

SYMBOL CROSS REFERENCE                                  CREF   04.00

SYMBOL	VALUE		REFERENCES

.REGRW	  000300 RG	*93-4014   *93-4018   *93-4022   *93-4026   *93-4028    93-4029    93-4030   *93-4035   *93-4039
                        *93-4043   *93-4047   *94-4054    94-4060   #95-4107    216-8351   216-8355   216-8361   216-8365
.REGSV	  010316 RG	 66-2786    68-2872    124-5191   124-5197   129-5369   139-5774  #162-6654   218-8430   218-8435
.RELWD	  000242 RG	#35-1578    236-9188
.REMOV	  001564 RG	#71-3128
.REPTC	  011036 RG	#172-6934   174-7051
.RESET	  006766 RG	#141-5829   143-5950   143-5950   145-5997   145-5997
.RESQ 	= ******  GX	 174-7054
.RESTB	  006232 RG	#184-7381
.RESTC	= ******  GX	 174-7058
.RESTD	  007102 RG	 100-4292   100-4292   141-5831   141-5831  #142-5898
.RESTI	  007122 RG	#143-5947
.RESTP	  007146 RG	 126-5250   126-5250  #145-5991
.RPTCT	  000244 RG	#35-1580    163-6698
.RPTPT	  000252 RG	#35-1582   *158-6510
.RSACB	= ******  GX	 182-7366
.RSALL	= ******  GX	 184-7382
.RSAPR	= ******  GX	 184-7384
.RSDTE	= ******  GX	 184-7386
.RSERR	= ******  GX	 184-7388
.RSPAG	= ******  GX	 184-7394
.RSTIN	= ******  GX	 184-7390
.RSTIO	= ******  GX	 184-7392
.RSTKL	  007220 RG	 66-2792    66-2792    103-4402  #146-6031
.RSTPI	= ******  GX	 184-7396
.RSTRC	= ******  GX	 174-7060
.RSTTB	  006204 RG	#182-7365
.RUNCM	= ******  GX	 174-7043   174-7047   174-7049   174-7062
.R50TB	  001442 RG	#39-1707    259-10062
.SAVEC	= ******  GX	 174-7064
.SAVQ 	= ******  GX	 174-7056
.SAVTB	  006214 RG	#183-7372
.SCACB	= ******  GX	 190-7482
.SCCEC	= ******  GX	 185-7405
.SCCED	= ******  GX	 185-7407
.SCCEE	= ******  GX	 185-7409
.SCCLK	= ******  GX	 190-7484
.SCCLN	= ******  GX	 185-7403
.SCCOM	= ******  GX	 187-7439
.SCCON	= ******  GX	 190-7486
.SCCOO	= ******  GX	 187-7441
.SCCOP	= ******  GX	 187-7443
.SCCOT	  006436 RG	#187-7438
.SCCOU	= ******  GX	 187-7445
.SCCRF	= ******  GX	 185-7417
.SCCRH	= ******  GX	 185-7419
.SCCRQ	= ******  GX	 185-7421
.SCCRS	= ******  GX	 185-7423
.SCCSE	= ******  GX	 185-7411
.SCCSI	= ******  GX	 185-7413
.SCCSM	= ******  GX	 185-7415
.SCCTB	  006314 RG	#185-7402
PAROOT     CREATED BY  MACRO  ON 17-MAY-88 AT 14:33	PAGE 43

SYMBOL CROSS REFERENCE                                  CREF   04.00

SYMBOL	VALUE		REFERENCES

.SCDAT	= ******  GX	 190-7488
.SCFSS	= ******  GX	 190-7492
.SCINC	= ******  GX	 190-7494
.SCKLN	= ******  GX	 190-7496
.SCMEL	= ******  GX	 186-7430
.SCMEM	= ******  GX	 190-7498
.SCMKL	= ******  GX	 186-7432
.SCMTB	  006420 RG	#186-7429
.SCNOT	= ******  GX	 190-7500
.SCOFS	= ******  GX	 190-7502
.SCOTL	= ******  GX	 188-7452
.SCOTP	= ******  GX	 188-7454
.SCOTT	  006470 RG	#188-7451
.SCOTY	= ******  GX	 188-7456
.SCOUT	= ******  GX	 190-7504
.SCPAL	= ******  GX	 189-7463
.SCPAR	= ******  GX	 189-7465
.SCPCR	= ******  GX	 189-7467
.SCPDR	= ******  GX	 189-7469
.SCPEN	= ******  GX	 189-7471
.SCPFM	= ******  GX	 189-7473
.SCPFS	= ******  GX	 189-7475
.SCPST	= ******  GX	 190-7506
.SCPTB	  006514 RG	#189-7462
.SCRLD	= ******  GX	 190-7508
.SCRPT	= ******  GX	 190-7510
.SCRTY	= ******  GX	 190-7512
.SCTRK	= ******  GX	 190-7515
.SEAMB	  000520 RG	#59-2548    191-7523
.SECES	  000756 RG	#62-2641    191-7525
.SECLK	= 003000	#87-3839
.SEFRF	  000606 RG	#60-2575    191-7527
.SEFWF	  000614 RG	#60-2579    191-7528
.SEFXF	  000622 RG	#60-2583    191-7529
.SEILC	  000544 RG	#59-2558    191-7531
.SEILS	  000544 RG	#59-2559    191-7532
.SEIPC	  000544 RG	#59-2560    191-7533
.SENSK	  000520 RG	#59-2549    191-7535
.SETCM	= ******  GX	 174-7066
.SETFN	  002166 RG	 71-3134    71-3134   #76-3404
.SETMR	= 007000	#87-3839
.SETRN	= 011000	#87-3839
.SETTB	  006570 RG	#190-7481
.SFREC	= ******  GX	 190-7490
.SHIFT	  011130 RG	 122-5129   122-5129  #196-7650
.SHUTC	= ******  GX	 174-7070
.SPACE	= 000040	#21-838     39-1719    52-2288    55-2394    59-2563    224-8682   228-8859   243-9413   250-9724
                         250-9725   250-9726   250-9727   250-9729   250-9730   250-9732   250-9733   250-9734   250-9736
                         250-9737   250-9742   250-9746
.SPETB	  006740 RG	 58-2515   #191-7522
.SSCAN	  010774 RG	 165-6748   165-6748  #169-6854   169-6860   230-8946   230-8946
.SSCLK	= 002000	#87-3839
PAROOT     CREATED BY  MACRO  ON 17-MAY-88 AT 14:33	PAGE 44

SYMBOL CROSS REFERENCE                                  CREF   04.00

SYMBOL	VALUE		REFERENCES

.SSTTB	  000316 RG	#36-1658    36-1667    64-2710   *68-2874   *68-2889
.START	  010354 RG	 35-1585   #163-6665
.STCLF	  007254 RG	 127-5309   127-5309  #147-6064
.STCLK	  007246 RG	 104-4425   104-4425   113-4788   113-4788   119-5044   119-5044  #147-6061   152-6216   152-6216
.STPCL	= 000000	#87-3839
.STPKL	  007272 RG	 103-4398   103-4398  #148-6093
.STPXC	  007316 RG	 88-3869    88-3869    104-4447   104-4447   115-4861   115-4861   115-4874   115-4874   122-5117
                         122-5117   128-5318   128-5318   141-5833   141-5833   145-5993   145-5993  #149-6123   152-6213
                         152-6213   154-6303   154-6303
.STRCL	= 001000	#87-3839
.STRTB	  007030 RG	#192-7541
.STRTC	= ******  GX	 174-7072
.STRTT	= ******  GX	 192-7542
.STRTU	= ******  GX	 192-7544
.STRTV	  000254 RG	#35-1584    66-2815    68-2890    166-6800
.STRUN	  007346 RG	 104-4451   104-4451   113-4782   113-4782   119-5027   119-5027   119-5038   119-5038  #150-6156
.STUCD	  007366 RG	#152-6208
.SVACB	= ******  GX	 183-7375
.SVESP	  000256 RG	#35-1586    163-6666   166-6799
.SVKLF	  000260 RG	#35-1588   *47-2111    66-2790   *103-4401   119-5021   119-5030  *119-5050   146-6032  *146-6037
                        *148-6096  *163-6668
.SVPC 	= ******  GX	 183-7373
.SWPC 	= ******  GX	 174-7074
.SWPIP	  000262 RG	#35-1590    47-2115   *66-2779
.SYNXC	  007470 RG	 97-4175    115-4864   128-5336   128-5336  #153-6261   154-6305   154-6305
.TAKEC	= ******  GX	 174-7076
.TCRLF	  015552 RG	 58-2541    64-2715    64-2715    64-2720    64-2720    66-2806    66-2806    67-2825    67-2825
                         68-2875    68-2875    68-2880    68-2880    166-6780   166-6780   214-8294   214-8294   223-8649
                         223-8649   244-9483   244-9483   253-9860   255-9941  #256-9951
.TFCHR	  015504 RG	 163-6694   163-6694   222-8580   222-8580  #254-9900
.TPADD	  011516 RG	#203-7916   207-8054   207-8054   232-9048   238-9297   238-9297
.TPCLR	  011372 RG	 89-3916    89-3916   #200-7790   207-8036   207-8036   228-8853   228-8853   252-9811   252-9811
.TPCMP	  011440 RG	 199-7740   199-7740  #201-7842
.TPCOM	  011402 RG	#200-7797   200-7805   200-7805   237-9238   237-9238
.TPDEC	  011550 RG	 159-6533   159-6533  #204-7956   211-8177   211-8177
.TPDIV	  011160 RG	#198-7706   234-9116   252-9814   252-9814
.TPINC	  011536 RG	 199-7745   199-7745   200-7806  #204-7949   211-8188   211-8188
.TPMUL	  011606 RG	#207-8028   234-9120   238-9294   238-9294
.TPNEG	  011412 RG	#200-7804   237-9246   237-9246
.TPSHI	  011772 RG	 126-5258   126-5258   126-5265   126-5265   132-5501   132-5501   136-5668   136-5668   136-5673
                         136-5673   138-5742   138-5742   155-6390   155-6390  #209-8106   211-8175   211-8175   211-8186
                         211-8186   229-8876   229-8876
.TPSHL	  012036 RG	#210-8157   234-9112
.TPSUB	  011562 RG	 199-7742   199-7742  #205-7987   232-9052
.TPTST	  011474 RG	 159-6525   159-6525   159-6534   159-6534   172-6943   172-6943   198-7711   198-7711  #202-7881
                         207-8030   207-8030   207-8033   207-8033   207-8061   207-8061   210-8163   210-8163   211-8178
                         211-8178   211-8189   211-8189   228-8863   228-8863   229-8885   229-8885   249-9709   249-9709
                         251-9789   251-9789
.TPXTN	  011420 RG	 198-7708   198-7708   198-7710   198-7710  #200-7809   210-8162   210-8162
.TRKWD	  000264 RG	#35-1593    94-4065    99-4241    99-4257    106-4504   108-4599   111-4701
.TRPEC	  000270 RG	#35-1598   *66-2785    66-2807
.TRPIP	  000272 RG	#35-1600   *64-2707   *66-2780   *66-2801    66-2809   *66-2814   *67-2829
PAROOT     CREATED BY  MACRO  ON 17-MAY-88 AT 14:33	PAGE 45

SYMBOL CROSS REFERENCE                                  CREF   04.00

SYMBOL	VALUE		REFERENCES

.TRPPC	  000274 RG	#35-1602   *66-2783   *68-2870
.TRPPS	  000276 RG	#35-1604   *66-2784   *68-2871
.TRPSB	  000300 RG	#35-1606   *66-2782    66-2788    66-2796    66-2811
.TRPTV	  000302 RG	#35-1608    66-2798   *66-2802
.TRP4V	  000266 RG	#35-1596
.TSCAN	  010524 RG	 158-6514   158-6514  #165-6736
.TYACE	  014630 RG	#244-9458
.TYAC1	  014662 RG	#244-9467
.TYCHR	  015520 RG	 59-2555    59-2555    59-2568    59-2568    59-2571    59-2571    61-2609    61-2609    61-2613
                         61-2613    243-9420   243-9420   244-9473   244-9473   252-9827   253-9872   253-9872   254-9901
                         254-9901  #255-9936   256-9954   256-9954   256-9956   256-9956   259-10067  259-10067
.TYCOL	  014542 RG	#243-9391   244-9474   244-9474
.TYCOM	  014552 RG	 62-2652    62-2652   #243-9396
.TYELA	  014762 RG	#245-9528
.TYELN	  014766 RG	 64-2719    64-2719    68-2879    68-2879    216-8363   216-8363  #245-9530
.TYINI	  015736 RG	 163-6670   163-6670  #258-10022
.TYKLA	  015106 RG	 219-8458   219-8458   244-9478   244-9478  #247-9617
.TYKLN	  015156 RG	 214-8292   214-8292   219-8462   219-8462   244-9482   244-9482  #248-9657
.TYLIN	  015446 RG	 64-2717    64-2717    67-2824    67-2824    166-6784   166-6784   166-6793   166-6793   216-8369
                         216-8369   219-8470   219-8470  #253-9858
.TYMIN	  014562 RG	#243-9401
.TYMSF	  015454 RG	 163-6678   163-6678  #253-9862
.TYMSG	  015462 RG	 60-2593    60-2593    61-2607    61-2607    61-2611    61-2611    61-2616    62-2651    62-2651
                         62-2662    62-2662    68-2877    68-2877    77-3464    77-3464    163-6682   163-6682   166-6782
                         166-6782   214-8282   214-8282   216-8350   216-8350   216-8353   216-8353   219-8456   219-8456
                         244-9465   244-9465   253-9859   253-9859   253-9863   253-9863  #253-9866
.TYNCM	  015240 RG	 246-9584  #249-9701
.TYNUM	  015316 RG	 249-9714   249-9714  #251-9778   252-9806
.TYOBC	  000304 RG	#35-1610   *255-9940  *258-10025
.TYOBP	  000306 RG	#35-1612    255-9937  *255-9938  *258-10026
.TYOUT	  015600 RG	 223-8639   223-8639   254-9905   255-9944  #257-9989
.TYOU1	  015660 RG	 223-8648   223-8648  #257-10002
.TYP3D	  015032 RG	 60-2591    60-2591    214-8287   214-8287  #246-9569
.TYR50	  015772 RG	 61-2623    61-2623   #259-10054
.TYSLS	  014572 RG	 214-8290   214-8290   219-8459   219-8459  #243-9406   244-9479   244-9479
.TYSPC	  014602 RG	 61-2614    61-2614    62-2653    62-2653    166-6792   166-6792   214-8291   214-8291   216-8354
                         216-8354   219-8460   219-8460   219-8463   219-8463  #243-9411   244-9480   244-9480
.TYUPA	  014612 RG	 59-2565    59-2565   #243-9416
.T50TB	  001472 RG	#39-1721    259-10056
.UMRKC	= ******  GX	 174-7078
.VFYFL	  000310 RG	#35-1614
.WHACB	= ******  GX	 193-7551
.WHATB	  007046 RG	#193-7550
.WHATC	= ******  GX	 174-7068   174-7082
.WHATV	= ******  GX	 193-7585
.WHCON	= ******  GX	 193-7555
.WHDAT	= ******  GX	 193-7557
.WHINC	= ******  GX	 193-7563
.WHKLN	= ******  GX	 193-7565
.WHMEM	= ******  GX	 193-7567
.WHOFS	= ******  GX	 193-7569
.WHOUT	= ******  GX	 193-7571
PAROOT     CREATED BY  MACRO  ON 17-MAY-88 AT 14:33	PAGE 46

SYMBOL CROSS REFERENCE                                  CREF   04.00

SYMBOL	VALUE		REFERENCES

.WHRDW	= ******  GX	 193-7561
.WHREC	= ******  GX	 193-7559
.WHRLD	= ******  GX	 193-7575
.WHRPT	= ******  GX	 193-7577
.WHRTY	= ******  GX	 193-7579
.WHTCL	= ******  GX	 193-7553
.WHTPS	= ******  GX	 193-7573
.WHTRK	= ******  GX	 193-7582
.WRAR1	  007512 RG	#154-6304
.WRCRM	  007534 RG	#155-6370
.WRITB	  003030 RG	 81-3641    81-3641   #83-3709    84-3754    84-3754
.WRITE	  003160 RG	 82-3681    82-3681    83-3712    83-3712    84-3756    84-3756   #85-3781
.WRITR	  002616 RG	#81-3618    257-10014  257-10014
.WRITW	  002754 RG	 81-3637    81-3637   #82-3674    84-3750    84-3750
.WRITZ	  003060 RG	#84-3740    160-6591   160-6591
.WRMBX	= 071000	#87-3839
.WRTAR	  007506 RG	#154-6302
.ZEROC	= ******  GX	 174-7086
..DTSP	= ******  GX	 47-2109    47-2109
..SACK	= ******  GX	 160-6602   160-6602
PAROOT     CREATED BY  MACRO  ON 17-MAY-88 AT 14:33	PAGE 47

MACRO CROSS REFERENCE                                   CREF   04.00

MACRO NAME	REFERENCES

ALUN$ 		#68-2937    70-3088
CALL  		#4-119      47-2103    47-2109    48-2146    51-2254    53-2314    56-2422    58-2538    59-2550    59-2555
                 59-2561    59-2565    59-2568    59-2571    60-2586    60-2591    60-2593    61-2607    61-2609    61-2611
                 61-2613    61-2614    61-2621    61-2623    62-2642    62-2643    62-2651    62-2652    62-2653    62-2662
                 64-2715    64-2717    64-2719    64-2720    66-2786    66-2792    66-2806    66-2808    67-2824    67-2825
                 67-2831    68-2872    68-2875    68-2877    68-2879    68-2880    68-2885    71-3133    71-3134    74-3307
                 77-3447    77-3453    77-3462    77-3464    78-3507    79-3540    80-3589    81-3637    81-3641    82-3681
                 83-3712    84-3750    84-3754    84-3756    85-3795    88-3869    88-3873    89-3906    89-3916    90-3949
                 97-4157    97-4162    97-4164    99-4234    99-4243    99-4250    99-4259    100-4289   100-4292   103-4398
                 103-4400   104-4417   104-4419   104-4420   104-4425   104-4428   104-4441   104-4447   104-4451   106-4506
                 108-4601   111-4703   113-4782   113-4785   113-4788   114-4837   114-4842   115-4850   115-4861   115-4874
                 115-4878   115-4879   116-4927   116-4930   117-4967   117-4969   117-4991   119-5027   119-5029   119-5038
                 119-5044   120-5085   120-5087   122-5117   122-5120   122-5126   122-5129   122-5134   124-5191   124-5197
                 124-5203   124-5207   124-5212   126-5250   126-5252   126-5258   126-5261   126-5265   126-5268   127-5307
                 127-5309   128-5318   128-5319   128-5321   128-5326   128-5333   128-5336   128-5338   129-5369   129-5377
                 132-5499   132-5501   134-5570   134-5572   134-5580   134-5585   134-5587   134-5590   134-5592   135-5627
                 135-5629   136-5666   136-5668   136-5673   137-5706   137-5710   138-5739   138-5742   139-5774   139-5783
                 141-5831   141-5833   141-5836   141-5837   141-5838   141-5839   141-5843   141-5848   142-5900   143-5950
                 143-5955   145-5993   145-5994   145-5997   145-5999   145-6003   146-6034   147-6063   147-6067   148-6097
                 150-6161   152-6212   152-6213   152-6215   152-6216   152-6219   153-6265   154-6303   154-6305   154-6308
                 155-6377   155-6385   155-6390   155-6393   155-6394   155-6396   155-6398   158-6514   159-6523   159-6525
                 159-6533   159-6534   159-6548   160-6587   160-6591   160-6594   160-6602   162-6658   163-6670   163-6678
                 163-6682   163-6694   163-6696   163-6699   165-6737   165-6738   165-6748   166-6778   166-6780   166-6782
                 166-6784   166-6792   166-6793   172-6941   172-6943   172-6945   172-6947   198-7708   198-7710   198-7711
                 199-7740   199-7742   199-7745   200-7805   207-8030   207-8033   207-8036   207-8054   207-8061   210-8162
                 210-8163   211-8175   211-8177   211-8178   211-8186   211-8188   211-8189   214-8282   214-8287   214-8290
                 214-8291   214-8292   214-8294   216-8350   216-8353   216-8354   216-8363   216-8369   218-8430   218-8435
                 219-8456   219-8458   219-8459   219-8460   219-8462   219-8463   219-8470   222-8574   222-8580   223-8625
                 223-8634   223-8639   223-8648   223-8649   226-8783   226-8784   227-8812   228-8850   228-8853   228-8854
                 228-8856   228-8858   228-8861   228-8863   229-8876   229-8883   229-8884   229-8885   230-8946   230-8959
                 230-8961   231-9035   232-9062   232-9065   233-9095   234-9130   234-9133   235-9173   236-9201   237-9232
                 237-9237   237-9238   237-9243   237-9246   237-9251   238-9294   238-9297   243-9420   244-9465   244-9473
                 244-9474   244-9478   244-9479   244-9480   244-9482   244-9483   249-9709   249-9714   251-9789   252-9811
                 252-9814   252-9816   253-9859   253-9863   253-9872   254-9901   256-9954   256-9956   257-10014  259-10060
                 259-10067
CALLR 		#4-128      58-2541    61-2616    66-2803    88-3875    94-4067    97-4175    103-4402   115-4864   120-5089
                 142-5902   156-6441   159-6549   224-8696   258-10029
CLEF$S		#46-2064    50-2218
COMND$		#5-182      174-7013   174-7015   174-7017   174-7019   174-7021   174-7023   174-7025   174-7027   174-7029
                 174-7031   174-7033   174-7039   174-7041   174-7043   174-7045   174-7047   174-7049   174-7051   174-7054
                 174-7056   174-7058   174-7060   174-7062   174-7064   174-7066   174-7068   174-7070   174-7072   174-7074
                 174-7076   174-7078   174-7080   174-7082   174-7084   174-7086   175-7093   175-7095   175-7097   175-7099
                 175-7101   176-7108   176-7110   176-7112   176-7114   176-7116   176-7118   176-7120   176-7122   177-7129
                 177-7131   177-7133   177-7135   177-7137   178-7144   178-7146   178-7148   178-7150   178-7152   178-7154
                 178-7156   178-7159   178-7161   178-7163   178-7167   178-7169   178-7171   178-7173   178-7175   178-7177
                 178-7179   178-7181   178-7183   178-7185   178-7187   178-7189   178-7191   178-7193   178-7194   178-7196
                 178-7198   178-7200   178-7202   178-7204   178-7206   178-7208   178-7210   179-7217   179-7219   179-7221
                 179-7226   179-7228   180-7236   180-7238   180-7240   180-7242   180-7244   180-7246   180-7248   180-7250
                 180-7252   180-7254   180-7256   180-7258   182-7366   183-7373   183-7375   184-7382   184-7384   184-7386
                 184-7388   184-7390   184-7392   184-7394   184-7396   185-7403   185-7405   185-7407   185-7409   185-7411
                 185-7413   185-7415   185-7417   185-7419   185-7421   185-7423   186-7430   186-7432   187-7439   187-7441
                 187-7443   187-7445   188-7452   188-7454   188-7456   189-7463   189-7465   189-7467   189-7469   189-7471
PAROOT     CREATED BY  MACRO  ON 17-MAY-88 AT 14:33	PAGE 48

MACRO CROSS REFERENCE                                   CREF   04.00

MACRO NAME	REFERENCES

                 189-7473   189-7475   190-7482   190-7484   190-7486   190-7488   190-7490   190-7492   190-7494   190-7496
                 190-7498   190-7500   190-7502   190-7504   190-7506   190-7508   190-7510   190-7512   190-7515   192-7542
                 192-7544   193-7551   193-7553   193-7555   193-7557   193-7559   193-7561   193-7563   193-7565   193-7567
                 193-7569   193-7571   193-7573   193-7575   193-7577   193-7579   193-7582   193-7585
DIR$  		#50-2218    50-2218   #68-2937    70-3066    70-3070    71-3137    72-3186    72-3190    72-3195    73-3243
                 74-3291    75-3351   #80-3575    80-3575   #85-3784    85-3784   #87-3837    90-3944    94-4060    100-4280
                 106-4491   108-4587   110-4663  #149-6126   149-6126  #157-6479  #160-6595   160-6595  #160-6604   160-6604
                #223-8614   223-8641  #257-9985   257-9992   257-9994   257-9998   257-10005
ERCON$		#5-173
ERROR$		#5-158      47-2119    49-2190    49-2193    51-2261    54-2367    56-2429    70-3080    70-3082    71-3150
                 72-3198    73-3248    74-3308    75-3361    80-3590    85-3799    88-3878    94-4076    97-4178    101-4316
                 101-4320   101-4323   101-4326   104-4456   106-4511   108-4608   111-4709   115-4887   117-4982   134-5597
                 152-6232   152-6235   155-6402   159-6552   167-6805   167-6808   167-6811   172-6951   199-7761   224-8699
                 224-8702   227-8819   229-8904   230-8981   236-9214   237-9254   239-9316   239-9319
ERR$  		#50-2218   #70-3066   #70-3070   #71-3137   #72-3186   #72-3190   #72-3195   #73-3243   #74-3291   #75-3351
                #80-3575   #85-3784   #90-3944   #94-4060   #100-4280  #106-4491  #108-4587  #110-4663  #149-6126  #160-6595
                #160-6604  #223-8641  #257-9992  #257-9994  #257-9998  #257-10005
EXCH$ 		#6-224
EXIT$S		#157-6479   160-6604
FATAL$		#5-165
IKL$  		#8-253
IOKL$ 		#8-281      117-4986
KLDR$ 		#87-3837    106-4531
KLDW$ 		#87-3837    108-4628
KLDX$ 		#87-3837    111-4730
MOV$  		#50-2218    50-2218   #80-3575   #80-3575    80-3575    80-3575    80-3575    80-3575    80-3575    80-3575
                 80-3575    80-3575    80-3575   #85-3784   #85-3784    85-3784    85-3784    85-3784    85-3784    85-3784
                 85-3784    85-3784    85-3784    85-3784   #149-6126   149-6126  #160-6595  #160-6595   160-6595   160-6595
                 160-6595   160-6595
MRKT$ 		#87-3837    91-3973
MVB$  		#80-3575    80-3575   #85-3784    85-3784   #160-6595   160-6595
NBL$  		#70-3088    70-3088
NSERR$		#6-202      181-7266   181-7268   181-7270   181-7271   181-7272   181-7273   181-7274   181-7275   181-7276
                 181-7277   181-7278   181-7279   181-7284   181-7285   181-7286   181-7287   181-7288   181-7289   181-7290
                 181-7291   181-7292   181-7294   181-7295   181-7296   181-7297   181-7298   181-7299   181-7301   181-7302
                 181-7303   181-7304   181-7305   181-7306   181-7307   181-7308   181-7310   181-7311   181-7312   181-7313
                 181-7314   181-7315   181-7316   181-7317   181-7319   181-7320   181-7321   181-7322   181-7323   181-7325
                 181-7326   181-7328   181-7329   181-7330   181-7331   181-7332   181-7333   181-7334   181-7336   181-7337
                 181-7339   181-7341   181-7343   181-7344   181-7345   181-7346   181-7348   181-7349   181-7351   181-7353
                 181-7355   181-7357   181-7359
OFF$  		#70-3088    70-3088    70-3088    70-3088    70-3088   #70-3093    70-3093    70-3093    70-3093    70-3093
                 70-3093    70-3093    70-3093    70-3093   #71-3156    71-3156    71-3156    71-3156    71-3156    71-3156
                 71-3156    71-3156    71-3156   #72-3204    72-3204    72-3204    72-3204    72-3204    72-3204    72-3204
                 72-3204    72-3204   #72-3207    72-3207    72-3207    72-3207    72-3207    72-3207    72-3207    72-3207
                 72-3207   #72-3210    72-3210    72-3210    72-3210    72-3210    72-3210    72-3210    72-3210    72-3210
                #73-3254    73-3254    73-3254    73-3254    73-3254    73-3254    73-3254    73-3254    73-3254   #74-3314
                 74-3314    74-3314    74-3314    74-3314    74-3314    74-3314    74-3314    74-3314   #75-3367    75-3367
                 75-3367    75-3367    75-3367    75-3367    75-3367    75-3367    75-3367   #91-3973    91-3973    91-3973
                 91-3973    91-3973    91-3973   #224-8709   224-8709   224-8709   224-8709   224-8709   224-8709   224-8709
                 224-8709   224-8709  #260-10103  260-10103  260-10103  260-10103  260-10103  260-10103  260-10103  260-10103
                 260-10103 #260-10112  260-10112  260-10112  260-10112  260-10112  260-10112  260-10112  260-10112  260-10112
                #260-10121  260-10121  260-10121  260-10121  260-10121  260-10121  260-10121  260-10121  260-10121 #260-10126
PAROOT     CREATED BY  MACRO  ON 17-MAY-88 AT 14:33	PAGE 49

MACRO CROSS REFERENCE                                   CREF   04.00

MACRO NAME	REFERENCES

                 260-10126  260-10126  260-10126  260-10126  260-10126  260-10126  260-10126  260-10126
PARVR$		#34-1450    39-1730    39-1730
POP   		#4-134      51-2257    54-2361    58-2540    60-2587    61-2622    67-2830    68-2870    68-2871    68-2884
                 76-3416    77-3457    81-3628    81-3643    90-3951    97-4174    99-4262    103-4399   103-4401   108-4604
                 111-4706   113-4797   115-4863   117-4979   117-4992   119-5049   122-5135   126-5270   128-5341   130-5411
                 132-5504   134-5594   136-5676   137-5711   141-5850   145-6005   147-6068   150-6162   152-6229   154-6310
                 155-6399   162-6662   165-6771   165-6773   196-7664   199-7746   199-7749   199-7757   207-8063   208-8074
                 208-8075   208-8076   208-8078   209-8128   211-8192   211-8193   214-8296   216-8370   219-8471   224-8670
                 229-8890   229-8898   230-8977   232-9064   234-9132   236-9195   236-9203   237-9233   238-9300   239-9310
                 243-9421   244-9466   244-9484   249-9716   252-9812   252-9819   253-9876   256-9957   257-10015  259-10068
                 259-10072
PRDP$ 		#87-3837    102-4346
PREX$ 		#87-3837    102-4364
PUSH  		#4-140      47-2119    49-2190    49-2193    51-2253    51-2261    54-2344    54-2349    54-2353    54-2367
                 56-2429    58-2514    60-2576    60-2580    60-2584    61-2619    62-2644    64-2709    66-2787    68-2873
                 70-3080    70-3082    71-3150    72-3198    73-3248    74-3308    75-3361    76-3405    77-3446    80-3590
                 81-3619    81-3630    85-3799    88-3878    89-3908    89-3913    90-3946    94-4076    97-4156    97-4178
                 99-4232    99-4248    101-4316   101-4320   101-4323   101-4326   103-4392   103-4397   103-4407   104-4416
                 104-4456   106-4511   108-4590   108-4608   111-4709   113-4775   114-4836   115-4887   116-4926   117-4965
                 117-4982   117-4989   119-5020   122-5119   126-5249   127-5305   129-5370   132-5496   134-5567   134-5597
                 136-5663   136-5669   137-5704   141-5830   143-5948   145-5992   145-5995   145-5996   147-6065   149-6128
                 150-6158   152-6211   152-6232   152-6235   153-6263   154-6306   155-6373   155-6402   158-6506   158-6508
                 158-6509   159-6552   162-6655   165-6741   165-6742   165-6744   167-6805   167-6808   167-6811   172-6951
                 196-7651   198-7707   199-7743   199-7761   207-8029   207-8041   207-8059   209-8107   210-8158   210-8160
                 213-8255   213-8256   213-8257   213-8262   213-8263   213-8264   213-8269   213-8270   216-8348   219-8444
                 222-8573   223-8617   224-8699   224-8702   227-8819   228-8849   229-8882   229-8904   230-8938   230-8981
                 232-9059   232-9060   234-9127   234-9128   236-9187   236-9206   236-9214   237-9254   238-9281   238-9284
                 238-9295   239-9316   239-9319   243-9392   243-9397   243-9402   243-9407   243-9412   243-9417   244-9459
                 244-9467   245-9531   246-9570   246-9582   247-9619   248-9658   248-9669   248-9671   252-9804   252-9805
                 252-9809   252-9815   253-9867   256-9952   257-10011  259-10055  259-10061
QDPB$ 		#70-3093    70-3093   #71-3156    71-3156   #72-3204    72-3204   #72-3207    72-3207   #72-3210    72-3210
                #73-3254    73-3254   #74-3314    74-3314   #75-3367    75-3367   #224-8709   224-8709  #260-10103  260-10103
                #260-10112  260-10112 #260-10121  260-10121 #260-10126  260-10126
QDPB$S		#80-3575    80-3575   #85-3784    85-3784   #160-6595   160-6595
QIOW$ 		#68-2937    70-3093    71-3156    72-3204    72-3207    72-3210    73-3254    74-3314    75-3367   #223-8614
                 224-8709  #257-9985   260-10103  260-10112  260-10121  260-10126
QIOW$S		#68-2937    80-3575    85-3784   #157-6479   160-6595
RETURN		#4-148      47-2107    47-2118    48-2159    49-2188    50-2221    51-2251    52-2290    53-2317    54-2362
                 55-2397    56-2427    70-3077    71-3141    71-3145    72-3194    73-3245    74-3297    75-3355    76-3417
                 77-3458    78-3512    79-3545    80-3581    80-3583    81-3629    82-3685    83-3716    84-3757    85-3792
                 90-3952    94-4071    99-4263    100-4283   100-4291   104-4454   106-4509   108-4605   111-4707   113-4798
                 117-4980   119-5051   122-5136   124-5215   126-5271   128-5342   130-5412   132-5505   134-5595   135-5631
                 136-5679   137-5712   138-5745   139-5796   141-5852   145-6006   146-6038   147-6069   148-6099   150-6163
                 152-6230   154-6311   155-6400   159-6546   162-6663   165-6774   169-6877   172-6949   196-7666   205-7999
                 208-8079   209-8129   211-8194   214-8297   216-8371   219-8472   222-8584   224-8672   225-8753   226-8787
                 227-8817   229-8899   230-8978   231-9041   233-9105   235-9180   239-9314   243-9422   244-9485   249-9717
                 252-9830   253-9877   256-9959   258-10027  259-10073
RVP$  		#80-3575    80-3575   #85-3784    85-3784   #160-6595   160-6595
SPERR$		#6-212      191-7523   191-7525   191-7527   191-7528   191-7529   191-7531   191-7532   191-7533   191-7535
WTSE$S		#87-3837    149-6126
$DEF  		#87-3837    87-3839
.ENB6 		#157-6479   160-6603
PAROOT     CREATED BY  MACRO  ON 17-MAY-88 AT 14:33	PAGE 50

MACRO CROSS REFERENCE                                   CREF   04.00

MACRO NAME	REFERENCES

.INH6 		#157-6479   160-6598
DEFINE -- LOCAL DEFINITION MODU	MACRO V05.04  Tuesday 17-May-88 14:36
Table of contents

     2-   57	DEFINE -- COMMAND PARSER ASSEMBLY SWITCHES 7709.20
     3-  105	DEFINE -- COMMAND PARSER MACRO CALLS 7709.20
     4-  115	DEFINE -- LOCAL MACRO DEFINITIONS 7709.20
     7-  230	DEFINE -- SPECIAL KL MACROS AND DEFINITIONS 7709.20
     9-  303	DEFINE -- LOCAL DEFINITIONS 7709.20
    33- 1408	COPYRIGHT PAGE
    34- 1443	.ABRTC -- THE "ABORT" COMMAND 7602.23
    35- 1467	.ABORT -- ABORT CURRENT OPERATION SUBROUTINE 7707.12
    38- 1562	.CONTC -- THE "CONTINUE" COMMAND 7611.17
    40- 1649	.DPOSC -- THE "DEPOSIT" COMMAND DISPATCH 7602.23
    41- 1687	.DPOSD -- THE "DEPOSIT <NUMERICAL OBJECT>" COMMAND DISPATCH 7602.29
    42- 1750	.EXAMC -- THE "EXAMINE" COMMAND DISPATCH 7602.16
    43- 1790	.EXAMD -- THE "EXAMINE <NUMERICAL OBJECT>" COMMAND DISPATCH 7602.29
    44- 1853	.DPOBJ -- THE "DEPOSIT <OBJECT>" COMMAND DISPATCH 7602.29
    45- 1891	.EXOBJ -- THE "EXAMINE <OBJECT>" COMMAND DISPATCH 7602.16
    46- 1929	.EDEWD -- THE EXAMINE / DEPOSIT "<ELEVEN> <NUMERICAL OBJECT>" COMMAND 7602.29
    47- 1942	.EDKLD -- THE EXAMINE / DEPOSIT "<TEN> <NUMERICAL OBJECT>" COMMAND 7609.10
    49- 2030	.DFCOM -- COMMON DIAGNOSTIC FUNCTION ROUTINE 7603.30
    50- 2083	.DFRED -- DIAGNOSTIC FUNCTION READ 7602.15
    51- 2172	.DFWRT -- DIAGNOSTIC FUNCTION WRITE 7608.20
    52- 2213	.DFXCT -- DIAGNOSTIC FUNCTION EXECUTE 7602.15
    53- 2247	.XFXCK -- SUBROUTINES TO RANGE CHECK DIAG FUNCTIONS 7509.26
    56- 2338	.DISCC -- THE "DISCONNECT" COMMAND 7702.28
    57- 2413	.DPOSE -- THE "DEPOSIT <ELEVEN>" COMMAND 7602.29
    59- 2483	.DPEWD -- THE "DEPOSIT <ELEVEN> <NUMERICAL OBJECT>" COMMAND 7602.29
    60- 2522	.EXAME -- THE "EXAMINE <ELEVEN>" COMMAND 7602.29
    62- 2615	.EXEWD -- THE "EXAMINE <ELEVEN> <NUMERICAL OBJECT>" COMMAND 7602.29
    65- 2677	.DEPAR -- THE "DEPOSIT AR" COMMAND 7603.21
    66- 2718	.DPOST -- THE "DEPOSIT <TEN>" COMMAND 7602.15
    69- 2832	.DPKLD -- THE "DEPOSIT <TEN> <NUMERICAL OBJECT>" COMMAND 7602.29
    70- 2870	.EXAMT -- THE "EXAMINE <TEN>" COMMAND 7602.05
    72- 2990	.EXKLD -- THE "DEPOSIT <TEN> <NUMERICAL OBJECT>" COMMAND 7609.10
    73- 3017	.RDAPR -- SUBROUTINE TO READ THE STATE OF THE KL APR 7509.24
    78- 3194	.EXCTC -- THE "XCT" (EXECUTE) COMMAND 7602.17
    80- 3271	.EXDTE -- THE "EXAMINE DTE-20" COMMAND 7603.20
    81- 3299	TYPDTE -- TYPE OUT DTE REGISTERS SYMBOLICALLY
    82- 3408	STATYP -- SYMBOLIC STATUS REGISTER TYPE OUT
    83- 3466	TYPDX1 -- SYMBOLIC DEXWD1-DEXWD3 TYPE OUT
    84- 3491	TYPAD2 -- SYMBOLIC TENAD1-TENAD2 TYPE OUT
    85- 3569	TYPDG1 -- SYMBOLIC DIAG1 TYPE OUT
    86- 3613	TYPDG3 -- SYMBOLIC DIAG3 TYPE OUT
    89- 3669	.EXAD  -- KL DATA PATH BOARD EXAMINES 7602.16
    90- 3710	.EXVAB -- KL PC BOARD AND SMALL REGISTER EXAMINES 7602.16
    92- 3755	.EXAMF -- THE "EXAMINE FLAGS" COMMAND 7602.23
    94- 3816	.EXAMK -- THE "EXAMINE KL" COMMAND 7602.23
    95- 3856	.EXCRA -- SMALL REGISTER EXAMINES 7609.10
    98- 3908	.EXMPI -- THE "EXAMINE PI" COMMAND 7602.23
   100- 3979	.EXREG -- THE "EXAMINE REGISTERS" COMMAND 7602.16
   101- 3996	.RDDPB -- SUBROUTINES TO READ THE KL DATA PATH BOARDS 7509.23
   103- 4068	.RDFLG -- SUBROUTINE TO READ THE KL PC FLAGS 7511.24
   105- 4135	.RDPI  -- SUBROUTINE TO READ THE PI BOARDS 7510.16
   107- 4199	.RDSMR -- SUBROUTINE TO READ SMALL KL REGISTERS 7511.05
   110- 4332	.RDVXX -- KL VMA BOARD READ SUBROUTINES 7510.21
   112- 4469	.GTDAT -- SUBROUTINE TO INPUT THE CURRENT DATE 7702.15
   114- 4624	.GTTIM -- SUBROUTINE TO INPUT A TIME VALUE 7702.15
   115- 4735	.TYDAT -- SUBROUTINE TO TYPE A DATE 7702.16
   116- 4798	.TYTIM -- TIME OUTPUT SUBROUTINE 7702.16
HALTC -- HALT FUNCTION MODULE 7	MACRO V05.04  Tuesday 17-May-88 14:36
Table of contents

   118- 4884	.HALTC -- THE "HALT" COMMAND 7710.11
   120- 4949	.INITC -- THE "INITIALIZE" COMMAND 7602.16
   121- 4975	.INIT  -- INITIALIZATION SUBROUTINE 7509.26
   122- 5017	.INKLF -- SUBROUTINE TO SET UP KL STATE WORD 7601.09
   125- 5130	.INICP -- INITIALIZE THE COMMAND PARSER 7601.21
   130- 5267	.KLE -- ROUTINE TO RETURN DEFAULT KLERR COMMANDS
   131- 5369	.SNAP -- ROUTINE TO MANUALLY PERFORM A SNAPSHOT
   134- 5440	.MARKC -- THE "MARK/UNMARK-MICROCODE" COMMAND 7910.19
   137- 5540	.RESTC -- THE "RESET" COMMAND DISPATCH 7710.11
   138- 5580	.RSALL -- THE "RESET ALL" COMMAND 7602.18
   139- 5606	.RSTPI -- THE "RESET PI" COMMAND 7607.21
   140- 5643	.RSPAG -- THE "RESET PAG" COMMAND 7607.21
   143- 5730	.RUNCM -- THE "RUN" AND "MCR" COMMANDS 7607.14
   146- 5811	.TAKEC -- THE "TAKE" COMMAND
   147- 5874	.GTR50 -- GET A .RAD50 WORD 7602.18
   149- 5929	.QUITC -- THE "QUIT" COMMAND 7602.16
   152- 5989	.RSTRC -- THE "RESTORE" COMMAND DISPATCH 8306.09
   153- 6018	.RSACB-- THE "RESTORE AC-BLOCK" COMMAND 8306.09
   154- 6082	.SAVEC -- THE "SAVE" COMMAND DISPATCH 8306.09
   155- 6111	.SVACB-- THE "SAVE AC-BLOCK" COMMAND 8306.09
   156- 6140	.SVPC -- THE "SAVE PC" COMMAND 8306.09
   157- 6172	.SAVFL -- SUBROUTINE TO READ THE KL PC FLAGS
   159- 6239	.SAVPC -- PC READ SUBROUTINE 8306.17
   161- 6347	.SCACB -- SET AC-BLOCK COMMAND
   162- 6386	.SACBK -- SET AC BLOCK ROUTINE
   163- 6457	.WHACB -- WHAT AC BLOCK COMMAND
   164- 6487	.SWPC -- SWEEP AC BLOCK COMMAND
   165- 6577	.SWPAC -- SWEEP ALL AC BLOCKS FOR FM PARITY ERROR
   166- 6666	.RSSWP -- RESET PARITY STOPS FOR FM SWEEP
   169- 6749	.SCOUT -- SET/CLEAR OUTPUT COMMAND
   170- 6800	.SCOTL -- SET/CLEAR OUTPUT LOG COMMAND
   171- 6913	.SCOTP -- SET/CLEAR OUTPUT LPT COMMAND
   172- 6954	.SCOTY -- SET/CLEAR OUTPUT TTY COMMAND
   173- 6984	.SCOTC -- SET/CLEAR OUTPUT CHECK ROUTINE
   174- 7014	.WHOUT -- WHAT OUTPUT COMMAND
   178- 7126	.SETCM -- THE "SET" AND "CLEAR" COMMAND DISPATCHES 7602.19
   179- 7173	.WHATC -- THE "WHAT" COMMAND DISPATCH 7607.14
   180- 7202	.SCNOT -- THE "SET / CLEAR NOT" COMMAND 7602.19
   182- 7244	.SHUTC -- THE "SHUTDOWN" COMMAND 7707.12
   184- 7320	.STRTC -- THE "START" COMMAND 7602.26
   185- 7349	.STRTT -- THE "START <TEN>" COMMAND 7710.11
   187- 7412	.STRTU -- THE "START MICROCODE" COMMAND 7602.26
   189- 7495	.SCCON -- THE " SET / CLEAR CONSOLE" COMMAND 7702.16
   190- 7540	.WHCON -- THE "WHAT CONSOLE" COMMAND 7607.14
   191- 7564	.SCINC -- THE "SET / CLEAR INCREMENT" COMMAND 7606.20
   192- 7589	.WHINC -- THE "WHAT INCREMENT" COMMAND 7703.25
   193- 7622	.SCMEM -- THE "SET / CLEAR MEMORY" COMMAND 7607.08
   194- 7649	.WHMEM -- THE "WHAT MEMORY" COMMAND 7603.21
   195- 7669	.SCOFS -- THE "SET / CLEAR OFFSET" COMMAND 7602.19
   196- 7682	.WHOFS -- THE "WHAT OFFSET" COMMAND 7603.20
   197- 7698	.SCRLD -- THE "SET / CLEAR RELOAD" COMMAND 7602.19
   198- 7706	.SCRTY -- THE "SET / CLEAR RETRY" COMMAND 7-DEC-78
   199- 7718	.WHRLD -- THE "WHAT RELOAD" COMMAND 7603.21
   200- 7731	.WHRTY -- THE "WHAT RETRY" COMMAND 7-DEC-78
   201- 7755	.SCRPT -- THE "SET / CLEAR REPEAT" COMMAND 7703.25
   202- 7777	.SCTRK -- THE "SET / CLEAR TRACK" COMMAND 7602.19
   203- 7790	.WHTRK -- THE "WHAT TRACKS" COMMAND 7603.20
SWCMD -- SET / CLEAR / WHAT COM	MACRO V05.04  Tuesday 17-May-88 14:36
Table of contents

   204- 7805	.WHATV -- THE "WHAT VERSION" COMMAND 7607.21
   205- 7832	.WHRDW -- DISPLAY KL10 HARDWARE ENVIRONMENT 7910.18
   206- 7930	.SFREC -- SET/CLEAR FAULT COMMAND
   207- 7940	WHAT FAULT CONTINUATION COMMAND
   208- 7997	.SCCLK -- THE "SET / CLEAR CLOCK" COMMAND DISPATCH 7608.19
   211- 8119	.SCCRF -- SET / CLEAR "CLOCK <OBJECT>" 7603.09
   213- 8208	.SCPAR -- SET / CLEAR PARITY-STOP "<OBJECT>" 7603.08
   214- 8250	.WHTCL -- THE "WHAT CLOCK" COMMAND 7608.17
   217- 8340	.WHTPS -- THE "WHAT PARITY-STOP" COMMAND 7608.19
   220- 8414	.YESNO -- SUBROUTINE TO ASK "YES OR NO" 7603.22
   223- 8515	.SCDAT -- "SET DATE" COMMAND 7703.04
   225- 8651	.WHDAT -- THE "WHAT" DATE COMMAND 7703.03
   229- 8787	.SCKLN -- THE "SET / CLEAR KLINIK" COMMAND 7709.20
   232- 9074	.WHKLN -- THE "WHAT KLINIK" COMMAND 7702.16
   236- 9228	.ZEROC -- THE "ZERO" COMMAND 7609.15
ABRTC -- ABORT COMMAND MODULE 7	MACRO V05.04  Tuesday 17-May-88 14:36  Page 33
COPYRIGHT PAGE

   1411					.TITLE	ABRTC -- ABORT COMMAND MODULE 7602.23
   1412
   1413						.IDENT	"005000"
   1414					;
   1415					;                             COPYRIGHT (C) 1975, 1984 BY
   1416					;                     DIGITAL EQUIPMENT CORPORATION, MAYNARD MASS.
   1417					;
   1418					;       THIS SOFTWARE IS FURNISHED UNDER A LICENSE AND MAY BE  USED  AND  COPIED
   1419					;       ONLY IN ACCORDANCE WITH THE TERMS OF SUCH LICENSE AND WITH THE INCLUSION
   1420					;       OF THE ABOVE COPYRIGHT NOTICE.  THIS SOFTWARE OR ANY OTHER COPIES THERE-
   1421					;       OF  MAY NOT BE PROVIDED OR OTHERWISE MADE AVAILABLE TO ANY OTHER PERSON.
   1422					;       NO TITLE TO OR OWNERSHIP OF THE SOFTWARE IS HEREBY TRANSFERRED.
   1423					;
   1424					;       THE INFORMATION CONTAINED IN THIS SOFTWARE IS SUBJECT TO CHANGE  WITHOUT
   1425					;       NOTICE  AND SHOULD NOT BE CONSTRUED AS A COMMITMENT BY DIGITAL EQUIPMENT
   1426					;       CORPORATION.
   1427					;
   1428					;       DIGITAL ASSUMES NO RESPONSIBILITY FOR THE  USE  OR  RELIABILITY  OF  ITS
   1429					;       SOFTWARE ON EQUIPMENT WHICH IS NOT SUPPILED BY DIGITAL.
   1430					;
   1431					;		MODULE: ABORT COMMAND
   1432					;
   1433					;		VERSION: 05-00
   1434					;
   1435					;		AUTHOR: R. BELANGER
   1436					;
   1437					;		DATE: 7602.23
   1438					;
   1439					;	THIS MODULE CONTAINS:
   1440					;
   1441					;	1) ABORT COMMAND CODE
ABRTC -- ABORT COMMAND MODULE 7	MACRO V05.04  Tuesday 17-May-88 14:36  Page 34
.ABRTC -- THE "ABORT" COMMAND 7602.23

   1443					.SBTTL	.ABRTC -- THE "ABORT" COMMAND 7602.23
   1444
   1445					;+
   1446					; .ABRTC -- THE "ABORT" COMMAND
   1447					;
   1448					; THIS ROUTINE CALLS THE ABORT SUBROUTINE ".ABORT", Q.V.
   1449					;
   1450					; INPUT ARGUMENTS:
   1451					;
   1452					;	NONE.
   1453					;
   1454					; OUTPUT ARGUMENTS:
   1455					;
   1456					;	NONE.
   1457					;
   1458					; ERROR CODES RETURNED:
   1459					;
   1460					;	NONE.
   1461					;-
   1462
   1463	000000				.ABRTC::
   1464	000000					CALL	.CKEOC		; MUST HAVE E-O-C
	000000	004737 	000000G			 JSR	PC,.CKEOC
   1465					;	CALLR	.ABORT		; ABORT CURRENT KL OPERATION AND EXIT
ABRTC -- ABORT COMMAND MODULE 7	MACRO V05.04  Tuesday 17-May-88 14:36  Page 35
.ABORT -- ABORT CURRENT OPERATION SUBROUTINE 7707.12

   1467					.SBTTL	.ABORT -- ABORT CURRENT OPERATION SUBROUTINE 7707.12
   1468
   1469					;+
   1470					; .ABORT -- SUBROUTINE TO ABORT THE CURRENT KL PROCESS
   1471					;
   1472					; THIS SUBROUTINE ABORTS THE CURRENT KL PROCESS AND RETURNS WITH
   1473					; THE KL CLOCK RUNNING IN THE HALT LOOP. IF THE "HALT" FAILS, THE
   1474					; KL MICROCODE IS RESTARTED. THE CONTINUEABILITY OF THE KL IS
   1475					; INDICATED BY THE STATE OF THE "KF.CON" FLAG BIT (Q.V.) IN ".KLFLG".
   1476					;
   1477					; SEQUENCE OF OPERATION:
   1478					;
   1479					;	(A) THE KL IS HALTED,
   1480					;	(B) IF THE HALT WINS GO TO (E), OTHERWISE GO TO (C),
   1481					;	(C) THE MICRO CODE IS RESTARTED AT CRAM ADDRESS 0000,
   1482					;	(D) SECONDARY PROTOCOL IS STARTED
   1483					;	(E) EXIT.
   1484					;
   1485					; INPUT ARGUMENTS:
   1486					;
   1487					;	NONE.
   1488					;
   1489					; OUTPUT ARGUMENTS:
   1490					;
   1491					;	NONE.
   1492					;
   1493					; ERROR CODES RETURNED:
   1494					;
   1495					;	CFH -- CAN'T FIND KL HALT LOOP.
   1496					;	FRF -- FUNCTION READ FAILED.
   1497					;	FWF -- FUNCTION WRITE FAILED.
   1498					;	FXF -- FUNCTION EXECUTE FAILED.
   1499					;	UNL -- UCODE NOT LOADED.
   1500					;
   1501					; NOTE:
   1502					;
   1503					;	THE CONTINUEABILITY OF THE KL IS NOT GUARANTEED BY THIS
   1504					;	SUBROUTINE.
   1505					;-
ABRTC -- ABORT COMMAND MODULE 7	MACRO V05.04  Tuesday 17-May-88 14:36  Page 36
.ABORT -- ABORT CURRENT OPERATION SUBROUTINE 7707.12

   1507						.ENABL	LSB
   1508
   1509	000004				.ABORT::
   1510	000004					PUSH	R0		; SAVE R0 ON THE STACK
	000004	010046 				 MOV	R0,-(SP)
   1511	000006					PUSH	#.ABRT0		; .IN CASE ".KLSTP" TRAPS
	000006	012746 	000032'			 MOV	#.ABRT0,-(SP)
   1512	000012	010637 	000000G			MOV	SP,.TRPTV	; ..STACK POINTER FOR RETURN
   1513	000016					CALL	.KLSTP		; ..HALT THE KL
	000016	004737 	000000G			 JSR	PC,.KLSTP
   1514	000022	005726 				TST	(SP)+		; ..CLEAR RETURN
   1515	000024	005037 	000000G			CLR	.TRPTV		; .AND TRAP VECTOR
   1516	000030	000410 				BR	10$		; .AND EXIT
   1517						;
   1518	000032				.ABRT0::			; .GET HERE IF ".KLSTP" TRAPPED
   1519	000032	005000 				CLR	R0		; .CLEAR R0 (STACK POPPED BY ".PTTRP")
   1520	000034					CALL	.STUCD		; .(RE)START THE UCODE
	000034	004737 	000000G			 JSR	PC,.STUCD
   1521	000040	052737 	000000G	000002G		BIS	#EF.CRI,.COMEF+2 ; .DECLARE THE COMM REGION INVALID
   1522	000046					CALL	..DTP2		; .START SECONDARY PROTOCOL
	000046	004737 	000000G			 JSR	PC,..DTP2
   1523	000052				10$:
   1524	000052					POP	R0		; .RESTORE R0
	000052	012600 				 MOV	(SP)+,R0
   1525	000054					CALL	KLPSTP		; [**]
	000054	004737 	000000G			 JSR	PC,KLPSTP
   1526	000060					RETURN			; TO CALLER
	000060	000207 				 RTS	PC
   1527
   1528						.DSABL	LSB
ABRTC -- ABORT COMMAND MODULE 7	MACRO V05.04  Tuesday 17-May-88 14:36  Page 37
.ABORT -- ABORT CURRENT OPERATION SUBROUTINE 7707.12

   1530
   1531					.TITLE	CONTC -- CONTINUE COMMAND MODULE 7611.17
   1532
   1533						.IDENT	"005000"
   1534
   1535					;
   1536					;                             COPYRIGHT (C) 1975, 1984, 1985 BY
   1537					;                     DIGITAL EQUIPMENT CORPORATION, MAYNARD MASS.
   1538					;			AL RIGHTS RESERVED.
   1539					;       THIS SOFTWARE IS FURNISHED UNDER A LICENSE AND MAY BE  USED  AND  COPIED
   1540					;       ONLY IN ACCORDANCE WITH THE TERMS OF SUCH LICENSE AND WITH THE INCLUSION
   1541					;       OF THE ABOVE COPYRIGHT NOTICE.  THIS SOFTWARE OR ANY OTHER COPIES THERE-
   1542					;       OF  MAY NOT BE PROVIDED OR OTHERWISE MADE AVAILABLE TO ANY OTHER PERSON.
   1543					;       NO TITLE TO OR OWNERSHIP OF THE SOFTWARE IS HEREBY TRANSFERRED.
   1544					;
   1545					;       THE INFORMATION CONTAINED IN THIS SOFTWARE IS SUBJECT TO CHANGE  WITHOUT
   1546					;       NOTICE  AND SHOULD NOT BE CONSTRUED AS A COMMITMENT BY DIGITAL EQUIPMENT
   1547					;       CORPORATION.
   1548					;
   1549					;       DIGITAL ASSUMES NO RESPONSIBILITY FOR THE  USE  OR  RELIABILITY  OF  ITS
   1550					;       SOFTWARE ON EQUIPMENT WHICH IS NOT SUPPILED BY DIGITAL.
   1551					;
   1552					;		VERSION: 05-00
   1553					;
   1554					;		AUTHOR: R. BELANGER
   1555					;
   1556					;		DATE: 7611.17
   1557					;
   1558					;	THIS MODULE CONTAINS:
   1559					;
   1560					;	1) CONTINUE COMMAND CODE
CONTC -- CONTINUE COMMAND MODUL	MACRO V05.04  Tuesday 17-May-88 14:36  Page 38
.CONTC -- THE "CONTINUE" COMMAND 7611.17

   1562					.SBTTL	.CONTC -- THE "CONTINUE" COMMAND 7611.17
   1563
   1564					;+
   1565					; .CONTC -- THE "CONTINUE" COMMAND
   1566					;
   1567					; THIS ROUTINE EXECUTES THE "CONTINUE" CONSOLE FUNCTION
   1568					;
   1569					; INPUT ARGUMENTS:
   1570					;
   1571					;	NONE.
   1572					;
   1573					; OUTPUT ARGUMENTS:
   1574					;
   1575					;	NONE.
   1576					;
   1577					; ERROR CORES RETURNED:
   1578					;
   1579					;	KNC -- KL IS NOT CONTINUABLE
   1580					;-
   1581
   1582	000062				.CONTC::
   1583	000062					CALL	.CKEOC		; CHECK E-O-C
	000062	004737 	000000G			 JSR	PC,.CKEOC
   1584	000066					PUSH	.KLFLG		; SAVE ".KLFLG" ON THE STACK
	000066	013746 	000000G			 MOV	.KLFLG,-(SP)
   1585	000072	032716 	000200 			BIT	#KF.CON,(SP)	; .CAN WE CONTINUE THE KL?
   1586	000076	001427 				BEQ	CONKNC		; .NO -- GIVE "KNC" ERROR
   1587	000100	032716 	010000 			BIT	#KF.SIM,(SP)	; .YES -- ARE WE IN SINGLE INSTRUCTION MODE?
   1588	000104	001412 				BEQ	20$		; .NO -- JUST CONTINUE THE KL
   1589	000106	032716 	100000 			BIT	#KF.CLK,(SP)	; .YES -- IS THE CLOCK RUNNING?
   1590	000112	001002 				BNE	10$		; .YES -- DON'T START IT AGAIN
   1591	000114					CALL	.STCLK		; .NO -- START IT
	000114	004737 	000000G			 JSR	PC,.STCLK
   1592	000120				10$:
   1593	000120	012700 	000024 			MOV	#FX.CON,R0	; .SET THE "CONTINUE" BUTTON
   1594	000124					CALL	.FXCT		; .VIA FUNCTION EXECUTE
	000124	004737 	000000G			 JSR	PC,.FXCT
   1595	000130	000407 				BR	30$		; .AND EXIT
   1596						;
   1597	000132				20$:
   1598	000132					CALL	.KLCON		; .DO THE CONTINUE
	000132	004737 	000000G			 JSR	PC,.KLCON
   1599	000136	032716 	040000 			BIT	#KF.RUN,(SP)	; .WAS THE KL RUNNING BEFORE?
   1600	000142	001002 				BNE	30$		; .YES -- JUST EXIT
   1601	000144	005037 	000000G			CLR	.NOERR		; RE-ENABLE ERROR DETECTION
   1602	000150				30$:
   1603	000150	005726 				TST	(SP)+		; .CLEAR THE STACK
   1604	000152					CALLR	.EXITP
	000152	000137 	000000G			 JMP	.EXITP
   1605						;
   1606
   1607	000156				CONKNC:
   1608	000156					ERROR$	KNC		; ERROR -- KL NOT CONTINUEABLE
	000156	012746 	043363 			 MOV	#^RKNC,-(SP)
	000162	104400 				 TRAP	TC.ERR
   1609						;
CONTC -- CONTINUE COMMAND MODUL	MACRO V05.04  Tuesday 17-May-88 14:36  Page 39
.CONTC -- THE "CONTINUE" COMMAND 7611.17

   1611
   1612
   1613					.TITLE	DECMD -- DEPOSIT / EXAMINE COMMAND DISPATCH MODULE 7603.30
   1614
   1615						.IDENT	"005000"
   1616
   1617					;
   1618					;                             COPYRIGHT (C) 1975, 1984, 1985 BY
   1619					;                     DIGITAL EQUIPMENT CORPORATION, MAYNARD MASS.
   1620					;			ALL RIGHTS RESERVED.
   1621					;       THIS SOFTWARE IS FURNISHED UNDER A LICENSE AND MAY BE  USED  AND  COPIED
   1622					;       ONLY IN ACCORDANCE WITH THE TERMS OF SUCH LICENSE AND WITH THE INCLUSION
   1623					;       OF THE ABOVE COPYRIGHT NOTICE.  THIS SOFTWARE OR ANY OTHER COPIES THERE-
   1624					;       OF  MAY NOT BE PROVIDED OR OTHERWISE MADE AVAILABLE TO ANY OTHER PERSON.
   1625					;       NO TITLE TO OR OWNERSHIP OF THE SOFTWARE IS HEREBY TRANSFERRED.
   1626					;
   1627					;       THE INFORMATION CONTAINED IN THIS SOFTWARE IS SUBJECT TO CHANGE  WITHOUT
   1628					;       NOTICE  AND SHOULD NOT BE CONSTRUED AS A COMMITMENT BY DIGITAL EQUIPMENT
   1629					;       CORPORATION.
   1630					;
   1631					;       DIGITAL ASSUMES NO RESPONSIBILITY FOR THE  USE  OR  RELIABILITY  OF  ITS
   1632					;       SOFTWARE ON EQUIPMENT WHICH IS NOT SUPPILED BY DIGITAL.
   1633					;
   1634					;		MODULE: DEPOSIT / EXAMINE COMMAND DISPATCH
   1635					;
   1636					;		VERSION: 05-00
   1637					;
   1638					;		AUTHOR: R. BELANGER
   1639					;
   1640					;		DATE: 7603.30
   1641					;
   1642					;	THIS MODULE CONTAINS:
   1643					;
   1644					;	1) DEPOSIT COMMAND DISPATCH CODE
   1645					;	2) DEPOSIT COMMAND DISPATCH TABLES
   1646					;	3) EXAMINE COMMAND DISPATCH CODE
   1647					;	4) EXAMINE COMMAND DISPATCH TABLES
DECMD -- DEPOSIT / EXAMINE COMM	MACRO V05.04  Tuesday 17-May-88 14:36  Page 40
.DPOSC -- THE "DEPOSIT" COMMAND DISPATCH 7602.23

   1649					.SBTTL	.DPOSC -- THE "DEPOSIT" COMMAND DISPATCH 7602.23
   1650
   1651					;+
   1652					; .DPOSC -- THE "DEPOSIT" COMMAND.
   1653					;
   1654					; THIS IS THE TOP LEVEL DEPOSIT ROUTINE WHICH DISPATCHES TO THE
   1655					; PROPER ROUTINE FOR THE OBJECT TO BE DEPOSITED.
   1656					;
   1657					; INPUT ARGUMENTS:
   1658					;
   1659					;	NONE.
   1660					;
   1661					; OUTPUT ARGUMENTS:
   1662					;
   1663					;	NONE.
   1664					;
   1665					; ERROR CODES RETURNED:
   1666					;
   1667					;	NSK -- NO SUCH KEYWORD
   1668					;-
   1669
   1670	000164				.DPOSC::
   1671	000164	013703 	000000G			MOV	.MEMFL,R3	; OFFSET FLAG TO R3
   1672	000170					CALL	.CKARG		; LOOK FOR THE ARGUMENT
	000170	004737 	000000G			 JSR	PC,.CKARG
   1673	000174	001435 				BEQ	.DPOBJ		; DISPATCH FOR OBJECT
   1674	000176				.DPOSA::			; HERE TO DISPATCH FOR MEMORY
   1675	000176					CALLR	@DPOATB(R3)	; DISPATCH
	000176	000173 	000000'			 JMP	@DPOATB(R3)
   1676						;
   1677
   1678	000000					.PSECT	DATA
   1679
   1680	000000				DPOATB:
   1681	000000	002244'				.WORD	.DPOST		; DEPOSIT TEN
   1682	000002	001372'				.WORD	.DPOSE		; DEPOSIT ELEVEN WORD
   1683
   1684	000202					.PSECT
   1685
DECMD -- DEPOSIT / EXAMINE COMM	MACRO V05.04  Tuesday 17-May-88 14:36  Page 41
.DPOSD -- THE "DEPOSIT <NUMERICAL OBJECT>" COMMAND DISPATCH 76

   1687					.SBTTL	.DPOSD -- THE "DEPOSIT <NUMERICAL OBJECT>" COMMAND DISPATCH 7602.29
   1688
   1689	000202				.DPOSD::			; DEPOSIT DECREMENT
   1690	000202					CALLR	@DPODTB(R3)	; DISPATCH ON MEMORY TYPE FLAG
	000202	000173 	000004'			 JMP	@DPODTB(R3)
   1691						;
   1692
   1693	000004					.PSECT	DATA
   1694
   1695	000004				DPODTB:
   1696	000004	002572'				.WORD	.DPKLD		; KL WORD
   1697	000006	001562'				.WORD	.DPEWD		; PDP-11 WORD
   1698
   1699	000206					.PSECT
   1700
   1701	000206				.DPOSI::			; DEPOSIT INCREMENT
   1702	000206					CALLR	@DPOITB(R3)	; DISPATCH ON MEMORY TYPE FLAG
	000206	000173 	000010'			 JMP	@DPOITB(R3)
   1703						;
   1704
   1705	000010					.PSECT	DATA
   1706
   1707	000010				DPOITB:
   1708	000010	002600'				.WORD	.DPKLI		; KL WORD
   1709	000012	001570'				.WORD	.DPEWI		; PDP-11 WORD
   1710
   1711	000212					.PSECT
   1712
   1713	000212				.DPOSN::			; DEPOSIT NEXT
   1714	000212					CALLR	@DPONTB(R3)	; DISPATCH ON MEMORY TYPE FLAG
	000212	000173 	000014'			 JMP	@DPONTB(R3)
   1715						;
   1716
   1717	000014					.PSECT	DATA
   1718
   1719	000014				DPONTB:
   1720	000014	002606'				.WORD	.DPKLN		; KL WORD
   1721	000016	001576'				.WORD	.DPEWN		; PDP-11 WORD
   1722
   1723	000216					.PSECT
   1724
   1725	000216				.DPOSP::			; DEPOSIT PREVIOUS
   1726	000216					CALLR	@DPOPTB(R3)	; DISPATCH ON MEMORY TYPE FLAG
	000216	000173 	000020'			 JMP	@DPOPTB(R3)
   1727						;
   1728
   1729	000020					.PSECT	DATA
   1730
   1731	000020				DPOPTB:
   1732	000020	002614'				.WORD	.DPKLP		; KL WORD
   1733	000022	001604'				.WORD	.DPEWP		; PDP-11 WORD
   1734
   1735	000222					.PSECT
   1736
   1737	000222				.DPOSZ::			; DEPOSIT THIS
   1738	000222					CALLR	@DPOZTB(R3)	; DISPATCH ON MEMORY TYPE FLAG
	000222	000173 	000024'			 JMP	@DPOZTB(R3)
DECMD -- DEPOSIT / EXAMINE COMM	MACRO V05.04  Tuesday 17-May-88 14:36  Page 41-1
.DPOSD -- THE "DEPOSIT <NUMERICAL OBJECT>" COMMAND DISPATCH 76

   1739						;
   1740
   1741	000024					.PSECT	DATA
   1742
   1743	000024				DPOZTB:
   1744	000024	002564'				.WORD	.DPKLT		; KL WORD
   1745	000026	001554'				.WORD	.DPEWT		; PDP-11 WORD
   1746
   1747	000226					.PSECT
   1748
DECMD -- DEPOSIT / EXAMINE COMM	MACRO V05.04  Tuesday 17-May-88 14:36  Page 42
.EXAMC -- THE "EXAMINE" COMMAND DISPATCH 7602.16

   1750					.SBTTL	.EXAMC -- THE "EXAMINE" COMMAND DISPATCH 7602.16
   1751
   1752					;+
   1753					; .EXAMC -- THE "EXAMINE" COMMAND DISPATCH.
   1754					;
   1755					; THIS IS THE TOP LEVEL EXAMINE ROUTINE WHICH DETERMINES WHICH
   1756					; OBJECT IS TO BE EXAMINED.
   1757					;
   1758					; INPUT ARGUMENTS:
   1759					;
   1760					;	NONE.
   1761					;
   1762					; OUTPUT ARGUMENTS:
   1763					;
   1764					;	NONE, THIS ROUTINE DISPATCHES TO THE PROPER ROUTINE
   1765					;	FOR THE OBJECT SPECIFIED.
   1766					;
   1767					; ERROR CODES RETURNED:
   1768					;
   1769					;	NONE.
   1770					;-
   1771
   1772	000226				.EXAMC::
   1773	000226	013703 	000000G			MOV	.MEMFL,R3	; MEMORY FLAG TO R3
   1774	000232					CALL	.CKARG		; CHECK THE ARGUMENT
	000232	004737 	000000G			 JSR	PC,.CKARG
   1775	000236	001434 				BEQ	.EXOBJ		; EXAMINE THE OBJECT
   1776						;
   1777	000240				.EXAMA::			; HERE TO DISPATCH FOR MEMORY
   1778	000240					CALLR	@EXMDTB(R3)	; DISPATCH
	000240	000173 	000030'			 JMP	@EXMDTB(R3)
   1779						;
   1780
   1781	000030					.PSECT	DATA
   1782
   1783	000030				EXMDTB:
   1784	000030	002652'				.WORD	.EXAMT		; EXAMINE TEN
   1785	000032	001642'				.WORD	.EXAME		; EXAMINE ELEVEN WORD
   1786
   1787	000244					.PSECT
   1788
DECMD -- DEPOSIT / EXAMINE COMM	MACRO V05.04  Tuesday 17-May-88 14:36  Page 43
.EXAMD -- THE "EXAMINE <NUMERICAL OBJECT>" COMMAND DISPATCH 76

   1790					.SBTTL	.EXAMD -- THE "EXAMINE <NUMERICAL OBJECT>" COMMAND DISPATCH 7602.29
   1791
   1792	000244				.EXAMD::			; EXAMINE DECREMENT
   1793	000244					CALLR	@EXADTB(R3)	; DISPATCH ON MEMORY TYPE FLAG
	000244	000173 	000034'			 JMP	@EXADTB(R3)
   1794						;
   1795
   1796	000034					.PSECT	DATA
   1797
   1798	000034				EXADTB:
   1799	000034	003244'				.WORD	.EXKLD		; KL WORD
   1800	000036	002124'				.WORD	.EXEWD		; PDP-11 WORD
   1801
   1802	000250					.PSECT
   1803
   1804	000250				.EXAMI::			; EXAMINE INCREMENT
   1805	000250					CALLR	@EXAITB(R3)	; DISPATCH ON MEMORY TYPE FLAG
	000250	000173 	000040'			 JMP	@EXAITB(R3)
   1806						;
   1807
   1808	000040					.PSECT	DATA
   1809
   1810	000040				EXAITB:
   1811	000040	003252'				.WORD	.EXKLI		; KL WORD
   1812	000042	002132'				.WORD	.EXEWI		; PDP-11 WORD
   1813
   1814	000254					.PSECT
   1815
   1816	000254				.EXAMN::			; EXAMINE NEXT
   1817	000254					CALLR	@EXANTB(R3)	; DISPATCH ON MEMORY TYPE FLAG
	000254	000173 	000044'			 JMP	@EXANTB(R3)
   1818						;
   1819
   1820	000044					.PSECT	DATA
   1821
   1822	000044				EXANTB:
   1823	000044	003260'				.WORD	.EXKLN		; KL WORD
   1824	000046	002140'				.WORD	.EXEWN		; PDP-11 WORD
   1825
   1826	000260					.PSECT
   1827
   1828	000260				.EXAMP::			; EXAMINE PREVIOUS
   1829	000260					CALLR	@EXAPTB(R3)	; DISPATCH ON MEMORY TYPE FLAG
	000260	000173 	000050'			 JMP	@EXAPTB(R3)
   1830						;
   1831
   1832	000050					.PSECT	DATA
   1833
   1834	000050				EXAPTB:
   1835	000050	003266'				.WORD	.EXKLP		; KL WORD
   1836	000052	002146'				.WORD	.EXEWP		; PDP-11 WORD
   1837
   1838	000264					.PSECT
   1839
   1840	000264				.EXAMZ::			; EXAMINE THIS
   1841	000264					CALLR	@EXAZTB(R3)	; DISPATCH ON MEMORY TYPE FLAG
	000264	000173 	000054'			 JMP	@EXAZTB(R3)
DECMD -- DEPOSIT / EXAMINE COMM	MACRO V05.04  Tuesday 17-May-88 14:36  Page 43-1
.EXAMD -- THE "EXAMINE <NUMERICAL OBJECT>" COMMAND DISPATCH 76

   1842						;
   1843
   1844	000054					.PSECT	DATA
   1845
   1846	000054				EXAZTB:
   1847	000054	003236'				.WORD	.EXKLT		; KL WORD
   1848	000056	002116'				.WORD	.EXEWT		; PDP-11 WORD
   1849
   1850	000270					.PSECT
   1851
DECMD -- DEPOSIT / EXAMINE COMM	MACRO V05.04  Tuesday 17-May-88 14:36  Page 44
.DPOBJ -- THE "DEPOSIT <OBJECT>" COMMAND DISPATCH 7602.29

   1853					.SBTTL	.DPOBJ -- THE "DEPOSIT <OBJECT>" COMMAND DISPATCH 7602.29
   1854
   1855					;+
   1856					; .DPOBJ -- DEPOSIT "OBJECT" COMMAND DISPATCH
   1857					;
   1858					; THIS SUBROUTINE PERFORMS THE DISPATCH FOR THE SPECIFIED DEPOSIT OBJECT
   1859					;
   1860					; INPUT ARGUMENTS:
   1861					;
   1862					;	R3 CONTAINS THE OLD MEMORY TYPE OFFSET
   1863					;
   1864					; OUTPUT ARGUMENTS:
   1865					;
   1866					;	R3 CONTAINS THE CURRENT MEMORY TYPE OFFSET
   1867					;
   1868					; ERROR CODES RETURNED:
   1869					;
   1870					;	NONE.
   1871					;-
   1872
   1873
   1874	000270				.DPOBJ::
   1875	000270	012700 	000000G			MOV	#.DPOTB,R0	; TABLE POINTER TO R0
   1876	000274					CALL	.TSCAN		; SCAN THE TABLE FOR OBJECT
	000274	004737 	000000G			 JSR	PC,.TSCAN
   1877	000300	012001 				MOV	(R0)+,R1	; LEGAL BITS TO R1
   1878	000302	005101 				COM	R1		; INVERT THEM
   1879	000304	040137 	000000G			BIC	R1,.LGLWD	; SET UP NEW LEGAL WORD
   1880	000310					CALLR	@(R0)+		; DISPATCH FOR OBJECT
	000310	000130 				 JMP	@(R0)+
   1881						;
   1882	000312				.DPOKL::
   1883	000312	005003 				CLR	R3		; TEN MEMORY OFFSET TO R3
   1884	000314					CALLR	.DPOST		; GO DO IT
	000314	000137 	002244'			 JMP	.DPOST
   1885						;
   1886	000320				.DPOEL::
   1887	000320	012703 	000002 			MOV	#^D2,R3		; PDP-11 WORD OFFSET TO R3
   1888	000324					CALLR	.DPOSE		; GO DO IT
	000324	000137 	001372'			 JMP	.DPOSE
   1889						;
DECMD -- DEPOSIT / EXAMINE COMM	MACRO V05.04  Tuesday 17-May-88 14:36  Page 45
.EXOBJ -- THE "EXAMINE <OBJECT>" COMMAND DISPATCH 7602.16

   1891					.SBTTL	.EXOBJ -- THE "EXAMINE <OBJECT>" COMMAND DISPATCH 7602.16
   1892
   1893					;+
   1894					; .EXOBJ -- THE "EXAMINE <OBJECT>" COMMAND DISPATCH.
   1895					;
   1896					; THIS ROUTINE IS THE DISPATCH FOR ALL OF THE "EXAMINE <OBJECT>" COMMANDS.
   1897					;
   1898					; INPUT ARGUMENTS:
   1899					;
   1900					;	NONE.
   1901					;
   1902					; OUTPUT ARGUMENTS:
   1903					;
   1904					;	NONE.
   1905					;
   1906					; ERROR CODES RETURNED:
   1907					;
   1908					;	NSC -- NO SUCH COMMAND.
   1909					;-
   1910
   1911	000330				.EXOBJ::
   1912	000330	012700 	000000G			MOV	#.EXMTB,R0	; EXAMINE TABLE POINTER TO R0
   1913	000334					CALL	.TSCAN		; SCAN THE TABLE
	000334	004737 	000000G			 JSR	PC,.TSCAN
   1914	000340	011001 				MOV	(R0),R1		; LEGAL BITS TO R1
   1915	000342	005101 				COM	R1		; INVERT THEM
   1916	000344	040137 	000000G			BIC	R1,.LGLWD	; SET UP NEW LEGAL WORD
   1917	000350	014002 				MOV	-(R0),R2	; NAME POINTER TO R2
   1918	000352					CALLR	@4(R0)		; READ AND PRINT THE REGISTER
	000352	000170 	000004 			 JMP	@4(R0)
   1919						;
   1920	000356				.EXMEL::
   1921	000356	012703 	000002 			MOV	#^D2,R3		; PDP-11 OFFSET TO R3
   1922	000362					CALLR	.EXAME		; DO THE EXAMINE
	000362	000137 	001642'			 JMP	.EXAME
   1923						;
   1924	000366				.EXMKL::
   1925	000366	005003 				CLR	R3		; KL MEMORY OFFSET TO R3
   1926	000370					CALLR	.EXAMT		; DO THE EXAMINE
	000370	000137 	002652'			 JMP	.EXAMT
   1927						;
DECMD -- DEPOSIT / EXAMINE COMM	MACRO V05.04  Tuesday 17-May-88 14:36  Page 46
.EDEWD -- THE EXAMINE / DEPOSIT "<ELEVEN> <NUMERICAL OBJECT>"

   1929					.SBTTL	.EDEWD -- THE EXAMINE / DEPOSIT "<ELEVEN> <NUMERICAL OBJECT>" COMMAND 7602.29
   1930
   1931	000374				.EDEWD::
   1932	000374				.EDEWP::
   1933	000374	013700 	000000G			MOV	.EDELA,R0	; ADDRESS TO R0
   1934	000400	162700 	000002 			SUB	#^D2,R0		; PREVIOUS WORD ADDRESS
   1935	000404					RETURN			; TO CALLER
	000404	000207 				 RTS	PC
   1936	000406				.EDEWI::
   1937	000406				.EDEWN::
   1938	000406	013700 	000000G			MOV	.EDELA,R0	; ADDRESS TO R0
   1939	000412	062700 	000002 			ADD	#^D2,R0		; NEXT WORD ADDRESS
   1940	000416					RETURN			; TO CALLER
	000416	000207 				 RTS	PC
DECMD -- DEPOSIT / EXAMINE COMM	MACRO V05.04  Tuesday 17-May-88 14:36  Page 47
.EDKLD -- THE EXAMINE / DEPOSIT "<TEN> <NUMERICAL OBJECT>" COM

   1942					.SBTTL	.EDKLD -- THE EXAMINE / DEPOSIT "<TEN> <NUMERICAL OBJECT>" COMMAND 7609.10
   1943
   1944						.ENABL	LSB
   1945
   1946	000420				.EDKLP::
   1947	000420					CALL	.EDKLC		; DO COMMON CODE
	000420	004737 	000516'			 JSR	PC,.EDKLC
   1948	000424					CALL	.TPDEC		; DECREMENT ONCE
	000424	004737 	000000G			 JSR	PC,.TPDEC
   1949	000430	000422 				BR	10$		; EXIT THRU COMMON CODE
   1950						;
   1951	000432				.EDKLN::
   1952	000432					CALL	.EDKLC		; DO COMMON CODE
	000432	004737 	000516'			 JSR	PC,.EDKLC
   1953	000436					CALL	.TPINC		; INCREMENT ONCE
	000436	004737 	000000G			 JSR	PC,.TPINC
   1954	000442	000415 				BR	10$		; EXIT THRU COMMON CODE
   1955						;
   1956	000444				.EDKLD::
   1957	000444					CALL	.EDKLC		; DO COMMON CODE
	000444	004737 	000516'			 JSR	PC,.EDKLC
   1958	000450	012701 	000000G			MOV	#.KLINC,R1	; POINT TO THE INCREMENT
   1959	000454					CALL	.TPSUB		; DO THE SUBTRACTION
	000454	004737 	000000G			 JSR	PC,.TPSUB
   1960	000460	000406 				BR	10$		; EXIT THRU COMMON CODE
   1961						;
   1962	000462				.EDKLI::
   1963	000462					CALL	.EDKLC		; DO COMMON CODE
	000462	004737 	000516'			 JSR	PC,.EDKLC
   1964	000466	012701 	000000G			MOV	#.KLINC,R1	; POINT TO THE INCREMENT
   1965	000472					CALL	.TPADD		; DO THE ADDITION
	000472	004737 	000000G			 JSR	PC,.TPADD
   1966	000476				10$:
   1967	000476	032760 	177600 	000002 		BIT	#^C177,2(R0)	; CHECK THE RESULT
   1968	000504	001015 				BNE	EDNKLA		; ERROR IF TOO LARGE
   1969	000506	005760 	000004 			TST	4(R0)		; HOW ABOUT HIGH BITS?
   1970	000512	001012 				BNE	EDNKLA		; TOO LARGE
   1971	000514	000410 				BR	20$		; ALL OK -- RETURN
   1972						;
   1973	000516				.EDKLC::
   1974	000516	012700 	000000G			MOV	#.EDKLX,R0	; AUX ADDRESS POINTER TO R0
   1975	000522	012701 	000000G			MOV	#.EDKLA,R1	; EXAM / DEPOS ADDRESS TO R1
   1976	000526	012120 				MOV	(R1)+,(R0)+	; LOAD CURRENT ADDRESS
   1977	000530	012120 				MOV	(R1)+,(R0)+	; INTO AUXILLIARY ADDRESS BUFFER
   1978	000532	011110 				MOV	(R1),(R0)	; SO
   1979	000534	024040 				CMP	-(R0),-(R0)	; BACK THE POINTER UP
   1980	000536				20$:
   1981	000536					RETURN			; AND GO ON
	000536	000207 				 RTS	PC
   1982
   1983						.DSABL	LSB
   1984
   1985	000540				EDNKLA:
   1986	000540					ERROR$	KLA		; ERROR -- KL ADDRESS ERROR
	000540	012746 	043241 			 MOV	#^RKLA,-(SP)
	000544	104400 				 TRAP	TC.ERR
   1987						;
DECMD -- DEPOSIT / EXAMINE COMM	MACRO V05.04  Tuesday 17-May-88 14:36  Page 48
.EDKLD -- THE EXAMINE / DEPOSIT "<TEN> <NUMERICAL OBJECT>" COM

   1989
   1990					.TITLE	DFUNC -- KL10 DIAGNOSTIC FUNCTION MODULE 7603.30
   1991
   1992						.IDENT	"007030"
   1993					;
   1994					;                             COPYRIGHT (C) 1975, 1984, 1985 BY
   1995					;                     DIGITAL EQUIPMENT CORPORATION, MAYNARD MASS.
   1996					;			ALL RIGHTS RESERVED.
   1997					;       THIS SOFTWARE IS FURNISHED UNDER A LICENSE AND MAY BE  USED  AND  COPIED
   1998					;       ONLY IN ACCORDANCE WITH THE TERMS OF SUCH LICENSE AND WITH THE INCLUSION
   1999					;       OF THE ABOVE COPYRIGHT NOTICE.  THIS SOFTWARE OR ANY OTHER COPIES THERE-
   2000					;       OF  MAY NOT BE PROVIDED OR OTHERWISE MADE AVAILABLE TO ANY OTHER PERSON.
   2001					;       NO TITLE TO OR OWNERSHIP OF THE SOFTWARE IS HEREBY TRANSFERRED.
   2002					;
   2003					;       THE INFORMATION CONTAINED IN THIS SOFTWARE IS SUBJECT TO CHANGE  WITHOUT
   2004					;       NOTICE  AND SHOULD NOT BE CONSTRUED AS A COMMITMENT BY DIGITAL EQUIPMENT
   2005					;       CORPORATION.
   2006					;
   2007					;       DIGITAL ASSUMES NO RESPONSIBILITY FOR THE  USE  OR  RELIABILITY  OF  ITS
   2008					;       SOFTWARE ON EQUIPMENT WHICH IS NOT SUPPILED BY DIGITAL.
   2009					;
   2010					;		MODULE: KL10 DIAGNOSTIC FUNCTION
   2011					;
   2012					;		VERSION: 06-13
   2013					;
   2014					;		AUTHOR: R. BELANGER
   2015					;
   2016					;		DATE: 7603.30
   2017					;
   2018					;	THIS MODULE CONTAINS:
   2019					;
   2020					;	1) KL10 DIAGNOSTIC FUNCTION CODE
   2021					;
   2022					;	EDIT HISTORY
   2023					;
   2024					;23-Jun-83  TCO 6.1675	D. Weaver
   2025					;	Don't HALT/RESTART KL when doing function reads.
   2026					;
   2027
   2028
DFUNC -- KL10 DIAGNOSTIC FUNCTI	MACRO V05.04  Tuesday 17-May-88 14:36  Page 49
.DFCOM -- COMMON DIAGNOSTIC FUNCTION ROUTINE 7603.30

   2030					.SBTTL	.DFCOM -- COMMON DIAGNOSTIC FUNCTION ROUTINE 7603.30
   2031
   2032					;+
   2033					; .DFCOM -- COMMON DIAGNOSTIC FUNCTION ROUTINE
   2034					;
   2035					; THIS ROUTINE WILL INPUT A DIAGNOSTIC FUNCTION READ, WRITE, OR
   2036					; EXECUTE CODE AND RETURN IT IN R0, AFTER CHECKING THAT THE KL
   2037					; IS NOT RUNNING, AND SEEING THAT THE FUNCTION CODE IS IN RANGE.
   2038					;
   2039					; INPUT ARGUMENTS:
   2040					;
   2041					;	NONE.
   2042					;
   2043					; OUTPUT ARGUMENTS:
   2044					;
   2045					;	R0 HOLDS THE FUNCTION CODE.
   2046					;
   2047					; ERROR CODES RETURNED:
   2048					;
   2049					;	IFC -- ILLEGAL FUNCTION CODE
   2050					;	MRA -- MISSING REQUIRED ARGUMENT.
   2051					;-
   2052
   2053	000546				.DFCOM::
   2054	000546					CALL	.CKRUN		; SEE IF THE KL IS RUNNING
	000546	004737 	000000G			 JSR	PC,.CKRUN
   2055	000552	005046 				CLR	-(SP)		; CLEAR A BUFFER ON THE STACK
   2056	000554	005046 				CLR	-(SP)		; .
   2057	000556	005046 				CLR	-(SP)		; ..
   2058	000560	010600 				MOV	SP,R0		; ...POINT TO IT
   2059	000562					CALL	.GTKLN		; ...READ THE FUNCTION CODE
	000562	004737 	000000G			 JSR	PC,.GTKLN
   2060	000566	005760 	000004 			TST	4(R0)		; ...SEE IF WE HAVE A LEGAL CODE
   2061	000572	001031 				BNE	DFCIFC		; ...NO -- COMPLAIN
   2062	000574	005760 	000002 			TST	2(R0)		; ...
   2063	000600	001026 				BNE	DFCIFC		; ...
   2064	000602	105760 	000001 			TSTB	1(R0)		; ...
   2065	000606	001023 				BNE	DFCIFC		; ...
   2066	000610	132710 	177740 			BITB	#^C37,(R0)	; ...IS THIS AN EXECUTE?
   2067	000614	001414 				BEQ	10$		; ...NO -- CONTINUE
   2068	000616	005737 	000066'			TST	STPKL		; ...WANT TO STOP KL?
   2069	000622	001411 				BEQ	10$		; ...NO -- MOVE ON
   2070	000624	032737 	040000 	000000G		BIT	#KF.RUN,.KLFLG	; ...IS THE KL RUNNING?
   2071	000632	001405 				BEQ	10$		; ...NO -- JUST KEEP GOING
   2072	000634	013737 	000000G	000000G		MOV	.KLFLG,.SVKLF	; ...SAVE THE CURRENT FLAGS
   2073	000642					CALL	.KLHLT		; ...HALT THE KL
	000642	004737 	000000G			 JSR	PC,.KLHLT
   2074	000646				10$:
   2075	000646					POP	R0		; ...GET THE CODE INTO R0
	000646	012600 				 MOV	(SP)+,R0
   2076	000650	006300 				ASL	R0		; ..TIMES 2
   2077	000652	022626 				CMP	(SP)+,(SP)+	; ..CLEAR THE STACK
   2078	000654					RETURN			; TO CALLER
	000654	000207 				 RTS	PC
   2079	000656				DFCIFC:
   2080	000656					ERROR$	IFC		; ERROR -- ILLEGAL FUNCTION CODE
	000656	012746 	034463 			 MOV	#^RIFC,-(SP)
DFUNC -- KL10 DIAGNOSTIC FUNCTI	MACRO V05.04  Tuesday 17-May-88 14:36  Page 49-1
.DFCOM -- COMMON DIAGNOSTIC FUNCTION ROUTINE 7603.30

	000662	104400 				 TRAP	TC.ERR
   2081						;
DFUNC -- KL10 DIAGNOSTIC FUNCTI	MACRO V05.04  Tuesday 17-May-88 14:36  Page 50
.DFRED -- DIAGNOSTIC FUNCTION READ 7602.15

   2083					.SBTTL	.DFRED -- DIAGNOSTIC FUNCTION READ 7602.15
   2084
   2085					;+
   2086					; .DFRED -- DIAGNOSTIC FUNCTION READ
   2087					;
   2088					; THIS ROUTINE WILL EXECUTE A DIAGNOSTIC FUNCTION READ AND DISPLAY
   2089					; THE RESULT ON THE CONSOLE DEVICE.
   2090					;
   2091					; INPUT ARGUMENTS:
   2092					;
   2093					;	NONE.
   2094					;
   2095					; OUTPUT ARGUMENTS:
   2096					;
   2097					;	NONE.
   2098					;
   2099					; ERROR CODES RETURNED:
   2100					;
   2101					;	IFC -- ILLEGAL FUNCTION CODE.
   2102					;	FRF -- FUNCTION READ FAILED.
   2103					;-
   2104
   2105	000664				.DFRED::
   2106	000664	005037 	000066'			CLR	STPKL		; [6,1675]FLAG NOT TO STOP KL
   2107	000670					CALL	.DFCOM		; DO COMMON CODE
	000670	004737 	000546'			 JSR	PC,.DFCOM
   2108	000674	010037 	000060'			MOV	R0,STOPFR	; [5.1014]SAVE START FUNCTION CODE
   2109	000700					CALL	.CKEOS		; CHECK END OF SYMBOL
	000700	004737 	000000G			 JSR	PC,.CKEOS
   2110	000704				1$:	CALL	.XFRCK		; SEE THAT WE HAVE A LEGAL READ CODE
	000704	004737 	001260'			 JSR	PC,.XFRCK
   2111	000710	005046 				CLR	-(SP)		; CLEAR A BUFFER ON THE STACK
   2112	000712	005046 				CLR	-(SP)		; .
   2113	000714	005046 				CLR	-(SP)		; ..
   2114	000716	010601 				MOV	SP,R1		; ...POINT TO THE BUFFER
   2115	000720					PUSH	R0		; ...SAVE THE READ CODE
	000720	010046 				 MOV	R0,-(SP)
   2116	000722					CALL	.FREAD		; ....DO THE READ
	000722	004737 	000000G			 JSR	PC,.FREAD
   2117	000726	012700 	000000'			MOV	#DFRMSG,R0	; ....MESSAGE POINTER TO R0
   2118	000732					CALL	.TYMSG		; ....TYPE IT
	000732	004737 	000000G			 JSR	PC,.TYMSG
   2119	000736	011600 				MOV	(SP),R0		; ....READ CODE TO R0
   2120	000740	006200 				ASR	R0		; ....DIVIDED BY 2
   2121	000742					CALL	.TYP3D		; ....PRINT IT
	000742	004737 	000000G			 JSR	PC,.TYP3D
   2122	000746					CALL	.TYSLS		; ....AND A SLASH
	000746	004737 	000000G			 JSR	PC,.TYSLS
   2123	000752					CALL	.TYSPC		; ....AND A SPACE
	000752	004737 	000000G			 JSR	PC,.TYSPC
   2124	000756	010100 				MOV	R1,R0		; ....POINT TO THE DATA
   2125	000760					CALL	.TYKLN		; ....PRINT IT
	000760	004737 	000000G			 JSR	PC,.TYKLN
   2126	000764					CALL	.TCRLF		; ....END THE LINE
	000764	004737 	000000G			 JSR	PC,.TCRLF
   2127	000770					POP	R0		; ....READ CODE INTO R0
	000770	012600 				 MOV	(SP)+,R0
DFUNC -- KL10 DIAGNOSTIC FUNCTI	MACRO V05.04  Tuesday 17-May-88 14:36  Page 50-1
.DFRED -- DIAGNOSTIC FUNCTION READ 7602.15

   2128	000772	062706 	000006 			ADD	#^D6,SP		; ...CLEAR THE STACK
   2129	000776	005737 	000062'		5$:	TST	RNGFR		; [5.1014]IS THIS A RANGE IN PROGRESS?
   2130	001002	001406 				BEQ	7$		; [5.1014]NO -- GO ON
   2131	001004	020037 	000060'			CMP	R0,STOPFR	; [5.1014]YES -- ARE WE DONE?
   2132	001010	001403 				BEQ	7$		; [5.1014]YES -- GO NO
   2133	001012	063700 	000064'			ADD	INCFR,R0	; [5.1014]NO -- NEXT READ
   2134	001016	000732 				BR	1$		; [5.1014]DO NEXT READ
   2135	001020	005037 	000062'		7$:	CLR	RNGFR		; [5.1014]RANGE DONE
   2136	001024	122715 	000054 			CMPB	#',,(R5)	; [5.1014]IS THIS A LIST?
   2137	001030	001002 				BNE	10$		; [5.1014]NO -- GO ON
   2138	001032	105725 				TSTB	(R5)+		; [5.1014]YES -- REMOVE COMMA
   2139	001034	000713 				BR	.DFRED		; [5.1014]DO NEXT
   2140	001036	122715 	000072 		10$:	CMPB	#':,(R5)	; [5.1014]IS THIS A LIST?
   2141	001042	001031 				BNE	30$		; [5.1014]NO -- GO ON
   2142	001044	105725 				TSTB	(R5)+		; [5.1014]YES -- REMOVE COMMA
   2143	001046					PUSH	R1		; [6,1675]SAVE R1
	001046	010146 				 MOV	R1,-(SP)
   2144	001050	005037 	000066'			CLR	STPKL		; [6,1675]DON'T STOP KL
   2145	001054					CALL	.DFCOM		; [5.1014]DO COMMON CODE
	001054	004737 	000546'			 JSR	PC,.DFCOM
   2146	001060					POP	R1		; [6,1675]RESTORE R1
	001060	012601 				 MOV	(SP)+,R1
   2147	001062					CALL	.CKEOS		; [5.1014]CHECK END OF SYMBOL
	001062	004737 	000000G			 JSR	PC,.CKEOS
   2148	001066	005237 	000062'			INC	RNGFR		; [5.1014]SET RANGE ON PROGRESS FLAG
   2149	001072	012737 	000002 	000064'		MOV	#2,INCFR	; [5.1014]SET FORWARD RANGE DEFAULT
   2150	001100	020037 	000060'			CMP	R0,STOPFR	; [5.1014]FORWARD RANGE
   2151	001104	003002 				BGT	20$		; [5.1014]YES -- GO ON
   2152	001106	005437 	000064'			NEG	INCFR		; [5.1014]NO -- NEGATE INCREMENT
   2153	001112				20$:	PUSH	STOPFR		; [5.1014]SAVE INITIAL FUNCTION READ
	001112	013746 	000060'			 MOV	STOPFR,-(SP)
   2154	001116	010037 	000060'			MOV	R0,STOPFR	; [5.1014]SET STOPFR CODE
   2155	001122					POP	R0		; [5.1014]SET R0 TO INITIAL READ
	001122	012600 				 MOV	(SP)+,R0
   2156	001124	000724 				BR	5$		; [5.1014]DO RANGE INCREMENT
   2157	001126				30$:	RETURN			; [5.1014]EXIT
	001126	000207 				 RTS	PC
   2158						;
   2159
   2160	000000				.PSECT	MESSAG
   2161	000000				DFRMSG:
   2162	000000	   106 	   122 	   040 		.ASCIZ	%FR %
	000003	   000
   2163	000060				.PSECT	DATA
   2164
   2165	000060	000000 			STOPFR:	.WORD	0		; [5.1014]FINAL/FIRST FUNCTION READ CODE
   2166	000062	000000 			RNGFR:	.WORD	0		; [5.1014]RANGE IN PROGRESS FLAG
   2167	000064	000000 			INCFR:	.WORD	0		; [5.1014]INCREMENT VALUE
   2168	000066	000000 			STPKL:	.WORD	0		; [6,1675]STOP KL FLAG
   2169
   2170	001130				.PSECT
DFUNC -- KL10 DIAGNOSTIC FUNCTI	MACRO V05.04  Tuesday 17-May-88 14:36  Page 51
.DFWRT -- DIAGNOSTIC FUNCTION WRITE 7608.20

   2172					.SBTTL	.DFWRT -- DIAGNOSTIC FUNCTION WRITE 7608.20
   2173
   2174					;+
   2175					; .DFWRT -- DIAGNOSTIC FUNCTION WRITE
   2176					;
   2177					; THIS ROUTINE WILL EXECUTE A DIAGNOSTIC FUNCTION WRITE
   2178					;
   2179					; INPUT ARGUMENTS:
   2180					;
   2181					;	NONE.
   2182					;
   2183					; OUTPUT ARGUMENTS:
   2184					;
   2185					;	NONE.
   2186					;
   2187					; ERROR CODES RETURNED:
   2188					;
   2189					;	IFC -- ILLEGAL FUNCTION CODE.
   2190					;	FWF -- FUNCTION WRITE FAILED.
   2191					;-
   2192
   2193	001130				.DFWRT::
   2194	001130	012737 	000001 	000066'		MOV	#1,STPKL	; [6.1675]STOP KL IF RUNNING
   2195	001136					CALL	.DFCOM		; DO COMMON CODE
	001136	004737 	000546'			 JSR	PC,.DFCOM
   2196	001142					CALL	.CKCOL		; CHECK END-OF-SYMBOL
	001142	004737 	000000G			 JSR	PC,.CKCOL
   2197	001146					CALL	.XFWCK		; SEE IF WE HAVE A GOOD WRITE CODE
	001146	004737 	001276'			 JSR	PC,.XFWCK
   2198	001152	005046 				CLR	-(SP)		; CLEAR A BUFFER ON THE STACK
   2199	001154	005046 				CLR	-(SP)		; .
   2200	001156	005046 				CLR	-(SP)		; ..
   2201	001160	010601 				MOV	SP,R1		; ...SAVE THE BUFFER POINTER
   2202	001162					PUSH 	R0		; ...SAVE THE WRITE CODE
	001162	010046 				 MOV	R0,-(SP)
   2203	001164	010100 				MOV	R1,R0		; ....POINT TO THE BUFFER
   2204	001166					CALL	.GTKLN		; ....READ THE DATA
	001166	004737 	000000G			 JSR	PC,.GTKLN
   2205	001172					CALL	.CKEOS		; ....CHECK SYMBOL END
	001172	004737 	000000G			 JSR	PC,.CKEOS
   2206	001176	010001 				MOV	R0,R1		; ....DATA POINTER TO R1
   2207	001200					POP	R0		; ....GET THE WRITE CODE
	001200	012600 				 MOV	(SP)+,R0
   2208	001202					CALL	.FWRIT		; ...DO THE WRITE
	001202	004737 	000000G			 JSR	PC,.FWRIT
   2209	001206	062706 	000006 			ADD	#^D6,SP		; ...RESET THE STACK
   2210	001212					CALLR	.RSTKL		; RESTORE THE KL AND EXIT
	001212	000137 	000000G			 JMP	.RSTKL
   2211						;
DFUNC -- KL10 DIAGNOSTIC FUNCTI	MACRO V05.04  Tuesday 17-May-88 14:36  Page 52
.DFXCT -- DIAGNOSTIC FUNCTION EXECUTE 7602.15

   2213					.SBTTL	.DFXCT -- DIAGNOSTIC FUNCTION EXECUTE 7602.15
   2214
   2215					;+
   2216					; .DFXCT -- DIAGNOSTIC FUNCTION EXECUTE
   2217					;
   2218					; THIS SUBROUTINE WILL EXECUTE A DIAGNOSTIC FUNCTION EXECUTE.
   2219					;
   2220					; INPUT ARGUMENTS:
   2221					;
   2222					;	NONE.
   2223					;
   2224					; OUTPUT ARGUMENTS:
   2225					;
   2226					;	NONE.
   2227					;
   2228					; ERROR CODES RETURNED:
   2229					;
   2230					;	IFC -- ILLEGAL FUNCTION CODE.
   2231					;	FXF -- FUNCTION EXECUTE FAILED.
   2232					;-
   2233
   2234	001216				.DFXCT::
   2235	001216	012737 	000001 	000066'		MOV	#1,STPKL	; [6.1675]STOP KL IF RUNNING
   2236	001224					CALL	.DFCOM		; DO COMMON CODE
	001224	004737 	000546'			 JSR	PC,.DFCOM
   2237	001230					CALL	.CKEOS		; CHECK SYMBOL END
	001230	004737 	000000G			 JSR	PC,.CKEOS
   2238	001234					CALL	.XFXCK		; CHECK THE FXCT CODE OUT
	001234	004737 	001314'			 JSR	PC,.XFXCK
   2239	001240					CALL	.FXCT		; DO THE FUNCTION EXECUTE
	001240	004737 	000000G			 JSR	PC,.FXCT
   2240	001244	122715 	000054 			CMPB	#',,(R5)	; [5.1014]IS THIS A LIST
   2241	001250	001002 				BNE	10$		; [5.1014]NO -- GO ON
   2242	001252	105725 				TSTB	(R5)+		; [5.1014]YES -- REMOVE COMMA
   2243	001254	000760 				BR	.DFXCT		; [5.1014]DO NEXT
   2244	001256				10$:	RETURN			; [5.1014]EXIT
	001256	000207 				 RTS	PC
   2245						;
DFUNC -- KL10 DIAGNOSTIC FUNCTI	MACRO V05.04  Tuesday 17-May-88 14:36  Page 53
.XFXCK -- SUBROUTINES TO RANGE CHECK DIAG FUNCTIONS 7509.26

   2247					.SBTTL	.XFXCK -- SUBROUTINES TO RANGE CHECK DIAG FUNCTIONS 7509.26
   2248
   2249					;+
   2250					; .XFRCK -- SUBROUTINE TO RANGE CHECK FUNCTION READ CODES.
   2251					; .XFWCK -- SUBROUTINE TO RANGE CHECK FUNCTION WRITE CODES.
   2252					; .XFXCK -- SUBROUTINE TO RANGE CHECK FUNCTION EXECUTE CODES.
   2253					;
   2254					; THESE SUBROUTINES RANGE CHECK THE ARGUMENT CODES FOR THE FUNCTION
   2255					; READ, WRITE AND EXECUTE SUBROUTINES.
   2256					;
   2257					; INPUT ARGUMENTS:
   2258					;
   2259					;	R0 HOLDS THE FUNCTION CODE TO BE CHECKED
   2260					;
   2261					; OUTPUT ARGUMENTS:
   2262					;
   2263					;	NONE.
   2264					;
   2265					; ERROR CODES RETURNED:
   2266					;
   2267					;	IFC -- ILLEGAL FUNCTION CODE.
   2268					;	OFC -- ODD FUNCTION CODE.
   2269					;-
   2270
   2271						.ENABL	LSB
   2272
   2273	001260				.XFRCK::			; HERE TO CHECK FUNCTION READ CODE
   2274	001260	020027 	000200 			CMP	R0,#FR.100	; IS IT .LT. FR.100?
   2275	001264	103422 				BLO	FNCIFC		; NO -- ERROR
   2276	001266	020027 	000376 			CMP	R0,#FR.177	; YES -- IS IT .GT. FR.177?
   2277	001272	101017 				BHI	FNCIFC		; YES -- ERROR
   2278	001274	000412 				BR	10$		; NO -- SEE IF IT'S ODD
   2279						;
   2280	001276				.XFWCK::			; HERE TO CHECK FUNCTION WRITE CODE
   2281	001276	020027 	000100 			CMP	R0,#FW.040	; IS IT .LT. FW.040?
   2282	001302	103413 				BLO	FNCIFC		; NO -- ERROR
   2283	001304	020027 	000176 			CMP	R0,#FW.LAR	; YES -- IS IT .GT. FW.077?
   2284	001310	101010 				BHI	FNCIFC		; YES -- ERROR
   2285	001312	000403 				BR	10$		; NO -- SEE IF IT'S ODD
   2286						;
   2287	001314				.XFXCK::			; HERE TO CHECK FUNCTION EXECUTE CODE
   2288	001314	020027 	000076 			CMP	R0,#FX.037	; IS IT .GT. FX.037?
   2289	001320	101004 				BHI	FNCIFC		; YES -- ERROR
   2290	001322				10$:
   2291	001322	032700 	000001 			BIT	#BIT00,R0	; NO -- IS IT ODD?
   2292	001326	001004 				BNE	FNCOFC		; YES -- ERROR
   2293	001330					RETURN			; NO -- ALL OK, RETURN TO CALLER
	001330	000207 				 RTS	PC
   2294	001332				FNCIFC:
   2295	001332					ERROR$	IFC		; ERROR -- ILLEGAL FUNCTION CODE
	001332	012746 	034463 			 MOV	#^RIFC,-(SP)
	001336	104400 				 TRAP	TC.ERR
   2296						;
   2297	001340				FNCOFC:
   2298	001340					ERROR$	OFC		; ERROR -- ODD FUNCTION CODE
	001340	012746 	057263 			 MOV	#^ROFC,-(SP)
	001344	104400 				 TRAP	TC.ERR
DFUNC -- KL10 DIAGNOSTIC FUNCTI	MACRO V05.04  Tuesday 17-May-88 14:36  Page 53-1
.XFXCK -- SUBROUTINES TO RANGE CHECK DIAG FUNCTIONS 7509.26

   2299						;
   2300
   2301						.DSABL	LSB
DISCC -- DISCONNECT COMMAND MOD	MACRO V05.04  Tuesday 17-May-88 14:36  Page 55
.XFXCK -- SUBROUTINES TO RANGE CHECK DIAG FUNCTIONS 7509.26

   2304					.TITLE	DISCC -- DISCONNECT COMMAND MODULE 7702.28
   2305
   2306						.IDENT	"005000"
   2307					;
   2308					;                             COPYRIGHT (C) 1975, 1984, 1985 BY
   2309					;                     DIGITAL EQUIPMENT CORPORATION, MAYNARD MASS.
   2310					;			ALL RIGHTS RESERVED.
   2311					;       THIS SOFTWARE IS FURNISHED UNDER A LICENSE AND MAY BE  USED  AND  COPIED
   2312					;       ONLY IN ACCORDANCE WITH THE TERMS OF SUCH LICENSE AND WITH THE INCLUSION
   2313					;       OF THE ABOVE COPYRIGHT NOTICE.  THIS SOFTWARE OR ANY OTHER COPIES THERE-
   2314					;       OF  MAY NOT BE PROVIDED OR OTHERWISE MADE AVAILABLE TO ANY OTHER PERSON.
   2315					;       NO TITLE TO OR OWNERSHIP OF THE SOFTWARE IS HEREBY TRANSFERRED.
   2316					;
   2317					;       THE INFORMATION CONTAINED IN THIS SOFTWARE IS SUBJECT TO CHANGE  WITHOUT
   2318					;       NOTICE  AND SHOULD NOT BE CONSTRUED AS A COMMITMENT BY DIGITAL EQUIPMENT
   2319					;       CORPORATION.
   2320					;
   2321					;       DIGITAL ASSUMES NO RESPONSIBILITY FOR THE  USE  OR  RELIABILITY  OF  ITS
   2322					;       SOFTWARE ON EQUIPMENT WHICH IS NOT SUPPILED BY DIGITAL.
   2323					;
   2324					;		MODULE: DISCONNECT COMMAND
   2325					;
   2326					;		VERSION: 05-00
   2327					;
   2328					;		AUTHOR: R. BELANGER
   2329					;
   2330					;		DATE: 7702.28
   2331					;
   2332					;	THIS MODULE CONTAINS:
   2333					;
   2334					;	1) DISCONNECT COMMAND CODE
   2335
   2336						.MCALL	DIR$,RQST$
DISCC -- DISCONNECT COMMAND MOD	MACRO V05.04  Tuesday 17-May-88 14:36  Page 56
.DISCC -- THE "DISCONNECT" COMMAND 7702.28

   2338					.SBTTL	.DISCC -- THE "DISCONNECT" COMMAND 7702.28
   2339
   2340					;+
   2341					;  .DISCC --  THE "DISCONNECT" COMMAND
   2342					;
   2343					; THIS SUBROUTINE CHECKS THE SYNTAX OF THE "DISCONNECT" COMMAND
   2344					; AND REQUESTS THE KLINIK DISCONNECT TASK, "KLDISC". THE KLINIK DISCONNECT
   2345					; TASK WILL THEN DISCONNECT THE KLINIK LINE, LOG THE DISCONNECT AND
   2346					; RETURN THE THE RSX20F COMMAND PARSER.
   2347					;
   2348					; INPUT ARGUMENTS:
   2349					;
   2350					;	NONE.
   2351					;
   2352					; OUTPUT ARGUMENTS:
   2353					;
   2354					;	NONE.
   2355					;
   2356					; ERROR CODES RETURNED:
   2357					;
   2358					;	NONE.
   2359					;-
   2360
   2361	001346				.DISCC::
   2362	001346					CALL	.CKEOC		; MUST HAVE E-O-C
	001346	004737 	000000G			 JSR	PC,.CKEOC
   2363	001352	112737 	000003 	000001G		MOVB	#3,.KLNSW+1	; FLAG DISCONNECT
   2365	001360					DIR$	#RQSKLD		; REQUEST DISCONNECT TASK
	001360	012746 	000000'			MOV	#RQSKLD,-(SP)
	001364	104375 				EMT	375
   2367	001366					CALLR	.EXITP		; GO AWAY FOR NOW
	001366	000137 	000000G			 JMP	.EXITP
   2368						;
   2369
   2370	000000					.PSECT	DPBS
   2371
   2372	000000				RQSKLD:
   2373	000000					RQST$	KLDISC,,10
	000000	   013 	   007 			.BYTE	11.,7
	000002	043244 	035473 			.RAD50	/KLDISC/
	000006	000000 	000000 			.WORD	0,0
	000012	000010 				.WORD	10
	000014	   000 	   000 			.BYTE	,
   2374
   2375	001372					.PSECT
   2376					.TITLE	EDELE -- DEPOSIT / EXAMINE ELEVEN COMMAND MODULE 7603.30
   2377
   2378						.IDENT	"006130"
   2379
   2380					;
   2381					;                             COPYRIGHT (C) 1975, 1984, 1985 BY
   2382					;                     DIGITAL EQUIPMENT CORPORATION, MAYNARD MASS.
   2383					;			ALL RIGHTS RESERVED.
   2384					;       THIS SOFTWARE IS FURNISHED UNDER A LICENSE AND MAY BE  USED  AND  COPIED
   2385					;       ONLY IN ACCORDANCE WITH THE TERMS OF SUCH LICENSE AND WITH THE INCLUSION
   2386					;       OF THE ABOVE COPYRIGHT NOTICE.  THIS SOFTWARE OR ANY OTHER COPIES THERE-
   2387					;       OF  MAY NOT BE PROVIDED OR OTHERWISE MADE AVAILABLE TO ANY OTHER PERSON.
EDELE -- DEPOSIT / EXAMINE ELEV	MACRO V05.04  Tuesday 17-May-88 14:36  Page 56-1
.DISCC -- THE "DISCONNECT" COMMAND 7702.28

   2388					;       NO TITLE TO OR OWNERSHIP OF THE SOFTWARE IS HEREBY TRANSFERRED.
   2389					;
   2390					;       THE INFORMATION CONTAINED IN THIS SOFTWARE IS SUBJECT TO CHANGE  WITHOUT
   2391					;       NOTICE  AND SHOULD NOT BE CONSTRUED AS A COMMITMENT BY DIGITAL EQUIPMENT
   2392					;       CORPORATION.
   2393					;
   2394					;       DIGITAL ASSUMES NO RESPONSIBILITY FOR THE  USE  OR  RELIABILITY  OF  ITS
   2395					;       SOFTWARE ON EQUIPMENT WHICH IS NOT SUPPILED BY DIGITAL.
   2396					;
   2397					;		MODULE: DEPOSIT / EXAMINE ELEVEN COMMAND
   2398					;
   2399					;		VERSION: 06-13
   2400					;
   2401					;		AUTHOR: R. BELANGER
   2402					;
   2403					;		DATE: 7603.30
   2404					;
   2405					;	THIS MODULE CONTAINS:
   2406					;
   2407					;	1) DEPOSIT / EXAMINE ELEVEN COMMAND CODE
   2408					;
   2409					;29-Apr-83  TCO 6.1599	David Weaver
   2410					;	EXAMINE ELEVEN addr1:addr2 can loop over memory if addr2 is odd or
   2411					;	the range crosses 100000.
EDELE -- DEPOSIT / EXAMINE ELEV	MACRO V05.04  Tuesday 17-May-88 14:36  Page 57
.DPOSE -- THE "DEPOSIT <ELEVEN>" COMMAND 7602.29

   2413					.SBTTL	.DPOSE -- THE "DEPOSIT <ELEVEN>" COMMAND 7602.29
   2414
   2415					;+
   2416					; .DPOSE -- THE "DEPOSIT <ELEVEN>" COMMAND.
   2417					;
   2418					; THIS SUBROUTINE WILL DEPOSIT THE DATA SPECIFIED INTO THE PDP-11
   2419					; ADDRESS SPECIFIED.
   2420					;
   2421					; INPUT ARGUMENTS:
   2422					;
   2423					;	NONE.
   2424					;
   2425					; OUTPUT ARGUMENTS:
   2426					;
   2427					;	THE PDP-11 ADDRESS DEPOSITED IS IN ".EDELA"
   2428					;	THE DATA DEPOSITED IS IN ".ELDDW".
   2429					;
   2430					; ERROR CODES RETURNED:
   2431					;
   2432					;	NONE.
   2433					;-
   2434
   2435	001372				.DPOSE::
   2436	001372					CALL	.CKARG		; SEE IF WE HAVE AN ARGUMENT
	001372	004737 	000000G			 JSR	PC,.CKARG
   2437	001376	002406 				BLT	10$		; NUMERIC -- GO AROUND TABLE SCAN
   2438	001400	012700 	000000G			MOV	#.DPETB,R0	; DEPOSIT EXTENSION TABLE POINTER TO R0
   2439	001404					CALL	.TSCAN		; SCAN IT
	001404	004737 	000000G			 JSR	PC,.TSCAN
   2440	001410					CALLR	@2(R0)		; DISPATCH FOR IT
	001410	000170 	000002 			 JMP	@2(R0)
   2441						;
   2442	001414				10$:
   2443	001414					CALL	.GTELN		; READ THE ADDRESS
	001414	004737 	000000G			 JSR	PC,.GTELN
   2444
   2445	001420	032700 	000001 			BIT	#BIT00,R0	; IS IT ODD?
   2446	001424	001050 				BNE	DPOOAI		; YES -- GIVE "OAI" ERROR
   2447	001426					PUSH	R0		; NO -- SAVE IT
	001426	010046 				 MOV	R0,-(SP)
   2448	001430					CALL	.CKCOL		; .CHECK SEPARATOR
	001430	004737 	000000G			 JSR	PC,.CKCOL
   2449	001434					CALL	.GTELN		; .READ THE DATA
	001434	004737 	000000G			 JSR	PC,.GTELN
   2450	001440	010001 				MOV	R0,R1		; .DATA TO R1
   2451	001442					POP	R0		; .ADDRESS TO R0
	001442	012600 				 MOV	(SP)+,R0
   2452
   2453					;	[CONTINUED ON THE FOLLOWING PAGE]
EDELE -- DEPOSIT / EXAMINE ELEV	MACRO V05.04  Tuesday 17-May-88 14:36  Page 58
.DPOSE -- THE "DEPOSIT <ELEVEN>" COMMAND 7602.29

   2455					;	[CONTINUED FROM THE PREVIOUS PAGE]
   2456
   2457	001444				.DPSEE::			; EXTENDED DEPOSIT ENTRY POINT
   2458	001444					CALL	.CKEOC		; CHECK FOR E-O-C
	001444	004737 	000000G			 JSR	PC,.CKEOC
   2459	001450	032700 	000001 			BIT	#BIT00,R0	; IS THE ADDRESS ODD?
   2460	001454	001034 				BNE	DPOOAI		; YES -- GIVE "OAI" ERROR
   2461	001456					PUSH	R0		; NO -- SAVE THE ADDRESS
	001456	010046 				 MOV	R0,-(SP)
   2462	001460					PUSH	R1		; .AND THE DEPOSIT DATA
	001460	010146 				 MOV	R1,-(SP)
   2463	001462	010037 	000000G			MOV	R0,.EDELA	; ..LEAVE TRACKS
   2464	001466	010137 	000000G			MOV	R1,.ELDDW	; ..MORE TRACKS
   2465	001472	013737 	000000G	000000G		MOV	.TRP4V,.SSTTB	; ..SET UP TRAP AT 4 TRAP
   2466	001500	011001 				MOV	(R0),R1		; ..READ ORIGINAL CONTENTS
   2467	001502					CALL	.TYELA		; ..PRINT THE ADDRESS
	001502	004737 	000000G			 JSR	PC,.TYELA
   2468	001506	112700 	000134 			MOVB	#'\,R0		; ..BACK SLASH
   2469	001512					CALL	.TYCHR		; ..PRINT IT
	001512	004737 	000000G			 JSR	PC,.TYCHR
   2470	001516					CALL	.TYSPC		; ..AND A SPACE
	001516	004737 	000000G			 JSR	PC,.TYSPC
   2471	001522	010100 				MOV	R1,R0		; ..DATA TO R0
   2472	001524					CALL	.TYELN		; ..PRINT THAT
	001524	004737 	000000G			 JSR	PC,.TYELN
   2473	001530					POP	R1		; ..RESTORE DATA
	001530	012601 				 MOV	(SP)+,R1
   2474	001532					POP	R0		; .AND ADDRESS
	001532	012600 				 MOV	(SP)+,R0
   2475	001534	010110 				MOV	R1,(R0)		; DO THE DEPOSIT
   2476	001536	005037 	000000G			CLR	.SSTTB		; RESET TRAP AT 4 TRAP
   2477	001542					CALLR	.TCRLF		; TO CALLER
	001542	000137 	000000G			 JMP	.TCRLF
   2478						;
   2479	001546				DPOOAI:
   2480	001546					ERROR$	OAI		; ERROR -- ODD ADDRESS ILLEGAL
	001546	012746 	056761 			 MOV	#^ROAI,-(SP)
	001552	104400 				 TRAP	TC.ERR
   2481						;
EDELE -- DEPOSIT / EXAMINE ELEV	MACRO V05.04  Tuesday 17-May-88 14:36  Page 59
.DPEWD -- THE "DEPOSIT <ELEVEN> <NUMERICAL OBJECT>" COMMAND 76

   2483					.SBTTL	.DPEWD -- THE "DEPOSIT <ELEVEN> <NUMERICAL OBJECT>" COMMAND 7602.29
   2484
   2485						.ENABL	LSB
   2486
   2487	001554				.DPEWT::			; DEPOSIT <ELEVEN> THIS
   2488	001554	013700 	000000G			MOV	.EDELA,R0	; ADDRESS TO R0
   2489	001560	000413 				BR	10$		; CHECK FOR ARGUMENTS
   2490						;
   2491	001562				.DPEWD::			; DEPOSIT <ELEVEN> DECREMENT
   2492	001562					CALL	.EDEWD		; DECREMENT THE ADDRESS
	001562	004737 	000374'			 JSR	PC,.EDEWD
   2493	001566	000410 				BR	10$		; EXIT THRU COMMON CODE
   2494						;
   2495	001570				.DPEWI::			; DEPOSIT <ELEVEN> INCREMENT
   2496	001570					CALL	.EDEWI		; INCREMENT THE ADDRESS
	001570	004737 	000406'			 JSR	PC,.EDEWI
   2497	001574	000405 				BR	10$		; EXIT THRU COMMON CODE
   2498						;
   2499	001576				.DPEWN::			; DEPOSIT <ELEVEN> NEXT
   2500	001576					CALL	.EDEWN		; GET THE NEXT ADDRESS
	001576	004737 	000406'			 JSR	PC,.EDEWN
   2501	001602	000402 				BR	10$		; EXIT THRU COMMON CODE
   2502						;
   2503	001604				.DPEWP::			; DEPOSIT <ELEVEN> PREVIOUS
   2504	001604					CALL	.EDEWP		; GET THE PREVIOUS ADDRESS
	001604	004737 	000374'			 JSR	PC,.EDEWP
   2505	001610				10$:
   2506	001610	122715 	000075 			CMPB	#'=,(R5)	; DOES AN ARGUMENT FOLLOW?
   2507	001614	001403 				BEQ	20$		; YES -- GO GET IT
   2508	001616	013701 	000000G			MOV	.ELDDW,R1	; NO -- USE OLD DATA
   2509	001622	000710 				BR	.DPSEE		; AND DO THE DEPOSIT
   2510						;
   2511	001624				20$:
   2512	001624	105725 				TSTB	(R5)+		; GET OVER THE COLON
   2513	001626					PUSH	R0		; SAVE THE ADDRESS
	001626	010046 				 MOV	R0,-(SP)
   2514	001630					CALL	.GTELN		; .READ THE DATA
	001630	004737 	000000G			 JSR	PC,.GTELN
   2515	001634	010001 				MOV	R0,R1		; .DATA TO R1
   2516	001636					POP	R0		; .ADDRESS TO R0
	001636	012600 				 MOV	(SP)+,R0
   2517	001640	000701 				BR	.DPSEE		; DO THE DEPOSIT
   2518						;
   2519
   2520						.DSABL	LSB
EDELE -- DEPOSIT / EXAMINE ELEV	MACRO V05.04  Tuesday 17-May-88 14:36  Page 60
.EXAME -- THE "EXAMINE <ELEVEN>" COMMAND 7602.29

   2522					.SBTTL	.EXAME -- THE "EXAMINE <ELEVEN>" COMMAND 7602.29
   2523
   2524					;+
   2525					; .EXAME -- THE "EXAMINE <ELEVEN> COMMAND.
   2526					;
   2527					; THIS ROUTINE WILL EXAMINE AND DISPLAY THE CONTEN OF ONE PDP-11
   2528					; ELEVEN MEMORY LOCATION ON THE CONSOLE DEVICE.
   2529					;
   2530					; INPUT ARGUMENTS:
   2531					;
   2532					;	NONE.
   2533					;
   2534					; OUTPUT ARGUMENTS:
   2535					;
   2536					;	THE ADDRESS EXAMINED IS IN ".EDELA"
   2537					;	THE EXAMINED DATA IS IN ".ELEDW"
   2538					;
   2539					; ERROR CODES RETURNED:
   2540					;
   2541					;	NONE.
   2542					;-
   2543
   2544	001642				.EXAME::
   2545	001642					CALL	.CKARG		; SEE IF WE HAVE AN ARGUMENT
	001642	004737 	000000G			 JSR	PC,.CKARG
   2546	001646	002406 				BLT	10$		; NUMERIC -- GO AROUND TABLE SCAN
   2547	001650	012700 	000000G			MOV	#.EXETB,R0	; EXTENSION TABLE POINTER TO R0
   2548	001654					CALL	.TSCAN		; SCAN IT
	001654	004737 	000000G			 JSR	PC,.TSCAN
   2549	001660					CALLR	@2(R0)		; DO WHAT IS SAYS TO
	001660	000170 	000002 			 JMP	@2(R0)
   2550						;
   2551	001664				10$:
   2552	001664					CALL	.GTELN		; READ THE ADDRESS
	001664	004737 	000000G			 JSR	PC,.GTELN
   2553
   2554					;	[CONTINUED ON THE FOLLOWING PAGE]
EDELE -- DEPOSIT / EXAMINE ELEV	MACRO V05.04  Tuesday 17-May-88 14:36  Page 61
.EXAME -- THE "EXAMINE <ELEVEN>" COMMAND 7602.29

   2556					;	[CONTINUED FROM THE PREVIOUS PAGE]
   2557
   2558	001670				.EXMEE::			; EXTENDED EXAMINE ENTRY POINT
   2559	001670	010037 	000070'			MOV	R0,STOPEX	; [5.1014]SAVE INITIAL ADDRESS
   2560	001674					CALL	.CKEOC		; CHECK FOR E-O-C
	001674	004737 	000000G			 JSR	PC,.CKEOC
   2561	001700	032700 	000001 		1$:	BIT	#BIT00,R0	; IS IT ODD?
   2562	001704	001101 				BNE	EXAOAI		; YES -- GIVE "OAI" ERROR
   2563	001706	013737 	000000G	000000G		MOV	.TRP4V,.SSTTB	; SET UP TRAP AT 4 TRAP
   2564	001714	010037 	000000G			MOV	R0,.EDELA	; .LEAVE SOME TRACKS
   2565	001720	011001 				MOV	(R0),R1		; DO THE EXAMINE
   2566	001722					PUSH	R0		; [5.1014]SAVE CURRENT ADDRESS
	001722	010046 				 MOV	R0,-(SP)
   2567	001724	005037 	000000G			CLR	.SSTTB		; RESET TRAP AT 4 TRAP
   2568	001730	010137 	000000G			MOV	R1,.ELEDW	; MORE TRACKS
   2569	001734					CALL	.TYELA		; TYPE THE ADDRESS
	001734	004737 	000000G			 JSR	PC,.TYELA
   2570	001740	112700 	000134 			MOVB	#'\,R0		; BACKSLASH
   2571	001744					CALL	.TYCHR		; TYPE IT
	001744	004737 	000000G			 JSR	PC,.TYCHR
   2572	001750					CALL	.TYSPC		; AND A SPACE
	001750	004737 	000000G			 JSR	PC,.TYSPC
   2573	001754	010100 				MOV	R1,R0		; DATA TO R0
   2574	001756					CALL	.TYELN		; TYPE THAT
	001756	004737 	000000G			 JSR	PC,.TYELN
   2575	001762					CALL	.TCRLF		; END THE LINE
	001762	004737 	000000G			 JSR	PC,.TCRLF
   2576	001766				5$:	POP	R0		; [5.1014]RESTORE ADDRESS
	001766	012600 				 MOV	(SP)+,R0
   2577	001770	005737 	000072'			TST	RNGEX		; [5.1014]RANGE IN PROGRESS?
   2578	001774	001406 				BEQ	7$		; [5.1014]NO -- GO ON
   2579	001776	020037 	000070'			CMP	R0,STOPEX	; [5.1014]YES -- DONE?
   2580	002002	103003 				BHIS	7$		; [6.1599]YES -- GO ON
   2581	002004	063700 	000074'			ADD	INCEX,R0	; [5.1014]NO -- NEXT ADDRESS
   2582	002010	000733 				BR	1$		; [5.1014]DO EXAMINE
   2583	002012	005037 	000072'		7$:	CLR	RNGEX		; [5.1014]CLEAR RANGE IN PROGRESS
   2584	002016	122715 	000054 			CMPB	#',,(R5)	; [5.1014]IS THIS A LIST?
   2585	002022	001002 				BNE	20$		; [5.1014]NO -- GO NO
   2586	002024	105725 				TSTB	(R5)+		; [5.1014]YES -- REMOVE COMMA
   2587	002026	000705 				BR	.EXAME		; [5.1014]DO NEXT
   2588	002030	122715 	000072 		20$:	CMPB	#':,(R5)	; [5.1014]IS THIS A RANGE?
   2589	002034	001024 				BNE	40$		; [5.1014]NO -- EXIT
   2590	002036	105725 				TSTB	(R5)+		; [5.1014]YES -- REMOVE COLON
   2591	002040					CALL	.GTELN		; [5.1014]GET FINAL ADDRESS
	002040	004737 	000000G			 JSR	PC,.GTELN
   2592	002044					CALL	.CKEOC		; [5.1014]CHECK END OF COMMAND
	002044	004737 	000000G			 JSR	PC,.CKEOC
   2593	002050	005237 	000072'			INC	RNGEX		; [5.1014]SET RANGE IN PROGRESS
   2594	002054	012737 	000002 	000074'		MOV	#2,INCEX	; [5.1014]SET FORWARD INCREMENT
   2595	002062	020037 	000070'			CMP	R0,STOPEX	; [5.1014]FORWARD INCREMENT?
   2596	002066	101002 				BHI	30$		; [6.1599]YES -- GO ON
   2597	002070	005437 	000074'			NEG	INCEX		; [5.1014]NO -- NEGATE INCREMENT
   2598	002074				30$:	PUSH	STOPEX		; [5.1014]SAVE INITIAL ADDRESS
	002074	013746 	000070'			 MOV	STOPEX,-(SP)
   2599	002100	010037 	000070'			MOV	R0,STOPEX	; [5.1014]SET FINAL VALUE
   2600	002104	000730 				BR	5$		; [5.1014]DO RANGE INCREMENT
   2601	002106				40$:	RETURN			; [5.1014]DONE
EDELE -- DEPOSIT / EXAMINE ELEV	MACRO V05.04  Tuesday 17-May-88 14:36  Page 61-1
.EXAME -- THE "EXAMINE <ELEVEN>" COMMAND 7602.29

	002106	000207 				 RTS	PC
   2602						;
   2603	002110				EXAOAI:
   2604	002110					ERROR$	OAI		; ERROR -- ODD ADDRESS ILLEGAL
	002110	012746 	056761 			 MOV	#^ROAI,-(SP)
	002114	104400 				 TRAP	TC.ERR
   2605						;
   2606
   2607	000070				.PSECT	DATA
   2608
   2609	000070	000000 			STOPEX:	.WORD	0		; [5.1014]FINAL/FIRST EXAMINE ADDRESS
   2610	000072	000000 			RNGEX:	.WORD	0		; [5.1014]RANGE IN PROGRESS FLAG
   2611	000074	000000 			INCEX:	.WORD	0		; [5.1014]INCREMENT VALUE
   2612
   2613	002116				.PSECT
EDELE -- DEPOSIT / EXAMINE ELEV	MACRO V05.04  Tuesday 17-May-88 14:36  Page 62
.EXEWD -- THE "EXAMINE <ELEVEN> <NUMERICAL OBJECT>" COMMAND 76

   2615					.SBTTL	.EXEWD -- THE "EXAMINE <ELEVEN> <NUMERICAL OBJECT>" COMMAND 7602.29
   2616
   2617						.ENABL	LSB
   2618
   2619	002116				.EXEWT::			; EXAMINE <ELEVEN> THIS
   2620	002116	013700 	000000G			MOV	.EDELA,R0	; ADDRESS TO R0
   2621	002122	000662 				BR	.EXMEE		; DO THE EXAMINE
   2622						;
   2623	002124				.EXEWD::			; EXAMINE <ELEVEN> DECREMENT
   2624	002124					CALL	.EDEWD		; DECREMENT IT
	002124	004737 	000374'			 JSR	PC,.EDEWD
   2625	002130	000657 				BR	.EXMEE		; DO THE EXAMINE
   2626						;
   2627	002132				.EXEWI::			; EXAMINE <ELEVEN> INCREMENT
   2628	002132					CALL	.EDEWI		; INCREMENT IT
	002132	004737 	000406'			 JSR	PC,.EDEWI
   2629	002136	000654 				BR	.EXMEE		; DO THE EXAMINE
   2630						;
   2631	002140				.EXEWN::			; EXAMINE <ELEVEN> NEXT
   2632	002140					CALL	.EDEWN		; GET THE NEXT ADDRESS
	002140	004737 	000406'			 JSR	PC,.EDEWN
   2633	002144	000651 				BR	.EXMEE		; DO THE EXAMINE
   2634						;
   2635	002146				.EXEWP::			; EXAMINE <ELEVEN> PREVIOUS
   2636	002146					CALL	.EDEWP		; GET THE PREVIOUS ADDRESS
	002146	004737 	000374'			 JSR	PC,.EDEWP
   2637	002152	000646 				BR	.EXMEE		; DO THE EXAMINE
   2638						;
   2639
   2640						.DSABL	LSB
EDELE -- DEPOSIT / EXAMINE ELEV	MACRO V05.04  Tuesday 17-May-88 14:36  Page 64
.EXEWD -- THE "EXAMINE <ELEVEN> <NUMERICAL OBJECT>" COMMAND 76

   2643
   2644					.TITLE	EDTEN -- DEPOSIT / EXAMINE TEN COMMAND MODULE 7603.21
   2645
   2646						.IDENT	"006130"
   2647
   2648					;
   2649					;                             COPYRIGHT (C) 1975, 1984, 1985 BY
   2650					;                     DIGITAL EQUIPMENT CORPORATION, MAYNARD MASS.
   2651					;			ALL RIGHTS RESERVED.
   2652					;       THIS SOFTWARE IS FURNISHED UNDER A LICENSE AND MAY BE  USED  AND  COPIED
   2653					;       ONLY IN ACCORDANCE WITH THE TERMS OF SUCH LICENSE AND WITH THE INCLUSION
   2654					;       OF THE ABOVE COPYRIGHT NOTICE.  THIS SOFTWARE OR ANY OTHER COPIES THERE-
   2655					;       OF  MAY NOT BE PROVIDED OR OTHERWISE MADE AVAILABLE TO ANY OTHER PERSON.
   2656					;       NO TITLE TO OR OWNERSHIP OF THE SOFTWARE IS HEREBY TRANSFERRED.
   2657					;
   2658					;       THE INFORMATION CONTAINED IN THIS SOFTWARE IS SUBJECT TO CHANGE  WITHOUT
   2659					;       NOTICE  AND SHOULD NOT BE CONSTRUED AS A COMMITMENT BY DIGITAL EQUIPMENT
   2660					;       CORPORATION.
   2661					;
   2662					;       DIGITAL ASSUMES NO RESPONSIBILITY FOR THE  USE  OR  RELIABILITY  OF  ITS
   2663					;       SOFTWARE ON EQUIPMENT WHICH IS NOT SUPPILED BY DIGITAL.
   2664					;
   2665					;		MODULE: DEPOSIT / EXAMINE TEN COMMAND
   2666					;
   2667					;		VERSION: 06-13
   2668					;
   2669					;		AUTHOR: R. BELANGER
   2670					;
   2671					;		DATE: 7603.21
   2672					;
   2673					;	THIS MODULE CONTAINS:
   2674					;
   2675					;	1) DEPOSIT / EXAMINE TEN COMMAND CODE
EDTEN -- DEPOSIT / EXAMINE TEN 	MACRO V05.04  Tuesday 17-May-88 14:36  Page 65
.DEPAR -- THE "DEPOSIT AR" COMMAND 7603.21

   2677					.SBTTL	.DEPAR -- THE "DEPOSIT AR" COMMAND 7603.21
   2678
   2679					;+
   2680					; .DEPAR -- THE "DEPOSIT AR" COMMAND.
   2681					;
   2682					; THIS ROUTINE WILL DEPOSIT THE DATA SPECIFIED INTO THE KL AR REGISTER.
   2683					;
   2684					; INPUT ARGUMENTS:
   2685					;
   2686					;	NONE.
   2687					;
   2688					; OUTPUT ARGUMENTS:
   2689					;
   2690					;	NONE.
   2691					;
   2692					; ERROR CODES RETURNED:
   2693					;
   2694					;	NONE.
   2695					;-
   2696
   2697	002154				.DEPAR::
   2698	002154					CALL	.CKRUN		; SEE IF THE KL IS RUNNING
	002154	004737 	000000G			 JSR	PC,.CKRUN
   2699	002160					CALL	.CKCOL		; CHECK FOR A COLON
	002160	004737 	000000G			 JSR	PC,.CKCOL
   2700	002164	005046 				CLR	-(SP)		; CLEAR A BUFFER ON THE STACK
   2701	002166	005046 				CLR	-(SP)		; .
   2702	002170	005046 				CLR	-(SP)		; ..
   2703	002172	010600 				MOV	SP,R0		; ...POINT TO IT
   2704	002174					CALL	.GTNUM		; ...READ A NUMBER
	002174	004737 	000000G			 JSR	PC,.GTNUM
   2705	002200					CALL	.CKEOC		; ...CHECK FOR E-O-C
	002200	004737 	000000G			 JSR	PC,.CKEOC
   2706	002204					PUSH	.KLFLG		; ...SAVE ".KLFLG"
	002204	013746 	000000G			 MOV	.KLFLG,-(SP)
   2707	002210	032716 	100000 			BIT	#KF.CLK,(SP)	; ....IS THE CLOCK RUNNING?
   2708	002214	001402 				BEQ	10$		; ....NO -- GO ON
   2709	002216					CALL	.KLHLT		; ....STOP THE KL - DEAD
	002216	004737 	000000G			 JSR	PC,.KLHLT
   2710	002222				10$:
   2711	002222	010001 				MOV	R0,R1		; ....DATA POINTER TO R1
   2712	002224					CALL	.WRTAR		; ....WRITE THE AR
	002224	004737 	000000G			 JSR	PC,.WRTAR
   2713	002230					POP	.SVKLF		; ....SET UP ".SVKLF"
	002230	012637 	000000G			 MOV	(SP)+,.SVKLF
   2714	002234	062706 	000006 			ADD	#^D6,SP		; ...RESET THE STACK
   2715	002240					CALLR	.KLRST		; RESTART THE KL AND EXIT
	002240	000137 	000000G			 JMP	.KLRST
   2716						;
EDTEN -- DEPOSIT / EXAMINE TEN 	MACRO V05.04  Tuesday 17-May-88 14:36  Page 66
.DPOST -- THE "DEPOSIT <TEN>" COMMAND 7602.15

   2718					.SBTTL	.DPOST -- THE "DEPOSIT <TEN>" COMMAND 7602.15
   2719
   2720					;+
   2721					; .DPOST -- THE "DEPOSIT <TEN>" COMMAND.
   2722					;
   2723					; THIS SUBROUTINE WILL DEPOSIT THE DATA SPECIFIED INTO THE DESIRED
   2724					; KL MEMORY LOCATION.
   2725					;
   2726					; INPUT ARGUMENTS:
   2727					;
   2728					;	NONE.
   2729					;
   2730					; OUTPUT ARGUMENTS:
   2731					;
   2732					;	THE ADDRESS DEPOSITED IS IN ".EDKLA"
   2733					;	THE DATA DEPOSITED IS IN ".DPBFR"
   2734					;
   2735					; ERROR CODES RETURNED:
   2736					;
   2737					;	APE -- KL APR ERROR
   2738					;	DMF -- DEPOSIT KL MEMORY FAILED
   2739					;	ESD -- EBOX STOPPED - DEPOSIT
   2740					;	KLA -- KL ADDRESS ERROR
   2741					;	KCN -- KL CLOCK NOT RUNNING
   2742					;	MRA -- MISSING REQUIRED ARGUMENT
   2743					;	NOR -- NUMBER OUT OF RANGE.
   2744					;	VFY -- VERIFY FAILED
   2745					;-
   2746
   2747	002244				.DPOST::
   2748	002244					CALL	.CKARG		; SEE IF AN ARGUMENT FOLLOWS
	002244	004737 	000000G			 JSR	PC,.CKARG
   2749	002250	002406 				BLT	10$		; NUMERIC -- GO AROUND TABLE SCAN
   2750	002252	012700 	000000G			MOV	#.DPETB,R0	; EXTENSION TABLE POINTER TO R0
   2751	002256					CALL	.TSCAN		; SCAN IT
	002256	004737 	000000G			 JSR	PC,.TSCAN
   2752	002262					CALLR	@2(R0)		; DO WHAT IT SAYS TO
	002262	000170 	000002 			 JMP	@2(R0)
   2753						;
   2754	002266				10$:
   2755	002266	012700 	000000G			MOV	#.EDKLX,R0	; ADDRESS POINTER TO R0
   2756	002272					CALL	.GTKLA		; READ THE ADDRESS
	002272	004737 	000000G			 JSR	PC,.GTKLA
   2757	002276					CALL	.CKCOL		; CHECK FOR A COLON
	002276	004737 	000000G			 JSR	PC,.CKCOL
   2758	002302	010001 				MOV	R0,R1		; GOT IT, SAVE THE POINTER
   2759	002304	012700 	000000G			MOV	#.DPBFX,R0	; DATA POINTER TO R0
   2760	002310					CALL	.GTKLN		; READ THE DATA
	002310	004737 	000000G			 JSR	PC,.GTKLN
   2761
   2762					;	[CONTINUED ON THE FOLLOWING PAGE]
EDTEN -- DEPOSIT / EXAMINE TEN 	MACRO V05.04  Tuesday 17-May-88 14:36  Page 67
.DPOST -- THE "DEPOSIT <TEN>" COMMAND 7602.15

   2764					;	[CONTINUED FROM THE PREVIOUS PAGE]
   2765
   2766	002314				.DPSTE::			; EXTENDED DEPOSIT ENTRY POINT
   2767	002314					CALL	.CKEOC		; CHECK E-O-C CHARACTER
	002314	004737 	000000G			 JSR	PC,.CKEOC
   2768	002320	032737 	100000 	000000G		BIT	#KF.CLK,.KLFLG	; IS THE CLOCK RUNNING?
   2769	002326	001510 				BEQ	DPOKCN		; NO -- GIVE "KCN" ERROR
   2770	002330	012702 	000000G			MOV	#.EDKLA,R2	; ADDRESS BUFFER POINTER TO R2
   2771	002334	012122 				MOV	(R1)+,(R2)+	; LOAD THE NEW ADDRESS
   2772	002336	012122 				MOV	(R1)+,(R2)+	; INTO THE ADDRESS BUFFER
   2773	002340	011112 				MOV	(R1),(R2)	; SO
   2774	002342	024242 				CMP	-(R2),-(R2)	; BACK THE POINTER UP
   2775	002344	010201 				MOV	R2,R1		; PUT IT IN R1
   2776	002346	012702 	000000G			MOV	#.DPBFR,R2	; DEPOSIT DATA POINTER TO R2
   2777	002352	012022 				MOV	(R0)+,(R2)+	; LOAD THE NEW DATA
   2778	002354	012022 				MOV	(R0)+,(R2)+	; INTO THE DEPOSIT DATA BUFFER
   2779	002356	011012 				MOV	(R0),(R2)	; SO
   2780	002360	024242 				CMP	-(R2),-(R2)	; BACK THE POINTER UP
   2781	002362					PUSH	R2		; SAVE THE DATA POINTER
	002362	010246 				 MOV	R2,-(SP)
   2782	002364					PUSH	R1		; .AND THE ADDRESS POINTER
	002364	010146 				 MOV	R1,-(SP)
   2783	002366	010600 				MOV	SP,R0		; ..SAVE THE POINTER TO THE BLOCK
   2784	002370					PUSH	R0		; ..SO
	002370	010046 				 MOV	R0,-(SP)
   2785	002372					PUSH	#.EXBFR		; ...POINT TO EXAMINE BUFFER
	002372	012746 	000000G			 MOV	#.EXBFR,-(SP)
   2786	002376					PUSH	R1		; ....FOR THIS ADDRESS
	002376	010146 				 MOV	R1,-(SP)
   2787	002400	010601 				MOV	SP,R1		; .....POINT TO THE BLOCK
   2788	002402	012700 	000200 			MOV	#ED.PHY,R0	; .....PHYSICAL REFERENCE
   2789	002406					CALL	.EXKLM		; .....EXAMINE IT FIRST
	002406	004737 	000000G			 JSR	PC,.EXKLM
   2790	002412					POP	R0		; .....GET THE ADDRESS POINTER
	002412	012600 				 MOV	(SP)+,R0
   2791	002414					CALL	.TYKLA		; ....PRINT IT
	002414	004737 	000000G			 JSR	PC,.TYKLA
   2792	002420					CALL	.TYSLS		; ....AND A <SLASH>
	002420	004737 	000000G			 JSR	PC,.TYSLS
   2793	002424					CALL	.TYSPC		; ....NOW A <SPACE>
	002424	004737 	000000G			 JSR	PC,.TYSPC
   2794	002430					POP	R0		; ....GET THE DATA POINTER
	002430	012600 				 MOV	(SP)+,R0
   2795	002432					CALL	.TYKLN		; ...TYPE THE DATA
	002432	004737 	000000G			 JSR	PC,.TYKLN
   2796	002436					CALL	.TCRLF		; ...AND A <CRLF>
	002436	004737 	000000G			 JSR	PC,.TCRLF
   2797
   2798					;	[CONTINUED ON THE FOLLOWING PAGE]
EDTEN -- DEPOSIT / EXAMINE TEN 	MACRO V05.04  Tuesday 17-May-88 14:36  Page 68
.DPOST -- THE "DEPOSIT <TEN>" COMMAND 7602.15

   2800					;	[CONTINUED FROM THE PREVIOUS PAGE]
   2801
   2802	002442					POP	R1		; ...POINT TO THE DEPOSIT BLOCK
	002442	012601 				 MOV	(SP)+,R1
   2803	002444	012700 	000200 			MOV	#ED.PHY,R0	; ..PHYSICAL REFERENCE
   2804	002450					CALL	.DPKLM		; ..DO THE DEPOSIT
	002450	004737 	000000G			 JSR	PC,.DPKLM
   2805	002454	005737 	000000G			TST	.VFYFL		; ..VERIFY THE DEPOSIT?
   2806	002460	001426 				BEQ	20$		; ..NO -- JUST EXIT
   2807	002462	012766 	000000G	000002 		MOV	#.EXBFR,2(SP)	; ..YES -- CHANGE THE BUFFER POINTER
   2808	002470	012700 	000200 			MOV	#ED.PHY,R0	; ..PHYSICAL REFERENCE
   2809	002474					CALL	.EXKLM		; ..EXAMINE IT
	002474	004737 	000000G			 JSR	PC,.EXKLM
   2810	002500	012700 	000000G			MOV	#.DPBFR,R0	; ..DEPOSITED DATA
   2811	002504	012701 	000000G			MOV	#.EXBFR,R1	; ..EXAMINED DATA
   2812	002510					CALL	.TPCMP		; ..SEE IF THEY COMPARE
	002510	004737 	000000G			 JSR	PC,.TPCMP
   2813	002514	001020 				BNE	DPOVFE		; ..NO -- COMPLAIN
   2814	002516					CALL	.STPKL		; ..STOP THE KL
	002516	004737 	000000G			 JSR	PC,.STPKL
   2815	002522					CALL	.RDAPR		; ..SEE IF THERE ARE ANY APR ERRORS
	002522	004737 	003274'			 JSR	PC,.RDAPR
   2816	002526					CALL	.RSTKL		; ..RESTART THE KL
	002526	004737 	000000G			 JSR	PC,.RSTKL
   2817	002532	005700 				TST	R0		; ..ARE THERE ANY ERRORS?
   2818	002534	001002 				BNE	DPOAPE		; ..YES -- COMPLAIN
   2819	002536				20$:
   2820	002536	022626 				CMP	(SP)+,(SP)+	; ..CLEAR THE STACK
   2821	002540					RETURN			; TO CALLER
	002540	000207 				 RTS	PC
   2822	002542				DPOAPE:
   2823	002542					ERROR$	APE		; ERROR -- KL APR ERROR
	002542	012746 	004305 			 MOV	#^RAPE,-(SP)
	002546	104400 				 TRAP	TC.ERR
   2824						;
   2825	002550				DPOKCN:
   2826	002550					ERROR$	KCN		; ERROR -- KL CLOCK NOT RUNNING
	002550	012746 	042506 			 MOV	#^RKCN,-(SP)
	002554	104400 				 TRAP	TC.ERR
   2827						;
   2828	002556				DPOVFE:
   2829	002556					ERROR$	VFY		; ERROR -- VERIFY FAILED
	002556	012746 	105211 			 MOV	#^RVFY,-(SP)
	002562	104400 				 TRAP	TC.ERR
   2830						;
EDTEN -- DEPOSIT / EXAMINE TEN 	MACRO V05.04  Tuesday 17-May-88 14:36  Page 69
.DPKLD -- THE "DEPOSIT <TEN> <NUMERICAL OBJECT>" COMMAND 7602.

   2832					.SBTTL	.DPKLD -- THE "DEPOSIT <TEN> <NUMERICAL OBJECT>" COMMAND 7602.29
   2833
   2834						.ENABL	LSB
   2835
   2836	002564				.DPKLT::			; DEPOSIT <TEN> THIS
   2837	002564	012700 	000000G			MOV	#.EDKLX,R0	; ADDRESS POINTER TO R0
   2838	002570	000413 				BR	10$		; CHECK FOR ARGUMENTS
   2839						;
   2840	002572				.DPKLD::			; DEPOSIT <TEN> DECREMENT
   2841	002572					CALL	.EDKLD		; DO THE DECREMENT
	002572	004737 	000444'			 JSR	PC,.EDKLD
   2842	002576	000410 				BR	10$		; EXIT THRU COMMON CODE
   2843						;
   2844	002600				.DPKLI::			; DEPOSIT <TEN> INCREMENT
   2845	002600					CALL	.EDKLI		; DO THE INCREMENT
	002600	004737 	000462'			 JSR	PC,.EDKLI
   2846	002604	000405 				BR	10$		; EXIT THRU COMMON CODE
   2847						;
   2848	002606				.DPKLN::			; DEPOSIT <TEN> NEXT
   2849	002606					CALL	.EDKLN		; GO GET NEXT ADDRESS
	002606	004737 	000432'			 JSR	PC,.EDKLN
   2850	002612	000402 				BR	10$		; EXIT THRU COMMON CODE
   2851						;
   2852	002614				.DPKLP::			; DEPOSIT <TEN> PREVIOUS
   2853	002614					CALL	.EDKLP		; GO GET PREVIOUS ADDRESS
	002614	004737 	000420'			 JSR	PC,.EDKLP
   2854	002620				10$:
   2855	002620	010001 				MOV	R0,R1		; ADDRESS POINTER TO R1
   2856	002622	122715 	000075 			CMPB	#'=,(R5)	; IS THERE AN ARGUMENT FOLLOWING?
   2857	002626	001403 				BEQ	20$		; YES -- GO GET IT
   2858	002630	012700 	000000G			MOV	#.DPBFX,R0	; NO -- USE OLD DATA
   2859	002634	000627 				BR	.DPSTE		; AND DO THE DEPOSIT
   2860						;
   2861	002636				20$:
   2862	002636	105725 				TSTB	(R5)+		; GET OVER THE COLON
   2863	002640	012700 	000000G			MOV	#.DPBFX,R0	; POINT TO THE DATA BUFFER
   2864	002644					CALL	.GTKLN		; GET A NUMBER
	002644	004737 	000000G			 JSR	PC,.GTKLN
   2865	002650	000621 				BR	.DPSTE		; DO THE DEPOSIT
   2866						;
   2867
   2868						.DSABL	LSB
EDTEN -- DEPOSIT / EXAMINE TEN 	MACRO V05.04  Tuesday 17-May-88 14:36  Page 70
.EXAMT -- THE "EXAMINE <TEN>" COMMAND 7602.05

   2870					.SBTTL	.EXAMT -- THE "EXAMINE <TEN>" COMMAND 7602.05
   2871
   2872					;+
   2873					; .EXAMT -- THE "EXAMINE <TEN>" COMMAND.
   2874					;
   2875					; THIS SUBROUTINE READS A KL ADDRESS, EXAMINES THAT ADDRESS,
   2876					; AND PRINTS THE CONTENT OF THAT ADDRESS.
   2877					;
   2878					; INPUT ARGUMENTS:
   2879					;
   2880					;	NONE.
   2881					;
   2882					; OUTPUT ARGUMENTS:
   2883					;
   2884					;	NONE.
   2885					;
   2886					; ERROR CODES RETURNED:
   2887					;
   2888					;	EMF -- EXAMINE MEMORY FAILED.
   2889					;	ESE -- EBOX STOPPED - EXAMINE
   2890					;	KLA -- KL ADDRESS ERROR
   2891					;	KCN -- KL CLOCK NOT RUNNING
   2892					;	MRA -- MISSING REQUIRED ARGUMENT
   2893					;-
   2894
   2895	002652				.EXAMT::
   2896	002652					CALL	.CKARG		; SEE IF WE HAVE AN ARGUMENT
	002652	004737 	000000G			 JSR	PC,.CKARG
   2897	002656	002406 				BLT	10$		; NUMERIC -- GO AROUND TABLE SCAN
   2898	002660	012700 	000000G			MOV	#.EXETB,R0	; EXTENSION TABLE POINTER TO R0
   2899	002664					CALL	.TSCAN		; SCAN THE TABLE
	002664	004737 	000000G			 JSR	PC,.TSCAN
   2900	002670					CALLR	@2(R0)		; DO WHAT IT SAYS TO
	002670	000170 	000002 			 JMP	@2(R0)
   2901						;
   2902	002674				10$:
   2903	002674	012700 	000000G			MOV	#.EDKLX,R0	; POINT TO ADDRESS BUFFER
   2904	002700					CALL	.GTKLA		; GO GET THE ADDRESS
	002700	004737 	000000G			 JSR	PC,.GTKLA
   2905
   2906					;	[CONTINUED ON THE FOLLOWING PAGE]
EDTEN -- DEPOSIT / EXAMINE TEN 	MACRO V05.04  Tuesday 17-May-88 14:36  Page 71
.EXAMT -- THE "EXAMINE <TEN>" COMMAND 7602.05

   2908					;	[CONTINUED FROM THE PREVIOUS PAGE]
   2909
   2910	002704				.EXMTE::			; EXTENDED EXAMINE ENTRY POINT
   2911	002704					CALL	.CKEOC		; CHECK E-O-C CHARACTER
	002704	004737 	000000G			 JSR	PC,.CKEOC
   2912	002710	012037 	000076'			MOV	(R0)+,STOPTX	; [5.1014]SAVE INITIAL ADDRESS
   2913	002714	012037 	000100'			MOV	(R0)+,STOPTX+2	; [5.1014]SAVE INITIAL ADDRESS
   2914	002720	011037 	000102'			MOV	(R0),STOPTX+4	; [5.1014]SAVE INITIAL ADDRESS
   2915	002724	024040 				CMP	-(R0),-(R0)	; [5.1014]RESTORE POINTER
   2916	002726	032737 	100000 	000000G	1$:	BIT	#KF.CLK,.KLFLG	; IS THE KL CLOCK ON?
   2917	002734	001535 				BEQ	EXTKCN		; NO -- GIVE "KCN" ERROR
   2918	002736					PUSH	R0		; [5.1014]YES -- SAVE ADDRESS POINTER
	002736	010046 				 MOV	R0,-(SP)
   2919	002740					PUSH	#.EXBFR		; SAVE THE DATA POINTER
	002740	012746 	000000G			 MOV	#.EXBFR,-(SP)
   2920	002744	012702 	000000G			MOV	#.EDKLA,R2	; .ADDRESS BUFFER POINTER TO R2
   2921	002750	012022 				MOV	(R0)+,(R2)+	; .LOAD THE NEW ADDRESS
   2922	002752	012022 				MOV	(R0)+,(R2)+	; .INTO THE ADDRESS BUFFER
   2923	002754	011012 				MOV	(R0),(R2)	; .SO
   2924	002756	024242 				CMP	-(R2),-(R2)	; .BACK THE POINTER UP
   2925	002760					PUSH	R2		; .ADDRESS POINTER
	002760	010246 				 MOV	R2,-(SP)
   2926	002762	010601 				MOV	SP,R1		; ..POINT TO THE DATA BLOCK
   2927	002764	012700 	000200 			MOV	#ED.PHY,R0	; ..PHYSICAL REFERENCE
   2928	002770					CALL	.EXKLM		; ..DO THE EXAMINE
	002770	004737 	000000G			 JSR	PC,.EXKLM
   2929	002774					POP	R0		; ..POINT TO THE ADDRESS
	002774	012600 				 MOV	(SP)+,R0
   2930	002776					CALL	.TYKLA		; .PRINT THE ADDRESS
	002776	004737 	000000G			 JSR	PC,.TYKLA
   2931	003002					CALL	.TYSLS		; .TYPE A SLASH
	003002	004737 	000000G			 JSR	PC,.TYSLS
   2932	003006					CALL	.TYSPC		; .AND A SPACE
	003006	004737 	000000G			 JSR	PC,.TYSPC
   2933	003012					POP	R0		; .POINT TO THE DATA
	003012	012600 				 MOV	(SP)+,R0
   2934	003014					CALL	.TYKLN		; PRINT THE DATA
	003014	004737 	000000G			 JSR	PC,.TYKLN
   2935	003020					CALL	.TCRLF		; AND END THE LINE
	003020	004737 	000000G			 JSR	PC,.TCRLF
   2936	003024					POP	R0		; [5.1014]RESTORE ADDRESS POINTER
	003024	012600 				 MOV	(SP)+,R0
   2937	003026	005737 	000112'		5$:	TST	RNGTX		; [5.1014]RANGE IN PROGRESS?
   2938	003032	001412 				BEQ	7$		; [5.1014]NO -- GO ON
   2939	003034	012701 	000076'			MOV	#STOPTX,R1	; [5.1014]YES -- FINAL ADDRESS
   2940	003040					CALL	.TPCMP		; [5.1014]DONE?
	003040	004737 	000000G			 JSR	PC,.TPCMP
   2941	003044	001405 				BEQ	7$		; [5.1014]YES -- GO ON
   2942	003046	012701 	000104'			MOV	#INCTX,R1	; [5.1014]NO -- POINT TO INCREMENT
   2943	003052					CALL	.TPADD		; [5.1014]INCREMENT ADDRESS
	003052	004737 	000000G			 JSR	PC,.TPADD
   2944	003056	000723 				BR	1$		; [5.1014]EXAMINE NEXT ADDRESS
   2945	003060	005037 	000112'		7$:	CLR	RNGTX		; [5.1014]CLEAR RANGE IN PROGRESS FLAG
   2946	003064	122715 	000054 			CMPB	#',,(R5)	; [5.1014]IS THIS A LIST?
   2947	003070	001002 				BNE	20$		; [5.1014]NO -- GO NO
   2948	003072	105725 				TSTB	(R5)+		; [5.1014]YES -- REMOVE COMMA
   2949	003074	000666 				BR	.EXAMT		; [5.1014]DO NEXT
EDTEN -- DEPOSIT / EXAMINE TEN 	MACRO V05.04  Tuesday 17-May-88 14:36  Page 71-1
.EXAMT -- THE "EXAMINE <TEN>" COMMAND 7602.05

   2950	003076	122715 	000072 		20$:	CMPB	#':,(R5)	; [5.1014]IS THIS A RANGE?
   2951	003102	001051 				BNE	40$		; [5.1014]NO -- GO ON
   2952	003104	105725 				TSTB	(R5)+		; [5.1014]YES -- REMOVE COLON
   2953	003106					CALL	.GTKLA		; [5.1014]GET FINAL ADDRESS
	003106	004737 	000000G			 JSR	PC,.GTKLA
   2954	003112					CALL	.CKEOC		; [5.1014]CHECK FOR END OF COMMAND
	003112	004737 	000000G			 JSR	PC,.CKEOC
   2955	003116	005237 	000112'			INC	RNGTX		; [5.1014]SET RANGE IN PROGRESS
   2956	003122	012737 	000001 	000104'		MOV	#1,INCTX	; [5.1014]SET FORWARD RANGE
   2957	003130	005037 	000106'			CLR	INCTX+2		; [5.1014]CLEAR INCREMENT
   2958	003134	005037 	000110'			CLR	INCTX+4		; [5.1014]CLEAR INCREMENT
   2959	003140	012701 	000076'			MOV	#STOPTX,R1	; [5.1014]INITIAL ADDRESS POINTER
   2960	003144					CALL	.TPCMP		; [5.1014]FORWARD RANGE?
	003144	004737 	000000G			 JSR	PC,.TPCMP
   2961	003150	003006 				BGT	30$		; [5.1014]YES -- GO ON
   2962	003152					PUSH	R0		; [5.1014]NO -- SAVE FINAL ADDRESS
	003152	010046 				 MOV	R0,-(SP)
   2963	003154	012700 	000104'			MOV	#INCTX,R0	; [5.1014]RANGE INCREMENT
   2964	003160					CALL	.TPNEG		; [5.1014]NEGATE IT
	003160	004737 	000000G			 JSR	PC,.TPNEG
   2965	003164					POP	R0		; [5.1014]RESTORE ADDRESS
	003164	012600 				 MOV	(SP)+,R0
   2966	003166				30$:	PUSH	STOPTX		; [5.1014]SAVE INITIAL ADDRESS
	003166	013746 	000076'			 MOV	STOPTX,-(SP)
   2967	003172					PUSH	STOPTX+2	; [5.1014]SAVE INITIAL ADDRESS
	003172	013746 	000100'			 MOV	STOPTX+2,-(SP)
   2968	003176					PUSH	STOPTX+4	; [5.1014]SAVE INITIAL ADDRESS
	003176	013746 	000102'			 MOV	STOPTX+4,-(SP)
   2969	003202	012037 	000076'			MOV	(R0)+,STOPTX	; [5.1014]SET FINAL ADDRESS
   2970	003206	012037 	000100'			MOV	(R0)+,STOPTX+2	; [5.1014]SET FINAL ADDRESS
   2971	003212	012037 	000102'			MOV	(R0)+,STOPTX+4	; [5.1014]SET FINAL ADDRESS
   2972	003216					POP	-(R0)		; [5.1014]SET INITIAL ADDRESS
	003216	012640 				 MOV	(SP)+,-(R0)
   2973	003220					POP	-(R0)		; [5.1014]SET INITIAL ADDRESS
	003220	012640 				 MOV	(SP)+,-(R0)
   2974	003222					POP	-(R0)		; [5.1014]SET INITIAL ADDRESS
	003222	012640 				 MOV	(SP)+,-(R0)
   2975	003224	000700 				BR	5$		; [5.1014]DO INCREMENT
   2976	003226				40$:	RETURN			; [5.1014]EXIT
	003226	000207 				 RTS	PC
   2977						;
   2978	003230				EXTKCN:
   2979	003230					ERROR$	KCN		; ERROR -- KL CLOCK NOT RUNNING
	003230	012746 	042506 			 MOV	#^RKCN,-(SP)
	003234	104400 				 TRAP	TC.ERR
   2980						;
   2981
   2982	000076				.PSECT	DATA
   2983
   2984	000076	000000 	000000 	000000 	STOPTX:	.WORD	0,0,0		; [5.1014]FINAL/FIRST ADDRESS
   2985	000104	000000 	000000 	000000 	INCTX:	.WORD	0,0,0		; [5.1014]RANGE INCREMENT
   2986	000112	000000 			RNGTX:	.WORD	0		; [5.1014]RANGE IN PROGRESS FLAG
   2987
   2988	003236				.PSECT
EDTEN -- DEPOSIT / EXAMINE TEN 	MACRO V05.04  Tuesday 17-May-88 14:36  Page 72
.EXKLD -- THE "DEPOSIT <TEN> <NUMERICAL OBJECT>" COMMAND 7609.

   2990					.SBTTL	.EXKLD -- THE "DEPOSIT <TEN> <NUMERICAL OBJECT>" COMMAND 7609.10
   2991
   2992						.ENABL	LSB
   2993
   2994	003236				.EXKLT::			; EXAMINE <TEN> THIS
   2995	003236	012700 	000000G			MOV	#.EDKLA,R0	; ADDRESS POINTER TO R0
   2996	003242	000620 				BR	.EXMTE		; DO THE EXAMINE
   2997						;
   2998	003244				.EXKLD::			; EXAMINE <TEN> DECREMENT
   2999	003244					CALL	.EDKLD		; DECREMENT IT
	003244	004737 	000444'			 JSR	PC,.EDKLD
   3000	003250	000615 				BR	.EXMTE		; DO THE EXAMINE
   3001						;
   3002	003252				.EXKLI::			; EXAMINE <TEN> INCREMENT
   3003	003252					CALL	.EDKLI		; INCREMENT IT
	003252	004737 	000462'			 JSR	PC,.EDKLI
   3004	003256	000612 				BR	.EXMTE		; DO THE EXAMINE
   3005						;
   3006	003260				.EXKLN::			; EXAMINE <TEN> NEXT
   3007	003260					CALL	.EDKLN		; GET NEXT ADDRESS
	003260	004737 	000432'			 JSR	PC,.EDKLN
   3008	003264	000607 				BR	.EXMTE		; DO THE EXAMINE
   3009						;
   3010	003266				.EXKLP::			; EXAMINE <TEN> PREVIOUS
   3011	003266					CALL	.EDKLP		; GET THE PREVIOUS ADDDRESS
	003266	004737 	000420'			 JSR	PC,.EDKLP
   3012	003272	000604 				BR	.EXMTE		; DO THE EXAMINE
   3013						;
   3014
   3015						.DSABL	LSB
EDTEN -- DEPOSIT / EXAMINE TEN 	MACRO V05.04  Tuesday 17-May-88 14:36  Page 73
.RDAPR -- SUBROUTINE TO READ THE STATE OF THE KL APR 7509.24

   3017					.SBTTL	.RDAPR -- SUBROUTINE TO READ THE STATE OF THE KL APR 7509.24
   3018
   3019					;+
   3020					; .RDAPR -- SUBROUTINE TO READ THE STATE OF THE KL APR.
   3021					;
   3022					; THIS SUBROUTINE READS THE ERROR STATE OF THE KL APR AND RETURNS
   3023					; THAT ERROR STATE IN R0 AND ".APRWD".
   3024					;
   3025					; THE FORMAT OF THE DATA RETURNED IS:
   3026					;
   3027					;	AP.PWF -- BIT00 -- [APR PWR FAIL IN H] -- POWER FAIL
   3028					;	AP.SAP -- BIT01 -- [APR S ADR P ERR IN H] -- SBUS ADR PARITY ERROR
   3029					;	AP.CDP -- BIT02 -- [APR C DIR P ERR IN H] -- CACHE DIR PARITY ERROR
   3030					;	AP.MPE -- BIT03 -- [APR MB PAR ERR IN H] -- MB PARITY ERROR
   3031					;	AP.IPF -- BIT04 -- [APR I/O PF ERR IN H] -- I/O PAGE FAIL ERROR
   3032					;	AP.NXM -- BIT05 -- [APR NXM ERR IN H] -- NON-EX-MEMORY ERROR
   3033					;	AP.SBE -- BIT06 -- [APR SBUS ERR IN H] -- SBUS ERROR
   3034					;
   3035					; INPUT ARGUMENTS:
   3036					;
   3037					;	NONE.
   3038					;
   3039					; OUTPUT ARGUMENTS:
   3040					;
   3041					;	R0 CONTAINS A COPY OF THE KL APR ERROR FLAGS
   3042					;	".APRWD" CONTAINS A COPY OF THE KL APR ERROR FLAGS
   3043					;
   3044					; ERROR CODES RETURNED:
   3045					;
   3046					;	FRF -- FUNCTION READ FAILED.
   3047					;-
   3048
   3049	003274				.RDAPR::
   3050	003274					PUSH	R1		; SAVE R1 ON THE STACK
	003274	010146 				 MOV	R1,-(SP)
   3051	003276	005001 				CLR	R1		; .CLEAR R1
   3052	003300	012700 	000220 			MOV	#FR.APR,R0	; .FR TO READ APR ERRORS
   3053	003304					CALL	.FREAD		; .READ APR ERRORS
	003304	004737 	000000G			 JSR	PC,.FREAD
   3054	003310	012701 	177751 			MOV	#-^D23,R1	; .SHIFT COUNT TO R1
   3055	003314					CALL	.TPSHI		; .SHIFT ERROR BITS INTO POSITION
	003314	004737 	000000G			 JSR	PC,.TPSHI
   3056	003320	042710 	177600 			BIC	#177600,(R0)	; .FLUSH UNWANTED BITS
   3057	003324	011037 	000000G			MOV	(R0),.APRWD	; .SAVE THE WORD
   3058	003330	011000 				MOV	(R0),R0		; .PUT A COPY IN R0
   3059	003332					POP	R1		; .RESTORE R1
	003332	012601 				 MOV	(SP)+,R1
   3060	003334					RETURN			; AND GO AWAY
	003334	000207 				 RTS	PC
   3061						;
EDTEN -- DEPOSIT / EXAMINE TEN 	MACRO V05.04  Tuesday 17-May-88 14:36  Page 75
.RDAPR -- SUBROUTINE TO READ THE STATE OF THE KL APR 7509.24

   3064
   3065
   3066					;
   3067					;                             COPYRIGHT (C)  1985 BY
   3068					;                     DIGITAL EQUIPMENT CORPORATION, MAYNARD MASS.
   3069					;			ALL RIGHTS RESERVED.
   3070					;       THIS SOFTWARE IS FURNISHED UNDER A LICENSE AND MAY BE  USED  AND  COPIED
   3071					;       ONLY IN ACCORDANCE WITH THE TERMS OF SUCH LICENSE AND WITH THE INCLUSION
   3072					;       OF THE ABOVE COPYRIGHT NOTICE.  THIS SOFTWARE OR ANY OTHER COPIES THERE-
   3073					;       OF  MAY NOT BE PROVIDED OR OTHERWISE MADE AVAILABLE TO ANY OTHER PERSON.
   3074					;       NO TITLE TO OR OWNERSHIP OF THE SOFTWARE IS HEREBY TRANSFERRED.
   3075					;
   3076					;       THE INFORMATION CONTAINED IN THIS SOFTWARE IS SUBJECT TO CHANGE  WITHOUT
   3077					;       NOTICE  AND SHOULD NOT BE CONSTRUED AS A COMMITMENT BY DIGITAL EQUIPMENT
   3078					;       CORPORATION.
   3079					;
   3080					;       DIGITAL ASSUMES NO RESPONSIBILITY FOR THE  USE  OR  RELIABILITY  OF  ITS
   3081					;       SOFTWARE ON EQUIPMENT WHICH IS NOT SUPPILED BY DIGITAL.
   3082					;
   3083					;		MODULE: EXAMINE EBR/UBR
   3084					;
   3085					;		VERSION: 01-00
   3086					;
   3087					;		AUTHOR: M. RUDENKO
   3088					;
   3089					;		DATE: 8504.02
   3090					;
   3091					;
EDTEN -- DEPOSIT / EXAMINE TEN 	MACRO V05.04  Tuesday 17-May-88 14:36  Page 76
.RDAPR -- SUBROUTINE TO READ THE STATE OF THE KL APR 7509.24

   3093					; .EBRUBR -- EXAMINE EBR/UBR COMMAND
   3094
   3095					;+
   3096					; EBRUBR -- THE EXAMINE EBR/ EXAMINE UBR COMMAND
   3097					;
   3098					;
   3099					; INPUT ARGUMENTS:
   3100					;
   3101					; 	R0 POINTS TO THE KL INSTRUCTION TO BE EXECUTED.
   3102					;
   3103					; OUTPUT ARGUMENTS:
   3104					;
   3105					;	NONE.
   3106					;
   3107					; ERROR CODES RETURNED:
   3108					;
   3109					;	IOC -- ILLEGAL KL OPCODE.
   3110					;	MRA -- MISSING REQUIRED ARGUMENT.
   3111					;	XTO -- KL EXECUTE TIMED OUT.
   3112					;-
   3113	000114					.PSECT	DATA
   3114	000114	000000 			EPTUPT:	.WORD	0		; CONTROL FLAG
   3115	000116	000000 	000000 	000000 	OFFSET::	.WORD	0,0,0		; OFFSET INTO PAGE TABLE
   3116	000124				GETEBR::	IOKL$	CONI,PAG,,100
	000124	   100 	   000 			 .BYTE	$$A,$$B
	000126	   200 	   012 			 .BYTE	$$C,$$D
	000130	   016 	   000 			 .BYTE	$$E,$$F
   3117	000132				GETUBR::	IOKL$	DATAI,PAG,,100
	000132	   100 	   000 			 .BYTE	$$A,$$B
	000134	   200 	   010 			 .BYTE	$$C,$$D
	000136	   016 	   000 			 .BYTE	$$E,$$F
   3118
   3119	003336					.PSECT
   3120						.ENABL	LSB
   3121
   3122	003336	005237 	000114'		.EXEBR::	INC	EPTUPT
   3123	003342	000402 				BR	5$
   3124	003344	005037 	000114'		.EXUBR::	CLR	EPTUPT
   3125	003350				5$:		PUSH <R0,R1>
	003350	010046 				 MOV	R0,-(SP)
	003352	010146 				 MOV	R1,-(SP)
   3126	003354	012700 	000116'			MOV	#OFFSET,R0
   3127	003360					CALL	.GTKLA
	003360	004737 	000000G			 JSR	PC,.GTKLA
   3128	003364	012700 	000132'			MOV	#GETUBR,R0
   3129	003370	005737 	000114'			TST	EPTUPT
   3130	003374	001402 				BEQ	20$
   3131	003376	012700 	000124'			MOV	#GETEBR,R0
   3132	003402				20$:	CALL	.EXCTF
	003402	004737 	000000G			 JSR	PC,.EXCTF
   3133
   3134	003406	012737 	000100 	000000G		MOV	#100,.EDKLX
   3135	003414	005037 	000002G			CLR	.EDKLX+2
   3136	003420	005037 	000004G			CLR	.EDKLX+4
   3137	003424					PUSH	#.EXBFR
	003424	012746 	000000G			 MOV	#.EXBFR,-(SP)
   3138	003430					PUSH	#.EDKLX
EDTEN -- DEPOSIT / EXAMINE TEN 	MACRO V05.04  Tuesday 17-May-88 14:36  Page 76-1
.RDAPR -- SUBROUTINE TO READ THE STATE OF THE KL APR 7509.24

	003430	012746 	000000G			 MOV	#.EDKLX,-(SP)
   3139	003434	010601 				MOV	SP,R1
   3140	003436	012700 	000200 			MOV	#ED.PHY,R0
   3141	003442					CALL	.EXKLM
	003442	004737 	000000G			 JSR	PC,.EXKLM
   3142	003446	005726 				TST	(SP)+
   3143	003450	005726 				TST	(SP)+
   3144	003452	012700 	000000G			MOV	#.EXBFR,R0
   3145	003456	012701 	000011 			MOV	#11,R1
   3146	003462					CALL	.TPSHI
	003462	004737 	000000G			 JSR	PC,.TPSHI
   3147	003466	012701 	000116'			MOV	#OFFSET,R1
   3148	003472					CALL	.TPADD
	003472	004737 	000000G			 JSR	PC,.TPADD
   3149	003476	012701 	000006G			MOV	#.EXBFR+6,R1
   3150	003502	012700 	000006G			MOV	#.EDKLX+6,R0
   3151	003506	014140 				MOV	-(R1),-(R0)
   3152	003510	014140 				MOV	-(R1),-(R0)
   3153	003512	014140 				MOV	-(R1),-(R0)
   3154	003514					CALL	.EXMTE
	003514	004737 	002704'			 JSR	PC,.EXMTE
   3155	003520					POP	<R1,R0>
	003520	012601 				 MOV	(SP)+,R1
	003522	012600 				 MOV	(SP)+,R0
   3156	003524					RETURN
	003524	000207 				 RTS	PC
   3157						.DSABL	LSB
   3158
EDTEN -- DEPOSIT / EXAMINE TEN 	MACRO V05.04  Tuesday 17-May-88 14:36  Page 77
.RDAPR -- SUBROUTINE TO READ THE STATE OF THE KL APR 7509.24

   3160
   3161
   3162					.TITLE	EXCTC -- EXECUTE (XCT) COMMAND MODULE 7603.30
   3163
   3164						.IDENT	"005000"
   3165					;
   3166					;                             COPYRIGHT (C) 1975, 1984, 1985 BY
   3167					;                     DIGITAL EQUIPMENT CORPORATION, MAYNARD MASS.
   3168					;			ALL RIGHTS RESERVED.
   3169					;       THIS SOFTWARE IS FURNISHED UNDER A LICENSE AND MAY BE  USED  AND  COPIED
   3170					;       ONLY IN ACCORDANCE WITH THE TERMS OF SUCH LICENSE AND WITH THE INCLUSION
   3171					;       OF THE ABOVE COPYRIGHT NOTICE.  THIS SOFTWARE OR ANY OTHER COPIES THERE-
   3172					;       OF  MAY NOT BE PROVIDED OR OTHERWISE MADE AVAILABLE TO ANY OTHER PERSON.
   3173					;       NO TITLE TO OR OWNERSHIP OF THE SOFTWARE IS HEREBY TRANSFERRED.
   3174					;
   3175					;       THE INFORMATION CONTAINED IN THIS SOFTWARE IS SUBJECT TO CHANGE  WITHOUT
   3176					;       NOTICE  AND SHOULD NOT BE CONSTRUED AS A COMMITMENT BY DIGITAL EQUIPMENT
   3177					;       CORPORATION.
   3178					;
   3179					;       DIGITAL ASSUMES NO RESPONSIBILITY FOR THE  USE  OR  RELIABILITY  OF  ITS
   3180					;       SOFTWARE ON EQUIPMENT WHICH IS NOT SUPPILED BY DIGITAL.
   3181					;
   3182					;		MODULE: EXECUTE COMMAND
   3183					;
   3184					;		VERSION: 05-00
   3185					;
   3186					;		AUTHOR: R. BELANGER
   3187					;
   3188					;		DATE: 7603.30
   3189					;
   3190					;	THIS MODULE CONTAINS:
   3191					;
   3192					;	1) EXECUTE COMMAND CODE
EXCTC -- EXECUTE (XCT) COMMAND 	MACRO V05.04  Tuesday 17-May-88 14:36  Page 78
.EXCTC -- THE "XCT" (EXECUTE) COMMAND 7602.17

   3194					.SBTTL	.EXCTC -- THE "XCT" (EXECUTE) COMMAND 7602.17
   3195
   3196					;+
   3197					; .EXCTC -- THE "XCT" (EXECUTE) COMMAND
   3198					;
   3199					; THIS ROUTINE SIMULATES THE "XCT" SWITCH OF THE KL CONSOLE.
   3200					;
   3201					; INPUT ARGUMENTS:
   3202					;
   3203					; 	R0 POINTS TO THE KL INSTRUCTION TO BE EXECUTED.
   3204					;
   3205					; OUTPUT ARGUMENTS:
   3206					;
   3207					;	NONE.
   3208					;
   3209					; ERROR CODES RETURNED:
   3210					;
   3211					;	IOC -- ILLEGAL KL OPCODE.
   3212					;	MRA -- MISSING REQUIRED ARGUMENT.
   3213					;	XTO -- KL EXECUTE TIMED OUT.
   3214					;-
   3215
   3216	003526				.EXCTC::			; HERE FROM PARSER
   3217	003526	005046 				CLR	-(SP)		; CLEAR A BUFFER ON THE STACK
   3218	003530	005046 				CLR	-(SP)		; .
   3219	003532	005046 				CLR	-(SP)		; ..
   3220	003534	010600 				MOV	SP,R0		; ...POINT TO IT
   3221	003536					CALL	.GTKLN		; ...READ THE INSTRUCTION
	003536	004737 	000000G			 JSR	PC,.GTKLN
   3222	003542					CALL	.CKEOC		; ...CHECK E-O-C CHARACTER
	003542	004737 	000000G			 JSR	PC,.CKEOC
   3223	003546	032760 	000017 	000004 		BIT	#17,4(R0)	; ...CHECK HIGH PART OF OPCODE
   3224	003554	001005 				BNE	10$		; ...OK -- GO ON
   3225	003556	032760 	174000 	000002 		BIT	#^C3777,2(R0)	; ...CHECK LOW PART OF OPCODE
   3226	003564	001403 				BEQ	EXCIOC		; ...NONE THERE -- GIVE "IOC" ERROR
   3227	003566	010600 				MOV	SP,R0		; ...POINT TO THE INSTRUCTION
   3228	003570				10$:
   3229	003570					CALLR	.EXECT		; ...ALL OK -- GO DO IT
	003570	000137 	000000G			 JMP	.EXECT
   3230						;
   3231	003574				EXCIOC:
   3232	003574					ERROR$	IOC		; ERROR -- ILLEGAL OPCODE
	003574	012746 	035233 			 MOV	#^RIOC,-(SP)
	003600	104400 				 TRAP	TC.ERR
   3233						;
EXCTC -- EXECUTE (XCT) COMMAND 	MACRO V05.04  Tuesday 17-May-88 14:36  Page 79
.EXCTC -- THE "XCT" (EXECUTE) COMMAND 7602.17

   3235
   3236
   3237					.TITLE	EXDTE -- EXAMINE DTE-20 REGISTERS COMMAND
   3238
   3239						.IDENT	"006110"
   3240					;
   3241					;                             COPYRIGHT (C) 1975, 1984, 1985 BY
   3242					;                     DIGITAL EQUIPMENT CORPORATION, MAYNARD MASS.
   3243					;			ALL RIGHTS RESERVED.
   3244					;       THIS SOFTWARE IS FURNISHED UNDER A LICENSE AND MAY BE  USED  AND  COPIED
   3245					;       ONLY IN ACCORDANCE WITH THE TERMS OF SUCH LICENSE AND WITH THE INCLUSION
   3246					;       OF THE ABOVE COPYRIGHT NOTICE.  THIS SOFTWARE OR ANY OTHER COPIES THERE-
   3247					;       OF  MAY NOT BE PROVIDED OR OTHERWISE MADE AVAILABLE TO ANY OTHER PERSON.
   3248					;       NO TITLE TO OR OWNERSHIP OF THE SOFTWARE IS HEREBY TRANSFERRED.
   3249					;
   3250					;       THE INFORMATION CONTAINED IN THIS SOFTWARE IS SUBJECT TO CHANGE  WITHOUT
   3251					;       NOTICE  AND SHOULD NOT BE CONSTRUED AS A COMMITMENT BY DIGITAL EQUIPMENT
   3252					;       CORPORATION.
   3253					;
   3254					;       DIGITAL ASSUMES NO RESPONSIBILITY FOR THE  USE  OR  RELIABILITY  OF  ITS
   3255					;       SOFTWARE ON EQUIPMENT WHICH IS NOT SUPPILED BY DIGITAL.
   3256					;
   3257					;		MODULE: EXAMINE DTE-20 COMMAND
   3258					;
   3259					;		VERSION: 06-11
   3260					;
   3261					;		AUTHOR: K. LEFEBVRE
   3262					;
   3263					;		DATE: 24-SEP-79
   3264					;
   3265					;	THIS MODULE CONTAINS:
   3266					;
   3267					;	1) EXAMINE DTE-20 REGISTERS COMMAND
   3268
   3269						.MCALL	.INH6,.ENB6
EXDTE -- EXAMINE DTE-20 REGISTE	MACRO V05.04  Tuesday 17-May-88 14:36  Page 80
.EXDTE -- THE "EXAMINE DTE-20" COMMAND 7603.20

   3271					.SBTTL	.EXDTE -- THE "EXAMINE DTE-20" COMMAND 7603.20
   3272
   3273					;+
   3274					; .EXDTE -- THE "EXAMINE DTE-20" COMMAND.
   3275					;
   3276					; THIS ROUTINE WILL READ AND DISPLAY THE CONTENTS OF ALL THE DTE-20
   3277					; REGISTERS ON THE CONSOLE DEVICE.
   3278					;
   3279					;	THIS ROUTINE TYPES OUT ALL THE REGISTERS IN THE NEW FORMAT
   3280					;	AS WAS REQUIRED FOR TCO 5.1001
   3281					;
   3282					; INPUT ARGUMENTS:
   3283					;
   3284					;	NONE.
   3285					;
   3286					; OUTPUT ARGUMENTS:
   3287					;
   3288					;	NONE.
   3289					;
   3290					; ERROR CODES RETURNED:
   3291					;
   3292					;	NONE.
   3293					;-
   3294
   3295	003602				.EXDTE::
   3296	003602					CALL	.CKEOC		; CHECK E-O-C
	003602	004737 	000000G			 JSR	PC,.CKEOC
   3297	003606					CALLR	TYPDTE		; TYPE OUT DTE REGISTERS
	003606	000137 	003612'			 JMP	TYPDTE
EXDTE -- EXAMINE DTE-20 REGISTE	MACRO V05.04  Tuesday 17-May-88 14:36  Page 81
TYPDTE -- TYPE OUT DTE REGISTERS SYMBOLICALLY

   3299					.SBTTL	TYPDTE -- TYPE OUT DTE REGISTERS SYMBOLICALLY
   3300
   3301					;+
   3302					; TYPDTE -- TYPE OUT DTE-20 REGISTERS SYMBOLLICALLY
   3303					;
   3304					; THIS ROUTINE WILL TYPE OUT THE CONTENTS OF ALL THE DTE-20 REGISTERS
   3305					; IN OCTAL AND WILL ALSO DECODE SOME OF THEM.
   3306					;
   3307					;	THIS ROUTINE WAS ADDED FOR TCO 5.1001
   3308					;
   3309					; INPUT ARGUMENTS:
   3310					;
   3311					;	NONE
   3312					;
   3313					; OUTPUT ARGUMENTS:
   3314					;
   3315					;	NONE
   3316					;
   3317					; ERROR CODES RETURNED:
   3318					;
   3319					;	NONE
   3320					;-
   3321
   3322	003612				TYPDTE:
   3323	003612	013700 	000000G			MOV	.PRDTE,R0	; DTE BASE REGISTER ADDRESS
   3324	003616	012701 	000140'			MOV	#DTEBUF,R1	; DTE REGISTER SAVE BUFFER
   3325	003622	012702 	000020 			MOV	#16.,R2		; REGISTER COUNT
   3327	003626					.INH6			; INHIBIT INTERRUPTS
	003626	013746 	177776 			MOV	@#PS,-(SP)
	003632	112737 	000300 	177776 		MOVB	#300,@#PS
   3329	003640	012021 			10$:	MOV	(R0)+,(R1)+	; SAVE DTE REGISTERS
   3330	003642	077202 				SOB	R2,10$		; DONE?
   3332	003644					.ENB6			; ENABLE INTERRUPTS
	003644	012637 	177776 			MOV	(SP)+,@#PS
   3334	003650	005002 				CLR	R2		; REGISTER COUNT
   3335	003652	016200 	000200'		20$:	MOV	DTEREG(R2),R0	; HEADER ADDRESS
   3336	003656					CALL	.TYMSG		; TYPE HEADER
	003656	004737 	000000G			 JSR	PC,.TYMSG
   3337	003662	016200 	000140'			MOV	DTEBUF(R2),R0	; REGISTER CONTENTS
   3338	003666					CALL	.TYELN		; TYPE VALUE
	003666	004737 	000000G			 JSR	PC,.TYELN
   3339	003672					CALL	@SYMTAB(R2)	; TYPE  CONTENTS SYMBOLLICALLY
	003672	004772 	000240'			 JSR	PC,@SYMTAB(R2)
   3340	003676	005722 				TST	(R2)+		; NEXT REGISTER
   3341	003700	020227 	000036 			CMP	R2,#30.		; DONE?
   3342	003704	003762 				BLE	20$		; NO
   3343	003706					RETURN			; YES
	003706	000207 				 RTS	PC
   3344
   3345	000140				.PSECT	DATA
   3346
   3347	000140				DTEBUF:	.BLKW	16.		; REGISTER BUFFER
   3348
   3349	000200				DTEREG:				; HEADER TEXT POINTERS
   3350	000200	000004'				.WORD	HDDLY
   3351	000202	000015'				.WORD	HDDEX3
   3352	000204	000030'				.WORD	HDDEX2
EXDTE -- EXAMINE DTE-20 REGISTE	MACRO V05.04  Tuesday 17-May-88 14:36  Page 81-1
TYPDTE -- TYPE OUT DTE REGISTERS SYMBOLICALLY

   3353	000206	000043'				.WORD	HDDEX1
   3354	000210	000056'				.WORD	HDTAD1
   3355	000212	000071'				.WORD	HDTAD2
   3356	000214	000102'				.WORD	HDT10B
   3357	000216	000115'				.WORD	HDT11B
   3358	000220	000126'				.WORD	HDT10A
   3359	000222	000141'				.WORD	HDT11A
   3360	000224	000152'				.WORD	HDT10D
   3361	000226	000165'				.WORD	HDT11D
   3362	000230	000176'				.WORD	HDDAG1
   3363	000232	000211'				.WORD	HDDAG2
   3364	000234	000224'				.WORD	HDSTAT
   3365	000236	000237'				.WORD	HDDAG3
   3366
   3367	000240				SYMTAB:				; SYMBOLIC TYPE ROUTINES
   3368	000240	000300'				.WORD	NOOP			; DLYCNT
   3369	000242	000300'				.WORD	NOOP			; DEXWD3
   3370	000244	000300'				.WORD	NOOP			; DEXWD2
   3371	000246	003746'				.WORD	TYPDX1			; DEXWD1
   3372	000250	000300'				.WORD	NOOP			; TENAD1
   3373	000252	004016'				.WORD	TYPAD2			; TENAD2
   3374	000254	000300'				.WORD	NOOP			; TO10BC
   3375	000256	000300'				.WORD	NOOP			; TO11BC
   3376	000260	000300'				.WORD	NOOP			; TO10AD
   3377	000262	000300'				.WORD	NOOP			; TO11AD
   3378	000264	000300'				.WORD	NOOP			; TO10DT
   3379	000266	000300'				.WORD	NOOP			; TO11DT
   3380	000270	004240'				.WORD	TYPDG1			; DIAG1
   3381	000272	000300'				.WORD	NOOP			; DIAG2
   3382	000274	003710'				.WORD	STATYP			; STATUS
   3383	000276	004312'				.WORD	TYPDG3			; DIAG3
   3384
   3385	000300				NOOP:	RETURN			; NO SYMBOLIC TYPE OUT
	000300	000207 				 RTS	PC
   3386
   3387	000004				.PSECT	MESSAG
   3388
   3389	000004	   104 	   114 	   131 	HDDLY:	.ASCIZ/DLYCNT: /
	000007	   103 	   116 	   124
	000012	   072 	   040 	   000
   3390	000015	   015 	   012 	   104 	HDDEX3:	.ASCIZ<15><12>/DEXWD3: /
	000020	   105 	   130 	   127
	000023	   104 	   063 	   072
	000026	   040 	   000
   3391	000030	   015 	   012 	   104 	HDDEX2:	.ASCIZ<15><12>/DEXWD2: /
	000033	   105 	   130 	   127
	000036	   104 	   062 	   072
	000041	   040 	   000
   3392	000043	   015 	   012 	   104 	HDDEX1:	.ASCIZ<15><12>/DEXWD1: /
	000046	   105 	   130 	   127
	000051	   104 	   061 	   072
	000054	   040 	   000
   3393	000056	   015 	   012 	   124 	HDTAD1:	.ASCIZ<15><12>/TENAD1: /
	000061	   105 	   116 	   101
	000064	   104 	   061 	   072
	000067	   040 	   000
   3394	000071	   124 	   105 	   116 	HDTAD2:	.ASCIZ/TENAD2: /
EXDTE -- EXAMINE DTE-20 REGISTE	MACRO V05.04  Tuesday 17-May-88 14:36  Page 81-2
TYPDTE -- TYPE OUT DTE REGISTERS SYMBOLICALLY

	000074	   101 	   104 	   062
	000077	   072 	   040 	   000
   3395	000102	   015 	   012 	   124 	HDT10B:	.ASCIZ<15><12>/TO10BC: /
	000105	   117 	   061 	   060
	000110	   102 	   103 	   072
	000113	   040 	   000
   3396	000115	   124 	   117 	   061 	HDT11B:	.ASCIZ/TO11BC: /
	000120	   061 	   102 	   103
	000123	   072 	   040 	   000
   3397	000126	   015 	   012 	   124 	HDT10A:	.ASCIZ<15><12>/TO10AD: /
	000131	   117 	   061 	   060
	000134	   101 	   104 	   072
	000137	   040 	   000
   3398	000141	   124 	   117 	   061 	HDT11A:	.ASCIZ/TO11AD: /
	000144	   061 	   101 	   104
	000147	   072 	   040 	   000
   3399	000152	   015 	   012 	   124 	HDT10D:	.ASCIZ<15><12>/TO10DT: /
	000155	   117 	   061 	   060
	000160	   104 	   124 	   072
	000163	   040 	   000
   3400	000165	   124 	   117 	   061 	HDT11D:	.ASCIZ/TO11DT: /
	000170	   061 	   104 	   124
	000173	   072 	   040 	   000
   3401	000176	   015 	   012 	   104 	HDDAG1:	.ASCIZ<15><12>/DIAG1 : /
	000201	   111 	   101 	   107
	000204	   061 	   040 	   072
	000207	   040 	   000
   3402	000211	   015 	   012 	   104 	HDDAG2:	.ASCIZ<15><12>/DIAG2 : /
	000214	   111 	   101 	   107
	000217	   062 	   040 	   072
	000222	   040 	   000
   3403	000224	   015 	   012 	   123 	HDSTAT:	.ASCIZ<15><12>/STATUS: /
	000227	   124 	   101 	   124
	000232	   125 	   123 	   072
	000235	   040 	   000
   3404	000237	   015 	   012 	   104 	HDDAG3:	.ASCIZ<15><12>/DIAG3 : /
	000242	   111 	   101 	   107
	000245	   063 	   040 	   072
	000250	   040 	   000
   3405
   3406	003710				.PSECT
EXDTE -- EXAMINE DTE-20 REGISTE	MACRO V05.04  Tuesday 17-May-88 14:36  Page 82
STATYP -- SYMBOLIC STATUS REGISTER TYPE OUT

   3408					.SBTTL	STATYP -- SYMBOLIC STATUS REGISTER TYPE OUT
   3409
   3410					;	THIS ROUTINE WAS ADDED FOR TCO 5.1001
   3411
   3412	003710				STATYP:
   3413	003710	016203 	000140'			MOV	DTEBUF(R2),R3	; DTE REGISTER CONTENTS
   3414	003714	012701 	000302'			MOV	#STATAB,R1	; FIRST MESSAGE PTR
   3415	003720	005703 			10$:	TST	R3		; REGISTER=0
   3416	003722	001410 				BEQ	30$		; YES-DONE
   3417	003724	006303 				ASL	R3		; SHIFT HIGH BIT TO CARRY
   3418	003726	103003 				BCC	20$		; BIT CLEAR?
   3419	003730	011100 				MOV	@R1,R0		; POINT TO MESSAGE
   3420	003732					CALL	.TYMSG		; NO-TYPE MESSAGE
	003732	004737 	000000G			 JSR	PC,.TYMSG
   3421	003736	062701 	000002 		20$:	ADD	#2,R1		; ADDRESS NEXT MESSAGE
   3422	003742	000766 				BR	10$		; CHECK NEXT BIT
   3423	003744				30$:	RETURN			; EXIT
	003744	000207 				 RTS	PC
   3424
   3425	000302				.PSECT	DATA
   3426
   3427	000302				STATAB:				; STATUS MESSAGE TABLE
   3428	000302	000252'				.WORD	STA15
   3429	000304	000306'				.WORD	STA14
   3430	000306	000327'				.WORD	STA13
   3431	000310	000362'				.WORD	STA12
   3432	000312	000402'				.WORD	STA11
   3433	000314	000432'				.WORD	STA10
   3434	000316	000450'				.WORD	STA9
   3435	000320	000502'				.WORD	STA8
   3436	000322	000532'				.WORD	STA7
   3437	000324	000561'				.WORD	STA6
   3438	000326	000604'				.WORD	STA5
   3439	000330	000643'				.WORD	STA4
   3440	000332	000671'				.WORD	STA3
   3441	000334	000714'				.WORD	STA2
   3442	000336	000744'				.WORD	STA1
   3443	000340	001004'				.WORD	STA0
   3444
   3445	000252				.PSECT	MESSAG
   3446
   3447	000252	   015 	   012 	   040 	STA15:	.ASCIZ<15><12>/ TO 10 NORMAL TERMINATION/
	000255	   124 	   117 	   040
	000260	   061 	   060 	   040
	000263	   116 	   117 	   122
	000266	   115 	   101 	   114
	000271	   040 	   124 	   105
	000274	   122 	   115 	   111
	000277	   116 	   101 	   124
	000302	   111 	   117 	   116
	000305	   000
   3448	000306	   015 	   012 	   040 	STA14:	.ASCIZ<15><12>/ BIT 14 UNUSED/
	000311	   102 	   111 	   124
	000314	   040 	   061 	   064
	000317	   040 	   125 	   116
	000322	   125 	   123 	   105
	000325	   104 	   000
EXDTE -- EXAMINE DTE-20 REGISTE	MACRO V05.04  Tuesday 17-May-88 14:36  Page 82-1
STATYP -- SYMBOLIC STATUS REGISTER TYPE OUT

   3449	000327	   015 	   012 	   040 	STA13:	.ASCIZ<15><12>/ TO 10 ERROR TERMINATION/
	000332	   124 	   117 	   040
	000335	   061 	   060 	   040
	000340	   105 	   122 	   122
	000343	   117 	   122 	   040
	000346	   124 	   105 	   122
	000351	   115 	   111 	   116
	000354	   101 	   124 	   111
	000357	   117 	   116 	   000
   3450	000362	   015 	   012 	   040 	STA12:	.ASCIZ<15><12>/ RAM IS ZEROS/
	000365	   122 	   101 	   115
	000370	   040 	   111 	   123
	000373	   040 	   132 	   105
	000376	   122 	   117 	   123
	000401	   000
   3451	000402	   015 	   012 	   040 	STA11:	.ASCIZ<15><12>/ 10 REQUESTED 11 INTR/
	000405	   061 	   060 	   040
	000410	   122 	   105 	   121
	000413	   125 	   105 	   123
	000416	   124 	   105 	   104
	000421	   040 	   061 	   061
	000424	   040 	   111 	   116
	000427	   124 	   122 	   000
   3452	000432	   015 	   012 	   040 	STA10:	.ASCIZ<15><12>/ DEX WORD 1/
	000435	   104 	   105 	   130
	000440	   040 	   127 	   117
	000443	   122 	   104 	   040
	000446	   061 	   000
   3453	000450	   015 	   012 	   040 	STA9:	.ASCIZ<15><12>/ 11 MEMORY PARITY ERROR/
	000453	   061 	   061 	   040
	000456	   115 	   105 	   115
	000461	   117 	   122 	   131
	000464	   040 	   120 	   101
	000467	   122 	   111 	   124
	000472	   131 	   040 	   105
	000475	   122 	   122 	   117
	000500	   122 	   000
   3454	000502	   015 	   012 	   040 	STA8:	.ASCIZ<15><12>/ 11 REQUESTED 10 INTR/
	000505	   061 	   061 	   040
	000510	   122 	   105 	   121
	000513	   125 	   105 	   123
	000516	   124 	   105 	   104
	000521	   040 	   061 	   060
	000524	   040 	   111 	   116
	000527	   124 	   122 	   000
   3455	000532	   015 	   012 	   040 	STA7:	.ASCIZ<15><12>/ TO 11 TRANSFER DONE/
	000535	   124 	   117 	   040
	000540	   061 	   061 	   040
	000543	   124 	   122 	   101
	000546	   116 	   123 	   106
	000551	   105 	   122 	   040
	000554	   104 	   117 	   116
	000557	   105 	   000
   3456	000561	   015 	   012 	   040 	STA6:	.ASCIZ<15><12>/ E BUFFER SELECT/
	000564	   105 	   040 	   102
	000567	   125 	   106 	   106
	000572	   105 	   122 	   040
EXDTE -- EXAMINE DTE-20 REGISTE	MACRO V05.04  Tuesday 17-May-88 14:36  Page 82-2
STATYP -- SYMBOLIC STATUS REGISTER TYPE OUT

	000575	   123 	   105 	   114
	000600	   105 	   103 	   124
	000603	   000
   3457	000604	   015 	   012 	   040 	STA5:	.ASCIZ<15><12>/ TO 11 TRANSFER STOP BY NULL/
	000607	   124 	   117 	   040
	000612	   061 	   061 	   040
	000615	   124 	   122 	   101
	000620	   116 	   123 	   106
	000623	   105 	   122 	   040
	000626	   123 	   124 	   117
	000631	   120 	   040 	   102
	000634	   131 	   040 	   116
	000637	   125 	   114 	   114
	000642	   000
   3458	000643	   015 	   012 	   040 	STA4:	.ASCIZ<15><12>/ E BUS PARITY ERROR/
	000646	   105 	   040 	   102
	000651	   125 	   123 	   040
	000654	   120 	   101 	   122
	000657	   111 	   124 	   131
	000662	   040 	   105 	   122
	000665	   122 	   117 	   122
	000670	   000
   3459	000671	   015 	   012 	   040 	STA3:	.ASCIZ<15><12>/ RESTRICTED MODE/
	000674	   122 	   105 	   123
	000677	   124 	   122 	   111
	000702	   103 	   124 	   105
	000705	   104 	   040 	   115
	000710	   117 	   104 	   105
	000713	   000
   3460	000714	   015 	   012 	   040 	STA2:	.ASCIZ<15><12>/ DEPOSIT-EXAMINE DONE/
	000717	   104 	   105 	   120
	000722	   117 	   123 	   111
	000725	   124 	   055 	   105
	000730	   130 	   101 	   115
	000733	   111 	   116 	   105
	000736	   040 	   104 	   117
	000741	   116 	   105 	   000
   3461	000744	   015 	   012 	   040 	STA1:	.ASCIZ<15><12>/ TO 11 BYTE ERROR TERMINATION/
	000747	   124 	   117 	   040
	000752	   061 	   061 	   040
	000755	   102 	   131 	   124
	000760	   105 	   040 	   105
	000763	   122 	   122 	   117
	000766	   122 	   040 	   124
	000771	   105 	   122 	   115
	000774	   111 	   116 	   101
	000777	   124 	   111 	   117
	001002	   116 	   000
   3462	001004	   015 	   012 	   040 	STA0:	.ASCIZ<15><12>/ INTERRUPTS ON/
	001007	   111 	   116 	   124
	001012	   105 	   122 	   122
	001015	   125 	   120 	   124
	001020	   123 	   040 	   117
	001023	   116 	   000
   3463
   3464	003746				.PSECT
EXDTE -- EXAMINE DTE-20 REGISTE	MACRO V05.04  Tuesday 17-May-88 14:36  Page 83
TYPDX1 -- SYMBOLIC DEXWD1-DEXWD3 TYPE OUT

   3466					.SBTTL	TYPDX1 -- SYMBOLIC DEXWD1-DEXWD3 TYPE OUT
   3467
   3468					;	THIS ROUTINE WAS ADDED FOR TCO 5.1001
   3469
   3470	003746				TYPDX1:
   3471	003746	012700 	001025'			MOV	#DX1MS1,R0	; DATA MESSAGE
   3472	003752					CALL	.TYMSG		; TYPE IT
	003752	004737 	000000G			 JSR	PC,.TYMSG
   3473	003756	012700 	000134'			MOV	#DTEBUF-4,R0	; ADDR OF REGISTERS
   3474	003762	060200 				ADD	R2,R0		; POINT TO DEX WORD 1
   3475	003764					CALL	.TYKLN		; TYPE IT
	003764	004737 	000000G			 JSR	PC,.TYKLN
   3476	003770	016203 	000140'			MOV	DTEBUF(R2),R3	; DEXWD1 VALUE
   3477	003774	042703 	000017 			BIC	#17,R3		; DEXWD1 BITS 4-15
   3478	004000	005703 				TST	R3		; BITS 4-15 MBZ
   3479	004002	001404 				BEQ	10$		; ARE THEY ZERO
   3480	004004	012700 	001045'			MOV	#DX1MS2,R0	; NO- MESSAGE
   3481	004010					CALL	.TYMSG		; TYPE IT
	004010	004737 	000000G			 JSR	PC,.TYMSG
   3482	004014				10$:	RETURN			; EXIT
	004014	000207 				 RTS	PC
   3483
   3484	001025				.PSECT	MESSAG
   3485
   3486	001025	   015 	   012 	   040 	DX1MS1:	.ASCIZ<15><12>/   KL10 DATA=/
	001030	   040 	   040 	   113
	001033	   114 	   061 	   060
	001036	   040 	   104 	   101
	001041	   124 	   101 	   075
	001044	   000
   3487	001045	   015 	   012 	   040 	DX1MS2:	.ASCIZ<15><12>/   DEXWD1 BITS 4-15 NON-ZERO/
	001050	   040 	   040 	   104
	001053	   105 	   130 	   127
	001056	   104 	   061 	   040
	001061	   102 	   111 	   124
	001064	   123 	   040 	   064
	001067	   055 	   061 	   065
	001072	   040 	   116 	   117
	001075	   116 	   055 	   132
	001100	   105 	   122 	   117
	001103	   000
   3488
   3489	004016				.PSECT
EXDTE -- EXAMINE DTE-20 REGISTE	MACRO V05.04  Tuesday 17-May-88 14:36  Page 84
TYPAD2 -- SYMBOLIC TENAD1-TENAD2 TYPE OUT

   3491					.SBTTL	TYPAD2 -- SYMBOLIC TENAD1-TENAD2 TYPE OUT
   3492
   3493					;	THIS ROUTINE WAS ADDED FOR TCO 5.1001
   3494
   3495	004016				TYPAD2:
   3496	004016	012700 	001104'			MOV	#TA2MS1,R0	; ADDRESS SPACE MESSAGE
   3497	004022					CALL	.TYMSG		; TYPE IT
	004022	004737 	000000G			 JSR	PC,.TYMSG
   3498	004026	016203 	000136'			MOV	DTEBUF-2(R2),R3	; REGISTER CONTENTS
   3499	004032	000303 				SWAB	R3		; GET SPACE BITS
   3500		000004 				.REPT	4
   3501						ASR	R3
   3502						.ENDR
	004034	006203 				ASR	R3
	004036	006203 				ASR	R3
	004040	006203 				ASR	R3
	004042	006203 				ASR	R3
   3503	004044	042703 	177761 			BIC	#177761,R3	; SPACE BITS
   3504	004050	020327 	000012 			CMP	R3,#12		; RESERVED?
   3505	004054	003402 				BLE	10$		; NO
   3506	004056	012703 	000012 			MOV	#12,R3		; YES
   3507	004062	016300 	000342'		10$:	MOV	SPCTAB(R3),R0	; MESSAGE ADDR
   3508	004066					CALL	.TYMSG		; TYPE SPACE
	004066	004737 	000000G			 JSR	PC,.TYMSG
   3509	004072	012700 	001126'			MOV	#TA2MS2,R0	; OPERATION MESSAGE
   3510	004076					CALL	.TYMSG		; TYPE IT
	004076	004737 	000000G			 JSR	PC,.TYMSG
   3511	004102	016203 	000136'			MOV	DTEBUF-2(R2),R3	; REGISTER CONTENTS
   3512	004106	012700 	001343'			MOV	#DEPOS,R0	; DEPOSIT MESSAGE
   3513	004112	032703 	010000 			BIT	#10000,R3	; IS TI A DEPOSIT?
   3514	004116	001002 				BNE	40$		; YES
   3515	004120	012700 	001353'			MOV	#EXAM,R0	; NO-EXAMINE
   3516	004124				40$:	CALL	.TYMSG		; TYPE IT
	004124	004737 	000000G			 JSR	PC,.TYMSG
   3517	004130	012700 	001144'			MOV	#TA2MS3,R0	; PRO/REL MESSAGE
   3518	004134					CALL	.TYMSG		; TYPE IT
	004134	004737 	000000G			 JSR	PC,.TYMSG
   3519	004140	012700 	001363'			MOV	#PRON,R0	; PRO ON MESSAGE
   3520	004144	032703 	004000 			BIT	#4000,R3	; IS IT ON?
   3521	004150	001402 				BEQ	50$		; YES
   3522	004152	012700 	001367'			MOV	#PROFF,R0	; NO-OFF
   3523	004156				50$:	CALL	.TYMSG		; TYPE IT
	004156	004737 	000000G			 JSR	PC,.TYMSG
   3524	004162	032703 	003600 			BIT	#3600,R3	; CHECK MBZ BITS, ARE THEY?
   3525	004166	001404 				BEQ	60$		; YES
   3526	004170	012700 	001201'			MOV	#TA2MS4,R0	; NO-ERROR MESSAGE
   3527	004174					CALL	.TYMSG		; TYPE IT
	004174	004737 	000000G			 JSR	PC,.TYMSG
   3528	004200	012700 	001236'		60$:	MOV	#TA2MS5,R0	; ADDRESS MESSAGE
   3529	004204					CALL	.TYMSG		; TYPE IT
	004204	004737 	000000G			 JSR	PC,.TYMSG
   3530	004210	005046 				CLR	-(SP)		; ADDR BUFFER
   3531	004212	042703 	177600 			BIC	#177600,R3	; CLEAR EXTRA BITS
   3532	004216	010346 				MOV	R3,-(SP)	; ADDR BUFFER
   3533	004220	016246 	000140'			MOV	DTEBUF(R2),-(SP); ADDR BUFFER
   3534	004224	010600 				MOV	SP,R0		; BUFFER ADDRESS
   3535	004226					CALL	.TYKLA		; TYPE KL ADDR
EXDTE -- EXAMINE DTE-20 REGISTE	MACRO V05.04  Tuesday 17-May-88 14:36  Page 84-1
TYPAD2 -- SYMBOLIC TENAD1-TENAD2 TYPE OUT

	004226	004737 	000000G			 JSR	PC,.TYKLA
   3536	004232	062706 	000006 			ADD	#6,SP		; POP OFF ADDR BUFFER
   3537	004236				80$:	RETURN			; EXIT
	004236	000207 				 RTS	PC
   3538
   3539	000342				.PSECT	DATA
   3540
   3541	000342				SPCTAB:
   3542	000342	001257'				.WORD	SPC1
   3543	000344	001263'				.WORD	SPC2
   3544	000346	001300'				.WORD	SPC3
   3545	000350	001304'				.WORD	SPC4
   3546	000352	001321'				.WORD	SPC5
   3547	000354	001332'				.WORD	SPC6
   3548
   3549	001104				.PSECT	MESSAG
   3550
   3551	001104	   015 	   012 	   040 	TA2MS1:	.ASCIZ<15><12>/ ADDRESS SPACE=/
	001107	   101 	   104 	   104
	001112	   122 	   105 	   123
	001115	   123 	   040 	   123
	001120	   120 	   101 	   103
	001123	   105 	   075 	   000
   3552	001126	   015 	   012 	   040 	TA2MS2:	.ASCIZ<15><12>/ OPERATION=/
	001131	   117 	   120 	   105
	001134	   122 	   101 	   124
	001137	   111 	   117 	   116
	001142	   075 	   000
   3553	001144	   015 	   012 	   040 	TA2MS3:	.ASCIZ<15><12>/ PROTECTION-RELOCATION IS /
	001147	   120 	   122 	   117
	001152	   124 	   105 	   103
	001155	   124 	   111 	   117
	001160	   116 	   055 	   122
	001163	   105 	   114 	   117
	001166	   103 	   101 	   124
	001171	   111 	   117 	   116
	001174	   040 	   111 	   123
	001177	   040 	   000
   3554	001201	   015 	   012 	   040 	TA2MS4:	.ASCIZ<15><12>/ TENAD1 BITS 7-10 NON-ZERO/
	001204	   124 	   105 	   116
	001207	   101 	   104 	   061
	001212	   040 	   102 	   111
	001215	   124 	   123 	   040
	001220	   067 	   055 	   061
	001223	   060 	   040 	   116
	001226	   117 	   116 	   055
	001231	   132 	   105 	   122
	001234	   117 	   000
   3555	001236	   015 	   012 	   040 	TA2MS5:	.ASCIZ<15><12>/ KL10 ADDRESS=/
	001241	   113 	   114 	   061
	001244	   060 	   040 	   101
	001247	   104 	   104 	   122
	001252	   105 	   123 	   123
	001255	   075 	   000
   3556	001257	   105 	   120 	   124 	SPC1:	.ASCIZ/EPT/
	001262	   000
   3557	001263	   105 	   130 	   105 	SPC2:	.ASCIZ/EXEC VIRTUAL/
EXDTE -- EXAMINE DTE-20 REGISTE	MACRO V05.04  Tuesday 17-May-88 14:36  Page 84-2
TYPAD2 -- SYMBOLIC TENAD1-TENAD2 TYPE OUT

	001266	   103 	   040 	   126
	001271	   111 	   122 	   124
	001274	   125 	   101 	   114
	001277	   000
   3558	001300	   125 	   120 	   124 	SPC3:	.ASCIZ/UPT/
	001303	   000
   3559	001304	   125 	   123 	   105 	SPC4:	.ASCIZ/USER VIRTUAL/
	001307	   122 	   040 	   126
	001312	   111 	   122 	   124
	001315	   125 	   101 	   114
	001320	   000
   3560	001321	   120 	   110 	   131 	SPC5:	.ASCIZ/PHYSICAL/
	001324	   123 	   111 	   103
	001327	   101 	   114 	   000
   3561	001332	   122 	   105 	   123 	SPC6:	.ASCIZ/RESERVED/
	001335	   105 	   122 	   126
	001340	   105 	   104 	   000
   3562	001343	   104 	   105 	   120 	DEPOS:	.ASCIZ/DEPOSIT/
	001346	   117 	   123 	   111
	001351	   124 	   000
   3563	001353	   105 	   130 	   101 	EXAM:	.ASCIZ/EXAMINE/
	001356	   115 	   111 	   116
	001361	   105 	   000
   3564	001363	   117 	   116 	   040 	PRON:	.ASCIZ/ON /
	001366	   000
   3565	001367	   117 	   106 	   106 	PROFF:	.ASCIZ/OFF/
	001372	   000
   3566
   3567	004240				.PSECT
EXDTE -- EXAMINE DTE-20 REGISTE	MACRO V05.04  Tuesday 17-May-88 14:36  Page 85
TYPDG1 -- SYMBOLIC DIAG1 TYPE OUT

   3569					.SBTTL	TYPDG1 -- SYMBOLIC DIAG1 TYPE OUT
   3570
   3571					;	THIS ROUTINE WAS ADDED FOR TCO 5.1001
   3572
   3573	004240				TYPDG1:
   3574	004240	016203 	000140'			MOV	DTEBUF(R2),R3	; DIAG1
   3575	004244	042703 	170037 			BIC	#170037,R3	; GET STATUS BITS
   3576		000004 				.REPT	4		; LEFT JUSTIFY
   3577						ASL	R3
   3578						.ENDR
	004250	006303 				ASL	R3
	004252	006303 				ASL	R3
	004254	006303 				ASL	R3
	004256	006303 				ASL	R3
   3579	004260	012701 	000356'			MOV	#DIATAB,R1	; FIRST MESSAGE PTR
   3580	004264	005703 			10$:	TST	R3		; DONE?
   3581	004266	001410 				BEQ	30$		; YES-EXIT
   3582	004270	006303 				ASL	R3		; BIT SET?
   3583	004272	103003 				BCC	20$		; NO
   3584	004274	011100 				MOV	@R1,R0		; MESSAGE ADDR
   3585	004276					CALL	.TYMSG		; YES-TYPE MESSAGE
	004276	004737 	000000G			 JSR	PC,.TYMSG
   3586	004302	062701 	000002 		20$:	ADD	#2,R1		; NEXT MESSAGE
   3587	004306	000766 				BR	10$		; NEXT
   3588	004310				30$:	RETURN			; EXIT
	004310	000207 				 RTS	PC
   3589
   3590	000356				.PSECT	DATA
   3591
   3592	000356				DIATAB:
   3593	000356	001373'				.WORD	DG1B11
   3594	000360	001424'				.WORD	DG1B10
   3595	000362	001450'				.WORD	DG1B9
   3596	000364	001475'				.WORD	DG1B8
   3597	000366	001541'				.WORD	DG1B7
   3598	000370	001604'				.WORD	DG1B6
   3599	000372	001647'				.WORD	DG1B5
   3600
   3601	001373				.PSECT	MESSAG
   3602
   3603	001373	   015 	   012 	   040 	DG1B11:	.ASCIZ<15><12>/   KL CLOCK ERROR STOP/
	001376	   040 	   040 	   113
	001401	   114 	   040 	   103
	001404	   114 	   117 	   103
	001407	   113 	   040 	   105
	001412	   122 	   122 	   117
	001415	   122 	   040 	   123
	001420	   124 	   117 	   120
	001423	   000
   3604	001424	   015 	   012 	   040 	DG1B10:	.ASCIZ<15><12>/   KL IN RUN MODE/
	001427	   040 	   040 	   113
	001432	   114 	   040 	   111
	001435	   116 	   040 	   122
	001440	   125 	   116 	   040
	001443	   115 	   117 	   104
	001446	   105 	   000
   3605	001450	   015 	   012 	   040 	DG1B9:	.ASCIZ<15><12>/   KL IN HALT LOOP/
EXDTE -- EXAMINE DTE-20 REGISTE	MACRO V05.04  Tuesday 17-May-88 14:36  Page 85-1
TYPDG1 -- SYMBOLIC DIAG1 TYPE OUT

	001453	   040 	   040 	   113
	001456	   114 	   040 	   111
	001461	   116 	   040 	   110
	001464	   101 	   114 	   124
	001467	   040 	   114 	   117
	001472	   117 	   120 	   000
   3606	001475	   015 	   012 	   040 	DG1B8:	.ASCIZ<15><12>/   MAJOR STATE IS DEPOSIT-EXAMINE/
	001500	   040 	   040 	   115
	001503	   101 	   112 	   117
	001506	   122 	   040 	   123
	001511	   124 	   101 	   124
	001514	   105 	   040 	   111
	001517	   123 	   040 	   104
	001522	   105 	   120 	   117
	001525	   123 	   111 	   124
	001530	   055 	   105 	   130
	001533	   101 	   115 	   111
	001536	   116 	   105 	   000
   3607	001541	   015 	   012 	   040 	DG1B7:	.ASCIZ<15><12>/   MAJOR STATE IS TO-10 TRANSFER/
	001544	   040 	   040 	   115
	001547	   101 	   112 	   117
	001552	   122 	   040 	   123
	001555	   124 	   101 	   124
	001560	   105 	   040 	   111
	001563	   123 	   040 	   124
	001566	   117 	   055 	   061
	001571	   060 	   040 	   124
	001574	   122 	   101 	   116
	001577	   123 	   106 	   105
	001602	   122 	   000
   3608	001604	   015 	   012 	   040 	DG1B6:	.ASCIZ<15><12>/   MAJOR STATE IS TO-11 TRANSFER/
	001607	   040 	   040 	   115
	001612	   101 	   112 	   117
	001615	   122 	   040 	   123
	001620	   124 	   101 	   124
	001623	   105 	   040 	   111
	001626	   123 	   040 	   124
	001631	   117 	   055 	   061
	001634	   061 	   040 	   124
	001637	   122 	   101 	   116
	001642	   123 	   106 	   105
	001645	   122 	   000
   3609	001647	   015 	   012 	   040 	DG1B5:	.ASCIZ<15><12>/   DTE IN 10-11 DIAGNOSTIC MODE/
	001652	   040 	   040 	   104
	001655	   124 	   105 	   040
	001660	   111 	   116 	   040
	001663	   061 	   060 	   055
	001666	   061 	   061 	   040
	001671	   104 	   111 	   101
	001674	   107 	   116 	   117
	001677	   123 	   124 	   111
	001702	   103 	   040 	   115
	001705	   117 	   104 	   105
	001710	   000
   3610
   3611	004312				.PSECT
EXDTE -- EXAMINE DTE-20 REGISTE	MACRO V05.04  Tuesday 17-May-88 14:36  Page 86
TYPDG3 -- SYMBOLIC DIAG3 TYPE OUT

   3613					.SBTTL	TYPDG3 -- SYMBOLIC DIAG3 TYPE OUT
   3614
   3615					;	THIS ROUTINE WAS ADDED FOR TCO 5.1001
   3616
   3617	004312				TYPDG3:
   3618	004312	016203 	000140'			MOV	DTEBUF(R2),R3	; DIAG3
   3619	004316	032703 	000002 			BIT	#2,R3		; NPR ERROR?
   3620	004322	001404 				BEQ	10$		; NO-EXIT
   3621	004324	012700 	001711'			MOV	#DG3B1,R0	; YES-MESSAGE
   3622	004330					CALL	.TYMSG		; TYPE IT
	004330	004737 	000000G			 JSR	PC,.TYMSG
   3623	004334				10$:	CALLR	.TCRLF		; EXIT
	004334	000137 	000000G			 JMP	.TCRLF
   3624
   3625	001711				.PSECT	MESSAG
   3626
   3627	001711	   015 	   012 	   040 	DG3B1:	.ASCIZ<15><12>/   NPR UNIBUS PARITY ERROR/
	001714	   040 	   040 	   116
	001717	   120 	   122 	   040
	001722	   125 	   116 	   111
	001725	   102 	   125 	   123
	001730	   040 	   120 	   101
	001733	   122 	   111 	   124
	001736	   131 	   040 	   105
	001741	   122 	   122 	   117
	001744	   122 	   000
   3628
   3629	004340				.PSECT
EXREG -- EXAMINE 22 AND 36 BIT 	MACRO V05.04  Tuesday 17-May-88 14:36  Page 88
TYPDG3 -- SYMBOLIC DIAG3 TYPE OUT

   3632					.TITLE	EXREG -- EXAMINE 22 AND 36 BIT REGISTER COMMAND MODULE 7603.30
   3633
   3634						.IDENT	"007010"
   3635					;
   3636					;                             COPYRIGHT (C) 1979, 1984, 1985 BY
   3637					;                     DIGITAL EQUIPMENT CORPORATION, MAYNARD MASS.
   3638					;			ALL RIGHTS RESERVED.
   3639					;       THIS SOFTWARE IS FURNISHED UNDER A LICENSE AND MAY BE  USED  AND  COPIED
   3640					;       ONLY IN ACCORDANCE WITH THE TERMS OF SUCH LICENSE AND WITH THE INCLUSION
   3641					;       OF THE ABOVE COPYRIGHT NOTICE.  THIS SOFTWARE OR ANY OTHER COPIES THERE-
   3642					;       OF  MAY NOT BE PROVIDED OR OTHERWISE MADE AVAILABLE TO ANY OTHER PERSON.
   3643					;       NO TITLE TO OR OWNERSHIP OF THE SOFTWARE IS HEREBY TRANSFERRED.
   3644					;
   3645					;       THE INFORMATION CONTAINED IN THIS SOFTWARE IS SUBJECT TO CHANGE  WITHOUT
   3646					;       NOTICE  AND SHOULD NOT BE CONSTRUED AS A COMMITMENT BY DIGITAL EQUIPMENT
   3647					;       CORPORATION.
   3648					;
   3649					;       DIGITAL ASSUMES NO RESPONSIBILITY FOR THE  USE  OR  RELIABILITY  OF  ITS
   3650					;       SOFTWARE ON EQUIPMENT WHICH IS NOT SUPPILED BY DIGITAL.
   3651					;
   3652					;		MODULE: EXAMINE 22 AND 36 BIT REGISTER COMMAND
   3653					;
   3654					;		VERSION: 06-01
   3655					;
   3656					;		AUTHOR: R. BELANGER
   3657					;
   3658					;		DATE: 7603.30
   3659					;
   3660					;	THIS MODULE CONTAINS:
   3661					;
   3662					;	1) EXAMINE 22 AND 36 BIT REGISTER COMMAND CODE
   3663					;
   3664					;09-Nov-82  TCO 6.1364	D. Weaver
   3665					;	Fix display for EXAMINE PI code, change BIS to MOVB.
   3666					;	Routine: .EXMPI
   3667					;
EXREG -- EXAMINE 22 AND 36 BIT 	MACRO V05.04  Tuesday 17-May-88 14:36  Page 89
.EXAD  -- KL DATA PATH BOARD EXAMINES 7602.16

   3669					.SBTTL	.EXAD  -- KL DATA PATH BOARD EXAMINES 7602.16
   3670
   3671						.ENABL	LSB
   3672
   3673	004340				.EXAD::				; ADDER REGISTER
   3674	004340	012700 	005254'			MOV	#.RDADR,R0	; DISPATCH POINTER TO R0
   3675	004344	000445 				BR	20$		; DO COMMON CODE
   3676						;
   3677	004346				.EXADX::			; ADDRER EXTENSION
   3678	004346	012700 	005262'			MOV	#.RDADX,R0	; DISPATCH POINTER TO R0
   3679	004352	000442 				BR	20$		; DO COMMON CODE
   3680						;
   3681	004354				.EXARR::			; ARITHMETIC REGISTER
   3682	004354	012700 	005270'			MOV	#.RDARR,R0	; DISPATCH POINTER TO R0
   3683	004360	000437 				BR	20$		; DO COMMON CODE
   3684						;
   3685	004362				.EXARX::			; AR EXTENSION
   3686	004362	012700 	005276'			MOV	#.RDARX,R0	; DISPATCH POINTER TO R0
   3687	004366	000434 				BR	20$		; DO COMMON CODE
   3688						;
   3689	004370				.EXBRR::			; BUFFER REGISTER
   3690	004370	012700 	005304'			MOV	#.RDBRR,R0	; DISPATCH POINTER TO R0
   3691	004374	000431 				BR	20$		; DO COMMON CODE
   3692						;
   3693	004376				.EXBRX::			; BR EXTENSION
   3694	004376	012700 	005312'			MOV	#.RDBRX,R0	; DISPATCH POINTER TO R0
   3695	004402	000426 				BR	20$		; DO COMMON CODE
   3696						;
   3697	004404				.EXEBS::			; EBUS REGISTER
   3698	004404	012700 	005320'			MOV	#.RDEBS,R0	; DISPATCH POINTER TO R0
   3699	004410	000423 				BR	20$		; DO COMMON CODE
   3700						;
   3701	004412				.EXFMR::			; FAST MEMORY REGISTER
   3702	004412	012700 	005326'			MOV	#.RDFMR,R0	; DISPATCH POINTER TO R0
   3703	004416	000420 				BR	20$		; DO COMMON CODE
   3704						;
   3705	004420				.EXMQR::			; MQ REGSITER
   3706	004420	012700 	005334'			MOV	#.RDMQR,R0	; DISPATCH POINTER TO R0
   3707	004424	000415 				BR	20$		; DO COMMON CODE
   3708						;
EXREG -- EXAMINE 22 AND 36 BIT 	MACRO V05.04  Tuesday 17-May-88 14:36  Page 90
.EXVAB -- KL PC BOARD AND SMALL REGISTER EXAMINES 7602.16

   3710					.SBTTL	.EXVAB -- KL PC BOARD AND SMALL REGISTER EXAMINES 7602.16
   3711
   3712	004426				.EXVAB::			; ADDRESS BREAK REGISTER
   3713	004426	012700 	005704'			MOV	#.RDVAB,R0	; DISPATCH POINTER TO R0
   3714	004432	000410 				BR	10$		; DO COMMON CODE
   3715						;
   3716	004434				.EXVMA::			; VMA REGISTER
   3717	004434	012700 	005712'			MOV	#.RDVMA,R0	; DISPATCH POINTER TO R0
   3718	004440	000405 				BR	10$		; DO COMMON CODE
   3719						;
   3720	004442				.EXVMH::			; VMA HELD REGISTER
   3721	004442	012700 	005720'			MOV	#.RDVMH,R0	; DISPATCH POINTER TO R0
   3722	004446	000402 				BR	10$		; DO COMMON CODE
   3723						;
   3724	004450				.EXVPC::			; PROGRAM COUNTER
   3725	004450	012700 	005676'			MOV	#.RDVPC,R0	; DISPATCH POINTER TO R0
   3726					;	BR	10$		; DO COMMON CODE
   3727						;
EXREG -- EXAMINE 22 AND 36 BIT 	MACRO V05.04  Tuesday 17-May-88 14:36  Page 91
.EXVAB -- KL PC BOARD AND SMALL REGISTER EXAMINES 7602.16

   3729					;	[CONTINUED FROM THE PREVIOUS PAGE]
   3730
   3731	004454				10$:				; HERE FOR VMA BOARD EXAMINES
   3732	004454	005037 	000000G			CLR	.LDZFL		; DON'T PRINT LEADING ZEROES
   3733	004460				20$:				; HERE FOR DATA PATH BOARD EXAMINES
   3734	004460					CALL	.CKEOC		; CHECK E-O-C
	004460	004737 	000000G			 JSR	PC,.CKEOC
   3735	004464	005046 				CLR	-(SP)		; CLEAR A BUFFER ON THE STACK
   3736	004466	005046 				CLR	-(SP)		; .
   3737	004470	005046 				CLR	-(SP)		; ..
   3738	004472	010601 				MOV	SP,R1		; ...POINT TO THE BUFFER
   3739	004474					PUSH	R0		; ...SAVE THE DISPATCH ADDRESS
	004474	010046 				 MOV	R0,-(SP)
   3740	004476					CALL	.STPKL		; ....STOP THE KL
	004476	004737 	000000G			 JSR	PC,.STPKL
   3741	004502					CALL	@(SP)+		; ....READ THE REGISTER
	004502	004736 				 JSR	PC,@(SP)+
   3742	004504					CALL	.RSTKL		; ...YES -- RESTART THE KL
	004504	004737 	000000G			 JSR	PC,.RSTKL
   3743	004510	010200 				MOV	R2,R0		; ...MESSAGE POINTER TO R0
   3744	004512					CALL	.TYMSG		; ...PRINT IT
	004512	004737 	000000G			 JSR	PC,.TYMSG
   3745	004516					CALL	.TYSLS		; ...NOW A SLASH
	004516	004737 	000000G			 JSR	PC,.TYSLS
   3746	004522					CALL	.TYSPC		; ...AND A SPACE
	004522	004737 	000000G			 JSR	PC,.TYSPC
   3747	004526	010100 				MOV	R1,R0		; ...POINT TO THE DATA
   3748	004530					CALL	.TYKLN		; ...PRINT THAT
	004530	004737 	000000G			 JSR	PC,.TYKLN
   3749	004534	062706 	000006 			ADD	#^D6,SP		; ...CLEAR THE STACK
   3750	004540					CALLR	.TCRLF		; ...END THE LINE AND EXIT
	004540	000137 	000000G			 JMP	.TCRLF
   3751						;
   3752
   3753						.DSABL	LSB
EXREG -- EXAMINE 22 AND 36 BIT 	MACRO V05.04  Tuesday 17-May-88 14:36  Page 92
.EXAMF -- THE "EXAMINE FLAGS" COMMAND 7602.23

   3755					.SBTTL	.EXAMF -- THE "EXAMINE FLAGS" COMMAND 7602.23
   3756
   3757					;+
   3758					; .EXAMF -- THE "EXAMINE FLAGS" COMMAND.
   3759					;
   3760					; THIS ROUTINE WILL READ AND DISPLAY THE KL PC FLAGS ON THE
   3761					; CONSOLE DEVICE.
   3762					;
   3763					; INPUT ARGUMENTS:
   3764					;
   3765					;	NONE.
   3766					;
   3767					; OUTPUT ARGUMENTS:
   3768					;
   3769					;	NONE.
   3770					;
   3771					; ERROR CODES RETURNED:
   3772					;
   3773					;	NONE.
   3774					;-
   3775
   3776	004544				.EXAMF::
   3777	004544					CALL	.CKEOC		; CHECK E-O-C
	004544	004737 	000000G			 JSR	PC,.CKEOC
   3778	004550					CALL	.STPKL		; STOP THE KL
	004550	004737 	000000G			 JSR	PC,.STPKL
   3779	004554					CALL	.RDFLG		; READ THE FLAGS
	004554	004737 	005344'			 JSR	PC,.RDFLG
   3780	004560					CALL	.RSTKL		; RESTART THE KL
	004560	004737 	000000G			 JSR	PC,.RSTKL
   3781	004564	010001 				MOV	R0,R1		; FLAGS TO R1
   3782	004566	001422 				BEQ	30$		; NONE ON -- SAY SO
   3783	004570	012700 	002011'			MOV	#EXFMSG,R0	; HEADER
   3784	004574					CALL	.TYLIN		; PRINT IT
	004574	004737 	000000G			 JSR	PC,.TYLIN
   3785	004600				10$:
   3786	004600	012700 	001775'			MOV	#FONMSG,R0	; ASSUME IT IS ON
   3787	004604	032701 	010000 			BIT	#BIT12,R1	; IS THE FLAG ON?
   3788	004610	001002 				BNE	20$		; YES -- GO ON
   3789	004612	012700 	002003'			MOV	#FOFMSG,R0	; NO -- SAY SO
   3790	004616				20$:
   3791	004616					CALL	.TYMSG		; PRINT THE STATE OF THE BIT
	004616	004737 	000000G			 JSR	PC,.TYMSG
   3792	004622	042701 	010000 			BIC	#BIT12,R1	; CLEAR THIS BIT OUT
   3793	004626	006301 				ASL	R1		; MOVE NEXT BIT IN
   3794	004630	001363 				BNE	10$		; LOOP TILL R1 .EQ. 0
   3795	004632	000404 				BR	40$		; DONE -- EXIT
   3796	004634				30$:
   3797	004634	012700 	001746'			MOV	#NOFMSG,R0	; "NO FLAGS"
   3798	004640					CALL	.TYMSG		; PRINT IT
	004640	004737 	000000G			 JSR	PC,.TYMSG
   3799	004644				40$:
   3800	004644					CALLR	.TCRLF		; END LINE AND RETURN
	004644	000137 	000000G			 JMP	.TCRLF
   3801						;
EXREG -- EXAMINE 22 AND 36 BIT 	MACRO V05.04  Tuesday 17-May-88 14:36  Page 93
.EXAMF -- THE "EXAMINE FLAGS" COMMAND 7602.23

   3803	001746				.PSECT	MESSAG
   3804
   3805	001746				NOFMSG:
   3806	001746	   116 	   117 	   040 		.ASCIZ	%NO KL PC FLAGS ARE SET%
	001751	   113 	   114 	   040
	001754	   120 	   103 	   040
	001757	   106 	   114 	   101
	001762	   107 	   123 	   040
	001765	   101 	   122 	   105
	001770	   040 	   123 	   105
	001773	   124 	   000
   3807	001775				FONMSG:
   3808	001775	   040 	   040 	   130 		.ASCIZ	%  X  %
	002000	   040 	   040 	   000
   3809	002003				FOFMSG:
   3810	002003	   040 	   040 	   040 		.ASCIZ	%     %
	002006	   040 	   040 	   000
   3811	002011				EXFMSG:
   3812	002011	   040 	   117 	   126 		.ASCIZ	% OVF  CY0  CY1  FOV  BIS  USR  UIO  LIP  AFI  AT1  AT0  FUF  NDV%
	002014	   106 	   040 	   040
	002017	   103 	   131 	   060
	002022	   040 	   040 	   103
	002025	   131 	   061 	   040
	002030	   040 	   106 	   117
	002033	   126 	   040 	   040
	002036	   102 	   111 	   123
	002041	   040 	   040 	   125
	002044	   123 	   122 	   040
	002047	   040 	   125 	   111
	002052	   117 	   040 	   040
	002055	   114 	   111 	   120
	002060	   040 	   040 	   101
	002063	   106 	   111 	   040
	002066	   040 	   101 	   124
	002071	   061 	   040 	   040
	002074	   101 	   124 	   060
	002077	   040 	   040 	   106
	002102	   125 	   106 	   040
	002105	   040 	   116 	   104
	002110	   126 	   000
   3813
   3814	004650				.PSECT
EXREG -- EXAMINE 22 AND 36 BIT 	MACRO V05.04  Tuesday 17-May-88 14:36  Page 94
.EXAMK -- THE "EXAMINE KL" COMMAND 7602.23

   3816					.SBTTL	.EXAMK -- THE "EXAMINE KL" COMMAND 7602.23
   3817
   3818					;+
   3819					; .EXAMK -- THE "EXAMINE KL" COMMAND
   3820					;
   3821					; THIS ROUTINE WILL EXAMINE AND DISPLAY THE FOLLOWING ITEMS ON THE
   3822					; CONSOLE DEVICE:
   3823					;
   3824					;	(A) KL PROGRAM COUNTER
   3825					;	(B) KL VMA REGISTER
   3826					;	(C) KL PI SYSTEM STATE
   3827					;	(D) KL PC FLAGS
   3828					;
   3829					; INPUT ARGUMENTS:
   3830					;
   3831					;	NONE.
   3832					;
   3833					; OUTPUT ARGUMENTS:
   3834					;
   3835					;	NONE.
   3836					;
   3837					; ERROR CODES RETURNED:
   3838					;
   3839					;	NONE.
   3840					;-
   3841
   3842	004650				.EXAMK::
   3843	004650					CALL	.CKEOC		; CHECK E-O-C
	004650	004737 	000000G			 JSR	PC,.CKEOC
   3844	004654					PUSH	.KLFLG		; SAVE ".KLFLG"
	004654	013746 	000000G			 MOV	.KLFLG,-(SP)
   3845	004660					CALL	.STPKL		; .STOP THE KL
	004660	004737 	000000G			 JSR	PC,.STPKL
   3846	004664	012702 	000000G			MOV	#PCMSG,R2	; .MESSAGE POINTER TO R2
   3847	004670					CALL	.EXVPC		; .READ AND PRINT THE KL PC
	004670	004737 	004450'			 JSR	PC,.EXVPC
   3848	004674	012702 	000000G			MOV	#VMAMSG,R2	; .MESSAGE POINTER TO R2
   3849	004700					CALL	.EXVMA		; .READ AND PRINT THE KL VMA
	004700	004737 	004434'			 JSR	PC,.EXVMA
   3850	004704					CALL	.EXMPI		; .DISPLAY THE PI SYSTEM
	004704	004737 	005040'			 JSR	PC,.EXMPI
   3851	004710					CALL	.EXAMF		; .DISPLAY THE KL PC FLAGS
	004710	004737 	004544'			 JSR	PC,.EXAMF
   3852	004714					POP	.SVKLF		; .SET UP ".SVKLF"
	004714	012637 	000000G			 MOV	(SP)+,.SVKLF
   3853	004720					CALLR	.RSTKL		; RESTART THE KL
	004720	000137 	000000G			 JMP	.RSTKL
   3854						;
EXREG -- EXAMINE 22 AND 36 BIT 	MACRO V05.04  Tuesday 17-May-88 14:36  Page 95
.EXCRA -- SMALL REGISTER EXAMINES 7609.10

   3856					.SBTTL	.EXCRA -- SMALL REGISTER EXAMINES 7609.10
   3857
   3858						.ENABL	LSB
   3859
   3860	004724				.EXCRA::			; CRAM ADDRESS REGISTER
   3861	004724	012700 	005550'			MOV	#.RDCRA,R0	; DISPATCH POINTER TO R0
   3862	004730	000416 				BR	10$		; DO COMMON CODE
   3863						;
   3864	004732				.EXCRL::			; CRAM LOC REGISTER
   3865	004732	012700 	005556'			MOV	#.RDCRL,R0	; DISPATCH POINTER TO R0
   3866	004736	000413 				BR	10$		; DO COMMON CODE
   3867						;
   3868	004740				.EXDRA::			; DRAM ADDRESS REGISTER
   3869	004740	012700 	005564'			MOV	#.RDDRA,R0	; DISPATCH POINTER TO R0
   3870	004744	000410 				BR	10$		; DO COMMON CODE
   3871						;
   3872	004746				.EXFER::			; FLOATING EXPONENT REGISTER
   3873	004746	012700 	005572'			MOV	#.RDFER,R0	; DISPATCH POINTER TO R0
   3874	004752	000405 				BR	10$		; DO COMMON CODE
   3875						;
   3876	004754				.EXSBR::			; CRAM SBR RET REGISTER
   3877	004754	012700 	005600'			MOV	#.RDSBR,R0	; DISPATCH POINTER TO R0
   3878	004760	000402 				BR	10$		; DO COMMON CODE
   3879						;
   3880	004762				.EXSCR::
   3881	004762	012700 	005606'			MOV	#.RDSCR,R0	; DISPATCH POINTER TO R0
   3882					;	BR	10$		; DO COMMON CODE
   3883						;
   3884
   3885					;	[CONTINUED ON THE FOLLOWING PAGE]
EXREG -- EXAMINE 22 AND 36 BIT 	MACRO V05.04  Tuesday 17-May-88 14:36  Page 96
.EXCRA -- SMALL REGISTER EXAMINES 7609.10

   3887					;	[CONTINUED FROM THE PREVIOUS PAGE]
   3888
   3889	004766				10$:				; HERE FOR SMALL REGISTER READS
   3890	004766					CALL	.CKEOC		; CHECK E-O-C
	004766	004737 	000000G			 JSR	PC,.CKEOC
   3891	004772					PUSH	R0		; SAVE DISPATCH ADDRESS
	004772	010046 				 MOV	R0,-(SP)
   3892	004774					CALL	.STPKL		; .STOP THE KL
	004774	004737 	000000G			 JSR	PC,.STPKL
   3893	005000					CALL	@(SP)+		; .READ THE REGISTER
	005000	004736 				 JSR	PC,@(SP)+
   3894	005002					PUSH	R0		; SAVE THE REGISTER DATA
	005002	010046 				 MOV	R0,-(SP)
   3895	005004					CALL	.RSTKL		; .YES -- RESTART THE KL
	005004	004737 	000000G			 JSR	PC,.RSTKL
   3896	005010	010200 				MOV	R2,R0		; .MESSAGE POINTER TO R0
   3897	005012					CALL	.TYMSG		; .PRINT IT
	005012	004737 	000000G			 JSR	PC,.TYMSG
   3898	005016					CALL	.TYSLS		; .AND A SLASH
	005016	004737 	000000G			 JSR	PC,.TYSLS
   3899	005022					CALL	.TYSPC		; .AND A SPACE
	005022	004737 	000000G			 JSR	PC,.TYSPC
   3900	005026					POP	R0		; .GET THE DATA
	005026	012600 				 MOV	(SP)+,R0
   3901	005030					CALL	.TYELN		; PRINT IT
	005030	004737 	000000G			 JSR	PC,.TYELN
   3902	005034					CALLR	.TCRLF		; END THE LINE AND EXIT
	005034	000137 	000000G			 JMP	.TCRLF
   3903						;
   3904
   3905						.DSABL	LSB
EXREG -- EXAMINE 22 AND 36 BIT 	MACRO V05.04  Tuesday 17-May-88 14:36  Page 98
.EXMPI -- THE "EXAMINE PI" COMMAND 7602.23

   3908					.SBTTL	.EXMPI -- THE "EXAMINE PI" COMMAND 7602.23
   3909
   3910					;+
   3911					; .EXMPI -- THE "EXAMINE PI" COMMAND
   3912					;
   3913					; THIS ROUTINE READS THE STATE OF THE KL PI SYSTEM AND DISPLAYS IT
   3914					; ON THE CONSOLE DEVICE.
   3915					;
   3916					; INPUT ARGUMENTS:
   3917					;
   3918					;	NONE.
   3919					;
   3920					; OUTPUT ARGUMENTS:
   3921					;
   3922					;	NONE.
   3923					;
   3924					; ERROR CODES RETURNED:
   3925					;
   3926					;	NONE.
   3927					;-
   3928
   3929	005040				.EXMPI::
   3930	005040					CALL	.CKEOC		; CHECK THE E-O-C CHARACTER
	005040	004737 	000000G			 JSR	PC,.CKEOC
   3931	005044	005002 				CLR	R2		; CLEAR R2
   3932	005046					CALL	.STPKL		; STOP THE KL
	005046	004737 	000000G			 JSR	PC,.STPKL
   3933	005052					CALL	.RDPI		; READ THE PI SYSTEM STATE
	005052	004737 	005470'			 JSR	PC,.RDPI
   3934	005056					CALL	.RSTKL		; RESTART THE KL
	005056	004737 	000000G			 JSR	PC,.RSTKL
   3935	005062	010001 				MOV	R0,R1		; DATA POINTER TO R1
   3936	005064	012700 	002112'			MOV	#EPMSG0,R0	; MESSAGE POINTER TO R0
   3937	005070					CALL	.TYMSG		; PRINT IT
	005070	004737 	000000G			 JSR	PC,.TYMSG
   3938	005074	012700 	000000G			MOV	#ONMSG,R0	; "ON"
   3939	005100	112102 				MOVB	(R1)+,R2	; [6.1364] PI ACTIVE + PI ON TO R2
   3940	005102	032702 	000200 			BIT	#200,R2		; IS IT ON?
   3941	005106	001002 				BNE	10$		; YES -- GO ON
   3942	005110	012700 	000000G			MOV	#OFFMSG,R0	; NO -- SO SAY "OFF"
   3943
   3944					;	[CONTINUED ON THE FOLLOWING PAGE]
EXREG -- EXAMINE 22 AND 36 BIT 	MACRO V05.04  Tuesday 17-May-88 14:36  Page 99
.EXMPI -- THE "EXAMINE PI" COMMAND 7602.23

   3946					;	[CONTINUED FROM THE PREVIOUS PAGE]
   3947
   3948	005114				10$:
   3949	005114					CALL	.TYMSG		; PRINT IT
	005114	004737 	000000G			 JSR	PC,.TYMSG
   3950	005120	012700 	002126'			MOV	#EPMSG1,R0	; "PI ON"
   3951	005124					CALL	.TYMSG		; PRINT IT
	005124	004737 	000000G			 JSR	PC,.TYMSG
   3952	005130	010200 				MOV	R2,R0		; GET ACTIVE BITS
   3953	005132	042700 	177600 			BIC	#^C177,R0	; FLUSH JUNK
   3954	005136					CALL	.TYP3D		; PRINT THEM
	005136	004737 	000000G			 JSR	PC,.TYP3D
   3955	005142	012700 	002140'			MOV	#EPMSG2,R0	; "PI HOLD"
   3956	005146					CALL	.TYMSG		; PRINT IT
	005146	004737 	000000G			 JSR	PC,.TYMSG
   3957	005152	112100 				MOVB	(R1)+,R0	; GET THE PI HOLD BITS
   3958	005154	042700 	177600 			BIC	#^C177,R0	; FLUSH JUNK
   3959	005160					CALL	.TYP3D		; PRINT THEM
	005160	004737 	000000G			 JSR	PC,.TYP3D
   3960	005164	012700 	002154'			MOV	#EPMSG3,R0	; "PI GEN"
   3961	005170					CALL	.TYMSG		; PRINT IT
	005170	004737 	000000G			 JSR	PC,.TYMSG
   3962	005174	112100 				MOVB	(R1)+,R0	; GET THE GEN BITS
   3963	005176	042700 	177600 			BIC	#^C177,R0	; FLUSH JUNK
   3964	005202					CALL	.TYP3D		; PRINT THEM
	005202	004737 	000000G			 JSR	PC,.TYP3D
   3965	005206					CALLR	.TCRLF		; END THE LINE AND RETURN
	005206	000137 	000000G			 JMP	.TCRLF
   3966						;
   3967	002112				.PSECT	MESSAG
   3968
   3969	002112				EPMSG0:
   3970	002112	   120 	   111 	   040 		.ASCIZ	%PI ACTIVE: %
	002115	   101 	   103 	   124
	002120	   111 	   126 	   105
	002123	   072 	   040 	   000
   3971	002126				EPMSG1:
   3972	002126	   054 	   040 	   120 		.ASCIZ	%, PI ON: %
	002131	   111 	   040 	   117
	002134	   116 	   072 	   040
	002137	   000
   3973	002140				EPMSG2:
   3974	002140	   054 	   040 	   120 		.ASCIZ	%, PI HOLD: %
	002143	   111 	   040 	   110
	002146	   117 	   114 	   104
	002151	   072 	   040 	   000
   3975	002154				EPMSG3:
   3976	002154	   054 	   040 	   120 		.ASCIZ	%, PI GEN: %
	002157	   111 	   040 	   107
	002162	   105 	   116 	   072
	002165	   040 	   000
   3977	005212				.PSECT
EXREG -- EXAMINE 22 AND 36 BIT 	MACRO V05.04  Tuesday 17-May-88 14:36  Page 100
.EXREG -- THE "EXAMINE REGISTERS" COMMAND 7602.16

   3979					.SBTTL	.EXREG -- THE "EXAMINE REGISTERS" COMMAND 7602.16
   3980
   3981	005212				.EXREG::
   3982	005212					CALL	.CKEOC		; CHECK E-O-C
	005212	004737 	000000G			 JSR	PC,.CKEOC
   3983	005216					CALL	.STPKL		; STOP THE KL
	005216	004737 	000000G			 JSR	PC,.STPKL
   3984	005222	012701 	000000G			MOV	#.EXMTB,R1	; TABLE POINTER TO R1
   3985	005226	012703 	000000G			MOV	#EXRTBL,R3	; COUNT TO R3
   3986	005232				10$:
   3987	005232	012102 				MOV	(R1)+,R2	; MESSAGE ADDRESS TO R2
   3988	005234					PUSH	R1		; SAVE R1
	005234	010146 				 MOV	R1,-(SP)
   3989	005236					CALL	@2(R1)		; .READ AND PRINT THE REGISTER
	005236	004771 	000002 			 JSR	PC,@2(R1)
   3990	005242					POP	R1		; .RESTORE R1
	005242	012601 				 MOV	(SP)+,R1
   3991	005244	022121 				CMP	(R1)+,(R1)+	; ADVANCE THE POINTER
   3992	005246	077307 				SOB	R3,10$		; LOOP TILL COUNT EXHAUSTED
   3993	005250					CALLR	.RSTKL		; RESTART THE KL
	005250	000137 	000000G			 JMP	.RSTKL
   3994						;
EXREG -- EXAMINE 22 AND 36 BIT 	MACRO V05.04  Tuesday 17-May-88 14:36  Page 101
.RDDPB -- SUBROUTINES TO READ THE KL DATA PATH BOARDS 7509.23

   3996					.SBTTL	.RDDPB -- SUBROUTINES TO READ THE KL DATA PATH BOARDS 7509.23
   3997
   3998					;+
   3999					; .RDADR -- SUBROUTINE TO READ THE KL ADDER REGISTER.
   4000					; .RDADX -- SUBROUTINE TO READ THE KL ADDER EXTENSION REGISTER.
   4001					; .RDARR -- SUBROUTINE TO READ THE KL ARITHMETIC REGISTER.
   4002					; .RDARX -- SUBROUTINE TO READ THE KL ARITHMETIC REGISTER EXTENSION.
   4003					; .RDBRR -- SUBROUTINE TO READ THE KL BUFFER REGISTER.
   4004					; .RDBRX -- SUBROUTINE TO READ THE KL BUFFER REGISTER EXTENSION.
   4005					; .RDEBS -- SUBROUTINE TO READ THE KL EBUS REGISTER.
   4006					; .RDFMR -- SUBROUTINE TO READ THE KL FAST MEMORY REGISTER.
   4007					; .RDMQR -- SUBROUTINE TO READ THE KL MULTIPLIER QUOTIENT REGISTER.
   4008					;
   4009					; THESE SUBROUTINES READ AND RETURN THE CONTENT OF THE SPECIFIED KL
   4010					; DATA PATH REGISTER IN A TRIPLET POINTED TO BY R1 IN THE CALL.
   4011					;
   4012					; INPUT ARGUMENTS:
   4013					;
   4014					;	R1 CONTAINS A POINTER TO A 3 WORD DATA BUFFER
   4015					;
   4016					; OUTPUT ARGUMENTS:
   4017					;
   4018					;	R0 CONTAINS A POINTER TO THE DATA.
   4019					;
   4020					; ERROR CODES RETURNED:
   4021					;
   4022					;	FRF -- FUNCTION READ FAILED.
   4023					;-
EXREG -- EXAMINE 22 AND 36 BIT 	MACRO V05.04  Tuesday 17-May-88 14:36  Page 102
.RDDPB -- SUBROUTINES TO READ THE KL DATA PATH BOARDS 7509.23

   4025						.ENABL	LSB
   4026
   4027	005254				.RDADR::
   4028	005254	012700 	000256 			MOV	#FR.RAD,R0	; READ THE KL ADDER
   4029	005260	000427 				BR	10$		; COMMON CODE
   4030						;
   4031	005262				.RDADX::
   4032	005262	012700 	000254 			MOV	#FR.ADX,R0	; READ THE KL ADDER EXTENSION
   4033	005266	000424 				BR	10$		; COMMON CODE
   4034						;
   4035	005270				.RDARR::
   4036	005270	012700 	000240 			MOV	#FR.RAR,R0	; READ THE KL ARITHMETIC REGISTER
   4037	005274	000421 				BR	10$		; COMMON CODE
   4038						;
   4039	005276				.RDARX::
   4040	005276	012700 	000252 			MOV	#FR.ARX,R0	; READ THE KL AR EXTENSION REGISTER
   4041	005302	000416 				BR	10$		; COMMON CODE
   4042						;
   4043	005304				.RDBRR::
   4044	005304	012700 	000242 			MOV	#FR.RBR,R0	; READ THE KL BUFFER REGISTER
   4045	005310	000413 				BR	10$		; COMMON CODE
   4046						;
   4047	005312				.RDBRX::
   4048	005312	012700 	000250 			MOV	#FR.BRX,R0	; READ THE KL BR EXTENSION REGISTER
   4049	005316	000410 				BR	10$		; COMMON CODE
   4050						;
   4051	005320				.RDEBS::
   4052	005320	012700 	000356 			MOV	#FR.EBS,R0	; READ THE KL EBUS REGISTER
   4053	005324	000405 				BR	10$		; COMMON CODE
   4054						;
   4055	005326				.RDFMR::
   4056	005326	012700 	000246 			MOV	#FR.RFM,R0	; READ THE KL FAST MEMORY REGISTER
   4057	005332	000402 				BR	10$		; COMMON CODE
   4058						;
   4059	005334				.RDMQR::
   4060	005334	012700 	000244 			MOV	#FR.RMQ,R0	; READ THE KL MULTIPLIER QUOTIENT REGISTER
   4061									; FALL INTO COMMON CODE
   4062	005340				10$:
   4063	005340					CALLR	.FREAD		; READ IT AND EXIT
	005340	000137 	000000G			 JMP	.FREAD
   4064						;
   4065
   4066						.DSABL	LSB
EXREG -- EXAMINE 22 AND 36 BIT 	MACRO V05.04  Tuesday 17-May-88 14:36  Page 103
.RDFLG -- SUBROUTINE TO READ THE KL PC FLAGS 7511.24

   4068					.SBTTL	.RDFLG -- SUBROUTINE TO READ THE KL PC FLAGS 7511.24
   4069
   4070					;+
   4071					; .RDFLG -- SUBROUTINE TO READ THE KL PC FLAGS.
   4072					;
   4073					; THIS SUBROUTINE READS AND RETURNS THE STATE OF THE KL PC FLAGS IN R0.
   4074					;
   4075					; INPUT ARGUMENTS:
   4076					;
   4077					;	NONE.
   4078					;
   4079					; OUTPUT ARGUMENTS:
   4080					;
   4081					;	R0 CONTAINS THE KL PC FLAGS
   4082					;
   4083					; THE FOLLOWING IS A LIST OF THE KL FLAGS RETURNED IN R0:
   4084					;
   4085					;	BIT #	PC FLAG BIT AND MEANING		KL BIT
   4086					;	-----	----------------------------	--------
   4087					;
   4088					;	12	PC.OVF -- KL OVERFLOW FLAG -- 00
   4089					;	11	PC.CY0 -- KL CARRY 0 FLAG -- 01
   4090					;	10	PC.CY1 -- KL CARRY 1 FLAG -- 02
   4091					;	09	PC.FOV -- KL FLOATING OVERFLOW FLAG -- 03
   4092					;	08	PC.BIS -- KL BYTE INCREMENT SUPPRESSION FLAG -- 04
   4093					;	07	PC.USR -- KL USER MODE FLAG -- 05
   4094					;	06	PC.UIO -- KL USER IOT MODE FLAG -- 06
   4095					;	05	PC.LIP -- KL LAST INSTRUCTION PUBLIC FLAG -- 07
   4096					;	04	PC.AFI -- KL ADDRESS FAILURE INHIBIT FLAG -- 08
   4097					;	03	PC.AT1 -- KL APR TRAP 1 FLAG -- 09
   4098					;	02	PC.AT0 -- KL APR TRAP 0 FLAG -- 10
   4099					;	01	PC.FUF -- KL FLOATING UNDERFLOW FLAG -- 11
   4100					;	00	PC.NDV -- KL NO DIVIDE FLAG -- 12
   4101					;
   4102					; ERROR CODES RETURNED:
   4103					;
   4104					;	FRF -- FUNCTION READ FAILED.
   4105					;-
EXREG -- EXAMINE 22 AND 36 BIT 	MACRO V05.04  Tuesday 17-May-88 14:36  Page 104
.RDFLG -- SUBROUTINE TO READ THE KL PC FLAGS 7511.24

   4107	005344				.RDFLG::
   4108	005344					PUSH	<R1,R2>		; SAVE R1 AND R2 ON THE STACK
	005344	010146 				 MOV	R1,-(SP)
	005346	010246 				 MOV	R2,-(SP)
   4109	005350	005001 				CLR	R1		; ..CLEAR R1
   4110	005352	005002 				CLR	R2		; ..AND R2
   4111	005354	012700 	000202 			MOV	#FR.101,R0	; ..FR CODE FOR LOW FLAGS
   4112	005360					CALL	.FREAD		; ..READ THEM
	005360	004737 	000000G			 JSR	PC,.FREAD
   4113	005364	012701 	177764 			MOV	#-^D12,R1	; ..SHIFT COUNT TO R1
   4114	005370					CALL	.TPSHI		; ..SHIFT OUR WORD
	005370	004737 	000000G			 JSR	PC,.TPSHI
   4115	005374	042710 	177700 			BIC	#177700,(R0)	; ..MASK OUT FLAG BITS
   4116	005400	051002 				BIS	(R0),R2		; ..PUT THE LOW FLAGS IN R2
   4117	005402	005001 				CLR	R1		; ..AGAIN
   4118	005404	012700 	000200 			MOV	#FR.100,R0	; ..FR CODE FOR MOST OF THE FLAGS
   4119	005410					CALL	.FREAD		; ..READ THEM
	005410	004737 	000000G			 JSR	PC,.FREAD
   4120	005414	012701 	177772 			MOV	#-^D6,R1	; ..SHIFT COUNT TO R1
   4121	005420					CALL	.TPSHI		; ..SHIFT THE DATA
	005420	004737 	000000G			 JSR	PC,.TPSHI
   4122	005424	042710 	170077 			BIC	#170077,(R0)	; ..JUST THE BITS WE WANT
   4123	005430	051002 				BIS	(R0),R2		; ..SAVE THE HIGH FLAGS IN R2
   4124	005432	005001 				CLR	R1		; ..CLEAR R1 AGAIN
   4125	005434	012700 	000264 			MOV	#FR.132,R0	; ..FR CODE FOR LAST FLAG BIT
   4126	005440					CALL	.FREAD		; ..READ IT
	005440	004737 	000000G			 JSR	PC,.FREAD
   4127	005444	032760 	000001 	000004 		BIT	#BIT00,4(R0)	; ..IS IT ON?
   4128	005452	001402 				BEQ	10$		; ..NO -- JUST EXIT
   4129	005454	052702 	010000 			BIS	#PC.OVF,R2	; ..YES -- SET IT IN OUR WORD
   4130	005460				10$:
   4131	005460	010200 				MOV	R2,R0		; ..PUT A COPY IN R0
   4132	005462					POP	<R2,R1>		; ..RESTORE REGISTERS
	005462	012602 				 MOV	(SP)+,R2
	005464	012601 				 MOV	(SP)+,R1
   4133	005466					RETURN			; TO CALLER
	005466	000207 				 RTS	PC
EXREG -- EXAMINE 22 AND 36 BIT 	MACRO V05.04  Tuesday 17-May-88 14:36  Page 105
.RDPI  -- SUBROUTINE TO READ THE PI BOARDS 7510.16

   4135					.SBTTL	.RDPI  -- SUBROUTINE TO READ THE PI BOARDS 7510.16
   4136
   4137					;+
   4138					; .RDPI -- SUBROUTINE TO READ THE KL PI BOARDS.
   4139					;
   4140					; THIS SUBROUTINE READS THE KL PI BOARDS AND STORES THE STATUS IN
   4141					; A TWO WORD TABLE, ".PITAB", WHICH IS POINTED TO BY R0 ON SUCCESSFUL
   4142					; RETURN.
   4143					;
   4144					; WORD 0 OF ".PITAB" CONTAINS:
   4145					;
   4146					;	(A) PIH 1 THRU PIH 7 (BITS 14 THRU 08),
   4147					;	(B) PI ACTIVE (BIT 07),
   4148					;	(C) PI ON 1 THRU PI ON 7 (BITS 06 THRU 00).
   4149					;
   4150					; WORD 2 OF ".PITAB" CONTAINS:
   4151					;
   4152					;	(A) PI GEN 1 THRU PI GEN 7 (BITS 06 THRU 00).
   4153					;
   4154					; INPUT ARGUMENTS:
   4155					;
   4156					;	NONE.
   4157					;
   4158					; OUTPUT ARGUMENTS:
   4159					;
   4160					;	R0 POINTS TO ".PITAB".
   4161					;
   4162					; ERROR CODES RETURNED:
   4163					;
   4164					;	FRF -- FUNCTION READ FAILED.
   4165					;-
EXREG -- EXAMINE 22 AND 36 BIT 	MACRO V05.04  Tuesday 17-May-88 14:36  Page 106
.RDPI  -- SUBROUTINE TO READ THE PI BOARDS 7510.16

   4167	005470				.RDPI::
   4168	005470					PUSH	<R1,R2,R3>	; SAVE REGISTERS
	005470	010146 				 MOV	R1,-(SP)
	005472	010246 				 MOV	R2,-(SP)
	005474	010346 				 MOV	R3,-(SP)
   4169	005476	012703 	000374'			MOV	#RDPITB,R3	; ...TABLE POINTER TO R3
   4170	005502	012702 	000000G			MOV	#.PITAB,R2	; ...SAVE AREA POINTER TO R2
   4171	005506				10$:
   4172	005506	005001 				CLR	R1		; ...CLEAR R1
   4173	005510	012300 				MOV	(R3)+,R0	; ...FR CODE TO R0
   4174	005512					CALL	.FREAD		; ...READ IT
	005512	004737 	000000G			 JSR	PC,.FREAD
   4175	005516	012301 				MOV	(R3)+,R1	; ...SHIFT COUNT TO R1
   4176	005520					CALL	.TPSHI		; ...SHIFT IT
	005520	004737 	000000G			 JSR	PC,.TPSHI
   4177	005524	042310 				BIC	(R3)+,(R0)	; ...CLEAR UNWANTED BIT(S)
   4178	005526	011022 				MOV	(R0),(R2)+	; ...PUT IT IN SAVE AREA
   4179	005530	022703 	000410'			CMP	#RDPITE,R3	; ...ARE WE AT END OF TABLE?
   4180	005534	001364 				BNE	10$		; ...NO -- KEEP GOING
   4181	005536	011300 				MOV	(R3),R0		; ...YES -- POINT TO SAVE AREA
   4182	005540					POP	<R3,R2,R1>	; ...RESTORE REGISTERS
	005540	012603 				 MOV	(SP)+,R3
	005542	012602 				 MOV	(SP)+,R2
	005544	012601 				 MOV	(SP)+,R1
   4183	005546					RETURN			; TO CALLER
	005546	000207 				 RTS	PC
   4184
   4185	000374				.PSECT	DATA
   4186
   4187	000374				RDPITB:
   4188	000374	000200 				.WORD	FR.PI0		; FIRST READ CODE
   4189	000376	177756 				.WORD	-^D18		; SHIFT COUNT
   4190	000400	100000 				.WORD	BIT15		; MASK
   4191	000402	000202 				.WORD	FR.PI1		; SECOND READ CODE
   4192	000404	177756 				.WORD	-^D18		; SHIFT COUNT
   4193	000406	177600 				.WORD	177600		; MASK
   4194		000410'			RDPITE=.
   4195	000410	000000G				.WORD	.PITAB		; POINTER TO SAVE AREA
   4196
   4197	005550				.PSECT
EXREG -- EXAMINE 22 AND 36 BIT 	MACRO V05.04  Tuesday 17-May-88 14:36  Page 107
.RDSMR -- SUBROUTINE TO READ SMALL KL REGISTERS 7511.05

   4199					.SBTTL	.RDSMR -- SUBROUTINE TO READ SMALL KL REGISTERS 7511.05
   4200
   4201					;+
   4202					; .RDCRA -- SUBROUTINE TO READ THE KL CRAM ADDR REGISTER.
   4203					; .RDCRL -- SUBROUTINE TO READ THE KL CRAM LOC REGISTER.
   4204					; .RDDRA -- SUBROUTINE TO READ THE KL DRAM ADDR REGISTER.
   4205					; .RDFER -- SUBROUTINE TO READ THE KL FLOATING EXPONENT REGISTER.
   4206					; .RDSCR -- SUBROUTINE TO READ THE KL SHIFT COUNT REGISTER.
   4207					; .RDSBR -- SUBROUTINE TO READ THE KL CRAM SUBROUTINE RETURN REGISTER.
   4208					;
   4209					; THESE SUBROUTINES READ THE CONTENT OF THE SPECIFIED REGISTER
   4210					; AND RETURN IT IN R0. NOTE THAT THE CONTENT OF EACH REGISTER IS LESS
   4211					; THAN 16 BITS AND MUST BE READ USING TWO FUNCTION READS.
   4212					;
   4213					; INPUT ARGUMENTS:
   4214					;
   4215					;	NONE.
   4216					;
   4217					; OUTPUT ARGUMENTS:
   4218					;
   4219					;	R0 HOLDS THE CONTENT OF THE SPECIFIED REGISTER
   4220					;
   4221					; ERROR CODES RETURNED:
   4222					;
   4223					;	FRF -- FUNCTION READ FAILED.
   4224					;-
   4225
   4226						.ENABL	LSB
   4227
   4228	005550				.RDCRA::
   4229	005550	012700 	000412'			MOV	#CRATAB,R0	; POINT TO CRAM ADDRESS TABLE
   4230	005554	000416 				BR	10$		; DO COMMON CODE
   4231						;
   4232	005556				.RDCRL::
   4233	005556	012700 	000426'			MOV	#CRLTAB,R0	; POINT TO CR LOC TABLE
   4234	005562	000413 				BR	10$		; DO COMMON CODE
   4235						;
   4236	005564				.RDDRA::
   4237	005564	012700 	000442'			MOV	#DRATAB,R0	; POINT TO DRAM ADDR TABLE
   4238	005570	000410 				BR	10$		; DO COMMON CODE
   4239						;
   4240	005572				.RDFER::
   4241	005572	012700 	000456'			MOV	#FERTAB,R0	; POINT TO FE TABLE
   4242	005576	000405 				BR	10$		; DO COMMON CODE
   4243						;
   4244	005600				.RDSBR::
   4245	005600	012700 	000472'			MOV	#SBRTAB,R0	; POINT TO CRAM SBR RET TABLE
   4246	005604	000402 				BR	10$		; DO COMMON CODE
   4247						;
   4248	005606				.RDSCR::
   4249	005606	012700 	000506'			MOV	#SCRTAB,R0	; POINT TO SHIFT COUNT TABLE
   4250					;	BR	10$		; FALL INTO COMMON CODE
   4251
   4252					;	[CONTINUED ON THE FOLLOWING PAGE]
EXREG -- EXAMINE 22 AND 36 BIT 	MACRO V05.04  Tuesday 17-May-88 14:36  Page 108
.RDSMR -- SUBROUTINE TO READ SMALL KL REGISTERS 7511.05

   4254					;	[CONTINUED FROM THE PREVIOUS PAGE]
   4255
   4256	005612				10$:				; HERE FROM PREVIOUS PAGE
   4257	005612					PUSH	<R1,R2>		; SAVE CALLER'S REGISTERS
	005612	010146 				 MOV	R1,-(SP)
	005614	010246 				 MOV	R2,-(SP)
   4258	005616	010002 				MOV	R0,R2		; ..POINTER TO R2
   4259	005620	005001 				CLR	R1		; ..CLEAR R1
   4260	005622	012200 				MOV	(R2)+,R0	; ..READ THE HIGH ORDER BITS
   4261	005624					CALL	.FREAD		; ..DO IT
	005624	004737 	000000G			 JSR	PC,.FREAD
   4262	005630	012201 				MOV	(R2)+,R1	; ..SHIFT COUNT TO R1
   4263	005632					CALL	.TPSHI		; ..SHIFT IT
	005632	004737 	000000G			 JSR	PC,.TPSHI
   4264	005636	042210 				BIC	(R2)+,(R0)	; ..MASK OUT UNWANTED BITS
   4265	005640					PUSH	(R0)		; ..SAVE THE BITS
	005640	011046 				 MOV	(R0),-(SP)
   4266	005642	012200 				MOV	(R2)+,R0	; ...READ THE LOW ORDER BITS
   4267	005644	005001 				CLR	R1		; ...CLEAR R1
   4268	005646					CALL	.FREAD		; ...DO IT
	005646	004737 	000000G			 JSR	PC,.FREAD
   4269	005652	012201 				MOV	(R2)+,R1	; ...SHIFT COUNT TO R1
   4270	005654					CALL	.TPSHI		; ...SHIFT IT
	005654	004737 	000000G			 JSR	PC,.TPSHI
   4271	005660	042210 				BIC	(R2)+,(R0)	; ...MASK OUT UNWANTED BITS
   4272	005662	051610 				BIS	(SP),(R0)	; ...SET IN THE HIGH ORDER BITS
   4273	005664	011000 				MOV	(R0),R0		; ...PUT IT IN R0
   4274	005666	005726 				TST	(SP)+		; ...CLEAR THE STACK
   4275	005670					POP	<R2,R1>		; ..RESTORE REGISTERS
	005670	012602 				 MOV	(SP)+,R2
	005672	012601 				 MOV	(SP)+,R1
   4276	005674					RETURN			; TO CALLER
	005674	000207 				 RTS	PC
EXREG -- EXAMINE 22 AND 36 BIT 	MACRO V05.04  Tuesday 17-May-88 14:36  Page 109
.RDSMR -- SUBROUTINE TO READ SMALL KL REGISTERS 7511.05

   4278					; TABLES FOR SMALL REGISTER READS
   4279
   4280	000412				.PSECT	DATA
   4281
   4282	000412				CRATAB:
   4283	000412	000312 				.WORD	FR.CA1		; FR FOR CRAM ADDR HIGH BITS
   4284	000414	177750 				.WORD	-^D24		; SHIFT COUNT FOR SAME
   4285	000416	174077 				.WORD	174077		; BIT MASK FOR SAME
   4286	000420	000310 				.WORD	FR.CA2		; FR FOR CRAM ADDR LOW BITS
   4287	000422	177742 				.WORD	-^D30		; SHIFT COUNT FOR SAME
   4288	000424	177700 				.WORD	177700		; BIT MASK FOR SAME
   4289
   4290	000426				CRLTAB:
   4291	000426	000316 				.WORD	FR.CL1		; FR FOR CRAM LOC HIGH BITS
   4292	000430	177750 				.WORD	-^D24		; SHIFT COUNT FOR SAME
   4293	000432	174077 				.WORD	174077		; BIT MASK FOR SAME
   4294	000434	000314 				.WORD	FR.CL2		; FR FOR CRAM LOC LOW BITS
   4295	000436	177742 				.WORD	-^D30		; SHIFT COUNT FOR SAME
   4296	000440	177700 				.WORD	177700		; BIT MASK FOR SAME
   4297
   4298	000442				DRATAB:
   4299	000442	000260 				.WORD	FR.DA1		; FR FOR DRAM ADDR HIGH BITS
   4300	000444	177764 				.WORD	-^D12		; SHIFT COUNT FOR SAME
   4301	000446	177077 				.WORD	177077		; BIT MASK FOR SAME
   4302	000450	000262 				.WORD	FR.DA2		; FR FOR DRAM ADDR LOW BITS
   4303	000452	177756 				.WORD	-^D18		; SHIFT COUNT FOR SAME
   4304	000454	177700 				.WORD	177700		; BIT MASK FOR SAME
   4305
   4306	000456				FERTAB:
   4307	000456	000266 				.WORD	FR.FE1		; FR FOR FE HIGH BITS
   4308	000460	177755 				.WORD	-^D19		; SHIFT COUNT FOR SAME
   4309	000462	176037 				.WORD	176037		; BIT MASK FOR SAME
   4310	000464	000264 				.WORD	FR.FE2		; FR FOR FE LOW BITS
   4311	000466	177750 				.WORD	-^D24		; SHIFT COUNT FOR SAME
   4312	000470	177740 				.WORD	177740		; BIT MASK FOR SAME
   4313
   4314	000472				SBRTAB:
   4315	000472	000306 				.WORD	FR.SR1		; FR FOR SBR RET HIGH BITS
   4316	000474	177750 				.WORD	-^D24		; SHIFT COUNT FOR SAME
   4317	000476	174077 				.WORD	174077		; BIT MASK FOR SAME
   4318	000500	000304 				.WORD	FR.SR2		; FR FOR SBR RET LOW BITS
   4319	000502	177742 				.WORD	-^D30		; SHIFT COUNT FOR SAME
   4320	000504	177700 				.WORD	177700		; BIT MASK FOR SAME
   4321
   4322	000506				SCRTAB:
   4323	000506	000262 				.WORD	FR.SC1		; FR FOR SHIFT COUNT HIGH BITS
   4324	000510	177755 				.WORD	-^D19		; SHIFT COUNT FOR SAME
   4325	000512	177417 				.WORD	177417		; BIT MASK FOR SAME
   4326	000514	000260 				.WORD	FR.SC2		; FR FOR SHIFT COUNT LOW BITS
   4327	000516	177750 				.WORD	-^D24		; SHIFT COUNT FOR SAME
   4328	000520	177760 				.WORD	177760		; BIT MASK FOR SAME
   4329
   4330	005676				.PSECT
EXREG -- EXAMINE 22 AND 36 BIT 	MACRO V05.04  Tuesday 17-May-88 14:36  Page 110
.RDVXX -- KL VMA BOARD READ SUBROUTINES 7510.21

   4332					.SBTTL	.RDVXX -- KL VMA BOARD READ SUBROUTINES 7510.21
   4333
   4334					;+
   4335					; .RDVPC -- SUBROUTINE TO READ THE KL PROGRAM COUNTER REGISTER
   4336					; .RDVAB -- SUBROUTINE TO READ THE KL ADDRESS BREAK REGISTER.
   4337					; .RDVMA -- SUBROUTINE TO READ THE KL VMA REGISTER.
   4338					; .RDVMH -- SUBROUTINE TO READ THE KL VMAH REGISTER.
   4339					;
   4340					; THESE SUBROUTINES READ AND ASSEMBLE THE DESIRED VMA BOARD REGISTER
   4341					; INTO A THREE WORD BLOCK POINTED TO BY R1 IN THE CALL.
   4342					;
   4343					; INPUT ARGUMENTS:
   4344					;
   4345					;	R1 POINTS TO A TWO WORD BUFFER FOR THE SPECIFIED REGISTER
   4346					;
   4347					; OUTPUT ARGUMENTS:
   4348					;
   4349					;	R1 POINTS TO A TWO WORD BUFFER FOR THE SPECIFIED REGISTER
   4350					;
   4351					; ERROR CODES RETURNED:
   4352					;
   4353					;	FRF -- FUNCTION READ FAILED.
   4354					;-
   4355
   4356						.ENABL	LSB
   4357
   4358	005676				.RDVPC::
   4359	005676	012700 	000522'			MOV	#PCTAB,R0	; POINTER TO PC TABLE
   4360	005702	000410 				BR	10$
   4361						;
   4362	005704				.RDVAB::
   4363	005704	012700 	000530'			MOV	#ABTAB,R0	; POINTER TO ADDRESS BREAK TABLE
   4364	005710	000405 				BR	10$
   4365						;
   4366	005712				.RDVMA::
   4367	005712	012700 	000536'			MOV	#VMATB,R0	; POINTER TO VMA TABLE
   4368	005716	000402 				BR	10$
   4369						;
   4370	005720				.RDVMH::
   4371	005720	012700 	000544'			MOV	#VMHTB,R0	; POINTER TO VMAH TABLE
   4372	005724				10$:
   4373	005724					CALL	R5,.REGSV	; SAVE R5 - R1 ON THE STACK
	005724	004537 	000000G			 JSR	R5,.REGSV
   4374	005730	010005 				MOV	R0,R5		; TABLE POINTER TO R5
   4375	005732	012704 	000004 			MOV	#^D4,R4		; ITERATION COUNT TO R4
   4376	005736	010103 				MOV	R1,R3		; USER BUFFER ADDRESS TO R3
   4377	005740	012502 				MOV	(R5)+,R2	; FUNCTION READ BASE TO R2
   4378	005742					PUSH	(R5)+		; MASK WORD TO TOP OF THE STACK
	005742	012546 				 MOV	(R5)+,-(SP)
   4379	005744	011505 				MOV	(R5),R5		; .SHIFT BASE TO R5
   4380	005746	010100 				MOV	R1,R0		; .CLEAR CALLER'S AREA
   4381	005750					CALL	.TPCLR		; .SO
	005750	004737 	000000G			 JSR	PC,.TPCLR
   4382
   4383					;	[CONTINUED ON THE FOLLOWING PAGE]
EXREG -- EXAMINE 22 AND 36 BIT 	MACRO V05.04  Tuesday 17-May-88 14:36  Page 111
.RDVXX -- KL VMA BOARD READ SUBROUTINES 7510.21

   4385					;	[CONTINUED FROM THE PREVIOUS PAGE]
   4386
   4387	005754				20$:				; .GET HERE FROM .RDVXX, ABOVE
   4388	005754	010200 				MOV	R2,R0		; .SET THE FUNCTION READ NUMBER
   4389	005756	006300 				ASL	R0		; .TIMES 2
   4390	005760	005001 				CLR	R1		; .CLEAR R1
   4391	005762					CALL	.FREAD		; .READ IT
	005762	004737 	000000G			 JSR	PC,.FREAD
   4392	005766	041620 				BIC	(SP),(R0)+	; .SP POINTS TO BIT MASK
   4393	005770	041610 				BIC	(SP),(R0)	; .R0 POINTS TO READ BLOCK
   4394	005772	005740 				TST	-(R0)		; .NOW BACK THE POINTER UP
   4395	005774	010501 				MOV	R5,R1		; .GET THE SHIFT COUNT INTO R1
   4396	005776					CALL	.TPSHI		; .AND SHIFT IT
	005776	004737 	000000G			 JSR	PC,.TPSHI
   4397	006002	052023 				BIS	(R0)+,(R3)+	; .SET THE BITS IN THE USER BUFFER
   4398	006004	051013 				BIS	(R0),(R3)	; .SO
   4399	006006	005743 				TST	-(R3)		; .BACK CALLER'S POINTER UP
   4404	006010	122225 				CMPB	(R2)+,(R5)+	; .INCREMENT READ NUMBER AND SHIFT COUNT
   4406	006012	077420 				SOB	R4,20$		; .DO THIS FOUR TIMES
   4407	006014	042763 	177600 	000002 		BIC	#177600,2(R3)	; .GET RID OF BITS HIGHER THAN 13
   4408	006022	005726 				TST	(SP)+		; CLEAR THE STACK
   4409	006024					RETURN			; RETURN TO CALLER
	006024	000207 				 RTS	PC
   4410
   4411						.DSABL	LSB
   4412
   4413					; TABLES FOR VMA BOARD READS
   4414
   4415	000522				.PSECT	DATA
   4416
   4417	000522				PCTAB:
   4418	000522	000150 				.WORD	FR.150/2	; BASE READ FOR PC REGISTER
   4419	000524	135673 				.WORD	135673		; BIT MASK   "  "     "
   4420	000526	177776 				.WORD	-^D2		; SHIFT CNT  "  "     "
   4421	000530				ABTAB:
   4422	000530	000150 				.WORD	FR.150/2	; BASE READ FOR ADDRESS BREAK REGISTER
   4423	000532	167356 				.WORD	167356		; BIT MASK   "	   "	  "	 "
   4424	000534	000000 				.WORD	0		; SHIFT CNT  "	   "	  "	 "
   4425	000536				VMATB:
   4426	000536	000154 				.WORD	FR.154/2	; BASE READ FOR VMA REGISTER
   4427	000540	135673 				.WORD	135673		; BIT MASK   "	 "     "
   4428	000542	177776 				.WORD	-^D2		; SHIFT CNT  "	 "     "
   4429	000544				VMHTB:
   4430	000544	000154 				.WORD	FR.154/2	; BASE READ FOR VMAH REGISTER
   4431	000546	167356 				.WORD	167356		; BIT MASK   "	 "	"
   4432	000550	000000 				.WORD	0		; SHIFT CNT  "	 "	"
   4433
   4434	006026				.PSECT
   4435					.TITLE	GTTIM -- INPUT AND DISPLAY DATE AND TIME MODULE 7703.04
   4436
   4437						.IDENT	"006060"
   4438
   4439					;
   4440					;                             COPYRIGHT (C) 1975, 1984, 1985 BY
   4441					;                     DIGITAL EQUIPMENT CORPORATION, MAYNARD MASS.
   4442					;			ALL RIGHTS RESERVED.
   4443					;       THIS SOFTWARE IS FURNISHED UNDER A LICENSE AND MAY BE  USED  AND  COPIED
GTTIM -- INPUT AND DISPLAY DATE	MACRO V05.04  Tuesday 17-May-88 14:36  Page 111-1
.RDVXX -- KL VMA BOARD READ SUBROUTINES 7510.21

   4444					;       ONLY IN ACCORDANCE WITH THE TERMS OF SUCH LICENSE AND WITH THE INCLUSION
   4445					;       OF THE ABOVE COPYRIGHT NOTICE.  THIS SOFTWARE OR ANY OTHER COPIES THERE-
   4446					;       OF  MAY NOT BE PROVIDED OR OTHERWISE MADE AVAILABLE TO ANY OTHER PERSON.
   4447					;       NO TITLE TO OR OWNERSHIP OF THE SOFTWARE IS HEREBY TRANSFERRED.
   4448					;
   4449					;       THE INFORMATION CONTAINED IN THIS SOFTWARE IS SUBJECT TO CHANGE  WITHOUT
   4450					;       NOTICE  AND SHOULD NOT BE CONSTRUED AS A COMMITMENT BY DIGITAL EQUIPMENT
   4451					;       CORPORATION.
   4452					;
   4453					;       DIGITAL ASSUMES NO RESPONSIBILITY FOR THE  USE  OR  RELIABILITY  OF  ITS
   4454					;       SOFTWARE ON EQUIPMENT WHICH IS NOT SUPPILED BY DIGITAL.
   4455					;
   4456					;		MODULE: INPUT AND DISPLAY DATE AND TIME
   4457					;
   4458					;		VERSION: 06-06
   4459					;
   4460					;		AUTHOR: R. BELANGER
   4461					;
   4462					;		DATE: 7703.04
   4463					;
   4464					;	THIS MODULE CONTAINS:
   4465					;
   4466					;	1) INPUT DATE AND TIME CODE
   4467					;	2) DISPLAY DATE AND TIME CODE
GTTIM -- INPUT AND DISPLAY DATE	MACRO V05.04  Tuesday 17-May-88 14:36  Page 112
.GTDAT -- SUBROUTINE TO INPUT THE CURRENT DATE 7702.15

   4469					.SBTTL	.GTDAT -- SUBROUTINE TO INPUT THE CURRENT DATE 7702.15
   4470
   4471					;+
   4472					; .GTDAT -- SUBROUTINE TO INPUT THE CURRENT DATE
   4473					;
   4474					; THIS SUBROUTINE WILL EVALUATE A PREVIOUSLY INPUT ASCII STRING OF THE
   4475					; FORM "DD-MMM-YYYY" AND RETURN THE VALUE OF THE YEAR, MONTH AND DAY
   4476					; IN A THREE BYTE BLOCK.
   4477					;
   4478					; INPUT ARGUMENTS:
   4479					;
   4480					;	R0 POINTS TO A THREE BYTE DATA BLOCK
   4481					;	R5 POINTS TO THE INPUT STREAM
   4482					;
   4483					; OUTPUT ARGUMENTS:
   4484					;
   4485					;	R0 POINTS TO THE THREE BYTE DATA BLOCK
   4486					;
   4487					; ERROR CODES RETURNED:
   4488					;
   4489					;	DBT -- DATE BEFORE TODAY
   4490					;	DOR -- DATE OUT OF RANGE
   4491					;	IDF -- ILLEGAL DATE FORMAT
   4492					;	YOR -- YEAR OUT OF RANGE
   4493					;-
   4494
   4495						.MCALL	DIR$, GTIM$S
   4496
   4497	006026				.GTDAT::
   4498	006026	013737 	000000G	000000G		MOV	.IRADX,.RDXSV	; SAVE THE CURRENT RADIX
   4499	006034	012737 	000012 	000000G		MOV	#^D10,.IRADX	; SET THE RADIX TO DECIMAL
   4500	006042					PUSH	<R5,R2,R1,R0>	; SAVE CALLER'S POINTER
	006042	010546 				 MOV	R5,-(SP)
	006044	010246 				 MOV	R2,-(SP)
	006046	010146 				 MOV	R1,-(SP)
	006050	010046 				 MOV	R0,-(SP)
   4501	006052	012701 	000552'			MOV	#.DTBUF,R1	; ....TIME BUFFER POINTER TO R1
   4502	006056					GTIM$S	R1		; ....READ CURRENT DATE AND TIME
	006056	010146 				MOV	R1,-(SP)
	006060	012746 				MOV	(PC)+,-(SP)
	006062	   073 	   002 			.BYTE	59.,2
	006064	104375 				EMT	375
   4503	006066	112120 				MOVB	(R1)+,(R0)+	; ....SET DEFAULT YEAR
   4504	006070	105721 				TSTB	(R1)+		; ....ADVANCE POINTER
   4505	006072	112120 				MOVB	(R1)+,(R0)+	; ....SET DEFAULT MONTH
   4506	006074	105721 				TSTB	(R1)+		; ....ADVANCE POINTER
   4507	006076	111120 				MOVB	(R1),(R0)+	; ....SET DEFAULT DAY
   4508	006100	010002 				MOV	R0,R2		; ....SAVE POINTER TO CALLER'S BUFFER
   4509	006102	012701 	000000G			MOV	#.CIBFR,R1	; ....BUFFER POINTER TO R1
   4510	006106	010105 				MOV	R1,R5		; ....AND R5
   4511	006110	012700 	002167'			MOV	#GTDMS0,R0	; ....PROMPT FOR DATE
   4512	006114					CALL	.TYMSF		; ....FORCE IT OUT
	006114	004737 	000000G			 JSR	PC,.TYMSF
   4513	006120					CALL	.GTLIN		; ....READ THE RESPONSE
	006120	004737 	000000G			 JSR	PC,.GTLIN
   4514	006124	001467 				BEQ	35$		; ....DEFAULT IF NULL
   4515	006126					CALL	.CKARG		; ....SEE WHAT KIND OF ARGUMENT FOLLOWS
GTTIM -- INPUT AND DISPLAY DATE	MACRO V05.04  Tuesday 17-May-88 14:36  Page 112-1
.GTDAT -- SUBROUTINE TO INPUT THE CURRENT DATE 7702.15

	006126	004737 	000000G			 JSR	PC,.CKARG
   4516	006132	001551 				BEQ	GTDIDF		; ....ILLEGAL IF ALPHABETIC
   4517	006134					PUSH	R5		; ....SAVE THE BUFFER POINTER
	006134	010546 				 MOV	R5,-(SP)
   4518	006136				10$:
   4519	006136	111504 				MOVB	(R5),R4		; .....LOOK AT ONE CHARACTER
   4520	006140	001407 				BEQ	20$		; .....DONE IF NULL
   4521	006142	122704 	000055 			CMPB	#'-,R4		; .....IS IT A <HYPHEN>?
   4522	006146	001002 				BNE	15$		; .....NO -- GO ON
   4523	006150	112715 	000040 			MOVB	#.SPACE,(R5)	; .....YES -- MAKE IT A <SPACE>
   4524	006154				15$:
   4525	006154	105725 				TSTB	(R5)+		; .....ADVANCE THE POINTER
   4526	006156	000767 				BR	10$		; .....AND LOOK FOR MORE
   4527						;
   4528	006160				20$:
   4529	006160					POP	R5		; .....RESTORE THE POINTER
	006160	012605 				 MOV	(SP)+,R5
   4530	006162	005046 				CLR	-(SP)		; ....CLEAR A BUFFER ON THE STACK
   4531	006164	005046 				CLR	-(SP)		; .....
   4532	006166	005046 				CLR	-(SP)		; ......
   4533	006170	010600 				MOV	SP,R0		; .......POINT TO THE BUFFER
   4534	006172					CALL	.GTNBR		; .......READ THE DAY
	006172	004737 	000000G			 JSR	PC,.GTNBR
   4535	006176	111042 				MOVB	(R0),-(R2)	; .......AND SET IT
   4536	006200					PUSH	R0		; .......SAVE THE POINTER
	006200	010046 				 MOV	R0,-(SP)
   4537	006202					CALL	.CKARG		; .......SEE IF ALPHABETIC FOLLOWS
	006202	004737 	000000G			 JSR	PC,.CKARG
   4538	006206	002523 				BLT	GTDIDF		; .......NUMERIC -- GIVE "IDF" ERROR
   4539	006210	012700 	000000G			MOV	#.MONTB,R0	; ........MONTH TABLE POINTER TO R0
   4540	006214					CALL	.TSCAN		; ........SCAN FOR THE MONTH
	006214	004737 	000000G			 JSR	PC,.TSCAN
   4541	006220	116042 	000002 			MOVB	2(R0),-(R2)	; ........STASH THE MONTH AWAY
   4542	006224					POP	R0		; ........RESTORE THE BUFFER POINTER
	006224	012600 				 MOV	(SP)+,R0
   4543	006226	112504 				MOVB	(R5)+,R4	; .......GET THE LAST CHARACTER
   4544	006230	132764 	000010 	000000G		BITB	#CH.EOC,.CHTAB(R4)
   4545	006236	001020 				BNE	30$		; .......EXIT IF E-O-C
   4546	006240					CALL	.TPCLR		; .......RESET THE BUFFER
	006240	004737 	000000G			 JSR	PC,.TPCLR
   4547	006244					CALL	.CKARG		; .......SEE IF NUMERIC FOLLOWS
	006244	004737 	000000G			 JSR	PC,.CKARG
   4548	006250	001502 				BEQ	GTDIDF		; .......GIVE "IDF" ERROR IF NOT
   4549	006252					CALL	.GTNBR		; .......READ THE YEAR
	006252	004737 	000000G			 JSR	PC,.GTNBR
   4550	006256	022710 	003554 			CMP	#^D1900,(R0)	; .......DID HE SAY 19XX?
   4551	006262	003003 				BGT	25$		; .......NO -- GO ON
   4552	006264	162710 	003554 			SUB	#^D1900,(R0)	; .......YES -- FIX IT UP
   4553	006270	002475 				BLT	GTDYOR		; .......ERROR -- YOR
   4554	006272				25$:
   4555	006272	111042 				MOVB	(R0),-(R2)	; .......SET THE YEAR - 1900
   4556	006274					CALL	.CKEOC		; .......MUST HAVE E-O-C
	006274	004737 	000000G			 JSR	PC,.CKEOC
   4557	006300				30$:
   4558	006300	062706 	000006 			ADD	#^D6,SP		; .......RESET THE STACK
   4559	006304				35$:
   4560	006304	011600 				MOV	(SP),R0		; ....RESTORE CALLER'S POINTER
GTTIM -- INPUT AND DISPLAY DATE	MACRO V05.04  Tuesday 17-May-88 14:36  Page 112-2
.GTDAT -- SUBROUTINE TO INPUT THE CURRENT DATE 7702.15

   4561	006306	116002 	000001 			MOVB	1(R0),R2	; ....MONTH TO R2
   4562	006312	012701 	172452 			MOV	#^C5325,R1	; ....BIT MASK TO R1
   4563	006316	122702 	000002 			CMPB	#^D2,R2		; ....IS THIS FEBRUARY?
   4564	006322	001411 				BEQ	45$		; ....YES -- DO SPECIAL CKECKS
   4565	006324	126027 	000002 	000037 		CMPB	2(R0),#^D31	; ....NO -- HOW MANY DAYS?
   4566	006332	003046 				BGT	GTDDOR		; ....GIVE "DOR" ERROR IF .GT. ^D31
   4567	006334	002414 				BLT	50$		; ....ALL OK IF .LT. ^D31
   4568	006336				40$:
   4569	006336	006201 				ASR	R1		; ....SHIFT THE BIT MASK
   4570	006340	077202 				SOB	R2,40$		; ....BY THE MONTH
   4571	006342	103011 				BCC	50$		; ....ALL OK IF CC-C IS CLEAR
   4572	006344	000441 				BR	GTDDOR		; ....OTHERWISE GIVE "DOR" ERROR
   4573						;
   4574	006346				45$:
   4575	006346	126027 	000002 	000035 		CMPB	2(R0),#^D29	; ....HATH FEBRUARY 29 DAYS?
   4576	006354	003035 				BGT	GTDDOR		; ....NEVER MORE -- GIVE "DOR" ERROR
   4577	006356	002403 				BLT	50$		; ....ALWAYS LESS -- EXIT
   4578	006360	132710 	000003 			BITB	#3,(R0)		; ....IS THIS A LEAP YEAR?
   4579	006364	001031 				BNE	GTDDOR		; ....NO -- GIVE "DOR" ERROR
   4580	006366				50$:
   4581	006366	012701 	000552'			MOV	#.DTBUF,R1	; ....POINT TO THE DATE BUFFER
   4582	006372	122021 				CMPB	(R0)+,(R1)+	; ....SEE IF YEAR IS OK
   4583	006374	002422 				BLT	GTDDBT		; ....NO -- GIVE "DBT" ERROR
   4584	006376	003007 				BGT	55$		; ....YES -- BEYOND THIS YEAR??
   4585	006400	105721 				TSTB	(R1)+		; ....NO -- ADVANCE THE POINTER
   4586	006402	122021 				CMPB	(R0)+,(R1)+	; ....IS THE MONTH OK?
   4587	006404	002416 				BLT	GTDDBT		; ....NO -- GIVE "DBT" ERROR
   4588	006406	003003 				BGT	55$		; ....YES -- BEYOND THIS YEAR??
   4589	006410	105721 				TSTB	(R1)+		; ....NO -- ADVANCE THE POINTER
   4590	006412	121011 				CMPB	(R0),(R1)	; ....IS THE DAY OK?
   4591	006414	002412 				BLT	GTDDBT		; ....NO -- GIVE "DBT" ERROR
   4592	006416				55$:
   4593	006416					POP	<R0,R1,R2,R5>	; ....YES -- RESTORE REGISTERS
	006416	012600 				 MOV	(SP)+,R0
	006420	012601 				 MOV	(SP)+,R1
	006422	012602 				 MOV	(SP)+,R2
	006424	012605 				 MOV	(SP)+,R5
   4594	006426	013737 	000000G	000000G		MOV	.RDXSV,.IRADX	; RESET THE RADIX
   4595	006434	005737 	000000G			TST	.INCHC		; LOOK AT THE CHARACTER COUNT
   4596	006440					RETURN			; EXIT
	006440	000207 				 RTS	PC
GTTIM -- INPUT AND DISPLAY DATE	MACRO V05.04  Tuesday 17-May-88 14:36  Page 113
.GTDAT -- SUBROUTINE TO INPUT THE CURRENT DATE 7702.15

   4598	006442				GTDDBT:				; +++001
   4599	006442					ERROR$	DBT		; ERROR -- DATE BEFORE TODAY
	006442	012746 	014544 			 MOV	#^RDBT,-(SP)
	006446	104400 				 TRAP	TC.ERR
   4600						;
   4601	006450				GTDDOR:				;  +++001
   4602	006450					ERROR$	DOR		; ERROR -- DATE OUT OF RANGE
	006450	012746 	015552 			 MOV	#^RDOR,-(SP)
	006454	104400 				 TRAP	TC.ERR
   4603						;
   4604	006456				GTDIDF:
   4605	006456					ERROR$	IDF		; ERROR -- ILLEGAL DATE FORMAT
	006456	012746 	034346 			 MOV	#^RIDF,-(SP)
	006462	104400 				 TRAP	TC.ERR
   4606						;
   4607	006464				GTDYOR:				;  +++001
   4608	006464					ERROR$	YOR		; ERROR -- YEAR OUT OF RANGE
	006464	012746 	117252 			 MOV	#^RYOR,-(SP)
	006470	104400 				 TRAP	TC.ERR
   4609						;
   4610
   4611	000552				.PSECT	DATA
   4612
   4613	000552				.DTBUF::
   4614	000552	000000 	000000 	000000 		.WORD	0,0,0,0,0,0,0,0
	000560	000000 	000000 	000000
	000566	000000 	000000
   4615
   4616	002167				.PSECT	MESSAG
   4617
   4618	002167				GTDMS0:
   4619	002167	   104 	   101 	   124 		.ASCIZ	%DATE: %
	002172	   105 	   072 	   040
	002175	   000
   4620
   4621	006472				.PSECT
   4622
GTTIM -- INPUT AND DISPLAY DATE	MACRO V05.04  Tuesday 17-May-88 14:36  Page 114
.GTTIM -- SUBROUTINE TO INPUT A TIME VALUE 7702.15

   4624					.SBTTL	.GTTIM -- SUBROUTINE TO INPUT A TIME VALUE 7702.15
   4625
   4626					;+
   4627					; .GTTIM -- SUBROUTINE TO INPUT A TIME VALUE
   4628					;
   4629					; THIS SUBROUTINE WILL ACCEPT A TIME VALUE FROM THE CONSOLE INPUT
   4630					; DEVICE OF THE FORMAT "HH:MM" OR "HHMM", AND RETURN IT EXPRESSED
   4631					; AS SECONDS-SINCE-MIDNIGHT / 2 (SSM).
   4632					;
   4633					; INPUT ARGUMENTS:
   4634					;
   4635					;	R0 POINTS TO THE DESTINATION FOR THE VALUE
   4636					;
   4637					; OUTPUT ARGUMENTS:
   4638					;
   4639					;	R0 POINTS TO THE TIME VALUE
   4640					;	CC-Z WILL BE SET TO INDICATE NO TIME WAS SPECIFIED (DEFAULT)
   4641					;
   4642					; ERROR CODES RETURNED:
   4643					;
   4644					;	ITF -- ILLEGAL TIME FORMAT
   4645					;	TOR -- TIME OUT OF RANGE
   4646					;-
   4647
   4648	006472				.GTTIM::
   4649	006472	013737 	000000G	000000G		MOV	.IRADX,.RDXSV	; SAVE THE CURRENT RADIX
   4650	006500	012737 	000012 	000000G		MOV	#^D10,.IRADX	; SET THE INPUT RADIX TO DECIMAL
   4651	006506					PUSH	<R5,R2,R1,R0>	; SAVE CALLER'S REGISTERS
	006506	010546 				 MOV	R5,-(SP)
	006510	010246 				 MOV	R2,-(SP)
	006512	010146 				 MOV	R1,-(SP)
	006514	010046 				 MOV	R0,-(SP)
   4652	006516	012702 	177777 			MOV	#-^D1,R2	; ....SET DEFAULT ARGUMENT
   4653	006522	012700 	002176'			MOV	#GTTMS0,R0	; ....PROMPT FOR TIME
   4654	006526					CALL	.TYMSF		; ....FORCE IT OUT
	006526	004737 	000000G			 JSR	PC,.TYMSF
   4655	006532	012701 	000000G			MOV	#.CIBFR,R1	; ....BUFFER POINTER TO R1
   4656	006536	010105 				MOV	R1,R5		; ....SET UP THE BUFFER POINTER
   4657	006540					CALL	.GTLIN		; ....READ THE INPUT
	006540	004737 	000000G			 JSR	PC,.GTLIN
   4658	006544	001514 				BEQ	30$		; ....EXIT IF NULL (DEFAULT)
   4659	006546					CALL	.CKSYM		; ....GET OVER LEADING BLANKS
	006546	004737 	000000G			 JSR	PC,.CKSYM
   4660	006552	132764 	000010 	000000G		BITB	#CH.EOC,.CHTAB(R4)
   4661	006560	001106 				BNE	30$		; ....EXIT IF E-O-C
   4662	006562					CALL	.CKARG		; ....SEE WHAT FOLLOWS
	006562	004737 	000000G			 JSR	PC,.CKARG
   4663	006566	001516 				BEQ	GTTITF		; ....ERROR IF NON-NUMERIC
   4664	006570	005046 				CLR	-(SP)		; ....CLEAR A BUFFER ON THE STACK
   4665	006572	005046 				CLR	-(SP)		; .....
   4666	006574	005046 				CLR	-(SP)		; ......
   4667	006576	010600 				MOV	SP,R0		; .......POINT TO THE BUFFER
   4668	006600					CALL	.GTNBR		; .......READ HOURS
	006600	004737 	000000G			 JSR	PC,.GTNBR
   4669	006604	122704 	000072 			CMPB	#':,R4		; .......IS NEXT CHARACTER A COLON?
   4670	006610	001437 				BEQ	10$		; .......YES -- GO READ MINUTE
   4671	006612					CALL	.CKEOC		; .......NO -- MUST HAVE E-O-C
GTTIM -- INPUT AND DISPLAY DATE	MACRO V05.04  Tuesday 17-May-88 14:36  Page 114-1
.GTTIM -- SUBROUTINE TO INPUT A TIME VALUE 7702.15

	006612	004737 	000000G			 JSR	PC,.CKEOC
   4672	006616	005046 				CLR	-(SP)		; .......SET UP A DIVISOR ON THE STACK
   4673	006620	005046 				CLR	-(SP)		; ........
   4674	006622					PUSH	#^D100		; .........SO
	006622	012746 	000144 			 MOV	#^D100,-(SP)
   4675	006626	010601 				MOV	SP,R1		; ..........POINT TO THE DIVISOR
   4676	006630					CALL	.TPDIV		; ..........DO THE DIVISION
	006630	004737 	000000G			 JSR	PC,.TPDIV
   4677	006634	022711 	000073 			CMP	#^D59,(R1)	; ..........IS THE REMAINDER .LT. ^D59?
   4678	006640	002474 				BLT	GTTTOR		; .......... +++001 NO -- GIVE "TOR" ERROR
   4679	006642					PUSH	(R1)		; ..........YES -- SAVE THE REMAINDER
	006642	011146 				 MOV	(R1),-(SP)
   4680	006644	022710 	000027 			CMP	#^D23,(R0)	; ...........IS THE HOUR OK?
   4681	006650	002470 				BLT	GTTTOR		; ........... +++001 NO -- GIVE "TOR" ERROR
   4682	006652	011000 				MOV	(R0),R0		; ...........YES -- GET IT
   4683	006654	012701 	000074 			MOV	#^D60,R1	; ...........MULTIPLIER TO R1
   4684	006660					CALL	$MUL		; ...........DO THE MULTIPLICATION
	006660	004737 	000000G			 JSR	PC,$MUL
   4685	006664	010100 				MOV	R1,R0		; ...........PRODUCT TO R0
   4686	006666	062600 				ADD	(SP)+,R0	; ...........COMPUTE SECONDS SINCE MIDNIGHT
   4687	006670	012701 	000036 			MOV	#^D30,R1	; ..........MULTIPLIER
   4688	006674					CALL	$MUL		; ..........DO IT
	006674	004737 	000000G			 JSR	PC,$MUL
   4689	006700	010102 				MOV	R1,R2		; ..........SAVE IT IN R2
   4690	006702	062706 	000006 			ADD	#^D6,SP		; ..........RESET THE STACK
   4691	006706	000431 				BR	20$		; .......AND EXIT
   4692						;
   4693	006710				10$:
   4694	006710	105725 				TSTB	(R5)+		; .......GET OVER THE COLON
   4695	006712	011000 				MOV	(R0),R0		; .......GET THE HOUR
   4696	006714	022700 	000027 			CMP	#^D23,R0	; .......IS THE HOUR OK?
   4697	006720	002444 				BLT	GTTTOR		; ....... +++001 NO -- GIVE "TOR" ERROR
   4698	006722	012701 	000074 			MOV	#^D60,R1	; .......CONVERT TO MINUTES
   4699	006726					CALL	$MUL		; .......SO
	006726	004737 	000000G			 JSR	PC,$MUL
   4700	006732	010102 				MOV	R1,R2		; .......STASH IT AWAY
   4701	006734	010600 				MOV	SP,R0		; .......RESET POINTER
   4702	006736					CALL	.TPCLR		; .......FLUSH THE BUFFER
	006736	004737 	000000G			 JSR	PC,.TPCLR
   4703	006742					CALL	.GTNBR		; .......READ THE NEXT NUMBER
	006742	004737 	000000G			 JSR	PC,.GTNBR
   4704	006746	011000 				MOV	(R0),R0		; .......GET THE MINUTES
   4705	006750	022700 	000073 			CMP	#^D59,R0	; .......IS THE MINUTE OK?
   4706	006754	002426 				BLT	GTTTOR		; ....... +++001 NO -- GIVE "TOR" ERROR
   4707	006756	060200 				ADD	R2,R0		; .......ADD THE HOUR
   4708	006760	012701 	000036 			MOV	#^D30,R1	; .......CONVERT TO SECONDS
   4709	006764					CALL	$MUL		; .......SO
	006764	004737 	000000G			 JSR	PC,$MUL
   4710	006770	010102 				MOV	R1,R2		; .......SAVE IT IN R2
   4711	006772				20$:
   4712	006772	062706 	000006 			ADD	#^D6,SP		; .......RESET THE STACK
   4713	006776				30$:
   4714	006776					POP	R0		; ....RESTORE R0
	006776	012600 				 MOV	(SP)+,R0
   4715	007000	010210 				MOV	R2,(R0)		; ...SET THE TIME
   4716	007002					POP	<R1,R2,R5>	; ...RESTORE REGISTERS
	007002	012601 				 MOV	(SP)+,R1
GTTIM -- INPUT AND DISPLAY DATE	MACRO V05.04  Tuesday 17-May-88 14:36  Page 114-2
.GTTIM -- SUBROUTINE TO INPUT A TIME VALUE 7702.15

	007004	012602 				 MOV	(SP)+,R2
	007006	012605 				 MOV	(SP)+,R5
   4717	007010	013737 	000000G	000000G		MOV	.RDXSV,.IRADX	; RESET THE RADIX
   4718	007016	005737 	000000G			TST	.INCHC		; LOOK AT THE CHARACTER COUNT
   4719	007022					RETURN			; AND EXIT
	007022	000207 				 RTS	PC
   4720	007024				GTTITF:
   4721	007024					ERROR$	ITF		; ERROR -- ILLEGAL TIME FORMAT
	007024	012746 	035546 			 MOV	#^RITF,-(SP)
	007030	104400 				 TRAP	TC.ERR
   4722						;
   4723	007032				GTTTOR:				;  +++001
   4724	007032					ERROR$	TOR		; +++001 ERROR -- TIME OUT OF RANGE
	007032	012746 	077552 			 MOV	#^RTOR,-(SP)
	007036	104400 				 TRAP	TC.ERR
   4725						;
   4726
   4727	002176				.PSECT	MESSAG
   4728
   4729	002176				GTTMS0:
   4730	002176	   124 	   111 	   115 		.ASCIZ	%TIME: %
	002201	   105 	   072 	   040
	002204	   000
   4731
   4732	007040				.PSECT
   4733
GTTIM -- INPUT AND DISPLAY DATE	MACRO V05.04  Tuesday 17-May-88 14:36  Page 115
.TYDAT -- SUBROUTINE TO TYPE A DATE 7702.16

   4735					.SBTTL	.TYDAT -- SUBROUTINE TO TYPE A DATE 7702.16
   4736
   4737					;+
   4738					; .TYDAT -- SUBROUTINE TO TYPE A DATE
   4739					;
   4740					; THIS SUBROUTINE WILL OUTPUT A DATE ON THE CONSOLE DEVICE IN THE
   4741					; FOLLOWING FORMAT: "DD-MMM-YY".
   4742					;
   4743					; INPUT ARGUMENTS:
   4744					;
   4745					;	R0 POINTS TO A THREE BYTE BLOCK CONTAINING THE DATE
   4746					;
   4747					; OUTPUT ARGUMENTS:
   4748					;
   4749					;	NONE.
   4750					; ERROR CODES RETURNED:
   4751					;
   4752					;	NONE.
   4753					;-
   4754
   4755
   4756	007040				.TYDAT::
   4757	007040					PUSH	<.ORADX,R0,R2>	; SAVE CALLER'S REGISTERS
	007040	013746 	000000G			 MOV	.ORADX,-(SP)
	007044	010046 				 MOV	R0,-(SP)
	007046	010246 				 MOV	R2,-(SP)
   4758	007050	012737 	000012 	000000G		MOV	#^D10,.ORADX	; ...SET THE RADIX TO DECIMAL
   4759	007056	010002 				MOV	R0,R2		; ...CALLER'S POINTER TO R2
   4760	007060	122222 				CMPB	(R2)+,(R2)+	; ...ADVANCE THE POINTER
   4761	007062	111200 				MOVB	(R2),R0		; ...GET THE DAY
   4762	007064					CALL	.TYELA		; ...PRINT IT
	007064	004737 	000000G			 JSR	PC,.TYELA
   4763	007070					CALL	.TYMIN		; ...AND A <DASH>
	007070	004737 	000000G			 JSR	PC,.TYMIN
   4764	007074	114200 				MOVB	-(R2),R0	; ...GET THE MONTH
   4765	007076	006300 				ASL	R0		; ...MAKE IT AN EVEN INDEX
   4766	007100	016000 	000570'			MOV	TYDMTB-2(R0),R0	; ...POINT TO THE STRING
   4767	007104					CALL	.TYMSG		; ...PRINT IT
	007104	004737 	000000G			 JSR	PC,.TYMSG
   4768	007110					CALL	.TYMIN		; ...AND A <DASH>
	007110	004737 	000000G			 JSR	PC,.TYMIN
   4769	007114	122742 	000011 			CMPB	#^D9,-(R2)	; ...'09 OR EARLIER?
   4770	007120	002404 				BLT	10$		; ...NO -- GO ON
   4771	007122	012700 	000060 			MOV	#'0,R0		; ...YES -- FORCE THE LEADING ZERO
   4772	007126					CALL	.TYCHR		; ...SO
	007126	004737 	000000G			 JSR	PC,.TYCHR
   4773	007132				10$:
   4774	007132	111200 				MOVB	(R2),R0		; ...GET THE YEAR
   4775	007134					CALL	.TYELA		; ...PRINT IT
	007134	004737 	000000G			 JSR	PC,.TYELA
   4776	007140					POP	<R2,R0,.ORADX>	; ...RESTORE THE REGISTERS
	007140	012602 				 MOV	(SP)+,R2
	007142	012600 				 MOV	(SP)+,R0
	007144	012637 	000000G			 MOV	(SP)+,.ORADX
   4777	007150					CALLR	.TYSPC		; PRINT A <SPACE> AND EXIT
	007150	000137 	000000G			 JMP	.TYSPC
   4778						;
GTTIM -- INPUT AND DISPLAY DATE	MACRO V05.04  Tuesday 17-May-88 14:36  Page 115-1
.TYDAT -- SUBROUTINE TO TYPE A DATE 7702.16

   4779
   4780	000572				.PSECT	DATA
   4781
   4782	000572				TYDMTB:
   4783	000572	000000G				.WORD	JANMSG
   4784	000574	000000G				.WORD	FEBMSG
   4785	000576	000000G				.WORD	MARMSG
   4786	000600	000000G				.WORD	APRMSG
   4787	000602	000000G				.WORD	MAYMSG
   4788	000604	000000G				.WORD	JUNMSG
   4789	000606	000000G				.WORD	JULMSG
   4790	000610	000000G				.WORD	AUGMSG
   4791	000612	000000G				.WORD	SEPMSG
   4792	000614	000000G				.WORD	OCTMSG
   4793	000616	000000G				.WORD	NOVMSG
   4794	000620	000000G				.WORD	DECMSG
   4795
   4796	007154				.PSECT
GTTIM -- INPUT AND DISPLAY DATE	MACRO V05.04  Tuesday 17-May-88 14:36  Page 116
.TYTIM -- TIME OUTPUT SUBROUTINE 7702.16

   4798					.SBTTL	.TYTIM -- TIME OUTPUT SUBROUTINE 7702.16
   4799
   4800					;+
   4801					; .TYTIM -- TIME OUTPUT SUBROUTINE
   4802					;
   4803					; THIS SUBROUTINE WILL PRINT THE TIME ON THE CONSOLE OUTPUT DEVICE
   4804					; IN THE FOLLOWING FORMAT: "HH:MM"
   4805					;
   4806					; INPUT ARGUMENTS:
   4807					;
   4808					;	R0 POINTS TO THE TIME VALUE TO BE PRINTED
   4809					;	   IN SECONDS-SINCE-MIDNIGHT FORMAT (SSM).
   4810					;
   4811					; OUTPUT ARGUMENTS:
   4812					;
   4813					;	NONE.
   4814					;
   4815					; ERROR CODES RETURNED:
   4816					;
   4817					;	NONE.
   4818					;-
   4819
   4820
   4821	007154				.TYTIM::
   4822	007154					PUSH	<.ORADX,R0,R1>	; SAVE CALLER'S REGISTERS
	007154	013746 	000000G			 MOV	.ORADX,-(SP)
	007160	010046 				 MOV	R0,-(SP)
	007162	010146 				 MOV	R1,-(SP)
   4823	007164	012737 	000012 	000000G		MOV	#^D10,.ORADX	; ...SET OUTPUT RADIX TO DECIMAL
   4824	007172	011000 				MOV	(R0),R0		; ...GET THE TIME IN SSM/2
   4825	007174	012701 	003410 			MOV	#^D1800,R1	; ...DIVISOR FOR HOURS
   4826	007200					CALL	$DIV		; ...COMPUTE THE HOURS
	007200	004737 	000000G			 JSR	PC,$DIV
   4827	007204					PUSH	R0		; ...SAVE THEM
	007204	010046 				 MOV	R0,-(SP)
   4828	007206	010100 				MOV	R1,R0		; ....REMAINDER TO R0
   4829	007210	012701 	000036 			MOV	#^D30,R1	; ....DIVISOR FOR MINUTES
   4830	007214					CALL	$DIV		; ....COMPUTE THE MINUTES
	007214	004737 	000000G			 JSR	PC,$DIV
   4831	007220	010001 				MOV	R0,R1		; ....SAVE THEM IN R1
   4832	007222	022716 	000011 			CMP	#^D9,(SP)	; ....0900 OR EARLIER?
   4833	007226	002404 				BLT	10$		; ....NO -- GO ON
   4834	007230	012700 	000060 			MOV	#'0,R0		; ....YES -- FORCE THE LEADING ZERO
   4835	007234					CALL	.TYCHR		; ....SO
	007234	004737 	000000G			 JSR	PC,.TYCHR
   4836	007240				10$:
   4837	007240					POP	R0		; ....GET THE HOUR
	007240	012600 				 MOV	(SP)+,R0
   4838	007242					CALL	.TYELA		; ...PRINT IT
	007242	004737 	000000G			 JSR	PC,.TYELA
   4839	007246					CALL	.TYCOL		; ...TYPE A <COLON>
	007246	004737 	000000G			 JSR	PC,.TYCOL
   4840	007252	022701 	000011 			CMP	#^D9,R1		; ...9 MINUTES OR EARLIER?
   4841	007256	002404 				BLT	20$		; ...NO -- GO ON
   4842	007260	012700 	000060 			MOV	#'0,R0		; ...YES -- FORCE THE LEADING ZERO
   4843	007264					CALL	.TYCHR		; ...SO
	007264	004737 	000000G			 JSR	PC,.TYCHR
GTTIM -- INPUT AND DISPLAY DATE	MACRO V05.04  Tuesday 17-May-88 14:36  Page 116-1
.TYTIM -- TIME OUTPUT SUBROUTINE 7702.16

   4844	007270				20$:
   4845	007270	010100 				MOV	R1,R0		; ...GET THE MINUTE
   4846	007272					CALL	.TYELA		; ...PRINT IT
	007272	004737 	000000G			 JSR	PC,.TYELA
   4847	007276					POP	<R1,R0,.ORADX>	; ...RESTORE THE REGISTERS
	007276	012601 				 MOV	(SP)+,R1
	007300	012600 				 MOV	(SP)+,R0
	007302	012637 	000000G			 MOV	(SP)+,.ORADX
   4848	007306					CALLR	.TYSPC		; TYPE A <SPACE> AND EXIT
	007306	000137 	000000G			 JMP	.TYSPC
   4849						;
GTTIM -- INPUT AND DISPLAY DATE	MACRO V05.04  Tuesday 17-May-88 14:36  Page 117
.TYTIM -- TIME OUTPUT SUBROUTINE 7702.16

   4851
   4852					.TITLE	HALTC -- HALT FUNCTION MODULE 7707.12
   4853
   4854						.IDENT	"005000"
   4855					;
   4856					;                             COPYRIGHT (C) 1975, 1984 BY
   4857					;                     DIGITAL EQUIPMENT CORPORATION, MAYNARD MASS.
   4858					;
   4859					;       THIS SOFTWARE IS FURNISHED UNDER A LICENSE AND MAY BE  USED  AND  COPIED
   4860					;       ONLY IN ACCORDANCE WITH THE TERMS OF SUCH LICENSE AND WITH THE INCLUSION
   4861					;       OF THE ABOVE COPYRIGHT NOTICE.  THIS SOFTWARE OR ANY OTHER COPIES THERE-
   4862					;       OF  MAY NOT BE PROVIDED OR OTHERWISE MADE AVAILABLE TO ANY OTHER PERSON.
   4863					;       NO TITLE TO OR OWNERSHIP OF THE SOFTWARE IS HEREBY TRANSFERRED.
   4864					;
   4865					;       THE INFORMATION CONTAINED IN THIS SOFTWARE IS SUBJECT TO CHANGE  WITHOUT
   4866					;       NOTICE  AND SHOULD NOT BE CONSTRUED AS A COMMITMENT BY DIGITAL EQUIPMENT
   4867					;       CORPORATION.
   4868					;
   4869					;       DIGITAL ASSUMES NO RESPONSIBILITY FOR THE  USE  OR  RELIABILITY  OF  ITS
   4870					;       SOFTWARE ON EQUIPMENT WHICH IS NOT SUPPILED BY DIGITAL.
   4871					;
   4872					;		MODULE: HALT FUNCTION
   4873					;
   4874					;		VERSION: 03-06
   4875					;
   4876					;		AUTHOR: R. BELANGER
   4877					;
   4878					;		DATE: 7707.12
   4879					;
   4880					;	THIS MODULE CONTAINS:
   4881					;
   4882					;	1) HALT FUNCTION CODE
HALTC -- HALT FUNCTION MODULE 7	MACRO V05.04  Tuesday 17-May-88 14:36  Page 118
.HALTC -- THE "HALT" COMMAND 7710.11

   4884					.SBTTL	.HALTC -- THE "HALT" COMMAND 7710.11
   4885
   4886					;+
   4887					; .HALTC -- THE "HALT" COMMAND
   4888					;
   4889					; THIS ROUTINE HALTS THE KL WITH THE CLOCK RUNNING. (EXAMINE
   4890					; AND DEPOSIT ARE STILL SUPPORTED).
   4891					;
   4892					; INPUT ARGUMENTS:
   4893					;
   4894					;	NONE.
   4895					;
   4896					; OUTPUT ARGUMENTS:
   4897					;
   4898					;	NONE.
   4899					;
   4900					; ERROR CODES RETURNED:
   4901					;
   4902					;	ILS -- ILLEGAL SEPARATOR CHARACTER.
   4903					;-
   4904
   4905	007312				.HALTC::
   4906	007312					CALL	.CKEOC		; CHECK E-O-C
	007312	004737 	000000G			 JSR	PC,.CKEOC
   4907	007316					CALL	.KLSTP		; HALT THE KL AND RETURN
	007316	004737 	000000G			 JSR	PC,.KLSTP
   4908	007322					CALLR	KLPSTP		; [**]
	007322	000137 	000000G			 JMP	KLPSTP
   4909						;
HALTC -- HALT FUNCTION MODULE 7	MACRO V05.04  Tuesday 17-May-88 14:36  Page 119
.HALTC -- THE "HALT" COMMAND 7710.11

   4911
   4912					.TITLE	INITC -- INITIALIZE COMMAND MODULE 7602.16
   4913
   4914						.IDENT	"006110"
   4915
   4916					;
   4917					;                             COPYRIGHT (C) 1975, 1984, 1985 BY
   4918					;                     DIGITAL EQUIPMENT CORPORATION, MAYNARD MASS.
   4919					;			ALL RIGHTS RESERVED.
   4920					;       THIS SOFTWARE IS FURNISHED UNDER A LICENSE AND MAY BE  USED  AND  COPIED
   4921					;       ONLY IN ACCORDANCE WITH THE TERMS OF SUCH LICENSE AND WITH THE INCLUSION
   4922					;       OF THE ABOVE COPYRIGHT NOTICE.  THIS SOFTWARE OR ANY OTHER COPIES THERE-
   4923					;       OF  MAY NOT BE PROVIDED OR OTHERWISE MADE AVAILABLE TO ANY OTHER PERSON.
   4924					;       NO TITLE TO OR OWNERSHIP OF THE SOFTWARE IS HEREBY TRANSFERRED.
   4925					;
   4926					;       THE INFORMATION CONTAINED IN THIS SOFTWARE IS SUBJECT TO CHANGE  WITHOUT
   4927					;       NOTICE  AND SHOULD NOT BE CONSTRUED AS A COMMITMENT BY DIGITAL EQUIPMENT
   4928					;       CORPORATION.
   4929					;
   4930					;       DIGITAL ASSUMES NO RESPONSIBILITY FOR THE  USE  OR  RELIABILITY  OF  ITS
   4931					;       SOFTWARE ON EQUIPMENT WHICH IS NOT SUPPILED BY DIGITAL.
   4932					;
   4933					;		MODULE: INITIALIZE COMMAND
   4934					;
   4935					;		VERSION: 06-11
   4936					;
   4937					;		AUTHOR: R. BELANGER
   4938					;
   4939					;		DATE: 7602.16
   4940					;
   4941					;	THIS MODULE CONTAINS:
   4942					;
   4943					;	1) INITIALIZE COMMAND CODE
   4944					;
   4945					;	MODIFIED BY A. PECKHAM 7612.10 TO DELETE REFERENCES TO .SECFL
   4946
   4947						.MCALL	ALUN$,CLEF$S,DIR$,SETF$S,SVTK$S
INITC -- INITIALIZE COMMAND MOD	MACRO V05.04  Tuesday 17-May-88 14:36  Page 120
.INITC -- THE "INITIALIZE" COMMAND 7602.16

   4949					.SBTTL	.INITC -- THE "INITIALIZE" COMMAND 7602.16
   4950
   4951					;+
   4952					; .INITC -- THE "INITIALIZE" COMMAND
   4953					;
   4954					; THIS ROUTINE (RE)INITIALIZES THE COMMAND PARSER
   4955					;
   4956					; INPUT ARGUMENTS:
   4957					;
   4958					;	NONE.
   4959					;
   4960					; OUTPUT ARGUMENTS:
   4961					;
   4962					;	".KLFLG" IS SET UP
   4963					;
   4964					; ERROR CODES RETURNED:
   4965					;
   4966					;	NONE.
   4967					;-
   4968
   4969	007326				.INITC::
   4970	007326					CALL	.CKEOC		; CHECK FOR E-O-C
	007326	004737 	000000G			 JSR	PC,.CKEOC
   4971	007332				.INIC0::
   4972	007332	000414 				BR	.INKLF		; INIT THE PARSER AND RETURN
   4973						;
INITC -- INITIALIZE COMMAND MOD	MACRO V05.04  Tuesday 17-May-88 14:36  Page 121
.INIT  -- INITIALIZATION SUBROUTINE 7509.26

   4975					.SBTTL	.INIT  -- INITIALIZATION SUBROUTINE 7509.26
   4976
   4977					;+
   4978					; .INIT -- SUBROUTINE TO INITIALIZE THE COMMAND PARSER.
   4979					;
   4980					; THIS SUBROUTINE CLEARS INTERNAL BUFFERS AND INITIALIZES
   4981					; THE FOLLOWING REGISTERS:
   4982					;
   4983					;	(A) ".KLFLG" -- THE KL STATUS FLAG WORD,
   4984					;	(B) ".CLKWD" -- THE KL CLOCK STATUS WORD,
   4985					;	(C) ".PSCWD" -- THE KL PARITY CONTROL WORD.
   4986					;
   4987					; INPUT ARGUMENTS:
   4988					;
   4989					;	NONE.
   4990					;
   4991					; OUTPUT ARGUMENTS:
   4992					;
   4993					;	".KLFLG" IS SET UP
   4994					;
   4995					; ERROR CODES RETURNED:
   4996					;
   4997					;	CES -- KL CLOCK ERROR STOP.
   4998					;	CFH -- CAN'T FIND KL HALT LOOP.
   4999					;	DSF -- DTE-20 STATUS FAILURE.
   5000					;	FRF -- FUNCTION READ FAILED.
   5001					;	FWF -- FUNCTION WRITE FAILED.
   5002					;-
   5003
   5004	007334				.INIT::
   5005	007334					PUSH	R0		; SAVE R0
	007334	010046 				 MOV	R0,-(SP)
   5006	007336	000257 				CCC			; .CLEAR N, Z, V, C BITS
   5007	007340	012700 	000000G			MOV	#.DFBLK,R0	; .CLEAR THE DF BUFFERS
   5008	007344				10$:
   5009	007344	005020 				CLR	(R0)+		; .CLEAR A WORD
   5010	007346	020027 	000000G			CMP	R0,#DFBEND	; .ARE WE DONE?
   5011	007352	103774 				BLO	10$		; .NO -- KEEP GOING
   5012	007354	012737 	000200 	000000G		MOV	#KF.DEF,.KLFLG	; .YES -- INIT ".KLFLG"
   5013	007362					POP	R0		; .RESTORE R0
	007362	012600 				 MOV	(SP)+,R0
   5014
   5015					;	[CONTINUED ON THE FOLLOWING PAGE]
INITC -- INITIALIZE COMMAND MOD	MACRO V05.04  Tuesday 17-May-88 14:36  Page 122
.INKLF -- SUBROUTINE TO SET UP KL STATE WORD 7601.09

   5017					.SBTTL	.INKLF -- SUBROUTINE TO SET UP KL STATE WORD 7601.09
   5018
   5019					;+
   5020					; .INKLF -- SUBROUTINE TO SET UP THE KL STATE FLAG WORD, ".KLFLG".
   5021					;
   5022					; THIS SUBROUTINE SETS UP THE STATE OF THE FOLLOWING
   5023					; FLAG BITS IN THE KL STATE FLAG WORD, ".KLFLG":
   5024					;
   5025					;	(A) "KF.CLK" -- KL CLOCK RUNNING FLAG,
   5026					;	(B) "KF.RUN" -- KL RUN FLOP SET FLAG,
   5027					;	(C) "KF.KLO" -- KL OPCODE ENABLED FLAG.
   5028					;
   5029					; .INKLF MAY BE CALLED DIRECTLY AS DESCRIBED IN THE CALLING SEQUENCE,
   5030					; OR BY ".INIT" WHICH FALLS INTO ".INKLF".
   5031					;
   5032					; INPUT ARGUMENTS:
   5033					;
   5034					;	NONE.
   5035					;
   5036					; OUTPUT ARGUMENTS:
   5037					;
   5038					;	".KLFLG" IS SET UP.
   5039					;
   5040					; ERROR CODES RETURNED:
   5041					;
   5042					;	CES -- KL CLOCK ERROR STOP.
   5043					;	CFH -- CAN'T FIND KL HALT LOOP.
   5044					;	DSF -- DTE-20 STATUS FAILURE.
   5045					;	DTC -- DTE-20 CONFUSED.
   5046					;	FRF -- FUNCTION READ FAILED.
   5047					;	FWF -- FUNCTION WRITE FAILED.
   5048					;-
INITC -- INITIALIZE COMMAND MOD	MACRO V05.04  Tuesday 17-May-88 14:36  Page 123
.INKLF -- SUBROUTINE TO SET UP KL STATE WORD 7601.09

   5050	007364				.INKLF::
   5051	007364					SETF$S	#E.FHTO		; SET THE HALT TIMEOUT EVENT FLAG
	007364	012746 	000001 			MOV	#E.FHTO,-(SP)
	007370	012746 				MOV	(PC)+,-(SP)
	007372	   041 	   002 			.BYTE	33.,2
	007374	104375 				EMT	375
   5052	007376	103461 				BCS	60$		; ERROR IF CC-C IS SET
   5054	007400	005737 	000000G			TST	.KLERQ		; [5.1006]KL CRASH?
   5055	007404	001055 				BNE	50$		; [5.1006]YES -- EXIT
   5057	007406					PUSH	<R0,R1,R2,R3>	; NO -- SAVE CALLER'S REGISTERS
	007406	010046 				 MOV	R0,-(SP)
	007410	010146 				 MOV	R1,-(SP)
	007412	010246 				 MOV	R2,-(SP)
	007414	010346 				 MOV	R3,-(SP)
   5058	007416					CALL	.DTSTA		; ....READ THE DTE-20 STATUS REGISTER
	007416	004737 	000000G			 JSR	PC,.DTSTA
   5059	007422	032700 	000010 			BIT	#ST.MOD,R0	; ....IS THE DTE-20 PRIVILEGED?
   5061	007426	001047 				BNE	INIDNP		; ....UGH, BLETCH -- NO
   5063	007430					CALL	.CESCK		; ....YES -- SEE IF CLOCK ERROR STOP IS UP
	007430	004737 	000000G			 JSR	PC,.CESCK
   5064	007434	012702 	000000G			MOV	#.KLFLG,R2	; ....FLAG POINTER TO R2
   5065	007440	042712 	140000 			BIC	#KF.CLK!KF.RUN,(R2)
   5066									; ....CLEAR THE CLOCK AND RUNNING FLAGS
   5067	007444	005037 	000000G			CLR	.EDKLX		; ....RESET THE ADDRESS TO ZERO
   5068	007450	005037 	000002G			CLR	.EDKLX+2	; ....
   5069	007454	012700 	000200 			MOV	#ED.PHY,R0	; ....PHYSICAL REFERENCE
   5070	007460	012701 	000622'			MOV	#.INEXT,R1	; ....POINT TO DATA BLOCK
   5071	007464					CALL	.EXKLM		; ....EXAMINE KL MEMORY
	007464	004737 	000000G			 JSR	PC,.EXKLM
   5072	007470	052712 	100600 			BIS	#KF.CON!KF.KLO!KF.CLK,(R2) ;*
   5073									; ....SET THE CLOCK RUNNING FLAG
   5074	007474	012703 	000144 			MOV	#^D100,R3	; ....LOOP COUNT TO R3
   5075	007500				10$:
   5076	007500					CALL	.DTDW1		; ....READ DIAG WORD 1
	007500	004737 	000000G			 JSR	PC,.DTDW1
   5077	007504	032700 	002000 			BIT	#D1.RUN,R0	; ....IS RUN ON?
   5081	007510	001002 				BNE	20$		; ....YES -- GO ON
   5082	007512	077306 				SOB	R3,10$		; ....NO -- LOOP TILL COUNT EXHAUSTED
   5083	007514	000405 				BR	30$		; ....CAN'T FIND IT, GIVE UP
   5084						;
   5085
   5086					;	[CONTINUED ON THE FOLLOWING PAGE]
INITC -- INITIALIZE COMMAND MOD	MACRO V05.04  Tuesday 17-May-88 14:36  Page 124
.INKLF -- SUBROUTINE TO SET UP KL STATE WORD 7601.09

   5088					;	[CONTINUED FROM THE PREVIOUS PAGE]
   5089
   5090	007516				20$:
   5091	007516	032700 	001000 			BIT	#D1.HLP,R0	; ....IS THE HALT LOOP THERE TOO?
   5093	007522	001014 				BNE	INIDTC		; ....YES -- GIVE "DTC" ERROR
   5095	007524	052712 	040000 			BIS	#KF.RUN,(R2)	; ....NO -- FOUND IT OK, SET THE FLAG
   5096	007530				30$:
   5110	007530					POP	<R3,R2,R1,R0>	; ....RESTORE CALLER'S REGISTERS
	007530	012603 				 MOV	(SP)+,R3
	007532	012602 				 MOV	(SP)+,R2
	007534	012601 				 MOV	(SP)+,R1
	007536	012600 				 MOV	(SP)+,R0
   5111	007540				50$:	RETURN			; TO CALLER
	007540	000207 				 RTS	PC
   5112	007542				60$:
   5113	007542	000137 	000000G			JMP	.EXITP		; ERROR EXIT
   5114						;
   5115	007546				INIDNP:
   5116	007546					ERROR$	DNP		; ERROR -- DTE-20 NOT PRIVILEGED
	007546	012746 	015500 			 MOV	#^RDNP,-(SP)
	007552	104400 				 TRAP	TC.ERR
   5117						;
   5118	007554				INIDTC:
   5119	007554					ERROR$	DTC		; ERROR --DTE-20 CONFUSED
	007554	012746 	016043 			 MOV	#^RDTC,-(SP)
	007560	104400 				 TRAP	TC.ERR
   5120						;
   5121
   5122	000622				.PSECT	DATA
   5123
   5124	000622				.INEXT:
   5125	000622	000000G				.WORD	.EDKLX		; ADDRESS 0
   5126	000624	000000G				.WORD	.EXBFR		; PLACE FOR DATA
   5127
   5128	007562				.PSECT
INITC -- INITIALIZE COMMAND MOD	MACRO V05.04  Tuesday 17-May-88 14:36  Page 125
.INICP -- INITIALIZE THE COMMAND PARSER 7601.21

   5130					.SBTTL	.INICP -- INITIALIZE THE COMMAND PARSER 7601.21
   5131
   5132					;+
   5133					; .INICP -- ROUTINE TO INTIALIZE THE COMMAND PARSER.
   5134					;
   5135					; THIS SUBROUTINE WILL INITIALIZE THE RSX20F INTERFACE TO THE COMMAND
   5136					; PARSER. THE CONSOLE INPUT AND OUTPUT DEVICES ARE ASSIGNED AND ATTACHED,
   5137					; THE SST TRAPS ARE ENABLED, AND THE EVENT FLAGS ARE CLEARED.
   5138					;
   5139					; INPUT ARGUMENTS:
   5140					;
   5141					;	NONE.
   5142					;
   5143					; OUTPUT ARGUMENTS:
   5144					;
   5145					;	NONE.
   5146					;
   5147					; ERROR CODES RETURNED:
   5148					;
   5149					;	IF THE SST VECTORS CANNOT BE INITIALIZED THE PARSER EXITS.
   5150					;	IF THE CONSOLE OUTPUT DEVICE CANNOT BE ASSIGNED, THE PARSER EXITS.
   5151					;	IF THE CONSOLE OUTPUT DEVICE CANNOT BE ASSIGNED, THE PARSER EXITS.
   5152					;	IF THE CONSOLE DEVICE CANNOT BE ATTACHED, THE PARSER EXITS.
   5153					;-
   5154
   5155	007562				.INICP::
   5156	007562	010637 	000000G			MOV	SP,.SVESP	; INIT THE STACK POINTER
   5157	007566	005005 				CLR	R5		; CLEAR THE GPR'S
   5158	007570	005004 				CLR	R4
   5159	007572	005003 				CLR	R3
   5160	007574	005002 				CLR	R2
   5161	007576	005001 				CLR	R1
   5162	007600	005000 				CLR	R0
   5163	007602					SVTK$S	#.SSTTB,#SSTLEN	; INIT SST'S
	007602	012746 	000000G			MOV	#SSTLEN,-(SP)
	007606	012746 	000000G			MOV	#.SSTTB,-(SP)
	007612	012746 				MOV	(PC)+,-(SP)
	007614	   071 	   003 			.BYTE	57.,3
	007616	104375 				EMT	375
   5164	007620	103452 				BCS	10$		; DIE IF WE CAN'T DO THAT MUCH
   5165	007622					DIR$	#.ASCOD		; ASSIGN THE CONSOLE OUTPUT DEVICE
	007622	012746 	000026'			MOV	#.ASCOD,-(SP)
	007626	104375 				EMT	375
   5166	007630	103446 				BCS	10$		; DIE IF WE CAN'T DO THAT, EITHER
   5167	007632					DIR$	#.ASCID		; ASSIGN THE CONSOLE INPUT DEVICE
	007632	012746 	000016'			MOV	#.ASCID,-(SP)
	007636	104375 				EMT	375
   5168	007640	103442 				BCS	10$		; GIVE ERROR TRAP IF CC-C IS SET
   5169	007642					DIR$	#.ASLST		; [5.1000]ASSIGN LP DEVICE
	007642	012746 	000036'			MOV	#.ASLST,-(SP)
	007646	104375 				EMT	375
   5170
   5171					;	[CONTINUED ON THE FOLLOWING PAGE]
INITC -- INITIALIZE COMMAND MOD	MACRO V05.04  Tuesday 17-May-88 14:36  Page 126
.INICP -- INITIALIZE THE COMMAND PARSER 7601.21

   5173					; 	[CONTINUED FROM THE PREVIOUS PAGE]
   5174
   5175	007650					CLEF$S	#E.FCTC		; CLEAR CONTROL-C EVENT FLAG
	007650	012746 	000000G			MOV	#E.FCTC,-(SP)
	007654	012746 				MOV	(PC)+,-(SP)
	007656	   037 	   002 			.BYTE	31.,2
	007660	104375 				EMT	375
   5176	007662					CLEF$S	#E.FHTO		; CLEAR HALT TIMEOUT EVENT FLAG
	007662	012746 	000001 			MOV	#E.FHTO,-(SP)
	007666	012746 				MOV	(PC)+,-(SP)
	007670	   037 	   002 			.BYTE	31.,2
	007672	104375 				EMT	375
   5177	007674					CLEF$S	#E.FCID		; CLEAR CONSOLE INPUT DONE EVENT FLAG
	007674	012746 	000002 			MOV	#E.FCID,-(SP)
	007700	012746 				MOV	(PC)+,-(SP)
	007702	   037 	   002 			.BYTE	31.,2
	007704	104375 				EMT	375
   5178	007706					SETF$S	#E.FCOD		; SET CONSOLE OUTPUT DONE EVENT FLAG
	007706	012746 	000003 			MOV	#E.FCOD,-(SP)
	007712	012746 				MOV	(PC)+,-(SP)
	007714	   041 	   002 			.BYTE	33.,2
	007716	104375 				EMT	375
   5180	007720					SETF$S	#E.FLOD		; SET LIST DEVICE OUTPUT DONE EVENT FLAG
	007720	012746 	000005 			MOV	#E.FLOD,-(SP)
	007724	012746 				MOV	(PC)+,-(SP)
	007726	   041 	   002 			.BYTE	33.,2
	007730	104375 				EMT	375
   5182	007732					CALL	.TCRLF		; INIT CONSOLE
	007732	004737 	000000G			 JSR	PC,.TCRLF
   5183	007736					CALL	.INIC0		; INIT ".KLFLG"
	007736	004737 	007332'			 JSR	PC,.INIC0
   5184	007742	000177 	000000G			JMP	@.STRTV		; START THE PARSER
   5185						;
   5186	007746				10$:
   5187	007746					CALLR	.EXITP		; EXIT GRACEFULLY
	007746	000137 	000000G			 JMP	.EXITP
   5188						;
INITC -- INITIALIZE COMMAND MOD	MACRO V05.04  Tuesday 17-May-88 14:36  Page 127
.INICP -- INITIALIZE THE COMMAND PARSER 7601.21

   5190					; ASSIGN CONSOLE INPUT DEVICE
   5191
   5192	000016				.PSECT	DPBS
   5193
   5194	000016				.ASCID::
   5198	000016					ALUN$	CIDLUN,TT,0
	000016	   007 	   004 			.BYTE	7,4
	000020	000001 				.WORD	CIDLUN
	000022	   124 				.ASCII	/T/
	000023	   124 				.ASCII	/T/
	000024	000000 				.WORD	0
   5200
   5201					; ASSIGN CONSOLE OUTPUT DEVICE
   5202
   5203	000026				.ASCOD::
   5207	000026					ALUN$	CODLUN,TT,0
	000026	   007 	   004 			.BYTE	7,4
	000030	000002 				.WORD	CODLUN
	000032	   124 				.ASCII	/T/
	000033	   124 				.ASCII	/T/
	000034	000000 				.WORD	0
   5209
   5210					; ASSIGN LINEPRINTER DEVICE
   5211
   5212	000036				.ASLST::
   5213	000036					ALUN$	LSTLUN,LP,0
	000036	   007 	   004 			.BYTE	7,4
	000040	000003 				.WORD	LSTLUN
	000042	   114 				.ASCII	/L/
	000043	   120 				.ASCII	/P/
	000044	000000 				.WORD	0
   5214
   5215	007752				.PSECT
INITC -- INITIALIZE COMMAND MOD	MACRO V05.04  Tuesday 17-May-88 14:36  Page 129
.INICP -- INITIALIZE THE COMMAND PARSER 7601.21

   5218
   5219					.TITLE	KLEDEF -- KLERR SNAPSHOT DEFAULT COMMANDS
   5220
   5221						.IDENT	"007030"
   5222
   5223					;
   5224					;                             COPYRIGHT (C) 1979, 1984, 1985 BY
   5225					;                     DIGITAL EQUIPMENT CORPORATION, MAYNARD MASS.
   5226					;			ALL RIGHTS RESERVED.
   5227					;       THIS SOFTWARE IS FURNISHED UNDER A LICENSE AND MAY BE  USED  AND  COPIED
   5228					;       ONLY IN ACCORDANCE WITH THE TERMS OF SUCH LICENSE AND WITH THE INCLUSION
   5229					;       OF THE ABOVE COPYRIGHT NOTICE.  THIS SOFTWARE OR ANY OTHER COPIES THERE-
   5230					;       OF  MAY NOT BE PROVIDED OR OTHERWISE MADE AVAILABLE TO ANY OTHER PERSON.
   5231					;       NO TITLE TO OR OWNERSHIP OF THE SOFTWARE IS HEREBY TRANSFERRED.
   5232					;
   5233					;       THE INFORMATION CONTAINED IN THIS SOFTWARE IS SUBJECT TO CHANGE  WITHOUT
   5234					;       NOTICE  AND SHOULD NOT BE CONSTRUED AS A COMMITMENT BY DIGITAL EQUIPMENT
   5235					;       CORPORATION.
   5236					;
   5237					;       DIGITAL ASSUMES NO RESPONSIBILITY FOR THE  USE  OR  RELIABILITY  OF  ITS
   5238					;       SOFTWARE ON EQUIPMENT WHICH IS NOT SUPPILED BY DIGITAL.
   5239					;
   5240					;		MODULE: KLERR DEFAULT COMMANDS
   5241					;
   5242					;		VERSION: 07-03
   5243					;
   5244					;		AUTHOR: K. LEFEBVRE
   5245					;
   5246					;		DATE: 12-DEC-79
   5247					;
   5248					;		EDIT HISTORY
   5249					;
   5250					; SL9160  16-SEP-80	S. LEAPLINE	DON'T DO TAKE IF KL HALTED
   5251					;
   5252					;09-Jun-83  TCO 6.1675	D. Weaver
   5253					;	Take .CMD files based on KL error code.
   5254					;
   5255					.MACRO	DEFCMD	NUM,COMMAND
   5256
   5257					.PSECT	DATA
   5258						.WORD	CMD'NUM
   5259
   5260					.PSECT	MESSAG
   5261					CMD'NUM:.ASCIZ	%COMMAND%
   5262
   5263					.PSECT	DATA
   5264
   5265					.ENDM	DEFCMD
KLEDEF -- KLERR SNAPSHOT DEFAUL	MACRO V05.04  Tuesday 17-May-88 14:36  Page 130
.KLE -- ROUTINE TO RETURN DEFAULT KLERR COMMANDS

   5267					.SBTTL	.KLE -- ROUTINE TO RETURN DEFAULT KLERR COMMANDS
   5268
   5269					;+
   5270					; .KLE -- ROUTINE TO RETURN DEFAULT KLERR SNAPSHOT COMMANDS
   5271					;
   5272					; THIS ROUTINE CONTAINS BUILT INTO IT THE DEFAULT KLERR SNAPSHOT
   5273					; COMMANDS THAT ARE EXECUTED ANYTIME THE KL CRASHES. THEY ARE
   5274					; ASSEMBLED IN TO MAKE IT DIFFICULT FOR SITES TO MODIFY THEM AND
   5275					; CORRUPT THE SNAPSHOT.
   5276					;
   5277					;		THIS ROUTINE ADDED FOR TCO 4.1.1049
   5278					;
   5279					; INPUT ARGUMENTS:
   5280					;
   5281					;	NONE
   5282					;
   5283					; OUTPUT ARGUMENTS:
   5284					;
   5285					;	NONE
   5286					;
   5287					; ERROR CODES RETURNED:
   5288					;
   5289					;	NONE
   5290					;-
   5291
   5293	007752				.KLE::
   5294	007752					PUSH	<R1,R0>		; SAVE REGISTERS
	007752	010146 				 MOV	R1,-(SP)
	007754	010046 				 MOV	R0,-(SP)
   5295	007756	105737 	000000G			TSTB	.KLEVL		; POINTER VALID FLAG (FOR OVERLAY)
   5296	007762	001075 				BNE	30$		; YES -- WE MUST BE DONE
   5297	007764	122737 	000000G	000000G		CMPB	#ERRCES,.ERRCD	; CLOCK ERROR STOP?
   5298	007772	001042 				BNE	6$		; NO, KEEP GOING
   5299	007774	012701 	000626'			MOV	#FRDBUF,R1	; SET UP BUFFER FOR FUNCTION READS
   5300	010000	012700 	000206 			MOV	#FR.103,R0	; CHECK FOR DRAM PARITY ERROR
   5301	010004					CALL	.FREAD		; EXECUTE FUNCTION READ
	010004	004737 	000000G			 JSR	PC,.FREAD
   5302	010010	032711 	000040 			BIT	#40,(R1)	; SET?
   5303	010014	001404 				BEQ	2$		; NO, CHECK CRAM
   5304	010016	012737 	000000G	000000G		MOV	#ERRDPE,.ERRCD	; YES, SAY DRAM ERROR
   5305	010024	000425 				BR	6$		; GO EXECUTE CMD FILE
   5306	010026	012700 	000210 		2$:	MOV	#FR.104,R0	; CHECK FOR CRAM PARITY ERROR
   5307	010032					CALL	.FREAD		; EXECUTE FUNCTION READ
	010032	004737 	000000G			 JSR	PC,.FREAD
   5308	010036	032711 	000040 			BIT	#40,(R1)	; SET?
   5309	010042	001404 				BEQ	4$		; NO, CHECK FOR FAST MEMORY PARITY
   5310	010044	012737 	000000G	000000G		MOV	#ERRCPE,.ERRCD	; YES, SAY CRAM ERROR
   5311	010052	001412 			    	BEQ	6$		; GO EXECUTE CMD FILE
   5312	010054	012700 	000212 		4$:	MOV	#FR.105,R0	; CHECK FOR FM PARITY ERROR
   5313	010060					CALL	.FREAD		; EXECUTE FUNCTION READ
	010060	004737 	000000G			 JSR	PC,.FREAD
   5314	010064	032711 	000040 			BIT	#40,(R1)	; SET?
   5315	010070	001403 				BEQ	6$		; NO, MUST BE F-S PROBE
   5316	010072	012737 	000000G	000000G		MOV	#ERRFME,.ERRCD	; YES, SET THE ERROR CODE
   5317	010100	012701 	000000G		6$:	MOV	#.CIBFR,R1	; INPUT BUFFER POINTER
   5318	010104	012737 	000634'	000000G	 	MOV	#KLETAB,.KLEPT	; SET POINTER
   5319	010112	105237 	000000G			INCB	.KLEVL		; SET POINTER VALID
KLEDEF -- KLERR SNAPSHOT DEFAUL	MACRO V05.04  Tuesday 17-May-88 14:36  Page 130-1
.KLE -- ROUTINE TO RETURN DEFAULT KLERR COMMANDS

   5320	010116	013700 	000000G			MOV	.ERRCD,R0	; GET ERROR CODE
   5321	010122	006300 				ASL	R0		; SHIFT IT ONE POSITION
   5322	010124	062700 	000632'			ADD	#KLETAB-2,R0	; POINT TO APPROPRIATE "TAKE" COMMAND
   5323	010130	011000 				MOV	(R0),R0		; GET COMMAND ADDRESS
   5324	010132	112021 			10$:	MOVB	(R0)+,(R1)+	; MOVE COMMAND TO INPUT BUFFER
   5325	010134	001376 				BNE	10$		; DONE?
   5326	010136	005301 				DEC	R1		; YES -- REMOVE LAST NULL
   5327	010140	162701 	000000G			SUB	#.CIBFR,R1	; GET COMMAND LENGTH
   5328	010144	010137 	000002G			MOV	R1,.CISTS+2	; SAVE LENGTH
   5329	010150				20$:	POP	<R0,R1>		; RESTORE REGISTERS
	010150	012600 				 MOV	(SP)+,R0
	010152	012601 				 MOV	(SP)+,R1
   5330	010154					RETURN			; EXIT
	010154	000207 				 RTS	PC
   5331	010156	005037 	000000G		30$:	CLR	.KLEDF		; CLEAR DEFAULT COMMAND FLAG
   5332	010162	012700 	002205'			MOV	#EOSMSG,R0	; END-OF-SNAPSHOT MESSAGE PTR
   5333	010166					CALL	.TYMSG		; TYPE IT
	010166	004737 	000000G			 JSR	PC,.TYMSG
   5334	010172	005037 	000002G			CLR	.CISTS+2	; CLEAR COMMAND LENGTH
   5335	010176	105737 	000000G			TSTB	.KLSNP		; SNAPSHOT COMMAND IN PROGRESS?
   5336	010202	001404 				BEQ	40$		; NO -- GO ON
   5337	010204	005037 	000000G			CLR	.KLERQ		; YES -- CLEAR SNAPSHOT FLAG
   5338	010210	105037 	000000G			CLRB	.KLSNP		; SAY SNAPSHOT COMMAND DONE
   5339	010214	032737 	000000G	000000G	40$:	BIT	#KL.REQ,.KLIWD	; KLI REQUESTED
   5340	010222	001752 				BEQ	20$		; NO -- GET INPUT FROM CTY
   5341	010224					CALL	.TCRLF		; YES -- OUTPUT EOS
	010224	004737 	000000G			 JSR	PC,.TCRLF
   5342	010230					CALLR	.EXITP		; EXIT TO KLI
	010230	000137 	000000G			 JMP	.EXITP
   5343
   5344	002205				.PSECT	MESSAG
   5345
   5346	002205				EOSMSG:
   5347	002205	   040 	   074 	   105 		.ASCIZ	% <END OF SNAPSHOT> %
	002210	   116 	   104 	   040
	002213	   117 	   106 	   040
	002216	   123 	   116 	   101
	002221	   120 	   123 	   110
	002224	   117 	   124 	   076
	002227	   040 	   000
   5348
   5349	000626				.PSECT	DATA
   5350
   5351	000626				FRDBUF::
   5352	000626	000000 	000000 	000000 		.WORD	0,0,0			;BUFFER FOR FUNCTION READS
   5353
   5354					;TABLE FOR .CMD FILES TO EXECUTE BASED ON ERROR CONDITION
   5355	000634				KLETAB::
   5356	000634					DEFCMD	K1,<TAKE CLOCK>
	000634	002231'				.WORD	CMDK1
	002231	   124 	   101 	   113 	CMDK1:.ASCIZ	%TAKE CLOCK%
	002234	   105 	   040 	   103
	002237	   114 	   117 	   103
	002242	   113 	   000
   5357	000636					DEFCMD	K2,<TAKE EBUS>
	000636	002244'				.WORD	CMDK2
	002244	   124 	   101 	   113 	CMDK2:.ASCIZ	%TAKE EBUS%
KLEDEF -- KLERR SNAPSHOT DEFAUL	MACRO V05.04  Tuesday 17-May-88 14:36  Page 130-2
.KLE -- ROUTINE TO RETURN DEFAULT KLERR COMMANDS

	002247	   105 	   040 	   105
	002252	   102 	   125 	   123
	002255	   000
   5358	000640					DEFCMD	K3,<TAKE DEX>
	000640	002256'				.WORD	CMDK3
	002256	   124 	   101 	   113 	CMDK3:.ASCIZ	%TAKE DEX%
	002261	   105 	   040 	   104
	002264	   105 	   130 	   000
   5359	000642					DEFCMD	K4,<TAKE KPALV>
	000642	002267'				.WORD	CMDK4
	002267	   124 	   101 	   113 	CMDK4:.ASCIZ	%TAKE KPALV%
	002272	   105 	   040 	   113
	002275	   120 	   101 	   114
	002300	   126 	   000
   5360	000644				  	DEFCMD	K5,<TAKE TIMEO>
	000644	002302'				.WORD	CMDK5
	002302	   124 	   101 	   113 	CMDK5:.ASCIZ	%TAKE TIMEO%
	002305	   105 	   040 	   124
	002310	   111 	   115 	   105
	002313	   117 	   000
   5361	000646					DEFCMD	K6,<TAKE FMPAR>
	000646	002315'				.WORD	CMDK6
	002315	   124 	   101 	   113 	CMDK6:.ASCIZ	%TAKE FMPAR%
	002320	   105 	   040 	   106
	002323	   115 	   120 	   101
	002326	   122 	   000
   5362	000650					DEFCMD	K7,<TAKE CRAM>
	000650	002330'				.WORD	CMDK7
	002330	   124 	   101 	   113 	CMDK7:.ASCIZ	%TAKE CRAM%
	002333	   105 	   040 	   103
	002336	   122 	   101 	   115
	002341	   000
   5363	000652					DEFCMD	K8,<TAKE DRAM>
	000652	002342'				.WORD	CMDK8
	002342	   124 	   101 	   113 	CMDK8:.ASCIZ	%TAKE DRAM%
	002345	   105 	   040 	   104
	002350	   122 	   101 	   115
	002353	   000
   5364	000654					DEFCMD	K9,<TAKE HALT>
	000654	002354'				.WORD	CMDK9
	002354	   124 	   101 	   113 	CMDK9:.ASCIZ	%TAKE HALT%
	002357	   105 	   040 	   110
	002362	   101 	   114 	   124
	002365	   000
   5365	000656					DEFCMD	K10,<TAKE RELOAD>
	000656	002366'				.WORD	CMDK10
	002366	   124 	   101 	   113 	CMDK10:.ASCIZ	%TAKE RELOAD%
	002371	   105 	   040 	   122
	002374	   105 	   114 	   117
	002377	   101 	   104 	   000
   5366	010234				.PSECT
KLEDEF -- KLERR SNAPSHOT DEFAUL	MACRO V05.04  Tuesday 17-May-88 14:36  Page 131
.SNAP -- ROUTINE TO MANUALLY PERFORM A SNAPSHOT

   5369					.SBTTL	.SNAP -- ROUTINE TO MANUALLY PERFORM A SNAPSHOT
   5370
   5371					;+
   5372					; .SNAP -- ROUTINE TO MANUALLY TAKE A KL SNAPSHOT
   5373					;
   5374					; THIS ROUTINE WILL SET UP THE CONTROL FLAGS THAT WILL CAUSE THE PARSER
   5375					; TO AT IN THE KLERR FUNCTION OF TAKING A SNAPSHOT.
   5376					;
   5377					;		THIS ROUTINE ADDED FOR TCO 4.1.1049
   5378					;
   5379					; INPUT ARGUMENTS:
   5380					;
   5381					;	NONE
   5382					;
   5383					; OUTPUT ARGUMENTS:
   5384					;
   5385					;	NONE
   5386					;
   5387					; ERROR CODES RETURNED:
   5388					;
   5389					;	NONE
   5390					;-
   5391
   5393	010234				.SNAP::
   5394	010234					CALL	.CKEOC		; MUST HAVE E-O-C
	010234	004737 	000000G			 JSR	PC,.CKEOC
   5395	010240	005237 	000000G			INC	.KLERQ		; SET FLAG THAT SAYS SNAPSHOT REQUIRED
   5396	010244	005237 	000000G			INC	.KLEDF		; SET FLAG THAT CAUSES DEFAULT COMMANDS
   5397	010250	105037 	000000G			CLRB	.KLEVL		; CLEAR DEFAULT COMMAND VALID FLAG
   5398	010254	105237 	000000G			INCB	.KLSNP		; SAY SNAPSHOT COMMAND IN PROGRESS
   5399	010260					RETURN			; DONE
	010260	000207 				 RTS	PC
   5400
KLEDEF -- KLERR SNAPSHOT DEFAUL	MACRO V05.04  Tuesday 17-May-88 14:36  Page 133
.SNAP -- ROUTINE TO MANUALLY PERFORM A SNAPSHOT

   5404
   5405					.TITLE	MARKC -- KL MARK/UNMARK-MICROCODE COMMAND MODULE 7910.19
   5406
   5407						.IDENT	"006130"
   5408
   5409					;
   5410					;                             COPYRIGHT (C) 1975, 1984, 1985 BY
   5411					;                     DIGITAL EQUIPMENT CORPORATION, MAYNARD MASS.
   5412					;			ALL RIGHTS RESERVED.
   5413					;       THIS SOFTWARE IS FURNISHED UNDER A LICENSE AND MAY BE  USED  AND  COPIED
   5414					;       ONLY IN ACCORDANCE WITH THE TERMS OF SUCH LICENSE AND WITH THE INCLUSION
   5415					;       OF THE ABOVE COPYRIGHT NOTICE.  THIS SOFTWARE OR ANY OTHER COPIES THERE-
   5416					;       OF  MAY NOT BE PROVIDED OR OTHERWISE MADE AVAILABLE TO ANY OTHER PERSON.
   5417					;       NO TITLE TO OR OWNERSHIP OF THE SOFTWARE IS HEREBY TRANSFERRED.
   5418					;
   5419					;       THE INFORMATION CONTAINED IN THIS SOFTWARE IS SUBJECT TO CHANGE  WITHOUT
   5420					;       NOTICE  AND SHOULD NOT BE CONSTRUED AS A COMMITMENT BY DIGITAL EQUIPMENT
   5421					;       CORPORATION.
   5422					;
   5423					;       DIGITAL ASSUMES NO RESPONSIBILITY FOR THE  USE  OR  RELIABILITY  OF  ITS
   5424					;       SOFTWARE ON EQUIPMENT WHICH IS NOT SUPPILED BY DIGITAL.
   5425					;
   5426					;
   5427					;		MODULE: KL CRAM DISPATCH FIELD READ
   5428					;
   5429					;		VERSION: 06-13
   5430					;
   5431					;		AUTHOR: R. BELANGER
   5432					;
   5433					;		DATE: 7910.19
   5434					;
   5435					;	THIS MODULE CONTAINS:
   5436					;
   5437					;	1) MARK MICROCODE COMMAND
   5438					;	2) UNMARK MICROCODE COMMAND
MARKC -- KL MARK/UNMARK-MICROCO	MACRO V05.04  Tuesday 17-May-88 14:36  Page 134
.MARKC -- THE "MARK/UNMARK-MICROCODE" COMMAND 7910.19

   5440					.SBTTL	.MARKC -- THE "MARK/UNMARK-MICROCODE" COMMAND 7910.19
   5441
   5442					;+
   5443					; .MARKC -- THE "MARK-MICROCODE" COMMAND
   5444					; .UMRKC -- THE "UNMARK-MICROCODE" COMMAND
   5445					;
   5446					; THESE SUBROUTINES WILL EITHER MARK OR UNMARK A SINGLE LOCATION IN THE
   5447					; KL CRAM.  NO CHECK IS MADE TO SEE WHETHER OR NOT THE LOCATION IS ALREADY
   5448					; IN THE DESIRED STATE; THE COMMAND IS SIMPLY EXECUTED
   5449					;
   5450					; INPUT ARGUMENTS:
   5451					;
   5452					;	NONE.
   5453					;
   5454					; OUTPUT ARGUMENTS:
   5455					;
   5456					;	NONE.
   5457					;	R0, R1, R2 -- ALTERED.
   5458					;
   5459					; ERROR CODES RETURNED:
   5460					;
   5461					;	NONE.
   5462					;
   5463					; NOTE:
   5464					;
   5465					;	NO ATTEMPT IS MADE TO RESTORE THE STATE OF THE KL CLOCK OR THE
   5466					;	KL RUN FLOP.  THIS ROUTINE ESSENTIALLY CLOBBERS ANY HARDWARE
   5467					;	CONTEXT THAT EXISTS WHEN IT IS CALLED AND EXITS WITH THE KL
   5468					;	CLOCK OFF.
   5469					;-
   5470						.ENABL	LSB
   5471
   5472	010262				.UMRKC::
   5473	010262	005046 				CLR	-(SP)		; SET THE "UNMARK" FLAG
   5474	010264	000402 				BR	10$		; .AND ENTER COMMON CODE
   5475						;
   5476	010266				.MARKC::
   5477	010266	012746 	000001 			MOV	#1,-(SP)	; SET THE "MARK" FLAG
   5478	010272				10$:
   5479	010272					CALL	.CKRUN		; .BETTER NOT BE RUNNING...
	010272	004737 	000000G			 JSR	PC,.CKRUN
   5480	010276					CALL	.GTELN		; .READ THE CRAM ADDRESS
	010276	004737 	000000G			 JSR	PC,.GTELN
   5481	010302	010002 				MOV	R0,R2		; .COPY ADDRESS TO R2
   5482	010304					CALL	.RDCRM		; .READ THE CRAM LOCATION SPECIFIED
	010304	004737 	000000G			 JSR	PC,.RDCRM
   5483	010310	012701 	000400 			MOV	#400,R1		; .MARK BIT TO R1
   5484	010314	005716 				TST	(SP)		; .TEST "MARK" FLAG
   5485	010316	001003 				BNE	20$		; .MARK -- GO DO IT
   5486	010320	040160 	000006 			BIC	R1,6(R0)	; .UNMARK -- DO IT NOW
   5487	010324	000402 				BR	30$		; .AND EXIT IN COMMON CODE
   5488						;
   5489	010326				20$:
   5490	010326	050160 	000006 			BIS	R1,6(R0)	; .MARK THE MICROCODE
   5491	010332				30$:
   5492	010332	010001 				MOV	R0,R1		; .COPY BUFFER POINTER TO R1
   5493	010334	010200 				MOV	R2,R0		; .COPY ADDRESS TO R0
MARKC -- KL MARK/UNMARK-MICROCO	MACRO V05.04  Tuesday 17-May-88 14:36  Page 134-1
.MARKC -- THE "MARK/UNMARK-MICROCODE" COMMAND 7910.19

   5494	010336					CALL	.WRCRM		; .REWRITE THE CRAM
	010336	004737 	000000G			 JSR	PC,.WRCRM
   5495	010342	122715 	000054 			CMPB	#',,(R5)	; [5.1014]IS THIS A LIST?
   5496	010346	001004 				BNE	40$		; [5.1014]NO -- GO ON
   5497	010350	105725 				TSTB	(R5)+		; [5.1014]YES -- REMOVE COMMA
   5498	010352	005726 				TST	(SP)+		; [5.1014]REMOVE AND TEST "MARK" FLAG
   5499	010354	001344 				BNE	.MARKC		; [5.1014]MARK COMMAND
   5500	010356	000741 				BR	.UMRKC		; [5.1014]UNMARK COMMAND
   5501	010360	005726 			40$:	TST	(SP)+		; [5.1014]POP STACK
   5502	010362					RETURN			; [5.1014]EXIT
	010362	000207 				 RTS	PC
   5503						;
   5504
   5505						.DSABLE	LSB
RESTC -- RESET COMMAND DISPATCH	MACRO V05.04  Tuesday 17-May-88 14:36  Page 136
.MARKC -- THE "MARK/UNMARK-MICROCODE" COMMAND 7910.19

   5508					.TITLE	RESTC -- RESET COMMAND DISPATCH 7707.12
   5509
   5510						.IDENT	"005000"
   5511					;
   5512					;                             COPYRIGHT (C) 1975, 1984, 1985 BY
   5513					;                     DIGITAL EQUIPMENT CORPORATION, MAYNARD MASS.
   5514					;			ALL RIGHTS RESERVED.
   5515					;       THIS SOFTWARE IS FURNISHED UNDER A LICENSE AND MAY BE  USED  AND  COPIED
   5516					;       ONLY IN ACCORDANCE WITH THE TERMS OF SUCH LICENSE AND WITH THE INCLUSION
   5517					;       OF THE ABOVE COPYRIGHT NOTICE.  THIS SOFTWARE OR ANY OTHER COPIES THERE-
   5518					;       OF  MAY NOT BE PROVIDED OR OTHERWISE MADE AVAILABLE TO ANY OTHER PERSON.
   5519					;       NO TITLE TO OR OWNERSHIP OF THE SOFTWARE IS HEREBY TRANSFERRED.
   5520					;
   5521					;       THE INFORMATION CONTAINED IN THIS SOFTWARE IS SUBJECT TO CHANGE  WITHOUT
   5522					;       NOTICE  AND SHOULD NOT BE CONSTRUED AS A COMMITMENT BY DIGITAL EQUIPMENT
   5523					;       CORPORATION.
   5524					;
   5525					;       DIGITAL ASSUMES NO RESPONSIBILITY FOR THE  USE  OR  RELIABILITY  OF  ITS
   5526					;       SOFTWARE ON EQUIPMENT WHICH IS NOT SUPPILED BY DIGITAL.
   5527					;
   5528					;		MODULE: RESET COMMAND DISPATCH
   5529					;
   5530					;		VERSION: 05-00
   5531					;
   5532					;		AUTHOR: R. BELANGER
   5533					;
   5534					;		DATE: 7707.12
   5535					;
   5536					;	THIS MODULE CONTAINS:
   5537					;
   5538					;	1) RESET COMMAND DISPATCH
RESTC -- RESET COMMAND DISPATCH	MACRO V05.04  Tuesday 17-May-88 14:36  Page 137
.RESTC -- THE "RESET" COMMAND DISPATCH 7710.11

   5540					.SBTTL	.RESTC -- THE "RESET" COMMAND DISPATCH 7710.11
   5541
   5542					;+
   5543					; .RESTC -- THE "RESET" COMMAND DISPATCH
   5544					;
   5545					; THIS ROUTINE IS THE TOP LEVEL OF THE RESET COMMAND. ".RESTC" CHECKS
   5546					; ARGUMENTS FOR RESET AND DISPATCHES TO THE PROPER ROUTINE
   5547					;
   5548					; INPUT ARGUMENTS:
   5549					;
   5550					;	NONE.
   5551					;
   5552					; OUTPUT ARGUMENTS:
   5553					;
   5554					;	R0 POINTS TO THE LEGAL BITS FOR THE RESET OBJECT.
   5555					;
   5556					; ERROR CODES RETURNED:
   5557					;
   5558					;	KLR -- ILLEGAL WHILE KL IS RUNNING.
   5559					;-
   5560
   5561	010364				.RESTC::
   5562	010364	111504 				MOVB	(R5),R4		; LOOK AT THIS CHARACTER
   5563	010366	132764 	000010 	000000G		BITB	#CH.EOC,.CHTAB(R4)
   5564	010374	001015 				BNE	10$		; DEFAULT RESET ON E-O-C
   5565	010376					CALL	.CKARG		; GET OVER LEADING BLANKS
	010376	004737 	000000G			 JSR	PC,.CKARG
   5566	010402	012700 	000000G			MOV	#.RESTB,R0	; TABLE POINTER TO R0
   5567	010406					CALL	.TSCAN		; SCAN THE TABLE
	010406	004737 	000000G			 JSR	PC,.TSCAN
   5568	010412	012001 				MOV	(R0)+,R1	; LEGAL BITS TO R1
   5569	010414	005101 				COM	R1		; INVERT THEM
   5570	010416	040137 	000000G			BIC	R1,.LGLWD	; SET UP NEW LEGAL WORD
   5571	010422					CALL	.CKEOC		; CHECK FOR E-O-C
	010422	004737 	000000G			 JSR	PC,.CKEOC
   5572	010426					CALLR	@(R0)+		; DO THE RESET
	010426	000130 				 JMP	@(R0)+
   5573						;
   5574	010430				10$:
   5575	010430					CALL	.CKRNP		; SEE IF THE KL IS RUNNING
	010430	004737 	000000G			 JSR	PC,.CKRNP
   5576	010434					CALL	.STPKL		; STOP THE KL
	010434	004737 	000000G			 JSR	PC,.STPKL
   5577	010440					CALLR	.RESTP		; RESET THE KL AND EXIT
	010440	000137 	000000G			 JMP	.RESTP
   5578						;
RESTC -- RESET COMMAND DISPATCH	MACRO V05.04  Tuesday 17-May-88 14:36  Page 138
.RSALL -- THE "RESET ALL" COMMAND 7602.18

   5580					.SBTTL	.RSALL -- THE "RESET ALL" COMMAND 7602.18
   5581
   5582	010444				.RSALL::
   5583	010444					PUSH	.KLFLG		; SAVE ".KLFLG"
	010444	013746 	000000G			 MOV	.KLFLG,-(SP)
   5584	010450	032716 	100000 			BIT	#KF.CLK,(SP)	; .IS THE CLOCK ON?
   5585	010454	001426 				BEQ	RSAKCN		; .NO -- GIVE "KCN" ERROR
   5586	010456					CALL	.STPKL		; .STOP THE KL
	010456	004737 	000000G			 JSR	PC,.STPKL
   5587	010462					CALL	.RESTD		; .RESET THE DTE-20
	010462	004737 	000000G			 JSR	PC,.RESTD
   5588	010466					CALL	.RSAPR		; .RESET APR
	010466	004737 	010540'			 JSR	PC,.RSAPR
   5589	010472					CALL	.RSPAG		; .RESET PAG
	010472	004737 	010572'			 JSR	PC,.RSPAG
   5590	010476					CALL	.RSTPI		; .RESET PI
	010476	004737 	010562'			 JSR	PC,.RSTPI
   5591	010502					POP	.SVKLF		; .SET UP ".SVKLF"
	010502	012637 	000000G			 MOV	(SP)+,.SVKLF
   5592	010506					CALLR	.RSTKL		; RESTART THE KL
	010506	000137 	000000G			 JMP	.RSTKL
   5593						;
   5594	010512				.RSDTE::
   5595	010512					CALLR	.RESTD		; RESET THE DTE-20
	010512	000137 	000000G			 JMP	.RESTD
   5596						;
   5597	010516				.RSTIN::
   5598	010516					CALL	.CKRUN		; SEE IF THE KL IS RUNNING
	010516	004737 	000000G			 JSR	PC,.CKRUN
   5599	010522					CALL	.STPKL		; STOP THE KL
	010522	004737 	000000G			 JSR	PC,.STPKL
   5600	010526					CALLR	.RESTI		; RESET TO DEFAULTS AND EXIT
	010526	000137 	000000G			 JMP	.RESTI
   5601						;
   5602	010532				RSAKCN:
   5603	010532					ERROR$	KCN		; ERROR -- KL CLOCK NOT RUNNING
	010532	012746 	042506 			 MOV	#^RKCN,-(SP)
	010536	104400 				 TRAP	TC.ERR
   5604						;
RESTC -- RESET COMMAND DISPATCH	MACRO V05.04  Tuesday 17-May-88 14:36  Page 139
.RSTPI -- THE "RESET PI" COMMAND 7607.21

   5606					 .SBTTL	.RSTPI -- THE "RESET PI" COMMAND 7607.21
   5607
   5608						.ENABL	LSB
   5609
   5610	010540				.RSAPR::			; RESET APR
   5611	010540	012700 	000660'			MOV	#RSAPRI,R0	; INSTRUCTION POINTER TO R0
   5612	010544	000410 				BR	10$		; DO COMMON CODE
   5613						;
   5614	010546				.RSERR::			; RESET ERROR
   5615	010546	012700 	000666'			MOV	#RSERRI,R0	; INSTRUCTION POINTER TO R0
   5616	010552	000405 				BR	10$		; DO COMMON CODE
   5617						;
   5618	010554				.RSTIO::			; RESET IO
   5619	010554	012700 	000674'			MOV	#RSTIOI,R0	; INSTRUCTION POINTER TO R0
   5620	010560	000402 				BR	10$		; DO COMMON CODE
   5621						;
   5622	010562				.RSTPI::			; RESET PI
   5623	010562	012700 	000702'			MOV	#RSTPII,R0	; INSTRUCTION POINTER TO R0
   5624	010566				10$:
   5625	010566					CALLR	.EXCTF		; EXECUTE IT
	010566	000137 	000000G			 JMP	.EXCTF
   5626						;
   5627
   5628						.DSABL	LSB
   5629
   5630	000660				.PSECT	DATA
   5631
   5632	000660				RSAPRI:
   5633	000660					IOKL$	CONO	APR,,267760
	000660	   360 	   157 			 .BYTE	$$A,$$B
	000662	   001 	   002 			 .BYTE	$$C,$$D
	000664	   016 	   000 			 .BYTE	$$E,$$F
   5634	000666				RSERRI:
   5635	000666					IOKL$	CONO	APR,,27760
	000666	   360 	   057 			 .BYTE	$$A,$$B
	000670	   000 	   002 			 .BYTE	$$C,$$D
	000672	   016 	   000 			 .BYTE	$$E,$$F
   5636	000674				RSTIOI:
   5637	000674					IOKL$	CONO	APR,,200000
	000674	   000 	   000 			 .BYTE	$$A,$$B
	000676	   001 	   002 			 .BYTE	$$C,$$D
	000700	   016 	   000 			 .BYTE	$$E,$$F
   5638	000702				RSTPII:
   5639	000702					IOKL$	CONO	PI,,10000
	000702	   000 	   020 			 .BYTE	$$A,$$B
	000704	   000 	   006 			 .BYTE	$$C,$$D
	000706	   016 	   000 			 .BYTE	$$E,$$F
   5640
   5641	010572				.PSECT
RESTC -- RESET COMMAND DISPATCH	MACRO V05.04  Tuesday 17-May-88 14:36  Page 140
.RSPAG -- THE "RESET PAG" COMMAND 7607.21

   5643					.SBTTL	.RSPAG -- THE "RESET PAG" COMMAND 7607.21
   5644
   5645	010572				.RSPAG::
   5646	010572					PUSH	.KLFLG		; SAVE ".KLFLG"
	010572	013746 	000000G			 MOV	.KLFLG,-(SP)
   5647	010576	032716 	100000 			BIT	#KF.CLK,(SP)	; .IS THE CLOCK ON?
   5648	010602	001442 				BEQ	RSPKCN		; .NO -- GIVE "KCN" ERROR
   5649	010604					CALL	.STPKL		; .STOP THE KL
	010604	004737 	000000G			 JSR	PC,.STPKL
   5650	010610					PUSH	R1		; .SAVE R1
	010610	010146 				 MOV	R1,-(SP)
   5651	010612					PUSH	#16		; ..BUILD A CLEAR WORD ON THE STACK
	010612	012746 	000016 			 MOV	#16,-(SP)
   5652	010616	005046 				CLR	-(SP)		; ...
   5653	010620	005046 				CLR	-(SP)		; ....
   5654	010622	010601 				MOV	SP,R1		; .....GET THE POINTER
   5655	010624	005046 				CLR	-(SP)		; .....NOW SET UP
   5656	010626					PUSH	#100		; ......SCRATCH ADDRESS
	010626	012746 	000100 			 MOV	#100,-(SP)
   5657	010632	010600 				MOV	SP,R0		; .......GET THE POINTER
   5658	010634					PUSH	R1		; .......DATA POINTER TO STACK
	010634	010146 				 MOV	R1,-(SP)
   5659	010636					PUSH	R0		; ........ADDRESS POINTER TO STACK
	010636	010046 				 MOV	R0,-(SP)
   5660	010640	010601 				MOV	SP,R1		; .........BLOCK POINTER TO R1
   5661	010642	012700 	000040 			MOV	#ED.EXV,R0	; .........EXEC VIRTUAL SPACE
   5662	010646					CALL	.DPKLM		; .........DO THE DEPOSIT
	010646	004737 	000000G			 JSR	PC,.DPKLM
   5663	010652	062706 	000016 			ADD	#^D14,SP	; .........RESET THE STACK
   5664	010656	012700 	000710'			MOV	#RSPGI0,R0	; ..INSTRUCTION POINTER TO R0
   5665	010662					CALL	.EXCTF		; ..EXECUTE IT
	010662	004737 	000000G			 JSR	PC,.EXCTF
   5666	010666	012700 	000716'			MOV	#RSPGI1,R0	; ..NEXT INSTRUCTION
   5667	010672					CALL	.EXCTF		; ..EXECUTE IT
	010672	004737 	000000G			 JSR	PC,.EXCTF
   5668	010676					POP	R1		; ..RESTORE R1
	010676	012601 				 MOV	(SP)+,R1
   5669	010700					POP	.SVKLF		; .SET UP ".SVKLF"
	010700	012637 	000000G			 MOV	(SP)+,.SVKLF
   5670	010704					CALLR	.RSTKL		; RESART THE KL AND EXIT
	010704	000137 	000000G			 JMP	.RSTKL
   5671						;
RESTC -- RESET COMMAND DISPATCH	MACRO V05.04  Tuesday 17-May-88 14:36  Page 141
.RSPAG -- THE "RESET PAG" COMMAND 7607.21

   5673	010710				RSPKCN:
   5674	010710					ERROR$	KCN		; ERROR -- KL CLOCK NOT RUNNING
	010710	012746 	042506 			 MOV	#^RKCN,-(SP)
	010714	104400 				 TRAP	TC.ERR
   5675						;
   5676
   5677	000710				.PSECT	DATA
   5678
   5679	000710				RSPGI0:
   5680	000710					IOKL$	CONO	PAG,,0
	000710	   000 	   000 			 .BYTE	$$A,$$B
	000712	   000 	   012 			 .BYTE	$$C,$$D
	000714	   016 	   000 			 .BYTE	$$E,$$F
   5681	000716				RSPGI1:
   5682	000716					IOKL$	DATAO	PAG,,100
	000716	   100 	   000 			 .BYTE	$$A,$$B
	000720	   200 	   011 			 .BYTE	$$C,$$D
	000722	   016 	   000 			 .BYTE	$$E,$$F
   5683
   5684	010716				.PSECT
RESTC -- RESET COMMAND DISPATCH	MACRO V05.04  Tuesday 17-May-88 14:36  Page 142
.RSPAG -- THE "RESET PAG" COMMAND 7607.21

   5686
   5687
   5688					.TITLE	RUNCM -- RUN/TAKE COMMAND MODULE 7607.14
   5689
   5690						.IDENT	"006110"
   5691
   5692					;
   5693					;                             COPYRIGHT (C) 1975, 1984, 1985 BY
   5694					;                     DIGITAL EQUIPMENT CORPORATION, MAYNARD MASS.
   5695					;			ALL RIGHTS RESERVED.
   5696					;       THIS SOFTWARE IS FURNISHED UNDER A LICENSE AND MAY BE  USED  AND  COPIED
   5697					;       ONLY IN ACCORDANCE WITH THE TERMS OF SUCH LICENSE AND WITH THE INCLUSION
   5698					;       OF THE ABOVE COPYRIGHT NOTICE.  THIS SOFTWARE OR ANY OTHER COPIES THERE-
   5699					;       OF  MAY NOT BE PROVIDED OR OTHERWISE MADE AVAILABLE TO ANY OTHER PERSON.
   5700					;       NO TITLE TO OR OWNERSHIP OF THE SOFTWARE IS HEREBY TRANSFERRED.
   5701					;
   5702					;       THE INFORMATION CONTAINED IN THIS SOFTWARE IS SUBJECT TO CHANGE  WITHOUT
   5703					;       NOTICE  AND SHOULD NOT BE CONSTRUED AS A COMMITMENT BY DIGITAL EQUIPMENT
   5704					;       CORPORATION.
   5705					;
   5706					;       DIGITAL ASSUMES NO RESPONSIBILITY FOR THE  USE  OR  RELIABILITY  OF  ITS
   5707					;       SOFTWARE ON EQUIPMENT WHICH IS NOT SUPPILED BY DIGITAL.
   5708					;
   5709					;		MODULE: RUN COMMAND
   5710					;
   5711					;		VERSION: 06-11
   5712					;
   5713					;		AUTHOR: R. BELANGER
   5714					;
   5715					;		DATE: 7607.14
   5716					;
   5717					;	THIS MODULE CONTAINS:
   5718					;
   5719					;	1) RUN COMMAND CODE
   5720					;	2) REQUEST DIRECTIVE PARAMETER BLOCK
   5721					;
   5722					;  MODIFICATIONS:
   5723					;
   5724					;	NO.	DATE		PROGRAMMER	REASON
   5725					;	---	----		----------	------
   5726					;    [5.1000]	24-AUG-79	K. LEFEBVRE	ADD "TAKE" COMMAND
   5727
   5728						.MCALL	DIR$, RQST$
RUNCM -- RUN/TAKE COMMAND MODUL	MACRO V05.04  Tuesday 17-May-88 14:36  Page 143
.RUNCM -- THE "RUN" AND "MCR" COMMANDS 7607.14

   5730					.SBTTL	.RUNCM -- THE "RUN" AND "MCR" COMMANDS 7607.14
   5731
   5732					;+
   5733					; .RUNCM -- THE "RUN" AND "MCR" COMMANDS
   5734					;
   5735					; THIS ROUTINE REQUESTS THE TASK SPECIFIED IN THE COMMAND TO BE RUN
   5736					; AND EXITS THE COMMAND PARSER
   5737					;
   5738					; INPUT ARGUMENTS:
   5739					;
   5740					;	NONE.
   5741					;
   5742					; OUTPUT ARGUMENTS:
   5743					;
   5744					;	NONE.
   5745					;
   5746					; ERROR CODES RETURNED:
   5747					;
   5748					;	ITN -- ILLEGAL TASK NAME
   5749					;	NST -- NO SUCH TASK
   5750					;	TAA -- TASK IS ALREADY ACTIVE
   5751					;-
   5752
   5753	010716				.RUNCM::
   5754	010716					CALL	.CKSYM		; GET OVER LEADING BLANKS
	010716	004737 	000000G			 JSR	PC,.CKSYM
   5755	010722					CALL	.GTR50		; GET THE .RAD50 TASK NAME
	010722	004737 	011174'			 JSR	PC,.GTR50
   5756	010726	001425 				BEQ	RUNITN		; BAD NEWS IF NONE THERE
   5757	010730					PUSH	R0		; SAVE THE TASK NAME
	010730	010046 				 MOV	R0,-(SP)
   5758	010732					CALL	.GTR50		; .READ THE SECOND HALF
	010732	004737 	011174'			 JSR	PC,.GTR50
   5759	010736					CALL	.CKEOC		; .MUST HAVE E-O-C
	010736	004737 	000000G			 JSR	PC,.CKEOC
   5760	010742					POP	.RNDPB+4	; .SET THE TASK NAME IN THE DPB
	010742	012637 	000052'			 MOV	(SP)+,.RNDPB+4
   5761	010746					DIR$	#.RNDPB		; REQUEST THE TASK
	010746	012746 	000046'			MOV	#.RNDPB,-(SP)
	010752	104375 				EMT	375
   5762	010754	103402 				BCS	10$		; ERROR IF CC-C IS SET
   5763	010756					CALLR	.EXITP		; EXIT
	010756	000137 	000000G			 JMP	.EXITP
   5764						;
   5765
   5766					;	[CONTINUED ON THE FOLLOWING PAGE]
RUNCM -- RUN/TAKE COMMAND MODUL	MACRO V05.04  Tuesday 17-May-88 14:36  Page 144
.RUNCM -- THE "RUN" AND "MCR" COMMANDS 7607.14

   5768					;	[CONTINUED FROM THE PREVIOUS PAGE]
   5769
   5770	010762				10$:
   5771	010762	013700 	000000G			MOV	$DSW,R0		; LOOK AT THE DIRECTIVE STATUS
   5772	010766	022700 	000000G			CMP	#IE.INS,R0	; IS THERE SUCH A TASK?
   5773	010772	001406 				BEQ	RUNNST		; NO -- GIVE "NST" ERROR
   5774	010774	022700 	000000G			CMP	#IE.ACT,R0	; YES -- IS IT ALREADY ACTIVE?
   5775	011000	001406 				BEQ	RUNTAA		; YES -- GIVE "TAA" ERROR
   5776	011002				RUNITN:
   5777	011002					ERROR$	ITN		; ERROR -- ILLEGAL TASK NAME
	011002	012746 	035556 			 MOV	#^RITN,-(SP)
	011006	104400 				 TRAP	TC.ERR
   5778						;
   5779	011010				RUNNST:
   5780	011010					ERROR$	NST		; ERROR -- NO SUCH TASK
	011010	012746 	055214 			 MOV	#^RNST,-(SP)
	011014	104400 				 TRAP	TC.ERR
   5781						;
   5782	011016				RUNTAA:
   5783	011016					ERROR$	TAA		; ERROR -- TASK ALREADY ACTIVE
	011016	012746 	076451 			 MOV	#^RTAA,-(SP)
	011022	104400 				 TRAP	TC.ERR
   5784						;
RUNCM -- RUN/TAKE COMMAND MODUL	MACRO V05.04  Tuesday 17-May-88 14:36  Page 145
.RUNCM -- THE "RUN" AND "MCR" COMMANDS 7607.14

   5786					; DPB FOR REQUEST DIRECTIVE
   5787
   5788					;	!===============================================!
   5789					; 00	!	DPB SIZE	!	  DIC		!
   5790					;	!-----------------------------------------------!
   5791					; 02	!	    TASK NAME IN .RAD50 (HIGH)		!
   5792					;	!-----------------------------------------------!
   5793					; 04	!	    TASK NAME IN .RAD50 (LOW)		!
   5794					;	!-----------------------------------------------!
   5795					; 06	!	     PARTITION NAME (IGNORED)		!
   5796					;	!-----------------------------------------------!
   5797					; 10	!	     PARTITION NAME (IGNORED)		!
   5798					;	!-----------------------------------------------!
   5799					; 12	!		TASK PRIORITY			!
   5800					;	!-----------------------------------------------!
   5801					; 14	!		UIC (IGNORED)			!
   5802					;	!===============================================!
   5803
   5804	000046				.PSECT	DPBS
   5805
   5806	000046				.RNDPB::
   5807	000046					RQST$	...TSK,,,,
	000046	   013 	   007 			.BYTE	11.,7
	000050	131574 	100003 			.RAD50	/...TSK/
	000054	000000 	000000 			.WORD	0,0
	000060	000000 				.WORD
	000062	   000 	   000 			.BYTE	,
   5808
   5809	011024				.PSECT
RUNCM -- RUN/TAKE COMMAND MODUL	MACRO V05.04  Tuesday 17-May-88 14:36  Page 146
.TAKEC -- THE "TAKE" COMMAND

   5811					.SBTTL	.TAKEC -- THE "TAKE" COMMAND
   5812
   5813					;+
   5814					; .TAKEC -- THE "TAKE" COMMAND
   5815					;
   5816					; THIS ROUTINE REQUESTS AN INDIRECT COMMAND FILE, OPENS IT WITH
   5817					; READ ACCESS, AND INDICATES THAT FURTHER COMMAND INPUT SHOULD
   5818					; COME FROM THIS FILE.
   5819					;	THIS COMMAND WAS ADDED FOR TCO 5.1000
   5820					;
   5821					; INPUT ARGUMENTS:
   5822					;
   5823					;	NONE
   5824					;
   5825					; OUTPUT ARGUMENTS:
   5826					;
   5827					;	NONE
   5828					;
   5829					; ERROR CODES RETURNED:
   5830					;
   5831					;	CAL -- CAN'T ASSIGN LUN
   5832					;	DNF -- DIRECTORY FILE NOT FOUND
   5833					;	FLF -- FILE LOOKUP FAILURE
   5834					;	FOF -- FILE OPEN FAILURE
   5835					;	FRD -- FILE READ FAILURE
   5836					;	IFN -- ILLEGAL FILE NAME
   5837					;	IRE -- ILLEGAL RECURSION
   5838					;	NSF -- NO SUCH FILE
   5839					;-
   5840
   5841	011024				.TAKEC::
   5842	011024	012737 	062072 	000000G		MOV	#^RPAR,.INFN	; DEFAULT COMMAND FILE NAME
   5843	011032	012737 	073632 	000002G		MOV	#^RSER,.INFN+2	; PARSER.CMD
   5844	011040					CALL	.CKSYM		; GET OVER LEADING BLANKS
	011040	004737 	000000G			 JSR	PC,.CKSYM
   5845	011044					CALL	.GTR50		; GET THE RAD50 FILE NAME
	011044	004737 	011174'			 JSR	PC,.GTR50
   5846	011050	001406 				BEQ	10$		; DEFAULT NAME IF NONE GIVEN
   5847	011052	010037 	000000G			MOV	R0,.INFN	; SAVE 1ST HALF FILE NAME
   5848	011056					CALL	.GTR50		; GET 2ND HALF FILE NAME
	011056	004737 	011174'			 JSR	PC,.GTR50
   5849	011062	010037 	000002G			MOV	R0,.INFN+2	; SAVE 2ND HALF FILE NAME
   5850	011066				10$:	CALL	.CKEOC		; MUST HAVE E-O-C
	011066	004737 	000000G			 JSR	PC,.CKEOC
   5851	011072	005737 	000000G			TST	.INDFG		; ALREADY DOING INDIRECT FILE?
   5852	011076	001030 				BNE	TAKIRE		; YES -- ERROR
   5853	011100				.TAKE1::			; [5.1006]ALTERNATE ENTRY POINT FOR KLE
   5854	011100	012700 	000000G			MOV	#.INFN,R0	; NO -- INPUT FILE NAME PTR
   5855	011104	012701 	000000G			MOV	#.INFNB,R1	; INPUT FILE NAME BLOCK PTR
   5856	011110	012702 	000005 			MOV	#INDLUN,R2	; INPUT FILE LUN
   5857	011114					CALL	.LOKUP		; LOOK UP INPUT FILE
	011114	004737 	000000G			 JSR	PC,.LOKUP
   5858	011120	103422 				BCS	TAKNSF		; NO SUCH FILE IF CC-C IS SET
   5859	011122	012704 	000000G			MOV	#IO.ACR,R4	; READ ACCESS
   5860	011126					CALL	.OPEN		; OPEN FILE FOR READ
	011126	004737 	000000G			 JSR	PC,.OPEN
   5861	011132	005037 	000000G			CLR	.INBBC		; NOTHING READ IN YET
RUNCM -- RUN/TAKE COMMAND MODUL	MACRO V05.04  Tuesday 17-May-88 14:36  Page 146-1
.TAKEC -- THE "TAKE" COMMAND

   5862	011136	005037 	000000G			CLR	.INPOS		; NO BUFFER YET
   5863	011142	005037 	000000G			CLR	.INVBN		; READ FIRST BLOCK
   5864	011146	005037 	000002G			CLR	.INVBN+2	; READ FIRST BLOCK
   5865	011152	005237 	000000G			INC	.INDFG		; REDIRECT INPUT TO FILE
   5866	011156					RETURN			; RETURN
	011156	000207 				 RTS	PC
   5867						;
   5868	011160				TAKIRE:
   5869	011160					ERROR$	IRE		; ERROR -- ILLEGAL RECURSION
	011160	012746 	035425 			 MOV	#^RIRE,-(SP)
	011164	104400 				 TRAP	TC.ERR
   5870	011166				TAKNSF:
   5871	011166				20$:	ERROR$	NSF		; ERROR -- NO SUCH FILE
	011166	012746 	055176 			 MOV	#^RNSF,-(SP)
	011172	104400 				 TRAP	TC.ERR
   5872						;
RUNCM -- RUN/TAKE COMMAND MODUL	MACRO V05.04  Tuesday 17-May-88 14:36  Page 147
.GTR50 -- GET A .RAD50 WORD 7602.18

   5874					.SBTTL	.GTR50 -- GET A .RAD50 WORD 7602.18
   5875
   5876					;+
   5877					; .GTR50 -- GET A .RAD50 WORD
   5878					;
   5879					; THIS ROUTINE WILL CONVERT THE NEXT THREE ASCII CHARACTERS IN THE
   5880					; INPUT STREAM TO .RAD50 FORMAT.
   5881					;
   5882					; INPUT ARGUMENTS:
   5883					;
   5884					;	R5 POINTS TO THE INPUT STREAM.
   5885					;
   5886					; OUTPUT ARGUMENTS:
   5887					;
   5888					;	R0 HOLDS THE .RAD50 SYMBOL.
   5889					;
   5890					; ERROR CODES RETURNED:
   5891					;
   5892					;	NONE.
   5893					;	IF THE ROUTINE CANNOT CONVERT THE FIRST CHARACTER, CC-Z IS SET.
   5894					;-
RUNCM -- RUN/TAKE COMMAND MODUL	MACRO V05.04  Tuesday 17-May-88 14:36  Page 148
.GTR50 -- GET A .RAD50 WORD 7602.18

   5896	011174				.GTR50::
   5897	011174					PUSH	<R1,R2>		; SAVE REGISTERS
	011174	010146 				 MOV	R1,-(SP)
	011176	010246 				 MOV	R2,-(SP)
   5898	011200	005046 				CLR	-(SP)		; ..SAVE A BUFFER
   5899	011202	012702 	000000G			MOV	#.T50TB,R2	; ...FACTOR TABLE POINTER TO R2
   5900	011206				10$:
   5901	011206	012201 				MOV	(R2)+,R1	; ...GET CURRENT MULTIPLIER
   5902	011210	001427 				BEQ	50$		; ...DONE IF .EQ. 0
   5903	011212	112500 				MOVB	(R5)+,R0	; ...GET THE CHARACTER INTO R0
   5904	011214	120027 	000101 			CMPB	R0,#'A		; ...IS IT ALPHABETIC?
   5905	011220	103403 				BLO	20$		; ...NO -- TRY NUMERIC
   5906	011222	120027 	000132 			CMPB	R0,#'Z		; ...IS IT REALLY ALPHABETIC?
   5907	011226	101410 				BLOS	30$		; ...YES -- ADD IT TO RESULT
   5908	011230				20$:
   5909	011230	120027 	000060 			CMPB	R0,#'0		; ...NO -- IS IT NUMERIC?
   5910	011234	103413 				BLO	40$		; ...NO -- EXIT
   5911	011236	120027 	000071 			CMPB	R0,#'9		; ...YES -- IS IT REALLY NUMERIC?
   5912	011242	101010 				BHI	40$		; ...NO -- EXIT
   5913	011244	162700 	177722 			SUB	#<<'0-36>-<'A-1>>,R0
   5914	011250				30$:
   5915	011250	162700 	000100 			SUB	#<'A-1>,R0	; ...CONVERT ALPHABETIC
   5916	011254					CALL	$MUL		; ...COMPUTE CHARACTER VALUE
	011254	004737 	000000G			 JSR	PC,$MUL
   5917	011260	060116 				ADD	R1,(SP)		; ...ACCUMULATE RESULT
   5918	011262	000751 				BR	10$		; ...AND GET NEXT CHARACTER
   5919						;
   5920	011264				40$:
   5921	011264	105745 				TSTB	-(R5)		; ...BACK UP THE BYTE POINTER
   5922	011266	010004 				MOV	R0,R4		; ...PUT THE CHARACTER IN R4
   5923	011270				50$:
   5924	011270					POP	R0		; ...RETURN THE RESULT
	011270	012600 				 MOV	(SP)+,R0
   5925	011272					POP	<R2,R1>		; ..RESTORE REGISTERS
	011272	012602 				 MOV	(SP)+,R2
	011274	012601 				 MOV	(SP)+,R1
   5926	011276	005700 				TST	R0		; LOOK AT R0
   5927	011300					RETURN			; TO CALLER
	011300	000207 				 RTS	PC
RUNCM -- RUN/TAKE COMMAND MODUL	MACRO V05.04  Tuesday 17-May-88 14:36  Page 149
.QUITC -- THE "QUIT" COMMAND 7602.16

   5929					.SBTTL	.QUITC -- THE "QUIT" COMMAND 7602.16
   5930
   5931					;+
   5932					; .QUITC -- THE "QUIT" COMMAND.
   5933					;
   5934					; THIS ROUTINE EXECUTES THE "QUIT" (EXIT) FUNCTION.
   5935					;
   5936					; INPUT ARGUMENTS:
   5937					;
   5938					;	NONE.
   5939					;
   5940					; OUTPUT ARGUMENTS:
   5941					;
   5942					;	NONE.
   5943					;
   5944					; ERROR CODES RETURNED:
   5945					;
   5946					;	NONE.
   5947					;-
   5948
   5949	011302				.QUITC::
   5950	011302					CALL	.CKEOC		; MUST HAVE E-O-C
	011302	004737 	000000G			 JSR	PC,.CKEOC
   5951	011306					CALLR	.EXITP		; EXIT THE PARSER
	011306	000137 	000000G			 JMP	.EXITP
   5952						;
RUNCM -- RUN/TAKE COMMAND MODUL	MACRO V05.04  Tuesday 17-May-88 14:36  Page 151
.QUITC -- THE "QUIT" COMMAND 7602.16

   5955
   5956					.TITLE	SAVEC -- SAVE/RESTORE COMMAND DISPATCH 8306.09
   5957
   5958						.IDENT	"007030"
   5959					;
   5960					;                             COPYRIGHT (C) 1983, 1984, 1985 BY
   5961					;                     DIGITAL EQUIPMENT CORPORATION, MAYNARD MASS.
   5962					;			ALL RIGHTS RESERVED.
   5963					;       THIS SOFTWARE IS FURNISHED UNDER A LICENSE AND MAY BE  USED  AND  COPIED
   5964					;       ONLY IN ACCORDANCE WITH THE TERMS OF SUCH LICENSE AND WITH THE INCLUSION
   5965					;       OF THE ABOVE COPYRIGHT NOTICE.  THIS SOFTWARE OR ANY OTHER COPIES THERE-
   5966					;       OF  MAY NOT BE PROVIDED OR OTHERWISE MADE AVAILABLE TO ANY OTHER PERSON.
   5967					;       NO TITLE TO OR OWNERSHIP OF THE SOFTWARE IS HEREBY TRANSFERRED.
   5968					;
   5969					;       THE INFORMATION CONTAINED IN THIS SOFTWARE IS SUBJECT TO CHANGE  WITHOUT
   5970					;       NOTICE  AND SHOULD NOT BE CONSTRUED AS A COMMITMENT BY DIGITAL EQUIPMENT
   5971					;       CORPORATION.
   5972					;
   5973					;       DIGITAL ASSUMES NO RESPONSIBILITY FOR THE  USE  OR  RELIABILITY  OF  ITS
   5974					;       SOFTWARE ON EQUIPMENT WHICH IS NOT SUPPILED BY DIGITAL.
   5975					;
   5976					;		MODULE: SAVEC COMMAND DISPATCH
   5977					;
   5978					;		VERSION: 07-03
   5979					;
   5980					;		AUTHOR: D. WEAVER
   5981					;
   5982					;		DATE: 8306.09
   5983					;
   5984					;	THIS MODULE CONTAINS:
   5985					;
   5986					;	1) RESTORE COMMAND DISPATCH
   5987					;	2) SAVE COMMAND DISPATCH
SAVEC -- SAVE/RESTORE COMMAND D	MACRO V05.04  Tuesday 17-May-88 14:36  Page 152
.RSTRC -- THE "RESTORE" COMMAND DISPATCH 8306.09

   5989					.SBTTL	.RSTRC -- THE "RESTORE" COMMAND DISPATCH 8306.09
   5990
   5991					;+
   5992					; .RSTRC -- THE "SAVE" COMMAND DISPATCH
   5993					;
   5994					; THIS ROUTINE IS THE TOP LEVEL OF THE RESTORE COMMAND. ".RSTRC" CHECKS
   5995					; ARGUMENTS FOR RESTORE AND DISPATCHES TO THE PROPER ROUTINE
   5996					;
   5997					; INPUT ARGUMENTS:
   5998					;
   5999					;	NONE.
   6000					;
   6001					; OUTPUT ARGUMENTS:
   6002					;
   6003					;	NONE.
   6004					;
   6005					; ERROR CODES RETURNED:
   6006					;
   6007					;	ILC -- ILLEGAL COMMAND.
   6008					;-
   6009
   6010	011312				.RSTRC::
   6011	011312	012700 	000000G			MOV	#.RSTTB,R0	; TABLE POINTER TO R0
   6012	011316					CALL	.CKOBJ		; GET OVER LEADING BLANKS
	011316	004737 	000000G			 JSR	PC,.CKOBJ
   6013	011322					CALL	.TSCAN		; SCAN THE TABLE
	011322	004737 	000000G			 JSR	PC,.TSCAN
   6014	011326					CALL	.CKEOC		; MUST HAVE E-O-C
	011326	004737 	000000G			 JSR	PC,.CKEOC
   6015	011332					CALLR	@2(R0)		; DO THE COMMAND
	011332	000170 	000002 			 JMP	@2(R0)
   6016						;
SAVEC -- SAVE/RESTORE COMMAND D	MACRO V05.04  Tuesday 17-May-88 14:36  Page 153
.RSACB-- THE "RESTORE AC-BLOCK" COMMAND 8306.09

   6018					.SBTTL	.RSACB-- THE "RESTORE AC-BLOCK" COMMAND 8306.09
   6019					;+
   6020					; .RSACB  SUBROUTINE TO RESTORE THE FM ADDRESS REGISTER (AC BLOCK)
   6021					;
   6022					; THIS ROUTINE WILL:
   6023					;
   6024					;	1. INSERT INSTR OBJECT INTO KL LOC 100
   6025					;	2. EXECUTE DATAO PAG,,100 TO SET AC BLOCK
   6026					;
   6027					; INPUT ARGUMENTS:
   6028					;
   6029					;	.ACBLK CONTAINING THE FM ADDRESS REGISTER
   6030					;
   6031					; OUTPUT ARGUMENTS:
   6032					;
   6033					;	NONE.
   6034					;
   6035					; ERROR CODES RETURNED:
   6036					;
   6037					;	CCC -- CAN'T CLEAR KL10 CLOCK
   6038					;	CCR -- CAN'T CLEAR KL10 RUN FLOP
   6039					;	CCS -- KL10 CLOCK CAN'T START
   6040					;	CES -- CLOCK ERROR STOP
   6041					;	CFH -- CAN'T FIND KL10 HALT LOOP
   6042					;	CSC -- CAN'T SYNC KL10 CLOCK
   6043					;	DMF -- DEPOSIT KL10 MEMORY FAILED
   6044					;	DSF -- DTE20 STATUS FAILURE
   6045					;	ECT -- EBOX CLOCK TIME OUT
   6046					;	ESD -- EBOX STOPPED - DEPOSIT
   6047					;	FRF -- FUNCTION READ FAILED
   6048					;	FWF -- FUNCTION WRITE FAILED
   6049					;	FXF -- FUNCTION EXECUTE FAILED
   6050					;	MAE -- MODE ARGUMENT ERROR
   6051					;	XTO -- EXECUTE TIMED OUT
   6052					;-
   6053
   6054	011336				.RSACB::
   6055	011336	113702 	000001G			MOVB	.ACBLK+1,R2	; BUFFER FOR DATA
   6056	011342	006302 				ASL	R2		; POSITION AC BLOCK NO.
   6057	011344	006302 				ASL	R2		; POSITION AC BLOCK NO.
   6058	011346	006302 				ASL	R2		; POSITION AC BLOCK NO.
   6059	011350	110237 	000737'			MOVB	R2,RACDAT+3	; PUT BLOCK NO. INTO INSTR
   6060	011354	012701 	000724'			MOV	#RACBLK,R1	; SET UP DEPOSIT DATA BLOCK
   6061	011360	012700 	000200 			MOV	#ED.PHY,R0	; PUT IN PHYSICAL SPACE
   6062	011364					CALL	.DPKLM		; DEPOSIT INSTR OBJECT IN MEMORY
	011364	004737 	000000G			 JSR	PC,.DPKLM
   6063	011370	103404 				BCS	10$		; ERROR
   6064	011372	012700 	000742'			MOV	#SETACB,R0	; INSTR PTR
   6065	011376					CALL	.EXCTF		; EXECUTE INSTR
	011376	004737 	000000G			 JSR	PC,.EXCTF
   6066	011402				10$:	RETURN			; EXIT
	011402	000207 				 RTS	PC
   6067
   6068	000724				.PSECT	DATA
   6069
   6070	000724	000730'			RACBLK:	.WORD	RACADR		; OBJECT ADDR PTR
   6071	000726	000734'				.WORD	RACDAT		; DEPOSIT DATA PTR
SAVEC -- SAVE/RESTORE COMMAND D	MACRO V05.04  Tuesday 17-May-88 14:36  Page 153-1
.RSACB-- THE "RESTORE AC-BLOCK" COMMAND 8306.09

   6072	000730	000100 			RACADR:	.WORD	100		; ADDR BITS 20-35
   6073	000732	000000 				.WORD	0		; ADDR BITS 14-19
   6074	000734	000000 			RACDAT:	.WORD	0		; DATA BITS 20-35
   6075	000736	000000 				.WORD	0		; DATA BITS 4-19
   6076	000740	000010 				.WORD	10		; DATA BITS 0-3
   6077
   6078	000742				SETACB:	IOKL$	DATAO	PAG,,100	; SET AC BLOCK INSTR
	000742	   100 	   000 			 .BYTE	$$A,$$B
	000744	   200 	   011 			 .BYTE	$$C,$$D
	000746	   016 	   000 			 .BYTE	$$E,$$F
   6079
   6080	011404				.PSECT
SAVEC -- SAVE/RESTORE COMMAND D	MACRO V05.04  Tuesday 17-May-88 14:36  Page 154
.SAVEC -- THE "SAVE" COMMAND DISPATCH 8306.09

   6082					.SBTTL	.SAVEC -- THE "SAVE" COMMAND DISPATCH 8306.09
   6083
   6084					;+
   6085					; .SAVEC -- THE "SAVE" COMMAND DISPATCH
   6086					;
   6087					; THIS ROUTINE IS THE TOP LEVEL OF THE SAVE COMMAND. ".SAVEC" CHECKS
   6088					; ARGUMENTS FOR SAVE AND DISPATCHES TO THE PROPER ROUTINE
   6089					;
   6090					; INPUT ARGUMENTS:
   6091					;
   6092					;	NONE.
   6093					;
   6094					; OUTPUT ARGUMENTS:
   6095					;
   6096					;	NONE.
   6097					;
   6098					; ERROR CODES RETURNED:
   6099					;
   6100					;	ILC -- ILLEGAL COMMAND.
   6101					;-
   6102
   6103	011404				.SAVEC::
   6104	011404	012700 	000000G			MOV	#.SAVTB,R0	; TABLE POINTER TO R0
   6105	011410					CALL	.CKOBJ		; GET OVER LEADING BLANKS
	011410	004737 	000000G			 JSR	PC,.CKOBJ
   6106	011414					CALL	.TSCAN		; SCAN THE TABLE
	011414	004737 	000000G			 JSR	PC,.TSCAN
   6107	011420					CALL	.CKEOC		; MUST HAVE E-O-C
	011420	004737 	000000G			 JSR	PC,.CKEOC
   6108	011424					CALLR	@2(R0)		; DO THE COMMAND
	011424	000170 	000002 			 JMP	@2(R0)
   6109						;
SAVEC -- SAVE/RESTORE COMMAND D	MACRO V05.04  Tuesday 17-May-88 14:36  Page 155
.SVACB-- THE "SAVE AC-BLOCK" COMMAND 8306.09

   6111					.SBTTL	.SVACB-- THE "SAVE AC-BLOCK" COMMAND 8306.09
   6112					;+
   6113					; .SVACB  SUBROUTINE TO SAVE THE FM ADDRESS REGISTER (AC BLOCK)
   6114					;
   6115					; INPUT ARGUMENTS:
   6116					;
   6117					;	NONE.
   6118					;
   6119					; OUTPUT ARGUMENTS:
   6120					;
   6121					;	.ACBLK WILL CONTAIN THE FM ADDRESS REGISTER
   6122					;
   6123					; ERROR CODES RETURNED:
   6124					;
   6125					;	FRF -- FUNCTION READ FAILED.
   6126					;-
   6127
   6128	011430				.SVACB::
   6129	011430	005001 				CLR	R1
   6130	011432	012700 	000222 			MOV	#FR.111,R0
   6131	011436					CALL	.FREAD
	011436	004737 	000000G			 JSR	PC,.FREAD
   6132	011442	012701 	000033 			MOV	#^D27,R1
   6133	011446					CALL	.TPSHI
	011446	004737 	000000G			 JSR	PC,.TPSHI
   6134	011452	042710 	177770 			BIC	#177770,(R0)
   6135	011456	012701 	000000G			MOV	#.ACBLK,R1		; BUFFER FOR DATA
   6136	011462	011011 				MOV	(R0),(R1)
   6137	011464					RETURN
	011464	000207 				 RTS	PC
   6138					;	CALLR	.RDFMA			; RESTORE AC BLOCK AND RETURN
SAVEC -- SAVE/RESTORE COMMAND D	MACRO V05.04  Tuesday 17-May-88 14:36  Page 156
.SVPC -- THE "SAVE PC" COMMAND 8306.09

   6140					.SBTTL	.SVPC -- THE "SAVE PC" COMMAND 8306.09
   6141					;+
   6142					; .SVPC   SUBROUTINE TO SAVE THE KL PC REGISTER
   6143					;
   6144					; INPUT ARGUMENTS:
   6145					;
   6146					;	NONE.
   6147					;
   6148					; OUTPUT ARGUMENTS:
   6149					;
   6150					;	.ERRPC WILL CONTAIN THE 23 BIT PC FROM THE KL
   6151					;	.ERRCD WILL CONTAIN <FLAGS,,ERRCOD> FROM THE KL'S PERSPECTIVE
   6152					;	NOTE THAT ERRCOD IS SUPPLIED BY TKTN
   6153					;
   6154					; ERROR CODES RETURNED:
   6155					;
   6156					;	FRF -- FUNCTION READ FAILED.
   6157					;-
   6158
   6159	011466				.SVPC::
   6160	011466					CALL	.SAVFL			; GET THE FLAGS IN R0
	011466	004737 	011542'			 JSR	PC,.SAVFL
   6161	011472					PUSH	.ERRCD			; SAVE THE ERROR CODE
	011472	013746 	000000G			 MOV	.ERRCD,-(SP)
   6162	011476	005037 	000000G			CLR	.ERRCD			; AND CLEAR IT (TEMPORARILY)
   6163	011502	010037 	000002G			MOV	R0,.ERRCD+2		; MOVE THEM INTO DEX WORD FOR FLAGS
   6164	011506	005037 	000004G			CLR	.ERRCD+4		; AND CLEAR ANY LEFT OVER
   6165	011512	012700 	000000G			MOV	#.ERRCD,R0		; ADDRESS OF DATA
   6166	011516	012701 	000007 			MOV	#^D7,R1			; SHIFT COUNT
   6167	011522					CALL	.TPSHI			; SHIFT BITS INTO POSITION
	011522	004737 	000000G			 JSR	PC,.TPSHI
   6168	011526					POP	.ERRCD			; RESTORE ERROR CODE
	011526	012637 	000000G			 MOV	(SP)+,.ERRCD
   6169	011532	012701 	000000G			MOV	#.ERRPC,R1		; WHERE TO STORE THE PC
   6170	011536					CALLR	.SAVPC			; GET THE PC
	011536	000137 	011666'			 JMP	.SAVPC
SAVEC -- SAVE/RESTORE COMMAND D	MACRO V05.04  Tuesday 17-May-88 14:36  Page 157
.SAVFL -- SUBROUTINE TO READ THE KL PC FLAGS

   6172					.SBTTL	.SAVFL -- SUBROUTINE TO READ THE KL PC FLAGS
   6173
   6174					;+
   6175					; .SAVFL -- SUBROUTINE TO READ THE KL PC FLAGS.
   6176					;
   6177					; THIS SUBROUTINE READS AND RETURNS THE STATE OF THE KL PC FLAGS IN R0.
   6178					;
   6179					; INPUT ARGUMENTS:
   6180					;
   6181					;	NONE.
   6182					;
   6183					; OUTPUT ARGUMENTS:
   6184					;
   6185					;	R0 CONTAINS THE KL PC FLAGS
   6186					;
   6187					; THE FOLLOWING IS A LIST OF THE KL FLAGS RETURNED IN R0:
   6188					;
   6189					;	BIT #	KL PC FLAG BIT AND MEANING	KL BIT
   6190					;	-----	----------------------------	--------
   6191					;
   6192					;	12	PC.OVF -- OVERFLOW FLAG		-- 00
   6193					;	11	PC.CY0 -- CARRY 0 FLAG		-- 01
   6194					;	10	PC.CY1 -- CARRY 1 FLAG		-- 02
   6195					;	09	PC.FOV -- FLOATING OVERFLOW	-- 03
   6196					;	08	PC.BIS -- BYTE INCR SUPPRESSION	-- 04
   6197					;	07	PC.USR -- USER MODE		-- 05
   6198					;	06	PC.UIO -- USER IOT MODE		-- 06
   6199					;	05	PC.LIP -- LAST INS PUBLIC	-- 07
   6200					;	04	PC.AFI -- ADDR FAILURE INHIBIT	-- 08
   6201					;	03	PC.AT1 -- APR TRAP 1 FLAG	-- 09
   6202					;	02	PC.AT0 -- APR TRAP 0 FLAG	-- 10
   6203					;	01	PC.FUF -- FLOATING UNDERFLOW	-- 11
   6204					;	00	PC.NDV -- NO DIVIDE FLAG	-- 12
   6205					;
   6206					; ERROR CODES RETURNED:
   6207					;
   6208					;	FRF -- FUNCTION READ FAILED.
   6209					;-
SAVEC -- SAVE/RESTORE COMMAND D	MACRO V05.04  Tuesday 17-May-88 14:36  Page 158
.SAVFL -- SUBROUTINE TO READ THE KL PC FLAGS

   6211	011542				.SAVFL:
   6212	011542					PUSH	<R1,R2>		; SAVE R1 AND R2 ON THE STACK
	011542	010146 				 MOV	R1,-(SP)
	011544	010246 				 MOV	R2,-(SP)
   6213	011546	005001 				CLR	R1		; ..CLEAR R1
   6214	011550	005002 				CLR	R2		; ..AND R2
   6215	011552	012700 	000202 			MOV	#FR.101,R0	; ..FR CODE FOR LOW FLAGS
   6216	011556					CALL	.FREAD		; ..READ THEM
	011556	004737 	000000G			 JSR	PC,.FREAD
   6217	011562	012701 	177764 			MOV	#-^D12,R1	; ..SHIFT COUNT TO R1
   6218	011566					CALL	.TPSHI		; ..SHIFT OUR WORD
	011566	004737 	000000G			 JSR	PC,.TPSHI
   6219	011572	042710 	177700 			BIC	#177700,(R0)	; ..MASK OUT FLAG BITS
   6220	011576	051002 				BIS	(R0),R2		; ..PUT THE LOW FLAGS IN R2
   6221	011600	005001 				CLR	R1		; ..AGAIN
   6222	011602	012700 	000200 			MOV	#FR.100,R0	; ..FR CODE FOR MOST OF THE FLAGS
   6223	011606					CALL	.FREAD		; ..READ THEM
	011606	004737 	000000G			 JSR	PC,.FREAD
   6224	011612	012701 	177772 			MOV	#-^D6,R1	; ..SHIFT COUNT TO R1
   6225	011616					CALL	.TPSHI		; ..SHIFT THE DATA
	011616	004737 	000000G			 JSR	PC,.TPSHI
   6226	011622	042710 	170077 			BIC	#170077,(R0)	; ..JUST THE BITS WE WANT
   6227	011626	051002 				BIS	(R0),R2		; ..SAVE THE HIGH FLAGS IN R2
   6228	011630	005001 				CLR	R1		; ..CLEAR R1 AGAIN
   6229	011632	012700 	000264 			MOV	#FR.132,R0	; ..FR CODE FOR LAST FLAG BIT
   6230	011636					CALL	.FREAD		; ..READ IT
	011636	004737 	000000G			 JSR	PC,.FREAD
   6231	011642	032760 	000001 	000004 		BIT	#BIT00,4(R0)	; ..IS IT ON?
   6232	011650	001402 				BEQ	10$		; ..NO -- JUST EXIT
   6233	011652	052702 	010000 			BIS	#PC.OVF,R2	; ..YES -- SET IT IN OUR WORD
   6234	011656				10$:
   6235	011656	010200 				MOV	R2,R0		; ..PUT A COPY IN R0
   6236	011660					POP	<R2,R1>		; ..RESTORE REGISTERS
	011660	012602 				 MOV	(SP)+,R2
	011662	012601 				 MOV	(SP)+,R1
   6237	011664					RETURN			; TO CALLER
	011664	000207 				 RTS	PC
SAVEC -- SAVE/RESTORE COMMAND D	MACRO V05.04  Tuesday 17-May-88 14:36  Page 159
.SAVPC -- PC READ SUBROUTINE 8306.17

   6239					.SBTTL	.SAVPC -- PC READ SUBROUTINE 8306.17
   6240
   6241					;+
   6242					; .SAVPC -- SUBROUTINE TO READ THE KL PROGRAM COUNTER REGISTER
   6243					;
   6244					; THESE SUBROUTINES READ AND ASSEMBLE THE VMA PC BOARD REGISTER
   6245					; INTO A THREE WORD BLOCK POINTED TO BY R1 IN THE CALL.
   6246					;
   6247					; INPUT ARGUMENTS:
   6248					;
   6249					;	R1 POINTS TO A TWO WORD BUFFER FOR THE SPECIFIED REGISTER
   6250					;
   6251					; OUTPUT ARGUMENTS:
   6252					;
   6253					;	R1 POINTS TO A TWO WORD BUFFER FOR THE SPECIFIED REGISTER
   6254					;
   6255					; ERROR CODES RETURNED:
   6256					;
   6257					;	FRF -- FUNCTION READ FAILED.
   6258					;-
   6259
   6260						.ENABL	LSB
   6261
   6262	011666				.SAVPC:
   6263	011666	012700 	000750'			MOV	#SVPCTB,R0	; POINTER TO PC TABLE
   6264	011672					CALL	R5,.REGSV	; SAVE R5 - R1 ON THE STACK
	011672	004537 	000000G			 JSR	R5,.REGSV
   6265	011676	010005 				MOV	R0,R5		; TABLE POINTER TO R5
   6266	011700	012704 	000004 			MOV	#^D4,R4		; ITERATION COUNT TO R4
   6267	011704	010103 				MOV	R1,R3		; USER BUFFER ADDRESS TO R3
   6268	011706	012502 				MOV	(R5)+,R2	; FUNCTION READ BASE TO R2
   6269	011710					PUSH	(R5)+		; MASK WORD TO TOP OF THE STACK
	011710	012546 				 MOV	(R5)+,-(SP)
   6270	011712	011505 				MOV	(R5),R5		; .SHIFT BASE TO R5
   6271	011714	010100 				MOV	R1,R0		; .CLEAR CALLER'S AREA
   6272	011716					CALL	.TPCLR		; .SO
	011716	004737 	000000G			 JSR	PC,.TPCLR
   6273	011722				20$:
   6274	011722	010200 				MOV	R2,R0		; .SET THE FUNCTION READ NUMBER
   6275	011724	006300 				ASL	R0		; .TIMES 2
   6276	011726	005001 				CLR	R1		; .CLEAR R1
   6277	011730					CALL	.FREAD		; .READ IT
	011730	004737 	000000G			 JSR	PC,.FREAD
   6278	011734	041620 				BIC	(SP),(R0)+	; .SP POINTS TO BIT MASK
   6279	011736	041610 				BIC	(SP),(R0)	; .R0 POINTS TO READ BLOCK
   6280	011740	005740 				TST	-(R0)		; .NOW BACK THE POINTER UP
   6281	011742	010501 				MOV	R5,R1		; .GET THE SHIFT COUNT INTO R1
   6282	011744					CALL	.TPSHI		; .AND SHIFT IT
	011744	004737 	000000G			 JSR	PC,.TPSHI
   6283	011750	052023 				BIS	(R0)+,(R3)+	; .SET THE BITS IN THE USER BUFFER
   6284	011752	051013 				BIS	(R0),(R3)	; .SO
   6285	011754	005743 				TST	-(R3)		; .BACK CALLER'S POINTER UP
   6290	011756	122225 				CMPB	(R2)+,(R5)+	; .INCREMENT READ NUMBER AND SHIFT COUNT
   6292	011760	077420 				SOB	R4,20$		; .DO THIS FOUR TIMES
   6293	011762	042763 	177600 	000002 		BIC	#177600,2(R3)	; .GET RID OF BITS HIGHER THAN 13
   6294	011770	005726 				TST	(SP)+		; CLEAR THE STACK
   6295	011772					RETURN			; RETURN TO CALLER
SAVEC -- SAVE/RESTORE COMMAND D	MACRO V05.04  Tuesday 17-May-88 14:36  Page 159-1
.SAVPC -- PC READ SUBROUTINE 8306.17

	011772	000207 				 RTS	PC
   6296
   6297						.DSABL	LSB
   6298
   6299					; TABLE FOR VMA PC BOARD READS
   6300
   6301	000750				.PSECT	DATA
   6302	000750				SVPCTB:
   6303	000750	000150 				.WORD	FR.150/2	; BASE READ FOR PC REGISTER
   6304	000752	135673 				.WORD	135673		; BIT MASK   "  "     "
   6305	000754	177776 				.WORD	-^D2		; SHIFT CNT  "  "     "
   6306	011774				.PSECT
SAVEC -- SAVE/RESTORE COMMAND D	MACRO V05.04  Tuesday 17-May-88 14:36  Page 160
.SAVPC -- PC READ SUBROUTINE 8306.17

   6308
   6309
   6310					.TITLE	SCACB -- SET AC-BLOCK COMMAND MODULE
   6311
   6312						.IDENT	"006110"
   6313
   6314					;                             COPYRIGHT (C) 1979, 1984, 1985 BY
   6315					;                     DIGITAL EQUIPMENT CORPORATION, MAYNARD MASS.
   6316					;			ALL RIGHTS RESERVED.
   6317					;       THIS SOFTWARE IS FURNISHED UNDER A LICENSE AND MAY BE  USED  AND  COPIED
   6318					;       ONLY IN ACCORDANCE WITH THE TERMS OF SUCH LICENSE AND WITH THE INCLUSION
   6319					;       OF THE ABOVE COPYRIGHT NOTICE.  THIS SOFTWARE OR ANY OTHER COPIES THERE-
   6320					;       OF  MAY NOT BE PROVIDED OR OTHERWISE MADE AVAILABLE TO ANY OTHER PERSON.
   6321					;       NO TITLE TO OR OWNERSHIP OF THE SOFTWARE IS HEREBY TRANSFERRED.
   6322					;
   6323					;       THE INFORMATION CONTAINED IN THIS SOFTWARE IS SUBJECT TO CHANGE  WITHOUT
   6324					;       NOTICE  AND SHOULD NOT BE CONSTRUED AS A COMMITMENT BY DIGITAL EQUIPMENT
   6325					;       CORPORATION.
   6326					;
   6327					;       DIGITAL ASSUMES NO RESPONSIBILITY FOR THE  USE  OR  RELIABILITY  OF  ITS
   6328					;       SOFTWARE ON EQUIPMENT WHICH IS NOT SUPPILED BY DIGITAL.
   6329					;
   6330					;		MODULE: SET AC-BLOCK
   6331					;
   6332					;		VERSION: 06-11
   6333					;
   6334					;		AUTHOR: K.LEFEBVRE
   6335					;
   6336					;		DATE: 12-SEP-79
   6337					;
   6338					;	THIS MODULE CONTAINS:
   6339					;
   6340					;		1) SET AC-BLOCK N COMMAND
   6341					;		2) SWEEP N COMMAND
   6342					;
   6343					;	THESE COMMANDS WERE ADDED FOR TCO 5.1002
   6344
   6345						.MCALL	SETF$S
SCACB -- SET AC-BLOCK COMMAND M	MACRO V05.04  Tuesday 17-May-88 14:36  Page 161
.SCACB -- SET AC-BLOCK COMMAND

   6347					.SBTTL	.SCACB -- SET AC-BLOCK COMMAND
   6348
   6349					;+
   6350					; .SCACB -- SET AC-BLOCK COMMAND
   6351					;
   6352					; THIS ROUTINE WILL CAUSE THE SPECIFIED BLOCK TO BE THE CURRENT
   6353					; AC BLOCK REFERENCED BY THE KL.
   6354					;
   6355					; INPUT ARGUMENTS:
   6356					;
   6357					;	NONE
   6358					;
   6359					; OUTPUT ARGUMENTS:
   6360					;
   6361					;	NONE
   6362					;
   6363					; ERROR CODES RETURNED:
   6364					;
   6365					;	ILI -- ILLEGAL UNSTRUCTION
   6366					;	MRA -- MISSING REQUIRED ARGUMENT
   6367					;	NOR -- INPUT ARGUMENT NUMBER OUT OF RANGE
   6368					;-
   6369
   6370	011774				.SCACB::
   6371	011774	005737 	000000G			TST	.NOTSW		; IS THIS A CLEAR?
   6372	012000	001014 				BNE	SCAILI		; YES -- NOT ALLOWED
   6373	012002					CALL	.CKARG		; NO -- CHECK FOR AN ARGUMENT
	012002	004737 	000000G			 JSR	PC,.CKARG
   6374	012006					CALL	.GTELN		; GET THE ARGUMENT
	012006	004737 	000000G			 JSR	PC,.GTELN
   6375	012012	020027 	000007 			CMP	R0,#7		; IS THE ARGUMENT IN RANGE?
   6376	012016	101010 				BHI	SCANOR		; NO -- ERROR
   6377	012020					CALL	.CKRUN		; MAKE SURE KL NOT RUNNING
	012020	004737 	000000G			 JSR	PC,.CKRUN
   6378	012024	010002 				MOV	R0,R2		; SET BLOCK NO.
   6379	012026					CALLR	.SACBK		; YES -- SET AC BLOCK
	012026	000137 	012046'			 JMP	.SACBK
   6380
   6381	012032				SCAILI:
   6382	012032					ERROR$	ILI		; ERROR -- ILLEGAL INSTRUCTION
	012032	012746 	035051 			 MOV	#^RILI,-(SP)
	012036	104400 				 TRAP	TC.ERR
   6383	012040				SCANOR:
   6384	012040					ERROR$	NOR		; ERROR -- INPUT NUMBER OUT OF RANGE
	012040	012746 	054752 			 MOV	#^RNOR,-(SP)
	012044	104400 				 TRAP	TC.ERR
SCACB -- SET AC-BLOCK COMMAND M	MACRO V05.04  Tuesday 17-May-88 14:36  Page 162
.SACBK -- SET AC BLOCK ROUTINE

   6386					.SBTTL	.SACBK -- SET AC BLOCK ROUTINE
   6387
   6388					;+
   6389					; .SACBK -- SUBROUTINE TO SET KL AC BLOCK
   6390					;
   6391					; THIS ROUTINE WILL:
   6392					;	1. INSERT INSTR OBJECT INTO KL LOC 100
   6393					;	2. EXECUTE DATAO PAG,,100 TO SET AC BLOCK
   6394					;
   6395					; INPUT ARGUMENTS:
   6396					;
   6397					;	R2=AC BLOCK NO. TO SET
   6398					;
   6399					; OUTPUT ARGUMENTS:
   6400					;
   6401					;	NONE
   6402					;
   6403					; ERROR CODES RETURNED:
   6404					;
   6405					;	CCC -- CAN'T CLEAR KL10 CLOCK
   6406					;	CCR -- CAN'T CLEAR KL10 RUN FLOP
   6407					;	CCS -- KL10 CLOCK CAN'T START
   6408					;	CES -- CLOCK ERROR STOP
   6409					;	CFH -- CAN'T FIND KL10 HALT LOOP
   6410					;	CSC -- CAN'T SYNC KL10 CLOCK
   6411					;	DMF -- DEPOSIT KL10 MEMORY FAILED
   6412					;	DSF -- DTE20 STATUS FAILURE
   6413					;	ECT -- EBOX CLOCK TIME OUT
   6414					;	ESD -- EBOX STOPPED - DEPOSIT
   6415					;	FRF -- FUNCTION READ FAILED
   6416					;	FWF -- FUNCTION WRITE FAILED
   6417					;	FXF -- FUNCTION EXECUTE FAILED
   6418					;	MAE -- MODE ARGUMENT ERROR
   6419					;	XTO -- EXECUTE TIMED OUT
   6420					;-
   6421
   6422	012046				.SACBK::
   6423	012046	005000 				CLR	R0		; CALL .WHACB ON EXIT FLAG
   6424	012050				.SACB1::			; ALTERNATE ENTRY POINT
   6425	012050					PUSH	<R0,R2>		; SAVE NEW AC BLOCK NO.
	012050	010046 				 MOV	R0,-(SP)
	012052	010246 				 MOV	R2,-(SP)
   6426	012054	006302 				ASL	R2		; POSITION AC BLOCK NO.
   6427	012056	006302 				ASL	R2		; POSITION AC BLOCK NO.
   6428	012060	006302 				ASL	R2		; POSITION AC BLOCK NO.
   6429	012062	110237 	000771'			MOVB	R2,ACDAT+3	; PUT BLOCK NO. INTO INSTR
   6430	012066	012701 	000756'			MOV	#DEPBLK,R1	; SET UP DEPOSIT DATA BLOCK
   6431	012072	012700 	000200 			MOV	#ED.PHY,R0	; PUT IN PHYSICAL SPACE
   6432					;	MOV	#ED.EXV,R0	; PUT IN EXEC VIRTUAL SPACE
   6433	012076					CALL	.DPKLM		; DEPOSIT INSTR OBJECT IN MEMORY
	012076	004737 	000000G			 JSR	PC,.DPKLM
   6434	012102	103404 				BCS	10$		; ERROR
   6435	012104	012700 	000774'			MOV	#SETACI,R0	; INSTR PTR
   6436	012110					CALL	.EXCTF		; EXECUTE INSTR
	012110	004737 	000000G			 JSR	PC,.EXCTF
   6437	012114				10$:	POP	<R2,R0>		; RESTORE R2
	012114	012602 				 MOV	(SP)+,R2
SCACB -- SET AC-BLOCK COMMAND M	MACRO V05.04  Tuesday 17-May-88 14:36  Page 162-1
.SACBK -- SET AC BLOCK ROUTINE

	012116	012600 				 MOV	(SP)+,R0
   6438	012120	005700 				TST	R0		; PRINT AC BLOCK?
   6439	012122	001002 				BNE	20$		; NO -- EXIT
   6440	012124					CALL	.WHACB		; YES -- OUTPUT CURRENT AC BLOCK NO.
	012124	004737 	012132'			 JSR	PC,.WHACB
   6441	012130				20$:	RETURN			; EXIT
	012130	000207 				 RTS	PC
   6442
   6443	000756				.PSECT	DATA
   6444
   6445	000756	000762'			DEPBLK:	.WORD	TEMADR		; OBJECT ADDR PTR
   6446	000760	000766'				.WORD	ACDAT		; DEPOSIT DATA PTR
   6447	000762	000100 			TEMADR:	.WORD	100		; ADDR BITS 20-35
   6448	000764	000000 				.WORD	0		; ADDR BITS 14-19
   6449	000766	000000 			ACDAT:	.WORD	0		; DATA BITS 20-35
   6450	000770	000000 				.WORD	0		; DATA BITS 4-19
   6451	000772	000010 				.WORD	10		; DATA BITS 0-3
   6452
   6453	000774				SETACI:	IOKL$	DATAO	PAG,,100	; SET AC INSTR
	000774	   100 	   000 			 .BYTE	$$A,$$B
	000776	   200 	   011 			 .BYTE	$$C,$$D
	001000	   016 	   000 			 .BYTE	$$E,$$F
   6454
   6455	012132				.PSECT
SCACB -- SET AC-BLOCK COMMAND M	MACRO V05.04  Tuesday 17-May-88 14:36  Page 163
.WHACB -- WHAT AC BLOCK COMMAND

   6457					.SBTTL	.WHACB -- WHAT AC BLOCK COMMAND
   6458
   6459	012132				.WHACB::
   6460	012132					PUSH	R1		; SAVE R1
	012132	010146 				 MOV	R1,-(SP)
   6461	012134	012700 	002402'			MOV	#WACMSG,R0	; WHAT AC BLOCK MESSAGE
   6462	012140					CALL	.TYMSG		; PRINT IT
	012140	004737 	000000G			 JSR	PC,.TYMSG
   6463	012144	005001 				CLR	R1		; NO FM ADDR BUFFER
   6464	012146					CALL	.RDFMA		; GET CURRENT AC BUFFER
	012146	004737 	000000G			 JSR	PC,.RDFMA
   6465	012152	000300 				SWAB	R0		; BLOCK NO. IN LOW BYTE NOW
   6466	012154	042700 	177600 			BIC	#177600,R0	; GET RID OF EXCESS BITS
   6470	012160	005046 				CLR	-(SP)		; NO. BUFFER ON STACK
   6471	012162	005046 				CLR	-(SP)		; BUFFER
   6472	012164	010046 				MOV	R0,-(SP)	; BUFFER
   6473	012166	010600 				MOV	SP,R0		; BUFFER PTR
   6474	012170	005037 	000000G			CLR	.LDZFL		; NO LEADING ZEROS
   6475	012174					CALL	.TYKLN		; OUTPUT VALUE
	012174	004737 	000000G			 JSR	PC,.TYKLN
   6476	012200	062706 	000006 			ADD	#6,SP		; POP OFF BUFFER
   6477	012204					CALL	.TCRLF		; TYPE CR-LF
	012204	004737 	000000G			 JSR	PC,.TCRLF
   6478	012210					POP	R1		; RESTORE R1
	012210	012601 				 MOV	(SP)+,R1
   6479	012212					RETURN			; DONE
	012212	000207 				 RTS	PC
   6480
   6481	002402				.PSECT	MESSAG
   6482
   6483	002402	   040 	   101 	   103 	WACMSG:	.ASCIZ	% AC-BLOCK: %
	002405	   055 	   102 	   114
	002410	   117 	   103 	   113
	002413	   072 	   040 	   000
   6484
   6485	012214				.PSECT
SCACB -- SET AC-BLOCK COMMAND M	MACRO V05.04  Tuesday 17-May-88 14:36  Page 164
.SWPC -- SWEEP AC BLOCK COMMAND

   6487					.SBTTL	.SWPC -- SWEEP AC BLOCK COMMAND
   6488
   6489					;+
   6490					; .SWPC -- SWEEP AC BLOCK COMMAND ROUTINE
   6491					;
   6492					; THIS ROUTINE
   6493					;
   6494					; INPUT ARGUMENTS:
   6495					;
   6496					;	NONE
   6497					;
   6498					; OUTPUT ARGUMENTS:
   6499					;
   6500					;	NONE
   6501					;
   6502					; ERROR CODES RETURNED:
   6503					;
   6504					;	XXX
   6505					;-
   6506
   6507	012214				.SWPC::
   6508	012214	005037 	000000G			CLR	.PASS		; [4.1.1049]CLEAR PASS FLAG
   6509	012220	005037 	001002'			CLR	FMERR		; [4.1.1049]CLEAR ERROR COUNT
   6510	012224					PUSH	.NOERR		; SAVE ERROR,HALT STATUS
	012224	013746 	000000G			 MOV	.NOERR,-(SP)
   6511	012230	012737 	000401 	000000G		MOV	#401,.NOERR	; IGNORE KL ERRORS
   6512	012236	012737 	000001 	000000G		MOV	#1,.SWPIP	; SET SWEEP IN PROGRESS
   6513	012244	005001 				CLR	R1		; NO DATA BUFFER
   6514	012246					CALL	.RDFMA		; READ CURRENT BLOCK NO.
	012246	004737 	000000G			 JSR	PC,.RDFMA
   6515	012252	000300 				SWAB	R0		; GET BLOCK IN LOW BYTE
   6516	012254	042700 	177600 			BIC	#177600,R0	; CLEAR EXTRA BITS
   6517	012260	010037 	001014'			MOV	R0,SAVBLK	; SAVE BLOCK NO.
   6518	012264					CALL	.RDIPE		; READ PARITY FLAGS
	012264	004737 	000000G			 JSR	PC,.RDIPE
   6519	012270					PUSH	R0		; [4.1.1049]SAVE PARITY FLAG
	012270	010046 				 MOV	R0,-(SP)
   6520	012272	032700 	000010 			BIT	#10,R0		; FM ERROR?
   6521	012276	001416 				BEQ	10$		; NO -- GO ON
   6522	012300	012700 	002416'			MOV	#FMHED,R0	; YES -- FM ERROR MESSAGE HEADER
   6523	012304					CALL	.TYMSG		; TYPE IT
	012304	004737 	000000G			 JSR	PC,.TYMSG
   6524	012310	012700 	001004'			MOV	#FMBUF,R0	; DATA BUFFER
   6525	012314	013702 	001014'			MOV	SAVBLK,R2	; CURRENT BLOCK NO.
   6526	012320					CALL	.RDFMO		; READ CURRENT FM DATA
	012320	004737 	000000G			 JSR	PC,.RDFMO
   6527	012324					CALL	.TYAC1		; TYPE FM DATA
	012324	004737 	000000G			 JSR	PC,.TYAC1
   6528	012330					CALL	.RSSWP		; RESET KL
	012330	004737 	012652'			 JSR	PC,.RSSWP
   6529	012334				10$:	POP	R0		; [4.1.1049]RESTORE PARITY FLAG
	012334	012600 				 MOV	(SP)+,R0
   6530	012336	132764 	000010 	000000G		BITB	#CH.EOC,.CHTAB(R4)	; IS THERE AN ARGUMENT?
   6531	012344	001011 				BNE	15$		; NO -- SWEEP ALL BLOCKS
   6532	012346					CALL	.GTELN		; YES -- GET IT
	012346	004737 	000000G			 JSR	PC,.GTELN
   6533	012352	020027 	000007 			CMP	R0,#7		; IS ARGUMENT IN RANGE?
SCACB -- SET AC-BLOCK COMMAND M	MACRO V05.04  Tuesday 17-May-88 14:36  Page 164-1
.SWPC -- SWEEP AC BLOCK COMMAND

   6534	012356	101230 				BHI	SCANOR		; NO -- ERROR
   6535	012360	010002 				MOV	R0,R2		; YES -- SET ARGUMENT
   6536	012362					CALL	.SWPAC		; SWEEP BLOCK
	012362	004737 	012514'			 JSR	PC,.SWPAC
   6537	012366	000437 				BR	30$		; DONE
   6538	012370	032700 	000010 		15$:	BIT	#10,R0		; [4.1.1049]FM ERROR?
   6539	012374	001442 				BEQ	40$		; [4.1.1049]NO -- DONE
   6540	012376	012702 	000007 		17$:	MOV	#7,R2		; YES -- START WITH LAST BLOCK
   6541	012402				20$:	CALL	.SWPAC		; SWEEP IT
	012402	004737 	012514'			 JSR	PC,.SWPAC
   6542	012406	005302 				DEC	R2		; NEXT AC BLOCK
   6543	012410	002374 				BGE	20$		; DONE?
   6544	012412	005737 	001002'			TST	FMERR		; [4.1.1049]ANY ERRORS?
   6545	012416	001423 				BEQ	30$		; [4.1.1049]NO -- GO ON
   6546	012420	005737 	000000G			TST	.PASS		; [4.1.1049]YES -- PASS 2?
   6547	012424	001005 				BNE	25$		; [4.1.1049]YES -- ABORT RELOAD
   6548	012426	005237 	000000G			INC	.PASS		; [4.1.1049]NO -- SET SECOND PASS
   6549	012432	005037 	001002'			CLR	FMERR		; [4.1.1049]CLEAR ERROR COUNT
   6550	012436	000757 				BR	17$		; [4.1.1049]RESWEEP
   6551	012440	012700 	002462'		25$:	MOV	#FMABO,R0	; [4.1.1049]ABORT MESSAGE
   6552	012444					CALL	.TYLIN		; [4.1.1049]TYPE IT
	012444	004737 	000000G			 JSR	PC,.TYLIN
   6553	012450	032737 	000000G	000000G		BIT	#KL.REQ,.KLIWD	; [4.1.1049]KLI REQUESTED
   6554	012456	001403 				BEQ	30$		; [4.1.1049]NO -- DONE
   6555	012460	052737 	000000G	000000G		BIS	#KL.ABO,.KLIWD	; [4.1.1049]YES -- ABORT RELOAD
   6556	012466	013702 	001014'		30$:	MOV	SAVBLK,R2	; YES -- RESTORE ORIGINAL AC BLOCK
   6557	012472	012700 	000001 			MOV	#1,R0		; SET NO WHAT AC FLAG
   6558	012476					CALL	.SACB1		; SET AC BLOCK
	012476	004737 	012050'			 JSR	PC,.SACB1
   6559	012502	005037 	000000G		40$:	CLR	.SWPIP		; CLEAR SWEEP IN PROGRESS
   6560	012506					POP	.NOERR		; RESTORE ERROR,HALT STATUS
	012506	012637 	000000G			 MOV	(SP)+,.NOERR
   6561	012512					RETURN			; EXIT
	012512	000207 				 RTS	PC
   6562
   6563	001002				.PSECT	DATA
   6564
   6565	001002	000000 			FMERR:	.WORD	0		; [4.1.1049]ERROR COUNT
   6566	001004	000000 	000000 	000000 	FMBUF:	.WORD	0,0,0,0
	001012	000000
   6567
   6568	001014	000000 			SAVBLK:	.WORD	0		; ORIGINAL AC BLOCK NO.
   6569
   6570	002416				.PSECT	MESSAG
   6571
   6572	002416	   040 	   106 	   115 	FMHED:	.ASCIZ	% FM PARITY ERROR-(BLOCK:ADDR/DATA) %
	002421	   040 	   120 	   101
	002424	   122 	   111 	   124
	002427	   131 	   040 	   105
	002432	   122 	   122 	   117
	002435	   122 	   055 	   050
	002440	   102 	   114 	   117
	002443	   103 	   113 	   072
	002446	   101 	   104 	   104
	002451	   122 	   057 	   104
	002454	   101 	   124 	   101
	002457	   051 	   040 	   000
SCACB -- SET AC-BLOCK COMMAND M	MACRO V05.04  Tuesday 17-May-88 14:36  Page 164-2
.SWPC -- SWEEP AC BLOCK COMMAND

   6573	002462	   040 	   125 	   116 	FMABO:	.ASCIZ	% UNRECOVERABLE FM PARITY ERROR - RELOAD CANCELED%
	002465	   122 	   105 	   103
	002470	   117 	   126 	   105
	002473	   122 	   101 	   102
	002476	   114 	   105 	   040
	002501	   106 	   115 	   040
	002504	   120 	   101 	   122
	002507	   111 	   124 	   131
	002512	   040 	   105 	   122
	002515	   122 	   117 	   122
	002520	   040 	   055 	   040
	002523	   122 	   105 	   114
	002526	   117 	   101 	   104
	002531	   040 	   103 	   101
	002534	   116 	   103 	   105
	002537	   114 	   105 	   104
	002542	   000
   6574
   6575	012514				.PSECT
SCACB -- SET AC-BLOCK COMMAND M	MACRO V05.04  Tuesday 17-May-88 14:36  Page 165
.SWPAC -- SWEEP ALL AC BLOCKS FOR FM PARITY ERROR

   6577					.SBTTL	.SWPAC -- SWEEP ALL AC BLOCKS FOR FM PARITY ERROR
   6578
   6579					;+
   6580					; .SWPAC -- SUBROUTINE TO READ ALL AC'S TO LOCATE FM PARITY ERRORS
   6581					;
   6582					; THIS ROUTINE WILL:
   6583					;	0. TYPE CURRENT LOCKED UP FM ADDR AND DATA
   6584					;	1. DISABLE PARITY ERROR STOPS AND CLEAR CLOCK ERROR STOP
   6585					;	2. PUT KL IN HALT LOOP
   6586					;	3. START KL CLOCK
   6587					;	4. SET AC BLOCK
   6588					;	5. READ AC'S
   6589					;	6. IF FM PARITY ERROR SET TYPE ERROR
   6590					;	7. REPEAT 4-6 FOR EACH BLOCK
   6591					;	8. RESTORE ORIGINAL AC BLOCK
   6592					;
   6593					; INPUT ARGUMENTS:
   6594					;
   6595					;	R2=AC BLOCK TO SWEEP
   6596					;
   6597					; OUTPUT ARGUMENTS:
   6598					;
   6599					;	NONE
   6600					;
   6601					; ERROR CODES RETURNED:
   6602					;
   6603					;	CCC -- CAN'T CLEAR KL10 CLOCK
   6604					;	CCR -- CAN'T CLEAR KL10 RUN FLOP
   6605					;	CCS -- KL10 CLOCK CAN'T START
   6606					;	CES -- CLOCK ERROR STOP
   6607					;	CFH -- CAN'T FIND KL10 HALT LOOP
   6608					;	CSC -- CAN'T SYNC KL10 CLOCK
   6609					;	DMF -- DEPOSIT KL10 MEMORY FAILED
   6610					;	DSF -- DTE20 STATUS FAILURE
   6611					;	ECT -- EBOX CLOCK TIME OUT
   6612					;	ESD -- EBOX STOPPED - DEPOSIT
   6613					;	EMF -- EXAMINE KL10 MEMORY FAILED
   6614					;	ESE -- EBOX STOPPED - EXAMINE
   6615					;	FRF -- FUNCTION READ FAILED
   6616					;	FSW -- FM SWEEP ERROR
   6617					;	FWF -- FUNCTION WRITE FAILED
   6618					;	FXF -- FUNCTION EXECUTE FAILED
   6619					;	XTO -- EXECUTE TIMED OUT
   6620					;-
   6621
   6622	012514				.SWPAC::
   6623	012514	012700 	000001 			MOV	#1,R0		; SET NO WHAT AC FLAG
   6624	012520					CALL	.SACB1		; SET AC BLOCK
	012520	004737 	012050'			 JSR	PC,.SACB1
   6625	012524	012737 	000020 	001026'		MOV	#20,ACADR	; SET UP FOR 16 AC'S
   6626	012532	005337 	001026'		10$:	DEC	ACADR		; DONE ALL AC'S
   6627	012536	002441 				BLT	20$		; YES -- EXIT
   6628	012540	012701 	001022'			MOV	#EXBLK,R1	; NO- SET EXAMINE DATA BLOCK
   6629	012544	012700 	000200 			MOV	#ED.PHY,R0	; EXAMINE PHYSICAL MEMORY
   6630	012550					CALL	.EXKLM		; EXAMINE AC
	012550	004737 	000000G			 JSR	PC,.EXKLM
   6631	012554	103366 				BCC	10$		; NO ERROR, NEXT AC
SCACB -- SET AC-BLOCK COMMAND M	MACRO V05.04  Tuesday 17-May-88 14:36  Page 165-1
.SWPAC -- SWEEP ALL AC BLOCKS FOR FM PARITY ERROR

   6632	012556					CALL	.DTDW1		; GET DTE STATUS WORD 1
	012556	004737 	000000G			 JSR	PC,.DTDW1
   6633	012562	032700 	004000 			BIT	#D1.CES,R0	; CLOCK ERROR STOP?
   6634	012566	001426 				BEQ	SWPFSW		; NO -- OTHER ERROR
   6635	012570					CALL	.RDFMP		; YES -- CHECK	FOR FM PARITY ERROR
	012570	004737 	000000G			 JSR	PC,.RDFMP
   6636	012574	005700 				TST	R0		; PARITY ERROR? 0=ERROR, 1=OK
   6637	012576	001022 				BNE	SWPFSW		; NO -- ERROR
   6638	012600	005237 	001002'			INC	FMERR		; [4.1.1049]YES -- COUNT IT
   6639	012604	012700 	001004'			MOV	#FMBUF,R0	; FM REGISTER BUFFER
   6640	012610					CALL	.RDFMO		; READ FM INFO
	012610	004737 	000000G			 JSR	PC,.RDFMO
   6641	012614					CALL	.TYACE		; TYPE AC INFO
	012614	004737 	000000G			 JSR	PC,.TYACE
   6642	012620					CALL	.RSSWP		; RESET SWEEP PARITY STOPS
	012620	004737 	012652'			 JSR	PC,.RSSWP
   6643	012624	012701 	001016'			MOV	#GOOBLK,R1	; [4.1.1049]GOOD DATA BLOCK
   6644	012630	012700 	000200 			MOV	#ED.PHY,R0	; [4.1.1049]PHYSICAL SPACE
   6645	012634					CALL	.DPKLM		; [4.1.1049]WRITE BACK GOOD DATA
	012634	004737 	000000G			 JSR	PC,.DPKLM
   6646	012640	000734 				BR	10$		; NEXT AC
   6647	012642				20$:	RETURN			; EXIT
	012642	000207 				 RTS	PC
   6648						;
   6649	012644				SWPFSW:
   6650	012644					ERROR$	FSW		; ERROR -- FM SWEEP ERROR
	012644	012746 	024217 			 MOV	#^RFSW,-(SP)
	012650	104400 				 TRAP	TC.ERR
   6651
   6652	001016				.PSECT	DATA
   6653
   6654	001016	001026'			GOOBLK:	.WORD	ACADR
   6655	001020	001006'				.WORD	FMBUF+2
   6656	001022	001026'			EXBLK:	.WORD	ACADR		; AC ADDR PTR
   6657	001024	001032'				.WORD	EXDAT		; EXAMINE DATA BUFFER PTR
   6658	001026	000000 			ACADR::	.WORD	0		; AC ADDR BITS 20-35
   6659	001030	000000 				.WORD	0		; AC ADDR BITS 14-19
   6660	001032	000000 			EXDAT::	.WORD	0		; AC DATA BITS 20-35
   6661	001034	000000 				.WORD	0		; AC DATA BITS 4-19
   6662	001036	000000 				.WORD	0		; AC DATA BITS 0-3
   6663
   6664	012652				.PSECT
SCACB -- SET AC-BLOCK COMMAND M	MACRO V05.04  Tuesday 17-May-88 14:36  Page 166
.RSSWP -- RESET PARITY STOPS FOR FM SWEEP

   6666					.SBTTL	.RSSWP -- RESET PARITY STOPS FOR FM SWEEP
   6667
   6668					;+
   6669					; .RSSWP -- SUBROUTINE TO CLEAR CES, SET FM STOP, AND RESET AC BLOCK
   6670					;
   6671					; THIS ROUTINE WILL:
   6672					;	1. RESET KL
   6673					;	2. START CLOCK
   6674					;	3. RESET AC BLOCK
   6675					;
   6676					; INPUT ARGUMENTS:
   6677					;
   6678					;	R2- AC BLOCK NO. TO SET
   6679					;
   6680					; OUTPUT ARGUMENTS:
   6681					;
   6682					;	NONE
   6683					;
   6684					; ERROR CODES RETURNED:
   6685					;
   6686					;	CCC -- CAN'T CLEAR KL10 CLOCK
   6687					;	CCR -- CAN'T CLEAR KL10 RUN FLOP
   6688					;	CCS -- KL10 CLOCK CAN'T START
   6689					;	CES -- CLOCK ERROR STOP
   6690					;	CFH -- CAN'T FIND KL10 HALT LOOP
   6691					;	CSC -- CAN'T SYNC KL10 CLOCK
   6692					;	DMF -- DEPOSIT KL10 MEMORY FAILED
   6693					;	DSF -- DTE20 STATUS FAILURE
   6694					;	ECT -- EBOX CLOCK TIME OUT
   6695					;	ESD -- EBOX STOPPED - DEPOSIT
   6696					;	FRF -- FUNCTION READ FAILED
   6697					;	FWF -- FUNCTION WRITE FAILED
   6698					;	FXF -- FUNCTION EXECUTE FAILED
   6699					;	MAE -- MODE ARGUMENT ERROR
   6700					;	XTO -- EXECUTE TIMED OUT
   6701					;-
   6702	012652				.RSSWP::
   6703	012652					SETF$S	#E.FHTO		; SET HALT TIME-OUT FLAG
	012652	012746 	000001 			MOV	#E.FHTO,-(SP)
	012656	012746 				MOV	(PC)+,-(SP)
	012660	   041 	   002 			.BYTE	33.,2
	012662	104375 				EMT	375
   6704	012664					CALL	.RESTP		; RESET KL AND PARITY STOPS
	012664	004737 	000000G			 JSR	PC,.RESTP
   6705	012670					CALL	.STCLK		; START CLOCK
	012670	004737 	000000G			 JSR	PC,.STCLK
   6706	012674	012700 	000001 			MOV	#1,R0		; SET NO WHAT AC FLAG
   6707	012700					CALL	.SACB1		; SET AC BLOCK
	012700	004737 	012050'			 JSR	PC,.SACB1
   6708	012704				10$:	RETURN
	012704	000207 				 RTS	PC
   6709						;
SCACB -- SET AC-BLOCK COMMAND M	MACRO V05.04  Tuesday 17-May-88 14:36  Page 168
.RSSWP -- RESET PARITY STOPS FOR FM SWEEP

   6712
   6713					.TITLE	SCOUTC -- SET/CLEAR OUTPUT COMMAND MODULE
   6714
   6715						.IDENT	"006120"
   6716
   6717					;                             COPYRIGHT (C) 1979, 1984, 1985 BY
   6718					;                     DIGITAL EQUIPMENT CORPORATION, MAYNARD MASS.
   6719					;			ALL RIGHTS RESERVED.
   6720					;       THIS SOFTWARE IS FURNISHED UNDER A LICENSE AND MAY BE  USED  AND  COPIED
   6721					;       ONLY IN ACCORDANCE WITH THE TERMS OF SUCH LICENSE AND WITH THE INCLUSION
   6722					;       OF THE ABOVE COPYRIGHT NOTICE.  THIS SOFTWARE OR ANY OTHER COPIES THERE-
   6723					;       OF  MAY NOT BE PROVIDED OR OTHERWISE MADE AVAILABLE TO ANY OTHER PERSON.
   6724					;       NO TITLE TO OR OWNERSHIP OF THE SOFTWARE IS HEREBY TRANSFERRED.
   6725					;
   6726					;       THE INFORMATION CONTAINED IN THIS SOFTWARE IS SUBJECT TO CHANGE  WITHOUT
   6727					;       NOTICE  AND SHOULD NOT BE CONSTRUED AS A COMMITMENT BY DIGITAL EQUIPMENT
   6728					;       CORPORATION.
   6729					;
   6730					;       DIGITAL ASSUMES NO RESPONSIBILITY FOR THE  USE  OR  RELIABILITY  OF  ITS
   6731					;       SOFTWARE ON EQUIPMENT WHICH IS NOT SUPPILED BY DIGITAL.
   6732					;
   6733					;		MODULE: SET / CLEAR OUTPUT COMMAND
   6734					;
   6735					;		VERSION: 06-00
   6736					;
   6737					;		AUTHOR: K.LEFEBVRE
   6738					;
   6739					;		DATE: 6-SEP-79
   6740					;
   6741					;	THIS MODULE CONTAINS:
   6742					;
   6743					;	1) SET / CLEAR OUTPUT COMMAND CODE
   6744					;
   6745					;		THESE ROUTINES WERE ADDED FOR TCO 5.1000
   6746
   6747						.MCALL	DIR$,ALUN$,QIOW$,GTIM$S,QIOW$S
SCOUTC -- SET/CLEAR OUTPUT COMM	MACRO V05.04  Tuesday 17-May-88 14:36  Page 169
.SCOUT -- SET/CLEAR OUTPUT COMMAND

   6749					.SBTTL	.SCOUT -- SET/CLEAR OUTPUT COMMAND
   6750
   6751					;+
   6752					; .SCOUT -- SET/CLEAR OUTPUT COMMAND ROUTINE
   6753					;
   6754					; THIS ROUTINE WILL EXECUTE THE SET/CLEAR OUTPUT COMMAND. IF
   6755					; THE COMMAND "SET OUTPUT" IS GIVEN WITHOUT ANY OBJECT THEN THE
   6756					; TTY IS TURNED ON. IF THE COMMAND "CLEAR OUTPUT" IS GIVEN
   6757					; WITHOUT ANY OBJECT THEN THE LPT AND LOG ARE TURNED OFF AND THE
   6758					; TTY IS TURNED ON. WHENEVER A CLEAR OUTPUT IS GIVEN WITH OR
   6759					; WITHOUT AN OBJECT A CHECK IS MADE TO MAKE SURE SOME DEVICE IS
   6760					; OUTPUTTING. IF NO DEVICES ARE THEN THE TTY IS TURNED ON.
   6761					;
   6762					; INPUT ARGUMENTS:
   6763					;
   6764					;	NONE
   6765					;
   6766					; OUTPUT ARGUMENTS:
   6767					;
   6768					;	NONE
   6769					;
   6770					; ERROR CODES RETURNED:
   6771					;
   6772					;	CAL -- CAN'T ASSIGN LUN
   6773					;	DNF -- DIRECTORY FILE NOT FOUND
   6774					;	FCF -- FILE CLOSE FAILURE
   6775					;	FEF -- FILE EXTEND FAILURE
   6776					;	FEN -- FILE ENTER FAILURE
   6777					;	FLF -- FILE LOOKUP FAILURE
   6778					;	FOF -- FILE OPEN FAILURE
   6779					;	FWT -- FILE WRITE FAILURE
   6780					;-
   6781
   6782	012706				.SCOUT::
   6783	012706	132764 	000010 	000000G		BITB	#CH.EOC,.CHTAB(R4)	; IS THERE AN OBJECT?
   6784	012714	001414 				BEQ	20$		; NO -- GET OBJECT
   6785	012716	005737 	000000G			TST	.NOTSW		; YES -- IS THIS A CLEAR?
   6786	012722	001406 				BEQ	10$		; NO -- SET CONSOLE OUTPUT
   6787	012724					CALL	.SCOTL		; YES -- CLEAR LOG OUTPUT
	012724	004737 	012774'			 JSR	PC,.SCOTL
   6788	012730					CALL	.SCOTP		; CLEAR PRINTER OUTPUT
	012730	004737 	013354'			 JSR	PC,.SCOTP
   6789	012734				5$:	CALLR	.WHOUT		; OUTPUT STATUS
	012734	000137 	013510'			 JMP	.WHOUT
   6790	012740				10$:	CALL	.SCOTY		; SET CONSOLE OUTPUT
	012740	004737 	013442'			 JSR	PC,.SCOTY
   6791	012744	000773 				BR	5$		; OUTPUT STATUS
   6792	012746				20$:	CALL	.CKOBJ		; MUST HAVE AN OBJECT
	012746	004737 	000000G			 JSR	PC,.CKOBJ
   6793	012752	012700 	000000G			MOV	#.SCOTT,R0	; TABLE POINTER TO R0
   6794	012756					CALL	.TSCAN		; SCAN THE TABLE
	012756	004737 	000000G			 JSR	PC,.TSCAN
   6795	012762					CALL	.CKEOC		; MUST HAVE E-O-C
	012762	004737 	000000G			 JSR	PC,.CKEOC
   6796	012766					CALL	@2(R0)		; EXECUTE THE COMMAND
	012766	004770 	000002 			 JSR	PC,@2(R0)
   6797	012772	000760 				BR	5$		; OUTPUT STATUS
SCOUTC -- SET/CLEAR OUTPUT COMM	MACRO V05.04  Tuesday 17-May-88 14:36  Page 169-1
.SCOUT -- SET/CLEAR OUTPUT COMMAND

   6798						;
SCOUTC -- SET/CLEAR OUTPUT COMM	MACRO V05.04  Tuesday 17-May-88 14:36  Page 170
.SCOTL -- SET/CLEAR OUTPUT LOG COMMAND

   6800					.SBTTL	.SCOTL -- SET/CLEAR OUTPUT LOG COMMAND
   6801
   6802					;+
   6803					; .SCOTL -- SET/CLEAR OUTPUT LOG COMMAND ROUTINE
   6804					;
   6805					; THIS ROUTINE WILL OPEN OR CLOSE A LOG FILE AND DIRECT OUTPUT
   6806					; TO THIS FILE.
   6807					;
   6808					; INPUT ARGUMENTS:
   6809					;
   6810					;	NONE
   6811					;
   6812					; OUTPUT ARGUMENTS:
   6813					;
   6814					;	NONE
   6815					;
   6816					; ERROR CODES RETURNED:
   6817					;
   6818					;	CAL -- CAN'T ASSIGN LUN
   6819					;	DNF -- DIRECTORY FILE NOT FOUND
   6820					;	FCF -- FILE CLOSE FAILURE
   6821					;	FEF -- FILE EXTEND FAILURE
   6822					;	FEN -- FILE ENTER FAILURE
   6823					;	FLF -- FILE LOOKUP FAILURE
   6824					;	FOF -- FILE OPEN FAILURE
   6825					;	FWT -- FILE WRITE FAILURE
   6826					;-
   6827
   6828	012774				.SCOTL::
   6829	012774	005737 	000000G			TST	.NOTSW		; IS THIS A CLEAR?
   6830	013000	001433 				BEQ	25$		; NO -- TURN LOGGING ON
   6831	013002	105737 	000000G			TSTB	.OUTLG		; LOGGING ALREADY OFF?
   6832	013006	001530 				BEQ	30$		; YES -- EXIT
   6833	013010	012700 	002610'			MOV	#LGFMSG,R0	; NO -- FINISH LOG MESSAGE
   6834	013014					CALL	.TYMSG		; TYPE IT
	013014	004737 	000000G			 JSR	PC,.TYMSG
   6835	013020					CALL	TYLGMS		; LOG TIME AND DATE
	013020	004737 	013272'			 JSR	PC,TYLGMS
   6836	013024					CALL	.TCRLF		; OUTPUT CR-LF
	013024	004737 	000000G			 JSR	PC,.TCRLF
   6837	013030					CALL	.TCRLF		; OUTPUT CR-LF
	013030	004737 	000000G			 JSR	PC,.TCRLF
   6838	013034					CALL	.WRITZ		; OUTPUT FINAL BLOCK
	013034	004737 	000000G			 JSR	PC,.WRITZ
   6839	013040	012700 	000000G			MOV	#.OTFN,R0	; FILE NAME
   6840	013044	012701 	000000G			MOV	#.OTATT,R1	; ATTRIBUTE BLOCK
   6841	013050	012702 	000004 			MOV	#LOGLUN,R2	; LUN
   6842	013054					CALL	.CLOSE		; CLOSE FILE
	013054	004737 	000000G			 JSR	PC,.CLOSE
   6843	013060	105037 	000000G			CLRB	.OUTLG		; YES -- CLEAR LOG FLAG
   6844	013064					CALLR	.SCOTC		; MAKE SURE SOME OUTPUT DEVICE IS ON
	013064	000137 	013466'			 JMP	.SCOTC
   6845						;
   6846	013070	105737 	000000G		25$:	TSTB	.OUTLG		; LOGGING ALREADY ON?
   6847	013074	001075 				BNE	30$		; YES -- EXIT
   6848	013076	012700 	000000G			MOV	#.OTFN,R0	; NO -- FILE NAME
   6849	013102	012701 	000000G			MOV	#.OTFNB,R1	; FILE NAME BLOCK
SCOUTC -- SET/CLEAR OUTPUT COMM	MACRO V05.04  Tuesday 17-May-88 14:36  Page 170-1
.SCOTL -- SET/CLEAR OUTPUT LOG COMMAND

   6850	013106	012702 	000004 			MOV	#LOGLUN,R2	; LUN
   6851	013112	012704 	000000G			MOV	#IO.ACE,R4	; OPEN ACCESS RIGHTS
   6852	013116					CALL	.LOKUP		; LOOK UP FILE
	013116	004737 	000000G			 JSR	PC,.LOKUP
   6853	013122	103013 				BCC	27$		; FILE FOUND IF CC-C IS CLEAR
   6854	013124					CALL	.ENTER		; CREATE AND ENTER THE FILE
	013124	004737 	000000G			 JSR	PC,.ENTER
   6855	013130					CALL	.OPEN		; OPEN THE NEW FILE
	013130	004737 	000000G			 JSR	PC,.OPEN
   6856	013134	012737 	001002 	000000G		MOV	#1002,.OTATT	; SET FILE TYPE/ATTRIBUTES
   6857	013142	012737 	000001 	000006G		MOV	#1,.OTATT+6	; SET HIGHEST ALLOCATED BLOCK
   6858	013150	000402 				BR	29$		; GO ON
   6859	013152				27$:	CALL	.OPEN		; OPEN FILE
	013152	004737 	000000G			 JSR	PC,.OPEN
   6860	013156	012737 	000000G	000000G	29$:	MOV	#.BUFSZ,.OTBBC	; EMPTY BUFFER
   6861	013164	012737 	000000G	000000G		MOV	#.OTBUF,.OTPOS	; BUFFER ADDR
   6862	013172	013737 	000010G	000000G		MOV	.OTATT+10,.OTVBN	; HIGHEST USED BLOCK
   6863	013200	013737 	000012G	000002G		MOV	.OTATT+12,.OTVBN+2	; HIGHEST USED BLOCK
   6864	013206	012737 	000000G	000000G		MOV	#.RECRD,.RECPT	; RESET RECORD POINTER
   6865	013214	005037 	000000G			CLR	.RECNT		; CLEAR RECORD COUNT
   6866	013220	105237 	000000G			INCB	.OUTLG		; SET LOG FLAG
   6867	013224	012700 	002543'			MOV	#LGSMSG,R0	; START UP LOG MESSAGE
   6868	013230					CALL	.TYMSG		; TYPE IT
	013230	004737 	000000G			 JSR	PC,.TYMSG
   6869	013234					CALL	TYLGMS		; LOG TIME AND DATE
	013234	004737 	013272'			 JSR	PC,TYLGMS
   6870	013240	012700 	002576'			MOV	#LGVMSG,R0	; VERSION MESSAGE
   6871	013244					CALL	.TYMSG		; TYPE IT
	013244	004737 	000000G			 JSR	PC,.TYMSG
   6872	013250	012700 	000000G			MOV	#.VERNO,R0	; VERSION
   6873	013254					CALL	.TYMSG		;TYPE IT
	013254	004737 	000000G			 JSR	PC,.TYMSG
   6874	013260					CALL	.TCRLF		; OUTPUT CR-LF
	013260	004737 	000000G			 JSR	PC,.TCRLF
   6875	013264					CALL	.TCRLF		; OUTPUT CR-LF
	013264	004737 	000000G			 JSR	PC,.TCRLF
   6876	013270				30$:	RETURN			; RETURN
	013270	000207 				 RTS	PC
   6877						;
   6878	013272				TYLGMS:	PUSH	R1		; SAVE R1,R0
	013272	010146 				 MOV	R1,-(SP)
   6879	013274	012701 	001040'			MOV	#LOGBUF,R1	; DATE BUFFER
   6880	013300					GTIM$S	R1		; GET DATE
	013300	010146 				MOV	R1,-(SP)
	013302	012746 				MOV	(PC)+,-(SP)
	013304	   073 	   002 			.BYTE	59.,2
	013306	104375 				EMT	375
   6881	013310	005046 				CLR	-(SP)		; CLEAR SPACE ON STACK
   6882	013312	005046 				CLR	-(SP)		; CLEAR SPACE ON STACK
   6883	013314	010600 				MOV	SP,R0		; POINT R0 TO BUFFER
   6884	013316	112120 				MOVB	(R1)+,(R0)+	; SET YEAR
   6885	013320	105721 				TSTB	(R1)+		; SKIP BYTE
   6886	013322	112120 				MOVB	(R1)+,(R0)+	; SET MONTH
   6887	013324	105721 				TSTB	(R1)+		; SKIP BYTE
   6888	013326	112120 				MOVB	(R1)+,(R0)+	; SET DAY
   6889	013330	010600 				MOV	SP,R0		; RESET PTR
   6890	013332					CALL	.TYDAT		; TYPE DATE
SCOUTC -- SET/CLEAR OUTPUT COMM	MACRO V05.04  Tuesday 17-May-88 14:36  Page 170-2
.SCOTL -- SET/CLEAR OUTPUT LOG COMMAND

	013332	004737 	007040'			 JSR	PC,.TYDAT
   6891	013336	012700 	000000G			MOV	#.SSM,R0	; SET SECONDS
   6892	013342					CALL	.TYTIM		; TYPE TIME
	013342	004737 	007154'			 JSR	PC,.TYTIM
   6893	013346	022626 				CMP	(SP)+,(SP)+	; CLEAR STACK
   6894	013350					POP	R1		; RESTORE R1
	013350	012601 				 MOV	(SP)+,R1
   6895	013352					RETURN			; EXIT
	013352	000207 				 RTS	PC
   6896						;
   6897
   6898	001040				.PSECT	DATA
   6899
   6900	001040				LOGBUF:	.BLKW	10
   6901
   6902	002543				.PSECT	MESSAG
   6903
   6904	002543				LGSMSG:
   6905	002543	   012 	   052 	   052 		.ASCIZ	<12>%******* LOGGING STARTED  %
	002546	   052 	   052 	   052
	002551	   052 	   052 	   040
	002554	   114 	   117 	   107
	002557	   107 	   111 	   116
	002562	   107 	   040 	   123
	002565	   124 	   101 	   122
	002570	   124 	   105 	   104
	002573	   040 	   040 	   000
   6906	002576				LGVMSG:
   6907	002576	   054 	   122 	   123 		.ASCIZ	%,RSX-20F %
	002601	   130 	   055 	   062
	002604	   060 	   106 	   040
	002607	   000
   6908	002610				LGFMSG:
   6909	002610	   012 	   052 	   052 		.ASCIZ	<12>%******* LOGGING FINISHED  %
	002613	   052 	   052 	   052
	002616	   052 	   052 	   040
	002621	   114 	   117 	   107
	002624	   107 	   111 	   116
	002627	   107 	   040 	   106
	002632	   111 	   116 	   111
	002635	   123 	   110 	   105
	002640	   104 	   040 	   040
	002643	   000
   6910
   6911	013354				.PSECT
SCOUTC -- SET/CLEAR OUTPUT COMM	MACRO V05.04  Tuesday 17-May-88 14:36  Page 171
.SCOTP -- SET/CLEAR OUTPUT LPT COMMAND

   6913					.SBTTL	.SCOTP -- SET/CLEAR OUTPUT LPT COMMAND
   6914
   6915					;+
   6916					; .SCOTP -- SET/CLEAR OUTPUT LPT COMMAND ROUTINE
   6917					;
   6918					; THIS ROUTINE WILL ATTACH OR DETATCH THE LINE PRINTER AND
   6919					; SET A FLAG TO DIRECT OUTPUT TO IT.
   6920					;
   6921					; INPUT ARGUMENTS:
   6922					;
   6923					;	NONE
   6924					;
   6925					; OUTPUT ARGUMENTS:
   6926					;
   6927					;	NONE
   6928					;
   6929					; ERROR CODES RETURNED:
   6930					;
   6931					;	CAP -- CAN'T ATTACH LINEPRINTER
   6932					;-
   6933
   6934	013354				.SCOTP::
   6935	013354	005737 	000000G			TST	.NOTSW		; IS THIS A CLEAR PRINTER?
   6936	013360	001413 				BEQ	30$		; NO -- TURN ON PRINTER
   6937	013362	105737 	000000G			TSTB	.OUTLP		; YES -- IS LINE PRINTER ON?
   6938	013366	001421 				BEQ	40$		; NO -- DON'T TURN OFF
   6939	013370					DIR$	#.DTLST		; YES -- DETACH THE PRINTER
	013370	012746 	000100'			MOV	#.DTLST,-(SP)
	013374	104375 				EMT	375
   6940	013376	103416 				BCS	SCOCAP		; ERROR IF CC-C IS SET
   6941	013400	105037 	000000G			CLRB	.OUTLP		; CLEAR PRINT FLAG
   6942	013404					CALLR	.SCOTC		; MAKE SURE SOME OUTPUT DEVICE IS ON
	013404	000137 	013466'			 JMP	.SCOTC
   6943						;
   6944	013410	105737 	000000G		30$:	TSTB	.OUTLP		; IS LINE PRINTER ALREADY ON?
   6945	013414	001006 				BNE	40$		; YES -- DON'T TURN ON
   6946	013416					DIR$	#.ATLST		; NO -- ATTACH THE PRINTER
	013416	012746 	000064'			MOV	#.ATLST,-(SP)
	013422	104375 				EMT	375
   6947	013424	103403 				BCS	SCOCAP		; ERROR IF CC-C IS SET
   6948	013426	105237 	000000G			INCB	.OUTLP		; SET THE PRINT FLAG
   6949	013432				40$:	RETURN			; RETURN
	013432	000207 				 RTS	PC
   6950						;
   6951	013434				SCOCAP:
   6952	013434					ERROR$	CAP		; ERROR -- CAN'T ATTACH LINEPRINTER
	013434	012746 	011370 			 MOV	#^RCAP,-(SP)
	013440	104400 				 TRAP	TC.ERR
SCOUTC -- SET/CLEAR OUTPUT COMM	MACRO V05.04  Tuesday 17-May-88 14:36  Page 172
.SCOTY -- SET/CLEAR OUTPUT TTY COMMAND

   6954					.SBTTL	.SCOTY -- SET/CLEAR OUTPUT TTY COMMAND
   6955
   6956					;+
   6957					; .SCOTY -- SET/CLEAR OUTPUT TTY COMMAND ROUTINE
   6958					;
   6959					; THIS ROUTINE WILL SET OR CLEAR A FLAG THAT DIRECTS OUTPUT TO THE
   6960					; TTY.
   6961					;
   6962					; INPUT ARGUMENTS:
   6963					;
   6964					;	NONE
   6965					;
   6966					; OUTPUT ARGUMENTS:
   6967					;
   6968					;	NONE
   6969					;
   6970					; ERROR CODES RETURNED:
   6971					;
   6972					;	NONE
   6973					;-
   6974
   6975	013442				.SCOTY::
   6976	013442	005737 	000000G			TST	.NOTSW		; IS THIS A CLEAR
   6977	013446	001404 				BEQ	50$		; NO -- SET TYPE OUTPUT
   6978	013450	105037 	000000G			CLRB	.OUTTY		; CLEAR TYPE FLAG
   6979	013454					CALLR	.SCOTC		; MAKE SURE SOME OUTPUT DEVICE IS ON
	013454	000137 	013466'			 JMP	.SCOTC
   6980	013460	105237 	000000G		50$:	INCB	.OUTTY		; SET TYPE FLAG
   6981	013464				60$:	RETURN			; EXIT
	013464	000207 				 RTS	PC
   6982						;
SCOUTC -- SET/CLEAR OUTPUT COMM	MACRO V05.04  Tuesday 17-May-88 14:36  Page 173
.SCOTC -- SET/CLEAR OUTPUT CHECK ROUTINE

   6984					.SBTTL	.SCOTC -- SET/CLEAR OUTPUT CHECK ROUTINE
   6985
   6986					;+
   6987					; .SCOTL -- SET/CLEAR OUTPUT CHECK ROUTINE
   6988					;
   6989					; THIS ROUTINE WILL CHECK TO SEE THAT OUTPUT IS DIRECTED TO SOME
   6990					; DEVICE. IF THERE IS NO OUTPUT DEVICE THEN THE TTY IS TURNED ON.
   6991					;
   6992					; INPUT ARGUMENTS:
   6993					;
   6994					;	NONE
   6995					;
   6996					; OUTPUT ARGUMENTS:
   6997					;
   6998					;	NONE
   6999					;
   7000					; ERROR CODES RETURNED:
   7001					;
   7002					;	NONE
   7003					;-
   7004
   7005	013466				.SCOTC::
   7006	013466	105737 	000000G			TSTB	.OUTLG		; LOG ON?
   7007	013472	001005 				BNE	70$		; YES -- EXIT
   7008	013474	105737 	000000G			TSTB	.OUTLP		; NO -- PRINT ON?
   7009	013500	001002 				BNE	70$		; YES -- EXIT
   7010	013502	105237 	000000G			INCB	.OUTTY		; NO -- TURN ON TYPE
   7011	013506				70$:	RETURN			; EXIT
	013506	000207 				 RTS	PC
   7012						;
SCOUTC -- SET/CLEAR OUTPUT COMM	MACRO V05.04  Tuesday 17-May-88 14:36  Page 174
.WHOUT -- WHAT OUTPUT COMMAND

   7014					.SBTTL	.WHOUT -- WHAT OUTPUT COMMAND
   7015
   7016					;+
   7017					; .WHOUT -- WHAT OUTPUT COMMAND ROUTINE
   7018					;
   7019					; THIS ROUTINE WILL OUPUT THE STATUS OF THE CURRENT OUTPUT DEVICES.
   7020					;
   7021					; INPUT ARGUMENTS:
   7022					;
   7023					;	NONE
   7024					;
   7025					; OUTPUT ARGUMENTS:
   7026					;
   7027					;	NONE
   7028					;
   7029					; ERROR CODES RETURNED:
   7030					;
   7031					;	NONE
   7032					;-
   7033
   7034	013510				.WHOUT::
   7035	013510	012700 	002644'			MOV	#WHOTMS,R0	; MESSAGE POINTER TO R0
   7036	013514					CALL	.TYMSG		; PRINT IT
	013514	004737 	000000G			 JSR	PC,.TYMSG
   7037	013520	005046 				CLR	-(SP)		; CLEAR COMMA FLAG
   7038	013522	105737 	000000G			TSTB	.OUTTY		; TTY ACTIVE?
   7039	013526	001405 				BEQ	10$		; NO -- NEXT DEVICE
   7040	013530	012700 	000000G			MOV	#TTYMSG,R0	; YES -- TTY MESSAGE POINTER TO R0
   7041	013534					CALL	.TYMSG		; PRINT IT
	013534	004737 	000000G			 JSR	PC,.TYMSG
   7042	013540	005216 				INC	(SP)		; SET COMMA FLAG
   7043	013542	105737 	000000G		10$:	TSTB	.OUTLP		; LPT ACTIVE?
   7044	013546	001411 				BEQ	20$		; NO -- NEXT DEVICE
   7045	013550	005716 				TST	(SP)		; YES -- TYPE COMMA?
   7046	013552	001402 				BEQ	15$		; NO -- TYPE DEVICE
   7047	013554					CALL	.TYCOM		; YES -- TYPE COMMA
	013554	004737 	000000G			 JSR	PC,.TYCOM
   7048	013560	012700 	000000G		15$:	MOV	#LPTMSG,R0	; LPT MESSAGE POINTER TO R0
   7049	013564					CALL	.TYMSG		; PRINT IT
	013564	004737 	000000G			 JSR	PC,.TYMSG
   7050	013570	005216 				INC	(SP)		; SET COMMA FLAG
   7051	013572	105737 	000000G		20$:	TSTB	.OUTLG		; LOG ACTIVE?
   7052	013576	001410 				BEQ	30$		; NO -- EXIT
   7053	013600	005716 				TST	(SP)		; YES -- TYPE COMMA?
   7054	013602	001402 				BEQ	25$		; NO -- TYPE DEVICE
   7055	013604					CALL	.TYCOM		; YES -- TYPE COMMA
	013604	004737 	000000G			 JSR	PC,.TYCOM
   7056	013610	012700 	000000G		25$:	MOV	#LOGMSG,R0	; LOG MESSAGE POINTER TO R0
   7057	013614					CALL	.TYMSG		; PRINT IT
	013614	004737 	000000G			 JSR	PC,.TYMSG
   7058	013620	005726 			30$:	TST	(SP)+		; REMOVE COMMA FLAG
   7059	013622					CALLR	.TCRLF		; TYPE MESSAGE AND EXIT
	013622	000137 	000000G			 JMP	.TCRLF
   7060						;
   7061
   7062	002644				.PSECT	MESSAG
   7063
SCOUTC -- SET/CLEAR OUTPUT COMM	MACRO V05.04  Tuesday 17-May-88 14:36  Page 174-1
.WHOUT -- WHAT OUTPUT COMMAND

   7064	002644				WHOTMS:
   7065	002644	   040 	   117 	   125 		.ASCIZ	% OUTPUT DEVICES: %
	002647	   124 	   120 	   125
	002652	   124 	   040 	   104
	002655	   105 	   126 	   111
	002660	   103 	   105 	   123
	002663	   072 	   040 	   000
   7066
   7067	013626				.PSECT
SCOUTC -- SET/CLEAR OUTPUT COMM	MACRO V05.04  Tuesday 17-May-88 14:36  Page 175
.WHOUT -- WHAT OUTPUT COMMAND

   7069					; THESE DPBS ARE USED TO ASSIGN THE LINE PRINTER TO THE PARSER TASK BY
   7070					; LOGICAL UNIT NUMBER (LUN), AND ARE OF THE FORM:
   7071					;
   7072					;	!===============================================!
   7073					; 00	!	DPB SIZE	!	    DIC		!
   7074					;	!-----------------------------------------------!
   7075					; 02	!	      LOGICAL UNIT NUMBER		!
   7076					;	!-----------------------------------------------!
   7077					; 04	!	       ASCII DEVICE NAME		!
   7078					;	!-----------------------------------------------!
   7079					; 06	!	      DEVICE UNIT NUMBER		!
   7080					;	!===============================================!
   7081
   7082	000064				.PSECT	DPBS
   7083
   7084	000064				.ATLST:				; ATTACH LPT DIRECTIVE
   7085	000064					QIOW$	IO.ATT,LSTLUN,E.FLOD,0,0,0
	000064	   003 	   006 			.BYTE	3,$$$ARG
	000066	000000G				.WORD	IO.ATT
	000070	000003 				.WORD	LSTLUN
	000072	   005 	   000 			.BYTE	E.FLOD,0
	000074	000000 				.WORD	0
	000076	000000 				.WORD	0
   7086
   7087	000100				.DTLST:			; DETATCH LPT DIRECTIVE
   7088	000100					QIOW$	IO.DET,LSTLUN,E.FLOD,0,0,0
	000100	   003 	   006 			.BYTE	3,$$$ARG
	000102	000000G				.WORD	IO.DET
	000104	000003 				.WORD	LSTLUN
	000106	   005 	   000 			.BYTE	E.FLOD,0
	000110	000000 				.WORD	0
	000112	000000 				.WORD	0
   7089
   7090	013626				.PSECT
SCOUTC -- SET/CLEAR OUTPUT COMM	MACRO V05.04  Tuesday 17-May-88 14:36  Page 177
.WHOUT -- WHAT OUTPUT COMMAND

   7093
   7094					.TITLE	SETCM -- SET / CLEAR COMMAND DISPATCH MODULE 7603.30
   7095
   7096						.IDENT	"005000"
   7097					;
   7098					;                             COPYRIGHT (C) 1975, 1984, 1985 BY
   7099					;                     DIGITAL EQUIPMENT CORPORATION, MAYNARD MASS.
   7100					;			ALL RIGHTS RESERVED.
   7101					;       THIS SOFTWARE IS FURNISHED UNDER A LICENSE AND MAY BE  USED  AND  COPIED
   7102					;       ONLY IN ACCORDANCE WITH THE TERMS OF SUCH LICENSE AND WITH THE INCLUSION
   7103					;       OF THE ABOVE COPYRIGHT NOTICE.  THIS SOFTWARE OR ANY OTHER COPIES THERE-
   7104					;       OF  MAY NOT BE PROVIDED OR OTHERWISE MADE AVAILABLE TO ANY OTHER PERSON.
   7105					;       NO TITLE TO OR OWNERSHIP OF THE SOFTWARE IS HEREBY TRANSFERRED.
   7106					;
   7107					;       THE INFORMATION CONTAINED IN THIS SOFTWARE IS SUBJECT TO CHANGE  WITHOUT
   7108					;       NOTICE  AND SHOULD NOT BE CONSTRUED AS A COMMITMENT BY DIGITAL EQUIPMENT
   7109					;       CORPORATION.
   7110					;
   7111					;       DIGITAL ASSUMES NO RESPONSIBILITY FOR THE  USE  OR  RELIABILITY  OF  ITS
   7112					;       SOFTWARE ON EQUIPMENT WHICH IS NOT SUPPILED BY DIGITAL.
   7113					;
   7114					;		MODULE: SET / CLEAR COMMAND DISPATCH
   7115					;
   7116					;		VERSION: 05-00
   7117					;
   7118					;		AUTHOR: R. BELANGER
   7119					;
   7120					;		DATE: 7603.30
   7121					;
   7122					;	THIS MODULE CONTAINS:
   7123					;
   7124					;	1) SET / CLEAR COMMAND DISPATCH CODE
SETCM -- SET / CLEAR COMMAND DI	MACRO V05.04  Tuesday 17-May-88 14:36  Page 178
.SETCM -- THE "SET" AND "CLEAR" COMMAND DISPATCHES 7602.19

   7126					.SBTTL	.SETCM -- THE "SET" AND "CLEAR" COMMAND DISPATCHES 7602.19
   7127
   7128					;+
   7129					; .CLRCM -- THE "CLEAR" COMMAND
   7130					; .SETCM -- THE "SET" COMMAND
   7131					;
   7132					; THESE ROUTINES ARE THE TOP LEVEL FOR THE SET AND CLEAR COMMANDS.
   7133					; ARGUMENTS ARE CHECKED AND A DISPATCH IS MADE FOR THE OBJECT
   7134					; SPECIFIED IN THE COMMAND LINE
   7135					;
   7136					; INPUT ARGUMENTS:
   7137					;
   7138					;	NONE.
   7139					;
   7140					; OUTPUT ARGUMENTS:
   7141					;
   7142					;	NONE.
   7143					;
   7144					; ERROR CODES RETURNED:
   7145					;
   7146					;	ILC -- ILLEGAL COMMAND.
   7147					;-
   7148
   7149						.ENABL	LSB
   7150
   7151	013626				.CLRCM::
   7152	013626					CALL	.CKOBJ		; SEE IF OBJECT FOLLOWS
	013626	004737 	000000G			 JSR	PC,.CKOBJ
   7153	013632	005737 	000000G			TST	.NOTSW		; LOOK AT THE "NOT" SWITCH
   7154	013636	001007 				BNE	10$		; ALREADY SAYS CLEAR -- GO ON
   7155	013640	005137 	000000G			COM	.NOTSW		; INVERT THE "NOT" SWITCH
   7156	013644	000404 				BR	10$		; AND TREAT AS A "SET" COMMAND
   7157						;
   7158	013646				.SETCM::
   7159	013646					CALL	.CKOBJ		; LOOK FOR AN OBJECT
	013646	004737 	000000G			 JSR	PC,.CKOBJ
   7160	013652	005037 	000000G			CLR	.NOTSW		; CLEAR THE "NOT" SWITCH
   7161	013656				.SETC0::			; "SET NOT" ENTRY POINT
   7162	013656				10$:
   7163	013656	012700 	000000G			MOV	#.SETTB,R0	; TABLE POINTER TO R0
   7164	013662					CALL	.TSCAN		; SCAN IT
	013662	004737 	000000G			 JSR	PC,.TSCAN
   7165	013666	011001 				MOV	(R0),R1		; LEGAL BITS TO R1
   7166	013670	005101 				COM	R1		; INVERT THEM
   7167	013672	040137 	000000G			BIC	R1,.LGLWD	; SET UP NEW LEGAL WORD
   7168	013676					CALLR	@2(R0)		; DO WHAT IT SAYS TO
	013676	000170 	000002 			 JMP	@2(R0)
   7169						;
   7170
   7171						.DSABL	LSB
SETCM -- SET / CLEAR COMMAND DI	MACRO V05.04  Tuesday 17-May-88 14:36  Page 179
.WHATC -- THE "WHAT" COMMAND DISPATCH 7607.14

   7173					.SBTTL	.WHATC -- THE "WHAT" COMMAND DISPATCH 7607.14
   7174
   7175					;+
   7176					; .WHATC -- THE "WHAT" COMMAND DISPATCH
   7177					;
   7178					; THIS ROUTINE IS THE TOPMOST LEVEL OF THE "WHAT COMMAND WHICH
   7179					; PERFORMS THE DISPATCH FOR THE SPECIFIED OBJECT.
   7180					;
   7181					; INPUT ARGUMENTS:
   7182					;
   7183					;	NONE.
   7184					;
   7185					; OUTPUT ARGUMENTS:
   7186					;
   7187					;	NONE.
   7188					;
   7189					; ERROR CODES RETURNED:
   7190					;
   7191					;	NONE.
   7192					;-
   7193
   7194	013702				.WHATC::
   7195	013702	012700 	000000G			MOV	#.WHATB,R0	; TABLE POINTER TO R0
   7196	013706					CALL	.CKOBJ		; MUST HAVE AN OBJECT
	013706	004737 	000000G			 JSR	PC,.CKOBJ
   7197	013712					CALL	.TSCAN		; SCAN IT
	013712	004737 	000000G			 JSR	PC,.TSCAN
   7198	013716					CALL	.CKEOC		; MUST HAVE E-O-C
	013716	004737 	000000G			 JSR	PC,.CKEOC
   7199	013722					CALLR	@2(R0)		; DO WHAT IT SAYS
	013722	000170 	000002 			 JMP	@2(R0)
   7200						;
SETCM -- SET / CLEAR COMMAND DI	MACRO V05.04  Tuesday 17-May-88 14:36  Page 180
.SCNOT -- THE "SET / CLEAR NOT" COMMAND 7602.19

   7202					.SBTTL	.SCNOT -- THE "SET / CLEAR NOT" COMMAND 7602.19
   7203
   7204	013726				.SCNOT::			; SET/CLEAR "NO"
   7205	013726					CALL	.CKOBJ		; MUST HAVE AN OBJECT
	013726	004737 	000000G			 JSR	PC,.CKOBJ
   7206	013732	005137 	000000G			COM	.NOTSW		; INVERT THE "NOT" SWITCH
   7207	013736	000747 				BR	.SETC0		; AND GET NEXT OBJECT
   7208						;
SETCM -- SET / CLEAR COMMAND DI	MACRO V05.04  Tuesday 17-May-88 14:36  Page 181
.SCNOT -- THE "SET / CLEAR NOT" COMMAND 7602.19

   7210
   7211
   7212					.TITLE	SHUTC -- SHUTDOWN COMMAND MODULE 7707.12
   7213
   7214						.IDENT	"005000"
   7215					;
   7216					;                             COPYRIGHT (C) 1975, 1984, 1985 BY
   7217					;                     DIGITAL EQUIPMENT CORPORATION, MAYNARD MASS.
   7218					;			ALL RIGHTS RESERVED.
   7219					;       THIS SOFTWARE IS FURNISHED UNDER A LICENSE AND MAY BE  USED  AND  COPIED
   7220					;       ONLY IN ACCORDANCE WITH THE TERMS OF SUCH LICENSE AND WITH THE INCLUSION
   7221					;       OF THE ABOVE COPYRIGHT NOTICE.  THIS SOFTWARE OR ANY OTHER COPIES THERE-
   7222					;       OF  MAY NOT BE PROVIDED OR OTHERWISE MADE AVAILABLE TO ANY OTHER PERSON.
   7223					;       NO TITLE TO OR OWNERSHIP OF THE SOFTWARE IS HEREBY TRANSFERRED.
   7224					;
   7225					;       THE INFORMATION CONTAINED IN THIS SOFTWARE IS SUBJECT TO CHANGE  WITHOUT
   7226					;       NOTICE  AND SHOULD NOT BE CONSTRUED AS A COMMITMENT BY DIGITAL EQUIPMENT
   7227					;       CORPORATION.
   7228					;
   7229					;       DIGITAL ASSUMES NO RESPONSIBILITY FOR THE  USE  OR  RELIABILITY  OF  ITS
   7230					;       SOFTWARE ON EQUIPMENT WHICH IS NOT SUPPILED BY DIGITAL.
   7231					;
   7232					;		MODULE: SHUTDOWN COMMAND
   7233					;
   7234					;		VERSION: 03-06
   7235					;
   7236					;		AUTHOR: R. BELANGER
   7237					;
   7238					;		DATE: 7707.12
   7239					;
   7240					;	THIS MODULE CONTAINS:
   7241					;
   7242					;	1) SHUTDOWN COMMAND CODE
SHUTC -- SHUTDOWN COMMAND MODUL	MACRO V05.04  Tuesday 17-May-88 14:36  Page 182
.SHUTC -- THE "SHUTDOWN" COMMAND 7707.12

   7244					.SBTTL	.SHUTC -- THE "SHUTDOWN" COMMAND 7707.12
   7245
   7246					;+
   7247					; .SHUTC -- THE SHUTDOWN COMMAND
   7248					;
   7249					; THIS ROUTINE WILL DEPOSIT A -1 INTO KL LOCATION 30 (EXEC VIRTUAL)
   7250					; TO SHUTDOWN TIMESHARING.
   7251					;
   7252					; INPUT ARGUMENTS:
   7253					;
   7254					;	NONE.
   7255					;
   7256					; OUTPUT ARGUMENTS:
   7257					;
   7258					;	NONE.
   7259					;
   7260					; ERROR CODES RETURNED:
   7261					;
   7262					;	NONE
   7263					;-
   7264
   7265	013740				.SHUTC::
   7266	013740					CALL	.CKEOC		; CHECK E-O-C
	013740	004737 	000000G			 JSR	PC,.CKEOC
   7267	013744	112737 	000001 	000000G		MOVB	#1,.NOHLT	; TELL RSX20F NOT TO PANIC OVER HALTED KL
   7268	013752	005046 				CLR	-(SP)		; CLEAR ADDRESS BUFFER
   7269	013754					PUSH	#30		; .SET THE ADDRESS UP
	013754	012746 	000030 			 MOV	#30,-(SP)
   7270	013760	010600 				MOV	SP,R0		; ..GET ADDRESS POINTER
   7271	013762					PUSH	#17		; ..SET UP DEPOSIT WORD
	013762	012746 	000017 			 MOV	#17,-(SP)
   7272	013766					PUSH	#-^D1		; ...
	013766	012746 	177777 			 MOV	#-^D1,-(SP)
   7273	013772					PUSH	(SP)		; ....
	013772	011646 				 MOV	(SP),-(SP)
   7274	013774	010601 				MOV	SP,R1		; .....SAVE THE POINTER
   7275	013776					PUSH	R1		; .....SET UP THE DATA BLOCK
	013776	010146 				 MOV	R1,-(SP)
   7276	014000					PUSH	R0		; ......
	014000	010046 				 MOV	R0,-(SP)
   7277	014002	010601 				MOV	SP,R1		; .......POINT TO THE BLOCK
   7278	014004	012700 	000040 			MOV	#ED.EXV,R0	; .......EXEC VIRTUAL REFERENCE
   7279	014010					CALL	.DPKLM		; .......DO THE DEPOSIT
	014010	004737 	000000G			 JSR	PC,.DPKLM
   7280	014014	062706 	000016 			ADD	#^D14,SP	; .......CLEAR THE STACK
   7281	014020					CALL	..DTP2		; START SECONDARY PROTOCOL
	014020	004737 	000000G			 JSR	PC,..DTP2
   7282	014024					CALLR	.EXITP		; EXIT THE PARSER
	014024	000137 	000000G			 JMP	.EXITP
   7283						;
SHUTC -- SHUTDOWN COMMAND MODUL	MACRO V05.04  Tuesday 17-May-88 14:36  Page 183
.SHUTC -- THE "SHUTDOWN" COMMAND 7707.12

   7285
   7286
   7287					.TITLE	STRTC -- START COMMAND DISPATCH MODULE 7603.30
   7288
   7289						.IDENT	"005000"
   7290
   7291					;
   7292					;                             COPYRIGHT (C) 1975, 1984, 1985 BY
   7293					;                     DIGITAL EQUIPMENT CORPORATION, MAYNARD MASS.
   7294					;			ALL RIGHTS RESERVED.
   7295					;       THIS SOFTWARE IS FURNISHED UNDER A LICENSE AND MAY BE  USED  AND  COPIED
   7296					;       ONLY IN ACCORDANCE WITH THE TERMS OF SUCH LICENSE AND WITH THE INCLUSION
   7297					;       OF THE ABOVE COPYRIGHT NOTICE.  THIS SOFTWARE OR ANY OTHER COPIES THERE-
   7298					;       OF  MAY NOT BE PROVIDED OR OTHERWISE MADE AVAILABLE TO ANY OTHER PERSON.
   7299					;       NO TITLE TO OR OWNERSHIP OF THE SOFTWARE IS HEREBY TRANSFERRED.
   7300					;
   7301					;       THE INFORMATION CONTAINED IN THIS SOFTWARE IS SUBJECT TO CHANGE  WITHOUT
   7302					;       NOTICE  AND SHOULD NOT BE CONSTRUED AS A COMMITMENT BY DIGITAL EQUIPMENT
   7303					;       CORPORATION.
   7304					;
   7305					;       DIGITAL ASSUMES NO RESPONSIBILITY FOR THE  USE  OR  RELIABILITY  OF  ITS
   7306					;       SOFTWARE ON EQUIPMENT WHICH IS NOT SUPPILED BY DIGITAL.
   7307					;
   7308					;		MODULE: START COMMAND DISPATCH
   7309					;
   7310					;		VERSION: 05-00
   7311					;
   7312					;		AUTHOR: R. BELANGER
   7313					;
   7314					;		DATE: 7603.30
   7315					;
   7316					;	THIS MODULE CONTAINS:
   7317					;
   7318					;	1) START COMMAND DISPATCH CODE
STRTC -- START COMMAND DISPATCH	MACRO V05.04  Tuesday 17-May-88 14:36  Page 184
.STRTC -- THE "START" COMMAND 7602.26

   7320					.SBTTL	.STRTC -- THE "START" COMMAND 7602.26
   7321
   7322					;+
   7323					; .STRTC -- THE "START" COMMAND.
   7324					;
   7325					; THIS IS THE TOP LEVEL OF THE "START" COMMAND, WHICH CHECKS FOR
   7326					; ARGUMENTS AND DISPATCHES TO THE PROPER LOWER LEVEL ROUTINE.
   7327					;
   7328					; INPUT ARGUMENTS:
   7329					;
   7330					;	NONE.
   7331					;
   7332					; OUTPUT ARGUMENTS:
   7333					;
   7334					;	NONE.
   7335					;
   7336					; ERROR CODES RETURNED:
   7337					;
   7338					;	NONE.
   7339					;-
   7340
   7341	014030				.STRTC::
   7342	014030					CALL	.CKARG		; LOOK FOR AN ARGUMENT
	014030	004737 	000000G			 JSR	PC,.CKARG
   7343	014034	001012 				BNE	.STRTT		; START THE TEN IF NUMERIC
   7344	014036	012700 	000000G			MOV	#.STRTB,R0	; TABLE POINTER TO R0
   7345	014042					CALL	.TSCAN		; SCAN THE TABLE
	014042	004737 	000000G			 JSR	PC,.TSCAN
   7346	014046					CALLR	@2(R0)		; DISPATCH FOR THE OBJECT
	014046	000170 	000002 			 JMP	@2(R0)
   7347						;
STRTC -- START COMMAND DISPATCH	MACRO V05.04  Tuesday 17-May-88 14:36  Page 185
.STRTT -- THE "START <TEN>" COMMAND 7710.11

   7349					.SBTTL	.STRTT -- THE "START <TEN>" COMMAND 7710.11
   7350
   7351					;+
   7352					; .STRTT -- THE "START <TEN>" COMMAND.
   7353					; .JUMPC -- THE "JUMP" COMMAND.
   7354					;
   7355					; THESE ROUTINES WILL START THE KL IN EXEC (KERNEL) MODE AT THE
   7356					; ADDRESS SPECIFIED IN THE INPUT STREAM.
   7357					;
   7358					; INPUT ARGUMENTS:
   7359					;
   7360					;	NONE.
   7361					;
   7362					; OUTPUT ARGUMENTS:
   7363					;
   7364					;	NONE.
   7365					;
   7366					; ERROR CODES RETURNED:
   7367					;
   7368					;	ILS -- ILLEGAL SEPARATOR CHARACTER
   7369					;	KLA -- KL ADDRESS ERROR
   7370					;	MRA -- MISSING REQUIRED ARGUMENT
   7371					;	SZI -- START AT ZERO ILLEGAL
   7372					;-
   7373
   7374						.MCALL	$DEF
   7375
   7376	014052					$DEF
STRTC -- START COMMAND DISPATCH	MACRO V05.04  Tuesday 17-May-88 14:36  Page 186
.STRTT -- THE "START <TEN>" COMMAND 7710.11

   7378						.ENABL	LSB
   7379
   7380	014052				.JUMPC::
   7381	014052					CALL	10$		; START THE KL
	014052	004737 	014066'			 JSR	PC,10$
   7382	014056	000137 	000000G			JMP	.EXITP		; AND EXIT FROM THE PARSER
   7383						;
   7384	014062				.STRTT::
   7385	014062					CALL	.CKRNP		; SEE IF THE KL IS RUNNING
	014062	004737 	000000G			 JSR	PC,.CKRNP
   7386	014066				10$:
   7387	014066	005046 				CLR	-(SP)		; CLEAR ADDRESS BUFFER
   7388	014070	005046 				CLR	-(SP)		; .
   7389	014072	005046 				CLR	-(SP)		; ..
   7390	014074	010600 				MOV	SP,R0		; ...POINTER TO R0
   7391	014076					CALL	.GTKLA		; ...GET THE START ADDRESS
	014076	004737 	000000G			 JSR	PC,.GTKLA
   7392	014102					CALL	.TPTST		; ...SEE IF IT IS NON ZERO
	014102	004737 	000000G			 JSR	PC,.TPTST
   7393	014106	001424 				BEQ	STASZI		; ...CAN'T START KL AT 0
   7394	014110					CALL	.CKEOC		; ...CHECK FOR E-O-C
	014110	004737 	000000G			 JSR	PC,.CKEOC
   7395	014114	032737 	000002 	000000G		BIT	#LG.PRG,.FEMOD	; ...ARE WE AT LEAST IN PROGRAMMER MODE??
   7396	014122	001402 				BEQ	20$		; ...NO -- JUST GO ON
   7397	014124					CALL	.ABORT		; ...YES -- START THE KL BY ANY MEANS
	014124	004737 	000004'			 JSR	PC,.ABORT
   7398	014130				20$:
   7399	014130	010001 				MOV	R0,R1		; ...POINTER FOR THE CALL
   7400	014132					CALL	.KLST		; ...START THE KL
	014132	004737 	000000G			 JSR	PC,.KLST
   7401	014136	062706 	000006 			ADD	#^D6,SP		; ...CLEAR THE STACK
   7402	014142	005037 	000000G			CLR	.NOERR		; LET RSX20F RECOGNIZE KL ERRORS
   7403	014146	052737 	000000G	000002G		BIS	#EF.CRI,.COMEF+2 ; DECLARE THE COMM REGION INVALID
   7404	014154					CALLR	..DTP2		; START UP SECONDARY PROTOCOL AND EXIT.
	014154	000137 	000000G			 JMP	..DTP2
   7405						;
   7406	014160				STASZI:
   7407	014160					ERROR$	SZI		; ERROR -- START AT ZERO ILLEGAL
	014160	012746 	075331 			 MOV	#^RSZI,-(SP)
	014164	104400 				 TRAP	TC.ERR
   7408						;
   7409
   7410						.DSABL	LSB
STRTC -- START COMMAND DISPATCH	MACRO V05.04  Tuesday 17-May-88 14:36  Page 187
.STRTU -- THE "START MICROCODE" COMMAND 7602.26

   7412					.SBTTL	.STRTU -- THE "START MICROCODE" COMMAND 7602.26
   7413
   7414					;+
   7415					; .STRTU -- THE "START MICROCODE" COMMAND.
   7416					;
   7417					; THIS ROUTINE STARTS THE KL MICROCODE AT THE ADDRESS SPECIFIED.
   7418					; IF NO ADDRESS IS SPECIFIED, 0000 IS ASSUMED.
   7419					;
   7420					; INPUT ARGUMENTS:
   7421					;
   7422					;	NONE.
   7423					;
   7424					; OUTPUT ARGUMENTS:
   7425					;
   7426					;	NONE.
   7427					;
   7428					; ERROR CODES RETURNED:
   7429					;
   7430					;	NONE.
   7431					;-
   7432
   7433	014166				.STRTU::
   7434	014166					CALL	.CKRUN		; SEE IF THE KL IS RUNNING
	014166	004737 	000000G			 JSR	PC,.CKRUN
   7435	014172	005000 				CLR	R0		; CLEAR R0 (FOR DEFAULT)
   7436	014174	111504 				MOVB	(R5),R4		; LOOK AT THE CURRENT CHARACTER
   7437	014176	132764 	000010 	000000G		BITB	#CH.EOC,.CHTAB(R4)
   7438	014204	001004 				BNE	10$		; DO DEFAULT START IF E-O-C
   7439	014206					CALL	.GTELN		; GO READ THE ADDRESS
	014206	004737 	000000G			 JSR	PC,.GTELN
   7440	014212					CALL	.CKEOC		; MUST HAVE E-O-C
	014212	004737 	000000G			 JSR	PC,.CKEOC
   7441	014216				10$:
   7442	014216	032737 	100000 	000000G		BIT	#KF.CLK,.KLFLG	; IS THE KL CLOCK ON?
   7443	014224	001402 				BEQ	20$		; NO -- JUST START THE MICROCODE
   7444	014226					CALL	.KLHLT		; YES -- STOP THE KL
	014226	004737 	000000G			 JSR	PC,.KLHLT
   7445	014232				20$:
   7446	014232					CALLR	.STUCD		; START THE KL MICROCODE AND RETURN
	014232	000137 	000000G			 JMP	.STUCD
   7447						;
STRTC -- START COMMAND DISPATCH	MACRO V05.04  Tuesday 17-May-88 14:36  Page 188
.STRTU -- THE "START MICROCODE" COMMAND 7602.26

   7449
   7450					.TITLE	SWCMD -- SET / CLEAR / WHAT COMMAND MODULE 7702.16
   7451
   7452						.IDENT	"007030"
   7453
   7454					;                             COPYRIGHT (C) 1975, 1984, 1985 BY
   7455					;                     DIGITAL EQUIPMENT CORPORATION, MAYNARD MASS.
   7456					;			ALL RIGHTS RESERVED.
   7457					;       THIS SOFTWARE IS FURNISHED UNDER A LICENSE AND MAY BE  USED  AND  COPIED
   7458					;       ONLY IN ACCORDANCE WITH THE TERMS OF SUCH LICENSE AND WITH THE INCLUSION
   7459					;       OF THE ABOVE COPYRIGHT NOTICE.  THIS SOFTWARE OR ANY OTHER COPIES THERE-
   7460					;       OF  MAY NOT BE PROVIDED OR OTHERWISE MADE AVAILABLE TO ANY OTHER PERSON.
   7461					;       NO TITLE TO OR OWNERSHIP OF THE SOFTWARE IS HEREBY TRANSFERRED.
   7462					;
   7463					;       THE INFORMATION CONTAINED IN THIS SOFTWARE IS SUBJECT TO CHANGE  WITHOUT
   7464					;       NOTICE  AND SHOULD NOT BE CONSTRUED AS A COMMITMENT BY DIGITAL EQUIPMENT
   7465					;       CORPORATION.
   7466					;
   7467					;       DIGITAL ASSUMES NO RESPONSIBILITY FOR THE  USE  OR  RELIABILITY  OF  ITS
   7468					;       SOFTWARE ON EQUIPMENT WHICH IS NOT SUPPILED BY DIGITAL.
   7469					;
   7470					;		MODULE: SET / CLEAR COMMAND
   7471					;
   7472					;		VERSION: 06-25
   7473					;
   7474					;		AUTHOR: R. BELANGER
   7475					;
   7476					;		DATE: 7702.16
   7477					;
   7478					;	THIS MODULE CONTAINS:
   7479					;
   7480					;	1) SET / CLEAR CONSOLE COMMAND CODE
   7481					;
   7482					;	MODIFICATIONS:
   7483					;
   7484					;	NO.	DATE		PROGRAMMER	REASON
   7485					;	---	----		----------	------
   7486					;	001	28-FEB-77	R. BELANGER	CHANGE "ECL" ERROR TO "CLE"
   7487					;    [5.1011]	19-OCT-79	R. BELANGER	ADD "WHAT HARDWARE" COMMAND
   7488					;	002	11-MAR-80	S. LEAPLINE	ADD "SET/CLEAR/WHAT FAULT"
   7489					;	003	05-NOV-80	S. LEAPLINE	ADD "SET/CLEAR/WHAT AUTO-TAKE"
   7490					;
   7491					;09-Jun-83  TCO 6.1675	D. Weaver
   7492					;	Remove the "SET/CLEAR/WHAT AUTO-TAKE".
   7493					;
SWCMD -- SET / CLEAR / WHAT COM	MACRO V05.04  Tuesday 17-May-88 14:36  Page 189
.SCCON -- THE " SET / CLEAR CONSOLE" COMMAND 7702.16

   7495					.SBTTL	.SCCON -- THE " SET / CLEAR CONSOLE" COMMAND 7702.16
   7496
   7497						.ENABL	LSB
   7498
   7499	014236				.SCCON::
   7500	014236	005737 	000000G			TST	.NOTSW		; IS THIS A CLEAR?
   7501	014242	001016 				BNE	10$		; YES -- SET OPERATOR
   7502	014244	132764 	000010 	000000G		BITB	#CH.EOC,.CHTAB(R4)
   7503	014252	001017 				BNE	.SCCOP		; E-O-C -- SET PROGRAMMER
   7504	014254					CALL	.CKOBJ		; MUST HAVE AN OBJECT
	014254	004737 	000000G			 JSR	PC,.CKOBJ
   7505	014260	012700 	000000G			MOV	#.SCCOT,R0	; TABLE POINTER TO R0
   7506	014264					CALL	.TSCAN		; SCAN THE TABLE
	014264	004737 	000000G			 JSR	PC,.TSCAN
   7507	014270					CALL	.CKEOC		; MUST HAVE E-O-C
	014270	004737 	000000G			 JSR	PC,.CKEOC
   7508	014274					CALLR	@2(R0)		; EXECUTE THE COMMAND
	014274	000170 	000002 			 JMP	@2(R0)
   7509						;
   7510	014300				10$:
   7511	014300					CALL	.CKEOC		; MUST HAVE E-O-C IF CLEAR
	014300	004737 	000000G			 JSR	PC,.CKEOC
   7512	014304				.SCCOO::
   7513	014304	012701 	000001 			MOV	#LG.OPR,R1	; OPERATOR CONSULE
   7514	014310	000405 				BR	20$		; EXIT
   7515						;
   7516	014312				.SCCOP::
   7517	014312	012701 	000003 			MOV	#LG.PRM,R1	; PROGRAMMER CONSOLE
   7518	014316	000402 				BR	20$		; EXIT
   7519						;
   7520	014320				.SCCOM::
   7521	014320	012701 	000007 			MOV	#LG.ALL,R1	; MAINTENANCE CONSOLE
   7522	014324				20$:
   7523	014324	105737 	000000G			TSTB	.KLNSW+0	; +++001 IS REMOTE KLINIK MODE ENABLED?
   7524	014330	003403 				BLE	30$		; +++001 NO -- GO ON
   7525	014332	120137 	000001G			CMPB	R1,.KLNMD+1	; +++001 YES -- CAN WE DO THIS?
   7526	014336	003005 				BGT	SCCCLE		; NO -- GIVE "CLE" ERROR
   7527	014340				30$:
   7528	014340	010137 	000000G			MOV	R1,.FEMOD	; YES -- SET THE CONSOLE MODE
   7529	014344	000405 				BR	.WHCON		; PRINT CONSOLE MODE AND EXIT
   7530						;
   7531	014346				.SCCOU::
   7532	014346					CALLR	.EXITP		; EXIT TO USER CONSOLE
	014346	000137 	000000G			 JMP	.EXITP
   7533						;
   7534	014352				SCCCLE:
   7535	014352					ERROR$	CLE		; ERROR -- CONSOLE LIMIT EXCEEDED
	014352	012746 	012245 			 MOV	#^RCLE,-(SP)
	014356	104400 				 TRAP	TC.ERR
   7536						;
   7537
   7538						.DSABL	LSB
SWCMD -- SET / CLEAR / WHAT COM	MACRO V05.04  Tuesday 17-May-88 14:36  Page 190
.WHCON -- THE "WHAT CONSOLE" COMMAND 7607.14

   7540					.SBTTL	.WHCON -- THE "WHAT CONSOLE" COMMAND 7607.14
   7541
   7542	014360				.WHCON::
   7543	014360	012700 	002666'			MOV	#WCMMSG,R0	; MESSAGE POINTER TO R0
   7544	014364					CALL	.TYMSG		; PRINT IT
	014364	004737 	000000G			 JSR	PC,.TYMSG
   7545	014370	013701 	000000G			MOV	.FEMOD,R1	; MODE WORD TO R1
   7546	014374	012700 	000000G			MOV	#MNTMSG,R0	; MAINTENANCE
   7547	014400	032701 	000004 			BIT	#LG.MNT,R1	; IS IT ON?
   7548	014404	001007 				BNE	10$		; YES -- SAY SO
   7549	014406	012700 	000000G			MOV	#PRGMSG,R0	; NO -- PROGRAMMER?
   7550	014412	032701 	000002 			BIT	#LG.PRG,R1	; IS IT ON?
   7551	014416	001002 				BNE	10$		; YES -- SAY SO
   7552	014420	012700 	000000G			MOV	#OPRMSG,R0	; NO -- MUST BE OPERATOR
   7553	014424				10$:
   7554	014424					CALLR	.TYLIN		; YES -- PRINT AND EXIT
	014424	000137 	000000G			 JMP	.TYLIN
   7555						;
   7556
   7557	002666				.PSECT	MESSAG
   7558
   7559	002666				WCMMSG:
   7560	002666	   040 	   103 	   117 		.ASCIZ	% CONSOLE MODE: %
	002671	   116 	   123 	   117
	002674	   114 	   105 	   040
	002677	   115 	   117 	   104
	002702	   105 	   072 	   040
	002705	   000
   7561
   7562	014430				.PSECT
SWCMD -- SET / CLEAR / WHAT COM	MACRO V05.04  Tuesday 17-May-88 14:36  Page 191
.SCINC -- THE "SET / CLEAR INCREMENT" COMMAND 7606.20

   7564					.SBTTL	.SCINC -- THE "SET / CLEAR INCREMENT" COMMAND 7606.20
   7565
   7566	014430				.SCINC::			; SET/CLEAR "INCREMENT"
   7567	014430	005737 	000000G			TST	.NOTSW		; IS THIS A CLEAR?
   7568	014434	001016 				BNE	10$		; YES -- JUST CLEAR IT
   7569	014436	005046 				CLR	-(SP)		; NO -- CLEAR A BUFFER ON THE STACK
   7570	014440	005046 				CLR	-(SP)		; .
   7571	014442	005046 				CLR	-(SP)		; ..
   7572	014444	010600 				MOV	SP,R0		; ...POINT TO THE BUFFER
   7573	014446					CALL	.GTNUM		; ...READ THE NUMBER
	014446	004737 	000000G			 JSR	PC,.GTNUM
   7574	014452					CALL	.CKEOC		; ...MUST HAVE E-O-C
	014452	004737 	000000G			 JSR	PC,.CKEOC
   7575	014456	012701 	000000G			MOV	#.KLINC,R1	; ...POINT TO THE INCREMENT
   7576	014462					POP	(R1)+		; ...LOAD THE NEW INCREMENT
	014462	012621 				 MOV	(SP)+,(R1)+
   7577	014464					POP	(R1)+		; ..
	014464	012621 				 MOV	(SP)+,(R1)+
   7578	014466					POP	(R1)		; .
	014466	012611 				 MOV	(SP)+,(R1)
   7579	014470	000406 				BR	20$		; AND EXIT
   7580						;
   7581	014472				10$:
   7582	014472					CALL	.CKEOC		; MUST HAVE E-O-C
	014472	004737 	000000G			 JSR	PC,.CKEOC
   7583	014476	012700 	000000G			MOV	#.KLINC,R0	; POINT TO THE  INCREMENT
   7584	014502					CALL	.TPCLR		; CLEAR IT
	014502	004737 	000000G			 JSR	PC,.TPCLR
   7585	014506				20$:
   7586					;	BR	.WHINC		; PRINT INCREMENT AND EXIT
   7587						;
SWCMD -- SET / CLEAR / WHAT COM	MACRO V05.04  Tuesday 17-May-88 14:36  Page 192
.WHINC -- THE "WHAT INCREMENT" COMMAND 7703.25

   7589					.SBTTL	.WHINC -- THE "WHAT INCREMENT" COMMAND 7703.25
   7590
   7591						.ENABL	LSB
   7592
   7593	014506				.WHINC::
   7594	014506	012700 	002706'			MOV	#WHIMSG,R0	; MESSAGE POINTER TO R0
   7595	014512	012701 	000000G			MOV	#.KLINC,R1	; INREMENT POINTER
   7596	014516	000412 				BR	10$		; DO COMMON CODE
   7597						;
   7598	014520				.WHRPT::
   7599	014520	013737 	000000G	000000G		MOV	.ORADX,.RDXSV	; SAVE CURRENT OUTPUT RADIX
   7600	014526	012737 	000012 	000000G		MOV	#^D10,.ORADX	; SET IT TO DECIMAL
   7601	014534	012700 	002726'			MOV	#WHRMSG,R0	; MESSAGE POINTER TO R0
   7602	014540	012701 	000000G			MOV	#.RPTCT,R1	; REPEAT POINTER
   7603	014544				10$:
   7604	014544					CALL	.TYMSG		; PRINT THE MESSAGE
	014544	004737 	000000G			 JSR	PC,.TYMSG
   7605	014550	005037 	000000G			CLR	.LDZFL		; NO LEADING ZEROES
   7606	014554	010100 				MOV	R1,R0		; POINTER TO R0
   7607	014556					CALL	.TYKLN		; PRINT THE NUMBER
	014556	004737 	000000G			 JSR	PC,.TYKLN
   7608	014562	013737 	000000G	000000G		MOV	.RDXSV,.ORADX	; RESET THE OUTPUT RADIX
   7609	014570					CALLR	.TCRLF		; END THE LINE AND EXIT
	014570	000137 	000000G			 JMP	.TCRLF
   7610						;
   7611
   7612						.DSABL	LSB
   7613
   7614	002706				.PSECT	MESSAG
   7615
   7616	002706				WHIMSG:
   7617	002706	   040 	   113 	   114 		.ASCIZ	% KL INCREMENT: %
	002711	   040 	   111 	   116
	002714	   103 	   122 	   105
	002717	   115 	   105 	   116
	002722	   124 	   072 	   040
	002725	   000
   7618	002726				WHRMSG:
   7619	002726	   040 	   122 	   105 		.ASCIZ	% REPEAT COUNT: %
	002731	   120 	   105 	   101
	002734	   124 	   040 	   103
	002737	   117 	   125 	   116
	002742	   124 	   072 	   040
	002745	   000
   7620	014574				.PSECT
SWCMD -- SET / CLEAR / WHAT COM	MACRO V05.04  Tuesday 17-May-88 14:36  Page 193
.SCMEM -- THE "SET / CLEAR MEMORY" COMMAND 7607.08

   7622					.SBTTL	.SCMEM -- THE "SET / CLEAR MEMORY" COMMAND 7607.08
   7623
   7624						.ENABL	LSB
   7625
   7626	014574				.SCMEM::			; SET / CLEAR "MEMORY"
   7627	014574	005737 	000000G			TST	.NOTSW		; IS THIS A CLEAR?
   7628	014600	001015 				BNE	10$		; YES -- GO DO THE CLEAR
   7629	014602					CALL	.CKOBJ		; NO -- MUST HAVE AN OBJECT
	014602	004737 	000000G			 JSR	PC,.CKOBJ
   7630	014606	012700 	000000G			MOV	#.SCMTB,R0	; TABLE POINTER TO R0
   7631	014612					CALL	.TSCAN		; SCAN IT
	014612	004737 	000000G			 JSR	PC,.TSCAN
   7632	014616					CALL	.CKEOC		; MUST BE E-O-C
	014616	004737 	000000G			 JSR	PC,.CKEOC
   7633	014622					CALLR	@2(R0)		; DISPATCH FOR OBJECT
	014622	000170 	000002 			 JMP	@2(R0)
   7634						;
   7635	014626				.SCMEL::			; SET MEMORY ELEVEN
   7636	014626	012700 	000002 			MOV	#^D2,R0		; ELEVEN OFFSET IS 2
   7637	014632	000403 				BR	20$		; DO COMMON STUFF
   7638	014634				10$:
   7639	014634					CALL	.CKEOC		; MUST HAVE E-O-C TO CLEAR
	014634	004737 	000000G			 JSR	PC,.CKEOC
   7640	014640				.SCMKL::
   7641	014640	005000 				CLR	R0		; TEN OFFSET IS 0
   7642	014642				20$:
   7643	014642	010037 	000000G			MOV	R0,.MEMFL	; SET THE FLAG
   7644					;	BR	.WHMEM		; AND EXIT
   7645						;
   7646
   7647						.DSABL	LSB
SWCMD -- SET / CLEAR / WHAT COM	MACRO V05.04  Tuesday 17-May-88 14:36  Page 194
.WHMEM -- THE "WHAT MEMORY" COMMAND 7603.21

   7649					.SBTTL	.WHMEM -- THE "WHAT MEMORY" COMMAND 7603.21
   7650
   7651	014646				.WHMEM::
   7652	014646	012700 	002746'			MOV	#WHMMSG,R0	; MESSAGE POINTER TO R0
   7653	014652					CALL	.TYMSG		; TYPE IT
	014652	004737 	000000G			 JSR	PC,.TYMSG
   7654	014656	012700 	000000G			MOV	#TENMSG,R0	; ASSUME TEN
   7655	014662	005737 	000000G			TST	.MEMFL		; IS IT "TEN"
   7656	014666	001402 				BEQ	10$		; YES -- SAY SO
   7657	014670	012700 	000000G			MOV	#ELEMSG,R0	; NO -- SAY "ELEVEN"
   7658	014674				10$:
   7659	014674					CALLR	.TYLIN		; PRINT AND EXIT
	014674	000137 	000000G			 JMP	.TYLIN
   7660						;
   7661
   7662	002746				.PSECT	MESSAG
   7663
   7664	002746				WHMMSG:
   7665	002746	   040 	   115 	   105 		.ASCIZ	% MEMORY: %
	002751	   115 	   117 	   122
	002754	   131 	   072 	   040
	002757	   000
   7666
   7667	014700				.PSECT
SWCMD -- SET / CLEAR / WHAT COM	MACRO V05.04  Tuesday 17-May-88 14:36  Page 195
.SCOFS -- THE "SET / CLEAR OFFSET" COMMAND 7602.19

   7669					.SBTTL	.SCOFS -- THE "SET / CLEAR OFFSET" COMMAND 7602.19
   7670
   7671	014700				.SCOFS::			; SET/CLEAR "OFFSET"
   7672	014700	012700 	000000G			MOV	#.APRWD,R0	; DEFAULT OFFSET
   7673	014704	005737 	000000G			TST	.NOTSW		; IS THIS A CLEAR?
   7674	014710	001002 				BNE	10$		; YES -- JUST EXIT
   7675	014712					CALL	.GTELN		; NO -- READ NEW OFFSET
	014712	004737 	000000G			 JSR	PC,.GTELN
   7676	014716				10$:
   7677	014716					CALL	.CKEOC		; MUST HAVE E-O-C
	014716	004737 	000000G			 JSR	PC,.CKEOC
   7678	014722	010037 	000000G			MOV	R0,.RELWD	; SET IT
   7679					;	BR	.WHOFS		; PRINT IT AND RETURN
   7680						;
SWCMD -- SET / CLEAR / WHAT COM	MACRO V05.04  Tuesday 17-May-88 14:36  Page 196
.WHOFS -- THE "WHAT OFFSET" COMMAND 7603.20

   7682					.SBTTL	.WHOFS -- THE "WHAT OFFSET" COMMAND 7603.20
   7683
   7684	014726				.WHOFS::
   7685	014726	012700 	002760'			MOV	#WHOMSG,R0	; MESSAGE POINTER TO R0
   7686	014732					CALL	.TYMSG		; PRINT IT
	014732	004737 	000000G			 JSR	PC,.TYMSG
   7687	014736	013700 	000000G			MOV	.RELWD,R0	; OFFSET TO R0
   7688	014742					CALL	.TYELA		; PRINT IT
	014742	004737 	000000G			 JSR	PC,.TYELA
   7689	014746					CALLR	.TCRLF		; END THE LINE AND EXIT
	014746	000137 	000000G			 JMP	.TCRLF
   7690						;
   7691
   7692	002760				.PSECT	MESSAG
   7693
   7694	002760				WHOMSG:
   7695	002760	   040 	   120 	   104 		.ASCIZ	% PDP-11 OFFSET: %
	002763	   120 	   055 	   061
	002766	   061 	   040 	   117
	002771	   106 	   106 	   123
	002774	   105 	   124 	   072
	002777	   040 	   000
   7696	014752				.PSECT
SWCMD -- SET / CLEAR / WHAT COM	MACRO V05.04  Tuesday 17-May-88 14:36  Page 197
.SCRLD -- THE "SET / CLEAR RELOAD" COMMAND 7602.19

   7698					.SBTTL	.SCRLD -- THE "SET / CLEAR RELOAD" COMMAND 7602.19
   7699
   7700	014752				.SCRLD::			; SET/CLEAR "RELOAD"
   7701	014752					CALL	.CKEOC		; MUST HAVE E-O-C
	014752	004737 	000000G			 JSR	PC,.CKEOC
   7702	014756	113737 	000000G	000000G		MOVB	.NOTSW,.KLRLD	; SET/CLEAR THE SWITCH
   7703	014764	000413 				BR	.WHRLD		; PRINT THE STATE AND EXIT
   7704						;
SWCMD -- SET / CLEAR / WHAT COM	MACRO V05.04  Tuesday 17-May-88 14:36  Page 198
.SCRTY -- THE "SET / CLEAR RETRY" COMMAND 7-DEC-78

   7706					.SBTTL	.SCRTY -- THE "SET / CLEAR RETRY" COMMAND 7-DEC-78
   7707
   7708	014766				.SCRTY::			;[TCO 4.2107] SET/CLEAR "RETRY"
   7709	014766					CALL	.CKEOC		;[TCO 4.2107] MUST HAVE E-O-C
	014766	004737 	000000G			 JSR	PC,.CKEOC
   7710	014772	012701 	000001 			MOV	#1,R1		;[TCO 4.2107] DEFAULT IS SET
   7711	014776	005737 	000000G			TST	.NOTSW		;[TCO 4.2107] IS THIS A CLEAR
   7712	015002	001401 				BEQ	10$		;[TCO 4.2107] NO -- GO ON
   7713	015004	005001 				CLR	R1		;[TCO 4.2107] YES -- CLEAR FLAG
   7714	015006	010137 	000000G		10$:	MOV	R1,.KACFL	;[TCO 4.2107] SET/CLEAR FLAG
   7715	015012	000412 				BR	.WHRTY		;[TCO 4.2107] PRINT STATE AND EXIT
   7716						;
SWCMD -- SET / CLEAR / WHAT COM	MACRO V05.04  Tuesday 17-May-88 14:36  Page 199
.WHRLD -- THE "WHAT RELOAD" COMMAND 7603.21

   7718					.SBTTL	.WHRLD -- THE "WHAT RELOAD" COMMAND 7603.21
   7719
   7720						.ENABL	LSB
   7721
   7722	015014				.WHRLD::
   7723	015014	012700 	003001'			MOV	#WRLMSG,R0	; MESSAGE POINTER TO R0
   7724	015020					CALL	.TYMSG		; PRINT IT
	015020	004737 	000000G			 JSR	PC,.TYMSG
   7725	015024	012700 	000000G			MOV	#OFFMSG,R0	; ASSUME "OFF"
   7726	015030	105737 	000000G			TSTB	.KLRLD		; IS IT OFF?
   7727	015034	001014 				BNE	20$		; YES -- GO ON
   7728	015036	000411 				BR	10$		; NO -- SAY SO
   7729						;
SWCMD -- SET / CLEAR / WHAT COM	MACRO V05.04  Tuesday 17-May-88 14:36  Page 200
.WHRTY -- THE "WHAT RETRY" COMMAND 7-DEC-78

   7731					.SBTTL	.WHRTY -- THE "WHAT RETRY" COMMAND 7-DEC-78
   7732
   7733	015040				.WHRTY::			; [TCO 4.2107] WHAT RETRY COMMAND ENTRY
   7734	015040	012700 	003022'			MOV	#WRTMSG,R0	; [TCO 4.2107] MESSAGE POINTER
   7735	015044					CALL	.TYMSG		; [TCO 4.2107] PRINT IT
	015044	004737 	000000G			 JSR	PC,.TYMSG
   7736	015050	012700 	000000G			MOV	#OFFMSG,R0	; [TCO 4.2107] ASSUME OFF
   7737	015054	005737 	000000G			TST	.KACFL		; [TCO 4.2107] IS IT SET?
   7738	015060	001402 				BEQ	20$		; [TCO 4.2107] NO -- GO ON
   7739	015062				10$:
   7740	015062	012700 	000000G			MOV	#ONMSG,R0	; [TCO 4.2107] YES -- CHANGE MESSAGE
   7741	015066				20$:
   7742	015066					CALLR	.TYLIN		; [TCO 4.2107] PRINT AND EXIT
	015066	000137 	000000G			 JMP	.TYLIN
   7743						;
   7744
   7745						.DSABL	LSB
   7746
   7747	003001				.PSECT	MESSAG
   7748
   7749	003001				WRLMSG:
   7750	003001	   040 	   122 	   105 		.ASCIZ	% RELOAD ENABLE: %
	003004	   114 	   117 	   101
	003007	   104 	   040 	   105
	003012	   116 	   101 	   102
	003015	   114 	   105 	   072
	003020	   040 	   000
   7751	003022				WRTMSG:
   7752	003022	   040 	   122 	   105 		.ASCIZ	% RETRY ENABLE: %
	003025	   124 	   122 	   131
	003030	   040 	   105 	   116
	003033	   101 	   102 	   114
	003036	   105 	   072 	   040
	003041	   000
   7753	015072				.PSECT
SWCMD -- SET / CLEAR / WHAT COM	MACRO V05.04  Tuesday 17-May-88 14:36  Page 201
.SCRPT -- THE "SET / CLEAR REPEAT" COMMAND 7703.25

   7755					.SBTTL	.SCRPT -- THE "SET / CLEAR REPEAT" COMMAND 7703.25
   7756
   7757	015072				.SCRPT::
   7758	015072	013737 	000000G	000000G		MOV	.IRADX,.RDXSV	; SAVE CURRENT INPUT RADIX
   7759	015100	012737 	000012 	000000G		MOV	#^D10,.IRADX	; SET IT TO DECIMAL
   7760	015106	005046 				CLR	-(SP)		; CLEAR A BUFFER ON THE STACK
   7761	015110	005046 				CLR	-(SP)		; .
   7762	015112	005046 				CLR	-(SP)		; ..
   7763	015114	010600 				MOV	SP,R0		; ...POINT TO THE BUFFER
   7764	015116	005737 	000000G			TST	.NOTSW		; ...IS THIS A CLEAR?
   7765	015122	001002 				BNE	10$		; ...YES -- DO THE CLEAR
   7766	015124					CALL	.GTKLN		; ...NO -- READ THE NEW REPEAT COUNT
	015124	004737 	000000G			 JSR	PC,.GTKLN
   7767	015130				10$:
   7768	015130					CALL	.CKEOC		; ...MUST HAVE E-O-C
	015130	004737 	000000G			 JSR	PC,.CKEOC
   7769	015134	012701 	000000G			MOV	#.RPTCT,R1	; ...POINT TO THE CURRENT REPEAT COUNT
   7770	015140					POP	<(R1)+,(R1)+,(R1)>
	015140	012621 				 MOV	(SP)+,(R1)+
	015142	012621 				 MOV	(SP)+,(R1)+
	015144	012611 				 MOV	(SP)+,(R1)
   7771	015146	013700 	000000G			MOV	.RPTPT,R0	; POINT TO THE STACKED REPEAT COUNT
   7772	015152					CALL	.TPCLR		; CLEAR IT OUT
	015152	004737 	000000G			 JSR	PC,.TPCLR
   7773	015156	013737 	000000G	000000G		MOV	.RDXSV,.IRADX	; RESET INPUT RADIX
   7774	015164					CALLR	.WHRPT		; PRINT THE NEW REPEAT COUNT AND EXIT
	015164	000137 	014520'			 JMP	.WHRPT
   7775						;
SWCMD -- SET / CLEAR / WHAT COM	MACRO V05.04  Tuesday 17-May-88 14:36  Page 202
.SCTRK -- THE "SET / CLEAR TRACK" COMMAND 7602.19

   7777					.SBTTL	.SCTRK -- THE "SET / CLEAR TRACK" COMMAND 7602.19
   7778
   7779	015170				.SCTRK::			; SET/CLEAR "TRACK"
   7780	015170					CALL	.CKEOC		; MUST HAVE E-O-C
	015170	004737 	000000G			 JSR	PC,.CKEOC
   7781	015174	005001 				CLR	R1		; CLEAR R1
   7782	015176	005737 	000000G			TST	.NOTSW		; IS THIS A CLEAR?
   7783	015202	001001 				BNE	10$		; YES -- GO ON
   7784	015204	005101 				COM	R1		; NO -- INVERT THE SWITCH
   7785	015206				10$:
   7786	015206	010137 	000000G			MOV	R1,.TRKWD	; SET/CLEAR THE SWITCH
   7787					;	BR	.WHTRK		; PRINT STATE AND RETURN
   7788						;
SWCMD -- SET / CLEAR / WHAT COM	MACRO V05.04  Tuesday 17-May-88 14:36  Page 203
.WHTRK -- THE "WHAT TRACKS" COMMAND 7603.20

   7790					.SBTTL	.WHTRK -- THE "WHAT TRACKS" COMMAND 7603.20
   7791
   7792						.ENABL	LSB
   7793
   7794	015212				.WHTRK::
   7795	015212	012700 	003042'			MOV	#WHTMSG,R0	; MESSAGE POINTER TO R0
   7796	015216					CALL	.TYMSG		; PRINT IT
	015216	004737 	000000G			 JSR	PC,.TYMSG
   7797	015222	012700 	000000G			MOV	#ONMSG,R0	; ASSUME "ON"
   7798	015226	005737 	000000G			TST	.TRKWD		; IS IT ON?
   7799	015232	001021 				BNE	10$		; YES -- GO ON
   7800	015234	012700 	000000G			MOV	#OFFMSG,R0	; NO -- SAY SO
   7801	015240	000416 				BR	10$		; PRINT AND EXIT
   7802						;
   7803
SWCMD -- SET / CLEAR / WHAT COM	MACRO V05.04  Tuesday 17-May-88 14:36  Page 204
.WHATV -- THE "WHAT VERSION" COMMAND 7607.21

   7805					.SBTTL	.WHATV -- THE "WHAT VERSION" COMMAND 7607.21
   7806
   7807	015242				.WHATV::
   7808	015242	012700 	003062'			MOV	#WVMSG1,R0	; MESSAGE POINTER TO R0
   7809	015246					CALL	.TYMSG		; PRINT THAT
	015246	004737 	000000G			 JSR	PC,.TYMSG
   7810	015252	012700 	000000G			MOV	#CPVMSG,R0	; PARSER VERSION NUMBER
   7811	015256					CALL	.TYLIN		; PRINT IT
	015256	004737 	000000G			 JSR	PC,.TYLIN
   7812	015262	012700 	003104'			MOV	#WVMSG2,R0	; MESSAGE POINTER TO R0
   7813	015266					CALL	.TYMSG		; PRINT IT
	015266	004737 	000000G			 JSR	PC,.TYMSG
   7814	015272	012700 	000000G			MOV	#.VERNO,R0	; POINTER TO RSX20F ASCIZ VERSION NUMBER
   7815	015276				10$:
   7816	015276					CALLR	.TYLIN		; PRINT IT AND EXIT
	015276	000137 	000000G			 JMP	.TYLIN
   7817						;
   7818
   7819	003042				.PSECT	MESSAG
   7820
   7821	003042				WHTMSG:
   7822	003042	   040 	   124 	   122 		.ASCIZ	% TRACK ENABLE: %
	003045	   101 	   103 	   113
	003050	   040 	   105 	   116
	003053	   101 	   102 	   114
	003056	   105 	   072 	   040
	003061	   000
   7823	003062				WVMSG1:
   7824	003062	   040 	   120 	   101 		.ASCIZ	% PARSER VERSION: %
	003065	   122 	   123 	   105
	003070	   122 	   040 	   126
	003073	   105 	   122 	   123
	003076	   111 	   117 	   116
	003101	   072 	   040 	   000
   7825	003104				WVMSG2:
   7826	003104	   040 	   122 	   123 		.ASCIZ	% RSX20F VERSION: %
	003107	   130 	   062 	   060
	003112	   106 	   040 	   126
	003115	   105 	   122 	   123
	003120	   111 	   117 	   116
	003123	   072 	   040 	   000
   7827
   7828	015302				.PSECT
   7829
   7830						.DSABL	LSB
SWCMD -- SET / CLEAR / WHAT COM	MACRO V05.04  Tuesday 17-May-88 14:36  Page 205
.WHRDW -- DISPLAY KL10 HARDWARE ENVIRONMENT 7910.18

   7832					.SBTTL	.WHRDW -- DISPLAY KL10 HARDWARE ENVIRONMENT 7910.18
   7833
   7834					;+
   7835					; .WHRDW -- DISPLAY KL10 HARDWARE ENVIRONMENT
   7836					;
   7837					; THIS SUBROUTINE WILL DISPLAY THE KL10 HARDWARE ENVIRONMENT DETERMINED
   7838					; FROM THE CONTENT OF ".CPUSN" AND ".HRDWR" IN THE FRONT-END STATUS BLOCK.
   7839					;
   7840					;	THIS ROUTINE WAS ADDED FOR TCO 5.1011
   7841					;
   7842					; INPUT ARGUMENTS:
   7843					;
   7844					;	NONE.
   7845					;
   7846					; OUTPUT ARGUMENTS:
   7847					;
   7848					;	NONE.
   7849					;
   7850					; ERROR CODES RETURNED:
   7851					;
   7852					;	CRH -- CAN'T READ HARDWARE OPTIONS
   7853					;	MRH -- HARDWARE OPTIONS MUST YET BE READ
   7854					;-
   7855
   7856	015302				.WHRDW::
   7857	015302	005737 	000000G			TST	.CPUSN		; DO WE HAVE THE HARDWARE OPTIONS??
   7858	015306	001474 				BEQ	WHRMRH		; NO -- MUST BE READ BY KLINIT
   7859	015310	002476 				BLT	WHRCRH		; NO -- CAN'T BE READ
   7860	015312	012700 	003126'			MOV	#WHHMS0,R0	; YES -- SET UP PREAMBLE
   7861	015316					CALL	.TYMSG		; PRINT IT
	015316	004737 	000000G			 JSR	PC,.TYMSG
   7862	015322	013700 	000000G			MOV	.CPUSN,R0	; GET THE SERIAL NUMBER
   7863	015326					PUSH	.ORADX		; SAVE CURRENT RADIX
	015326	013746 	000000G			 MOV	.ORADX,-(SP)
   7864	015332	012737 	000012 	000000G		MOV	#^D10,.ORADX	; .SET RADIX TO DECIMAL
   7865	015340					CALL	.TYELN		; .PRINT IT
	015340	004737 	000000G			 JSR	PC,.TYELN
   7866	015344	012700 	003142'			MOV	#WHHMS1,R0	; .MODEL PREAMBLE TO R0
   7867	015350					CALL	.TYMSG		; .PRINT IT
	015350	004737 	000000G			 JSR	PC,.TYMSG
   7868	015354	012700 	000101 			MOV	#'A,R0		; .ASSUME A MODEL "A"
   7869	015360	032737 	000000G	000000G		BIT	#H.KEXT,.HRDWR	; .IS IT A MODEL "A"??
   7870	015366	001401 				BEQ	10$		; .YES -- GO ON
   7871	015370	005200 				INC	R0		; .NO -- SET IT TO "B"
   7872	015372				10$:
   7873	015372					CALL	.TYCHR		; .AND PRINT IT
	015372	004737 	000000G			 JSR	PC,.TYCHR
   7874	015376					CALL	.TYCOM		; .PRINT COMMA
	015376	004737 	000000G			 JSR	PC,.TYCOM
   7875	015402					CALL	.TYSPC		; .AND A SPACE
	015402	004737 	000000G			 JSR	PC,.TYSPC
   7876	015406	012700 	000074 			MOV	#^D60,R0	; .ASSUME 60 HERTZ
   7877	015412	032737 	000000G	000000G		BIT	#H.KPWR,.HRDWR	; .IS IT 60 HERTZ??
   7878	015420	001402 				BEQ	20$		; .YES -- GO ON
   7879	015422	162700 	000012 			SUB	#^D10,R0	; .NO -- MAKE IT 50
   7880	015426				20$:
   7881	015426					CALL	.TYELN		; .PRINT POWER FREQUENCY
SWCMD -- SET / CLEAR / WHAT COM	MACRO V05.04  Tuesday 17-May-88 14:36  Page 205-1
.WHRDW -- DISPLAY KL10 HARDWARE ENVIRONMENT 7910.18

	015426	004737 	000000G			 JSR	PC,.TYELN
   7882	015432					POP	.ORADX		; RESTORE RADIX
	015432	012637 	000000G			 MOV	(SP)+,.ORADX
   7883	015436	012700 	003154'			MOV	#WHHMS2,R0	; END OF LINE
   7884	015442					CALL	.TYLIN		; PRINT THE LINE
	015442	004737 	000000G			 JSR	PC,.TYLIN
   7885	015446	012702 	000004 			MOV	#4,R2		; ITERATION COUNT TO R2
   7886	015452	012703 	001060'			MOV	#WHWTAB,R3	; TABLE POINTER TO R3
   7887	015456				30$:
   7888	015456	012300 				MOV	(R3)+,R0	; MESSAGE POINTER TO R0
   7889	015460	032337 	000000G			BIT	(R3)+,.HRDWR	; IS THE OPTION PRESENT??
   7890	015464	001402 				BEQ	40$		; NO -- GO ON
   7891	015466					CALL	.TYLIN		; YES -- SAY SO
	015466	004737 	000000G			 JSR	PC,.TYLIN
   7892	015472				40$:
   7893	015472	077207 				SOB	R2,30$		; LOOP THROUGH ALL OPTIONS
   7894	015474					CALLR	.TCRLF		; END THE LINE AND EXIT
	015474	000137 	000000G			 JMP	.TCRLF
   7895						;
   7896	015500				WHRMRH:
   7897	015500					ERROR$	MRH		; MUST READ HARDWARE
	015500	012746 	052030 			 MOV	#^RMRH,-(SP)
	015504	104400 				 TRAP	TC.ERR
   7898						;
   7899	015506				WHRCRH:
   7900	015506					ERROR$	CRH		; CAN'T READ HARDWARE
	015506	012746 	012630 			 MOV	#^RCRH,-(SP)
	015512	104400 				 TRAP	TC.ERR
   7901						;
   7902
   7903	001060					.PSECT	DATA
   7904
   7905	001060				WHWTAB:
   7906	001060	003164'	000000G			.WORD	WHHMS3,H.KMOS
   7907	001064	003213'	000000G			.WORD	WHHMS4,H.KEXT
   7908	001070	003240'	000000G			.WORD	WHHMS5,H.KCHN
   7909	001074	003263'	000000G			.WORD	WHHMS6,H.KCAC
   7910
   7911	003126					.PSECT	MESSAG
   7912
   7913	003126				WHHMS0:
   7914	003126	   040 	   113 	   114 		.ASCIZ	% KL10 S/N: %
	003131	   061 	   060 	   040
	003134	   123 	   057 	   116
	003137	   072 	   040 	   000
   7915	003142				WHHMS1:
   7916	003142	   056 	   054 	   040 		.ASCIZ	%., MODEL %
	003145	   115 	   117 	   104
	003150	   105 	   114 	   040
	003153	   000
   7917	003154				WHHMS2:
   7918	003154	   056 	   040 	   110 		.ASCIZ	%. HERTZ%
	003157	   105 	   122 	   124
	003162	   132 	   000
   7919	003164				WHHMS3:
   7920	003164	   011 	   115 	   117 		.ASCIZ	%	MOS MASTER OSCILLATOR%
	003167	   123 	   040 	   115
SWCMD -- SET / CLEAR / WHAT COM	MACRO V05.04  Tuesday 17-May-88 14:36  Page 205-2
.WHRDW -- DISPLAY KL10 HARDWARE ENVIRONMENT 7910.18

	003172	   101 	   123 	   124
	003175	   105 	   122 	   040
	003200	   117 	   123 	   103
	003203	   111 	   114 	   114
	003206	   101 	   124 	   117
	003211	   122 	   000
   7921	003213				WHHMS4:
   7922	003213	   011 	   105 	   130 		.ASCIZ	%	EXTENDED ADDRESSING%
	003216	   124 	   105 	   116
	003221	   104 	   105 	   104
	003224	   040 	   101 	   104
	003227	   104 	   122 	   105
	003232	   123 	   123 	   111
	003235	   116 	   107 	   000
   7923	003240				WHHMS5:
   7924	003240	   011 	   111 	   116 		.ASCIZ	%	INTERNAL CHANNELS%
	003243	   124 	   105 	   122
	003246	   116 	   101 	   114
	003251	   040 	   103 	   110
	003254	   101 	   116 	   116
	003257	   105 	   114 	   123
	003262	   000
   7925	003263				WHHMS6:
   7926	003263	   011 	   103 	   101 		.ASCIZ	%	CACHE%
	003266	   103 	   110 	   105
	003271	   000
   7927
   7928	015514					.PSECT
SWCMD -- SET / CLEAR / WHAT COM	MACRO V05.04  Tuesday 17-May-88 14:36  Page 206
.SFREC -- SET/CLEAR FAULT COMMAND

   7930						.SBTTL	.SFREC -- SET/CLEAR FAULT COMMAND
   7931
   7932						.ENABL	LSB
   7933
   7934	015514				.SFREC::
   7935	015514					CALL	.CKEOC			;MUST HAVE E-O-C
	015514	004737 	000000G			 JSR	PC,.CKEOC
   7936	015520	113737 	000000G	000000G		MOVB	.NOTSW,.KLFCF		;SET/CLEAR THE FLAG
   7937	015526	000402 				BR	20$
   7938						;
SWCMD -- SET / CLEAR / WHAT COM	MACRO V05.04  Tuesday 17-May-88 14:36  Page 207
WHAT FAULT CONTINUATION COMMAND

   7940						.SBTTL	WHAT FAULT CONTINUATION COMMAND
   7941
   7942	015530				.WHREC::
   7943	015530					CALL	.CKEOC			;MUST HAVE E-O-C
	015530	004737 	000000G			 JSR	PC,.CKEOC
   7944	015534				20$:
   7945	015534	012700 	003272'			MOV	#WHRECM,R0		;FAULT-CONTINUATION MESSAGE
   7946	015540					CALL	.TYMSG			;TYPE IT
	015540	004737 	000000G			 JSR	PC,.TYMSG
   7947	015544	012700 	000000G			MOV	#ONMSG,R0		;ASSUME IT'S ON
   7948	015550	105737 	000000G			TSTB	.KLFCF			;.KLCON = 0 = ON
   7949	015554	001402 				BEQ	10$			;BIT IS OFF, F-C IS ON
   7950	015556	012700 	000000G			MOV	#OFFMSG,R0		;BIT IS ON, F-C IS OFF
   7951	015562				10$:
   7952	015562					CALLR	.TYLIN			;TYPE IT AND EXIT
	015562	000137 	000000G			 JMP	.TYLIN
   7953						;
   7954						.DSABL	LSB
   7955	003272					.PSECT	MESSAG
   7956
   7957	003272				WHRECM:
   7958	003272	   106 	   101 	   125 		.ASCIZ	%FAULT-CONTINUATION: %
	003275	   114 	   124 	   055
	003300	   103 	   117 	   116
	003303	   124 	   111 	   116
	003306	   125 	   101 	   124
	003311	   111 	   117 	   116
	003314	   072 	   040 	   000
   7959
   7960	015566					.PSECT
   7961
   7962					.TITLE	SWCPC -- SET / CLEAR CLOCK AND PARITY MODULE 7608.19
   7963
   7964						.IDENT	"005000"
   7965
   7966					;
   7967					;                             COPYRIGHT (C) 1975, 1984, 1985 BY
   7968					;                     DIGITAL EQUIPMENT CORPORATION, MAYNARD MASS.
   7969					;			ALL RIGHTS RESERVED.
   7970					;       THIS SOFTWARE IS FURNISHED UNDER A LICENSE AND MAY BE  USED  AND  COPIED
   7971					;       ONLY IN ACCORDANCE WITH THE TERMS OF SUCH LICENSE AND WITH THE INCLUSION
   7972					;       OF THE ABOVE COPYRIGHT NOTICE.  THIS SOFTWARE OR ANY OTHER COPIES THERE-
   7973					;       OF  MAY NOT BE PROVIDED OR OTHERWISE MADE AVAILABLE TO ANY OTHER PERSON.
   7974					;       NO TITLE TO OR OWNERSHIP OF THE SOFTWARE IS HEREBY TRANSFERRED.
   7975					;
   7976					;       THE INFORMATION CONTAINED IN THIS SOFTWARE IS SUBJECT TO CHANGE  WITHOUT
   7977					;       NOTICE  AND SHOULD NOT BE CONSTRUED AS A COMMITMENT BY DIGITAL EQUIPMENT
   7978					;       CORPORATION.
   7979					;
   7980					;       DIGITAL ASSUMES NO RESPONSIBILITY FOR THE  USE  OR  RELIABILITY  OF  ITS
   7981					;       SOFTWARE ON EQUIPMENT WHICH IS NOT SUPPILED BY DIGITAL.
   7982					;
   7983					;		MODULE: SET / CLEAR CLOCK AND PARITY
   7984					;
   7985					;		VERSION: 05-00
   7986					;
   7987					;		AUTHOR: R. BELANGER
SWCPC -- SET / CLEAR CLOCK AND 	MACRO V05.04  Tuesday 17-May-88 14:36  Page 207-1
WHAT FAULT CONTINUATION COMMAND

   7988					;
   7989					;		DATE: 7608.19
   7990					;
   7991					;	THIS MODULE CONTAINS:
   7992					;
   7993					;	1) SET / CLEAR CLOCK DISPATCH CODE
   7994					;
   7995					;	MODIFIED BY A. PECKHAM 7612.10 TO DELETE REFERENCES TO .SECFL
SWCPC -- SET / CLEAR CLOCK AND 	MACRO V05.04  Tuesday 17-May-88 14:36  Page 208
.SCCLK -- THE "SET / CLEAR CLOCK" COMMAND DISPATCH 7608.19

   7997					.SBTTL	.SCCLK -- THE "SET / CLEAR CLOCK" COMMAND DISPATCH 7608.19
   7998
   7999					;+
   8000					; .SCCLK -- THE "SET / CLEAR CLOCK" COMMAND DISPATCH.
   8001					; .SCFSS -- THE "SET / CLEAR FS-STOP" COMMAND DISPATCH.
   8002					; .SCPAR -- THE "SET / CLEAR PARITY-STOP" COMMAND DISPATCH.
   8003					;
   8004					; THESE SUBROUTINES WILL SET OR CLEAR THE SPECIFIED KL INTERNAL
   8005					; PARITY STOP ENABLE AS DIRECTED BY THE INPUT STREAM.
   8006					;
   8007					; INPUT ARGUMENTS:
   8008					;
   8009					;	THE CURRENT PARITY STOP ENABLES ARE IN ".PSCWD"
   8010					;	THE CURRENT CLOCK PARAMETERS ARE IN ".CLKWD"
   8011					;
   8012					; OUTPUT ARGUMENTS:
   8013					;
   8014					;	THE NEW PARITY STOP ENABLES ARE IN ".PSCWD".
   8015					;	THE NEW CLOCK PARAMETERS ARE IN ".CLKWD"
   8016					;
   8017					; ERROR CODES RETURNED:
   8018					;
   8019					;	ILS -- ILLEGAL SEPARATOR CHARACTER.
   8020					;-
   8021
   8022						.ENABL	LSB
   8023
   8024	015566				.SCCLK::			; SET / CLEAR "CLOCK"
   8025	015566					CALL	.CKARG		; MUST HAVE AN ARGUMENT
	015566	004737 	000000G			 JSR	PC,.CKARG
   8026	015572	012703 	001100'			MOV	#SCCLKT,R3	; TABLE POINTER TO R3
   8027	015576	000415 				BR	10$		; DO COMMON CODE
   8028						;
   8029	015600				.SCFSS::			; SET / CLEAR "FS-STOP"
   8030	015600					CALL	.CKEOC		; MUST BE E-O-C
	015600	004737 	000000G			 JSR	PC,.CKEOC
   8031	015604	012703 	001112'			MOV	#SCPART,R3	; TABLE POINTER TO R3
   8032	015610					CALL	40$		; READ THE CURRENT PARAMETERS
	015610	004737 	015742'			 JSR	PC,40$
   8033	015614					CALL	.SCPFS		; SET THE CONTROL WORD UP
	015614	004737 	016230'			 JSR	PC,.SCPFS
   8034	015620	000425 				BR	20$		; AND GO SET IT
   8035						;
   8036	015622				.SCPST::			; SET / CLEAR "PARITY-STOP"
   8037	015622					CALL	.CKARG		; MUST HAVE AN ARGUMENT
	015622	004737 	000000G			 JSR	PC,.CKARG
   8038	015626	012703 	001112'			MOV	#SCPART,R3	; TABLE POINTER TO R3
   8039					;	BR	10$		; DO COMMON CODE
   8040						;
   8041
   8042					;	[CONTINUED ON THE FOLLOWING PAGE]
SWCPC -- SET / CLEAR CLOCK AND 	MACRO V05.04  Tuesday 17-May-88 14:36  Page 209
.SCCLK -- THE "SET / CLEAR CLOCK" COMMAND DISPATCH 7608.19

   8044					;	[CONTINUED FROM THE PREVIOUS PAGE]
   8045
   8046	015632				10$:
   8047	015632					CALL	40$		; READ THE CURRENT PARAMETERS
	015632	004737 	015742'			 JSR	PC,40$
   8048	015636	011300 				MOV	(R3),R0		; TABLE POINTER TO R0
   8049	015640					CALL	.TSCAN		; SCAN THE TABLE
	015640	004737 	000000G			 JSR	PC,.TSCAN
   8050	015644					CALL	@2(R0)		; DO WHAT IT SAYS TO
	015644	004770 	000002 			 JSR	PC,@2(R0)
   8051	015650	111504 				MOVB	(R5),R4		; GET THE LAST CHARACTER INTO R4
   8052	015652	132764 	000010 	000000G		BITB	#CH.EOC,.CHTAB(R4)
   8053	015660	001005 				BNE	20$		; E-O-C -- GO SET PARITY STOPS
   8054	015662	122704 	000054 			CMPB	#.COMMA,R4	; NOT E-O-C -- IS IT A <COMMA>?
   8055	015666	001037 				BNE	SCPILS		; NO -- GIVE "ILS" ERROR
   8056	015670	105725 				TSTB	(R5)+		; YES -- GET OVER THE COMMA
   8057	015672	000757 				BR	10$		; AND GO ON
   8058						;
   8059	015674				20$:
   8060	015674	005723 				TST	(R3)+		; ADVANCE THE POINTER
   8061	015676					PUSH	R1		; SAVE NEW CONTROL WORD
	015676	010146 				 MOV	R1,-(SP)
   8062	015700	010601 				MOV	SP,R1		; .POINT TO THE ENABLE WORD
   8063	015702					PUSH	.KLFLG		; .SAVE ".KLFLG"
	015702	013746 	000000G			 MOV	.KLFLG,-(SP)
   8064	015706					CALL	.KLHLT		; ..STOP THE KL
	015706	004737 	000000G			 JSR	PC,.KLHLT
   8065	015712					CALL	@(R3)+		; ..LOAD THE PARAMETERS
	015712	004733 				 JSR	PC,@(R3)+
   8066	015714					POP	.SVKLF		; ..SET UP ".SVKLF"
	015714	012637 	000000G			 MOV	(SP)+,.SVKLF
   8067	015720					CALL	.RDCPP		; .READ BACK WHAT WE WROTE
	015720	004737 	000000G			 JSR	PC,.RDCPP
   8068	015724	023326 				CMP	@(R3)+,(SP)+	; .DID WE READ WHAT WE WROTE
   8069	015726	001401 				BEQ	30$		; YES -- GO ON
   8070	015730					CALLR	@(R3)+		; NO -- GIVE THE PROPER ERROR
	015730	000133 				 JMP	@(R3)+
   8071						;
   8072	015732				30$:
   8073	015732	005723 				TST	(R3)+		; GET OVER THE ERROR POINTER
   8074	015734					CALL	.KLRST		; RESTART THE KL
	015734	004737 	000000G			 JSR	PC,.KLRST
   8075	015740					CALLR	@(R3)+		; DISPLAY CURRENT PARAMETERS AND EXIT
	015740	000133 				 JMP	@(R3)+
   8076						;
   8077
   8078					;	[CONTINUED ON THE FOLLOWING PAGE]
SWCPC -- SET / CLEAR CLOCK AND 	MACRO V05.04  Tuesday 17-May-88 14:36  Page 210
.SCCLK -- THE "SET / CLEAR CLOCK" COMMAND DISPATCH 7608.19

   8080					;	[CONTINUED FROM THE PREVIOUS PAGE]
   8081
   8082	015742				40$:
   8083	015742					CALL	.CKRUN		; INSURE WE CAN DO THIS
	015742	004737 	000000G			 JSR	PC,.CKRUN
   8084	015746					CALL	.STPKL		; STOP THE KL10
	015746	004737 	000000G			 JSR	PC,.STPKL
   8085	015752					CALL	.RDCPP		; READ CLOCK AND PARITY
	015752	004737 	000000G			 JSR	PC,.RDCPP
   8086	015756	017301 	000004 			MOV	@4(R3),R1	; DESIRED CONTROL WORD TO R1
   8087	015762					CALLR	.RSTKL		; RESTART THE KL AND EXIT
	015762	000137 	000000G			 JMP	.RSTKL
   8088						;
   8089
   8090						.DSABL	LSB
   8091
   8092	015766				SCPILS:
   8093	015766					ERROR$	ILS		; ERROR -- ILLEGAL SEPARATOR CHARACTER
	015766	012746 	035063 			 MOV	#^RILS,-(SP)
	015772	104400 				 TRAP	TC.ERR
   8094						;
   8095	015774				SCPSCF:
   8096	015774					ERROR$	SCF		; ERROR -- SET CLOCK FAILED
	015774	012746 	073476 			 MOV	#^RSCF,-(SP)
	016000	104400 				 TRAP	TC.ERR
   8097						;
   8098	016002				SCPSPF:
   8099	016002					ERROR$	SPF		; ERROR -- SET PARITY FAILED
	016002	012746 	074506 			 MOV	#^RSPF,-(SP)
	016006	104400 				 TRAP	TC.ERR
   8100						;
   8101
   8102	001100				.PSECT	DATA
   8103
   8104	001100				SCCLKT:
   8105	001100	000000G				.WORD	.SCCTB		; TABLE TO SCAN
   8106	001102	000000G				.WORD	.LDCLK		; LOAD ROUTINE
   8107	001104	000000G				.WORD	.CLKWD		; PARAMETER WORD
   8108	001106	015774'				.WORD	SCPSCF		; ERROR ROUTINE
   8109	001110	016272'				.WORD	.WHTCA		; DISPLAY ROUTINE
   8110	001112				SCPART:
   8111	001112	000000G				.WORD	.SCPTB		; TABLE TO SCAN
   8112	001114	000000G				.WORD	.LDPAR		; LOAD ROUTINE
   8113	001116	000000G				.WORD	.PSCWD		; PARAMETER WORD
   8114	001120	016002'				.WORD	SCPSPF		; ERROR ROUTINE
   8115	001122	016474'				.WORD	.WHTPA		; DISPLAY ROUTINE
   8116
   8117	016010				.PSECT
SWCPC -- SET / CLEAR CLOCK AND 	MACRO V05.04  Tuesday 17-May-88 14:36  Page 211
.SCCRF -- SET / CLEAR "CLOCK <OBJECT>" 7603.09

   8119					.SBTTL	.SCCRF -- SET / CLEAR "CLOCK <OBJECT>" 7603.09
   8120
   8121						.ENABL	LSB
   8122
   8123	016010				.SCCLN::			; SET / CLEAR CLOCK "NORMAL"
   8124	016010	005001 				CLR	R1		; CLEAR THE PARAMETER WORD
   8125	016012				.SCCRF::			; SET / CLEAR CLOCK "FULL"
   8126	016012	005002 				CLR	R2		; "FULL" CLOCK RATE
   8127	016014	000410 				BR	10$		; DO COMMON CODE
   8128						;
   8129	016016				.SCCRH::			; SET / CLEAR CLOCK "HALF"
   8130	016016	012702 	000001 			MOV	#CR.HLF,R2	; "HALF" CLOCK RATE
   8131	016022	000405 				BR	10$		; DO COMMON CODE
   8132						;
   8133	016024				.SCCRQ::			; SET / CLEAR CLOCK "QUARTER"
   8134	016024	012702 	000002 			MOV	#CR.QTR,R2	; "QUARTER" CLOCK RATE
   8135	016030	000402 				BR	10$		; DO COMMON CODE
   8136						;
   8137	016032				.SCCRS::			; SET / CLEAR CLOCK "SLOW"
   8138	016032	012702 	000003 			MOV	#CR.SLO,R2	; "SLOW" CLOCK RATE
   8139	016036				10$:
   8140	016036	042701 	000003 			BIC	#CR.ALL,R1	; CLEAR OUT THE OLD CLOCK RATE
   8141	016042	000422 				BR	40$		; AND GO DO CLEAR CHECK
   8142						;
   8143	016044				.SCCSE::			; SET / CLEAR CLOCK "EXTERNAL"
   8144	016044	012700 	003317'			MOV	#CCEMSG,R0	; ASK "ARE YOU SURE"
   8145	016050					CALL	.TYMSG		; PRINT IT
	016050	004737 	000000G			 JSR	PC,.TYMSG
   8146	016054					CALL	.YESNO		; ASK "YES OR NO"
	016054	004737 	016634'			 JSR	PC,.YESNO
   8147	016060	103403 				BCS	20$		; SAID "NO" IF CC-C IS SET
   8148	016062	012702 	000010 			MOV	#CS.EXT,R2	; "EXTERNAL" CLOCK SOURCE
   8149	016066	000406 				BR	30$		; DO COMMNON CODE
   8150						;
   8151	016070				20$:
   8152	016070	000177 	000000G			JMP	@.STRTV		; RESTART THE PARSER
   8153						;
   8154	016074				.SCCSI::			; SET / CLEAR CLOCK "INTERNAL"
   8155	016074	005002 				CLR	R2		; "INTERNAL" CLOCK SOURCE
   8156	016076	000402 				BR	30$		; DO COMMON CODE
   8157						;
   8158	016100				.SCCSM::			; SET / CLEAR CLOCK "MARGIN"
   8159	016100	012702 	000004 			MOV	#CS.MGN,R2	; "MARGIN" CLOCK SOURCE
   8160	016104				30$:
   8161	016104	042701 	000014 			BIC	#CS.ALL,R1	; CLEAR OUT THE OLD CLOCK SOURCE
   8162	016110				40$:
   8163	016110	005737 	000000G			TST	.NOTSW		; IS THIS A CLEAR?
   8164	016114	001002 				BNE	50$		; YES -- JUST EXIT
   8165	016116	050201 				BIS	R2,R1		; NO -- SET THE NEW CLOCK PARAMETERS
   8166	016120	000401 				BR	60$		; AND EXIT
   8167						;
   8168	016122				50$:
   8169	016122	040201 				BIC	R2,R1		; CLEAR THE NEW CLOCK PARAMETERS
   8170	016124				60$:
   8171	016124					RETURN			; EXIT
	016124	000207 				 RTS	PC
   8172
SWCPC -- SET / CLEAR CLOCK AND 	MACRO V05.04  Tuesday 17-May-88 14:36  Page 211-1
.SCCRF -- SET / CLEAR "CLOCK <OBJECT>" 7603.09

   8173						.DSABL	LSB
SWCPC -- SET / CLEAR CLOCK AND 	MACRO V05.04  Tuesday 17-May-88 14:36  Page 212
.SCCRF -- SET / CLEAR "CLOCK <OBJECT>" 7603.09

   8175						.ENABL	LSB
   8176
   8177	016126				.SCCEC::			; SET / CLEAR CLOCK "CRAM"
   8178	016126	012702 	002000 			MOV	#CD.CRC,R2	; "CRAM" CLOCK ENABLE
   8179	016132	000405 				BR	10$		; DO COMMON CODE
   8180						;
   8181	016134				.SCCED::			; SET / CLEAR CLOCK "DATA-PATH"
   8182	016134	012702 	001000 			MOV	#CD.DPC,R2	; "DATA-PATH" CLOCK ENABLE
   8183	016140	000402 				BR	10$		; DO COMMON CODE
   8184						;
   8185	016142				.SCCEE::			; SET / CLEAR CLOCK "CONTROL"
   8186	016142	012702 	000400 			MOV	#CD.CLC,R2	; "CONTROL" CLOCK ENABLE
   8187	016146				10$:
   8188	016146	005737 	000000G			TST	.NOTSW		; IS THIS A CLEAR?
   8189	016152	001402 				BEQ	20$		; NO -- SET THE NEW CLOCK ENABLE
   8190	016154	050201 				BIS	R2,R1		; YES -- SET THE DISABLE
   8191	016156	000401 				BR	30$		; AND EXIT
   8192						;
   8193	016160				20$:
   8194	016160	040201 				BIC	R2,R1		; CLEAR THE DISABLE
   8195	016162				30$:
   8196	016162					RETURN			; AND EXIT
	016162	000207 				 RTS	PC
   8197
   8198						.DSABL	LSB
   8199
   8200	003317				.PSECT	MESSAG
   8201
   8202	003317				CCEMSG:
   8203	003317	   007 	   177 	   177 		.ASCII	<007><177><177><007><177><177><007><177><177>
	003322	   007 	   177 	   177
	003325	   007 	   177 	   177
   8204	003330	   040 	   103 	   117 		.ASCIZ	% CONFIRM EXTERNAL CLOCK SOURCE%
	003333	   116 	   106 	   111
	003336	   122 	   115 	   040
	003341	   105 	   130 	   124
	003344	   105 	   122 	   116
	003347	   101 	   114 	   040
	003352	   103 	   114 	   117
	003355	   103 	   113 	   040
	003360	   123 	   117 	   125
	003363	   122 	   103 	   105
	003366	   000
   8205
   8206	016164				.PSECT
SWCPC -- SET / CLEAR CLOCK AND 	MACRO V05.04  Tuesday 17-May-88 14:36  Page 213
.SCPAR -- SET / CLEAR PARITY-STOP "<OBJECT>" 7603.08

   8208					.SBTTL	.SCPAR -- SET / CLEAR PARITY-STOP "<OBJECT>" 7603.08
   8209
   8210						.ENABL	LSB
   8211
   8212	016164				.SCPAL::			; SET CLEAR PARITY-STOP "ALL"
   8213	016164	012702 	001416 			MOV	#PS.NRM,R2	; NORMAL PARITY STOPS
   8214	016170	000421 				BR	10$		; DO COMMON CODE
   8215						;
   8216	016172				.SCPAR::			; SET / CLEAR PARITY-STOP "AR"
   8217	016172	012702 	001000 			MOV	#AP.ARP,R2	; AR / ARX PARITY STOP
   8218	016176	000416 				BR	10$		; DO COMMON CODE
   8219						;
   8220	016200				.SCPCR::			; SET / CLEAR PARITY-STOP "CRAM"
   8221	016200	012702 	000004 			MOV	#IP.CRP,R2	; CRAM PARITY STOP
   8222	016204	000413 				BR	10$		; DO COMMON CODE
   8223						;
   8224	016206				.SCPDR::			; SET / CLEAR PARITY-STOP "DRAM"
   8225	016206	012702 	000002 			MOV	#IP.DRP,R2	; DRAM PARITY STOP
   8226	016212	000410 				BR	10$		; DO COMMON CODE
   8227						;
   8228	016214				.SCPEN::			; SET / CLEAR PARITY-STOP "ENABLE"
   8229	016214	012702 	000400 			MOV	#AP.EIP,R2	; PARITY STOP ENABLE
   8230	016220	000405 				BR	10$		; DO COMMON CODE
   8231						;
   8232	016222				.SCPFM::			; SET / CLEAR PARITY-STOP "FM"
   8233	016222	012702 	000010 			MOV	#IP.FMP,R2	; FAST MEMORY PARITY STOP
   8234	016226	000402 				BR	10$		; DO COMMON CODE
   8235						;
   8236	016230				.SCPFS::			; SET / CLEAR PARITY-STOP "FS-STOP"
   8237	016230	012702 	000001 			MOV	#IP.FSS,R2	; FS STOP
   8238	016234				10$:
   8239	016234	005737 	000000G			TST	.NOTSW		; IS THIS A CLEAR?
   8240	016240	001402 				BEQ	20$		; NO -- GO ON
   8241	016242	040201 				BIC	R2,R1		; YES -- CLEAR THE ENABLE
   8242	016244					RETURN			; EXIT
	016244	000207 				 RTS	PC
   8243	016246				20$:
   8244	016246	052701 	000400 			BIS	#AP.EIP,R1	; ENABLE THE ERROR STOPS
   8245	016252	050201 				BIS	R2,R1		; SET THE ENABLES
   8246	016254					RETURN			; TO CALLER
	016254	000207 				 RTS	PC
   8247
   8248						.DSABL	LSB
SWCPC -- SET / CLEAR CLOCK AND 	MACRO V05.04  Tuesday 17-May-88 14:36  Page 214
.WHTCL -- THE "WHAT CLOCK" COMMAND 7608.17

   8250					.SBTTL	.WHTCL -- THE "WHAT CLOCK" COMMAND 7608.17
   8251
   8252	016256				.WHTCL::
   8253	016256					CALL	.STPKL		; STOP THE KL
	016256	004737 	000000G			 JSR	PC,.STPKL
   8254	016262					CALL	.RDCPP		; READ THE CLOCK BOARD
	016262	004737 	000000G			 JSR	PC,.RDCPP
   8255	016266					CALL	.RSTKL		; RESTART THE KL
	016266	004737 	000000G			 JSR	PC,.RSTKL
   8256	016272				.WHTCA::
   8257	016272					PUSH	.CLKWD		; SAVE THE WORD ON THE STACK
	016272	013746 	000000G			 MOV	.CLKWD,-(SP)
   8258	016276	012700 	003367'			MOV	#WCMSG0,R0	; .HEADER MESSAGE
   8259	016302					CALL	.TYLIN		; .TYPE IT
	016302	004737 	000000G			 JSR	PC,.TYLIN
   8260	016306	012700 	003413'			MOV	#WCMSG1,R0	; .ENABLES
   8261	016312					CALL	.TYMSG		; .TYPE IT
	016312	004737 	000000G			 JSR	PC,.TYMSG
   8262	016316	012701 	001124'			MOV	#CLDSTB,R1	; .TABLE POINTER TO R1
   8263	016322	012702 	000003 			MOV	#^D3,R2		; .ITERATION COUNT TO R2
   8264	016326	011603 				MOV	(SP),R3		; .CLOCK WORD TO R3
   8265	016330	042703 	174377 			BIC	#^C<CD.ALL>,R3	; .MASK OUT THE DISABLES
   8266	016334	001005 				BNE	10$		; .GO PRINT DISABLES
   8267	016336	012700 	003451'			MOV	#NONMSG,R0	; .NO DISABLES SET -- SAY SO
   8268	016342					CALL	.TYLIN		; .TYPE IT
	016342	004737 	000000G			 JSR	PC,.TYLIN
   8269	016346	000414 				BR	30$		; .AND GO ON
   8270						;
   8271	016350				10$:
   8272	016350	012100 				MOV	(R1)+,R0	; .MESSAGE POINTER TO R0
   8273	016352	032103 				BIT	(R1)+,R3	; .IS THE DISABLE ON??
   8274	016354	001406 				BEQ	20$		; .NO -- FORGET IT
   8275	016356					CALL	.TYMSG		; .YES -- SAY SO
	016356	004737 	000000G			 JSR	PC,.TYMSG
   8276	016362					CALL	.TYCOM		; .TYPE A COMMA
	016362	004737 	000000G			 JSR	PC,.TYCOM
   8277	016366					CALL	.TYSPC		; .TYPE A <SPACE>
	016366	004737 	000000G			 JSR	PC,.TYSPC
   8278	016372				20$:
   8279	016372	077212 				SOB	R2,10$		; .LOOP TILL DONE
   8280	016374					CALL	.TCRLF		; .END THE LINE
	016374	004737 	000000G			 JSR	PC,.TCRLF
   8281
   8282					;	[CONTINUED ON THE FOLLOWING PAGE]
SWCPC -- SET / CLEAR CLOCK AND 	MACRO V05.04  Tuesday 17-May-88 14:36  Page 215
.WHTCL -- THE "WHAT CLOCK" COMMAND 7608.17

   8284					;	[CONTINUED FROM THE PREVIOUS PAGE]
   8285
   8286	016400				30$:
   8287	016400	012700 	003427'			MOV	#WCMSG2,R0	; .SOURCE MESSAGE
   8288	016404					CALL	.TYMSG		; .PRINT IT
	016404	004737 	000000G			 JSR	PC,.TYMSG
   8289	016410	011601 				MOV	(SP),R1		; .CLOCK CONTROL WORD TO R1
   8290	016412	042701 	177763 			BIC	#^C<CS.ALL>,R1	; .FLUSH JUNK
   8291	016416	006201 				ASR	R1		; .MAKE AN INDEX OF IT
   8292	016420	016100 	001140'			MOV	CLSRTB(R1),R0	; .SOURCE NAME TO R0
   8293	016424					CALL	.TYLIN		; .PRINT IT
	016424	004737 	000000G			 JSR	PC,.TYLIN
   8294	016430	012700 	003441'			MOV	#WCMSG3,R0	; .RATE MESSAGE
   8295	016434					CALL	.TYMSG		; .PRINT IT
	016434	004737 	000000G			 JSR	PC,.TYMSG
   8296	016440					POP	R1		; .CLOCK CONTROL WORD TO R1
	016440	012601 				 MOV	(SP)+,R1
   8297	016442	042701 	177774 			BIC	#^C<CR.ALL>,R1	; FLUSH JUNK
   8298	016446	006301 				ASL	R1		; MAKE AN INDEX FROM IT
   8299	016450	016100 	001150'			MOV	CLRTTB(R1),R0	; RATE NAME TO R0
   8300	016454					CALLR	.TYLIN		; PRINT IT AND EXIT
	016454	000137 	000000G			 JMP	.TYLIN
   8301						;
   8302
   8303	001124				.PSECT	DATA
   8304
   8305	001124				CLDSTB:
   8306	001124	000000G				.WORD	CRMMSG
   8307	001126	002000 				.WORD	CD.CRC
   8308	001130	000000G				.WORD	DPTMSG
   8309	001132	001000 				.WORD	CD.DPC
   8310	001134	000000G				.WORD	CTLMSG
   8311	001136	000400 				.WORD	CD.CLC
   8312	001140				CLSRTB:
   8313	001140	000000G				.WORD	INTMSG
   8314	001142	000000G				.WORD	MGNMSG
   8315	001144	000000G				.WORD	EXTMSG
   8316	001146	000000G				.WORD	MGNMSG
   8317	001150				CLRTTB:
   8318	001150	000000G				.WORD	FULMSG
   8319	001152	000000G				.WORD	HLFMSG
   8320	001154	000000G				.WORD	QTRMSG
   8321	001156	000000G				.WORD	SLOMSG
   8322
   8323	016460				.PSECT
SWCPC -- SET / CLEAR CLOCK AND 	MACRO V05.04  Tuesday 17-May-88 14:36  Page 216
.WHTCL -- THE "WHAT CLOCK" COMMAND 7608.17

   8325	003367				.PSECT	MESSAG
   8326
   8327	003367				WCMSG0:
   8328	003367	   113 	   114 	   040 		.ASCIZ	%KL CLOCK PARAMETERS%
	003372	   103 	   114 	   117
	003375	   103 	   113 	   040
	003400	   120 	   101 	   122
	003403	   101 	   115 	   105
	003406	   124 	   105 	   122
	003411	   123 	   000
   8329	003413				WCMSG1:
   8330	003413	   040 	   104 	   111 		.ASCIZ	% DISABLED: %
	003416	   123 	   101 	   102
	003421	   114 	   105 	   104
	003424	   072 	   040 	   000
   8331	003427				WCMSG2:
   8332	003427	   040 	   123 	   117 		.ASCIZ	% SOURCE: %
	003432	   125 	   122 	   103
	003435	   105 	   072 	   040
	003440	   000
   8333	003441				WCMSG3:
   8334	003441	   040 	   122 	   101 		.ASCIZ	% RATE: %
	003444	   124 	   105 	   072
	003447	   040 	   000
   8335	003451				NONMSG:
   8336	003451	   116 	   117 	   116 		.ASCIZ	%NONE%
	003454	   105 	   000
   8337
   8338	016460				.PSECT
SWCPC -- SET / CLEAR CLOCK AND 	MACRO V05.04  Tuesday 17-May-88 14:36  Page 217
.WHTPS -- THE "WHAT PARITY-STOP" COMMAND 7608.19

   8340					.SBTTL	.WHTPS -- THE "WHAT PARITY-STOP" COMMAND 7608.19
   8341
   8342	016460				.WHTPS::
   8343	016460					CALL	.STPKL		; STOP THE KL
	016460	004737 	000000G			 JSR	PC,.STPKL
   8344	016464					CALL	.RDCPP		; READ THE CLOCK BOARD
	016464	004737 	000000G			 JSR	PC,.RDCPP
   8345	016470					CALL	.RSTKL		; RESTART THE KL
	016470	004737 	000000G			 JSR	PC,.RSTKL
   8346	016474				.WHTPA::
   8347	016474					PUSH	.PSCWD		; SAVE THE WORD ON THE STACK
	016474	013746 	000000G			 MOV	.PSCWD,-(SP)
   8348	016500	012700 	003456'			MOV	#WPMSG0,R0	; .HEADER MESSAGE
   8349	016504					CALL	.TYLIN		; .TYPE IT
	016504	004737 	000000G			 JSR	PC,.TYLIN
   8350	016510	012700 	003510'			MOV	#WPMSG1,R0	; .ENABLE MESSAGE
   8351	016514					CALL	.TYMSG		; .TYPE IT
	016514	004737 	000000G			 JSR	PC,.TYMSG
   8352	016520	012700 	000000G			MOV	#ONMSG,R0	; .ASSUME THAT IT IS ON
   8353	016524	032716 	000400 			BIT	#AP.EIP,(SP)	; .IS THE ENABLE BIT ON?
   8354	016530	001002 				BNE	10$		; .YES -- SAY SO
   8355	016532	012700 	000000G			MOV	#OFFMSG,R0	; .NO -- CHANGE MESSAGE
   8356	016536				10$:
   8357	016536					CALL	.TYLIN		; .TYPE IT
	016536	004737 	000000G			 JSR	PC,.TYLIN
   8358	016542	012700 	003536'			MOV	#WPMSG2,R0	; .PARITY STOPS
   8359	016546					CALL	.TYMSG		; .TYPE IT
	016546	004737 	000000G			 JSR	PC,.TYMSG
   8360	016552	042716 	000400 			BIC	#AP.EIP,(SP)	; .CLEAR THE ENABLE BIT
   8361	016556	001005 				BNE	20$		; .GO ON IF BITS ARE THERE
   8362	016560	012700 	003451'			MOV	#NONMSG,R0	; .NONE THERE -- SAY SO
   8363	016564					CALL	.TYMSG		; .TYPE IT
	016564	004737 	000000G			 JSR	PC,.TYMSG
   8364	016570	000416 				BR	50$		; .AND EXIT
   8365						;
   8366
   8367					;	[CONTINUED ON THE FOLLOWING PAGE]
SWCPC -- SET / CLEAR CLOCK AND 	MACRO V05.04  Tuesday 17-May-88 14:36  Page 218
.WHTPS -- THE "WHAT PARITY-STOP" COMMAND 7608.19

   8369					;	[CONTINUED FROM THE PREVIOUS PAGE]
   8370
   8371	016572				20$:
   8372	016572	012701 	001160'			MOV	#PSENTB,R1	; .TABLE POINTER TO R1
   8373	016576	012702 	000005 			MOV	#^D5,R2		; .ITERATION COUNT TO R2
   8374	016602				30$:
   8375	016602	012100 				MOV	(R1)+,R0	; .MESSAGE POINTER TO R0
   8376	016604	032116 				BIT	(R1)+,(SP)	; .IS THE BIT ON?
   8377	016606	001406 				BEQ	40$		; .NO -- GO ON
   8378	016610					CALL	.TYMSG		; .YES -- SAY SO
	016610	004737 	000000G			 JSR	PC,.TYMSG
   8379	016614					CALL	.TYCOM		; .TYPE A COMMA
	016614	004737 	000000G			 JSR	PC,.TYCOM
   8380	016620					CALL	.TYSPC		; .PRINT A <SPACE>
	016620	004737 	000000G			 JSR	PC,.TYSPC
   8381	016624				40$:
   8382	016624	077212 				SOB	R2,30$		; .LOOP TILL DONE
   8383	016626				50$:
   8384	016626	005726 				TST	(SP)+		; .CLEAR THE STACK
   8385	016630					CALLR	.TCRLF		; END THE LINE AND EXIT
	016630	000137 	000000G			 JMP	.TCRLF
   8386						;
   8387
   8388	001160				.PSECT	DATA
   8389
   8390	001160				PSENTB:
   8391	001160	000000G				.WORD	ARMSG
   8392	001162	001000 				.WORD	AP.ARP
   8393	001164	000000G				.WORD	CRMMSG
   8394	001166	000004 				.WORD	IP.CRP
   8395	001170	000000G				.WORD	DRMMSG
   8396	001172	000002 				.WORD	IP.DRP
   8397	001174	000000G				.WORD	FMMSG
   8398	001176	000010 				.WORD	IP.FMP
   8399	001200	000000G				.WORD	FSSMSG
   8400	001202	000001 				.WORD	IP.FSS
   8401
   8402	016634				.PSECT
SWCPC -- SET / CLEAR CLOCK AND 	MACRO V05.04  Tuesday 17-May-88 14:36  Page 219
.WHTPS -- THE "WHAT PARITY-STOP" COMMAND 7608.19

   8404	003456				.PSECT	MESSAG
   8405
   8406	003456				WPMSG0:
   8407	003456	   113 	   114 	   040 		.ASCIZ	%KL PARITY STOP PARAMETERS%
	003461	   120 	   101 	   122
	003464	   111 	   124 	   131
	003467	   040 	   123 	   124
	003472	   117 	   120 	   040
	003475	   120 	   101 	   122
	003500	   101 	   115 	   105
	003503	   124 	   105 	   122
	003506	   123 	   000
   8408	003510				WPMSG1:
   8409	003510	   040 	   120 	   101 		.ASCIZ	% PARITY STOP ENABLE: %
	003513	   122 	   111 	   124
	003516	   131 	   040 	   123
	003521	   124 	   117 	   120
	003524	   040 	   105 	   116
	003527	   101 	   102 	   114
	003532	   105 	   072 	   040
	003535	   000
   8410	003536				WPMSG2:
   8411	003536	   040 	   120 	   101 		.ASCIZ	% PARITY STOPS: %
	003541	   122 	   111 	   124
	003544	   131 	   040 	   123
	003547	   124 	   117 	   120
	003552	   123 	   072 	   040
	003555	   000
   8412	016634				.PSECT
SWCPC -- SET / CLEAR CLOCK AND 	MACRO V05.04  Tuesday 17-May-88 14:36  Page 220
.YESNO -- SUBROUTINE TO ASK "YES OR NO" 7603.22

   8414					.SBTTL	.YESNO -- SUBROUTINE TO ASK "YES OR NO" 7603.22
   8415
   8416					;+
   8417					; .YESNO -- SUBROUTINE TO ASK "YES OR NO".
   8418					;
   8419					; THIS SUBROUTINE WILL ASK FOR A CONFIMATION TO A QUESTION, AND RETURN
   8420					; THE STATE OF THE RESPONSE IN CC-C ON RETURN. IF THE RESPONSE IS OTHER
   8421					; THAN A "YES" OR A "NO", THE QUESTION IS REITERATED.
   8422					;
   8423					; INPUT ARGUMENTS:
   8424					;
   8425					;	NONE.
   8426					;
   8427					; OUTPUT ARGUMENTS:
   8428					;
   8429					;	IF THE RESPONSE WAS "YES" CC-C IS CLEAR.
   8430					;	IF THE RESPONSE WAS "NO" CC-C IS SET.
   8431					;
   8432					; ERROR CODES RETURNED:
   8433					;
   8434					;	NONE.
   8435					;-
   8436
   8437	016634				.YESNO::
   8438	016634					PUSH	<R0,R1,R5>	; SAVE CALLERS REGISTERS
	016634	010046 				 MOV	R0,-(SP)
	016636	010146 				 MOV	R1,-(SP)
	016640	010546 				 MOV	R5,-(SP)
   8439	016642				10$:
   8440	016642	012700 	003556'			MOV	#YONMSG,R0	; ...MESSAGE POINTER TO R0
   8441	016646					CALL	.TYMSG		; ...PRINT IT
	016646	004737 	000000G			 JSR	PC,.TYMSG
   8442	016652					CALL	.TYOUT		; ...FORCE IT OUT
	016652	004737 	000000G			 JSR	PC,.TYOUT
   8443	016656	012701 	000000G			MOV	#.CIBFR,R1	; ...POINT TO THE INPUT BUFFER
   8444	016662					CALL	.GTLIN		; ...READ THE RESPONSE
	016662	004737 	000000G			 JSR	PC,.GTLIN
   8445	016666	001765 				BEQ	10$		; ...TRY AGAIN IF NO REAL RESPONSE
   8446	016670	010105 				MOV	R1,R5		; ...BUFFER POINTER TO R5
   8447	016672	012700 	003575'			MOV	#YESMSG,R0	; ...EXPECT "YES"
   8448	016676					CALL	.SSCAN		; ...SCAN FOR IT
	016676	004737 	000000G			 JSR	PC,.SSCAN
   8449	016702	103012 				BCC	30$		; ...WE GOT IT -- EXIT
   8450	016704	010105 				MOV	R1,R5		; ...SET UP BUFFER POINTER
   8451	016706	012700 	003601'			MOV	#NOMSG,R0	; ...TRY FOR "NO"
   8452	016712					CALL	.SSCAN		; ...SCAN THE SYMBOL
	016712	004737 	000000G			 JSR	PC,.SSCAN
   8453	016716	103003 				BCC	20$		; ...WE GOT IT
   8454	016720					CALL	.TCRLF		; ...DID'NT GET EITHER
	016720	004737 	000000G			 JSR	PC,.TCRLF
   8455	016724	000746 				BR	10$		; ...SO TRY AGAIN
   8456						;
   8457
   8458					;	[CONTINUED ON THE FOLLOWING PAGE]
SWCPC -- SET / CLEAR CLOCK AND 	MACRO V05.04  Tuesday 17-May-88 14:36  Page 221
.YESNO -- SUBROUTINE TO ASK "YES OR NO" 7603.22

   8460					;	[CONTINUED FROM THE PREVIOUS PAGE]
   8461
   8462	016726				20$:
   8463	016726	000261 				SEC			; ...SET CC-C TO SAY "NO"
   8464	016730				30$:
   8465	016730					POP	<R5,R1,R0>	; ...RESTORE REGISTERS
	016730	012605 				 MOV	(SP)+,R5
	016732	012601 				 MOV	(SP)+,R1
	016734	012600 				 MOV	(SP)+,R0
   8466	016736					RETURN			; ...TO CALLER
	016736	000207 				 RTS	PC
   8467
   8468	003556				.PSECT	MESSAG
   8469
   8470	003556				YONMSG:
   8471	003556	   040 	   050 	   131 		.ASCIZ	% (YES OR NO)? %
	003561	   105 	   123 	   040
	003564	   117 	   122 	   040
	003567	   116 	   117 	   051
	003572	   077 	   040 	   000
   8472	003575				YESMSG:
   8473	003575	   131 	   105 	   123 		.ASCIZ	%YES%
	003600	   000
   8474	003601				NOMSG:
   8475	003601	   116 	   117 	   000 		.ASCIZ	%NO%
   8476
   8477	016740				.PSECT
SWCPC -- SET / CLEAR CLOCK AND 	MACRO V05.04  Tuesday 17-May-88 14:36  Page 222
.YESNO -- SUBROUTINE TO ASK "YES OR NO" 7603.22

   8479
   8480
   8481					.TITLE	SWDAT -- SET/CLEAR/WHAT "DATE" COMMAND MODULE 7703.04
   8482
   8483						.IDENT	"006060"
   8484
   8485					;
   8486					;                             COPYRIGHT (C) 1975, 1984, 1985 BY
   8487					;                     DIGITAL EQUIPMENT CORPORATION, MAYNARD MASS.
   8488					;			ALL RIGHTS RESERVED.
   8489					;       THIS SOFTWARE IS FURNISHED UNDER A LICENSE AND MAY BE  USED  AND  COPIED
   8490					;       ONLY IN ACCORDANCE WITH THE TERMS OF SUCH LICENSE AND WITH THE INCLUSION
   8491					;       OF THE ABOVE COPYRIGHT NOTICE.  THIS SOFTWARE OR ANY OTHER COPIES THERE-
   8492					;       OF  MAY NOT BE PROVIDED OR OTHERWISE MADE AVAILABLE TO ANY OTHER PERSON.
   8493					;       NO TITLE TO OR OWNERSHIP OF THE SOFTWARE IS HEREBY TRANSFERRED.
   8494					;
   8495					;       THE INFORMATION CONTAINED IN THIS SOFTWARE IS SUBJECT TO CHANGE  WITHOUT
   8496					;       NOTICE  AND SHOULD NOT BE CONSTRUED AS A COMMITMENT BY DIGITAL EQUIPMENT
   8497					;       CORPORATION.
   8498					;
   8499					;       DIGITAL ASSUMES NO RESPONSIBILITY FOR THE  USE  OR  RELIABILITY  OF  ITS
   8500					;       SOFTWARE ON EQUIPMENT WHICH IS NOT SUPPILED BY DIGITAL.
   8501					;
   8502					;		MODULE: "DATE" SUPPORT
   8503					;
   8504					;		VERSION: 06-06
   8505					;
   8506					;		AUTHOR: R. BELANGER
   8507					;
   8508					;		DATE: 7703.04
   8509					;
   8510					;	THIS MODULE CONTAINS:
   8511					;
   8512					;	1) SET CLEAR DATE CODE
   8513					;	2) WHAT DATE CODE
SWDAT -- SET/CLEAR/WHAT "DATE" 	MACRO V05.04  Tuesday 17-May-88 14:36  Page 223
.SCDAT -- "SET DATE" COMMAND 7703.04

   8515					.SBTTL	.SCDAT -- "SET DATE" COMMAND 7703.04
   8516
   8517					;+
   8518					; .SCDAT -- THE "SET DATE" COMMAND
   8519					;
   8520					; THIS SUBROUTINE WILL ACCEPT A DATE AND TIME AS THE SYSTEM DATE AND TIME
   8521					; IF AND ONLY IF THE SYSTEM DATE VALID FLAG IS OFF.
   8522					;
   8523					; INPUT ARGUMENTS:
   8524					;
   8525					;	NONE.
   8526					;
   8527					; OUTPUT ARGUMENTS:
   8528					;
   8529					;	THE SYSTEM DATE IS SET AS SPECIFIED
   8530					;
   8531					; ERROR CODES RETURNED:
   8532					;
   8533					;	CDI -- CLEAR DATE ILLEGAL
   8534					;	DAV -- DATE ALREADY VALID
   8535					;	NDI -- NULL DATE ILLEGAL
   8536					;	NTI -- NULL TIME ILLEGAL
   8537					;-
   8538
   8539						.MCALL	GTIM$S,.INH6,.ENB6
   8540
   8541	016740				.SCDAT::
   8542	016740	032737 	000000G	000002G		BIT	#EF.PR1,.COMEF+2 ; IS PRIMARY PROTOCOL RUNNING??
   8543	016746	001133 				BNE	SCDCDI		; YES -- GIVE "CDI" ERROR
   8544	016750	005737 	000000G			TST	.NOTSW		; NO -- IS THIS A "CLEAR"??
   8545	016754	001404 				BEQ	10$		; NO -- GO ON
   8546	016756	005037 	000000G			CLR	.DATE3		; YES -- SET DATE INVALID
   8547	016762	005037 	000000G			CLR	.YEAR		; AND ALLOW "FUNNY" DATES
   8548	016766				10$:
   8549	016766	005737 	000000G			TST	.DATE3		; IS TIME ALREADY VALID?
   8550	016772	001124 				BNE	SCDDAV		; YES -- GIVE "DAV" ERROR
   8551	016774					CALL	.CKEOC		; NO -- MUST HAVE E-O-C
	016774	004737 	000000G			 JSR	PC,.CKEOC
   8552	017000	005046 				CLR	-(SP)		; CLEAR BUFFER ON STACK
   8553	017002	005046 				CLR	-(SP)		; .SO
   8554	017004	010600 				MOV	SP,R0		; ..POINT TO IT
   8555	017006					CALL	.GTDAT		; ..READ THE DATE
	017006	004737 	006026'			 JSR	PC,.GTDAT
   8556	017012	001517 				BEQ	SCDNDI		; ..ERROR IF NULL
   8557	017014	005046 				CLR	-(SP)		; ..SPACE FOR TIME
   8558	017016	010600 				MOV	SP,R0		; ...POINT TO IT
   8559	017020					CALL	.GTTIM		; ...READ THE TIME
	017020	004737 	006472'			 JSR	PC,.GTTIM
   8560	017024	001515 				BEQ	SCDNTI		; ...ERROR IF NULL
   8561	017026	116600 	000002 			MOVB	2(SP),R0	; ...YEAR TO R0
   8562	017032	162700 	000114 			SUB	#^D76,R0	; ...MINUS 1976
   8563	017036	010002 				MOV	R0,R2		; ...SAVE RESULT IN R2
   8564	017040	001406 				BEQ	20$		; ...GO ON IF .EQ. 0
   8565	017042	012701 	000555 			MOV	#^D365,R1	; ...CONVERT TO DAYS
   8566	017046					CALL	$MUL		; ...SO
	017046	004737 	000000G			 JSR	PC,$MUL
   8567	017052	010100 				MOV	R1,R0		; ...RESULT TO R0
SWDAT -- SET/CLEAR/WHAT "DATE" 	MACRO V05.04  Tuesday 17-May-88 14:36  Page 223-1
.SCDAT -- "SET DATE" COMMAND 7703.04

   8568	017054	005200 				INC	R0		; ...PLUS 1 FOR 1976
   8569	017056				20$:
   8570	017056	116601 	000003 			MOVB	3(SP),R1	; ...MONTH TO R1
   8571	017062	006301 				ASL	R1		; ...MAKE A WORD INDEX
   8572	017064	066100 	001212'			ADD	CDMTB-2(R1),R0	; ...ADD DAYS TO THIS MONTH
   8573	017070	005702 				TST	R2		; ...IS THIS 1976?
   8574	017072	001412 				BEQ	40$		; ...YES -- GO ON
   8575	017074	132702 	000003 			BITB	#3,R2		; ...NO -- IS THIS A LEAP YEAR?
   8576	017100	001004 				BNE	30$		; ...NO -- GO ON
   8577	017102	022701 	000002 			CMP	#2,R1		; ...YES -- BEYOND FEBRUARY?
   8578	017106	002401 				BLT	30$		; ...YES -- GO ON
   8579	017110	005302 				DEC	R2		; ...NO -- SUBTRACT ONE FOR THIS YEAR
   8580	017112				30$:
   8581	017112	006202 				ASR	R2		; ...DIVIDE DIFFERENCE BY 4
   8582	017114	006202 				ASR	R2		; ...SO
   8583	017116	060200 				ADD	R2,R0		; ...ADD OFFSET FOR LEAP YEARS
   8584	017120				40$:
   8585	017120	116601 	000004 			MOVB	4(SP),R1	; ...DATE TO R1
   8586	017124	005301 				DEC	R1		; ...MINUS 1
   8587	017126	060100 				ADD	R1,R0		; ...ADD IT IN
   8588	017130	012701 	000007 			MOV	#^D7,R1		; ...DIVIDE BY DAYS PER WEEK
   8589	017134					CALL	$DIV		; ...SO
	017134	004737 	000000G			 JSR	PC,$DIV
   8590	017140	010100 				MOV	R1,R0		; ...DAY OF WEEK OFFSET TO R0
   8591	017142	010601 				MOV	SP,R1		; ...STACK POINTER TO R1
   8593	017144					.INH6			; ...DISALLOW INTERRUPTS
	017144	013746 	177776 			MOV	@#PS,-(SP)
	017150	112737 	000300 	177776 		MOVB	#300,@#PS
   8595	017156	116037 	001204'	000000G		MOVB	DOWTAB(R0),.DOW	;;; ...SET DAY OF WEEK FROM TABLE
   8596	017164	012137 	000000G			MOV	(R1)+,.SSM	;;; ...SET THE TIME
   8597	017170	112100 				MOVB	(R1)+,R0	;;; ...GET THE YEAR
   8598	017172	062700 	003554 			ADD	#^D1900,R0	;;; ...PLUS 1900
   8599	017176	010037 	000000G			MOV	R0,.YEAR	;;; ...SET IT
   8600	017202	105311 				DECB	(R1)		;;; [**] ...COMPUTE TRUE MONTH
   8601	017204	112137 	000000G			MOVB	(R1)+,.MON	;;; ...SET IT
   8602	017210	105311 				DECB	(R1)		;;; [**] ...COMPUTE TRUE DAY
   8603	017212	111137 	000000G			MOVB	(R1),.DAY	;;; ...SET IT
   8604	017216	012737 	000001 	000000G		MOV	#1,.DATE3	;;; ...SET THE VALID FLAG
   8606	017224					.ENB6			;;; ...ALLOW INTERRUPTS
	017224	012637 	177776 			MOV	(SP)+,@#PS
   8608	017230	062706 	000006 			ADD	#^D6,SP		; ...RESET STACK
   8609	017234				50$:
   8610	017234	000414 				BR	.WHDAT		; DISPLAY TIME AND EXIT
   8611						;
SWDAT -- SET/CLEAR/WHAT "DATE" 	MACRO V05.04  Tuesday 17-May-88 14:36  Page 224
.SCDAT -- "SET DATE" COMMAND 7703.04

   8613	017236				SCDCDI:
   8614	017236					ERROR$	CDI		; ERROR -- CLEAR DATE ILLEGAL
	017236	012746 	011551 			 MOV	#^RCDI,-(SP)
	017242	104400 				 TRAP	TC.ERR
   8615						;
   8616	017244				SCDDAV:
   8617	017244					ERROR$	DAV		; ERROR -- DATE ALREADY VALID
	017244	012746 	014476 			 MOV	#^RDAV,-(SP)
	017250	104400 				 TRAP	TC.ERR
   8618						;
   8619	017252				SCDNDI:
   8620	017252					ERROR$	NDI		; ERROR -- NULL DATE ILLEGAL
	017252	012746 	054051 			 MOV	#^RNDI,-(SP)
	017256	104400 				 TRAP	TC.ERR
   8621						;
   8622	017260				SCDNTI:
   8623	017260					ERROR$	NTI		; ERROR -- NULL TIME ILLEGAL
	017260	012746 	055251 			 MOV	#^RNTI,-(SP)
	017264	104400 				 TRAP	TC.ERR
   8624						;
   8625
   8626	001204				.PSECT	DATA
   8627
   8628	001204				DOWTAB:
   8629	001204	   003 	   004 			.BYTE	3,4
   8630	001206	   005 	   006 			.BYTE	5,6
   8631	001210	   000 	   001 			.BYTE	0,1
   8632	001212	   002 				.BYTE	2
   8633						.EVEN
   8634
   8635	001214				CDMTB:
   8636	001214	000000 				.WORD	0
   8637	001216	000037 				.WORD	^D31
   8638	001220	000073 				.WORD	^D59
   8639	001222	000132 				.WORD	^D90
   8640	001224	000170 				.WORD	^D120
   8641	001226	000227 				.WORD	^D151
   8642	001230	000265 				.WORD	^D181
   8643	001232	000324 				.WORD	^D212
   8644	001234	000363 				.WORD	^D243
   8645	001236	000421 				.WORD	^D273
   8646	001240	000460 				.WORD	^D304
   8647	001242	000516 				.WORD	^D334
   8648
   8649	017266				.PSECT
SWDAT -- SET/CLEAR/WHAT "DATE" 	MACRO V05.04  Tuesday 17-May-88 14:36  Page 225
.WHDAT -- THE "WHAT" DATE COMMAND 7703.03

   8651					.SBTTL	.WHDAT -- THE "WHAT" DATE COMMAND 7703.03
   8652
   8653					;+
   8654					; .WHDAT -- THE "WHAT DATE" COMMAND
   8655					;
   8656					; THIS SUBROUTINE WILL DISPLAY THE THE CURRENT SYSTEM TIME OF DAY
   8657					; ON THE CONSOLE DEVICE. IF THE TIME HAS NOT BEEN SET BY EITHER A
   8658					; "SET DATE" COMMAND OR BY THE KL10 EXECUTIVE THE VALID FLAG WILL BE OFF
   8659					; OTHERWISE IT WILL BE ON.
   8660					;
   8661					; INPUT ARGUMENTS:
   8662					;
   8663					;	NONE.
   8664					;
   8665					; OUTPUT ARGUMENTS:
   8666					;
   8667					;	NONE.
   8668					;
   8669					; ERROR CODES RETUNED:
   8670					;
   8671					;	NONE.
   8672					;-
   8673
   8674
   8675	017266				.WHDAT::
   8676	017266					CALL	.CKEOC		; MUST HAVE E-O-C
	017266	004737 	000000G			 JSR	PC,.CKEOC
   8677	017272	012701 	001262'			MOV	#DATBUF,R1	; BUFFER POINTER TO R1
   8678	017276					GTIM$S	R1		; REAAD THE DATE AND TIME
	017276	010146 				MOV	R1,-(SP)
	017300	012746 				MOV	(PC)+,-(SP)
	017302	   073 	   002 			.BYTE	59.,2
	017304	104375 				EMT	375
   8679	017306	005046 				CLR	-(SP)		; CLEAR A BUFFER ON STACK
   8680	017310	005046 				CLR	-(SP)		; .SO
   8681	017312	010600 				MOV	SP,R0		; ..POINTER TO R0
   8682	017314	112120 				MOVB	(R1)+,(R0)+	; ..SET YEAR
   8683	017316	105721 				TSTB	(R1)+		; ..ADVANCE POINTER
   8684	017320	112120 				MOVB	(R1)+,(R0)+	; ..SET MONTH
   8685	017322	105721 				TSTB	(R1)+		; ..ADVANCE POINTER
   8686	017324	112120 				MOVB	(R1)+,(R0)+	; ..SET DAY
   8687	017326	012700 	003604'			MOV	#WHDMS0,R0	; ..MESSAGE POINTER TO R0
   8688	017332					CALL	.TYLIN		; ..PRINT IT
	017332	004737 	000000G			 JSR	PC,.TYLIN
   8689	017336	113700 	000000G			MOVB	.DOW,R0		; ..DAY OF WEEK INDEX TO R0
   8690	017342	006300 				ASL	R0		; ..TIMES 2
   8691	017344	016000 	001244'			MOV	DOWMTB(R0),R0	; ..MESSAGE POINTER TO R0
   8692	017350					CALL	.TYMSG		; ..PRINT IT
	017350	004737 	000000G			 JSR	PC,.TYMSG
   8693	017354					CALL	.TYSPC		; ..AND A <SPACE>
	017354	004737 	000000G			 JSR	PC,.TYSPC
   8694	017360	010600 				MOV	SP,R0		; ..POINT TO DATE
   8695	017362					CALL	.TYDAT		; ..TYPE THE DATE
	017362	004737 	007040'			 JSR	PC,.TYDAT
   8696	017366					CALL	.TYSPC		; ..AND A <SPACE>
	017366	004737 	000000G			 JSR	PC,.TYSPC
   8697	017372	012700 	000000G			MOV	#.SSM,R0	; ..POINT TO THE TIME
SWDAT -- SET/CLEAR/WHAT "DATE" 	MACRO V05.04  Tuesday 17-May-88 14:36  Page 225-1
.WHDAT -- THE "WHAT" DATE COMMAND 7703.03

   8698	017376					CALL	.TYTIM		; ..TYPE IT
	017376	004737 	007154'			 JSR	PC,.TYTIM
   8699	017402					CALL	.TCRLF		; ..END THE LINE
	017402	004737 	000000G			 JSR	PC,.TCRLF
   8700	017406	012700 	003632'			MOV	#WHDMS1,R0	; ..MESSAGE POINTER TO R0
   8701	017412					CALL	.TYMSG		; ..PRINT IT
	017412	004737 	000000G			 JSR	PC,.TYMSG
   8702	017416	012700 	000000G			MOV	#ONMSG,R0	; ..ASSUME VALID
   8703	017422	005737 	000000G			TST	.DATE3		; ..IS IT??
   8704	017426	001002 				BNE	10$		; ..YES -- GO ON
   8705	017430	012700 	000000G			MOV	#OFFMSG,R0	; ..NO -- SAY SO
   8706	017434				10$:
   8707	017434	022626 				CMP	(SP)+,(SP)+	; ..CLEAR STACK
   8708	017436					CALLR	.TYLIN		; PRINT AND EXIT
	017436	000137 	000000G			 JMP	.TYLIN
   8709						;
   8710
   8711	001244				.PSECT	DATA
   8712
   8713	001244				DOWMTB:
   8714	001244	003656'				.WORD	MONMSG
   8715	001246	003666'				.WORD	TUEMSG
   8716	001250	003677'				.WORD	WEDMSG
   8717	001252	003712'				.WORD	THUMSG
   8718	001254	003724'				.WORD	FRIMSG
   8719	001256	003734'				.WORD	SATMSG
   8720	001260	003746'				.WORD	SUNMSG
   8721
   8722	001262				DATBUF:
   8723	001262	000000 	000000 	000000 		.WORD	0,0,0,0,0,0,0,0
	001270	000000 	000000 	000000
	001276	000000 	000000
   8724
   8725	017442				.PSECT
SWDAT -- SET/CLEAR/WHAT "DATE" 	MACRO V05.04  Tuesday 17-May-88 14:36  Page 226
.WHDAT -- THE "WHAT" DATE COMMAND 7703.03

   8727	003604				.PSECT	MESSAG
   8728
   8729	003604				WHDMS0:
   8730	003604	   103 	   125 	   122 		.ASCIZ	%CURRENT SYSTEM DATE: %
	003607	   122 	   105 	   116
	003612	   124 	   040 	   123
	003615	   131 	   123 	   124
	003620	   105 	   115 	   040
	003623	   104 	   101 	   124
	003626	   105 	   072 	   040
	003631	   000
   8731	003632				WHDMS1:
   8732	003632	   040 	   126 	   101 		.ASCIZ	% VALIDITY FLAG IS: %
	003635	   114 	   111 	   104
	003640	   111 	   124 	   131
	003643	   040 	   106 	   114
	003646	   101 	   107 	   040
	003651	   111 	   123 	   072
	003654	   040 	   000
   8733
   8734	003656				MONMSG:
   8735	003656	   115 	   117 	   116 		.ASCIZ	%MONDAY,%
	003661	   104 	   101 	   131
	003664	   054 	   000
   8736	003666				TUEMSG:
   8737	003666	   124 	   125 	   105 		.ASCIZ	%TUESDAY,%
	003671	   123 	   104 	   101
	003674	   131 	   054 	   000
   8738	003677				WEDMSG:
   8739	003677	   127 	   105 	   104 		.ASCIZ	%WEDNESDAY,%
	003702	   116 	   105 	   123
	003705	   104 	   101 	   131
	003710	   054 	   000
   8740	003712				THUMSG:
   8741	003712	   124 	   110 	   125 		.ASCIZ	%THURSDAY,%
	003715	   122 	   123 	   104
	003720	   101 	   131 	   054
	003723	   000
   8742	003724				FRIMSG:
   8743	003724	   106 	   122 	   111 		.ASCIZ	%FRIDAY,%
	003727	   104 	   101 	   131
	003732	   054 	   000
   8744	003734				SATMSG:
   8745	003734	   123 	   101 	   124 		.ASCIZ	%SATURDAY,%
	003737	   125 	   122 	   104
	003742	   101 	   131 	   054
	003745	   000
   8746	003746				SUNMSG:
   8747	003746	   123 	   125 	   116 		.ASCIZ	%SUNDAY,%
	003751	   104 	   101 	   131
	003754	   054 	   000
   8748
   8749	017442				.PSECT
SWDAT -- SET/CLEAR/WHAT "DATE" 	MACRO V05.04  Tuesday 17-May-88 14:36  Page 228
.WHDAT -- THE "WHAT" DATE COMMAND 7703.03

   8752
   8753					.TITLE	SWKLN -- SET/CLEAR/WHAT "KLINIK" COMMAND MODULE 7703.04
   8754
   8755						.IDENT	"006060"
   8756
   8757					;
   8758					;                             COPYRIGHT (C) 1975, 1984, 1985 BY
   8759					;                     DIGITAL EQUIPMENT CORPORATION, MAYNARD MASS.
   8760					;			ALL RIGHTS RESERVED.
   8761					;       THIS SOFTWARE IS FURNISHED UNDER A LICENSE AND MAY BE  USED  AND  COPIED
   8762					;       ONLY IN ACCORDANCE WITH THE TERMS OF SUCH LICENSE AND WITH THE INCLUSION
   8763					;       OF THE ABOVE COPYRIGHT NOTICE.  THIS SOFTWARE OR ANY OTHER COPIES THERE-
   8764					;       OF  MAY NOT BE PROVIDED OR OTHERWISE MADE AVAILABLE TO ANY OTHER PERSON.
   8765					;       NO TITLE TO OR OWNERSHIP OF THE SOFTWARE IS HEREBY TRANSFERRED.
   8766					;
   8767					;       THE INFORMATION CONTAINED IN THIS SOFTWARE IS SUBJECT TO CHANGE  WITHOUT
   8768					;       NOTICE  AND SHOULD NOT BE CONSTRUED AS A COMMITMENT BY DIGITAL EQUIPMENT
   8769					;       CORPORATION.
   8770					;
   8771					;       DIGITAL ASSUMES NO RESPONSIBILITY FOR THE  USE  OR  RELIABILITY  OF  ITS
   8772					;       SOFTWARE ON EQUIPMENT WHICH IS NOT SUPPILED BY DIGITAL.
   8773					;
   8774					;		MODULE: "KLINIK" SUPPORT
   8775					;
   8776					;		VERSION: 06-06
   8777					;
   8778					;		AUTHOR: R. BELANGER
   8779					;
   8780					;		DATE: 7703.04
   8781					;
   8782					;	THIS MODULE CONTAINS:
   8783					;
   8784					;	1) SET CLEAR KLINIK CODE
   8785					;	2) WHAT KLINIK CODE
SWKLN -- SET/CLEAR/WHAT "KLINIK	MACRO V05.04  Tuesday 17-May-88 14:36  Page 229
.SCKLN -- THE "SET / CLEAR KLINIK" COMMAND 7709.20

   8787					.SBTTL	.SCKLN -- THE "SET / CLEAR KLINIK" COMMAND 7709.20
   8788
   8789					;+
   8790					; .SCKLN -- THE SET / CLEAR KLINIK COMMAND
   8791					;
   8792					; THIS SUBROUTINE WILL SET OR CLEAR THE KLINIK PARAMETERS FOR THE
   8793					; RSX20F FRONT END. THE CLEAR COMMAND SIMPLY CLEARS THE KLINIK
   8794					; THE KLINIK ENABLE FLAG AND REQUESTS THE KLINIK TERMINATION TASK
   8795					; "KLD" IN ORDER THAT THE OPERATOR BE NOTIFIED.
   8796					;
   8797					; THE "SET KLINIK" COMMAND WILL PROMPT THE OPERATOR FOR THE REQUIRED
   8798					; KLINIK PARAMETERS, VALIDATE THEM AND PASS THEM TO THE RSX20F EXECUTIVE.
   8799					;
   8800					; INPUT ARGUMENTS:
   8801					;
   8802					;	NONE.
   8803					;
   8804					; OUTPUT ARGUMENTS:
   8805					;
   8806					;	NONE.
   8807					;
   8808					; ERROR CODES RETURNED:
   8809					;
   8810					;	IPC -- ILLEGAL PASSWORD CHARACTER.
   8811					;	KWE -- KLINIK WINDOW ERROR.
   8812					;	NPI -- NULL PASSWORD ILLEGAL.
   8813					;	PTL -- PASSWORD TOO LONG.
   8814					;	SKI -- SET KLINIK ILLEGAL WHILE ACTIVE.
   8815					;-
   8816
   8817						.MCALL	.ENB6,.INH6,WTSE$S,CLEF$S
SWKLN -- SET/CLEAR/WHAT "KLINIK	MACRO V05.04  Tuesday 17-May-88 14:36  Page 230
.SCKLN -- THE "SET / CLEAR KLINIK" COMMAND 7709.20

   8819						.ENABL	LSB
   8820
   8821	017442				.SCKLN::
   8822	017442					CALL	.CKEOC		; MUST HAVE E-O-C
	017442	004737 	000000G			 JSR	PC,.CKEOC
   8823	017446	005737 	000000G			TST	.NOTSW		; IS THIS A CLEAR?
   8824	017452	001402 				BEQ	10$		; NO -- GO ON
   8825	017454	000137 	020364'			JMP	80$		; YES -- DO IT
   8826						;
   8827	017460				10$:
   8828	017460	105737 	000000G			TSTB	.KLNSW+0	; IS KLINIK ALREADY ACTIVE??
   8829	017464	001055 				BNE	SCKSKI		; YES -- COMPLAIN
   8830	017466					PUSH	R5		; SET UP TO GET KLINIK PARAMETERS
	017466	010546 				 MOV	R5,-(SP)
   8831	017470	012700 	004071'			MOV	#SCKMS4,R0	; .MESSAGE POINTER TO R0
   8832	017474					CALL	.TYMSF		; .FORCE IT OUT
	017474	004737 	000000G			 JSR	PC,.TYMSF
   8833	017500	012701 	000000G			MOV	#.CIBFR,R1	; .BUFFER POINTER TO R1
   8834	017504	010105 				MOV	R1,R5		; .AND R5
   8835	017506					CALL	.GTLIN		; .READ KLINIK MODE
	017506	004737 	000000G			 JSR	PC,.GTLIN
   8836	017512	012700 	000000G			MOV	#.KLMT1,R0	; .KLINIK MODE TABLE POINTER TO R0
   8837	017516					CALL	.TSCAN		; .SCAN THE TABLE
	017516	004737 	000000G			 JSR	PC,.TSCAN
   8838	017522	116046 	000002 			MOVB	2(R0),-(SP)	; .KLINIK MODE FLAG TO STACK
   8839	017526	100462 				BMI	25$		; READ WINDOW DATA IF USER
   8840	017530	012700 	003756'			MOV	#SCKMS0,R0	; ..MESSAGE POINTER TO R0
   8841	017534					CALL	.TYMSF		; ..FORCE THE MESSAGE
	017534	004737 	000000G			 JSR	PC,.TYMSF
   8842	017540	012701 	000000G			MOV	#.CIBFR,R1	; ..USE THE INPUT DEVICE BUFFER
   8843	017544					CALL	.GTLIN		; ..READ THE LINE
	017544	004737 	000000G			 JSR	PC,.GTLIN
   8844	017550	001415 				BEQ	SCKNPI		; ..GIVE "NPI" ERROR IF NULL PASSWORD
   8845	017552	013700 	000000G			MOV	.INCHC,R0	; ..CHARACTER COUNT TO R0
   8846	017556	022700 	000006 			CMP	#^D6,R0		; ..IS THE PASSWORD TOO LONG?
   8847	017562	002413 				BLT	SCKPTL		; ..YES -- GIVE "PTL" ERROR
   8848	017564	160001 				SUB	R0,R1		; ..NO -- ADJUST THE STRING POINTER
   8849	017566	012702 	001326'			MOV	#KLNPWD,R2	; ..POINT TO THE PASSWORD
   8850	017572	005022 				CLR	(R2)+		; ..CLEAR IT
   8851	017574	005022 				CLR	(R2)+		; ..
   8852	017576	005012 				CLR	(R2)		; ..SO
   8853	017600	024242 				CMP	-(R2),-(R2)	; ..RESET THE POINTER
   8854	017602	000415 				BR	15$		; ..AND GO ON
   8855						;
   8856	017604				SCKNPI:
   8857	017604					ERROR$	NPI		; ERROR -- NULL PASSWORD ILLEGAL
	017604	012746 	055011 			 MOV	#^RNPI,-(SP)
	017610	104400 				 TRAP	TC.ERR
   8858						;
   8859	017612				SCKPTL:
   8860	017612					ERROR$	PTL		; ERROR -- PASSWORD TOO LONG
	017612	012746 	063454 			 MOV	#^RPTL,-(SP)
	017616	104400 				 TRAP	TC.ERR
   8861						;
   8862	017620				SCKSKI:
   8863	017620					ERROR$	SKI		; ERROR -- ILLEGAL WHILE KLINIK ACTIVE
	017620	012746 	074201 			 MOV	#^RSKI,-(SP)
SWKLN -- SET/CLEAR/WHAT "KLINIK	MACRO V05.04  Tuesday 17-May-88 14:36  Page 230-1
.SCKLN -- THE "SET / CLEAR KLINIK" COMMAND 7709.20

	017624	104400 				 TRAP	TC.ERR
   8864						;
   8865	017626				SCKIPC:
   8866	017626	011204 				MOV	(R2),R4		; OFFENDING CHARACTER TO R4
   8867	017630					ERROR$	IPC		; ERROR -- ILLEGAL PASSWORD CHARACTER
	017630	012746 	035303 			 MOV	#^RIPC,-(SP)
	017634	104400 				 TRAP	TC.ERR
   8868						;
   8869	017636				15$:
   8870	017636	112112 				MOVB	(R1)+,(R2)	; ..LOAD THE PASSWORD
   8871	017640	122712 	000060 			CMPB	#'0,(R2)	; ..SEE IF NUMERIC
   8872	017644	003370 				BGT	SCKIPC		; ..TOO SMALL -- GIVE "IPC" ERROR
   8873	017646	122712 	000071 			CMPB	#'9,(R2)	; ..IN RANGE?
   8874	017652	002006 				BGE	20$		; ..YES -- GO ON
   8875	017654	122712 	000101 			CMPB	#'A,(R2)	; ..NO -- IS THE CHARACTER ALPHABETIC?
   8876	017660	003362 				BGT	SCKIPC		; ..TOO SMALL -- GIVE "IPC" ERROR
   8877	017662	122712 	000132 			CMPB	#'Z,(R2)	; ..[TCO 4.2084] IS IT REALLY IN RANGE?
   8878	017666	002757 				BLT	SCKIPC		; ..TOO BIG  -- GIVE "IPC" ERROR
   8879	017670				20$:
   8880	017670	105722 				TSTB	(R2)+		; ..[TCO 4.2084] ADVANCE BYTE POINTER
   8881	017672	077017 				SOB	R0,15$		; ..LOOP UNTIL DONE
   8882	017674				25$:
   8883	017674	012700 	003771'			MOV	#SCKMS1,R0	; .."FROM" MESSAGE POINTER
   8884	017700					CALL	.TYMSG		; ..PRINT IT
	017700	004737 	000000G			 JSR	PC,.TYMSG
   8885	017704	005046 				CLR	-(SP)		; ..CLEAR A BUFFER FOR THE START DATE
   8886	017706	005046 				CLR	-(SP)		; ...
   8887	017710	010600 				MOV	SP,R0		; ....POINT TO IT
   8888	017712					CALL	.GTDAT		; ....GET WINDOW OPEN DATE
	017712	004737 	006026'			 JSR	PC,.GTDAT
   8889	017716	012700 	003771'			MOV	#SCKMS1,R0	; ....SAME MESSAGE
   8890	017722					CALL	.TYMSG		; ....PRINT IT
	017722	004737 	000000G			 JSR	PC,.TYMSG
   8891	017726	005046 				CLR	-(SP)		; ....CLEAR A SPACE FOR THE START TIME
   8892	017730	010600 				MOV	SP,R0		; .....POINT TO IT
   8893	017732					CALL	.GTTIM		; .....GET WINDOW OPEN TIME
	017732	004737 	006472'			 JSR	PC,.GTTIM
   8894	017736	001002 				BNE	30$		; .....GO ON IF NOT DEFAULT
   8895	017740	013716 	000000G			MOV	.SSM,(SP)	; .....ELSE SET DEFAULT FROM THE SYSTEM
   8896	017744				30$:
   8897	017744	012700 	004015'			MOV	#SCKMS2,R0	; ....."TO" MESSAGE POINTER
   8898	017750					CALL	.TYMSG		; .....OUTPUT THAT
	017750	004737 	000000G			 JSR	PC,.TYMSG
   8899	017754	005046 				CLR	-(SP)		; .....CLEAR A BUFFER FOR THE END DATE
   8900	017756	005046 				CLR	-(SP)		; ......
   8901	017760	010600 				MOV	SP,R0		; .......POINT TO IT
   8902	017762					CALL	.GTDAT		; .......GET THE END DATE
	017762	004737 	006026'			 JSR	PC,.GTDAT
   8903	017766	001044 				BNE	50$		; .......GO ON IF NOT DEFAULT
   8904	017770	016616 	000006 			MOV	6(SP),(SP)	; .......DEFAULT -- GET OPEN DATE
   8905	017774	016666 	000010 	000002 		MOV	10(SP),2(SP)	; .......LOAD IT INTO CLOSE DATE
   8906	020002	105720 				TSTB	(R0)+		; .......GET OVER THE YEAR
   8907	020004	112002 				MOVB	(R0)+,R2	; .......MONTH TO R2
   8908	020006	105210 				INCB	(R0)		; .......INCREMENT THE DATE
   8909	020010	122702 	000002 			CMPB	#^D2,R2		; .......IS THIS FEBRUARY?
   8910	020014	001422 				BEQ	45$		; .......YES -- HANDLE SPECIAL CASE
   8911	020016	122710 	000036 			CMPB	#^D30,(R0)	; .......NO -- HOW MANY DAYS?
SWKLN -- SET/CLEAR/WHAT "KLINIK	MACRO V05.04  Tuesday 17-May-88 14:36  Page 230-2
.SCKLN -- THE "SET / CLEAR KLINIK" COMMAND 7709.20

   8912	020022	002026 				BGE	50$		; .......ALL OK IF .LE. 30.
   8913	020024	012701 	172452 			MOV	#^C5325,R1	; .......BIT MASK TO R1
   8914	020030				35$:
   8915	020030	006201 				ASR	R1		; .......SHIFT IT RIGHT
   8916	020032	077202 				SOB	R2,35$		; .......TILL DONE
   8917	020034	103021 				BCC	50$		; .......ALL OK IF CC-C IS CLEAR
   8918	020036				40$:
   8919	020036	112710 	000001 			MOVB	#^D1,(R0)	; .......SET THE DAY TO 1
   8920	020042	105240 				INCB	-(R0)		; .......INCREMENT THE MONTH
   8921	020044	122710 	000014 			CMPB	#^D12,(R0)	; .......DECEMBER?
   8922	020050	002013 				BGE	50$		; .......YES -- GO ON
   8923	020052	012710 	000001 			MOV	#^D1,(R0)	; .......NO -- SET THE MONTH TO JANUARY
   8924	020056	105240 				INCB	-(R0)		; .......AND INCREMENT THE YEAR
   8925	020060	000407 				BR	50$		; .......EXIT
   8926						;
   8927	020062				45$:
   8928	020062	122710 	000034 			CMPB	#^D28,(R0)	; .......28 DAYS?
   8929	020066	002004 				BGE	50$		; .......YES -- GO ON
   8930	020070	132760 	000003 	177776 		BITB	#3,-2(R0)	; .......NO -- LEAP YEAR?
   8931	020076	001357 				BNE	40$		; .......NO -- SET TO MARCH 1
   8932	020100				50$:
   8933	020100	012700 	004015'			MOV	#SCKMS2,R0	; .......SAME MESSAGE FOR END TIME
   8934	020104					CALL	.TYMSG		; .......PRINT IT
	020104	004737 	000000G			 JSR	PC,.TYMSG
   8935	020110	005046 				CLR	-(SP)		; .......CLEAR A SPACE FOR THE END TIME
   8936	020112	010600 				MOV	SP,R0		; ........POINT TO IT
   8937	020114					CALL	.GTTIM		; ........GET THE END TIME
	020114	004737 	006472'			 JSR	PC,.GTTIM
   8938	020120	001002 				BNE	55$		; ........GO ON IF NOT DEFAULT
   8939	020122	016616 	000006 			MOV	6(SP),(SP)	; ........ELSE SET DEFAULT
   8940	020126				55$:
   8941	020126	126666 	000002 	000010 		CMPB	2(SP),10(SP)	; ........ARE THE YEARS IN RANGE?
   8942	020134	002416 				BLT	SCKKWE		; ........NO -- GIVE "KWE" ERROR
   8943	020136	003020 				BGT	60$		; ........YES -- SAME YEAR?
   8944	020140	126666 	000003 	000011 		CMPB	3(SP),11(SP)	; ........YES -- ARE THE MONTHS OK?
   8945	020146	002411 				BLT	SCKKWE		; ........NO -- GIVE "KWE" ERROR
   8946	020150	003013 				BGT	60$		; ........YES -- SAME MONTH?
   8947	020152	126666 	000004 	000012 		CMPB	4(SP),12(SP)	; ........YES -- ARE THE DATES OK?
   8948	020160	002404 				BLT	SCKKWE		; ........NO -- GIVE "KWE" ERROR
   8949	020162	003006 				BGT	60$		; ........YES -- SAME DATE?
   8950	020164	021666 	000006 			CMP	(SP),6(SP)	; ........YES -- ARE THE TIMES OK?
   8951	020170	101003 				BHI	60$		; ........YES -- GO ON
   8952	020172				SCKKWE:
   8953	020172					ERROR$	KWE		; ERROR -- KLINIK WINDOW ERROR
	020172	012746 	044135 			 MOV	#^RKWE,-(SP)
	020176	104400 				 TRAP	TC.ERR
   8954	020200				60$:
   8955	020200	005000 				CLR	R0		; ........CLEAR R0
   8956	020202	105766 	000014 			TSTB	14(SP)		; ........LOOK AT THE KLINIK MODE
   8957	020206	002423 				BLT	65$		; ........GO ON IF USER
   8958	020210	012700 	004042'			MOV	#SCKMS3,R0	; ........ASK FOR HIGHEST CONSOLE MODE
   8959	020214					CALL	.TYMSF		; ........FORCE IT
	020214	004737 	000000G			 JSR	PC,.TYMSF
   8960	020220	012701 	000000G			MOV	#.CIBFR,R1	; ........POINT TO THE INPUT BUFFER
   8961	020224	010105 				MOV	R1,R5		; ........AND R5 TOO
   8962	020226					CALL	.GTLIN		; ........READ THE RESPONSE
	020226	004737 	000000G			 JSR	PC,.GTLIN
SWKLN -- SET/CLEAR/WHAT "KLINIK	MACRO V05.04  Tuesday 17-May-88 14:36  Page 230-3
.SCKLN -- THE "SET / CLEAR KLINIK" COMMAND 7709.20

   8963	020232					CALL	.CKOBJ		; ........MUST HAVE AN OBJECT
	020232	004737 	000000G			 JSR	PC,.CKOBJ
   8964	020236	012700 	000000G			MOV	#.KLMTB,R0	; ........TABLE POINTER TO R0
   8965	020242					CALL	.TSCAN		; ........SCAN THE TABLE
	020242	004737 	000000G			 JSR	PC,.TSCAN
   8966	020246	116000 	000002 			MOVB	2(R0),R0	; ........SAVE THE CONSOLE MODE
   8967	020252					CALL	.CKEOC		; ........MUST HAVE E-O-C
	020252	004737 	000000G			 JSR	PC,.CKEOC
   8968	020256				65$:
   8970	020256					.INH6			; ........DISALLOW INTERRUPTS
	020256	013746 	177776 			MOV	@#PS,-(SP)
	020262	112737 	000300 	177776 		MOVB	#300,@#PS
   8971	020270					POP	R3		;;; .........SAVED PSW TO R3
	020270	012603 				 MOV	(SP)+,R3
   8973	020272	110037 	000001G			MOVB	R0,.KLNMD+1	;;; ........SET THE CONSOLE MODE
   8974	020276					POP	.KLNTT		;;; ........SET THE END TIME
	020276	012637 	000000G			 MOV	(SP)+,.KLNTT
   8975	020302					POP	.KLNTD		;;; .......GET THE END DATE
	020302	012637 	000000G			 MOV	(SP)+,.KLNTD
   8976	020306					POP	.KLNTD+2	;;; ......BOTH HALVES
	020306	012637 	000002G			 MOV	(SP)+,.KLNTD+2
   8977	020312					POP	.KLNFT		;;; .....SET THE START TIME
	020312	012637 	000000G			 MOV	(SP)+,.KLNFT
   8978	020316					POP	.KLNFD		;;; ....POINT TO THE START DATE
	020316	012637 	000000G			 MOV	(SP)+,.KLNFD
   8979	020322					POP	.KLNFD+2	;;; ...BOTH HALVES
	020322	012637 	000002G			 MOV	(SP)+,.KLNFD+2
   8980	020326	112637 	000000G			MOVB	(SP)+,.KLNMD+0	;;; ..SET THE KLINIK MODE
   8981	020332	002410 				BLT	75$		;;; .GO ON IF USER
   8982	020334	012702 	000006 			MOV	#^D6,R2		;;; .CHARACTER COUNT TO R2
   8983	020340	012701 	000000G			MOV	#.KLNPW,R1	;;; .POINT TO THE PASSWORD
   8984	020344	012700 	001326'			MOV	#KLNPWD,R0	;;; .POINT TO OURS
   8985	020350				70$:
   8986	020350	112021 				MOVB	(R0)+,(R1)+	;;; .LOAD THE PASSWORD
   8987	020352	077202 				SOB	R2,70$		;;; .LOOP TILL DONE
   8988	020354				75$:
   8990	020354	010337 	177776 			MOV	R3,@#PS		;;; ENABLE INTERRUPTS
   8992	020360					POP	R5		; .RESTORE R5
	020360	012605 				 MOV	(SP)+,R5
   8993	020362	000421 				BR	85$		; AND EXIT
   8994						;
   8995	020364				80$:
   8996	020364	105737 	000000G			TSTB	.KLNMD+0	; ANYTHING TO CLEAR??
   8997	020370	001502 				BEQ	100$		; NO -- JUST TELL OPERATOR ITS ALREADY CLEAR
   8999	020372					.INH6			; DISALLOW INTERRUPTS
	020372	013746 	177776 			MOV	@#PS,-(SP)
	020376	112737 	000300 	177776 		MOVB	#300,@#PS
   9001	020404	105037 	000000G			CLRB	.KLNMD+0	;;; CLEAR KLINIK
   9002	020410	105037 	000000G			CLRB	.KLNPW+0	;;; CLEAR THE KLINIK PASSWORD
   9003	020414	112737 	000001 	000001G		MOVB	#1,.KLNSW+1	;;; MARK THAT WE WANT A CLEAR
   9005	020422					.ENB6			;;; ENABLE INTERRUPTS
	020422	012637 	177776 			MOV	(SP)+,@#PS
   9007	020426				85$:
   9009	020426	032737 	000000G	000002G		BIT	#EF.PR1,.COMEF+2 ; ANY THING THERE TO GET THIS?
   9010	020434	001460 				BEQ	100$		; NO -- GO ON
   9011	020436					CLEF$S	#E.FKLN		; RESET THE FLAG
	020436	012746 	000004 			MOV	#E.FKLN,-(SP)
SWKLN -- SET/CLEAR/WHAT "KLINIK	MACRO V05.04  Tuesday 17-May-88 14:36  Page 230-4
.SCKLN -- THE "SET / CLEAR KLINIK" COMMAND 7709.20

	020442	012746 				MOV	(PC)+,-(SP)
	020444	   037 	   002 			.BYTE	31.,2
	020446	104375 				EMT	375
   9013	020450	012700 	000000G			MOV	#.KLNPB,R0	; BUFFER POINTER TO R0
   9014	020454	012710 	000000G			MOV	#KLNPLN,(R0)	; BUFFER SIZE TO HEADER
   9015	020460	012701 	100000G			MOV	#BC.SKP+100000,R1 ; FUNCTION CODE TO R1
   9016	020464	005002 				CLR	R2		; NO EVENT FLAG
   9017	020466	012703 	000000G			MOV	#D.CCPU,R3	; DEVICE CODE TO R3
   9018	020472					CALL	..STIN		; SEND THE NEW PARAMETERS
	020472	004737 	000000G			 JSR	PC,..STIN
   9019	020476	012702 	000000C			MOV	#KLNLGL/2,R2	; ARGUMENT COUNT TO R2
   9020	020502	012701 	000000G			MOV	#.KLNPE,R1	; INPUT BLOCK POINTER
   9021	020506	012700 	001326'			MOV	#KLNLGE,R0	; OUTPUT BLOCK POINTER
   9022	020512				90$:
   9023	020512	014140 				MOV	-(R1),-(R0)	; LOAD THE PARAMETERS
   9024	020514	077202 				SOB	R2,90$		; LOOP TILL DONE
   9025	020516	012702 	000001 			MOV	#1,R2		; ASSUME "SET"
   9026	020522	005737 	000000G			TST	.NOTSW		; IS IT??
   9027	020526	001401 				BEQ	95$		; YES -- GO ON
   9028	020530	005402 				NEG	R2		; NO -- INVERT IT
   9029	020532				95$:
   9030	020532	105740 				TSTB	-(R0)		; GET OVER THE LOG CODE
   9031	020534	110240 				MOVB	R2,-(R0)	; SET THE EVENT CODE
   9032	020536	005740 				TST	-(R0)		; BACK OVER THE LOG FLAG
   9033	020540	012740 	000022 			MOV	#22,-(R0)	; SET THE PACKET SIZE
   9034	020544	012701 	100000G			MOV	#BC.HDS+100000,R1 ; FUNCTION CODE TO R1
   9035	020550	012702 	000004 			MOV	#E.FKLN,R2	; EVENT FLAG TO R2
   9036	020554	012703 	000000G			MOV	#D.CKLN,R3	; DEVICE CODE TO R3
   9037	020560					CALL	..STIN		; LOG IT
	020560	004737 	000000G			 JSR	PC,..STIN
   9039	020564					WTSE$S	#E.FKLN		; WAIT FOR IT
	020564	012746 	000004 			MOV	#E.FKLN,-(SP)
	020570	012746 				MOV	(PC)+,-(SP)
	020572	   051 	   002 			.BYTE	41.,2
	020574	104375 				EMT	375
   9041	020576				100$:
   9042					;	BR	.WHKLN		; TELL THE STATE AND EXIT
   9043						;
   9044
   9045						.DSABL	LSB
SWKLN -- SET/CLEAR/WHAT "KLINIK	MACRO V05.04  Tuesday 17-May-88 14:36  Page 231
.SCKLN -- THE "SET / CLEAR KLINIK" COMMAND 7709.20

   9047	001302				.PSECT	DATA
   9048
   9049	001302				KLNLOG:
   9050	001302	000000 				.WORD	0
   9051	001304	000000G				.WORD	DV.LOG
   9052	001306	000000G				.WORD	K.LSCK
   9053	001310	000000 	000000 	000000 		.WORD	0,0,0
   9054	001316	000000 	000000 	000000 		.WORD	0,0,0
   9055	001324	000000 				.WORD	0
   9056		001326'			KLNLGE=.
   9057
   9058	001326				KLNPWD:
   9059	001326	000000 	000000 	000000 		.WORD	0,0,0		; TEMP PASSWORD STORAGE
   9060	003756				.PSECT	MESSAG
   9061
   9062	003756				SCKMS0:
   9063	003756	   120 	   101 	   123 		.ASCIZ	%PASSWORD: %
	003761	   123 	   127 	   117
	003764	   122 	   104 	   072
	003767	   040 	   000
   9064	003771				SCKMS1:
   9065	003771	   101 	   103 	   103 		.ASCIZ	%ACCESS WINDOW OPEN %
	003774	   105 	   123 	   123
	003777	   040 	   127 	   111
	004002	   116 	   104 	   117
	004005	   127 	   040 	   117
	004010	   120 	   105 	   116
	004013	   040 	   000
   9066	004015				SCKMS2:
   9067	004015	   101 	   103 	   103 		.ASCIZ	%ACCESS WINDOW CLOSE %
	004020	   105 	   123 	   123
	004023	   040 	   127 	   111
	004026	   116 	   104 	   117
	004031	   127 	   040 	   103
	004034	   114 	   117 	   123
	004037	   105 	   040 	   000
   9068	004042				SCKMS3:
   9069	004042	   110 	   111 	   107 		.ASCIZ	%HIGHEST CONSOLE MODE: %
	004045	   110 	   105 	   123
	004050	   124 	   040 	   103
	004053	   117 	   116 	   123
	004056	   117 	   114 	   105
	004061	   040 	   115 	   117
	004064	   104 	   105 	   072
	004067	   040 	   000
   9070	004071				SCKMS4:
   9071	004071	   113 	   114 	   111 		.ASCIZ	%KLINIK MODE: %
	004074	   116 	   111 	   113
	004077	   040 	   115 	   117
	004102	   104 	   105 	   072
	004105	   040 	   000
   9072	020576				.PSECT
SWKLN -- SET/CLEAR/WHAT "KLINIK	MACRO V05.04  Tuesday 17-May-88 14:36  Page 232
.WHKLN -- THE "WHAT KLINIK" COMMAND 7702.16

   9074					.SBTTL	.WHKLN -- THE "WHAT KLINIK" COMMAND 7702.16
   9075
   9076					;+
   9077					; .WHKLN -- THE "WHAT KLINIK" COMMAND
   9078					;
   9079					; THIS SUBROUTINE WILL REPORT THE STATE OF THE KLINIK PARAMETERS
   9080					; ON THE CONSOLE DEVICE.
   9081					;
   9082					; INPUT ARGUMENTS:
   9083					;
   9084					;	NONE.
   9085					;
   9086					; OUTPUT ARGUMENTS:
   9087					;
   9088					;	NONE.
   9089					;
   9090					; ERROR CODES RETURNED:
   9091					;
   9092					;	NONE.
   9093					;-
   9094
   9095						.MCALL	DIR$,RQST$
   9096
   9097	020576				.WHKLN::
   9098	020576					CALL	.CKEOC		; MUST HAVE E-O-C
	020576	004737 	000000G			 JSR	PC,.CKEOC
   9099	020602	012700 	004107'			MOV	#WHKMS0,R0	; MESSAGE POINTER TO R0
   9100	020606					CALL	.TYMSG		; PRINT IT
	020606	004737 	000000G			 JSR	PC,.TYMSG
   9101	020612	012700 	004120'			MOV	#WHKMS1,R0	; ASSUME KLINIK IS DISABLED
   9102	020616	105737 	000000G			TSTB	.KLNMD+0	; IS IT?
   9103	020622	001514 				BEQ	40$		; YES -- SAY SO
   9104	020624	012700 	004237'			MOV	#WHKMSA,R0	; NO -- ASSUME ACTIVE
   9105	020630	105737 	000000G			TSTB	.KLNSW+0	; IS IT??
   9106	020634	001002 				BNE	10$		; YES -- GO ON
   9107	020636	012700 	004271'			MOV	#WHKMSI,R0	; NO -- SAY INACTIVE
   9108	020642				10$:
   9109	020642	005737 	000000G			TST	.KLNFD		; IS THERE A DATE??
   9110	020646	001005 				BNE	20$		; YES -- KLINIK REALLY ALIVE
   9111	020650	012700 	004246'			MOV	#WHKMRB,R0	; NO -- ALIVE FROM REBOOT
   9112	020654					CALL	.TYLIN
	020654	004737 	000000G			 JSR	PC,.TYLIN
   9113	020660	000436 				BR	30$		; TYPE MODE AND EXIT
   9114						;
   9115	020662				20$:
   9116	020662					CALL	.TYLIN		; TYPE STATE
	020662	004737 	000000G			 JSR	PC,.TYLIN
   9117	020666	012700 	004131'			MOV	#WHKMS2,R0	; GET OPEN MESSAGE
   9118	020672					CALL	.TYMSG		; PRINT IT
	020672	004737 	000000G			 JSR	PC,.TYMSG
   9119	020676	012700 	000000G			MOV	#.KLNFD,R0	; POINT TO THE FROM DATE
   9120	020702					CALL	.TYDAT		; PRINT IT
	020702	004737 	007040'			 JSR	PC,.TYDAT
   9121	020706	012700 	000000G			MOV	#.KLNFT,R0	; POINT TO THE FROM TIME
   9122	020712					CALL	.TYTIM		; PRINT IT
	020712	004737 	007154'			 JSR	PC,.TYTIM
   9123	020716					CALL	.TCRLF		; END THE LINE
SWKLN -- SET/CLEAR/WHAT "KLINIK	MACRO V05.04  Tuesday 17-May-88 14:36  Page 232-1
.WHKLN -- THE "WHAT KLINIK" COMMAND 7702.16

	020716	004737 	000000G			 JSR	PC,.TCRLF
   9124	020722	012700 	004157'			MOV	#WHKMS3,R0	; CLOSE MESSAGE POINTER
   9125	020726					CALL	.TYMSG		; PRINT IT
	020726	004737 	000000G			 JSR	PC,.TYMSG
   9126	020732	012700 	000000G			MOV	#.KLNTD,R0	; POINT TO THE TO DATE
   9127	020736					CALL	.TYDAT		; PRINT IT
	020736	004737 	007040'			 JSR	PC,.TYDAT
   9128	020742	012700 	000000G			MOV	#.KLNTT,R0	; POINT TO THE TO TIME
   9129	020746					CALL	.TYTIM		; PRINT IT
	020746	004737 	007154'			 JSR	PC,.TYTIM
   9130	020752					CALL	.TCRLF		; END THE LINE
	020752	004737 	000000G			 JSR	PC,.TCRLF
   9131	020756				30$:
   9132	020756	012700 	004302'			MOV	#WHKMSK,R0	; KLINIK MODE
   9133	020762					CALL	.TYMSG		; PRINT IT
	020762	004737 	000000G			 JSR	PC,.TYMSG
   9134	020766	012700 	000000G			MOV	#USRMSG,R0	; ASSUME USER
   9135	020772	105737 	000000G			TSTB	.KLNMD+0	; IS IT??
   9136	020776	100426 				BMI	40$		; YES -- PRINT AND EXIT
   9137	021000	012700 	000000G			MOV	#REMMSG,R0	; NO -- SAY REMOTE
   9138	021004					CALL	.TYLIN		; PRINT IT
	021004	004737 	000000G			 JSR	PC,.TYLIN
   9139	021010	012700 	004207'			MOV	#WHKMS4,R0	; CONSOLE MODE MESSAGE
   9140	021014					CALL	.TYMSG		; PRINT IT
	021014	004737 	000000G			 JSR	PC,.TYMSG
   9141	021020	012700 	000000G			MOV	#MNTMSG,R0	; MAINTENANCE MODE
   9142	021024	122737 	000007 	000001G		CMPB	#LG.ALL,.KLNMD+1
   9143	021032	001410 				BEQ	40$		; YES -- SAY SO
   9144	021034	012700 	000000G			MOV	#PRGMSG,R0	; NO -- PROGRAMMER MAYBE
   9145	021040	122737 	000003 	000001G		CMPB	#LG.PRM,.KLNMD+1
   9146	021046	001402 				BEQ	40$		; YES -- SAY SO
   9147	021050	012700 	000000G			MOV	#OPRMSG,R0	; NO -- MUST BE OPERATOR
   9148	021054				40$:
   9149	021054	105737 	000001G			TSTB	.KLNSW+1	; IS THIS A CLEAR COMMAND??
   9150	021060	001407 				BEQ	50$		; NO -- JUST GO AWAY
   9151	021062					CALL	.TYLIN		; YES -- PRINT THE LINE
	021062	004737 	000000G			 JSR	PC,.TYLIN
   9152	021066					DIR$	#REQKLD		; REQUEST KLD
	021066	012746 	000114'			MOV	#REQKLD,-(SP)
	021072	104375 				EMT	375
   9153	021074					CALLR	.EXITP		; AND EXIT
	021074	000137 	000000G			 JMP	.EXITP
   9154						;
   9155	021100				50$:
   9156	021100					CALLR	.TYLIN		; PRINT AND EXIT
	021100	000137 	000000G			 JMP	.TYLIN
   9157						;
   9158
   9159	000114				.PSECT	DPBS
   9160
   9161	000114				REQKLD:
   9162	000114					RQST$	KLDISC,,10
	000114	   013 	   007 			.BYTE	11.,7
	000116	043244 	035473 			.RAD50	/KLDISC/
	000122	000000 	000000 			.WORD	0,0
	000126	000010 				.WORD	10
	000130	   000 	   000 			.BYTE	,
SWKLN -- SET/CLEAR/WHAT "KLINIK	MACRO V05.04  Tuesday 17-May-88 14:36  Page 232-2
.WHKLN -- THE "WHAT KLINIK" COMMAND 7702.16

   9163
   9164	021104				.PSECT
SWKLN -- SET/CLEAR/WHAT "KLINIK	MACRO V05.04  Tuesday 17-May-88 14:36  Page 233
.WHKLN -- THE "WHAT KLINIK" COMMAND 7702.16

   9166	004107				.PSECT	MESSAG
   9167
   9168	004107				WHKMS0:
   9169	004107	   040 	   113 	   114 		.ASCIZ	% KLINIK %
	004112	   111 	   116 	   111
	004115	   113 	   040 	   000
   9170	004120				WHKMS1:
   9171	004120	   104 	   111 	   123 		.ASCIZ	%DISABLED%
	004123	   101 	   102 	   114
	004126	   105 	   104 	   000
   9172	004131				WHKMS2:
   9173	004131	   040 	   101 	   103 		.ASCIZ	% ACCESS WINDOW OPEN: %
	004134	   103 	   105 	   123
	004137	   123 	   040 	   127
	004142	   111 	   116 	   104
	004145	   117 	   127 	   040
	004150	   117 	   120 	   105
	004153	   116 	   072 	   040
	004156	   000
   9174	004157				WHKMS3:
   9175	004157	   040 	   101 	   103 		.ASCIZ	% ACCESS WINDOW CLOSED: %
	004162	   103 	   105 	   123
	004165	   123 	   040 	   127
	004170	   111 	   116 	   104
	004173	   117 	   127 	   040
	004176	   103 	   114 	   117
	004201	   123 	   105 	   104
	004204	   072 	   040 	   000
   9176	004207				WHKMS4:
   9177	004207	   040 	   110 	   111 		.ASCIZ	% HIGHEST CONSOLE MODE: %
	004212	   107 	   110 	   105
	004215	   123 	   124 	   040
	004220	   103 	   117 	   116
	004223	   123 	   117 	   114
	004226	   105 	   040 	   115
	004231	   117 	   104 	   105
	004234	   072 	   040 	   000
   9178	004237				WHKMSA:
   9179	004237	   101 	   103 	   124 		.ASCIZ	%ACTIVE%
	004242	   111 	   126 	   105
	004245	   000
   9180	004246				WHKMRB:
   9181	004246	   101 	   103 	   124 		.ASCIZ	%ACTIVE FROM REBOOT%
	004251	   111 	   126 	   105
	004254	   040 	   106 	   122
	004257	   117 	   115 	   040
	004262	   122 	   105 	   102
	004265	   117 	   117 	   124
	004270	   000
   9182	004271				WHKMSI:
   9183	004271	   111 	   116 	   101 		.ASCIZ	%INACTIVE%
	004274	   103 	   124 	   111
	004277	   126 	   105 	   000
   9184	004302				WHKMSK:
   9185	004302	   040 	   113 	   114 		.ASCIZ	% KLINIK MODE: %
	004305	   111 	   116 	   111
	004310	   113 	   040 	   115
SWKLN -- SET/CLEAR/WHAT "KLINIK	MACRO V05.04  Tuesday 17-May-88 14:36  Page 233-1
.WHKLN -- THE "WHAT KLINIK" COMMAND 7702.16

	004313	   117 	   104 	   105
	004316	   072 	   040 	   000
   9186	021104				.PSECT
SWKLN -- SET/CLEAR/WHAT "KLINIK	MACRO V05.04  Tuesday 17-May-88 14:36  Page 235
.WHKLN -- THE "WHAT KLINIK" COMMAND 7702.16

   9189
   9190					.TITLE	ZEROC -- ZERO COMMAND MODULE 7609.15
   9191
   9192						.IDENT	"006130"
   9193
   9194					;
   9195					;                             COPYRIGHT (C) 1975, 1984, 1985 BY
   9196					;                     DIGITAL EQUIPMENT CORPORATION, MAYNARD MASS.
   9197					;			ALL RIGHTS RESERVED.
   9198					;       THIS SOFTWARE IS FURNISHED UNDER A LICENSE AND MAY BE  USED  AND  COPIED
   9199					;       ONLY IN ACCORDANCE WITH THE TERMS OF SUCH LICENSE AND WITH THE INCLUSION
   9200					;       OF THE ABOVE COPYRIGHT NOTICE.  THIS SOFTWARE OR ANY OTHER COPIES THERE-
   9201					;       OF  MAY NOT BE PROVIDED OR OTHERWISE MADE AVAILABLE TO ANY OTHER PERSON.
   9202					;       NO TITLE TO OR OWNERSHIP OF THE SOFTWARE IS HEREBY TRANSFERRED.
   9203					;
   9204					;       THE INFORMATION CONTAINED IN THIS SOFTWARE IS SUBJECT TO CHANGE  WITHOUT
   9205					;       NOTICE  AND SHOULD NOT BE CONSTRUED AS A COMMITMENT BY DIGITAL EQUIPMENT
   9206					;       CORPORATION.
   9207					;
   9208					;       DIGITAL ASSUMES NO RESPONSIBILITY FOR THE  USE  OR  RELIABILITY  OF  ITS
   9209					;       SOFTWARE ON EQUIPMENT WHICH IS NOT SUPPILED BY DIGITAL.
   9210					;
   9211					;		MODULE: ZERO COMMAND
   9212					;
   9213					;		VERSION: 06-13
   9214					;
   9215					;		AUTHOR: R. BELANGER
   9216					;
   9217					;		DATE: 7609.15
   9218					;
   9219					;	THIS MODULE CONTAINS:
   9220					;
   9221					;	1) ZERO COMMAND CODE
   9222					;
   9223
   9224						.MCALL	$DEF, DIR$, PRDP$
   9225
   9226	021104					$DEF
ZEROC -- ZERO COMMAND MODULE 76	MACRO V05.04  Tuesday 17-May-88 14:36  Page 236
.ZEROC -- THE "ZERO" COMMAND 7609.15

   9228					.SBTTL	.ZEROC -- THE "ZERO" COMMAND 7609.15
   9229
   9230					;+
   9231					; .ZEROC -- THE "ZERO" COMMAND.
   9232					;
   9233					; THIS ROUTINE WILL SET UP AND EXECUTE A KL "BLT" INSTRUCTION THAT
   9234					; WILL ZERO THE LOWER 256K OF KL MEMORY. KL AC 0 IS USED AS THE
   9235					; BLT POINTER, AND THUS IS NOT ZEROED.
   9236					;
   9237					; INPUT ARGUMENTS:
   9238					;
   9239					;	NONE.
   9240					;
   9241					; OUTPUT ARGUMENTS:
   9242					;
   9243					;	NONE
   9244					;
   9245					; ERROR CODES RETURNED:
   9246					;
   9247					;	NONE.
   9248					;-
   9249
   9250	021104				.ZEROC::
   9251	021104					CALL	.CKRUN		; SEE IF THE KL IS RUNNING
	021104	004737 	000000G			 JSR	PC,.CKRUN
   9252	021110	005046 				CLR	-(SP)		; CLEAR A BUFFER ON THE STACK
   9253	021112	005046 				CLR	-(SP)		; .
   9254	021114	005046 				CLR	-(SP)		; ..
   9255	021116	010600 				MOV	SP,R0		; ...POINT TO THE BUFFER
   9256	021120					CALL	.GTKLA		; ...READ THE FIRST ADDRESS
	021120	004737 	000000G			 JSR	PC,.GTKLA
   9257	021124	010001 				MOV	R0,R1		; ...SAVE POINTER TO FIRST ADDRESS
   9258	021126	122704 	000072 			CMPB	#':,R4		; ...IS LAST CHARACTER A BRACKET?
   9259	021132	001403 				BEQ	10$		; ...YES -- GO ON
   9260	021134	162706 	000006 			SUB	#^D6,SP		; ...NO -- FUDGE THE STACK POINTER
   9261	021140	000407 				BR	20$		; ......AND ASSUME IT IS E-O-C
   9262						;
   9263
   9264					;	[CONTINUED ON THE FOLLOWING PAGE]
ZEROC -- ZERO COMMAND MODULE 76	MACRO V05.04  Tuesday 17-May-88 14:36  Page 237
.ZEROC -- THE "ZERO" COMMAND 7609.15

   9266					;	[CONTINUED FROM THE PREVIOUS PAGE]
   9267
   9268	021142				10$:
   9269	021142	105725 				TSTB	(R5)+		; ...GET OVER THE SEPARATOR
   9270	021144	005046 				CLR	-(SP)		; ...CLEAR ANOTHER BUFFER
   9271	021146	005046 				CLR	-(SP)		; ....
   9272	021150	005046 				CLR	-(SP)		; .....
   9273	021152	010600 				MOV	SP,R0		; ......GET SECOND BUFFER POINTER
   9274	021154					CALL	.GTKLA		; ......READ THE SECOND ADDRESS
	021154	004737 	000000G			 JSR	PC,.GTKLA
   9275	021160				20$:
   9276	021160					CALL	.CKEOC		; ......MUST BE E-O-C
	021160	004737 	000000G			 JSR	PC,.CKEOC
   9277	021164					PUSH	<R0,R1>		; ......SAVE THE POINTERS
	021164	010046 				 MOV	R0,-(SP)
	021166	010146 				 MOV	R1,-(SP)
   9278	021170					CALL	.STPKL		; ........STOP THE KL
	021170	004737 	000000G			 JSR	PC,.STPKL
   9279	021174	032737 	100000 	000000G		BIT	#KF.CLK,.KLFLG	; ........IS THE CLOCK RUNNING?
   9280	021202	001002 				BNE	30$		; ........YES -- GO ON
   9281	021204					CALL	.STCLK		; ........NO -- START IT
	021204	004737 	000000G			 JSR	PC,.STCLK
   9282	021210				30$:
   9283	021210					POP	<R1,R0>		; ........RESTORE THE POINTERS
	021210	012601 				 MOV	(SP)+,R1
	021212	012600 				 MOV	(SP)+,R0
   9284	021214	012702 	000000G			MOV	#.TPDEC,R2	; ......DISPATCH FOR DECREMENT
   9285	021220					CALL	.TPCMP		; ......COMPARE ADDRESSES
	021220	004737 	000000G			 JSR	PC,.TPCMP
   9286	021224	002402 				BLT	40$		; ......ALL OK IF (R1) .GT. (R0)
   9287	021226	012702 	000000G			MOV	#.TPINC,R2	; ......SET UP FOR FORWARD
   9288	021232				40$:
   9289	021232	010003 				MOV	R0,R3		; ......END ADDRESS TO R3
   9290	021234	010100 				MOV	R1,R0		; ......BEGINNING ADDESSS TO R0
   9291	021236	010301 				MOV	R3,R1		; ......END ADDRESS TO R1
   9292	021240	005046 				CLR	-(SP)		; ......CLEAR A DATA BUFFER
   9293	021242	005046 				CLR	-(SP)		; .......
   9294	021244	005046 				CLR	-(SP)		; ........
   9295	021246	010603 				MOV	SP,R3		; .........POINT TO IT
   9296	021250	010337 	000140'			MOV	R3,ZERDPB+6	; .........SET UP THE DEPOSIT DPB
   9297	021254	010037 	000136'			MOV	R0,ZERDPB+4	; .........SO
   9298
   9299					;	[CONTINUED ON THE FOLLOWING PAGE]
ZEROC -- ZERO COMMAND MODULE 76	MACRO V05.04  Tuesday 17-May-88 14:36  Page 238
.ZEROC -- THE "ZERO" COMMAND 7609.15

   9301					;	[CONTINUED FROM THE PREVIOUS PAGE]
   9302
   9303	021260				50$:
   9304	021260	012703 	000144 			MOV	#^D100,R3	; .........LOOP COUNT TO R4
   9305	021264				60$:
   9309	021264					DIR$	#ZERDPB		; .........DO THE DEPOSIT
	021264	012746 	000132'			MOV	#ZERDPB,-(SP)
	021270	104375 				EMT	375
   9311	021272	103415 				BCS	80$		; .........ERROR IF CC-C IS SET
   9312	021274					CALL	.TPCMP		; .........ARE WE DONE?
	021274	004737 	000000G			 JSR	PC,.TPCMP
   9313	021300	001405 				BEQ	70$		; .........YES -- EXIT
   9314	021302					CALL	(R2)		; .........NO -- COMPUTE NEXT ADDRESS
	021302	004712 				 JSR	PC,(R2)
   9315	021304	077311 				SOB	R3,60$		; .........LOOP THRU THIS SET
   9316	021306					CALL	.CKCTC		; .........LOOK FOR CONTROL-C
	021306	004737 	000000G			 JSR	PC,.CKCTC
   9317	021312	000762 				BR	50$		; .........AND GO ON
   9318						;
   9319	021314				70$:
   9320	021314	062706 	000022 			ADD	#^D18,SP	; .........CLEAR THE STACK
   9321	021320	005037 	000000G			CLR	.SVKLF		; CLEAR ".SVKLF"
   9322	021324					RETURN			; TO CALLER
	021324	000207 				 RTS	PC
   9323	021326				80$:
   9324	021326	022737 	000000G	000000G		CMP	#IE.EBX,$DSW	; IS THE EBOX STOPPED?
   9325	021334	001403 				BEQ	ZERESD		; YES -- SAY SO
   9326	021336					ERROR$	DMF		; NO -- ERROR -- DEPOSIT MEMORY FAILED
	021336	012746 	015416 			 MOV	#^RDMF,-(SP)
	021342	104400 				 TRAP	TC.ERR
   9327						;
   9328	021344				ZERESD:
   9329	021344					ERROR$	ESD		; ERROR -- EBOX STOPPED - DEPOSIT
	021344	012746 	021074 			 MOV	#^RESD,-(SP)
	021350	104400 				 TRAP	TC.ERR
   9330						;
   9331
   9332	000132				.PSECT	DPBS
   9333
   9334	000132				ZERDPB:
   9335	000132					PRDP$	0,0,0,ED.PHY
	000132	   011 	   005 			.BYTE	DR.DTE,5
	000134	   016 	   200 			.BYTE	DF.PDP,ED.PHY
	000136	000000 				.WORD	0
	000140	000000 				.WORD	0
	000142	000000 				.WORD	0
   9336
   9337	021352				.PSECT
ZEROC -- ZERO COMMAND MODULE 76	MACRO V05.04  Tuesday 17-May-88 14:36  Page 240
.ZEROC -- THE "ZERO" COMMAND 7609.15

   9340
   9341
   9342
   9343					;
   9344					;                             COPYRIGHT (C) 1975, 1984, 1985 BY
   9345					;                     DIGITAL EQUIPMENT CORPORATION, MAYNARD MASS.
   9346					;			ALL RIGHTS RESERVED.
   9347					;       THIS SOFTWARE IS FURNISHED UNDER A LICENSE AND MAY BE  USED  AND  COPIED
   9348					;       ONLY IN ACCORDANCE WITH THE TERMS OF SUCH LICENSE AND WITH THE INCLUSION
   9349					;       OF THE ABOVE COPYRIGHT NOTICE.  THIS SOFTWARE OR ANY OTHER COPIES THERE-
   9350					;       OF  MAY NOT BE PROVIDED OR OTHERWISE MADE AVAILABLE TO ANY OTHER PERSON.
   9351					;       NO TITLE TO OR OWNERSHIP OF THE SOFTWARE IS HEREBY TRANSFERRED.
   9352					;
   9353					;       THE INFORMATION CONTAINED IN THIS SOFTWARE IS SUBJECT TO CHANGE  WITHOUT
   9354					;       NOTICE  AND SHOULD NOT BE CONSTRUED AS A COMMITMENT BY DIGITAL EQUIPMENT
   9355					;       CORPORATION.
   9356					;
   9357					;       DIGITAL ASSUMES NO RESPONSIBILITY FOR THE  USE  OR  RELIABILITY  OF  ITS
   9358					;       SOFTWARE ON EQUIPMENT WHICH IS NOT SUPPILED BY DIGITAL.
   9359					;
   9360					;
   9361					;		VERSION: 06-13
   9362					;
   9363					;
   9364					;
   9365					;	THIS MODULE CONTAINS:
   9366					;
   9367					;
   9368
   9369
ZEROC -- ZERO COMMAND MODULE 76	MACRO V05.04  Tuesday 17-May-88 14:36  Page 241
.ZEROC -- THE "ZERO" COMMAND 7609.15

   9371
   9372					;+
   9373					;
   9374					; THIS ROUTINE WILL SET UP AND EXECUTE A KL "BLT" INSTRUCTION THAT
   9375					; WILL ZERO THE LOWER 256K OF KL MEMORY. KL AC 0 IS USED AS THE
   9376					; BLT POINTER, AND THUS IS NOT ZEROED.
   9377					;
   9378					; INPUT ARGUMENTS:
   9379					;
   9380					;	NONE.
   9381					;
   9382					; OUTPUT ARGUMENTS:
   9383					;
   9384					;	NONE
   9385					;
   9386					; ERROR CODES RETURNED:
   9387					;
   9388					;	NONE.
   9389					;-
   9390
ZEROC -- ZERO COMMAND MODULE 76	MACRO V05.04  Tuesday 17-May-88 14:36  Page 244
.ZEROC -- THE "ZERO" COMMAND 7609.15

   9394	001334				.PSECT	DATA
   9395	001334	000000 			EXDEPF:	.WORD 0
   9396	001336	000000G			QTAB:	.WORD Q0
   9397	001340	000000G				.WORD Q1
   9398	001342	000000G				.WORD Q2
   9399	001344	000000G				.WORD Q3
   9400
   9401	021352				.PSECT
   9402						.ENABL	LSB
   9403
   9404	021352				.SAVQ::
   9405	021352	005037 	001334'			CLR	EXDEPF
   9406	021356	000403 				BR	10$
   9407	021360				.RESQ::
   9408	021360	012737 	000001 	001334'		MOV	#1,EXDEPF
   9409	021366				10$:
   9410	021366					PUSH	<R0,R1,R2,R3>
	021366	010046 				 MOV	R0,-(SP)
	021370	010146 				 MOV	R1,-(SP)
	021372	010246 				 MOV	R2,-(SP)
	021374	010346 				 MOV	R3,-(SP)
   9411	021376					CALL	.GTELN
	021376	004737 	000000G			 JSR	PC,.GTELN
   9412	021402	006300 				ASL	R0
   9413	021404	016003 	001336'			MOV	QTAB(R0),R3
   9414	021410					CALL	.CKCOL
	021410	004737 	000000G			 JSR	PC,.CKCOL
   9415	021414	012700 	000000G			MOV	#.EDKLX,R0
   9416	021420					CALL	.GTKLA
	021420	004737 	000000G			 JSR	PC,.GTKLA
   9417	021424					PUSH	R3
	021424	010346 				 MOV	R3,-(SP)
   9418	021426					PUSH	#.EDKLX
	021426	012746 	000000G			 MOV	#.EDKLX,-(SP)
   9419	021432	010601 				MOV	SP,R1
   9420	021434	012700 	000200 			MOV	#ED.PHY,R0
   9421	021440	005737 	001334'			TST	EXDEPF
   9422	021444	001403 				BEQ	20$
   9423	021446					CALL	.DPKLM
	021446	004737 	000000G			 JSR	PC,.DPKLM
   9424	021452	000402 				BR	30$
   9425	021454				20$:
   9426	021454					CALL	.EXKLM
	021454	004737 	000000G			 JSR	PC,.EXKLM
   9427	021460				30$:
   9428	021460	005726 				TST	(SP)+
   9429	021462	005726 				TST	(SP)+
   9430	021464					POP	<R3,R2,R1,R0>
	021464	012603 				 MOV	(SP)+,R3
	021466	012602 				 MOV	(SP)+,R2
	021470	012601 				 MOV	(SP)+,R1
	021472	012600 				 MOV	(SP)+,R0
   9431	021474					RETURN
	021474	000207 				 RTS	PC
   9432						.DSABL	LSB
   9433
   9434						.EVEN
ZEROC -- ZERO COMMAND MODULE 76	MACRO V05.04  Tuesday 17-May-88 14:36  Page 244-1
.ZEROC -- THE "ZERO" COMMAND 7609.15

   9435		000001 				.END
ZEROC -- ZERO COMMAND MODULE 76	MACRO V05.04  Tuesday 17-May-88 14:36  Page 244-2
Symbol table

ABTAB   000530R     002	ASH   = 000240   	CCEMSG  003317R     003	CR.HLF= 000001   	DG3B1   001711R     003
ACADR   001026RG    002	ASHC  = 000244   	CC.ALL= 003417   	CR.NRM= 000000   	DIAG1 = 174430
ACDAT   000766R     002	AUGMSG= ****** GX	CC.NRM= 000000   	CR.QTR= 000002   	DIAG2 = 174432
ADD   = 000270   	A.LULU= 000002   	CDD   = 000020   	CR.SLO= 000003   	DIAG3 = 174436
ADDB  = 000273   	A.LUNA= 000004   	CDMTB   001214R     002	CS.ALL= 000014   	DIATAB  000356R     002
ADDI  = 000271   	A.LUNU= 000006   	CD.ALL= 003400   	CS.CS1= 000004   	DIKL10= 000010
ADDM  = 000272   	BC.HDS= ****** GX	CD.CLC= 000400   	CS.CS2= 000010   	DIV   = 000234
ADH   = 000000   	BC.SKP= ****** GX	CD.CRC= 002000   	CS.EXP= 177670   	DIVB  = 000237
ADL   = 000100   	BIT0  = 000001   	CD.DPC= 001000   	CS.EXT= 000010   	DIVI  = 000235
AND   = 000404   	BIT00 = 000001   	CD.NRM= 000000   	CS.FST= 000004   	DIVM  = 000236
ANDB  = 000407   	BIT01 = 000002   	CHNPNT= 000001   	CS.MGN= 000004   	DLYCNT= 174400
ANDCA = 000410   	BIT02 = 000004   	CH.ALP= 000001   	CS.NRM= 000000   	DMOVE = 000120
ANDCAB= 000413   	BIT03 = 000010   	CH.ANM= 000003   	CS.UDF= 000014   	DMOVEM= 000124
ANDCAI= 000411   	BIT04 = 000020   	CH.AOP= 000100   	CTLMSG= ****** GX	DMOVN = 000121
ANDCAM= 000412   	BIT05 = 000040   	CH.END= 000034   	DATAI = 000001   	DMOVNM= 000125
ANDCB = 000440   	BIT06 = 000100   	CH.EOC= 000010   	DATAO = 000003   	DON10C= 040000
ANDCBB= 000443   	BIT07 = 000200   	CH.EOL= 000004   	DATBUF  001262R     002	DON10S= 100000
ANDCBI= 000441   	BIT08 = 000400   	CH.EOS= 000020   	DCOMST= 000001   	DON11C= 000100
ANDCBM= 000442   	BIT09 = 001000   	CH.ILL= 000200   	DECMSG= ****** GX	DON11S= 000200
ANDCM = 000420   	BIT1  = 000002   	CH.NUL= 000000   	DEP   = 010000   	DOWMTB  001244R     002
ANDCMB= 000423   	BIT10 = 002000   	CH.NUM= 000002   	DEPBLK  000756R     002	DOWTAB  001204R     002
ANDCMI= 000421   	BIT11 = 004000   	CH.PFX= 000040   	DEPOS   001343R     003	DPB   = 000137
ANDCMM= 000422   	BIT12 = 010000   	CIDLUN= 000001   	DEX   = 000400   	DPOAPE  002542R
ANDI  = 000405   	BIT13 = 020000   	CLDSTB  001124R     002	DEXDON= 000004   	DPOATB  000000R     002
ANDM  = 000406   	BIT14 = 040000   	CLEAR = 000400   	DEXWD1= 174406   	DPODTB  000004R     002
AOBJN = 000253   	BIT15 = 100000   	CLEARB= 000403   	DEXWD2= 174404   	DPOITB  000010R     002
AOBJP = 000252   	BIT2  = 000004   	CLEARI= 000401   	DEXWD3= 174402   	DPOKCN  002550R
AOJ   = 000340   	BIT3  = 000010   	CLEARM= 000402   	DFAD  = 000110   	DPONTB  000014R     002
AOJA  = 000344   	BIT4  = 000020   	CLOSE = 000070   	DFBEND= ****** GX	DPOOAI  001546R
AOJE  = 000342   	BIT5  = 000040   	CLRTTB  001150R     002	DFCIFC  000656R  	DPOPTB  000020R     002
AOJG  = 000347   	BIT6  = 000100   	CLSRTB  001140R     002	DFDV  = 000113   	DPOVFE  002556R
AOJGE = 000345   	BIT7  = 000200   	CMDK1   002231R     003	DFMP  = 000112   	DPOZTB  000024R     002
AOJL  = 000341   	BIT8  = 000400   	CMDK10  002366R     003	DFN   = 000131   	DPS4  = 040000
AOJLE = 000343   	BIT9  = 001000   	CMDK2   002244R     003	DFRMSG  000000R     003	DPTMSG= ****** GX
AOJN  = 000346   	BLKI  = 000000   	CMDK3   002256R     003	DFSB  = 000111   	DRATAB  000442R     002
AOS   = 000350   	BLKO  = 000002   	CMDK4   002267R     003	DFUNC = 000200   	DRESET= 000100
AOSA  = 000354   	BLT   = 000251   	CMDK5   002302R     003	DF.DMG= 000004   	DRMMSG= ****** GX
AOSE  = 000352   	BPARER= 000020   	CMDK6   002315R     003	DF.DMN= 000007   	DR.DTE= 000011
AOSG  = 000357   	CAI   = 000300   	CMDK7   002330R     003	DF.DOR= 000001   	DSEND = 000004
AOSGE = 000355   	CAIA  = 000304   	CMDK8   002342R     003	DF.EHG= 000010   	DS04  = 004000
AOSL  = 000351   	CAIE  = 000302   	CMDK9   002354R     003	DF.EHM= 000011   	DS05  = 002000
AOSLE = 000353   	CAIG  = 000307   	CNUPE = 000002   	DF.EMG= 000005   	DS06  = 001000
AOSN  = 000356   	CAIGE = 000305   	CODLUN= 000002   	DF.EMN= 000006   	DTEBUF  000140R     002
APR   = 000000   	CAIL  = 000301   	CONI  = 000005   	DF.KLR= 000012   	DTECMD= 000451
APRMSG= ****** GX	CAILE = 000303   	CONKNC  000156R  	DF.KLW= 000013   	DTEFLG= 000444
AP.ALL= 000177   	CAIN  = 000306   	CONO  = 000004   	DF.KLX= 000014   	DTEF11= 000450
AP.ARP= 001000   	CALL  = 000040   	CONSO = 000007   	DF.OFF= 000002   	DTEMTD= 000455
AP.CDP= 000004   	CALLI = 000047   	CONSZ = 000006   	DF.ON = 000003   	DTEMTI= 000456
AP.EIP= 000400   	CAM   = 000310   	CPUNUM= 000002   	DF.PDP= 000016   	DTEREG  000200R     002
AP.IPF= 000020   	CAMA  = 000314   	CPVMSG= ****** GX	DF.PEX= 000015   	DUPE  = 000020
AP.MPE= 000010   	CAME  = 000312   	CRATAB  000412R     002	DG1B10  001424R     003	DURE  = 000004
AP.NRM= 001400   	CAMG  = 000317   	CRLTAB  000426R     002	DG1B11  001373R     003	DV.LOG= ****** GX
AP.NXM= 000040   	CAMGE = 000315   	CRMMSG= ****** GX	DG1B5   001647R     003	DXWRD1= 002000
AP.PWF= 000001   	CAML  = 000311   	CR.ALL= 000003   	DG1B6   001604R     003	DX1MS1  001025R     003
AP.SAP= 000002   	CAMLE = 000313   	CR.CR1= 000001   	DG1B7   001541R     003	DX1MS2  001045R     003
AP.SBE= 000100   	CAMN  = 000316   	CR.CR2= 000002   	DG1B8   001475R     003	D.CCPU= ****** GX
ARMSG = ****** GX	CCA   = 000014   	CR.FUL= 000000   	DG1B9   001450R     003	D.CKLN= ****** GX
ZEROC -- ZERO COMMAND MODULE 76	MACRO V05.04  Tuesday 17-May-88 14:36  Page 244-3
Symbol table

D1.CES= 004000   	EOSMSG  002205R     003	FDVRB = 000177   	FR.VM0= 000320   	FR.161= 000342
D1.DCS= 000001   	EPMSG0  002112R     003	FDVRI = 000175   	FR.VM1= 000322   	FR.162= 000344
D1.DDT= 000040   	EPMSG1  002126R     003	FDVRM = 000176   	FR.VM2= 000324   	FR.163= 000346
D1.DEX= 000400   	EPMSG2  002140R     003	FEBMSG= ****** GX	FR.VM3= 000326   	FR.164= 000350
D1.DFM= 000010   	EPMSG3  002154R     003	FERTAB  000456R     002	FR.VM4= 000330   	FR.165= 000352
D1.DS0= 100000   	EPTR  = 000000   	FIX   = 000122   	FR.VM5= 000332   	FR.166= 000354
D1.DS1= 040000   	EPTUPT  000114R     002	FIXR  = 000126   	FR.VM6= 000334   	FR.167= 000356
D1.DS2= 020000   	EQV   = 000444   	FLTR  = 000127   	FR.VM7= 000336   	FR.170= 000360
D1.DS3= 010000   	EQVB  = 000447   	FMABO   002462R     003	FR.100= 000200   	FR.171= 000362
D1.DS4= 004000   	EQVI  = 000445   	FMBUF   001004R     002	FR.101= 000202   	FR.172= 000364
D1.DS5= 002000   	EQVM  = 000446   	FMERR   001002R     002	FR.102= 000204   	FR.173= 000366
D1.DS6= 001000   	ERRCES= ****** GX	FMHED   002416R     003	FR.103= 000206   	FR.174= 000370
D1.HLP= 001000   	ERRCPE= ****** GX	FMMSG = ****** GX	FR.104= 000210   	FR.175= 000372
D1.LBK= 000200   	ERRDPE= ****** GX	FMP   = 000160   	FR.105= 000212   	FR.176= 000374
D1.MBZ= 000442   	ERRFME= ****** GX	FMPB  = 000163   	FR.106= 000214   	FR.177= 000376
D1.PLS= 000020   	ERR10C= 010000   	FMPL  = 000161   	FR.107= 000216   	FSB   = 000150
D1.RUN= 002000   	ERR10S= 020000   	FMPM  = 000162   	FR.110= 000220   	FSBB  = 000153
D1.T10= 000200   	ERR11C= 000001   	FMPR  = 000164   	FR.111= 000222   	FSBL  = 000151
D1.T11= 000100   	ERR11S= 000002   	FMPRB = 000167   	FR.112= 000224   	FSBM  = 000152
D1.V04= 000020   	EXADTB  000034R     002	FMPRI = 000165   	FR.113= 000226   	FSBR  = 000154
D1.XFR= 000004   	EXAITB  000040R     002	FMPRM = 000166   	FR.114= 000230   	FSBRB = 000157
D1011 = 000040   	EXAM    001353R     003	FNCIFC  001332R  	FR.115= 000232   	FSBRI = 000155
D2.EBD= 040000   	EXANTB  000044R     002	FNCOFC  001340R  	FR.116= 000234   	FSBRM = 000156
D2.MBZ= 177641   	EXAOAI  002110R  	FOFMSG  002003R     003	FR.117= 000236   	FSC   = 000132
D2.MS1= 000002   	EXAPTB  000050R     002	FONMSG  001775R     003	FR.120= 000240   	FSSMSG= ****** GX
D2.MS2= 000004   	EXAZTB  000054R     002	FORPRO= 000020   	FR.121= 000242   	FTBYTE= 000000
D2.MS4= 000010   	EXBLK   001022R     002	FRDBUF  000626RG    002	FR.122= 000244   	FTCRAM= 000000
D2.MS8= 000020   	EXCH  = 000250   	FRIMSG  003724R     003	FR.123= 000246   	FTDEBU= 000001
D2.RA0= 100000   	EXCIOC  003574R  	FR.ADX= 000254   	FR.124= 000250   	FTDISP= 000000
D2.RA1= 040000   	EXDAT   001032RG    002	FR.APR= 000220   	FR.125= 000252   	FTDRAM= 000000
D2.RA2= 020000   	EXDEPF  001334R     002	FR.ARX= 000252   	FR.126= 000254   	FTHELP= 000000
D2.RST= 000100   	EXFMSG  002011R     003	FR.BRX= 000250   	FR.127= 000256   	FTKLE = 000001
D3.CDD= 000020   	EXMDTB  000030R     002	FR.CA1= 000312   	FR.130= 000260   	FTKLER= 000000
D3.MBZ= 177704   	EXRTBL= ****** GX	FR.CA2= 000310   	FR.131= 000262   	FTLCVT= 000000
D3.NPE= 000002   	EXTEND= 000123   	FR.CL1= 000316   	FR.132= 000264   	FTLIST= 000001
D3.PAR= 040000   	EXTKCN  003230R  	FR.CL2= 000314   	FR.133= 000266   	FTTRAK= 000001
D3.RST= 000001   	EXTMSG= ****** GX	FR.CRD= 000302   	FR.134= 000270   	FTTRP4= 000001
D3.SCD= 000040   	E.FCID= 000002   	FR.CR1= 000316   	FR.135= 000272   	FTUCVR= 000130
D3.SSL= 100000   	E.FCOD= 000003   	FR.CR2= 000314   	FR.136= 000274   	FT1105= 000001
D3.TXB= 000001   	E.FCTC= ****** GX	FR.CR3= 000312   	FR.137= 000276   	FT1110= 000001
D3.UPE= 000020   	E.FFIL= 000006   	FR.CR4= 000310   	FR.140= 000300   	FT1115= 000001
D3.URE= 000004   	E.FHTO= 000001   	FR.DA1= 000260   	FR.141= 000302   	FT1120= 000001
D3.WEP= 000010   	E.FKLN= 000004   	FR.DA2= 000262   	FR.142= 000304   	FT1135= 000001
EBSEL = 000100   	E.FLOD= 000005   	FR.EBS= 000356   	FR.143= 000306   	FT1140= 000001
EBUSPC= 000020   	FAD   = 000140   	FR.FE1= 000266   	FR.144= 000310   	FT1145= 000000
EBUSPS= 000004   	FADB  = 000143   	FR.FE2= 000264   	FR.145= 000312   	FULMSG= ****** GX
EDNKLA  000540R  	FADL  = 000141   	FR.PI0= 000200   	FR.146= 000314   	FW.APE= 000116
EDONES= 040000   	FADM  = 000142   	FR.PI1= 000202   	FR.147= 000316   	FW.CA1= 000122
ED.EPT= 000000   	FADR  = 000144   	FR.RAD= 000256   	FR.150= 000320   	FW.CA2= 000124
ED.EXV= 000040   	FADRB = 000147   	FR.RAR= 000240   	FR.151= 000322   	FW.CDR= 000112
ED.PHY= 000200   	FADRI = 000145   	FR.RBR= 000242   	FR.152= 000324   	FW.CHN= 000160
ED.UPT= 000100   	FADRM = 000146   	FR.RFM= 000246   	FR.153= 000326   	FW.CRD= 000126
ED.USV= 000140   	FDV   = 000170   	FR.RMQ= 000244   	FR.154= 000330   	FW.CR1= 000136
EF.CRI= ****** GX	FDVB  = 000173   	FR.SC1= 000262   	FR.155= 000332   	FW.CR2= 000134
EF.PR1= ****** GX	FDVL  = 000171   	FR.SC2= 000260   	FR.156= 000334   	FW.CR3= 000132
ELEMSG= ****** GX	FDVM  = 000172   	FR.SR1= 000306   	FR.157= 000336   	FW.CR4= 000130
ENTER = 000077   	FDVR  = 000174   	FR.SR2= 000304   	FR.160= 000340   	FW.CSR= 000110
ZEROC -- ZERO COMMAND MODULE 76	MACRO V05.04  Tuesday 17-May-88 14:36  Page 244-4
Symbol table

FW.DJE= 000146   	FX.SYC= 000010   	HDDAG3  000237R     003	HRLS  = 000507   	INT11C= 002000
FW.DJO= 000150   	FX.UDR= 000032   	HDDEX1  000043R     003	HRLZ  = 000514   	INT11S= 004000
FW.DR1= 000140   	FX.UIR= 000030   	HDDEX2  000030R     003	HRLZI = 000515   	IOR   = 000434
FW.DR2= 000142   	FX.000= 000000   	HDDEX3  000015R     003	HRLZM = 000516   	IORB  = 000437
FW.DR3= 000144   	FX.001= 000002   	HDDLY   000004R     003	HRLZS = 000517   	IORI  = 000435
FW.EBL= 000174   	FX.002= 000004   	HDSTAT  000224R     003	HRR   = 000540   	IORM  = 000436
FW.IAC= 000154   	FX.003= 000006   	HDTAD1  000056R     003	HRRE  = 000570   	IO.ACE= ****** GX
FW.IOJ= 000152   	FX.004= 000010   	HDTAD2  000071R     003	HRREI = 000571   	IO.ACR= ****** GX
FW.IPE= 000114   	FX.005= 000012   	HDT10A  000126R     003	HRREM = 000572   	IO.ATT= ****** GX
FW.KLO= 000156   	FX.006= 000014   	HDT10B  000102R     003	HRRES = 000573   	IO.DET= ****** GX
FW.LAR= 000176   	FX.007= 000016   	HDT10D  000152R     003	HRRI  = 000541   	IP.ALL= 000017
FW.LBL= 000106   	FX.010= 000020   	HDT11A  000141R     003	HRRM  = 000542   	IP.CRP= 000004
FW.LBR= 000104   	FX.011= 000022   	HDT11B  000115R     003	HRRO  = 000560   	IP.DRP= 000002
FW.MBX= 000162   	FX.012= 000024   	HDT11D  000165R     003	HRROI = 000561   	IP.FMP= 000010
FW.SBR= 000174   	FX.013= 000026   	HIBYTE= 177400   	HRROM = 000562   	IP.FSS= 000001
FW.040= 000100   	FX.014= 000030   	HLFMSG= ****** GX	HRROS = 000563   	IP.NRM= 000016
FW.041= 000102   	FX.015= 000032   	HLL   = 000500   	HRRS  = 000543   	JANMSG= ****** GX
FW.042= 000104   	FX.016= 000034   	HLLE  = 000530   	HRRZ  = 000550   	JFCL  = 000255
FW.043= 000106   	FX.017= 000036   	HLLEI = 000531   	HRRZI = 000551   	JFFO  = 000243
FW.044= 000110   	FX.020= 000040   	HLLEM = 000532   	HRRZM = 000552   	JRA   = 000267
FW.045= 000112   	FX.021= 000042   	HLLES = 000533   	HRRZS = 000553   	JRST  = 000254
FW.046= 000114   	FX.022= 000044   	HLLI  = 000501   	H.KCAC= ****** GX	JSA   = 000266
FW.047= 000116   	FX.023= 000046   	HLLM  = 000502   	H.KCHN= ****** GX	JSP   = 000265
FW.050= 000120   	FX.024= 000050   	HLLO  = 000520   	H.KEXT= ****** GX	JSR   = 000264
FW.051= 000122   	FX.025= 000052   	HLLOI = 000521   	H.KMOS= ****** GX	JSYS  = 000104
FW.052= 000124   	FX.026= 000054   	HLLOM = 000522   	H.KPWR= ****** GX	JULMSG= ****** GX
FW.053= 000126   	FX.027= 000056   	HLLOS = 000523   	I     = 000000   	JUMP  = 000320
FW.054= 000130   	FX.030= 000060   	HLLS  = 000503   	IBP   = 000133   	JUMPA = 000324
FW.055= 000132   	FX.031= 000062   	HLLZ  = 000510   	IDIV  = 000230   	JUMPE = 000322
FW.056= 000134   	FX.032= 000064   	HLLZI = 000511   	IDIVB = 000233   	JUMPG = 000327
FW.057= 000136   	FX.033= 000066   	HLLZM = 000512   	IDIVI = 000231   	JUMPGE= 000325
FW.060= 000140   	FX.034= 000070   	HLLZS = 000513   	IDIVM = 000232   	JUMPL = 000321
FW.061= 000142   	FX.035= 000072   	HLR   = 000544   	IDPB  = 000136   	JUMPLE= 000323
FW.062= 000144   	FX.036= 000074   	HLRE  = 000574   	IE.ACT= ****** GX	JUMPN = 000326
FW.063= 000146   	FX.037= 000076   	HLREI = 000575   	IE.EBX= ****** GX	JUNMSG= ****** GX
FW.064= 000150   	GETEBR  000124RG    002	HLREM = 000576   	IE.INS= ****** GX	KF.BRM= 001000
FW.065= 000152   	GETSTS= 000062   	HLRES = 000577   	IFLOP = 100000   	KF.CES= 000100
FW.066= 000154   	GETUBR  000132RG    002	HLRO  = 000564   	ILDB  = 000134   	KF.CLK= 100000
FW.067= 000156   	GOOBLK  001016R     002	HLROI = 000565   	IMUL  = 000220   	KF.CON= 000200
FW.070= 000160   	GTDDBT  006442R  	HLROM = 000566   	IMULB = 000223   	KF.DEF= 000200
FW.071= 000162   	GTDDOR  006450R  	HLROS = 000567   	IMULI = 000221   	KF.KLO= 000400
FW.072= 000164   	GTDIDF  006456R  	HLRS  = 000547   	IMULM = 000222   	KF.MRS= 020000
FW.073= 000166   	GTDMS0  002167R     003	HLRZ  = 000554   	IN    = 000056   	KF.RUN= 040000
FW.074= 000170   	GTDYOR  006464R  	HLRZI = 000555   	INBUF = 000064   	KF.SIM= 010000
FW.075= 000172   	GTTITF  007024R  	HLRZM = 000556   	INCEX   000074R     002	KF.SMC= 004000
FW.076= 000174   	GTTMS0  002176R     003	HLRZS = 000557   	INCFR   000064R     002	KF.SPM= 002000
FW.077= 000176   	GTTTOR  007032R  	HRL   = 000504   	INCTX   000104R     002	KLETAB  000634RG    002
FX.BMC= 000012   	G.TICP= 000016   	HRLE  = 000534   	INDLUN= 000005   	KLIOT = 000700
FX.CMR= 000014   	G.TICT= 000014   	HRLEI = 000535   	INIDNP  007546R  	KLNLGE= 001326R     002
FX.CON= 000024   	G.TIDA= 000004   	HRLEM = 000536   	INIDTC  007554R  	KLNLGL= ****** GX
FX.CRF= 000020   	G.TIHR= 000006   	HRLES = 000537   	INIT  = 000041   	KLNLOG  001302R     002
FX.CSP= 000000   	G.TIMI= 000010   	HRLI  = 000505   	INPUT = 000066   	KLNPLN= ****** GX
FX.CST= 000002   	G.TIMO= 000002   	HRLM  = 000506   	INTMSG= ****** GX	KLNPWD  001326R     002
FX.EBC= 000006   	G.TISC= 000012   	HRLO  = 000564   	INTROF= 000010   	KLP   = 000574
FX.MBC= 000004   	G.TIYR= 000000   	HRLOI = 000565   	INTRON= 000040   	KLPSTP= ****** GX
FX.SMR= 000016   	HDDAG1  000176R     003	HRLOM = 000566   	INTSON= 000001   	KLPWRF= 000010
FX.SRF= 000022   	HDDAG2  000211R     003	HRLOS = 000567   	INT10S= 000400   	KL.ABO= ****** GX
ZEROC -- ZERO COMMAND MODULE 76	MACRO V05.04  Tuesday 17-May-88 14:36  Page 244-5
Symbol table

KL.REQ= ****** GX	NOOP    000300R     002	PIDENT= 000000   	RDPITE= 000410R     002	SCPSCF  015774R
K.LSCK= ****** GX	NOVMSG= ****** GX	POP   = 000262   	RELEAS= 000071   	SCPSPF  016002R
LDB   = 000135   	NULSTP= 000040   	POPJ  = 000263   	REMMSG= ****** GX	SCRTAB  000506R     002
LGFMSG  002610R     003	NUPE  = 000002   	PRGMSG= ****** GX	RENAME= 000055   	SEPMSG= ****** GX
LGSMSG  002543R     003	OCTMSG= ****** GX	PRI7  = 000340   	REQKLD  000114R     004	SETA  = 000424
LGVMSG  002576R     003	OFFMSG= ****** GX	PROFF   001367R     003	RFMAD0= 100000   	SETAB = 000427
LG.ALL= 000007   	OFFSET  000116RG    002	PRON    001363R     003	RFMAD1= 040000   	SETACB  000742R     002
LG.ARG= 000010   	ONMSG = ****** GX	PROPNT= 000021   	RFMAD2= 020000   	SETACI  000774R     002
LG.MAR= 000020   	OPEN  = 000050   	PRTOFF= 004000   	RFMAD3= 010000   	SETAI = 000425
LG.MNT= 000004   	OPRMSG= ****** GX	PR0   = 000000   	RM    = 000010   	SETAM = 000426
LG.MOD= 000040   	OR    = 000434   	PR1   = 000040   	RNGEX   000072R     002	SETCA = 000450
LG.NUL= 000000   	ORB   = 000437   	PR2   = 000100   	RNGFR   000062R     002	SETCAB= 000453
LG.OPR= 000001   	ORCA  = 000454   	PR3   = 000140   	RNGTX   000112R     002	SETCAI= 000451
LG.PRG= 000002   	ORCAB = 000457   	PR4   = 000200   	ROT   = 000241   	SETCAM= 000452
LG.PRM= 000003   	ORCAI = 000455   	PR5   = 000240   	ROTC  = 000245   	SETCM = 000460
LG.RNG= 000100   	ORCAM = 000456   	PR6   = 000300   	RQSKLD  000000R     004	SETCMB= 000463
LG.RPT= 000400   	ORCB  = 000470   	PR7   = 000340   	RSAKCN  010532R  	SETCMI= 000461
LG.STR= 000200   	ORCBB = 000473   	PS    = 177776   	RSAPRI  000660R     002	SETCMM= 000462
LOAD11= 000004   	ORCBI = 000471   	PSENTB  001160R     002	RSERRI  000666R     002	SETM  = 000414
LOGBUF  001040R     002	ORCBM = 000472   	PSWW1 = 000005   	RSPGI0  000710R     002	SETMB = 000417
LOGLUN= 000004   	ORCM  = 000464   	PSWW10= 000014   	RSPGI1  000716R     002	SETMI = 000415
LOGMSG= ****** GX	ORCMB = 000467   	PSWW11= 000015   	RSPKCN  010710R  	SETMM = 000416
LOOKUP= 000076   	ORCMI = 000465   	PSWW12= 000016   	RSTIOI  000674R     002	SETO  = 000474
LPTMSG= ****** GX	ORCMM = 000466   	PSWW13= 000017   	RSTPII  000702R     002	SETOB = 000477
LSH   = 000242   	ORI   = 000435   	PSWW2 = 000006   	RUNITN  011002R  	SETOI = 000475
LSHC  = 000246   	ORM   = 000436   	PSWW3 = 000007   	RUNNST  011010R  	SETOM = 000476
LSTLUN= 000003   	OUT   = 000057   	PSWW4 = 000010   	RUNTAA  011016R  	SETSTS= 000060
MAP   = 000257   	OUTBUF= 000065   	PSWW5 = 000011   	R.QSGC= 000015   	SETZ  = 000400
MARMSG= ****** GX	OUTPUT= 000067   	PSWW6 = 000012   	R.QSPC= 000014   	SETZB = 000403
MAYMSG= ****** GX	PAG   = 000010   	PSWW7 = 000013   	R.QSPN= 000006   	SETZI = 000401
MGNMSG= ****** GX	PAR$$E= 000000   	PS.NRM= 001416   	R.QSPR= 000012   	SETZM = 000402
MNTMSG= ****** GX	PAR$$K= 000126   	PULSE = 000020   	R.QSTN= 000002   	SKIP  = 000330
MONMSG  003656R     003	PAR$$V= 000016   	PUSH  = 000261   	SATMSG  003734R     003	SKIPA = 000334
MOVE  = 000200   	PCMSG = ****** GX	PUSHJ = 000260   	SAVBLK  001014R     002	SKIPE = 000332
MOVEI = 000201   	PCTAB   000522R     002	QSIZE = 000023   	SBRTAB  000472R     002	SKIPG = 000337
MOVEM = 000202   	PC.AFI= 000020   	QTAB    001336R     002	SCAILI  012032R  	SKIPGE= 000335
MOVES = 000203   	PC.AT0= 000004   	QTRMSG= ****** GX	SCANOR  012040R  	SKIPL = 000331
MOVM  = 000214   	PC.AT1= 000010   	Q.BYCT= 000016   	SCCCLE  014352R  	SKIPLE= 000333
MOVMI = 000215   	PC.BIS= 000400   	Q.IBUF= 000014   	SCCLKT  001100R     002	SKIPN = 000336
MOVMM = 000216   	PC.CY0= 004000   	Q.IOAE= 000012   	SCD   = 000040   	SLOMSG= ****** GX
MOVMS = 000217   	PC.CY1= 002000   	Q.IOEF= 000006   	SCDCDI  017236R  	SOJ   = 000360
MOVN  = 000210   	PC.FOV= 001000   	Q.IOFN= 000002   	SCDDAV  017244R  	SOJA  = 000364
MOVNI = 000211   	PC.FUF= 000002   	Q.IOLU= 000004   	SCDNDI  017252R  	SOJE  = 000362
MOVNM = 000212   	PC.LIP= 000040   	Q.IOPL= 000014   	SCDNTI  017260R  	SOJG  = 000367
MOVNS = 000213   	PC.NDV= 000001   	Q.IOPR= 000007   	SCKIPC  017626R  	SOJGE = 000365
MOVS  = 000204   	PC.OVF= 010000   	Q.IOSB= 000010   	SCKKWE  020172R  	SOJL  = 000361
MOVSI = 000205   	PC.UIO= 000100   	Q.OBUF= 000014   	SCKMS0  003756R     003	SOJLE = 000363
MOVSM = 000206   	PC.USR= 000200   	Q.OVFC= 000020   	SCKMS1  003771R     003	SOJN  = 000366
MOVSS = 000207   	PERCLR= 001000   	Q0    = ****** GX	SCKMS2  004015R     003	SOS   = 000370
MPE11 = 001000   	PE.ALL= 000037   	Q1    = ****** GX	SCKMS3  004042R     003	SOSA  = 000374
MUL   = 000224   	PE.CES= 000001   	Q2    = ****** GX	SCKMS4  004071R     003	SOSE  = 000372
MULB  = 000227   	PE.CRM= 000004   	Q3    = ****** GX	SCKNPI  017604R  	SOSG  = 000377
MULI  = 000225   	PE.DRM= 000002   	RACADR  000730R     002	SCKPTL  017612R  	SOSGE = 000375
MULM  = 000226   	PE.FMP= 000010   	RACBLK  000724R     002	SCKSKI  017620R  	SOSL  = 000371
NOFMSG  001746R     003	PE.FSS= 000020   	RACDAT  000734R     002	SCOCAP  013434R  	SOSLE = 000373
NOMSG   003601R     003	PHYS  = 100000   	RAMIS0= 010000   	SCPART  001112R     002	SOSN  = 000376
NONMSG  003451R     003	PI    = 000004   	RDPITB  000374R     002	SCPILS  015766R  	SPCTAB  000342R     002
ZEROC -- ZERO COMMAND MODULE 76	MACRO V05.04  Tuesday 17-May-88 14:36  Page 244-6
Symbol table

SPC1    001257R     003	ST.TXE= 020000   	TLZ   = 000621   	TSON  = 000677   	WHKMS0  004107R     003
SPC2    001263R     003	ST.XDB= 000400   	TLZA  = 000625   	TSZ   = 000631   	WHKMS1  004120R     003
SPC3    001300R     003	SUB   = 000274   	TLZE  = 000623   	TSZA  = 000635   	WHKMS2  004131R     003
SPC4    001304R     003	SUBB  = 000277   	TLZN  = 000627   	TSZE  = 000633   	WHKMS3  004157R     003
SPC5    001321R     003	SUBI  = 000275   	TOBM  = 000004   	TSZN  = 000637   	WHKMS4  004207R     003
SPC6    001332R     003	SUBM  = 000276   	TOIP  = 000002   	TTCALL= 000051   	WHMMSG  002746R     003
SSTLEN= ****** GX	SUNMSG  003746R     003	TOIT  = 000001   	TTYMSG= ****** GX	WHOMSG  002760R     003
STASZI  014160R  	SVPCTB  000750R     002	TO10  = 000200   	TUEMSG  003666R     003	WHOTMS  002644R     003
STAT  = 174434   	SWPFSW  012644R  	TO10AD= 174420   	TYDMTB  000572R     002	WHRCRH  015506R
STATAB  000302R     002	SWR   = 177570   	TO10BC= 174414   	TYLGMS  013272R  	WHRECM  003272R     003
STATO = 000061   	SWSLLT= 100000   	TO10BM= 000001   	TYPAD2  004016R  	WHRMRH  015500R
STATUS= 000022   	SXCT  = 000106   	TO10DB= 000400   	TYPDG1  004240R  	WHRMSG  002726R     003
STATYP  003710R  	SYMTAB  000240R     002	TO10DN= 100000   	TYPDG3  004312R  	WHTMSG  003042R     003
STATZ = 000063   	TAKIRE  011160R  	TO10DT= 174424   	TYPDTE  003612R  	WHWTAB  001060R     002
STA0    001004R     003	TAKNSF  011166R  	TO10ER= 020000   	TYPDX1  003746R  	WPMSG0  003456R     003
STA1    000744R     003	TA2MS1  001104R     003	TO11  = 000100   	UGETF = 000073   	WPMSG1  003510R     003
STA10   000432R     003	TA2MS2  001126R     003	TO11AD= 174422   	UJEN  = 000100   	WPMSG2  003536R     003
STA11   000402R     003	TA2MS3  001144R     003	TO11BC= 174416   	UNASG1= 000032   	WRLMSG  003001R     003
STA12   000362R     003	TA2MS4  001201R     003	TO11BM= 020000   	UNASG2= 000033   	WRTMSG  003022R     003
STA13   000327R     003	TA2MS5  001236R     003	TO11DB= 004000   	UNASG3= 000034   	WVMSG1  003062R     003
STA14   000306R     003	TC.CON= 000377   	TO11DN= 000200   	UNASG4= 000035   	WVMSG2  003104R     003
STA15   000252R     003	TC.CTC= 000002   	TO11DT= 174426   	UNASG5= 000036   	XCT   = 000256
STA2    000714R     003	TC.ERR= 000000   	TO11ER= 000002   	UNASG6= 000037   	XOR   = 000430
STA3    000671R     003	TC.RST= 000001   	TRC   = 000640   	USETI = 000074   	XORB  = 000433
STA4    000643R     003	TDC   = 000650   	TRCA  = 000644   	USETO = 000075   	XORI  = 000431
STA5    000604R     003	TDCA  = 000654   	TRCE  = 000642   	USRMSG= ****** GX	XORM  = 000432
STA6    000561R     003	TDCE  = 000652   	TRCN  = 000646   	VF.DSP= 000060   	XR    = 000000
STA7    000532R     003	TDCN  = 000656   	TRN   = 000600   	VF.FFD= 000061   	YESMSG  003575R     003
STA8    000502R     003	TDN   = 000610   	TRNA  = 000604   	VF.INT= 000000   	YONMSG  003556R     003
STA9    000450R     003	TDNA  = 000614   	TRNE  = 000602   	VF.OVR= 000053   	ZERDPB  000132R     004
STOPEX  000070R     002	TDNE  = 000612   	TRNN  = 000606   	VF.PRM= 000044   	ZERESD  021344R
STOPFR  000060R     002	TDNN  = 000616   	TRO   = 000660   	VF.SSP= 000040   	ZSTOP = 040000
STOPTX  000076R     002	TDO   = 000670   	TROA  = 000664   	VMAMSG= ****** GX	$DIV  = ****** GX
STPKL   000066R     002	TDOA  = 000674   	TROE  = 000662   	VMATB   000536R     002	$DSW  = ****** GX
ST.CED= 000100   	TDOE  = 000672   	TRON  = 000666   	VMHTB   000544R     002	$MUL  = ****** GX
ST.CLE= 000001   	TDON  = 000676   	TRZ   = 000620   	WACMSG  002402R     003	$$    = 000037
ST.CTD= 040000   	TDZ   = 000630   	TRZA  = 000624   	WCMMSG  002666R     003	$$A   = 000100
ST.CTE= 010000   	TDZA  = 000634   	TRZE  = 000622   	WCMSG0  003367R     003	$$B   = 000000
ST.DW1= 002000   	TDZE  = 000632   	TRZN  = 000626   	WCMSG1  003413R     003	$$C   = 000200
ST.DXD= 000004   	TDZN  = 000636   	TR.ALL= 000077   	WCMSG2  003427R     003	$$D   = 000011
ST.EBS= 000100   	TEMADR  000762R     002	TR.DEP= 000020   	WCMSG3  003441R     003	$$E   = 000016
ST.EDB= 004000   	TENAD1= 174410   	TR.DTE= 000040   	WEDMSG  003677R     003	$$F   = 000000
ST.EPE= 000020   	TENAD2= 174412   	TR.EXM= 000010   	WEP   = 000010   	$$$ARG= 000006
ST.IDS= 000010   	TENMSG= ****** GX	TR.FRD= 000002   	WHDMS0  003604R     003	$$$OST= 000016
ST.IEN= 000040   	THUMSG  003712R     003	TR.FWR= 000004   	WHDMS1  003632R     003	$$$T1 = 000000
ST.ION= 000001   	TLC   = 000641   	TR.FXC= 000001   	WHHMS0  003126R     003	.ABORT  000004RG
ST.MBZ= 000000   	TLCA  = 000645   	TSC   = 000651   	WHHMS1  003142R     003	.ABRTC  000000RG
ST.MOD= 000010   	TLCE  = 000643   	TSCA  = 000655   	WHHMS2  003154R     003	.ABRT0  000032RG
ST.MPE= 001000   	TLCN  = 000647   	TSCE  = 000653   	WHHMS3  003164R     003	.ACBLK= ****** GX
ST.NST= 000040   	TLN   = 000601   	TSCN  = 000657   	WHHMS4  003213R     003	.APRWD= ****** GX
ST.RIZ= 010000   	TLNA  = 000605   	TSN   = 000611   	WHHMS5  003240R     003	.ASCID  000016RG    004
ST.RST= 011121   	TLNE  = 000603   	TSNA  = 000615   	WHHMS6  003263R     003	.ASCOD  000026RG    004
ST.SEP= 000004   	TLNN  = 000607   	TSNE  = 000613   	WHIMSG  002706R     003	.ASLST  000036RG    004
ST.STE= 000002   	TLO   = 000661   	TSNN  = 000617   	WHKMRB  004246R     003	.ATLMD= 000033
ST.TED= 000200   	TLOA  = 000665   	TSO   = 000671   	WHKMSA  004237R     003	.ATLST  000064R     004
ST.TER= 000002   	TLOE  = 000663   	TSOA  = 000675   	WHKMSI  004271R     003	.BRCLK= 005000
ST.TXD= 100000   	TLON  = 000667   	TSOE  = 000673   	WHKMSK  004302R     003	.BUFSZ= ****** GX
ZEROC -- ZERO COMMAND MODULE 76	MACRO V05.04  Tuesday 17-May-88 14:36  Page 244-7
Symbol table

.CECLK= 004000   	.DPOSD  000202RG 	.EXCTF= ****** GX	.INFN = ****** GX	.LDRJV= 063000
.CESCK= ****** GX	.DPOSE  001372RG 	.EXDRA  004740RG 	.INFNB= ****** GX	.LDRM1= 060000
.CHTAB= ****** GX	.DPOSI  000206RG 	.EXDTE  003602RG 	.INICL= 070000   	.LDRM2= 061000
.CIBFR= ****** GX	.DPOSN  000212RG 	.EXEBR  003336RG 	.INICP  007562RG 	.LDRM3= 062000
.CISTS= ****** GX	.DPOSP  000216RG 	.EXEBS  004404RG 	.INIC0  007332RG 	.LDSEL= 044000
.CKARG= ****** GX	.DPOST  002244RG 	.EXECT= ****** GX	.INIT   007334RG 	.LDZFL= ****** GX
.CKCOL= ****** GX	.DPOSZ  000222RG 	.EXETB= ****** GX	.INITC  007326RG 	.LGLWD= ****** GX
.CKCTC= ****** GX	.DPOTB= ****** GX	.EXEWD  002124RG 	.INKLF  007364RG 	.LOKUP= ****** GX
.CKEOC= ****** GX	.DPSEE  001444RG 	.EXEWI  002132RG 	.INPOS= ****** GX	.MARKC  010266RG
.CKEOS= ****** GX	.DPSTE  002314RG 	.EXEWN  002140RG 	.INVBN= ****** GX	.MEMFL= ****** GX
.CKOBJ= ****** GX	.DRLTC= 015000   	.EXEWP  002146RG 	.IRADX= ****** GX	.MEMRS= 076000
.CKRNP= ****** GX	.DSACF= 066000   	.EXEWT  002116RG 	.IRLTC= 014000   	.MON  = ****** GX
.CKRUN= ****** GX	.DSIOJ= 065000   	.EXFER  004746RG 	.JUMPC  014052RG 	.MONTB= ****** GX
.CKSYM= ****** GX	.DTBUF  000552RG    002	.EXFMR  004412RG 	.KACFL= ****** GX	.NOERR= ****** GX
.CLKWD= ****** GX	.DTDW1= ****** GX	.EXITP= ****** GX	.KLCON= ****** GX	.NOHLT= ****** GX
.CLOSE= ****** GX	.DTLST  000100R     004	.EXKLD  003244RG 	.KLE    007752RG 	.NOTSW= ****** GX
.CLRCM  013626RG 	.DTSTA= ****** GX	.EXKLI  003252RG 	.KLEDF= ****** GX	.OPEN = ****** GX
.CLRMR= 006000   	.DTSTW= 000004   	.EXKLM= ****** GX	.KLEPT= ****** GX	.ORADX= ****** GX
.CLRUN= 010000   	.EDELA= ****** GX	.EXKLN  003260RG 	.KLERQ= ****** GX	.OTATT= ****** GX
.COMEF= ****** GX	.EDEWD  000374RG 	.EXKLP  003266RG 	.KLEVL= ****** GX	.OTBBC= ****** GX
.COMMA= 000054   	.EDEWI  000406RG 	.EXKLT  003236RG 	.KLFCF= ****** GX	.OTBUF= ****** GX
.CONBT= 012000   	.EDEWN  000406RG 	.EXMEE  001670RG 	.KLFLG= ****** GX	.OTFN = ****** GX
.CONTC  000062RG 	.EDEWP  000374RG 	.EXMEL  000356RG 	.KLHLT= ****** GX	.OTFNB= ****** GX
.CPUSN= ****** GX	.EDKLA= ****** GX	.EXMKL  000366RG 	.KLINC= ****** GX	.OTPOS= ****** GX
.CSHRG= 164000   	.EDKLC  000516RG 	.EXMPI  005040RG 	.KLIWD= ****** GX	.OTVBN= ****** GX
.DATE3= ****** GX	.EDKLD  000444RG 	.EXMQR  004420RG 	.KLMTB= ****** GX	.OUTLG= ****** GX
.DAY  = ****** GX	.EDKLI  000462RG 	.EXMTB= ****** GX	.KLMT1= ****** GX	.OUTLP= ****** GX
.DEPAR  002154RG 	.EDKLN  000432RG 	.EXMTE  002704RG 	.KLNFD= ****** GX	.OUTTY= ****** GX
.DFBLK= ****** GX	.EDKLP  000420RG 	.EXOBJ  000330RG 	.KLNFT= ****** GX	.PASS = ****** GX
.DFCOM  000546RG 	.EDKLX= ****** GX	.EXREG  005212RG 	.KLNMD= ****** GX	.PCAB1= 150000
.DFRED  000664RG 	.EIOJA= 067000   	.EXSBR  004754RG 	.KLNPB= ****** GX	.PCAB2= 151000
.DFWRT  001130RG 	.ELDDW= ****** GX	.EXSCR  004762RG 	.KLNPE= ****** GX	.PCAB3= 152000
.DFXCT  001216RG 	.ELEDW= ****** GX	.EXUBR  003344RG 	.KLNPW= ****** GX	.PCAB4= 153000
.DIAG1= 000000   	.ENTER= ****** GX	.EXVAB  004426RG 	.KLNSW= ****** GX	.PITAB= ****** GX
.DIAG2= 000002   	.ERRCD= ****** GX	.EXVMA  004434RG 	.KLNTD= ****** GX	.PRDTE= ****** GX
.DIAG3= 000006   	.ERRPC= ****** GX	.EXVMH  004442RG 	.KLNTT= ****** GX	.PSCWD= ****** GX
.DISCC  001346RG 	.EXAD   004340RG 	.EXVPC  004450RG 	.KLRLD= ****** GX	.QUITC  011302RG
.DOW  = ****** GX	.EXADX  004346RG 	.FEMOD= ****** GX	.KLRST= ****** GX	.RCRM1= 147000
.DPBFR= ****** GX	.EXAMA  000240RG 	.FREAD= ****** GX	.KLSNP= ****** GX	.RCRM2= 146000
.DPBFX= ****** GX	.EXAMC  000226RG 	.FWRIT= ****** GX	.KLST = ****** GX	.RCRM3= 145000
.DPETB= ****** GX	.EXAMD  000244RG 	.FXCT = ****** GX	.KLSTP= ****** GX	.RCRM4= 144000
.DPEWD  001562RG 	.EXAME  001642RG 	.GFNR = 102000   	.LCRDL= 052000   	.RCSPF= 141000
.DPEWI  001570RG 	.EXAMF  004544RG 	.GTDAT  006026RG 	.LCRDR= 051000   	.RDADR  005254RG
.DPEWN  001576RG 	.EXAMI  000250RG 	.GTELN= ****** GX	.LCRM1= 057000   	.RDADX  005262RG
.DPEWP  001604RG 	.EXAMK  004650RG 	.GTKLA= ****** GX	.LCRM2= 056000   	.RDAPR  003274RG
.DPEWT  001554RG 	.EXAMN  000254RG 	.GTKLN= ****** GX	.LCRM3= 055000   	.RDARR  005270RG
.DPKLD  002572RG 	.EXAMP  000260RG 	.GTLIN= ****** GX	.LCRM4= 054000   	.RDARX  005276RG
.DPKLI  002600RG 	.EXAMT  002652RG 	.GTNBR= ****** GX	.LCRM5= 053000   	.RDBRR  005304RG
.DPKLM= ****** GX	.EXAMZ  000264RG 	.GTNUM= ****** GX	.LDAR = 077000   	.RDBRX  005312RG
.DPKLN  002606RG 	.EXARR  004354RG 	.GTR50  011174RG 	.LDBRL= 043000   	.RDCPP= ****** GX
.DPKLP  002614RG 	.EXARX  004362RG 	.GTTIM  006472RG 	.LDBRR= 042000   	.RDCRA  005550RG
.DPKLT  002564RG 	.EXBFR= ****** GX	.HALTC  007312RG 	.LDCK1= 046000   	.RDCRL  005556RG
.DPOBJ  000270RG 	.EXBRR  004370RG 	.HRDWR= ****** GX	.LDCK2= 047000   	.RDCRM= ****** GX
.DPOEL  000320RG 	.EXBRX  004376RG 	.INBBC= ****** GX	.LDCLK= ****** GX	.RDDRA  005564RG
.DPOKL  000312RG 	.EXCRA  004724RG 	.INCHC= ****** GX	.LDDIS= 045000   	.RDEBS  005320RG
.DPOSA  000176RG 	.EXCRL  004732RG 	.INDFG= ****** GX	.LDPAR= ****** GX	.RDFER  005572RG
.DPOSC  000164RG 	.EXCTC  003526RG 	.INEXT  000622R     002	.LDRJD= 064000   	.RDFLG  005344RG
ZEROC -- ZERO COMMAND MODULE 76	MACRO V05.04  Tuesday 17-May-88 14:36  Page 244-8
Symbol table

.RDFMA= ****** GX	.RSTPI  010562RG 	.SCOTC  013466RG 	.STRTV= ****** GX	.TYP3D= ****** GX
.RDFMO= ****** GX	.RSTRC  011312RG 	.SCOTL  012774RG 	.STUCD= ****** GX	.TYSLS= ****** GX
.RDFMP= ****** GX	.RSTTB= ****** GX	.SCOTP  013354RG 	.SVACB  011430RG 	.TYSPC= ****** GX
.RDFMR  005326RG 	.RUNCM  010716RG 	.SCOTT= ****** GX	.SVESP= ****** GX	.TYTIM  007154RG
.RDIPE= ****** GX	.SACBK  012046RG 	.SCOTY  013442RG 	.SVKLF= ****** GX	.T50TB= ****** GX
.RDJ14= 134000   	.SACB1  012050RG 	.SCOUT  012706RG 	.SVPC   011466RG 	.UMRKC  010262RG
.RDJ71= 135000   	.SAVEC  011404RG 	.SCPAL  016164RG 	.SWPAC  012514RG 	.VERNO= ****** GX
.RDMAB= 133000   	.SAVFL  011542R  	.SCPAR  016172RG 	.SWPC   012214RG 	.VFYFL= ****** GX
.RDMQR  005334RG 	.SAVPC  011666R  	.SCPCR  016200RG 	.SWPIP= ****** GX	.WHACB  012132RG
.RDPI   005470RG 	.SAVQ   021352RG 	.SCPDR  016206RG 	.TAKEC  011024RG 	.WHATB= ****** GX
.RDSBR  005600RG 	.SAVTB= ****** GX	.SCPEN  016214RG 	.TAKE1  011100RG 	.WHATC  013702RG
.RDSCR  005606RG 	.SCACB  011774RG 	.SCPFM  016222RG 	.TCRLF= ****** GX	.WHATV  015242RG
.RDVAB  005704RG 	.SCCEC  016126RG 	.SCPFS  016230RG 	.TPADD= ****** GX	.WHCON  014360RG
.RDVMA  005712RG 	.SCCED  016134RG 	.SCPST  015622RG 	.TPCLR= ****** GX	.WHDAT  017266RG
.RDVMH  005720RG 	.SCCEE  016142RG 	.SCPTB= ****** GX	.TPCMP= ****** GX	.WHINC  014506RG
.RDVPC  005676RG 	.SCCLK  015566RG 	.SCRLD  014752RG 	.TPDEC= ****** GX	.WHKLN  020576RG
.RDXSV= ****** GX	.SCCLN  016010RG 	.SCRPT  015072RG 	.TPDIV= ****** GX	.WHMEM  014646RG
.RECNT= ****** GX	.SCCOM  014320RG 	.SCRTY  014766RG 	.TPINC= ****** GX	.WHOFS  014726RG
.RECPT= ****** GX	.SCCON  014236RG 	.SCTRK  015170RG 	.TPNEG= ****** GX	.WHOUT  013510RG
.RECRD= ****** GX	.SCCOO  014304RG 	.SECLK= 003000   	.TPSHI= ****** GX	.WHRDW  015302RG
.REGSV= ****** GX	.SCCOP  014312RG 	.SETCM  013646RG 	.TPSUB= ****** GX	.WHREC  015530RG
.RELWD= ****** GX	.SCCOT= ****** GX	.SETC0  013656RG 	.TPTST= ****** GX	.WHRLD  015014RG
.RESQ   021360RG 	.SCCOU  014346RG 	.SETMR= 007000   	.TRKWD= ****** GX	.WHRPT  014520RG
.RESTB= ****** GX	.SCCRF  016012RG 	.SETRN= 011000   	.TRPTV= ****** GX	.WHRTY  015040RG
.RESTC  010364RG 	.SCCRH  016016RG 	.SETTB= ****** GX	.TRP4V= ****** GX	.WHTCA  016272RG
.RESTD= ****** GX	.SCCRQ  016024RG 	.SFREC  015514RG 	.TSCAN= ****** GX	.WHTCL  016256RG
.RESTI= ****** GX	.SCCRS  016032RG 	.SHUTC  013740RG 	.TYACE= ****** GX	.WHTPA  016474RG
.RESTP= ****** GX	.SCCSE  016044RG 	.SNAP   010234RG 	.TYAC1= ****** GX	.WHTPS  016460RG
.RNDPB  000046RG    004	.SCCSI  016074RG 	.SPACE= 000040   	.TYCHR= ****** GX	.WHTRK  015212RG
.RPTCT= ****** GX	.SCCSM  016100RG 	.SSCAN= ****** GX	.TYCOL= ****** GX	.WRCRM= ****** GX
.RPTPT= ****** GX	.SCCTB= ****** GX	.SSCLK= 002000   	.TYCOM= ****** GX	.WRITZ= ****** GX
.RSACB  011336RG 	.SCDAT  016740RG 	.SSM  = ****** GX	.TYDAT  007040RG 	.WRMBX= 071000
.RSALL  010444RG 	.SCFSS  015600RG 	.SSTTB= ****** GX	.TYELA= ****** GX	.WRTAR= ****** GX
.RSAPR  010540RG 	.SCINC  014430RG 	.STCLK= ****** GX	.TYELN= ****** GX	.XFRCK  001260RG
.RSDTE  010512RG 	.SCKLN  017442RG 	.STPCL= 000000   	.TYKLA= ****** GX	.XFWCK  001276RG
.RSERR  010546RG 	.SCMEL  014626RG 	.STPKL= ****** GX	.TYKLN= ****** GX	.XFXCK  001314RG
.RSPAG  010572RG 	.SCMEM  014574RG 	.STRCL= 001000   	.TYLIN= ****** GX	.YEAR = ****** GX
.RSSWP  012652RG 	.SCMKL  014640RG 	.STRTB= ****** GX	.TYMIN= ****** GX	.YESNO  016634RG
.RSTIN  010516RG 	.SCMTB= ****** GX	.STRTC  014030RG 	.TYMSF= ****** GX	.ZEROC  021104RG
.RSTIO  010554RG 	.SCNOT  013726RG 	.STRTT  014062RG 	.TYMSG= ****** GX	..DTP2= ****** GX
.RSTKL= ****** GX	.SCOFS  014700RG 	.STRTU  014166RG 	.TYOUT= ****** GX	..STIN= ****** GX


. ABS.	000000    000	(RW,I,GBL,ABS,OVR)
      	021476    001	(RW,I,LCL,REL,CON)
DATA  	001346    002	(RW,I,LCL,REL,CON)
MESSAG	004321    003	(RW,I,LCL,REL,CON)
DPBS  	000144    004	(RW,I,LCL,REL,CON)
Errors detected:  0

*** Assembler statistics


Work  file  reads: 0
Work  file writes: 0
Size of work file: 15952 Words  ( 63 Pages)
Size of core pool: 16892 Words  ( 64 Pages)
ZEROC -- ZERO COMMAND MODULE 76	MACRO V05.04  Tuesday 17-May-88 14:36  Page 244-9
Symbol table

Operating  system: RSX-11M/PLUS

Elapsed time: 00:05:33.46
,[51,20]PATREE/CR/-SP=[51,30]PATREE.TMP
