PATREE     CREATED BY  MACRO  ON 17-MAY-88 AT 14:39	PAGE 1

SYMBOL CROSS REFERENCE                                  CREF   04.00

SYMBOL	VALUE		REFERENCES

ABTAB 	  000530 R	 110-4363  #111-4421
ACADR 	  001026 RG	*165-6625  *165-6626   165-6654   165-6656  #165-6658
ACDAT 	  000766 R	*162-6429   162-6446  #162-6449
ADD   	= 000270	#23-879
ADDB  	= 000273	#23-880
ADDI  	= 000271	#23-881
ADDM  	= 000272	#23-882
ADH   	= 000000	#76-3116    76-3116    76-3116   #76-3117    76-3117    76-3117   #139-5633  #139-5633   139-5633
                         139-5633  #139-5635   139-5635   139-5635  #139-5637  #139-5637   139-5637   139-5637  #139-5639
                         139-5639   139-5639  #141-5680   141-5680   141-5680  #141-5682   141-5682   141-5682  #153-6078
                         153-6078   153-6078  #162-6453   162-6453   162-6453
ADL   	= 000100	#76-3116    76-3116    76-3116   #76-3116    76-3116    76-3116   #76-3116    76-3116    76-3116
                        #76-3116    76-3116    76-3116   #76-3117    76-3117    76-3117   #76-3117    76-3117    76-3117
                        #76-3117    76-3117    76-3117   #76-3117    76-3117    76-3117   #139-5633   139-5633   139-5633
                        #139-5633   139-5633   139-5633  #139-5633   139-5633   139-5633  #139-5633   139-5633   139-5633
                        #139-5633   139-5633   139-5633  #139-5633   139-5633   139-5633   139-5633  #139-5633   139-5633
                         139-5633  #139-5635   139-5635   139-5635  #139-5635   139-5635   139-5635  #139-5635   139-5635
                         139-5635  #139-5635   139-5635   139-5635  #139-5635   139-5635   139-5635  #139-5635   139-5635
                         139-5635  #139-5637   139-5637   139-5637  #139-5637   139-5637   139-5637  #139-5637   139-5637
                         139-5637  #139-5637   139-5637   139-5637  #139-5637   139-5637   139-5637  #139-5637   139-5637
                         139-5637   139-5637  #139-5637   139-5637   139-5637  #139-5639   139-5639   139-5639  #139-5639
                         139-5639   139-5639  #139-5639   139-5639   139-5639  #139-5639   139-5639   139-5639  #139-5639
                         139-5639   139-5639  #139-5639   139-5639   139-5639  #141-5680   141-5680   141-5680  #141-5680
                         141-5680   141-5680  #141-5682   141-5682   141-5682  #141-5682   141-5682   141-5682  #141-5682
                         141-5682   141-5682  #141-5682   141-5682   141-5682  #153-6078   153-6078   153-6078  #153-6078
                         153-6078   153-6078  #153-6078   153-6078   153-6078  #153-6078   153-6078   153-6078  #162-6453
                         162-6453   162-6453  #162-6453   162-6453   162-6453  #162-6453   162-6453   162-6453  #162-6453
                         162-6453   162-6453
AND   	= 000404	#23-884
ANDB  	= 000407	#23-885
ANDCA 	= 000410	#23-886
ANDCAB	= 000413	#23-887
ANDCAI	= 000411	#23-888
ANDCAM	= 000412	#23-889
ANDCB 	= 000440	#23-890
ANDCBB	= 000443	#23-891
ANDCBI	= 000441	#23-892
ANDCBM	= 000442	#23-893
ANDCM 	= 000420	#23-894
ANDCMB	= 000423	#23-895
ANDCMI	= 000421	#23-896
ANDCMM	= 000422	#23-897
ANDI  	= 000405	#23-898
ANDM  	= 000406	#23-899
AOBJN 	= 000253	#23-901
AOBJP 	= 000252	#23-902
AOJ   	= 000340	#23-904
AOJA  	= 000344	#23-905
AOJE  	= 000342	#23-906
AOJG  	= 000347	#23-907
AOJGE 	= 000345	#23-908
AOJL  	= 000341	#23-909
PATREE     CREATED BY  MACRO  ON 17-MAY-88 AT 14:39	PAGE 2

SYMBOL CROSS REFERENCE                                  CREF   04.00

SYMBOL	VALUE		REFERENCES

AOJLE 	= 000343	#23-910
AOJN  	= 000346	#23-911
AOS   	= 000350	#23-913
AOSA  	= 000354	#23-914
AOSE  	= 000352	#23-915
AOSG  	= 000357	#23-916
AOSGE 	= 000355	#23-917
AOSL  	= 000351	#23-918
AOSLE 	= 000353	#23-919
AOSN  	= 000356	#23-920
APR   	= 000000	#7-245      139-5633   139-5633   139-5635   139-5635   139-5637   139-5637
APRMSG	= ******  GX	 115-4786
AP.ALL	= 000177	#9-350
AP.ARP	= 001000	#16-635     16-639     213-8217   218-8392
AP.CDP	= 000004	#9-345      9-350
AP.EIP	= 000400	#16-637     16-639     213-8229   213-8244   217-8353   217-8360
AP.IPF	= 000020	#9-347      9-350
AP.MPE	= 000010	#9-346      9-350
AP.NRM	= 001400	#16-639     16-641
AP.NXM	= 000040	#9-348      9-350
AP.PWF	= 000001	#9-343      9-350
AP.SAP	= 000002	#9-344      9-350
AP.SBE	= 000100	#9-349      9-350
ARMSG 	= ******  GX	 218-8391
ASH   	= 000240	#23-922
ASHC  	= 000244	#23-923
AUGMSG	= ******  GX	 115-4790
A.LULU	= 000002	#127-5198  #127-5207  #127-5213
A.LUNA	= 000004	#127-5198  #127-5207  #127-5213
A.LUNU	= 000006	#127-5198  #127-5207  #127-5213
BC.HDS	= ******  GX	 230-9034
BC.SKP	= ******  GX	 230-9015
BIT0  	= 000001	#185-7376  #235-9226
BIT00 	= 000001	#9-307      10-385     11-411     11-431     12-468     12-469     13-492     13-515     22-844
                         22-858     53-2291    57-2445    58-2459    61-2561    104-4127   158-6231
BIT01 	= 000002	#9-308      10-388     11-407     11-429     12-466     12-467     13-493     13-514     22-845
                         22-859
BIT02 	= 000004	#9-309      10-380     11-406     11-428     11-433     12-464     12-465     13-494     13-513
                         22-846     22-860
BIT03 	= 000010	#9-310      10-379     11-405     11-425     12-461     12-463     13-495     13-512     22-847
                         22-861
BIT04 	= 000020	#9-311      10-377     10-378     11-404     11-423     11-424     12-459     13-496     13-511
                         22-848     22-862
BIT05 	= 000040	#9-312      10-375     11-411     11-422     12-457     12-458     13-497     13-510     22-849
                         22-863
BIT06 	= 000100	#9-313      10-374     11-400     11-433     12-455     12-456     13-486     13-509     22-850
                         22-864
BIT07 	= 000200	#9-314      10-372     10-373     11-411     11-433     12-453     13-485     13-508     22-851
                         22-865
BIT08 	= 000400	#9-315      10-371     11-411     11-433     12-451     13-484     13-507     22-866
BIT09 	= 001000	#9-316      10-367     10-370     11-411     11-433     12-449     13-483     13-506
BIT1  	= 000002	#185-7376  #235-9226
PATREE     CREATED BY  MACRO  ON 17-MAY-88 AT 14:39	PAGE 3

SYMBOL CROSS REFERENCE                                  CREF   04.00

SYMBOL	VALUE		REFERENCES

BIT10 	= 002000	#9-317      10-366     10-369     11-411     11-433     12-448     13-482     13-505    #185-7376
                        #235-9226
BIT11 	= 004000	#9-318      10-365     10-368     11-411     11-433     12-446     13-481     13-504    #185-7376
                        #235-9226
BIT12 	= 010000	#9-319      10-364     11-411     11-433     12-444     12-445     13-480     13-503     92-3787
                         92-3792   #185-7376  #235-9226
BIT13 	= 020000	#9-320      10-363     11-396     11-411     11-433     12-442     13-479    #185-7376  #235-9226
BIT14 	= 040000	#9-321      10-362     11-393     11-394     11-411     11-416     11-433     12-441     13-478
                        #185-7376  #235-9226
BIT15 	= 100000	#9-322      10-361     11-392     11-411     11-415     11-433     12-439     13-477     106-4190
                        #185-7376  #235-9226
BIT2  	= 000004	#185-7376  #235-9226
BIT3  	= 000010	#185-7376  #235-9226
BIT4  	= 000020	#185-7376  #235-9226
BIT5  	= 000040	#185-7376  #235-9226
BIT6  	= 000100	#185-7376  #235-9226
BIT7  	= 000200	#185-7376  #235-9226
BIT8  	= 000400	#185-7376  #235-9226
BIT9  	= 001000	#185-7376  #235-9226
BLKI  	= 000000	#7-234
BLKO  	= 000002	#7-236
BLT   	= 000251	#23-925
BPARER	= 000020	#185-7376  #235-9226
CAI   	= 000300	#24-927
CAIA  	= 000304	#24-928
CAIE  	= 000302	#24-929
CAIG  	= 000307	#24-930
CAIGE 	= 000305	#24-931
CAIL  	= 000301	#24-932
CAILE 	= 000303	#24-933
CAIN  	= 000306	#24-934
CALL  	= 000040	#24-936
CALLI 	= 000047	#24-937
CAM   	= 000310	#24-939
CAMA  	= 000314	#24-940
CAME  	= 000312	#24-941
CAMG  	= 000317	#24-942
CAMGE 	= 000315	#24-943
CAML  	= 000311	#24-944
CAMLE 	= 000313	#24-945
CAMN  	= 000316	#24-946
CCA   	= 000014	#7-248
CCEMSG	  003317 R	 211-8144  #212-8202
CC.ALL	= 003417	#15-613
CC.NRM	= 000000	#15-612
CDD   	= 000020	#185-7376  #235-9226
CDMTB 	  001214 R	 223-8572  #224-8635
CD.ALL	= 003400	#15-610     15-613     214-8265
CD.CLC	= 000400	#15-608     212-8186   215-8311
CD.CRC	= 002000	#15-606     212-8178   215-8307
CD.DPC	= 001000	#15-607     212-8182   215-8309
CD.NRM	= 000000	#15-609
PATREE     CREATED BY  MACRO  ON 17-MAY-88 AT 14:39	PAGE 4

SYMBOL CROSS REFERENCE                                  CREF   04.00

SYMBOL	VALUE		REFERENCES

CHNPNT	= 000001	#185-7376  #235-9226
CH.ALP	= 000001	#22-844     22-853
CH.ANM	= 000003	#22-853
CH.AOP	= 000100	#22-850
CH.END	= 000034	#22-852
CH.EOC	= 000010	#22-847     22-852     112-4544   114-4660   137-5563   164-6530   169-6783   187-7437   189-7502
                         209-8052
CH.EOL	= 000004	#22-846     22-852
CH.EOS	= 000020	#22-848     22-852
CH.ILL	= 000200	#22-851
CH.NUL	= 000000	#22-843
CH.NUM	= 000002	#22-845     22-853
CH.PFX	= 000040	#22-849
CIDLUN	= 000001	#21-820     127-5198
CLDSTB	  001124 R	 214-8262  #215-8305
CLEAR 	= 000400	#24-948
CLEARB	= 000403	#24-949
CLEARI	= 000401	#24-950
CLEARM	= 000402	#24-951
CLOSE 	= 000070	#24-953
CLRTTB	  001150 R	 215-8299  #215-8317
CLSRTB	  001140 R	 215-8292  #215-8312
CMDK1 	  002231 R	 130-5356  #130-5356
CMDK10	  002366 R	 130-5365  #130-5365
CMDK2 	  002244 R	 130-5357  #130-5357
CMDK3 	  002256 R	 130-5358  #130-5358
CMDK4 	  002267 R	 130-5359  #130-5359
CMDK5 	  002302 R	 130-5360  #130-5360
CMDK6 	  002315 R	 130-5361  #130-5361
CMDK7 	  002330 R	 130-5362  #130-5362
CMDK8 	  002342 R	 130-5363  #130-5363
CMDK9 	  002354 R	 130-5364  #130-5364
CNUPE 	= 000002	#185-7376  #235-9226
CODLUN	= 000002	#21-821     127-5207
CONI  	= 000005	#7-239      76-3116    76-3116
CONKNC	  000156 R	 38-1586   #38-1607
CONO  	= 000004	#7-238      139-5633   139-5633   139-5635   139-5635   139-5637   139-5637   139-5639   139-5639
                         141-5680   141-5680
CONSO 	= 000007	#7-241
CONSZ 	= 000006	#7-240
CPUNUM	= 000002	#185-7376  #235-9226
CPVMSG	= ******  GX	 204-7810
CRATAB	  000412 R	 107-4229  #109-4282
CRLTAB	  000426 R	 107-4233  #109-4290
CRMMSG	= ******  GX	 215-8306   218-8393
CR.ALL	= 000003	#15-598     15-613     211-8140   215-8297
CR.CR1	= 000001	#15-592     15-598
CR.CR2	= 000002	#15-593     15-598
CR.FUL	= 000000	#15-594
CR.HLF	= 000001	#15-595     211-8130
CR.NRM	= 000000	#15-591
CR.QTR	= 000002	#15-596     211-8134
PATREE     CREATED BY  MACRO  ON 17-MAY-88 AT 14:39	PAGE 5

SYMBOL CROSS REFERENCE                                  CREF   04.00

SYMBOL	VALUE		REFERENCES

CR.SLO	= 000003	#15-597     211-8138
CS.ALL	= 000014	#15-589     15-613     211-8161   215-8290
CS.CS1	= 000004	#15-583     15-589
CS.CS2	= 000010	#15-584     15-589
CS.EXP	= 177670	#185-7376  #235-9226
CS.EXT	= 000010	#15-587     211-8148
CS.FST	= 000004	#15-585     15-586
CS.MGN	= 000004	#15-586     211-8159
CS.NRM	= 000000	#15-582
CS.UDF	= 000014	#15-588
CTLMSG	= ******  GX	 215-8310
DATAI 	= 000001	#7-235      76-3117    76-3117
DATAO 	= 000003	#7-237      141-5682   141-5682   153-6078   153-6078   162-6453   162-6453
DATBUF	  001262 R	 225-8677  #225-8722
DCOMST	= 000001	#185-7376  #235-9226
DEB880	= ******	 56-2364    81-3326    81-3331    111-4400   123-5060   123-5078   124-5092   127-5195   127-5204
                         159-6286   163-6467   223-8592   223-8605   230-8969   230-8989   230-8998   230-9004   230-9008
                         230-9038   238-9306
DECMSG	= ******  GX	 115-4794
DEP   	= 010000	#185-7376  #235-9226
DEPBLK	  000756 R	 162-6430  #162-6445
DEPOS 	  001343 R	 84-3512   #84-3562
DEX   	= 000400	#185-7376  #235-9226
DEXDON	= 000004	#185-7376  #235-9226
DEXWD1	= 174406	#185-7376  #235-9226
DEXWD2	= 174404	#185-7376  #235-9226
DEXWD3	= 174402	#185-7376  #235-9226
DFAD  	= 000110	#24-955
DFBEND	= ******  GX	 121-5010
DFCIFC	  000656 R	 49-2061    49-2063    49-2065   #49-2079
DFDV  	= 000113	#24-956
DFMP  	= 000112	#24-957
DFN   	= 000131	#24-958
DFRMSG	  000000 R	 50-2117   #50-2161
DFSB  	= 000111	#24-959
DFUNC 	= 000200	#185-7376  #235-9226
DF.DMG	= 000004	#185-7376  #235-9226
DF.DMN	= 000007	#185-7376  #235-9226
DF.DOR	= 000001	#185-7376  #235-9226
DF.EHG	= 000010	#185-7376  #235-9226
DF.EHM	= 000011	#185-7376  #235-9226
DF.EMG	= 000005	#185-7376  #235-9226
DF.EMN	= 000006	#185-7376  #235-9226
DF.KLR	= 000012	#185-7376  #235-9226
DF.KLW	= 000013	#185-7376  #235-9226
DF.KLX	= 000014	#185-7376  #235-9226
DF.OFF	= 000002	#185-7376  #235-9226
DF.ON 	= 000003	#185-7376  #235-9226
DF.PDP	= 000016	#185-7376  #235-9226   238-9335
DF.PEX	= 000015	#185-7376  #235-9226
DG1B10	  001424 R	 85-3594   #85-3604
DG1B11	  001373 R	 85-3593   #85-3603
PATREE     CREATED BY  MACRO  ON 17-MAY-88 AT 14:39	PAGE 6

SYMBOL CROSS REFERENCE                                  CREF   04.00

SYMBOL	VALUE		REFERENCES

DG1B5 	  001647 R	 85-3599   #85-3609
DG1B6 	  001604 R	 85-3598   #85-3608
DG1B7 	  001541 R	 85-3597   #85-3607
DG1B8 	  001475 R	 85-3596   #85-3606
DG1B9 	  001450 R	 85-3595   #85-3605
DG3B1 	  001711 R	 86-3621   #86-3627
DIAG1 	= 174430	#185-7376  #235-9226
DIAG2 	= 174432	#185-7376  #235-9226
DIAG3 	= 174436	#185-7376  #235-9226
DIATAB	  000356 R	 85-3579   #85-3592
DIKL10	= 000010	#185-7376  #235-9226
DIV   	= 000234	#24-961
DIVB  	= 000237	#24-962
DIVI  	= 000235	#24-963
DIVM  	= 000236	#24-964
DLYCNT	= 174400	#185-7376  #235-9226
DMOVE 	= 000120	#24-966
DMOVEM	= 000124	#24-967
DMOVN 	= 000121	#24-968
DMOVNM	= 000125	#24-969
DON10C	= 040000	#185-7376  #235-9226
DON10S	= 100000	#185-7376  #235-9226
DON11C	= 000100	#185-7376  #235-9226
DON11S	= 000200	#185-7376  #235-9226
DOWMTB	  001244 R	 225-8691  #225-8713
DOWTAB	  001204 R	 223-8595  #224-8628
DPB   	= 000137	#24-971
DPOAPE	  002542 R	 68-2818   #68-2822
DPOATB	  000000 R	 40-1675   #40-1680
DPODTB	  000004 R	 41-1690   #41-1695
DPOITB	  000010 R	 41-1702   #41-1707
DPOKCN	  002550 R	 67-2769   #68-2825
DPONTB	  000014 R	 41-1714   #41-1719
DPOOAI	  001546 R	 57-2446    58-2460   #58-2479
DPOPTB	  000020 R	 41-1726   #41-1731
DPOVFE	  002556 R	 68-2813   #68-2828
DPOZTB	  000024 R	 41-1738   #41-1743
DPS4  	= 040000	#185-7376  #235-9226
DPTMSG	= ******  GX	 215-8308
DRATAB	  000442 R	 107-4237  #109-4298
DRESET	= 000100	#185-7376  #235-9226
DRMMSG	= ******  GX	 218-8395
DR.DTE	= 000011	#185-7376  #235-9226   238-9335
DSEND 	= 000004	#185-7376  #235-9226
DS04  	= 004000	#185-7376  #235-9226
DS05  	= 002000	#185-7376  #235-9226
DS06  	= 001000	#185-7376  #235-9226
DTEBUF	  000140 R	 81-3324    81-3337   #81-3347    82-3413    83-3473    83-3476    84-3498    84-3511    84-3533
                         85-3574    86-3618
DTECMD	= 000451	#185-7376  #235-9226
DTEFLG	= 000444	#185-7376  #235-9226
DTEF11	= 000450	#185-7376  #235-9226
PATREE     CREATED BY  MACRO  ON 17-MAY-88 AT 14:39	PAGE 7

SYMBOL CROSS REFERENCE                                  CREF   04.00

SYMBOL	VALUE		REFERENCES

DTEMTD	= 000455	#185-7376  #235-9226
DTEMTI	= 000456	#185-7376  #235-9226
DTEREG	  000200 R	 81-3335   #81-3349
DUPE  	= 000020	#185-7376  #235-9226
DURE  	= 000004	#185-7376  #235-9226
DV.LOG	= ******  GX	 231-9051
DXWRD1	= 002000	#185-7376  #235-9226
DX1MS1	  001025 R	 83-3471   #83-3486
DX1MS2	  001045 R	 83-3480   #83-3487
D.CCPU	= ******  GX	 230-9017
D.CKLN	= ******  GX	 230-9036
D1.CES	= 004000	#10-368     165-6633
D1.DCS	= 000001	#10-385
D1.DDT	= 000040	#10-375     10-388
D1.DEX	= 000400	#10-371     10-388
D1.DFM	= 000010	#10-379
D1.DS0	= 100000	#10-361
D1.DS1	= 040000	#10-362
D1.DS2	= 020000	#10-363
D1.DS3	= 010000	#10-364
D1.DS4	= 004000	#10-365
D1.DS5	= 002000	#10-366
D1.DS6	= 001000	#10-367
D1.HLP	= 001000	#10-370     124-5091
D1.LBK	= 000200	#10-373
D1.MBZ	= 000442	#10-388
D1.PLS	= 000020	#10-378
D1.RUN	= 002000	#10-369     123-5077
D1.T10	= 000200	#10-372
D1.T11	= 000100	#10-374
D1.V04	= 000020	#10-377
D1.XFR	= 000004	#10-380
D1011 	= 000040	#185-7376  #235-9226
D2.EBD	= 040000	#11-394
D2.MBZ	= 177641	#11-411
D2.MS1	= 000002	#11-407
D2.MS2	= 000004	#11-406
D2.MS4	= 000010	#11-405
D2.MS8	= 000020	#11-404
D2.RA0	= 100000	#11-392
D2.RA1	= 040000	#11-393
D2.RA2	= 020000	#11-396
D2.RST	= 000100	#11-400
D3.CDD	= 000020	#11-424
D3.MBZ	= 177704	#11-433
D3.NPE	= 000002	#11-429
D3.PAR	= 040000	#11-416
D3.RST	= 000001	#11-435
D3.SCD	= 000040	#11-422
D3.SSL	= 100000	#11-415
D3.TXB	= 000001	#11-431     11-435
D3.UPE	= 000020	#11-423
PATREE     CREATED BY  MACRO  ON 17-MAY-88 AT 14:39	PAGE 8

SYMBOL CROSS REFERENCE                                  CREF   04.00

SYMBOL	VALUE		REFERENCES

D3.URE	= 000004	#11-428
D3.WEP	= 000010	#11-425
EBSEL 	= 000100	#185-7376  #235-9226
EBUSPC	= 000020	#185-7376  #235-9226
EBUSPS	= 000004	#185-7376  #235-9226
EDNKLA	  000540 R	 47-1968    47-1970   #47-1985
EDONES	= 040000	#185-7376  #235-9226
ED.EPT	= 000000	#9-326
ED.EXV	= 000040	#9-327      140-5661   182-7278
ED.PHY	= 000200	#9-330      67-2788    68-2803    68-2808    71-2927    76-3140    123-5069   153-6061   162-6431
                         165-6629   165-6644   238-9335   244-9420
ED.UPT	= 000100	#9-328
ED.USV	= 000140	#9-329
EF.CRI	= ******  GX	 36-1521    186-7403
EF.PR1	= ******  GX	 223-8542   230-9009
ELEMSG	= ******  GX	 194-7657
ENTER 	= 000077	#25-973
EOSMSG	  002205 R	 130-5332  #130-5346
EPMSG0	  002112 R	 98-3936   #99-3969
EPMSG1	  002126 R	 99-3950   #99-3971
EPMSG2	  002140 R	 99-3955   #99-3973
EPMSG3	  002154 R	 99-3960   #99-3975
EPTR  	= 000000	#185-7376  #235-9226
EPTUPT	  000114 R	#76-3114   *76-3122   *76-3124    76-3129
EQV   	= 000444	#25-975
EQVB  	= 000447	#25-976
EQVI  	= 000445	#25-977
EQVM  	= 000446	#25-978
ERRCES	= ******  GX	 130-5297
ERRCPE	= ******  GX	 130-5310
ERRDPE	= ******  GX	 130-5304
ERRFME	= ******  GX	 130-5316
ERR10C	= 010000	#185-7376  #235-9226
ERR10S	= 020000	#185-7376  #235-9226
ERR11C	= 000001	#185-7376  #235-9226
ERR11S	= 000002	#185-7376  #235-9226
EXADTB	  000034 R	 43-1793   #43-1798
EXAITB	  000040 R	 43-1805   #43-1810
EXAM  	  001353 R	 84-3515   #84-3563
EXANTB	  000044 R	 43-1817   #43-1822
EXAOAI	  002110 R	 61-2562   #61-2603
EXAPTB	  000050 R	 43-1829   #43-1834
EXAZTB	  000054 R	 43-1841   #43-1846
EXBLK 	  001022 R	 165-6628  #165-6656
EXCH  	= 000250	#25-980
EXCIOC	  003574 R	 78-3226   #78-3231
EXDAT 	  001032 RG	 165-6657  #165-6660
EXDEPF	  001334 R	#244-9395  *244-9405  *244-9408   244-9421
EXFMSG	  002011 R	 92-3783   #93-3811
EXMDTB	  000030 R	 42-1778   #42-1783
EXRTBL	= ******  GX	 100-3985
EXTEND	= 000123	#25-981
PATREE     CREATED BY  MACRO  ON 17-MAY-88 AT 14:39	PAGE 9

SYMBOL CROSS REFERENCE                                  CREF   04.00

SYMBOL	VALUE		REFERENCES

EXTKCN	  003230 R	 71-2917   #71-2978
EXTMSG	= ******  GX	 215-8315
E.FCID	= 000002	#21-804     126-5177
E.FCOD	= 000003	#21-805     126-5178
E.FCTC	= ******  GX	 126-5175
E.FFIL	= 000006	#21-808
E.FHTO	= 000001	#21-803     123-5051   126-5176   166-6703
E.FKLN	= 000004	#21-806     230-9011   230-9035   230-9039
E.FLOD	= 000005	#21-807     126-5180   175-7085   175-7088
FAD   	= 000140	#25-983
FADB  	= 000143	#25-984
FADL  	= 000141	#25-985
FADM  	= 000142	#25-986
FADR  	= 000144	#25-988
FADRB 	= 000147	#25-989
FADRI 	= 000145	#25-990
FADRM 	= 000146	#25-991
FDV   	= 000170	#25-993
FDVB  	= 000173	#25-994
FDVL  	= 000171	#25-995
FDVM  	= 000172	#25-996
FDVR  	= 000174	#25-998
FDVRB 	= 000177	#25-999
FDVRI 	= 000175	#25-1000
FDVRM 	= 000176	#25-1001
FEBMSG	= ******  GX	 115-4784
FERTAB	  000456 R	 107-4241  #109-4306
FIX   	= 000122	#25-1003
FIXR  	= 000126	#25-1004
FLTR  	= 000127	#25-1006
FMABO 	  002462 R	 164-6551  #164-6573
FMBUF 	  001004 R	 164-6524  #164-6566   165-6639   165-6655
FMERR 	  001002 R	*164-6509   164-6544  *164-6549  #164-6565  *165-6638
FMHED 	  002416 R	 164-6522  #164-6572
FMMSG 	= ******  GX	 218-8397
FMP   	= 000160	#25-1008
FMPB  	= 000163	#25-1009
FMPL  	= 000161	#25-1010
FMPM  	= 000162	#25-1011
FMPR  	= 000164	#25-1013
FMPRB 	= 000167	#25-1014
FMPRI 	= 000165	#25-1015
FMPRM 	= 000166	#25-1016
FNCIFC	  001332 R	 53-2275    53-2277    53-2282    53-2284    53-2289   #53-2294
FNCOFC	  001340 R	 53-2292   #53-2297
FOFMSG	  002003 R	 92-3789   #93-3809
FONMSG	  001775 R	 92-3786   #93-3807
FORPRO	= 000020	#185-7376  #235-9226
FRDBUF	  000626 RG	 130-5299  #130-5351
FRIMSG	  003724 R	 225-8718  #226-8742
FR.ADX	= 000254	#18-726     102-4032
FR.APR	= 000220	#18-704     73-3052
PATREE     CREATED BY  MACRO  ON 17-MAY-88 AT 14:39	PAGE 10

SYMBOL CROSS REFERENCE                                  CREF   04.00

SYMBOL	VALUE		REFERENCES

FR.ARX	= 000252	#18-724     102-4040
FR.BRX	= 000250	#18-722     102-4048
FR.CA1	= 000312	#19-756     19-757     109-4283
FR.CA2	= 000310	#19-753     19-754     109-4286
FR.CL1	= 000316	#19-763     109-4291
FR.CL2	= 000314	#19-760     109-4294
FR.CRD	= 000302	#19-747
FR.CR1	= 000316	#19-762     19-763
FR.CR2	= 000314	#19-759     19-760
FR.CR3	= 000312	#19-757
FR.CR4	= 000310	#19-754
FR.DA1	= 000260	#18-732     109-4299
FR.DA2	= 000262	#18-735     109-4302
FR.EBS	= 000356	#20-790     102-4052
FR.FE1	= 000266	#18-739     109-4307
FR.FE2	= 000264	#18-737     109-4310
FR.PI0	= 000200	#18-693     106-4188
FR.PI1	= 000202	#18-695     106-4191
FR.RAD	= 000256	#18-728     102-4028
FR.RAR	= 000240	#18-714     102-4036
FR.RBR	= 000242	#18-716     102-4044
FR.RFM	= 000246	#18-720     102-4056
FR.RMQ	= 000244	#18-718     102-4060
FR.SC1	= 000262	#18-734     109-4323
FR.SC2	= 000260	#18-731     109-4326
FR.SR1	= 000306	#19-751     109-4315
FR.SR2	= 000304	#19-749     109-4318
FR.VM0	= 000320	#19-766
FR.VM1	= 000322	#19-768
FR.VM2	= 000324	#19-770
FR.VM3	= 000326	#19-772
FR.VM4	= 000330	#19-774
FR.VM5	= 000332	#19-776
FR.VM6	= 000334	#19-778
FR.VM7	= 000336	#19-780
FR.100	= 000200	#18-692     18-693     53-2274    104-4118   158-6222
FR.101	= 000202	#18-694     18-695     104-4111   158-6215
FR.102	= 000204	#18-696
FR.103	= 000206	#18-697     130-5300
FR.104	= 000210	#18-698     130-5306
FR.105	= 000212	#18-699     130-5312
FR.106	= 000214	#18-700
FR.107	= 000216	#18-701
FR.110	= 000220	#18-703     18-704
FR.111	= 000222	#18-705     155-6130
FR.112	= 000224	#18-706
FR.113	= 000226	#18-707
FR.114	= 000230	#18-708
FR.115	= 000232	#18-709
FR.116	= 000234	#18-710
FR.117	= 000236	#18-711
FR.120	= 000240	#18-713     18-714
PATREE     CREATED BY  MACRO  ON 17-MAY-88 AT 14:39	PAGE 11

SYMBOL CROSS REFERENCE                                  CREF   04.00

SYMBOL	VALUE		REFERENCES

FR.121	= 000242	#18-715     18-716
FR.122	= 000244	#18-717     18-718
FR.123	= 000246	#18-719     18-720
FR.124	= 000250	#18-721     18-722
FR.125	= 000252	#18-723     18-724
FR.126	= 000254	#18-725     18-726
FR.127	= 000256	#18-727     18-728
FR.130	= 000260	#18-730     18-731     18-732
FR.131	= 000262	#18-733     18-734     18-735
FR.132	= 000264	#18-736     18-737     104-4125   158-6229
FR.133	= 000266	#18-738     18-739
FR.134	= 000270	#18-740
FR.135	= 000272	#18-741
FR.136	= 000274	#18-742
FR.137	= 000276	#18-743
FR.140	= 000300	#19-745
FR.141	= 000302	#19-746     19-747
FR.142	= 000304	#19-748     19-749
FR.143	= 000306	#19-750     19-751
FR.144	= 000310	#19-752     19-753
FR.145	= 000312	#19-755     19-756
FR.146	= 000314	#19-758     19-759
FR.147	= 000316	#19-761     19-762
FR.150	= 000320	#19-765     19-766     111-4418   111-4422   159-6303
FR.151	= 000322	#19-767     19-768
FR.152	= 000324	#19-769     19-770
FR.153	= 000326	#19-771     19-772
FR.154	= 000330	#19-773     19-774     111-4426   111-4430
FR.155	= 000332	#19-775     19-776
FR.156	= 000334	#19-777     19-778
FR.157	= 000336	#19-779     19-780
FR.160	= 000340	#20-782
FR.161	= 000342	#20-783
FR.162	= 000344	#20-784
FR.163	= 000346	#20-785
FR.164	= 000350	#20-786
FR.165	= 000352	#20-787
FR.166	= 000354	#20-788
FR.167	= 000356	#20-789     20-790
FR.170	= 000360	#20-792
FR.171	= 000362	#20-793
FR.172	= 000364	#20-794
FR.173	= 000366	#20-795
FR.174	= 000370	#20-796
FR.175	= 000372	#20-797
FR.176	= 000374	#20-798
FR.177	= 000376	#20-799     53-2276
FSB   	= 000150	#25-1018
FSBB  	= 000153	#25-1019
FSBL  	= 000151	#25-1020
FSBM  	= 000152	#25-1021
FSBR  	= 000154	#26-1023
PATREE     CREATED BY  MACRO  ON 17-MAY-88 AT 14:39	PAGE 12

SYMBOL CROSS REFERENCE                                  CREF   04.00

SYMBOL	VALUE		REFERENCES

FSBRB 	= 000157	#26-1024
FSBRI 	= 000155	#26-1025
FSBRM 	= 000156	#26-1026
FSC   	= 000132	#26-1028
FSSMSG	= ******  GX	 218-8399
FTBYTE	= 000000	#2-66
FTCRAM	= 000000	#2-67
FTDEBU	= 000001	#2-68
FTDISP	= 000000	#2-69
FTDRAM	= 000000	#2-70
FTHELP	= 000000	#2-71
FTKLE 	= 000001	#2-78       123-5053   130-5292   131-5392
FTKLER	= 000000	#2-72
FTLCMN	= ******	 1-1        33-1410
FTLCVT	= 000000	#2-73
FTLIST	= 000001	#2-74       126-5179
FTTRAK	= 000001	#2-75       13-491
FTTRP4	= 000001	#2-76
FTUCVR	= 000130	#2-77
FT1105	= 000001	#2-65      #2-102
FT1110	= 000001	#2-64      #2-98       2-101
FT1115	= 000001	#2-63      #2-94       2-97
FT1120	= 000001	#2-62      #2-90       2-93
FT1135	= 000001	#2-61      #2-86       2-89
FT1140	= 000001	#2-60       2-85       3-111
FT1145	= 000000	#2-59       2-81
FULMSG	= ******  GX	 215-8318
FW.APE	= 000116	#16-629
FW.CA1	= 000122	#16-645
FW.CA2	= 000124	#16-647
FW.CDR	= 000112	#15-601
FW.CHN	= 000160	#17-677
FW.CRD	= 000126	#16-649
FW.CR1	= 000136	#16-657
FW.CR2	= 000134	#16-655
FW.CR3	= 000132	#16-653
FW.CR4	= 000130	#16-651
FW.CSR	= 000110	#15-577
FW.DJE	= 000146	#17-666
FW.DJO	= 000150	#17-668
FW.DR1	= 000140	#17-660
FW.DR2	= 000142	#17-662
FW.DR3	= 000144	#17-664
FW.EBL	= 000174	#17-685
FW.IAC	= 000154	#17-672
FW.IOJ	= 000152	#17-670
FW.IPE	= 000114	#16-616
FW.KLO	= 000156	#17-674
FW.LAR	= 000176	#17-688     53-2283
FW.LBL	= 000106	#15-575
FW.LBR	= 000104	#15-573
FW.MBX	= 000162	#17-679
PATREE     CREATED BY  MACRO  ON 17-MAY-88 AT 14:39	PAGE 13

SYMBOL CROSS REFERENCE                                  CREF   04.00

SYMBOL	VALUE		REFERENCES

FW.SBR	= 000174	#17-686
FW.040	= 000100	#15-570     53-2281
FW.041	= 000102	#15-571
FW.042	= 000104	#15-572     15-573
FW.043	= 000106	#15-574     15-575
FW.044	= 000110	#15-576     15-577
FW.045	= 000112	#15-600     15-601
FW.046	= 000114	#16-615     16-616
FW.047	= 000116	#16-628     16-629
FW.050	= 000120	#16-643
FW.051	= 000122	#16-644     16-645
FW.052	= 000124	#16-646     16-647
FW.053	= 000126	#16-648     16-649
FW.054	= 000130	#16-650     16-651
FW.055	= 000132	#16-652     16-653
FW.056	= 000134	#16-654     16-655
FW.057	= 000136	#16-656     16-657
FW.060	= 000140	#17-659     17-660
FW.061	= 000142	#17-661     17-662
FW.062	= 000144	#17-663     17-664
FW.063	= 000146	#17-665     17-666
FW.064	= 000150	#17-667     17-668
FW.065	= 000152	#17-669     17-670
FW.066	= 000154	#17-671     17-672
FW.067	= 000156	#17-673     17-674
FW.070	= 000160	#17-676     17-677
FW.071	= 000162	#17-678     17-679
FW.072	= 000164	#17-680
FW.073	= 000166	#17-681
FW.074	= 000170	#17-682
FW.075	= 000172	#17-683
FW.076	= 000174	#17-684     17-685     17-686
FW.077	= 000176	#17-687     17-688
FX.BMC	= 000012	#14-530
FX.CMR	= 000014	#14-532
FX.CON	= 000024	#14-541     38-1593
FX.CRF	= 000020	#14-537
FX.CSP	= 000000	#14-520
FX.CST	= 000002	#14-522
FX.EBC	= 000006	#14-526
FX.MBC	= 000004	#14-524
FX.SMR	= 000016	#14-534
FX.SRF	= 000022	#14-539
FX.SYC	= 000010	#14-528
FX.UDR	= 000032	#14-546
FX.UIR	= 000030	#14-544
FX.000	= 000000	#14-519     14-520
FX.001	= 000002	#14-521     14-522
FX.002	= 000004	#14-523     14-524
FX.003	= 000006	#14-525     14-526
FX.004	= 000010	#14-527     14-528
FX.005	= 000012	#14-529     14-530
PATREE     CREATED BY  MACRO  ON 17-MAY-88 AT 14:39	PAGE 14

SYMBOL CROSS REFERENCE                                  CREF   04.00

SYMBOL	VALUE		REFERENCES

FX.006	= 000014	#14-531     14-532
FX.007	= 000016	#14-533     14-534
FX.010	= 000020	#14-536     14-537
FX.011	= 000022	#14-538     14-539
FX.012	= 000024	#14-540     14-541
FX.013	= 000026	#14-542
FX.014	= 000030	#14-543     14-544
FX.015	= 000032	#14-545     14-546
FX.016	= 000034	#14-547
FX.017	= 000036	#14-548
FX.020	= 000040	#14-550
FX.021	= 000042	#14-551
FX.022	= 000044	#14-552
FX.023	= 000046	#14-553
FX.024	= 000050	#14-554
FX.025	= 000052	#14-555
FX.026	= 000054	#14-556
FX.027	= 000056	#14-557
FX.030	= 000060	#14-559
FX.031	= 000062	#14-560
FX.032	= 000064	#14-561
FX.033	= 000066	#14-562
FX.034	= 000070	#14-563
FX.035	= 000072	#14-564
FX.036	= 000074	#14-565
FX.037	= 000076	#14-566     53-2288
GETEBR	  000124 RG	#76-3116    76-3131
GETSTS	= 000062	#26-1030
GETUBR	  000132 RG	#76-3117    76-3128
GOOBLK	  001016 R	 165-6643  #165-6654
GTDDBT	  006442 R	 112-4583   112-4587   112-4591  #113-4598
GTDDOR	  006450 R	 112-4566   112-4572   112-4576   112-4579  #113-4601
GTDIDF	  006456 R	 112-4516   112-4538   112-4548  #113-4604
GTDMS0	  002167 R	 112-4511  #113-4618
GTDYOR	  006464 R	 112-4553  #113-4607
GTTITF	  007024 R	 114-4663  #114-4720
GTTMS0	  002176 R	 114-4653  #114-4729
GTTTOR	  007032 R	 114-4678   114-4681   114-4697   114-4706  #114-4723
G.TICP	= 000016	#112-4502  #170-6880  #225-8678
G.TICT	= 000014	#112-4502  #170-6880  #225-8678
G.TIDA	= 000004	#112-4502  #170-6880  #225-8678
G.TIHR	= 000006	#112-4502  #170-6880  #225-8678
G.TIMI	= 000010	#112-4502  #170-6880  #225-8678
G.TIMO	= 000002	#112-4502  #170-6880  #225-8678
G.TISC	= 000012	#112-4502  #170-6880  #225-8678
G.TIYR	= 000000	#112-4502  #170-6880  #225-8678
HDDAG1	  000176 R	 81-3362   #81-3401
HDDAG2	  000211 R	 81-3363   #81-3402
HDDAG3	  000237 R	 81-3365   #81-3404
HDDEX1	  000043 R	 81-3353   #81-3392
HDDEX2	  000030 R	 81-3352   #81-3391
HDDEX3	  000015 R	 81-3351   #81-3390
PATREE     CREATED BY  MACRO  ON 17-MAY-88 AT 14:39	PAGE 15

SYMBOL CROSS REFERENCE                                  CREF   04.00

SYMBOL	VALUE		REFERENCES

HDDLY 	  000004 R	 81-3350   #81-3389
HDSTAT	  000224 R	 81-3364   #81-3403
HDTAD1	  000056 R	 81-3354   #81-3393
HDTAD2	  000071 R	 81-3355   #81-3394
HDT10A	  000126 R	 81-3358   #81-3397
HDT10B	  000102 R	 81-3356   #81-3395
HDT10D	  000152 R	 81-3360   #81-3399
HDT11A	  000141 R	 81-3359   #81-3398
HDT11B	  000115 R	 81-3357   #81-3396
HDT11D	  000165 R	 81-3361   #81-3400
HIBYTE	= 177400	#185-7376  #235-9226
HLFMSG	= ******  GX	 215-8319
HLL   	= 000500	#26-1032
HLLE  	= 000530	#26-1033
HLLEI 	= 000531	#26-1034
HLLEM 	= 000532	#26-1035
HLLES 	= 000533	#26-1036
HLLI  	= 000501	#26-1038
HLLM  	= 000502	#26-1039
HLLO  	= 000520	#26-1041
HLLOI 	= 000521	#26-1042
HLLOM 	= 000522	#26-1043
HLLOS 	= 000523	#26-1044
HLLS  	= 000503	#26-1046
HLLZ  	= 000510	#26-1048
HLLZI 	= 000511	#26-1049
HLLZM 	= 000512	#26-1050
HLLZS 	= 000513	#26-1051
HLR   	= 000544	#26-1053
HLRE  	= 000574	#26-1055
HLREI 	= 000575	#26-1056
HLREM 	= 000576	#26-1057
HLRES 	= 000577	#26-1058
HLRO  	= 000564	#26-1060
HLROI 	= 000565	#26-1061
HLROM 	= 000566	#26-1062
HLROS 	= 000567	#26-1063
HLRS  	= 000547	#26-1065
HLRZ  	= 000554	#26-1067
HLRZI 	= 000555	#26-1068
HLRZM 	= 000556	#26-1069
HLRZS 	= 000557	#26-1070
HRL   	= 000504	#27-1072
HRLE  	= 000534	#27-1074
HRLEI 	= 000535	#27-1075
HRLEM 	= 000536	#27-1076
HRLES 	= 000537	#27-1077
HRLI  	= 000505	#27-1079
HRLM  	= 000506	#27-1080
HRLO  	= 000564	#27-1082
HRLOI 	= 000565	#27-1083
HRLOM 	= 000566	#27-1084
PATREE     CREATED BY  MACRO  ON 17-MAY-88 AT 14:39	PAGE 16

SYMBOL CROSS REFERENCE                                  CREF   04.00

SYMBOL	VALUE		REFERENCES

HRLOS 	= 000567	#27-1085
HRLS  	= 000507	#27-1087
HRLZ  	= 000514	#27-1089
HRLZI 	= 000515	#27-1090
HRLZM 	= 000516	#27-1091
HRLZS 	= 000517	#27-1092
HRR   	= 000540	#27-1094
HRRE  	= 000570	#27-1096
HRREI 	= 000571	#27-1097
HRREM 	= 000572	#27-1098
HRRES 	= 000573	#27-1099
HRRI  	= 000541	#27-1101
HRRM  	= 000542	#27-1102
HRRO  	= 000560	#27-1104
HRROI 	= 000561	#27-1105
HRROM 	= 000562	#27-1106
HRROS 	= 000563	#27-1107
HRRS  	= 000543	#27-1109
HRRZ  	= 000550	#27-1111
HRRZI 	= 000551	#27-1112
HRRZM 	= 000552	#27-1113
HRRZS 	= 000553	#27-1114
H.KCAC	= ******  GX	 205-7909
H.KCHN	= ******  GX	 205-7908
H.KEXT	= ******  GX	 205-7869   205-7907
H.KMOS	= ******  GX	 205-7906
H.KPWR	= ******  GX	 205-7877
I     	= 000000	#76-3116    76-3116   #76-3117    76-3117   #139-5633   139-5633  #139-5635   139-5635  #139-5637
                         139-5637  #139-5639   139-5639  #141-5680   141-5680  #141-5682   141-5682  #153-6078   153-6078
                        #162-6453   162-6453
IBP   	= 000133	#28-1116
IDIV  	= 000230	#28-1118
IDIVB 	= 000233	#28-1119
IDIVI 	= 000231	#28-1120
IDIVM 	= 000232	#28-1121
IDPB  	= 000136	#28-1123
IE.ACT	= ******  GX	 144-5774
IE.EBX	= ******  GX	 238-9324
IE.INS	= ******  GX	 144-5772
IFLOP 	= 100000	#185-7376  #235-9226
ILDB  	= 000134	#28-1125
IMUL  	= 000220	#28-1127
IMULB 	= 000223	#28-1128
IMULI 	= 000221	#28-1129
IMULM 	= 000222	#28-1130
IN    	= 000056	#28-1132
INBUF 	= 000064	#28-1133
INCEX 	  000074 R	 61-2581   *61-2594   *61-2597   #61-2611
INCFR 	  000064 R	 50-2133   *50-2149   *50-2152   #50-2167
INCTX 	  000104 R	 71-2942   *71-2956   *71-2957   *71-2958    71-2963   #71-2985
INDLUN	= 000005	#21-824     146-5856
INIDNP	  007546 R	 123-5061  #124-5115
PATREE     CREATED BY  MACRO  ON 17-MAY-88 AT 14:39	PAGE 17

SYMBOL CROSS REFERENCE                                  CREF   04.00

SYMBOL	VALUE		REFERENCES

INIDTC	  007554 R	 124-5093  #124-5118
INIT  	= 000041	#28-1134
INPUT 	= 000066	#28-1135
INTMSG	= ******  GX	 215-8313
INTROF	= 000010	#185-7376  #235-9226
INTRON	= 000040	#185-7376  #235-9226
INTSON	= 000001	#185-7376  #235-9226
INT10S	= 000400	#185-7376  #235-9226
INT11C	= 002000	#185-7376  #235-9226
INT11S	= 004000	#185-7376  #235-9226
IOR   	= 000434	#28-1137    29-1205
IORB  	= 000437	#28-1138    29-1206
IORI  	= 000435	#28-1139    30-1223
IORM  	= 000436	#28-1140    30-1224
IO.ACE	= ******  GX	 170-6851
IO.ACR	= ******  GX	 146-5859
IO.ATT	= ******  GX	 175-7085
IO.DET	= ******  GX	 175-7088
IP.ALL	= 000017	#16-626
IP.CRP	= 000004	#16-622     16-625     213-8221   218-8394
IP.DRP	= 000002	#16-623     16-625     213-8225   218-8396
IP.FMP	= 000010	#16-621     16-625     213-8233   218-8398
IP.FSS	= 000001	#16-624     16-626     213-8237   218-8400
IP.NRM	= 000016	#16-625     16-626     16-641
JANMSG	= ******  GX	 115-4783
JFCL  	= 000255	#28-1142
JFFO  	= 000243	#28-1144
JRA   	= 000267	#28-1146
JRST  	= 000254	#28-1148
JSA   	= 000266	#28-1150
JSP   	= 000265	#28-1152
JSR   	= 000264	#28-1154
JSYS  	= 000104	#28-1156
JULMSG	= ******  GX	 115-4789
JUMP  	= 000320	#28-1158
JUMPA 	= 000324	#28-1159
JUMPE 	= 000322	#28-1160
JUMPG 	= 000327	#28-1161
JUMPGE	= 000325	#28-1162
JUMPL 	= 000321	#28-1163
JUMPLE	= 000323	#28-1164
JUMPN 	= 000326	#28-1165
JUNMSG	= ******  GX	 115-4788
KF.BRM	= 001000	#13-483
KF.CES	= 000100	#13-486
KF.CLK	= 100000	#13-477     38-1589    65-2707    67-2768    71-2916    123-5065   123-5072   138-5584   140-5647
                         187-7442   237-9279
KF.CON	= 000200	#13-485     13-487     38-1585    123-5072
KF.DEF	= 000200	#13-487     121-5012
KF.KLO	= 000400	#13-484     123-5072
KF.MRS	= 020000	#13-479
KF.RUN	= 040000	#13-478     38-1599    49-2070    123-5065   124-5095
PATREE     CREATED BY  MACRO  ON 17-MAY-88 AT 14:39	PAGE 18

SYMBOL CROSS REFERENCE                                  CREF   04.00

SYMBOL	VALUE		REFERENCES

KF.SIM	= 010000	#13-480     38-1587
KF.SMC	= 004000	#13-481
KF.SPM	= 002000	#13-482
KLETAB	  000634 RG	 130-5318   130-5322  #130-5355
KLIOT 	= 000700	#28-1167
KLNLGE	= 001326 R	 230-9021  #231-9056
KLNLGL	= ******  GX	 230-9019
KLNLOG	  001302 R	#231-9049
KLNPLN	= ******  GX	 230-9014
KLNPWD	  001326 R	 230-8849   230-8984  #231-9058
KLP   	= 000574	#7-249
KLPSTP	= ******  GX	 36-1525    36-1525    118-4908
KLPWRF	= 000010	#185-7376  #235-9226
KL.ABO	= ******  GX	 164-6555
KL.REQ	= ******  GX	 130-5339   164-6553
K.LSCK	= ******  GX	 231-9052
LDB   	= 000135	#29-1169
LGFMSG	  002610 R	 170-6833  #170-6908
LGSMSG	  002543 R	 170-6867  #170-6904
LGVMSG	  002576 R	 170-6870  #170-6906
LG.ALL	= 000007	#22-868     189-7521   232-9142
LG.ARG	= 000010	#22-861
LG.MAR	= 000020	#22-862
LG.MNT	= 000004	#22-860     22-868     190-7547
LG.MOD	= 000040	#22-863
LG.NUL	= 000000	#22-857
LG.OPR	= 000001	#22-858     22-867     189-7513
LG.PRG	= 000002	#22-859     22-867     186-7395   190-7550
LG.PRM	= 000003	#22-867     22-868     189-7517   232-9145
LG.RNG	= 000100	#22-864
LG.RPT	= 000400	#22-866
LG.STR	= 000200	#22-865
LOAD11	= 000004	#185-7376  #235-9226
LOGBUF	  001040 R	 170-6879  #170-6900
LOGLUN	= 000004	#21-823     170-6841   170-6850
LOGMSG	= ******  GX	 174-7056
LOOKUP	= 000076	#29-1171
LPTMSG	= ******  GX	 174-7048
LSH   	= 000242	#29-1173
LSHC  	= 000246	#29-1174
LSTLUN	= 000003	#21-822     127-5213   175-7085   175-7088
MAP   	= 000257	#29-1176
MARMSG	= ******  GX	 115-4785
MAYMSG	= ******  GX	 115-4787
MGNMSG	= ******  GX	 215-8314   215-8316
MNTMSG	= ******  GX	 190-7546   232-9141
MONMSG	  003656 R	 225-8714  #226-8734
MOVE  	= 000200	#29-1178
MOVEI 	= 000201	#29-1179
MOVEM 	= 000202	#29-1180
MOVES 	= 000203	#29-1181
MOVM  	= 000214	#29-1183
PATREE     CREATED BY  MACRO  ON 17-MAY-88 AT 14:39	PAGE 19

SYMBOL CROSS REFERENCE                                  CREF   04.00

SYMBOL	VALUE		REFERENCES

MOVMI 	= 000215	#29-1184
MOVMM 	= 000216	#29-1185
MOVMS 	= 000217	#29-1186
MOVN  	= 000210	#29-1188
MOVNI 	= 000211	#29-1189
MOVNM 	= 000212	#29-1190
MOVNS 	= 000213	#29-1191
MOVS  	= 000204	#29-1193
MOVSI 	= 000205	#29-1194
MOVSM 	= 000206	#29-1195
MOVSS 	= 000207	#29-1196
MPE11 	= 001000	#185-7376  #235-9226
MUL   	= 000224	#29-1198
MULB  	= 000227	#29-1199
MULI  	= 000225	#29-1200
MULM  	= 000226	#29-1201
NOFMSG	  001746 R	 92-3797   #93-3805
NOMSG 	  003601 R	 220-8451  #221-8474
NONMSG	  003451 R	 214-8267  #216-8335   217-8362
NOOP  	  000300 R	 81-3368    81-3369    81-3370    81-3372    81-3374    81-3375    81-3376    81-3377    81-3378
                         81-3379    81-3381   #81-3385
NOVMSG	= ******  GX	 115-4793
NULSTP	= 000040	#185-7376  #235-9226
NUPE  	= 000002	#185-7376  #235-9226
OCTMSG	= ******  GX	 115-4792
OFFMSG	= ******  GX	 98-3942    199-7725   200-7736   203-7800   207-7950   217-8355   225-8705
OFFSET	  000116 RG	#76-3115    76-3126    76-3147
ONMSG 	= ******  GX	 98-3938    200-7740   203-7797   207-7947   217-8352   225-8702
OPEN  	= 000050	#29-1203
OPRMSG	= ******  GX	 190-7552   232-9147
OR    	= 000434	#29-1205
ORB   	= 000437	#29-1206
ORCA  	= 000454	#29-1208
ORCAB 	= 000457	#29-1209
ORCAI 	= 000455	#29-1210
ORCAM 	= 000456	#29-1211
ORCB  	= 000470	#30-1213
ORCBB 	= 000473	#30-1214
ORCBI 	= 000471	#30-1215
ORCBM 	= 000472	#30-1216
ORCM  	= 000464	#30-1218
ORCMB 	= 000467	#30-1219
ORCMI 	= 000465	#30-1220
ORCMM 	= 000466	#30-1221
ORI   	= 000435	#30-1223
ORM   	= 000436	#30-1224
OUT   	= 000057	#30-1226
OUTBUF	= 000065	#30-1227
OUTPUT	= 000067	#30-1228
PAG   	= 000010	#7-247      76-3116    76-3116    76-3117    76-3117    141-5680   141-5680   141-5682   141-5682
                         153-6078   153-6078   162-6453   162-6453
PAR$$E	= 000000	#1-51
PATREE     CREATED BY  MACRO  ON 17-MAY-88 AT 14:39	PAGE 20

SYMBOL CROSS REFERENCE                                  CREF   04.00

SYMBOL	VALUE		REFERENCES

PAR$$K	= 000126	#1-55
PAR$$V	= 000016	#1-50
PCMSG 	= ******  GX	 94-3846
PCTAB 	  000522 R	 110-4359  #111-4417
PC.AFI	= 000020	#13-511
PC.AT0	= 000004	#13-513
PC.AT1	= 000010	#13-512
PC.BIS	= 000400	#13-507
PC.CY0	= 004000	#13-504
PC.CY1	= 002000	#13-505
PC.FOV	= 001000	#13-506
PC.FUF	= 000002	#13-514
PC.LIP	= 000040	#13-510
PC.NDV	= 000001	#13-515
PC.OVF	= 010000	#13-503     104-4129   158-6233
PC.UIO	= 000100	#13-509
PC.USR	= 000200	#13-508
PERCLR	= 001000	#185-7376  #235-9226
PE.ALL	= 000037	#9-339
PE.CES	= 000001	#9-334      9-339
PE.CRM	= 000004	#9-336      9-339
PE.DRM	= 000002	#9-335      9-339
PE.FMP	= 000010	#9-337      9-339
PE.FSS	= 000020	#9-338      9-339
PHYS  	= 100000	#185-7376  #235-9226
PI    	= 000004	#7-246      139-5639   139-5639
PIDENT	= 000000	#185-7376  #235-9226
POP   	= 000262	#30-1230
POPJ  	= 000263	#30-1231
PRGMSG	= ******  GX	 190-7549   232-9144
PRI7  	= 000340	#185-7376  #235-9226
PROFF 	  001367 R	 84-3522   #84-3565
PRON  	  001363 R	 84-3519   #84-3564
PROPNT	= 000021	#185-7376  #235-9226
PRTOFF	= 004000	#185-7376  #235-9226
PR0   	= 000000	#185-7376  #235-9226
PR1   	= 000040	#185-7376  #235-9226
PR2   	= 000100	#185-7376  #235-9226
PR3   	= 000140	#185-7376  #235-9226
PR4   	= 000200	#185-7376  #235-9226
PR5   	= 000240	#185-7376  #235-9226
PR6   	= 000300	#185-7376  #235-9226
PR7   	= 000340	#185-7376  #235-9226
PS    	= 177776	 81-3327   *81-3327   *81-3332   #185-7376   223-8593  *223-8593  *223-8606   230-8970  *230-8970
                        *230-8990   230-8999  *230-8999  *230-9005  #235-9226
PSENTB	  001160 R	 218-8372  #218-8390
PSWW1 	= 000005	#185-7376  #235-9226
PSWW10	= 000014	#185-7376  #235-9226
PSWW11	= 000015	#185-7376  #235-9226
PSWW12	= 000016	#185-7376  #235-9226
PSWW13	= 000017	#185-7376  #235-9226
PSWW2 	= 000006	#185-7376  #235-9226
PATREE     CREATED BY  MACRO  ON 17-MAY-88 AT 14:39	PAGE 21

SYMBOL CROSS REFERENCE                                  CREF   04.00

SYMBOL	VALUE		REFERENCES

PSWW3 	= 000007	#185-7376  #235-9226
PSWW4 	= 000010	#185-7376  #235-9226
PSWW5 	= 000011	#185-7376  #235-9226
PSWW6 	= 000012	#185-7376  #235-9226
PSWW7 	= 000013	#185-7376  #235-9226
PS.NRM	= 001416	#16-641     213-8213
PULSE 	= 000020	#185-7376  #235-9226
PUSH  	= 000261	#30-1233
PUSHJ 	= 000260	#30-1234
QSIZE 	= 000023	#185-7376  #235-9226
QTAB  	  001336 R	#244-9396   244-9413
QTRMSG	= ******  GX	 215-8320
Q.BYCT	= 000016	#21-815
Q.IBUF	= 000014	#21-813
Q.IOAE	= 000012	#175-7085  #175-7088
Q.IOEF	= 000006	#175-7085  #175-7088
Q.IOFN	= 000002	#175-7085  #175-7088
Q.IOLU	= 000004	#175-7085  #175-7088
Q.IOPL	= 000014	#21-812     21-813     21-814     21-815     21-816    #175-7085  #175-7088
Q.IOPR	= 000007	#175-7085  #175-7088
Q.IOSB	= 000010	#175-7085  #175-7088
Q.OBUF	= 000014	#21-814
Q.OVFC	= 000020	#21-816
Q0    	= ******  GX	 244-9396
Q1    	= ******  GX	 244-9397
Q2    	= ******  GX	 244-9398
Q3    	= ******  GX	 244-9399
RACADR	  000730 R	 153-6070  #153-6072
RACBLK	  000724 R	 153-6060  #153-6070
RACDAT	  000734 R	*153-6059   153-6071  #153-6074
RAMIS0	= 010000	#185-7376  #235-9226
RDPITB	  000374 R	 106-4169  #106-4187
RDPITE	= 000410 R	 106-4179  #106-4194
RELEAS	= 000071	#30-1236
REMMSG	= ******  GX	 232-9137
RENAME	= 000055	#30-1237
REQKLD	  000114 R	 232-9152  #232-9161
RFMAD0	= 100000	#185-7376  #235-9226
RFMAD1	= 040000	#185-7376  #235-9226
RFMAD2	= 020000	#185-7376  #235-9226
RFMAD3	= 010000	#185-7376  #235-9226
RM    	= 000010	#185-7376  #235-9226
RNGEX 	  000072 R	 61-2577   *61-2583   *61-2593   #61-2610
RNGFR 	  000062 R	 50-2129   *50-2135   *50-2148   #50-2166
RNGTX 	  000112 R	 71-2937   *71-2945   *71-2955   #71-2986
ROT   	= 000241	#30-1239
ROTC  	= 000245	#30-1240
RQSKLD	  000000 R	 56-2365   #56-2372
RSAKCN	  010532 R	 138-5585  #138-5602
RSAPRI	  000660 R	 139-5611  #139-5632
RSERRI	  000666 R	 139-5615  #139-5634
RSPGI0	  000710 R	 140-5664  #141-5679
PATREE     CREATED BY  MACRO  ON 17-MAY-88 AT 14:39	PAGE 22

SYMBOL CROSS REFERENCE                                  CREF   04.00

SYMBOL	VALUE		REFERENCES

RSPGI1	  000716 R	 140-5666  #141-5681
RSPKCN	  010710 R	 140-5648  #141-5673
RSTIOI	  000674 R	 139-5619  #139-5636
RSTPII	  000702 R	 139-5623  #139-5638
RUNITN	  011002 R	 143-5756  #144-5776
RUNNST	  011010 R	 144-5773  #144-5779
RUNTAA	  011016 R	 144-5775  #144-5782
R.QSGC	= 000015	#56-2373   #145-5807  #232-9162
R.QSPC	= 000014	#56-2373   #145-5807  #232-9162
R.QSPN	= 000006	#56-2373   #145-5807  #232-9162
R.QSPR	= 000012	#56-2373   #145-5807  #232-9162
R.QSTN	= 000002	#56-2373   #145-5807  #232-9162
SATMSG	  003734 R	 225-8719  #226-8744
SAVBLK	  001014 R	*164-6517   164-6525   164-6556  #164-6568
SBRTAB	  000472 R	 107-4245  #109-4314
SCAILI	  012032 R	 161-6372  #161-6381
SCANOR	  012040 R	 161-6376  #161-6383   164-6534
SCCCLE	  014352 R	 189-7526  #189-7534
SCCLKT	  001100 R	 208-8026  #210-8104
SCD   	= 000040	#185-7376  #235-9226
SCDCDI	  017236 R	 223-8543  #224-8613
SCDDAV	  017244 R	 223-8550  #224-8616
SCDNDI	  017252 R	 223-8556  #224-8619
SCDNTI	  017260 R	 223-8560  #224-8622
SCKIPC	  017626 R	#230-8865   230-8872   230-8876   230-8878
SCKKWE	  020172 R	 230-8942   230-8945   230-8948  #230-8952
SCKMS0	  003756 R	 230-8840  #231-9062
SCKMS1	  003771 R	 230-8883   230-8889  #231-9064
SCKMS2	  004015 R	 230-8897   230-8933  #231-9066
SCKMS3	  004042 R	 230-8958  #231-9068
SCKMS4	  004071 R	 230-8831  #231-9070
SCKNPI	  017604 R	 230-8844  #230-8856
SCKPTL	  017612 R	 230-8847  #230-8859
SCKSKI	  017620 R	 230-8829  #230-8862
SCOCAP	  013434 R	 171-6940   171-6947  #171-6951
SCPART	  001112 R	 208-8031   208-8038  #210-8110
SCPILS	  015766 R	 209-8055  #210-8092
SCPSCF	  015774 R	#210-8095   210-8108
SCPSPF	  016002 R	#210-8098   210-8114
SCRTAB	  000506 R	 107-4249  #109-4322
SEPMSG	= ******  GX	 115-4791
SETA  	= 000424	#30-1242
SETAB 	= 000427	#30-1243
SETACB	  000742 R	 153-6064  #153-6078
SETACI	  000774 R	 162-6435  #162-6453
SETAI 	= 000425	#30-1244
SETAM 	= 000426	#30-1245
SETCA 	= 000450	#30-1247
SETCAB	= 000453	#30-1248
SETCAI	= 000451	#30-1249
SETCAM	= 000452	#30-1250
SETCM 	= 000460	#30-1252
PATREE     CREATED BY  MACRO  ON 17-MAY-88 AT 14:39	PAGE 23

SYMBOL CROSS REFERENCE                                  CREF   04.00

SYMBOL	VALUE		REFERENCES

SETCMB	= 000463	#30-1253
SETCMI	= 000461	#30-1254
SETCMM	= 000462	#30-1255
SETM  	= 000414	#31-1257
SETMB 	= 000417	#31-1258
SETMI 	= 000415	#31-1259
SETMM 	= 000416	#31-1260
SETO  	= 000474	#31-1262
SETOB 	= 000477	#31-1263
SETOI 	= 000475	#31-1264
SETOM 	= 000476	#31-1265
SETSTS	= 000060	#31-1267
SETZ  	= 000400	#31-1269
SETZB 	= 000403	#31-1270
SETZI 	= 000401	#31-1271
SETZM 	= 000402	#31-1272
SKIP  	= 000330	#31-1274
SKIPA 	= 000334	#31-1275
SKIPE 	= 000332	#31-1276
SKIPG 	= 000337	#31-1277
SKIPGE	= 000335	#31-1278
SKIPL 	= 000331	#31-1279
SKIPLE	= 000333	#31-1280
SKIPN 	= 000336	#31-1281
SLOMSG	= ******  GX	 215-8321
SOJ   	= 000360	#31-1283
SOJA  	= 000364	#31-1284
SOJE  	= 000362	#31-1285
SOJG  	= 000367	#31-1286
SOJGE 	= 000365	#31-1287
SOJL  	= 000361	#31-1288
SOJLE 	= 000363	#31-1289
SOJN  	= 000366	#31-1290
SOS   	= 000370	#31-1292
SOSA  	= 000374	#31-1293
SOSE  	= 000372	#31-1294
SOSG  	= 000377	#31-1295
SOSGE 	= 000375	#31-1296
SOSL  	= 000371	#31-1297
SOSLE 	= 000373	#31-1298
SOSN  	= 000376	#31-1299
SPCTAB	  000342 R	 84-3507   #84-3541
SPC1  	  001257 R	 84-3542   #84-3556
SPC2  	  001263 R	 84-3543   #84-3557
SPC3  	  001300 R	 84-3544   #84-3558
SPC4  	  001304 R	 84-3545   #84-3559
SPC5  	  001321 R	 84-3546   #84-3560
SPC6  	  001332 R	 84-3547   #84-3561
SSTLEN	= ******  GX	 125-5163
STASZI	  014160 R	 186-7393  #186-7406
STAT  	= 174434	#185-7376  #235-9226
STATAB	  000302 R	 82-3414   #82-3427
PATREE     CREATED BY  MACRO  ON 17-MAY-88 AT 14:39	PAGE 24

SYMBOL CROSS REFERENCE                                  CREF   04.00

SYMBOL	VALUE		REFERENCES

STATO 	= 000061	#31-1301
STATUS	= 000022	#31-1302   #185-7376  #235-9226
STATYP	  003710 R	 81-3382   #82-3412
STATZ 	= 000063	#31-1303
STA0  	  001004 R	 82-3443   #82-3462
STA1  	  000744 R	 82-3442   #82-3461
STA10 	  000432 R	 82-3433   #82-3452
STA11 	  000402 R	 82-3432   #82-3451
STA12 	  000362 R	 82-3431   #82-3450
STA13 	  000327 R	 82-3430   #82-3449
STA14 	  000306 R	 82-3429   #82-3448
STA15 	  000252 R	 82-3428   #82-3447
STA2  	  000714 R	 82-3441   #82-3460
STA3  	  000671 R	 82-3440   #82-3459
STA4  	  000643 R	 82-3439   #82-3458
STA5  	  000604 R	 82-3438   #82-3457
STA6  	  000561 R	 82-3437   #82-3456
STA7  	  000532 R	 82-3436   #82-3455
STA8  	  000502 R	 82-3435   #82-3454
STA9  	  000450 R	 82-3434   #82-3453
STOPEX	  000070 R	*61-2559    61-2579    61-2595    61-2598   *61-2599   #61-2609
STOPFR	  000060 R	*50-2108    50-2131    50-2150    50-2153   *50-2154   #50-2165
STOPTX	  000076 R	*71-2912   *71-2913   *71-2914    71-2939    71-2959    71-2966    71-2967    71-2968   *71-2969
                        *71-2970   *71-2971   #71-2984
STPKL 	  000066 R	 49-2068   *50-2106   *50-2144   #50-2168   *51-2194   *52-2235
ST.CED	= 000100	#12-456     12-471
ST.CLE	= 000001	#12-469     12-471
ST.CTD	= 040000	#12-441
ST.CTE	= 010000	#12-445     12-471
ST.DW1	= 002000	#12-448
ST.DXD	= 000004	#12-464
ST.EBS	= 000100	#12-455
ST.EDB	= 004000	#12-446
ST.EPE	= 000020	#12-459     12-471
ST.IDS	= 000010	#12-463
ST.IEN	= 000040	#12-458
ST.ION	= 000001	#12-468
ST.MBZ	= 000000	#12-473
ST.MOD	= 000010	#12-461     123-5059
ST.MPE	= 001000	#12-449     12-471
ST.NST	= 000040	#12-457
ST.RIZ	= 010000	#12-444
ST.RST	= 011121	#12-471
ST.SEP	= 000004	#12-465
ST.STE	= 000002	#12-467
ST.TED	= 000200	#12-453
ST.TER	= 000002	#12-466
ST.TXD	= 100000	#12-439
ST.TXE	= 020000	#12-442
ST.XDB	= 000400	#12-451
SUB   	= 000274	#32-1305
SUBB  	= 000277	#32-1306
PATREE     CREATED BY  MACRO  ON 17-MAY-88 AT 14:39	PAGE 25

SYMBOL CROSS REFERENCE                                  CREF   04.00

SYMBOL	VALUE		REFERENCES

SUBI  	= 000275	#32-1307
SUBM  	= 000276	#32-1308
SUNMSG	  003746 R	 225-8720  #226-8746
SVPCTB	  000750 R	 159-6263  #159-6302
SWPFSW	  012644 R	 165-6634   165-6637  #165-6649
SWR   	= 177570	#185-7376  #235-9226
SWSLLT	= 100000	#185-7376  #235-9226
SXCT  	= 000106	#32-1310
SYMTAB	  000240 R	 81-3339    81-3339   #81-3367
TAKIRE	  011160 R	 146-5852  #146-5868
TAKNSF	  011166 R	 146-5858  #146-5870
TA2MS1	  001104 R	 84-3496   #84-3551
TA2MS2	  001126 R	 84-3509   #84-3552
TA2MS3	  001144 R	 84-3517   #84-3553
TA2MS4	  001201 R	 84-3526   #84-3554
TA2MS5	  001236 R	 84-3528   #84-3555
TC.CON	= 000377	#22-875
TC.CTC	= 000002	#22-872
TC.ERR	= 000000	#22-874     38-1608    47-1986    49-2080    53-2295    53-2298    58-2480    61-2604    68-2823
                         68-2826    68-2829    71-2979    78-3232    113-4599   113-4602   113-4605   113-4608   114-4721
                         114-4724   124-5116   124-5119   138-5603   141-5674   144-5777   144-5780   144-5783   146-5869
                         146-5871   161-6382   161-6384   165-6650   171-6952   186-7407   189-7535   205-7897   205-7900
                         210-8093   210-8096   210-8099   224-8614   224-8617   224-8620   224-8623   230-8857   230-8860
                         230-8863   230-8867   230-8953   238-9326   238-9329
TC.RST	= 000001	#22-873
TDC   	= 000650	#32-1312
TDCA  	= 000654	#32-1313
TDCE  	= 000652	#32-1314
TDCN  	= 000656	#32-1315
TDN   	= 000610	#32-1317
TDNA  	= 000614	#32-1318
TDNE  	= 000612	#32-1319
TDNN  	= 000616	#32-1320
TDO   	= 000670	#32-1322
TDOA  	= 000674	#32-1323
TDOE  	= 000672	#32-1324
TDON  	= 000676	#32-1325
TDZ   	= 000630	#32-1327
TDZA  	= 000634	#32-1328
TDZE  	= 000632	#32-1329
TDZN  	= 000636	#32-1330
TEMADR	  000762 R	 162-6445  #162-6447
TENAD1	= 174410	#185-7376  #235-9226
TENAD2	= 174412	#185-7376  #235-9226
TENMSG	= ******  GX	 194-7654
THUMSG	  003712 R	 225-8717  #226-8740
TLC   	= 000641	#32-1332
TLCA  	= 000645	#32-1333
TLCE  	= 000643	#32-1334
TLCN  	= 000647	#32-1335
TLN   	= 000601	#32-1337
TLNA  	= 000605	#32-1338
PATREE     CREATED BY  MACRO  ON 17-MAY-88 AT 14:39	PAGE 26

SYMBOL CROSS REFERENCE                                  CREF   04.00

SYMBOL	VALUE		REFERENCES

TLNE  	= 000603	#32-1339
TLNN  	= 000607	#32-1340
TLO   	= 000661	#32-1342
TLOA  	= 000665	#32-1343
TLOE  	= 000663	#32-1344
TLON  	= 000667	#32-1345
TLZ   	= 000621	#32-1347
TLZA  	= 000625	#32-1348
TLZE  	= 000623	#32-1349
TLZN  	= 000627	#32-1350
TOBM  	= 000004	#185-7376  #235-9226
TOIP  	= 000002	#185-7376  #235-9226
TOIT  	= 000001	#185-7376  #235-9226
TO10  	= 000200	#185-7376  #235-9226
TO10AD	= 174420	#185-7376  #235-9226
TO10BC	= 174414	#185-7376  #235-9226
TO10BM	= 000001	#185-7376  #235-9226
TO10DB	= 000400	#185-7376  #235-9226
TO10DN	= 100000	#185-7376  #235-9226
TO10DT	= 174424	#185-7376  #235-9226
TO10ER	= 020000	#185-7376  #235-9226
TO11  	= 000100	#185-7376  #235-9226
TO11AD	= 174422	#185-7376  #235-9226
TO11BC	= 174416	#185-7376  #235-9226
TO11BM	= 020000	#185-7376  #235-9226
TO11DB	= 004000	#185-7376  #235-9226
TO11DN	= 000200	#185-7376  #235-9226
TO11DT	= 174426	#185-7376  #235-9226
TO11ER	= 000002	#185-7376  #235-9226
TRC   	= 000640	#32-1352
TRCA  	= 000644	#32-1353
TRCE  	= 000642	#32-1354
TRCN  	= 000646	#32-1355
TRN   	= 000600	#33-1357
TRNA  	= 000604	#33-1358
TRNE  	= 000602	#33-1359
TRNN  	= 000606	#33-1360
TRO   	= 000660	#33-1362
TROA  	= 000664	#33-1363
TROE  	= 000662	#33-1364
TRON  	= 000666	#33-1365
TRZ   	= 000620	#33-1367
TRZA  	= 000624	#33-1368
TRZE  	= 000622	#33-1369
TRZN  	= 000626	#33-1370
TR.ALL	= 000077	#13-498
TR.DEP	= 000020	#13-496     13-498
TR.DTE	= 000040	#13-497     13-498
TR.EXM	= 000010	#13-495     13-498
TR.FRD	= 000002	#13-493     13-498
TR.FWR	= 000004	#13-494     13-498
TR.FXC	= 000001	#13-492     13-498
PATREE     CREATED BY  MACRO  ON 17-MAY-88 AT 14:39	PAGE 27

SYMBOL CROSS REFERENCE                                  CREF   04.00

SYMBOL	VALUE		REFERENCES

TSC   	= 000651	#33-1372
TSCA  	= 000655	#33-1373
TSCE  	= 000653	#33-1374
TSCN  	= 000657	#33-1375
TSN   	= 000611	#33-1377
TSNA  	= 000615	#33-1378
TSNE  	= 000613	#33-1379
TSNN  	= 000617	#33-1380
TSO   	= 000671	#33-1382
TSOA  	= 000675	#33-1383
TSOE  	= 000673	#33-1384
TSON  	= 000677	#33-1385
TSZ   	= 000631	#33-1387
TSZA  	= 000635	#33-1388
TSZE  	= 000633	#33-1389
TSZN  	= 000637	#33-1390
TTCALL	= 000051	#33-1392
TTYMSG	= ******  GX	 174-7040
TUEMSG	  003666 R	 225-8715  #226-8736
TYDMTB	  000572 R	 115-4766  #115-4782
TYLGMS	  013272 R	 170-6835   170-6835   170-6869   170-6869  #170-6878
TYPAD2	  004016 R	 81-3373   #84-3495
TYPDG1	  004240 R	 81-3380   #85-3573
TYPDG3	  004312 R	 81-3383   #86-3617
TYPDTE	  003612 R	 80-3297   #81-3322
TYPDX1	  003746 R	 81-3371   #83-3470
UGETF 	= 000073	#33-1394
UJEN  	= 000100	#33-1396
UNASG1	= 000032	#185-7376  #235-9226
UNASG2	= 000033	#185-7376  #235-9226
UNASG3	= 000034	#185-7376  #235-9226
UNASG4	= 000035	#185-7376  #235-9226
UNASG5	= 000036	#185-7376  #235-9226
UNASG6	= 000037	#185-7376  #235-9226
USETI 	= 000074	#33-1398
USETO 	= 000075	#33-1399
USRMSG	= ******  GX	 232-9134
VF.DSP	= 000060	#21-830
VF.FFD	= 000061	#21-831
VF.INT	= 000000	#21-828
VF.OVR	= 000053	#21-832
VF.PRM	= 000044	#21-833
VF.SSP	= 000040	#21-829
VMAMSG	= ******  GX	 94-3848
VMATB 	  000536 R	 110-4367  #111-4425
VMHTB 	  000544 R	 110-4371  #111-4429
WACMSG	  002402 R	 163-6461  #163-6483
WCMMSG	  002666 R	 190-7543  #190-7559
WCMSG0	  003367 R	 214-8258  #216-8327
WCMSG1	  003413 R	 214-8260  #216-8329
WCMSG2	  003427 R	 215-8287  #216-8331
WCMSG3	  003441 R	 215-8294  #216-8333
PATREE     CREATED BY  MACRO  ON 17-MAY-88 AT 14:39	PAGE 28

SYMBOL CROSS REFERENCE                                  CREF   04.00

SYMBOL	VALUE		REFERENCES

WEDMSG	  003677 R	 225-8716  #226-8738
WEP   	= 000010	#185-7376  #235-9226
WHDMS0	  003604 R	 225-8687  #226-8729
WHDMS1	  003632 R	 225-8700  #226-8731
WHHMS0	  003126 R	 205-7860  #205-7913
WHHMS1	  003142 R	 205-7866  #205-7915
WHHMS2	  003154 R	 205-7883  #205-7917
WHHMS3	  003164 R	 205-7906  #205-7919
WHHMS4	  003213 R	 205-7907  #205-7921
WHHMS5	  003240 R	 205-7908  #205-7923
WHHMS6	  003263 R	 205-7909  #205-7925
WHIMSG	  002706 R	 192-7594  #192-7616
WHKMRB	  004246 R	 232-9111  #233-9180
WHKMSA	  004237 R	 232-9104  #233-9178
WHKMSI	  004271 R	 232-9107  #233-9182
WHKMSK	  004302 R	 232-9132  #233-9184
WHKMS0	  004107 R	 232-9099  #233-9168
WHKMS1	  004120 R	 232-9101  #233-9170
WHKMS2	  004131 R	 232-9117  #233-9172
WHKMS3	  004157 R	 232-9124  #233-9174
WHKMS4	  004207 R	 232-9139  #233-9176
WHMMSG	  002746 R	 194-7652  #194-7664
WHOMSG	  002760 R	 196-7685  #196-7694
WHOTMS	  002644 R	 174-7035  #174-7064
WHRCRH	  015506 R	 205-7859  #205-7899
WHRECM	  003272 R	 207-7945  #207-7957
WHRMRH	  015500 R	 205-7858  #205-7896
WHRMSG	  002726 R	 192-7601  #192-7618
WHTMSG	  003042 R	 203-7795  #204-7821
WHWTAB	  001060 R	 205-7886  #205-7905
WPMSG0	  003456 R	 217-8348  #219-8406
WPMSG1	  003510 R	 217-8350  #219-8408
WPMSG2	  003536 R	 217-8358  #219-8410
WRLMSG	  003001 R	 199-7723  #200-7749
WRTMSG	  003022 R	 200-7734  #200-7751
WVMSG1	  003062 R	 204-7808  #204-7823
WVMSG2	  003104 R	 204-7812  #204-7825
XCT   	= 000256	#33-1401
XOR   	= 000430	#33-1403
XORB  	= 000433	#33-1404
XORI  	= 000431	#33-1405
XORM  	= 000432	#33-1406
XR    	= 000000	#76-3116    76-3116   #76-3117    76-3117   #139-5633   139-5633  #139-5635   139-5635  #139-5637
                         139-5637  #139-5639   139-5639  #141-5680   141-5680  #141-5682   141-5682  #153-6078   153-6078
                        #162-6453   162-6453
YESMSG	  003575 R	 220-8447  #221-8472
YONMSG	  003556 R	 220-8440  #221-8470
ZERDPB	  000132 R	*237-9296  *237-9297   238-9309  #238-9334
ZERESD	  021344 R	 238-9325  #238-9328
ZSTOP 	= 040000	#185-7376  #235-9226
$DIV  	= ******  GX	 116-4826   116-4826   116-4830   116-4830   223-8589   223-8589
$DSW  	= ******  GX	 144-5771   238-9324
PATREE     CREATED BY  MACRO  ON 17-MAY-88 AT 14:39	PAGE 29

SYMBOL CROSS REFERENCE                                  CREF   04.00

SYMBOL	VALUE		REFERENCES

$MUL  	= ******  GX	 114-4684   114-4684   114-4688   114-4688   114-4699   114-4699   114-4709   114-4709   148-5916
                         148-5916   223-8566   223-8566
$$    	= 000037	#34-1464    34-1464   #36-1513    36-1513   #36-1520    36-1520   #36-1522    36-1522   #36-1525
                         36-1525   #38-1583    38-1583   #38-1591    38-1591   #38-1594    38-1594   #38-1598    38-1598
                        #40-1672    40-1672   #42-1774    42-1774   #44-1876    44-1876   #45-1913    45-1913   #47-1947
                         47-1947   #47-1948    47-1948   #47-1952    47-1952   #47-1953    47-1953   #47-1957    47-1957
                        #47-1959    47-1959   #47-1963    47-1963   #47-1965    47-1965   #49-2054    49-2054   #49-2059
                         49-2059   #49-2073    49-2073   #50-2107    50-2107   #50-2109    50-2109   #50-2110    50-2110
                        #50-2116    50-2116   #50-2118    50-2118   #50-2121    50-2121   #50-2122    50-2122   #50-2123
                         50-2123   #50-2125    50-2125   #50-2126    50-2126   #50-2145    50-2145   #50-2147    50-2147
                        #51-2195    51-2195   #51-2196    51-2196   #51-2197    51-2197   #51-2204    51-2204   #51-2205
                         51-2205   #51-2208    51-2208   #52-2236    52-2236   #52-2237    52-2237   #52-2238    52-2238
                        #52-2239    52-2239   #56-2362    56-2362   #57-2436    57-2436   #57-2439    57-2439   #57-2443
                         57-2443   #57-2448    57-2448   #57-2449    57-2449   #58-2458    58-2458   #58-2467    58-2467
                        #58-2469    58-2469   #58-2470    58-2470   #58-2472    58-2472   #59-2492    59-2492   #59-2496
                         59-2496   #59-2500    59-2500   #59-2504    59-2504   #59-2514    59-2514   #60-2545    60-2545
                        #60-2548    60-2548   #60-2552    60-2552   #61-2560    61-2560   #61-2569    61-2569   #61-2571
                         61-2571   #61-2572    61-2572   #61-2574    61-2574   #61-2575    61-2575   #61-2591    61-2591
                        #61-2592    61-2592   #62-2624    62-2624   #62-2628    62-2628   #62-2632    62-2632   #62-2636
                         62-2636   #65-2698    65-2698   #65-2699    65-2699   #65-2704    65-2704   #65-2705    65-2705
                        #65-2709    65-2709   #65-2712    65-2712   #66-2748    66-2748   #66-2751    66-2751   #66-2756
                         66-2756   #66-2757    66-2757   #66-2760    66-2760   #67-2767    67-2767   #67-2789    67-2789
                        #67-2791    67-2791   #67-2792    67-2792   #67-2793    67-2793   #67-2795    67-2795   #67-2796
                         67-2796   #68-2804    68-2804   #68-2809    68-2809   #68-2812    68-2812   #68-2814    68-2814
                        #68-2815    68-2815   #68-2816    68-2816   #69-2841    69-2841   #69-2845    69-2845   #69-2849
                         69-2849   #69-2853    69-2853   #69-2864    69-2864   #70-2896    70-2896   #70-2899    70-2899
                        #70-2904    70-2904   #71-2911    71-2911   #71-2928    71-2928   #71-2930    71-2930   #71-2931
                         71-2931   #71-2932    71-2932   #71-2934    71-2934   #71-2935    71-2935   #71-2940    71-2940
                        #71-2943    71-2943   #71-2953    71-2953   #71-2954    71-2954   #71-2960    71-2960   #71-2964
                         71-2964   #72-2999    72-2999   #72-3003    72-3003   #72-3007    72-3007   #72-3011    72-3011
                        #73-3053    73-3053   #73-3055    73-3055   #76-3127    76-3127   #76-3132    76-3132   #76-3141
                         76-3141   #76-3146    76-3146   #76-3148    76-3148   #76-3154    76-3154   #78-3221    78-3221
                        #78-3222    78-3222   #80-3296    80-3296   #81-3336    81-3336   #81-3338    81-3338   #81-3339
                         81-3339   #82-3420    82-3420   #83-3472    83-3472   #83-3475    83-3475   #83-3481    83-3481
                        #84-3497    84-3497   #84-3508    84-3508   #84-3510    84-3510   #84-3516    84-3516   #84-3518
                         84-3518   #84-3523    84-3523   #84-3527    84-3527   #84-3529    84-3529   #84-3535    84-3535
                        #85-3585    85-3585   #86-3622    86-3622   #91-3734    91-3734   #91-3740    91-3740   #91-3741
                         91-3741   #91-3742    91-3742   #91-3744    91-3744   #91-3745    91-3745   #91-3746    91-3746
                        #91-3748    91-3748   #92-3777    92-3777   #92-3778    92-3778   #92-3779    92-3779   #92-3780
                         92-3780   #92-3784    92-3784   #92-3791    92-3791   #92-3798    92-3798   #94-3843    94-3843
                        #94-3845    94-3845   #94-3847    94-3847   #94-3849    94-3849   #94-3850    94-3850   #94-3851
                         94-3851   #96-3890    96-3890   #96-3892    96-3892   #96-3893    96-3893   #96-3895    96-3895
                        #96-3897    96-3897   #96-3898    96-3898   #96-3899    96-3899   #96-3901    96-3901   #98-3930
                         98-3930   #98-3932    98-3932   #98-3933    98-3933   #98-3934    98-3934   #98-3937    98-3937
                        #99-3949    99-3949   #99-3951    99-3951   #99-3954    99-3954   #99-3956    99-3956   #99-3959
                         99-3959   #99-3961    99-3961   #99-3964    99-3964   #100-3982   100-3982  #100-3983   100-3983
                        #100-3989   100-3989  #104-4112   104-4112  #104-4114   104-4114  #104-4119   104-4119  #104-4121
                         104-4121  #104-4126   104-4126  #106-4174   106-4174  #106-4176   106-4176  #108-4261   108-4261
                        #108-4263   108-4263  #108-4268   108-4268  #108-4270   108-4270  #110-4373   110-4373  #110-4381
                         110-4381  #111-4391   111-4391  #111-4396   111-4396  #112-4512   112-4512  #112-4513   112-4513
                        #112-4515   112-4515  #112-4534   112-4534  #112-4537   112-4537  #112-4540   112-4540  #112-4546
                         112-4546  #112-4547   112-4547  #112-4549   112-4549  #112-4556   112-4556  #114-4654   114-4654
PATREE     CREATED BY  MACRO  ON 17-MAY-88 AT 14:39	PAGE 30

SYMBOL CROSS REFERENCE                                  CREF   04.00

SYMBOL	VALUE		REFERENCES

                        #114-4657   114-4657  #114-4659   114-4659  #114-4662   114-4662  #114-4668   114-4668  #114-4671
                         114-4671  #114-4676   114-4676  #114-4684   114-4684  #114-4688   114-4688  #114-4699   114-4699
                        #114-4702   114-4702  #114-4703   114-4703  #114-4709   114-4709  #115-4762   115-4762  #115-4763
                         115-4763  #115-4767   115-4767  #115-4768   115-4768  #115-4772   115-4772  #115-4775   115-4775
                        #116-4826   116-4826  #116-4830   116-4830  #116-4835   116-4835  #116-4838   116-4838  #116-4839
                         116-4839  #116-4843   116-4843  #116-4846   116-4846  #118-4906   118-4906  #118-4907   118-4907
                        #120-4970   120-4970  #123-5058   123-5058  #123-5063   123-5063  #123-5071   123-5071  #123-5076
                         123-5076  #126-5182   126-5182  #126-5183   126-5183  #130-5301   130-5301  #130-5307   130-5307
                        #130-5313   130-5313  #130-5333   130-5333  #130-5341   130-5341  #131-5394   131-5394  #134-5479
                         134-5479  #134-5480   134-5480  #134-5482   134-5482  #134-5494   134-5494  #137-5565   137-5565
                        #137-5567   137-5567  #137-5571   137-5571  #137-5575   137-5575  #137-5576   137-5576  #138-5586
                         138-5586  #138-5587   138-5587  #138-5588   138-5588  #138-5589   138-5589  #138-5590   138-5590
                        #138-5598   138-5598  #138-5599   138-5599  #140-5649   140-5649  #140-5662   140-5662  #140-5665
                         140-5665  #140-5667   140-5667  #143-5754   143-5754  #143-5755   143-5755  #143-5758   143-5758
                        #143-5759   143-5759  #146-5844   146-5844  #146-5845   146-5845  #146-5848   146-5848  #146-5850
                         146-5850  #146-5857   146-5857  #146-5860   146-5860  #148-5916   148-5916  #149-5950   149-5950
                        #152-6012   152-6012  #152-6013   152-6013  #152-6014   152-6014  #153-6062   153-6062  #153-6065
                         153-6065  #154-6105   154-6105  #154-6106   154-6106  #154-6107   154-6107  #155-6131   155-6131
                        #155-6133   155-6133  #156-6160   156-6160  #156-6167   156-6167  #158-6216   158-6216  #158-6218
                         158-6218  #158-6223   158-6223  #158-6225   158-6225  #158-6230   158-6230  #159-6264   159-6264
                        #159-6272   159-6272  #159-6277   159-6277  #159-6282   159-6282  #161-6373   161-6373  #161-6374
                         161-6374  #161-6377   161-6377  #162-6433   162-6433  #162-6436   162-6436  #162-6440   162-6440
                        #163-6462   163-6462  #163-6464   163-6464  #163-6475   163-6475  #163-6477   163-6477  #164-6514
                         164-6514  #164-6518   164-6518  #164-6523   164-6523  #164-6526   164-6526  #164-6527   164-6527
                        #164-6528   164-6528  #164-6532   164-6532  #164-6536   164-6536  #164-6541   164-6541  #164-6552
                         164-6552  #164-6558   164-6558  #165-6624   165-6624  #165-6630   165-6630  #165-6632   165-6632
                        #165-6635   165-6635  #165-6640   165-6640  #165-6641   165-6641  #165-6642   165-6642  #165-6645
                         165-6645  #166-6704   166-6704  #166-6705   166-6705  #166-6707   166-6707  #169-6787   169-6787
                        #169-6788   169-6788  #169-6790   169-6790  #169-6792   169-6792  #169-6794   169-6794  #169-6795
                         169-6795  #169-6796   169-6796  #170-6834   170-6834  #170-6835   170-6835  #170-6836   170-6836
                        #170-6837   170-6837  #170-6838   170-6838  #170-6842   170-6842  #170-6852   170-6852  #170-6854
                         170-6854  #170-6855   170-6855  #170-6859   170-6859  #170-6868   170-6868  #170-6869   170-6869
                        #170-6871   170-6871  #170-6873   170-6873  #170-6874   170-6874  #170-6875   170-6875  #170-6890
                         170-6890  #170-6892   170-6892  #174-7036   174-7036  #174-7041   174-7041  #174-7047   174-7047
                        #174-7049   174-7049  #174-7055   174-7055  #174-7057   174-7057  #178-7152   178-7152  #178-7159
                         178-7159  #178-7164   178-7164  #179-7196   179-7196  #179-7197   179-7197  #179-7198   179-7198
                        #180-7205   180-7205  #182-7266   182-7266  #182-7279   182-7279  #182-7281   182-7281  #184-7342
                         184-7342  #184-7345   184-7345  #186-7381   186-7381  #186-7385   186-7385  #186-7391   186-7391
                        #186-7392   186-7392  #186-7394   186-7394  #186-7397   186-7397  #186-7400   186-7400  #187-7434
                         187-7434  #187-7439   187-7439  #187-7440   187-7440  #187-7444   187-7444  #189-7504   189-7504
                        #189-7506   189-7506  #189-7507   189-7507  #189-7511   189-7511  #190-7544   190-7544  #191-7573
                         191-7573  #191-7574   191-7574  #191-7582   191-7582  #191-7584   191-7584  #192-7604   192-7604
                        #192-7607   192-7607  #193-7629   193-7629  #193-7631   193-7631  #193-7632   193-7632  #193-7639
                         193-7639  #194-7653   194-7653  #195-7675   195-7675  #195-7677   195-7677  #196-7686   196-7686
                        #196-7688   196-7688  #197-7701   197-7701  #198-7709   198-7709  #199-7724   199-7724  #200-7735
                         200-7735  #201-7766   201-7766  #201-7768   201-7768  #201-7772   201-7772  #202-7780   202-7780
                        #203-7796   203-7796  #204-7809   204-7809  #204-7811   204-7811  #204-7813   204-7813  #205-7861
                         205-7861  #205-7865   205-7865  #205-7867   205-7867  #205-7873   205-7873  #205-7874   205-7874
                        #205-7875   205-7875  #205-7881   205-7881  #205-7884   205-7884  #205-7891   205-7891  #206-7935
                         206-7935  #207-7943   207-7943  #207-7946   207-7946  #208-8025   208-8025  #208-8030   208-8030
                        #208-8032   208-8032  #208-8033   208-8033  #208-8037   208-8037  #209-8047   209-8047  #209-8049
                         209-8049  #209-8050   209-8050  #209-8064   209-8064  #209-8065   209-8065  #209-8067   209-8067
PATREE     CREATED BY  MACRO  ON 17-MAY-88 AT 14:39	PAGE 31

SYMBOL CROSS REFERENCE                                  CREF   04.00

SYMBOL	VALUE		REFERENCES

                        #209-8074   209-8074  #210-8083   210-8083  #210-8084   210-8084  #210-8085   210-8085  #211-8145
                         211-8145  #211-8146   211-8146  #214-8253   214-8253  #214-8254   214-8254  #214-8255   214-8255
                        #214-8259   214-8259  #214-8261   214-8261  #214-8268   214-8268  #214-8275   214-8275  #214-8276
                         214-8276  #214-8277   214-8277  #214-8280   214-8280  #215-8288   215-8288  #215-8293   215-8293
                        #215-8295   215-8295  #217-8343   217-8343  #217-8344   217-8344  #217-8345   217-8345  #217-8349
                         217-8349  #217-8351   217-8351  #217-8357   217-8357  #217-8359   217-8359  #217-8363   217-8363
                        #218-8378   218-8378  #218-8379   218-8379  #218-8380   218-8380  #220-8441   220-8441  #220-8442
                         220-8442  #220-8444   220-8444  #220-8448   220-8448  #220-8452   220-8452  #220-8454   220-8454
                        #223-8551   223-8551  #223-8555   223-8555  #223-8559   223-8559  #223-8566   223-8566  #223-8589
                         223-8589  #225-8676   225-8676  #225-8688   225-8688  #225-8692   225-8692  #225-8693   225-8693
                        #225-8695   225-8695  #225-8696   225-8696  #225-8698   225-8698  #225-8699   225-8699  #225-8701
                         225-8701  #230-8822   230-8822  #230-8832   230-8832  #230-8835   230-8835  #230-8837   230-8837
                        #230-8841   230-8841  #230-8843   230-8843  #230-8884   230-8884  #230-8888   230-8888  #230-8890
                         230-8890  #230-8893   230-8893  #230-8898   230-8898  #230-8902   230-8902  #230-8934   230-8934
                        #230-8937   230-8937  #230-8959   230-8959  #230-8962   230-8962  #230-8963   230-8963  #230-8965
                         230-8965  #230-8967   230-8967  #230-9018   230-9018  #230-9037   230-9037  #232-9098   232-9098
                        #232-9100   232-9100  #232-9112   232-9112  #232-9116   232-9116  #232-9118   232-9118  #232-9120
                         232-9120  #232-9122   232-9122  #232-9123   232-9123  #232-9125   232-9125  #232-9127   232-9127
                        #232-9129   232-9129  #232-9130   232-9130  #232-9133   232-9133  #232-9138   232-9138  #232-9140
                         232-9140  #232-9151   232-9151  #236-9251   236-9251  #236-9256   236-9256  #237-9274   237-9274
                        #237-9276   237-9276  #237-9278   237-9278  #237-9281   237-9281  #237-9285   237-9285  #238-9312
                         238-9312  #238-9314   238-9314  #238-9316   238-9316  #244-9411   244-9411  #244-9414   244-9414
                        #244-9416   244-9416  #244-9423   244-9423  #244-9426   244-9426
$$A   	= 000100	#76-3116    76-3116   #76-3117    76-3117   #139-5633   139-5633  #139-5635   139-5635  #139-5637
                         139-5637  #139-5639   139-5639  #141-5680   141-5680  #141-5682   141-5682  #153-6078   153-6078
                        #162-6453   162-6453
$$B   	= 000000	#76-3116    76-3116   #76-3117    76-3117   #139-5633   139-5633  #139-5635   139-5635  #139-5637
                         139-5637  #139-5639   139-5639  #141-5680   141-5680  #141-5682   141-5682  #153-6078   153-6078
                        #162-6453   162-6453
$$C   	= 000200	#76-3116    76-3116   #76-3117    76-3117   #139-5633   139-5633  #139-5635   139-5635  #139-5637
                         139-5637  #139-5639   139-5639  #141-5680   141-5680  #141-5682   141-5682  #153-6078   153-6078
                        #162-6453   162-6453
$$D   	= 000011	#76-3116    76-3116   #76-3117    76-3117   #139-5633   139-5633  #139-5635   139-5635  #139-5637
                         139-5637  #139-5639   139-5639  #141-5680   141-5680  #141-5682   141-5682  #153-6078   153-6078
                        #162-6453   162-6453
$$E   	= 000016	#76-3116    76-3116   #76-3117    76-3117   #139-5633   139-5633  #139-5635   139-5635  #139-5637
                         139-5637  #139-5639   139-5639  #141-5680   141-5680  #141-5682   141-5682  #153-6078   153-6078
                        #162-6453   162-6453
$$F   	= 000000	#76-3116    76-3116   #76-3117    76-3117   #139-5633   139-5633  #139-5635   139-5635  #139-5637
                         139-5637  #139-5639   139-5639  #141-5680   141-5680  #141-5682   141-5682  #153-6078   153-6078
                        #162-6453   162-6453
$$$ARG	= 000006	#127-5198   127-5198  #127-5198   127-5198  #127-5198   127-5198  #127-5207   127-5207  #127-5207
                         127-5207  #127-5207   127-5207  #127-5213   127-5213  #127-5213   127-5213  #127-5213   127-5213
                        #175-7085   175-7085  #175-7088   175-7088
$$$GLB	= ******	 56-2373    56-2373    56-2373    56-2373    56-2373    56-2373    112-4502   112-4502   112-4502
                         112-4502   112-4502   112-4502   112-4502   112-4502   127-5198   127-5198   127-5198   127-5198
                         127-5207   127-5207   127-5207   127-5207   127-5213   127-5213   127-5213   127-5213   145-5807
                         145-5807   145-5807   145-5807   145-5807   145-5807   170-6880   170-6880   170-6880   170-6880
                         170-6880   170-6880   170-6880   170-6880   175-7085   175-7085   175-7085   175-7085   175-7085
                         175-7085   175-7085   175-7085   175-7088   175-7088   175-7088   175-7088   175-7088   175-7088
                         175-7088   175-7088   225-8678   225-8678   225-8678   225-8678   225-8678   225-8678   225-8678
                         225-8678   232-9162   232-9162   232-9162   232-9162   232-9162   232-9162
PATREE     CREATED BY  MACRO  ON 17-MAY-88 AT 14:39	PAGE 32

SYMBOL CROSS REFERENCE                                  CREF   04.00

SYMBOL	VALUE		REFERENCES

$$$OST	= 000016	#56-2373    56-2373    56-2373   #56-2373    56-2373    56-2373   #56-2373    56-2373    56-2373
                        #56-2373    56-2373    56-2373   #56-2373    56-2373    56-2373   #56-2373   #112-4502   112-4502
                         112-4502  #112-4502   112-4502   112-4502  #112-4502   112-4502   112-4502  #112-4502   112-4502
                         112-4502  #112-4502   112-4502   112-4502  #112-4502   112-4502   112-4502  #112-4502   112-4502
                         112-4502  #112-4502   112-4502   112-4502  #112-4502  #127-5198   127-5198   127-5198  #127-5198
                         127-5198   127-5198  #127-5198   127-5198   127-5198  #127-5198  #127-5207   127-5207   127-5207
                        #127-5207   127-5207   127-5207  #127-5207   127-5207   127-5207  #127-5207  #127-5213   127-5213
                         127-5213  #127-5213   127-5213   127-5213  #127-5213   127-5213   127-5213  #127-5213  #145-5807
                         145-5807   145-5807  #145-5807   145-5807   145-5807  #145-5807   145-5807   145-5807  #145-5807
                         145-5807   145-5807  #145-5807   145-5807   145-5807  #145-5807  #170-6880   170-6880   170-6880
                        #170-6880   170-6880   170-6880  #170-6880   170-6880   170-6880  #170-6880   170-6880   170-6880
                        #170-6880   170-6880   170-6880  #170-6880   170-6880   170-6880  #170-6880   170-6880   170-6880
                        #170-6880   170-6880   170-6880  #170-6880  #175-7085   175-7085   175-7085  #175-7085   175-7085
                         175-7085  #175-7085   175-7085   175-7085  #175-7085   175-7085   175-7085  #175-7085   175-7085
                         175-7085  #175-7085   175-7085   175-7085  #175-7085   175-7085  #175-7088   175-7088   175-7088
                        #175-7088   175-7088   175-7088  #175-7088   175-7088   175-7088  #175-7088   175-7088   175-7088
                        #175-7088   175-7088   175-7088  #175-7088   175-7088   175-7088  #175-7088   175-7088  #225-8678
                         225-8678   225-8678  #225-8678   225-8678   225-8678  #225-8678   225-8678   225-8678  #225-8678
                         225-8678   225-8678  #225-8678   225-8678   225-8678  #225-8678   225-8678   225-8678  #225-8678
                         225-8678   225-8678  #225-8678   225-8678   225-8678  #225-8678  #232-9162   232-9162   232-9162
                        #232-9162   232-9162   232-9162  #232-9162   232-9162   232-9162  #232-9162   232-9162   232-9162
                        #232-9162   232-9162   232-9162  #232-9162
$$$T1 	= 000000	#56-2373    56-2373    56-2373    56-2373   #56-2373    56-2373   #127-5198   127-5198   127-5198
                        #127-5198   127-5198   127-5198  #127-5198   127-5198   127-5198  #127-5207   127-5207   127-5207
                        #127-5207   127-5207   127-5207  #127-5207   127-5207   127-5207  #127-5213   127-5213   127-5213
                        #127-5213   127-5213   127-5213  #127-5213   127-5213   127-5213  #145-5807   145-5807   145-5807
                         145-5807  #145-5807   145-5807  #232-9162   232-9162   232-9162   232-9162  #232-9162   232-9162
.ABORT	  000004 RG	#36-1509    186-7397   186-7397
.ABRTC	  000000 RG	#34-1463
.ABRT0	  000032 RG	 36-1511   #36-1518
.ACBLK	= ******  GX	 153-6055   155-6135
.APRWD	= ******  GX	*73-3057    195-7672
.ASCID	  000016 RG	 125-5167  #127-5194
.ASCOD	  000026 RG	 125-5165  #127-5203
.ASLST	  000036 RG	 125-5169  #127-5212
.ATLMD	= 000033	#21-839
.ATLST	  000064 R	 171-6946  #175-7084
.BRCLK	= 005000	#185-7376  #235-9226
.BUFSZ	= ******  GX	 170-6860
.CECLK	= 004000	#185-7376  #235-9226
.CESCK	= ******  GX	 123-5063   123-5063
.CHTAB	= ******  GX	 112-4544   114-4660   137-5563   164-6530   169-6783   187-7437   189-7502   209-8052
.CIBFR	= ******  GX	 112-4509   114-4655   130-5317   130-5327   220-8443   230-8833   230-8842   230-8960
.CISTS	= ******  GX	*130-5328  *130-5334
.CKARG	= ******  GX	 40-1672    40-1672    42-1774    42-1774    57-2436    57-2436    60-2545    60-2545    66-2748
                         66-2748    70-2896    70-2896    112-4515   112-4515   112-4537   112-4537   112-4547   112-4547
                         114-4662   114-4662   137-5565   137-5565   161-6373   161-6373   184-7342   184-7342   208-8025
                         208-8025   208-8037   208-8037
.CKCOL	= ******  GX	 51-2196    51-2196    57-2448    57-2448    65-2699    65-2699    66-2757    66-2757    244-9414
                         244-9414
.CKCTC	= ******  GX	 238-9316   238-9316
.CKEOC	= ******  GX	 34-1464    34-1464    38-1583    38-1583    56-2362    56-2362    58-2458    58-2458    61-2560
PATREE     CREATED BY  MACRO  ON 17-MAY-88 AT 14:39	PAGE 33

SYMBOL CROSS REFERENCE                                  CREF   04.00

SYMBOL	VALUE		REFERENCES

                         61-2560    61-2592    61-2592    65-2705    65-2705    67-2767    67-2767    71-2911    71-2911
                         71-2954    71-2954    78-3222    78-3222    80-3296    80-3296    91-3734    91-3734    92-3777
                         92-3777    94-3843    94-3843    96-3890    96-3890    98-3930    98-3930    100-3982   100-3982
                         112-4556   112-4556   114-4671   114-4671   118-4906   118-4906   120-4970   120-4970   131-5394
                         131-5394   137-5571   137-5571   143-5759   143-5759   146-5850   146-5850   149-5950   149-5950
                         152-6014   152-6014   154-6107   154-6107   169-6795   169-6795   179-7198   179-7198   182-7266
                         182-7266   186-7394   186-7394   187-7440   187-7440   189-7507   189-7507   189-7511   189-7511
                         191-7574   191-7574   191-7582   191-7582   193-7632   193-7632   193-7639   193-7639   195-7677
                         195-7677   197-7701   197-7701   198-7709   198-7709   201-7768   201-7768   202-7780   202-7780
                         206-7935   206-7935   207-7943   207-7943   208-8030   208-8030   223-8551   223-8551   225-8676
                         225-8676   230-8822   230-8822   230-8967   230-8967   232-9098   232-9098   237-9276   237-9276
.CKEOS	= ******  GX	 50-2109    50-2109    50-2147    50-2147    51-2205    51-2205    52-2237    52-2237
.CKOBJ	= ******  GX	 152-6012   152-6012   154-6105   154-6105   169-6792   169-6792   178-7152   178-7152   178-7159
                         178-7159   179-7196   179-7196   180-7205   180-7205   189-7504   189-7504   193-7629   193-7629
                         230-8963   230-8963
.CKRNP	= ******  GX	 137-5575   137-5575   186-7385   186-7385
.CKRUN	= ******  GX	 49-2054    49-2054    65-2698    65-2698    134-5479   134-5479   138-5598   138-5598   161-6377
                         161-6377   187-7434   187-7434   210-8083   210-8083   236-9251   236-9251
.CKSYM	= ******  GX	 114-4659   114-4659   143-5754   143-5754   146-5844   146-5844
.CLKWD	= ******  GX	 210-8107   214-8257
.CLOSE	= ******  GX	 170-6842   170-6842
.CLRCM	  013626 RG	#178-7151
.CLRMR	= 006000	#185-7376  #235-9226
.CLRUN	= 010000	#185-7376  #235-9226
.COMEF	= ******  GX	*36-1521   *186-7403   223-8542   230-9009
.COMMA	= 000054	#21-837     209-8054
.CONBT	= 012000	#185-7376  #235-9226
.CONTC	  000062 RG	#38-1582
.CPUSN	= ******  GX	 205-7857   205-7862
.CSHRG	= 164000	#185-7376  #235-9226
.DATE3	= ******  GX	*223-8546   223-8549  *223-8604   225-8703
.DAY  	= ******  GX	*223-8603
.DEPAR	  002154 RG	#65-2697
.DFBLK	= ******  GX	 121-5007
.DFCOM	  000546 RG	#49-2053    50-2107    50-2107    50-2145    50-2145    51-2195    51-2195    52-2236    52-2236
.DFRED	  000664 RG	#50-2105    50-2139
.DFWRT	  001130 RG	#51-2193
.DFXCT	  001216 RG	#52-2234    52-2243
.DIAG1	= 000000	#10-354
.DIAG2	= 000002	#10-355
.DIAG3	= 000006	#10-357
.DISCC	  001346 RG	#56-2361
.DOW  	= ******  GX	*223-8595   225-8689
.DPBFR	= ******  GX	 67-2776    68-2810
.DPBFX	= ******  GX	 66-2759    69-2858    69-2863
.DPETB	= ******  GX	 57-2438    66-2750
.DPEWD	  001562 RG	 41-1697   #59-2491
.DPEWI	  001570 RG	 41-1709   #59-2495
.DPEWN	  001576 RG	 41-1721   #59-2499
.DPEWP	  001604 RG	 41-1733   #59-2503
.DPEWT	  001554 RG	 41-1745   #59-2487
.DPKLD	  002572 RG	 41-1696   #69-2840
PATREE     CREATED BY  MACRO  ON 17-MAY-88 AT 14:39	PAGE 34

SYMBOL CROSS REFERENCE                                  CREF   04.00

SYMBOL	VALUE		REFERENCES

.DPKLI	  002600 RG	 41-1708   #69-2844
.DPKLM	= ******  GX	 68-2804    68-2804    140-5662   140-5662   153-6062   153-6062   162-6433   162-6433   165-6645
                         165-6645   182-7279   182-7279   244-9423   244-9423
.DPKLN	  002606 RG	 41-1720   #69-2848
.DPKLP	  002614 RG	 41-1732   #69-2852
.DPKLT	  002564 RG	 41-1744   #69-2836
.DPOBJ	  000270 RG	 40-1673   #44-1874
.DPOEL	  000320 RG	#44-1886
.DPOKL	  000312 RG	#44-1882
.DPOSA	  000176 RG	#40-1674
.DPOSC	  000164 RG	#40-1670
.DPOSD	  000202 RG	#41-1689
.DPOSE	  001372 RG	 40-1682    44-1888   #57-2435
.DPOSI	  000206 RG	#41-1701
.DPOSN	  000212 RG	#41-1713
.DPOSP	  000216 RG	#41-1725
.DPOST	  002244 RG	 40-1681    44-1884   #66-2747
.DPOSZ	  000222 RG	#41-1737
.DPOTB	= ******  GX	 44-1875
.DPSEE	  001444 RG	#58-2457    59-2509    59-2517
.DPSTE	  002314 RG	#67-2766    69-2859    69-2865
.DRLTC	= 015000	#185-7376  #235-9226
.DSACF	= 066000	#185-7376  #235-9226
.DSIOJ	= 065000	#185-7376  #235-9226
.DTBUF	  000552 RG	 112-4501   112-4581  #113-4613
.DTDW1	= ******  GX	 123-5076   123-5076   165-6632   165-6632
.DTLST	  000100 R	 171-6939  #175-7087
.DTSTA	= ******  GX	 123-5058   123-5058
.DTSTW	= 000004	#10-356
.EDELA	= ******  GX	 46-1933    46-1938   *58-2463    59-2488   *61-2564    62-2620
.EDEWD	  000374 RG	#46-1931    59-2492    59-2492    62-2624    62-2624
.EDEWI	  000406 RG	#46-1936    59-2496    59-2496    62-2628    62-2628
.EDEWN	  000406 RG	#46-1937    59-2500    59-2500    62-2632    62-2632
.EDEWP	  000374 RG	#46-1932    59-2504    59-2504    62-2636    62-2636
.EDKLA	= ******  GX	 47-1975    67-2770    71-2920    72-2995
.EDKLC	  000516 RG	 47-1947    47-1947    47-1952    47-1952    47-1957    47-1957    47-1963    47-1963   #47-1973
.EDKLD	  000444 RG	#47-1956    69-2841    69-2841    72-2999    72-2999
.EDKLI	  000462 RG	#47-1962    69-2845    69-2845    72-3003    72-3003
.EDKLN	  000432 RG	#47-1951    69-2849    69-2849    72-3007    72-3007
.EDKLP	  000420 RG	#47-1946    69-2853    69-2853    72-3011    72-3011
.EDKLX	= ******  GX	 47-1974    66-2755    69-2837    70-2903   *76-3134   *76-3135   *76-3136    76-3138    76-3150
                        *123-5067  *123-5068   124-5125   244-9415   244-9418
.EIOJA	= 067000	#185-7376  #235-9226
.ELDDW	= ******  GX	*58-2464    59-2508
.ELEDW	= ******  GX	*61-2568
.ENTER	= ******  GX	 170-6854   170-6854
.ERRCD	= ******  GX	 130-5297  *130-5304  *130-5310  *130-5316   130-5320   156-6161  *156-6162  *156-6163  *156-6164
                         156-6165  *156-6168
.ERRPC	= ******  GX	 156-6169
.EXAD 	  004340 RG	#89-3673
.EXADX	  004346 RG	#89-3677
.EXAMA	  000240 RG	#42-1777
PATREE     CREATED BY  MACRO  ON 17-MAY-88 AT 14:39	PAGE 35

SYMBOL CROSS REFERENCE                                  CREF   04.00

SYMBOL	VALUE		REFERENCES

.EXAMC	  000226 RG	#42-1772
.EXAMD	  000244 RG	#43-1792
.EXAME	  001642 RG	 42-1785    45-1922   #60-2544    61-2587
.EXAMF	  004544 RG	#92-3776    94-3851    94-3851
.EXAMI	  000250 RG	#43-1804
.EXAMK	  004650 RG	#94-3842
.EXAMN	  000254 RG	#43-1816
.EXAMP	  000260 RG	#43-1828
.EXAMT	  002652 RG	 42-1784    45-1926   #70-2895    71-2949
.EXAMZ	  000264 RG	#43-1840
.EXARR	  004354 RG	#89-3681
.EXARX	  004362 RG	#89-3685
.EXBFR	= ******  GX	 67-2785    68-2807    68-2811    71-2919    76-3137    76-3144    76-3149    124-5126
.EXBRR	  004370 RG	#89-3689
.EXBRX	  004376 RG	#89-3693
.EXCRA	  004724 RG	#95-3860
.EXCRL	  004732 RG	#95-3864
.EXCTC	  003526 RG	#78-3216
.EXCTF	= ******  GX	 76-3132    76-3132    139-5625   140-5665   140-5665   140-5667   140-5667   153-6065   153-6065
                         162-6436   162-6436
.EXDRA	  004740 RG	#95-3868
.EXDTE	  003602 RG	#80-3295
.EXEBR	  003336 RG	#76-3122
.EXEBS	  004404 RG	#89-3697
.EXECT	= ******  GX	 78-3229
.EXETB	= ******  GX	 60-2547    70-2898
.EXEWD	  002124 RG	 43-1800   #62-2623
.EXEWI	  002132 RG	 43-1812   #62-2627
.EXEWN	  002140 RG	 43-1824   #62-2631
.EXEWP	  002146 RG	 43-1836   #62-2635
.EXEWT	  002116 RG	 43-1848   #62-2619
.EXFER	  004746 RG	#95-3872
.EXFMR	  004412 RG	#89-3701
.EXITP	= ******  GX	 38-1604    56-2367    124-5113   126-5187   130-5342   143-5763   149-5951   182-7282   186-7382
                         189-7532   232-9153
.EXKLD	  003244 RG	 43-1799   #72-2998
.EXKLI	  003252 RG	 43-1811   #72-3002
.EXKLM	= ******  GX	 67-2789    67-2789    68-2809    68-2809    71-2928    71-2928    76-3141    76-3141    123-5071
                         123-5071   165-6630   165-6630   244-9426   244-9426
.EXKLN	  003260 RG	 43-1823   #72-3006
.EXKLP	  003266 RG	 43-1835   #72-3010
.EXKLT	  003236 RG	 43-1847   #72-2994
.EXMEE	  001670 RG	#61-2558    62-2621    62-2625    62-2629    62-2633    62-2637
.EXMEL	  000356 RG	#45-1920
.EXMKL	  000366 RG	#45-1924
.EXMPI	  005040 RG	 94-3850    94-3850   #98-3929
.EXMQR	  004420 RG	#89-3705
.EXMTB	= ******  GX	 45-1912    100-3984
.EXMTE	  002704 RG	#71-2910    72-2996    72-3000    72-3004    72-3008    72-3012    76-3154    76-3154
.EXOBJ	  000330 RG	 42-1775   #45-1911
.EXREG	  005212 RG	#100-3981
.EXSBR	  004754 RG	#95-3876
PATREE     CREATED BY  MACRO  ON 17-MAY-88 AT 14:39	PAGE 36

SYMBOL CROSS REFERENCE                                  CREF   04.00

SYMBOL	VALUE		REFERENCES

.EXSCR	  004762 RG	#95-3880
.EXUBR	  003344 RG	#76-3124
.EXVAB	  004426 RG	#90-3712
.EXVMA	  004434 RG	#90-3716    94-3849    94-3849
.EXVMH	  004442 RG	#90-3720
.EXVPC	  004450 RG	#90-3724    94-3847    94-3847
.FEMOD	= ******  GX	 186-7395  *189-7528   190-7545
.FREAD	= ******  GX	 50-2116    50-2116    73-3053    73-3053    102-4063   104-4112   104-4112   104-4119   104-4119
                         104-4126   104-4126   106-4174   106-4174   108-4261   108-4261   108-4268   108-4268   111-4391
                         111-4391   130-5301   130-5301   130-5307   130-5307   130-5313   130-5313   155-6131   155-6131
                         158-6216   158-6216   158-6223   158-6223   158-6230   158-6230   159-6277   159-6277
.FWRIT	= ******  GX	 51-2208    51-2208
.FXCT 	= ******  GX	 38-1594    38-1594    52-2239    52-2239
.GFNR 	= 102000	#185-7376  #235-9226
.GTDAT	  006026 RG	#112-4497   223-8555   223-8555   230-8888   230-8888   230-8902   230-8902
.GTELN	= ******  GX	 57-2443    57-2443    57-2449    57-2449    59-2514    59-2514    60-2552    60-2552    61-2591
                         61-2591    134-5480   134-5480   161-6374   161-6374   164-6532   164-6532   187-7439   187-7439
                         195-7675   195-7675   244-9411   244-9411
.GTKLA	= ******  GX	 66-2756    66-2756    70-2904    70-2904    71-2953    71-2953    76-3127    76-3127    186-7391
                         186-7391   236-9256   236-9256   237-9274   237-9274   244-9416   244-9416
.GTKLN	= ******  GX	 49-2059    49-2059    51-2204    51-2204    66-2760    66-2760    69-2864    69-2864    78-3221
                         78-3221    201-7766   201-7766
.GTLIN	= ******  GX	 112-4513   112-4513   114-4657   114-4657   220-8444   220-8444   230-8835   230-8835   230-8843
                         230-8843   230-8962   230-8962
.GTNBR	= ******  GX	 112-4534   112-4534   112-4549   112-4549   114-4668   114-4668   114-4703   114-4703
.GTNUM	= ******  GX	 65-2704    65-2704    191-7573   191-7573
.GTR50	  011174 RG	 143-5755   143-5755   143-5758   143-5758   146-5845   146-5845   146-5848   146-5848  #148-5896
.GTTIM	  006472 RG	#114-4648   223-8559   223-8559   230-8893   230-8893   230-8937   230-8937
.HALTC	  007312 RG	#118-4905
.HRDWR	= ******  GX	 205-7869   205-7877   205-7889
.INBBC	= ******  GX	*146-5861
.INCHC	= ******  GX	 112-4595   114-4718   230-8845
.INDFG	= ******  GX	 146-5851  *146-5865
.INEXT	  000622 R	 123-5070  #124-5124
.INFN 	= ******  GX	*146-5842  *146-5843  *146-5847  *146-5849   146-5854
.INFNB	= ******  GX	 146-5855
.INICL	= 070000	#185-7376  #235-9226
.INICP	  007562 RG	#125-5155
.INIC0	  007332 RG	#120-4971   126-5183   126-5183
.INIT 	  007334 RG	#121-5004
.INITC	  007326 RG	#120-4969
.INKLF	  007364 RG	 120-4972  #123-5050
.INPOS	= ******  GX	*146-5862
.INVBN	= ******  GX	*146-5863  *146-5864
.IRADX	= ******  GX	 112-4498  *112-4499  *112-4594   114-4649  *114-4650  *114-4717   201-7758  *201-7759  *201-7773
.IRLTC	= 014000	#185-7376  #235-9226
.JUMPC	  014052 RG	#186-7380
.KACFL	= ******  GX	*198-7714   200-7737
.KLCON	= ******  GX	 38-1598    38-1598
.KLE  	  007752 RG	#130-5293
.KLEDF	= ******  GX	*130-5331  *131-5396
.KLEPT	= ******  GX	*130-5318
PATREE     CREATED BY  MACRO  ON 17-MAY-88 AT 14:39	PAGE 37

SYMBOL CROSS REFERENCE                                  CREF   04.00

SYMBOL	VALUE		REFERENCES

.KLERQ	= ******  GX	 123-5054  *130-5337  *131-5395
.KLEVL	= ******  GX	 130-5295  *130-5319  *131-5397
.KLFCF	= ******  GX	*206-7936   207-7948
.KLFLG	= ******  GX	 38-1584    49-2070    49-2072    65-2706    67-2768    71-2916    94-3844   *121-5012   123-5064
                         138-5583   140-5646   187-7442   209-8063   237-9279
.KLHLT	= ******  GX	 49-2073    49-2073    65-2709    65-2709    187-7444   187-7444   209-8064   209-8064
.KLINC	= ******  GX	 47-1958    47-1964    191-7575   191-7583   192-7595
.KLIWD	= ******  GX	 130-5339   164-6553  *164-6555
.KLMTB	= ******  GX	 230-8964
.KLMT1	= ******  GX	 230-8836
.KLNFD	= ******  GX	*230-8978  *230-8979   232-9109   232-9119
.KLNFT	= ******  GX	*230-8977   232-9121
.KLNMD	= ******  GX	 189-7525  *230-8973  *230-8980   230-8996  *230-9001   232-9102   232-9135   232-9142   232-9145
.KLNPB	= ******  GX	 230-9013
.KLNPE	= ******  GX	 230-9020
.KLNPW	= ******  GX	 230-8983  *230-9002
.KLNSW	= ******  GX	*56-2363    189-7523   230-8828  *230-9003   232-9105   232-9149
.KLNTD	= ******  GX	*230-8975  *230-8976   232-9126
.KLNTT	= ******  GX	*230-8974   232-9128
.KLRLD	= ******  GX	*197-7702   199-7726
.KLRST	= ******  GX	 65-2715    209-8074   209-8074
.KLSNP	= ******  GX	 130-5335  *130-5338  *131-5398
.KLST 	= ******  GX	 186-7400   186-7400
.KLSTP	= ******  GX	 36-1513    36-1513    118-4907   118-4907
.LCRDL	= 052000	#185-7376  #235-9226
.LCRDR	= 051000	#185-7376  #235-9226
.LCRM1	= 057000	#185-7376  #235-9226
.LCRM2	= 056000	#185-7376  #235-9226
.LCRM3	= 055000	#185-7376  #235-9226
.LCRM4	= 054000	#185-7376  #235-9226
.LCRM5	= 053000	#185-7376  #235-9226
.LDAR 	= 077000	#185-7376  #235-9226
.LDBRL	= 043000	#185-7376  #235-9226
.LDBRR	= 042000	#185-7376  #235-9226
.LDCK1	= 046000	#185-7376  #235-9226
.LDCK2	= 047000	#185-7376  #235-9226
.LDCLK	= ******  GX	 210-8106
.LDDIS	= 045000	#185-7376  #235-9226
.LDPAR	= ******  GX	 210-8112
.LDRJD	= 064000	#185-7376  #235-9226
.LDRJV	= 063000	#185-7376  #235-9226
.LDRM1	= 060000	#185-7376  #235-9226
.LDRM2	= 061000	#185-7376  #235-9226
.LDRM3	= 062000	#185-7376  #235-9226
.LDSEL	= 044000	#185-7376  #235-9226
.LDZFL	= ******  GX	*91-3732   *163-6474  *192-7605
.LGLWD	= ******  GX	*44-1879   *45-1916   *137-5570  *178-7167
.LOKUP	= ******  GX	 146-5857   146-5857   170-6852   170-6852
.MARKC	  010266 RG	#134-5476   134-5499
.MEMFL	= ******  GX	 40-1671    42-1773   *193-7643   194-7655
.MEMRS	= 076000	#185-7376  #235-9226
.MON  	= ******  GX	*223-8601
PATREE     CREATED BY  MACRO  ON 17-MAY-88 AT 14:39	PAGE 38

SYMBOL CROSS REFERENCE                                  CREF   04.00

SYMBOL	VALUE		REFERENCES

.MONTB	= ******  GX	 112-4539
.NOERR	= ******  GX	*38-1601    164-6510  *164-6511  *164-6560  *186-7402
.NOHLT	= ******  GX	*182-7267
.NOTSW	= ******  GX	 161-6371   169-6785   170-6829   171-6935   172-6976   178-7153  *178-7155  *178-7160  *180-7206
                         189-7500   191-7567   193-7627   195-7673   197-7702   198-7711   201-7764   202-7782   206-7936
                         211-8163   212-8188   213-8239   223-8544   230-8823   230-9026
.OPEN 	= ******  GX	 146-5860   146-5860   170-6855   170-6855   170-6859   170-6859
.ORADX	= ******  GX	 115-4757  *115-4758  *115-4776   116-4822  *116-4823  *116-4847   192-7599  *192-7600  *192-7608
                         205-7863  *205-7864  *205-7882
.OTATT	= ******  GX	 170-6840  *170-6856  *170-6857   170-6862   170-6863
.OTBBC	= ******  GX	*170-6860
.OTBUF	= ******  GX	 170-6861
.OTFN 	= ******  GX	 170-6839   170-6848
.OTFNB	= ******  GX	 170-6849
.OTPOS	= ******  GX	*170-6861
.OTVBN	= ******  GX	*170-6862  *170-6863
.OUTLG	= ******  GX	 170-6831  *170-6843   170-6846  *170-6866   173-7006   174-7051
.OUTLP	= ******  GX	 171-6937  *171-6941   171-6944  *171-6948   173-7008   174-7043
.OUTTY	= ******  GX	*172-6978  *172-6980  *173-7010   174-7038
.PASS 	= ******  GX	*164-6508   164-6546  *164-6548
.PCAB1	= 150000	#185-7376  #235-9226
.PCAB2	= 151000	#185-7376  #235-9226
.PCAB3	= 152000	#185-7376  #235-9226
.PCAB4	= 153000	#185-7376  #235-9226
.PITAB	= ******  GX	 106-4170   106-4195
.PRDTE	= ******  GX	 81-3323
.PSCWD	= ******  GX	 210-8113   217-8347
.QUITC	  011302 RG	#149-5949
.RCRM1	= 147000	#185-7376  #235-9226
.RCRM2	= 146000	#185-7376  #235-9226
.RCRM3	= 145000	#185-7376  #235-9226
.RCRM4	= 144000	#185-7376  #235-9226
.RCSPF	= 141000	#185-7376  #235-9226
.RDADR	  005254 RG	 89-3674   #102-4027
.RDADX	  005262 RG	 89-3678   #102-4031
.RDAPR	  003274 RG	 68-2815    68-2815   #73-3049
.RDARR	  005270 RG	 89-3682   #102-4035
.RDARX	  005276 RG	 89-3686   #102-4039
.RDBRR	  005304 RG	 89-3690   #102-4043
.RDBRX	  005312 RG	 89-3694   #102-4047
.RDCPP	= ******  GX	 209-8067   209-8067   210-8085   210-8085   214-8254   214-8254   217-8344   217-8344
.RDCRA	  005550 RG	 95-3861   #107-4228
.RDCRL	  005556 RG	 95-3865   #107-4232
.RDCRM	= ******  GX	 134-5482   134-5482
.RDDRA	  005564 RG	 95-3869   #107-4236
.RDEBS	  005320 RG	 89-3698   #102-4051
.RDFER	  005572 RG	 95-3873   #107-4240
.RDFLG	  005344 RG	 92-3779    92-3779   #104-4107
.RDFMA	= ******  GX	 163-6464   163-6464   164-6514   164-6514
.RDFMO	= ******  GX	 164-6526   164-6526   165-6640   165-6640
.RDFMP	= ******  GX	 165-6635   165-6635
.RDFMR	  005326 RG	 89-3702   #102-4055
PATREE     CREATED BY  MACRO  ON 17-MAY-88 AT 14:39	PAGE 39

SYMBOL CROSS REFERENCE                                  CREF   04.00

SYMBOL	VALUE		REFERENCES

.RDIPE	= ******  GX	 164-6518   164-6518
.RDJ14	= 134000	#185-7376  #235-9226
.RDJ71	= 135000	#185-7376  #235-9226
.RDMAB	= 133000	#185-7376  #235-9226
.RDMQR	  005334 RG	 89-3706   #102-4059
.RDPI 	  005470 RG	 98-3933    98-3933   #106-4167
.RDSBR	  005600 RG	 95-3877   #107-4244
.RDSCR	  005606 RG	 95-3881   #107-4248
.RDVAB	  005704 RG	 90-3713   #110-4362
.RDVMA	  005712 RG	 90-3717   #110-4366
.RDVMH	  005720 RG	 90-3721   #110-4370
.RDVPC	  005676 RG	 90-3725   #110-4358
.RDXSV	= ******  GX	*112-4498   112-4594  *114-4649   114-4717  *192-7599   192-7608  *201-7758   201-7773
.RECNT	= ******  GX	*170-6865
.RECPT	= ******  GX	*170-6864
.RECRD	= ******  GX	 170-6864
.REGSV	= ******  GX	 110-4373   159-6264
.RELWD	= ******  GX	*195-7678   196-7687
.RESQ 	  021360 RG	#244-9407
.RESTB	= ******  GX	 137-5566
.RESTC	  010364 RG	#137-5561
.RESTD	= ******  GX	 138-5587   138-5587   138-5595
.RESTI	= ******  GX	 138-5600
.RESTP	= ******  GX	 137-5577   166-6704   166-6704
.RNDPB	  000046 RG	*143-5760   143-5761  #145-5806
.RPTCT	= ******  GX	 192-7602   201-7769
.RPTPT	= ******  GX	 201-7771
.RSACB	  011336 RG	#153-6054
.RSALL	  010444 RG	#138-5582
.RSAPR	  010540 RG	 138-5588   138-5588  #139-5610
.RSDTE	  010512 RG	#138-5594
.RSERR	  010546 RG	#139-5614
.RSPAG	  010572 RG	 138-5589   138-5589  #140-5645
.RSSWP	  012652 RG	 164-6528   164-6528   165-6642   165-6642  #166-6702
.RSTIN	  010516 RG	#138-5597
.RSTIO	  010554 RG	#139-5618
.RSTKL	= ******  GX	 51-2210    68-2816    68-2816    91-3742    91-3742    92-3780    92-3780    94-3853    96-3895
                         96-3895    98-3934    98-3934    100-3993   138-5592   140-5670   210-8087   214-8255   214-8255
                         217-8345   217-8345
.RSTPI	  010562 RG	 138-5590   138-5590  #139-5622
.RSTRC	  011312 RG	#152-6010
.RSTTB	= ******  GX	 152-6011
.RUNCM	  010716 RG	#143-5753
.SACBK	  012046 RG	 161-6379  #162-6422
.SACB1	  012050 RG	#162-6424   164-6558   164-6558   165-6624   165-6624   166-6707   166-6707
.SAVEC	  011404 RG	#154-6103
.SAVFL	  011542 R	 156-6160   156-6160  #158-6211
.SAVPC	  011666 R	 156-6170  #159-6262
.SAVQ 	  021352 RG	#244-9404
.SAVTB	= ******  GX	 154-6104
.SCACB	  011774 RG	#161-6370
.SCCEC	  016126 RG	#212-8177
PATREE     CREATED BY  MACRO  ON 17-MAY-88 AT 14:39	PAGE 40

SYMBOL CROSS REFERENCE                                  CREF   04.00

SYMBOL	VALUE		REFERENCES

.SCCED	  016134 RG	#212-8181
.SCCEE	  016142 RG	#212-8185
.SCCLK	  015566 RG	#208-8024
.SCCLN	  016010 RG	#211-8123
.SCCOM	  014320 RG	#189-7520
.SCCON	  014236 RG	#189-7499
.SCCOO	  014304 RG	#189-7512
.SCCOP	  014312 RG	 189-7503  #189-7516
.SCCOT	= ******  GX	 189-7505
.SCCOU	  014346 RG	#189-7531
.SCCRF	  016012 RG	#211-8125
.SCCRH	  016016 RG	#211-8129
.SCCRQ	  016024 RG	#211-8133
.SCCRS	  016032 RG	#211-8137
.SCCSE	  016044 RG	#211-8143
.SCCSI	  016074 RG	#211-8154
.SCCSM	  016100 RG	#211-8158
.SCCTB	= ******  GX	 210-8105
.SCDAT	  016740 RG	#223-8541
.SCFSS	  015600 RG	#208-8029
.SCINC	  014430 RG	#191-7566
.SCKLN	  017442 RG	#230-8821
.SCMEL	  014626 RG	#193-7635
.SCMEM	  014574 RG	#193-7626
.SCMKL	  014640 RG	#193-7640
.SCMTB	= ******  GX	 193-7630
.SCNOT	  013726 RG	#180-7204
.SCOFS	  014700 RG	#195-7671
.SCOTC	  013466 RG	 170-6844   171-6942   172-6979  #173-7005
.SCOTL	  012774 RG	 169-6787   169-6787  #170-6828
.SCOTP	  013354 RG	 169-6788   169-6788  #171-6934
.SCOTT	= ******  GX	 169-6793
.SCOTY	  013442 RG	 169-6790   169-6790  #172-6975
.SCOUT	  012706 RG	#169-6782
.SCPAL	  016164 RG	#213-8212
.SCPAR	  016172 RG	#213-8216
.SCPCR	  016200 RG	#213-8220
.SCPDR	  016206 RG	#213-8224
.SCPEN	  016214 RG	#213-8228
.SCPFM	  016222 RG	#213-8232
.SCPFS	  016230 RG	 208-8033   208-8033  #213-8236
.SCPST	  015622 RG	#208-8036
.SCPTB	= ******  GX	 210-8111
.SCRLD	  014752 RG	#197-7700
.SCRPT	  015072 RG	#201-7757
.SCRTY	  014766 RG	#198-7708
.SCTRK	  015170 RG	#202-7779
.SECLK	= 003000	#185-7376  #235-9226
.SETCM	  013646 RG	#178-7158
.SETC0	  013656 RG	#178-7161   180-7207
.SETMR	= 007000	#185-7376  #235-9226
.SETRN	= 011000	#185-7376  #235-9226
PATREE     CREATED BY  MACRO  ON 17-MAY-88 AT 14:39	PAGE 41

SYMBOL CROSS REFERENCE                                  CREF   04.00

SYMBOL	VALUE		REFERENCES

.SETTB	= ******  GX	 178-7163
.SFREC	  015514 RG	#206-7934
.SHUTC	  013740 RG	#182-7265
.SNAP 	  010234 RG	#131-5393
.SPACE	= 000040	#21-838     112-4523
.SSCAN	= ******  GX	 220-8448   220-8448   220-8452   220-8452
.SSCLK	= 002000	#185-7376  #235-9226
.SSM  	= ******  GX	 170-6891  *223-8596   225-8697   230-8895
.SSTTB	= ******  GX	*58-2465   *58-2476   *61-2563   *61-2567    125-5163
.STCLK	= ******  GX	 38-1591    38-1591    166-6705   166-6705   237-9281   237-9281
.STPCL	= 000000	#185-7376  #235-9226
.STPKL	= ******  GX	 68-2814    68-2814    91-3740    91-3740    92-3778    92-3778    94-3845    94-3845    96-3892
                         96-3892    98-3932    98-3932    100-3983   100-3983   137-5576   137-5576   138-5586   138-5586
                         138-5599   138-5599   140-5649   140-5649   210-8084   210-8084   214-8253   214-8253   217-8343
                         217-8343   237-9278   237-9278
.STRCL	= 001000	#185-7376  #235-9226
.STRTB	= ******  GX	 184-7344
.STRTC	  014030 RG	#184-7341
.STRTT	  014062 RG	 184-7343  #186-7384
.STRTU	  014166 RG	#187-7433
.STRTV	= ******  GX	 126-5184   211-8152
.STUCD	= ******  GX	 36-1520    36-1520    187-7446
.SVACB	  011430 RG	#155-6128
.SVESP	= ******  GX	*125-5156
.SVKLF	= ******  GX	*49-2072   *65-2713   *94-3852   *138-5591  *140-5669  *209-8066  *238-9321
.SVPC 	  011466 RG	#156-6159
.SWPAC	  012514 RG	 164-6536   164-6536   164-6541   164-6541  #165-6622
.SWPC 	  012214 RG	#164-6507
.SWPIP	= ******  GX	*164-6512  *164-6559
.TAKEC	  011024 RG	#146-5841
.TAKE1	  011100 RG	#146-5853
.TCRLF	= ******  GX	 50-2126    50-2126    58-2477    61-2575    61-2575    67-2796    67-2796    71-2935    71-2935
                         86-3623    91-3750    92-3800    96-3902    99-3965    126-5182   126-5182   130-5341   130-5341
                         163-6477   163-6477   170-6836   170-6836   170-6837   170-6837   170-6874   170-6874   170-6875
                         170-6875   174-7059   192-7609   196-7689   205-7894   214-8280   214-8280   218-8385   220-8454
                         220-8454   225-8699   225-8699   232-9123   232-9123   232-9130   232-9130
.TPADD	= ******  GX	 47-1965    47-1965    71-2943    71-2943    76-3148    76-3148
.TPCLR	= ******  GX	 110-4381   110-4381   112-4546   112-4546   114-4702   114-4702   159-6272   159-6272   191-7584
                         191-7584   201-7772   201-7772
.TPCMP	= ******  GX	 68-2812    68-2812    71-2940    71-2940    71-2960    71-2960    237-9285   237-9285   238-9312
                         238-9312
.TPDEC	= ******  GX	 47-1948    47-1948    237-9284
.TPDIV	= ******  GX	 114-4676   114-4676
.TPINC	= ******  GX	 47-1953    47-1953    237-9287
.TPNEG	= ******  GX	 71-2964    71-2964
.TPSHI	= ******  GX	 73-3055    73-3055    76-3146    76-3146    104-4114   104-4114   104-4121   104-4121   106-4176
                         106-4176   108-4263   108-4263   108-4270   108-4270   111-4396   111-4396   155-6133   155-6133
                         156-6167   156-6167   158-6218   158-6218   158-6225   158-6225   159-6282   159-6282
.TPSUB	= ******  GX	 47-1959    47-1959
.TPTST	= ******  GX	 186-7392   186-7392
.TRKWD	= ******  GX	*202-7786   203-7798
.TRPTV	= ******  GX	*36-1512   *36-1515
PATREE     CREATED BY  MACRO  ON 17-MAY-88 AT 14:39	PAGE 42

SYMBOL CROSS REFERENCE                                  CREF   04.00

SYMBOL	VALUE		REFERENCES

.TRP4V	= ******  GX	 58-2465    61-2563
.TSCAN	= ******  GX	 44-1876    44-1876    45-1913    45-1913    57-2439    57-2439    60-2548    60-2548    66-2751
                         66-2751    70-2899    70-2899    112-4540   112-4540   137-5567   137-5567   152-6013   152-6013
                         154-6106   154-6106   169-6794   169-6794   178-7164   178-7164   179-7197   179-7197   184-7345
                         184-7345   189-7506   189-7506   193-7631   193-7631   209-8049   209-8049   230-8837   230-8837
                         230-8965   230-8965
.TYACE	= ******  GX	 165-6641   165-6641
.TYAC1	= ******  GX	 164-6527   164-6527
.TYCHR	= ******  GX	 58-2469    58-2469    61-2571    61-2571    115-4772   115-4772   116-4835   116-4835   116-4843
                         116-4843   205-7873   205-7873
.TYCOL	= ******  GX	 116-4839   116-4839
.TYCOM	= ******  GX	 174-7047   174-7047   174-7055   174-7055   205-7874   205-7874   214-8276   214-8276   218-8379
                         218-8379
.TYDAT	  007040 RG	#115-4756   170-6890   170-6890   225-8695   225-8695   232-9120   232-9120   232-9127   232-9127
.TYELA	= ******  GX	 58-2467    58-2467    61-2569    61-2569    115-4762   115-4762   115-4775   115-4775   116-4838
                         116-4838   116-4846   116-4846   196-7688   196-7688
.TYELN	= ******  GX	 58-2472    58-2472    61-2574    61-2574    81-3338    81-3338    96-3901    96-3901    205-7865
                         205-7865   205-7881   205-7881
.TYKLA	= ******  GX	 67-2791    67-2791    71-2930    71-2930    84-3535    84-3535
.TYKLN	= ******  GX	 50-2125    50-2125    67-2795    67-2795    71-2934    71-2934    83-3475    83-3475    91-3748
                         91-3748    163-6475   163-6475   192-7607   192-7607
.TYLIN	= ******  GX	 92-3784    92-3784    164-6552   164-6552   190-7554   194-7659   200-7742   204-7811   204-7811
                         204-7816   205-7884   205-7884   205-7891   205-7891   207-7952   214-8259   214-8259   214-8268
                         214-8268   215-8293   215-8293   215-8300   217-8349   217-8349   217-8357   217-8357   225-8688
                         225-8688   225-8708   232-9112   232-9112   232-9116   232-9116   232-9138   232-9138   232-9151
                         232-9151   232-9156
.TYMIN	= ******  GX	 115-4763   115-4763   115-4768   115-4768
.TYMSF	= ******  GX	 112-4512   112-4512   114-4654   114-4654   230-8832   230-8832   230-8841   230-8841   230-8959
                         230-8959
.TYMSG	= ******  GX	 50-2118    50-2118    81-3336    81-3336    82-3420    82-3420    83-3472    83-3472    83-3481
                         83-3481    84-3497    84-3497    84-3508    84-3508    84-3510    84-3510    84-3516    84-3516
                         84-3518    84-3518    84-3523    84-3523    84-3527    84-3527    84-3529    84-3529    85-3585
                         85-3585    86-3622    86-3622    91-3744    91-3744    92-3791    92-3791    92-3798    92-3798
                         96-3897    96-3897    98-3937    98-3937    99-3949    99-3949    99-3951    99-3951    99-3956
                         99-3956    99-3961    99-3961    115-4767   115-4767   130-5333   130-5333   163-6462   163-6462
                         164-6523   164-6523   170-6834   170-6834   170-6868   170-6868   170-6871   170-6871   170-6873
                         170-6873   174-7036   174-7036   174-7041   174-7041   174-7049   174-7049   174-7057   174-7057
                         190-7544   190-7544   192-7604   192-7604   194-7653   194-7653   196-7686   196-7686   199-7724
                         199-7724   200-7735   200-7735   203-7796   203-7796   204-7809   204-7809   204-7813   204-7813
                         205-7861   205-7861   205-7867   205-7867   207-7946   207-7946   211-8145   211-8145   214-8261
                         214-8261   214-8275   214-8275   215-8288   215-8288   215-8295   215-8295   217-8351   217-8351
                         217-8359   217-8359   217-8363   217-8363   218-8378   218-8378   220-8441   220-8441   225-8692
                         225-8692   225-8701   225-8701   230-8884   230-8884   230-8890   230-8890   230-8898   230-8898
                         230-8934   230-8934   232-9100   232-9100   232-9118   232-9118   232-9125   232-9125   232-9133
                         232-9133   232-9140   232-9140
.TYOUT	= ******  GX	 220-8442   220-8442
.TYP3D	= ******  GX	 50-2121    50-2121    99-3954    99-3954    99-3959    99-3959    99-3964    99-3964
.TYSLS	= ******  GX	 50-2122    50-2122    67-2792    67-2792    71-2931    71-2931    91-3745    91-3745    96-3898
                         96-3898
.TYSPC	= ******  GX	 50-2123    50-2123    58-2470    58-2470    61-2572    61-2572    67-2793    67-2793    71-2932
                         71-2932    91-3746    91-3746    96-3899    96-3899    115-4777   116-4848   205-7875   205-7875
                         214-8277   214-8277   218-8380   218-8380   225-8693   225-8693   225-8696   225-8696
PATREE     CREATED BY  MACRO  ON 17-MAY-88 AT 14:39	PAGE 43

SYMBOL CROSS REFERENCE                                  CREF   04.00

SYMBOL	VALUE		REFERENCES

.TYTIM	  007154 RG	#116-4821   170-6892   170-6892   225-8698   225-8698   232-9122   232-9122   232-9129   232-9129
.T50TB	= ******  GX	 148-5899
.UMRKC	  010262 RG	#134-5472   134-5500
.VERNO	= ******  GX	 170-6872   204-7814
.VFYFL	= ******  GX	 68-2805
.WHACB	  012132 RG	 162-6440   162-6440  #163-6459
.WHATB	= ******  GX	 179-7195
.WHATC	  013702 RG	#179-7194
.WHATV	  015242 RG	#204-7807
.WHCON	  014360 RG	 189-7529  #190-7542
.WHDAT	  017266 RG	 223-8610  #225-8675
.WHINC	  014506 RG	#192-7593
.WHKLN	  020576 RG	#232-9097
.WHMEM	  014646 RG	#194-7651
.WHOFS	  014726 RG	#196-7684
.WHOUT	  013510 RG	 169-6789  #174-7034
.WHRDW	  015302 RG	#205-7856
.WHREC	  015530 RG	#207-7942
.WHRLD	  015014 RG	 197-7703  #199-7722
.WHRPT	  014520 RG	#192-7598   201-7774
.WHRTY	  015040 RG	 198-7715  #200-7733
.WHTCA	  016272 RG	 210-8109  #214-8256
.WHTCL	  016256 RG	#214-8252
.WHTPA	  016474 RG	 210-8115  #217-8346
.WHTPS	  016460 RG	#217-8342
.WHTRK	  015212 RG	#203-7794
.WRCRM	= ******  GX	 134-5494   134-5494
.WRITZ	= ******  GX	 170-6838   170-6838
.WRMBX	= 071000	#185-7376  #235-9226
.WRTAR	= ******  GX	 65-2712    65-2712
.XFRCK	  001260 RG	 50-2110    50-2110   #53-2273
.XFWCK	  001276 RG	 51-2197    51-2197   #53-2280
.XFXCK	  001314 RG	 52-2238    52-2238   #53-2287
.YEAR 	= ******  GX	*223-8547  *223-8599
.YESNO	  016634 RG	 211-8146   211-8146  #220-8437
.ZEROC	  021104 RG	#236-9250
..DTP2	= ******  GX	 36-1522    36-1522    182-7281   182-7281   186-7404
..STIN	= ******  GX	 230-9018   230-9018   230-9037   230-9037
PATREE     CREATED BY  MACRO  ON 17-MAY-88 AT 14:39	PAGE 44

MACRO CROSS REFERENCE                                   CREF   04.00

MACRO NAME	REFERENCES

ALUN$ 		#119-4947   127-5198   127-5207   127-5213  #168-6747
CALL  		#4-119      34-1464    36-1513    36-1520    36-1522    36-1525    38-1583    38-1591    38-1594    38-1598
                 40-1672    42-1774    44-1876    45-1913    47-1947    47-1948    47-1952    47-1953    47-1957    47-1959
                 47-1963    47-1965    49-2054    49-2059    49-2073    50-2107    50-2109    50-2110    50-2116    50-2118
                 50-2121    50-2122    50-2123    50-2125    50-2126    50-2145    50-2147    51-2195    51-2196    51-2197
                 51-2204    51-2205    51-2208    52-2236    52-2237    52-2238    52-2239    56-2362    57-2436    57-2439
                 57-2443    57-2448    57-2449    58-2458    58-2467    58-2469    58-2470    58-2472    59-2492    59-2496
                 59-2500    59-2504    59-2514    60-2545    60-2548    60-2552    61-2560    61-2569    61-2571    61-2572
                 61-2574    61-2575    61-2591    61-2592    62-2624    62-2628    62-2632    62-2636    65-2698    65-2699
                 65-2704    65-2705    65-2709    65-2712    66-2748    66-2751    66-2756    66-2757    66-2760    67-2767
                 67-2789    67-2791    67-2792    67-2793    67-2795    67-2796    68-2804    68-2809    68-2812    68-2814
                 68-2815    68-2816    69-2841    69-2845    69-2849    69-2853    69-2864    70-2896    70-2899    70-2904
                 71-2911    71-2928    71-2930    71-2931    71-2932    71-2934    71-2935    71-2940    71-2943    71-2953
                 71-2954    71-2960    71-2964    72-2999    72-3003    72-3007    72-3011    73-3053    73-3055    76-3127
                 76-3132    76-3141    76-3146    76-3148    76-3154    78-3221    78-3222    80-3296    81-3336    81-3338
                 81-3339    82-3420    83-3472    83-3475    83-3481    84-3497    84-3508    84-3510    84-3516    84-3518
                 84-3523    84-3527    84-3529    84-3535    85-3585    86-3622    91-3734    91-3740    91-3741    91-3742
                 91-3744    91-3745    91-3746    91-3748    92-3777    92-3778    92-3779    92-3780    92-3784    92-3791
                 92-3798    94-3843    94-3845    94-3847    94-3849    94-3850    94-3851    96-3890    96-3892    96-3893
                 96-3895    96-3897    96-3898    96-3899    96-3901    98-3930    98-3932    98-3933    98-3934    98-3937
                 99-3949    99-3951    99-3954    99-3956    99-3959    99-3961    99-3964    100-3982   100-3983   100-3989
                 104-4112   104-4114   104-4119   104-4121   104-4126   106-4174   106-4176   108-4261   108-4263   108-4268
                 108-4270   110-4373   110-4381   111-4391   111-4396   112-4512   112-4513   112-4515   112-4534   112-4537
                 112-4540   112-4546   112-4547   112-4549   112-4556   114-4654   114-4657   114-4659   114-4662   114-4668
                 114-4671   114-4676   114-4684   114-4688   114-4699   114-4702   114-4703   114-4709   115-4762   115-4763
                 115-4767   115-4768   115-4772   115-4775   116-4826   116-4830   116-4835   116-4838   116-4839   116-4843
                 116-4846   118-4906   118-4907   120-4970   123-5058   123-5063   123-5071   123-5076   126-5182   126-5183
                 130-5301   130-5307   130-5313   130-5333   130-5341   131-5394   134-5479   134-5480   134-5482   134-5494
                 137-5565   137-5567   137-5571   137-5575   137-5576   138-5586   138-5587   138-5588   138-5589   138-5590
                 138-5598   138-5599   140-5649   140-5662   140-5665   140-5667   143-5754   143-5755   143-5758   143-5759
                 146-5844   146-5845   146-5848   146-5850   146-5857   146-5860   148-5916   149-5950   152-6012   152-6013
                 152-6014   153-6062   153-6065   154-6105   154-6106   154-6107   155-6131   155-6133   156-6160   156-6167
                 158-6216   158-6218   158-6223   158-6225   158-6230   159-6264   159-6272   159-6277   159-6282   161-6373
                 161-6374   161-6377   162-6433   162-6436   162-6440   163-6462   163-6464   163-6475   163-6477   164-6514
                 164-6518   164-6523   164-6526   164-6527   164-6528   164-6532   164-6536   164-6541   164-6552   164-6558
                 165-6624   165-6630   165-6632   165-6635   165-6640   165-6641   165-6642   165-6645   166-6704   166-6705
                 166-6707   169-6787   169-6788   169-6790   169-6792   169-6794   169-6795   169-6796   170-6834   170-6835
                 170-6836   170-6837   170-6838   170-6842   170-6852   170-6854   170-6855   170-6859   170-6868   170-6869
                 170-6871   170-6873   170-6874   170-6875   170-6890   170-6892   174-7036   174-7041   174-7047   174-7049
                 174-7055   174-7057   178-7152   178-7159   178-7164   179-7196   179-7197   179-7198   180-7205   182-7266
                 182-7279   182-7281   184-7342   184-7345   186-7381   186-7385   186-7391   186-7392   186-7394   186-7397
                 186-7400   187-7434   187-7439   187-7440   187-7444   189-7504   189-7506   189-7507   189-7511   190-7544
                 191-7573   191-7574   191-7582   191-7584   192-7604   192-7607   193-7629   193-7631   193-7632   193-7639
                 194-7653   195-7675   195-7677   196-7686   196-7688   197-7701   198-7709   199-7724   200-7735   201-7766
                 201-7768   201-7772   202-7780   203-7796   204-7809   204-7811   204-7813   205-7861   205-7865   205-7867
                 205-7873   205-7874   205-7875   205-7881   205-7884   205-7891   206-7935   207-7943   207-7946   208-8025
                 208-8030   208-8032   208-8033   208-8037   209-8047   209-8049   209-8050   209-8064   209-8065   209-8067
                 209-8074   210-8083   210-8084   210-8085   211-8145   211-8146   214-8253   214-8254   214-8255   214-8259
                 214-8261   214-8268   214-8275   214-8276   214-8277   214-8280   215-8288   215-8293   215-8295   217-8343
                 217-8344   217-8345   217-8349   217-8351   217-8357   217-8359   217-8363   218-8378   218-8379   218-8380
                 220-8441   220-8442   220-8444   220-8448   220-8452   220-8454   223-8551   223-8555   223-8559   223-8566
                 223-8589   225-8676   225-8688   225-8692   225-8693   225-8695   225-8696   225-8698   225-8699   225-8701
PATREE     CREATED BY  MACRO  ON 17-MAY-88 AT 14:39	PAGE 45

MACRO CROSS REFERENCE                                   CREF   04.00

MACRO NAME	REFERENCES

                 230-8822   230-8832   230-8835   230-8837   230-8841   230-8843   230-8884   230-8888   230-8890   230-8893
                 230-8898   230-8902   230-8934   230-8937   230-8959   230-8962   230-8963   230-8965   230-8967   230-9018
                 230-9037   232-9098   232-9100   232-9112   232-9116   232-9118   232-9120   232-9122   232-9123   232-9125
                 232-9127   232-9129   232-9130   232-9133   232-9138   232-9140   232-9151   236-9251   236-9256   237-9274
                 237-9276   237-9278   237-9281   237-9285   238-9312   238-9314   238-9316   244-9411   244-9414   244-9416
                 244-9423   244-9426
CALLR 		#4-128      38-1604    40-1675    41-1690    41-1702    41-1714    41-1726    41-1738    42-1778    43-1793
                 43-1805    43-1817    43-1829    43-1841    44-1880    44-1884    44-1888    45-1918    45-1922    45-1926
                 51-2210    56-2367    57-2440    58-2477    60-2549    65-2715    66-2752    70-2900    78-3229    80-3297
                 86-3623    91-3750    92-3800    94-3853    96-3902    99-3965    100-3993   102-4063   115-4777   116-4848
                 118-4908   126-5187   130-5342   137-5572   137-5577   138-5592   138-5595   138-5600   139-5625   140-5670
                 143-5763   149-5951   152-6015   154-6108   156-6170   161-6379   169-6789   170-6844   171-6942   172-6979
                 174-7059   178-7168   179-7199   182-7282   184-7346   186-7404   187-7446   189-7508   189-7532   190-7554
                 192-7609   193-7633   194-7659   196-7689   200-7742   201-7774   204-7816   205-7894   207-7952   209-8070
                 209-8075   210-8087   215-8300   218-8385   225-8708   232-9153   232-9156
CLEF$S		#119-4947   126-5175   126-5176   126-5177  #229-8817   230-9011
COMND$		#5-182
DEFCMD		#129-5255   130-5356   130-5357   130-5358   130-5359   130-5360   130-5361   130-5362   130-5363   130-5364
                 130-5365
DIR$  		#55-2336    56-2365   #112-4495  #112-4502   112-4502  #119-4947  #123-5051   123-5051  #125-5163   125-5163
                 125-5165   125-5167   125-5169  #126-5175   126-5175  #126-5176   126-5176  #126-5177   126-5177  #126-5178
                 126-5178  #126-5180   126-5180  #142-5728   143-5761  #166-6703   166-6703  #168-6747  #170-6880   170-6880
                 171-6939   171-6946  #225-8678   225-8678  #230-9011   230-9011  #230-9039   230-9039  #232-9095   232-9152
                #235-9224   238-9309
ERCON$		#5-173
ERROR$		#5-158      38-1608    47-1986    49-2080    53-2295    53-2298    58-2480    61-2604    68-2823    68-2826
                 68-2829    71-2979    78-3232    113-4599   113-4602   113-4605   113-4608   114-4721   114-4724   124-5116
                 124-5119   138-5603   141-5674   144-5777   144-5780   144-5783   146-5869   146-5871   161-6382   161-6384
                 165-6650   171-6952   186-7407   189-7535   205-7897   205-7900   210-8093   210-8096   210-8099   224-8614
                 224-8617   224-8620   224-8623   230-8857   230-8860   230-8863   230-8867   230-8953   238-9326   238-9329
ERR$  		#56-2365   #112-4502  #123-5051  #125-5163  #125-5165  #125-5167  #125-5169  #126-5175  #126-5176  #126-5177
                #126-5178  #126-5180  #143-5761  #166-6703  #170-6880  #171-6939  #171-6946  #225-8678  #230-9011  #230-9039
                #232-9152  #238-9309
EXCH$ 		#6-224
FATAL$		#5-165
GTIM$S		#112-4495   112-4502  #168-6747   170-6880  #223-8539   225-8678
IKL$  		#8-253
IOKL$ 		#8-281      76-3116    76-3117    139-5633   139-5635   139-5637   139-5639   141-5680   141-5682   153-6078
                 162-6453
MOV$  		#112-4502   112-4502  #123-5051   123-5051  #125-5163   125-5163   125-5163  #126-5175   126-5175  #126-5176
                 126-5176  #126-5177   126-5177  #126-5178   126-5178  #126-5180   126-5180  #166-6703   166-6703  #170-6880
                 170-6880  #225-8678   225-8678  #230-9011   230-9011  #230-9039   230-9039
NBL$  		#127-5198   127-5198  #127-5207   127-5207  #127-5213   127-5213
NSERR$		#6-202
OFF$  		#56-2373    56-2373    56-2373    56-2373    56-2373    56-2373    56-2373   #112-4502   112-4502   112-4502
                 112-4502   112-4502   112-4502   112-4502   112-4502   112-4502  #127-5198   127-5198   127-5198   127-5198
                 127-5198  #127-5207   127-5207   127-5207   127-5207   127-5207  #127-5213   127-5213   127-5213   127-5213
                 127-5213  #145-5807   145-5807   145-5807   145-5807   145-5807   145-5807   145-5807  #170-6880   170-6880
                 170-6880   170-6880   170-6880   170-6880   170-6880   170-6880   170-6880  #175-7085   175-7085   175-7085
                 175-7085   175-7085   175-7085   175-7085   175-7085   175-7085  #175-7088   175-7088   175-7088   175-7088
                 175-7088   175-7088   175-7088   175-7088   175-7088  #225-8678   225-8678   225-8678   225-8678   225-8678
                 225-8678   225-8678   225-8678   225-8678  #232-9162   232-9162   232-9162   232-9162   232-9162   232-9162
PATREE     CREATED BY  MACRO  ON 17-MAY-88 AT 14:39	PAGE 46

MACRO CROSS REFERENCE                                   CREF   04.00

MACRO NAME	REFERENCES

                 232-9162
POP   		#4-134      36-1524    49-2075    50-2127    50-2146    50-2155    51-2207    57-2451    58-2473    58-2474
                 59-2516    61-2576    65-2713    67-2790    67-2794    68-2802    71-2929    71-2933    71-2936    71-2965
                 71-2972    71-2973    71-2974    73-3059    76-3155    94-3852    96-3900    100-3990   104-4132   106-4182
                 108-4275   112-4529   112-4542   112-4593   114-4714   114-4716   115-4776   116-4837   116-4847   121-5013
                 124-5110   130-5329   138-5591   140-5668   140-5669   143-5760   148-5924   148-5925   156-6168   158-6236
                 162-6437   163-6478   164-6529   164-6560   170-6894   191-7576   191-7577   191-7578   201-7770   205-7882
                 209-8066   215-8296   221-8465   230-8971   230-8974   230-8975   230-8976   230-8977   230-8978   230-8979
                 230-8992   237-9283   244-9430
PRDP$ 		#235-9224   238-9335
PUSH  		#4-140      36-1510    36-1511    38-1584    38-1608    47-1986    49-2080    50-2115    50-2143    50-2153
                 51-2202    53-2295    53-2298    57-2447    58-2461    58-2462    58-2480    59-2513    61-2566    61-2598
                 61-2604    65-2706    67-2781    67-2782    67-2784    67-2785    67-2786    68-2823    68-2826    68-2829
                 71-2918    71-2919    71-2925    71-2962    71-2966    71-2967    71-2968    71-2979    73-3050    76-3125
                 76-3137    76-3138    78-3232    91-3739    94-3844    96-3891    96-3894    100-3988   104-4108   106-4168
                 108-4257   108-4265   110-4378   112-4500   112-4517   112-4536   113-4599   113-4602   113-4605   113-4608
                 114-4651   114-4674   114-4679   114-4721   114-4724   115-4757   116-4822   116-4827   121-5005   123-5057
                 124-5116   124-5119   130-5294   138-5583   138-5603   140-5646   140-5650   140-5651   140-5656   140-5658
                 140-5659   141-5674   143-5757   144-5777   144-5780   144-5783   146-5869   146-5871   148-5897   156-6161
                 158-6212   159-6269   161-6382   161-6384   162-6425   163-6460   164-6510   164-6519   165-6650   170-6878
                 171-6952   182-7269   182-7271   182-7272   182-7273   182-7275   182-7276   186-7407   189-7535   205-7863
                 205-7897   205-7900   209-8061   209-8063   210-8093   210-8096   210-8099   214-8257   217-8347   220-8438
                 224-8614   224-8617   224-8620   224-8623   230-8830   230-8857   230-8860   230-8863   230-8867   230-8953
                 237-9277   238-9326   238-9329   244-9410   244-9417   244-9418
QDPB$ 		#175-7085   175-7085  #175-7088   175-7088
QIOW$ 		#168-6747   175-7085   175-7088
QIOW$S		#168-6747
RETURN		#4-148      36-1526    46-1935    46-1940    47-1981    49-2078    50-2157    52-2244    53-2293    61-2601
                 68-2821    71-2976    73-3060    76-3156    81-3343    81-3385    82-3423    83-3482    84-3537    85-3588
                 104-4133   106-4183   108-4276   111-4409   112-4596   114-4719   124-5111   130-5330   131-5399   134-5502
                 146-5866   148-5927   153-6066   155-6137   158-6237   159-6295   162-6441   163-6479   164-6561   165-6647
                 166-6708   170-6876   170-6895   171-6949   172-6981   173-7011   211-8171   212-8196   213-8242   213-8246
                 221-8466   238-9322   244-9431
RQST$ 		#55-2336    56-2373   #142-5728   145-5807  #232-9095   232-9162
R50$  		#56-2373    56-2373    56-2373   #145-5807   145-5807   145-5807  #232-9162   232-9162   232-9162
SETF$S		#119-4947   123-5051   126-5178   126-5180  #160-6345   166-6703
SPERR$		#6-212
SVTK$S		#119-4947   125-5163
WTSE$S		#229-8817   230-9039
$DEF  		#185-7374   185-7376  #235-9224   235-9226
.ENB6 		#79-3269    81-3332   #223-8539   223-8606  #229-8817   230-9005
.INH6 		#79-3269    81-3327   #223-8539   223-8593  #229-8817   230-8970   230-8999
