CDDMG M0003, CONVERT DBL PRECIS	MACRO M1113  27-FEB-85 12:29
TABLE OF CONTENTS

     7-    1	**** CDDMG VERSION M0003 ****
PIPMAC - MACROS FOR PIP, ETC.	MACRO M1113  27-FEB-85 12:29  PAGE 6


    397
CDDMG M0003, CONVERT DBL PRECIS	MACRO M1113  27-FEB-85 12:29  PAGE 7


      1						.TITLE	CDDMG M0003, CONVERT DBL PRECISION TO DECIMAL MAGNITIUDE
						.SBTTL	**** CDDMG VERSION M0003 ****
						.IDENT	/M0003/
      2					; ALTERED TUESDAY 16-APR-74 13:30
      3					;
      4					; COPYRIGHT 1975, DIGITAL EQUIPMENT CORP., MAYNARD MASS.
      5					; COPYRIGHT 1974, DIGITAL EQUIPMENT CORP., MAYNARD MASS.
      6
      7					; THIS SOFTWARE IS FURNISHED TO PURCHASER UNDER A LICENSE FOR USE
      8					; ON A SINGLE COMPUTER SYSTEM AND CAN BE COPIED (WITH INCLUSION
      9					; OF DEC'S COPYRIGHT NOTICE) ONLY FOR USE IN SUCH SYSTEM, EXCEPT
     10					; AS MAY OTHERWISE BE PROVIDED IN WRITING BY DEC.
     11
     12					; THE INFORMATION IN THIS DOCUMENT IS SUBJECT TO CHANGE WITHOUT
     13					; NOTICE AND SHOULD NOT BE CONSTRUED AS A COMMITMENT BY DIGITAL
     14					; EQUIPMENT CORPORATION.
     15
     16					; DEC ASSUMES NO RESPONSIBILITY FOR THE USE OR RELIABILITY
     17					; OF ITS SOFTWARE ON EQUIPMENT WHICH IS NOT SUPPLIED BY DEC.
     18					;
     19					; PETER H. LIPMAN 19-NOV-73
     20					;
     21						.MCALL	CALL,RETURN
     22					;+
     23					; CONVERT DOUBLE PRECISION BINARY NUMBER TO MAGNITUDE DECIMAL
     24					; CALLING SEQUENCE:
     25					;	CALL	$CDDMG
     26					; INPUTS:
     27					;	R0=STRING ADDRESS
     28					;	R1=ADDRESS OF DOUBLE PRECISION NUMBER
     29					;	R2=0 IF SUPPRESSING LEAD ZERO'S, NON ZERO IF NOT
     30					; OUTPUTS:
     31					;	R0=UPDATED STRING POINTER
     32					;	R1,R2 ALTERED, R3-R5 PRESERVED
     33					;-
     34	000000	004567 	000000G		$CDDMG::JSR	R5,$SAVRG
     35
     36						.IF	EQ,R$$EIS
     37	000004	010246 				MOV	R2,-(SP)
     38	000006	010046 				MOV	R0,-(SP)
     39	000010	016102 	000002 			MOV	2(R1),R2	;R2=LOW ORDER VALUE TO BE CONVERTED
     40	000014	011101 				MOV	(R1),R1		;R1=HIGH ORDER VALUE
     41	000016	002432 				BLT	40$		;ONLY 31 BITS ALLOWED
     42	000020	012700 	023420 			MOV	#10000.,R0
     43	000024					CALL	$DDIV		;R1,R2 = QUOTIENT, R0=REMAINDER
     44	000030	005701 				TST	R1		;IF DBL PRECISION QUOTIENT, OVERFLOW
     45	000032	001024 				BNE	40$
     46	000034	010005 				MOV	R0,R5		;REMAINDER TO R5
     47	000036	010204 				MOV	R2,R4		;QUOTIENT TO R4
     48	000040	012600 				MOV	(SP)+,R0	;RESTORE SAVED REGISTERS
     49	000042	012602 				MOV	(SP)+,R2
     50
     51						.IFF
     52						MOV	(R1)+,R4
     53						BLT	40$		;IF HIGH ORDER IS NEG, THEN OVERFLOW
     54						MOV	@R1,R5
     55						DIV	#10000.,R4
CDDMG M0003, CONVERT DBL PRECIS	MACRO M1113  27-FEB-85 12:29  PAGE 7-1
**** CDDMG VERSION M0003 ****

     56						BVS	40$		;BRANCH IF OVERFLOW
     57						.ENDC
     58
     59	000044	010401 				MOV	R4,R1		;PRINT HIGH ORDER DECIMAL DIGITS
     60	000046	001004 				BNE	20$		;BRANCH IF DOUBLE PRECISION
     61	000050	010501 				MOV	R5,R1		;FORMAT SINGLE PRECISION
     62	000052					CALL	$CBDMG		;CONVERT BINARY TO DECIMAL MAGNITUDE
     63	000056					RETURN
     64	000060				20$:	CALL	$CBDMG		;CONVERT THE HIGH ORDER PORTION
     65	000064	114046 				MOVB	-(R0),-(SP)	;SAVE LAST BYTE, WILL BE OVER WRITTEN
     66	000066	010004 				MOV	R0,R4		;AND SAVE ADDRESS TO RESTORE IT
     67	000070	010702 				MOV	PC,R2		;NON ZERO TO ZERO FILL 2ND PART
     68	000072	010501 				MOV	R5,R1
     69					; THE FOLLOWING PRODUCES 5 DIGITS AND I ONLY WANT 4
     70					; THAT IS WHY THE POINTER WAS BACKED UP ONE
     71	000074					CALL	$CBDMG		;CONVERT LOW ORDER DIGITS
     72	000100	112614 				MOVB	(SP)+,@R4	;RESTORE SAVED BYTE
     73	000102					RETURN
     74					;
     75					; NUMBER IS TOO BIG TOO PRINT, OUTPUT 5 "*"
     76	000104				40$:
     77						.IF	EQ,R$$EIS
     78	000104	012600 				MOV	(SP)+,R0
     79	000106	012602 				MOV	(SP)+,R2
     80						.ENDC
     81
     82	000110	012705 	000005 			MOV	#5,R5
     83	000114	112720 	000052 		50$:	MOVB	#'*,(R0)+
     84	000120					SOB	R5,50$
     85	000124					RETURN
     86					;
     87					;
     88					;
     89		000001 				.END
CDDMG M0003, CONVERT DBL PRECIS	MACRO M1113  27-FEB-85 12:29  PAGE 7-2
SYMBOL TABLE

R$$DPB= 000001   	R$$EIS= 000000   	$CBDMG= ****** GX	$DDIV = ****** GX	$$    = 000067
R$$DYM= 000001   	R$$11M= 000001   	$CDDMG  000000RG 	$SAVRG= ****** GX

. ABS.	000000	   000
      	000126	   001
ERRORS DETECTED:  0

VIRTUAL MEMORY USED:  2520 WORDS  ( 10 PAGES)
DYNAMIC MEMORY:  3566 WORDS  ( 13 PAGES)
ELAPSED TIME:  00:00:10
[43,10]CDDMG,[43,20]CDDMG/-SP/CR=[43,30]PIPMAC,CDDMG
CDDMG      CREATED BY  MACRO  ON 27-FEB-85 AT 12:29	PAGE 1

SYMBOL CROSS REFERENCE                                  CREF

SYMBOL	VALUE		REFERENCES

R$$DPB	= 000001	#1-27
R$$DYM	= 000001	#1-29
R$$EIS	= 000000	#1-28       1-38       7-36       7-77
R$$11M	= 000001	#1-25       1-26       7-1
SYS40$	= ******	 1-67
$CBDMG	= ******  GX	 7-62       7-62       7-64       7-64       7-71       7-71
$CDDMG	  000000 RG	#7-34
$DDIV 	= ******  GX	 7-43       7-43
$SAVRG	= ******  GX	 7-34
$$    	= 000067	#7-43       7-43      #7-62       7-62      #7-64       7-64      #7-71       7-71
CDDMG      CREATED BY  MACRO  ON 27-FEB-85 AT 12:29	PAGE 2

MACRO CROSS REFERENCE                                   CREF

MACRO NAME	REFERENCES

ASH   		#1-64
ASHC  		#1-64
CALL  		#7-21      #7-43      #7-62      #7-64      #7-71
DIV   		#1-64
ERRINI		#4-307
ERROUT		#3-215
ERROUX		#3-222
ERROU1		#3-225
ERRP  		#3-247
ERRPX 		#3-253
ERRP1 		#3-256
ERR1  		#3-273
FLDSOF		#5-382
IDENT 		#5-339     #7-1
IDENT1		#5-347      7-1
IDTITL		#5-356
ILLOP 		#1-52      #1-64       1-64
IMPURE		#1-75
MARK  		#1-64
MSG   		#2-124
MSGZ  		#2-129
MSG1  		#2-133
MUL   		#1-64
NOEIS$		#1-39       1-64
PURE. 		#1-84
PURE.D		#1-102
PURE.I		#1-98
RETURN		#7-21      #7-63      #7-73      #7-85
RTT   		#1-64
SOB   		#1-64      #7-84
SXT   		#1-64
XOR   		#1-64
DFLTNM M0101, PROPAGATE DEFAULT	MACRO M1113  27-FEB-85 12:29
TABLE OF CONTENTS

     7-    1	**** DFLTNM VERSION M0101 ****
PIPMAC - MACROS FOR PIP, ETC.	MACRO M1113  27-FEB-85 12:29  PAGE 6


    397
DFLTNM M0101, PROPAGATE DEFAULT	MACRO M1113  27-FEB-85 12:29  PAGE 7


      1						.TITLE	DFLTNM M0101, PROPAGATE DEFAULT NAME AND TYPE
						.SBTTL	**** DFLTNM VERSION M0101 ****
						.IDENT	/M0101/
      2					; ALTERED THURSDAY 21-JUNE-73 10:05
      3					;
      4					; COPYRIGHT 1975, 1985, DIGITAL EQUIPMENT CORP., MAYNARD MASS.
      5					; COPYRIGHT 1974, DIGITAL EQUIPMENT CORP., MAYNARD MASS.
      6					;
      7					;			ALL RIGHTS RESERVED
      8					;
      9					; THIS SOFTWARE IS FURNISHED TO PURCHASER UNDER A LICENSE FOR USE
     10					; ON A SINGLE COMPUTER SYSTEM AND CAN BE COPIED (WITH INCLUSION
     11					; OF DEC'S COPYRIGHT NOTICE) ONLY FOR USE IN SUCH SYSTEM, EXCEPT
     12					; AS MAY OTHERWISE BE PROVIDED IN WRITING BY DEC.
     13
     14					; THE INFORMATION IN THIS DOCUMENT IS SUBJECT TO CHANGE WITHOUT
     15					; NOTICE AND SHOULD NOT BE CONSTRUED AS A COMMITMENT BY DIGITAL
     16					; EQUIPMENT CORPORATION.
     17
     18					; DEC ASSUMES NO RESPONSIBILITY FOR THE USE OR RELIABILITY
     19					; OF ITS SOFTWARE ON EQUIPMENT WHICH IS NOT SUPPLIED BY DEC.
     20					;
     21					; PETER H. LIPMAN 21-JUNE-73
     22					;
     23						.MCALL	FDOF$L,FCSBT$,RETURN
     24	000000					FDOF$L			;DEFINE THE FDB OFFSETS LOCALLY
     25	000000					FCSBT$			;DEFINE THE FDB BITS AND VALUES LOCALLY
     26					;
     27	000000					PURE.I
     28					;+
     29					; SET UP DEFAULT FILE NAME AND TYPE USING PREVIOUS FILE NAME AND TYPE
     30					; AS WELL AS THE STATUS BITS WHICH TELL WHAT WAS EXPLICIT
     31					; IN THE PREVIOUS FILE NAME AND TYPE
     32					; CALLING SEQUENCE:
     33					;	CALL	.DFLTN
     34					; INPUTS:
     35					;	R0 = FDB ADDRESS
     36					; OUTPUTS:
     37					;	ALL REGISTERS PRESERVED
     38					; OPERATION:
     39					;	IN AN ANALOGOUS FASHION TO THE WAY CSI$2 CARRIES THE
     40					; CURRENT DEVICE AND DIRECTORY NAMES FORWARD TO SUCCEEDING SPECS
     41					; THIS ROUTINE IMPLEMENTS CARRING THE FILE NAME AND TYPE FORWARD.
     42					; IF THE NAME/TYPE WAS EXPLICIT AND NOT WILD IN THE PREVIOUS SPEC,
     43					; THEN IT IS CARRIED FORWARD.  IF NO FILE NAME OR TYPE WAS SPECIFIED
     44					; THIS TIME, THEN THE DEFAULT IS LEFT AS IT WAS (CARRIED FORWARD).
     45					; FINALLY IF THE PREVIOUS SPEC WAS A WILD CARD, THEN
     46					; THE DEFAULT IS RESET TO NULL.
     47					;-
     48	000000	004567 	000000G		.DFLTN::JSR	R5,.SAVR1
     49	000004	016002 	000122 			MOV	F.FNB+N.STAT(R0),R2 ;R2=STATUS BITS
     50	000010	032702 	000004 			BIT	#NB.NAM,R2
     51	000014	001421 				BEQ	20$		;BRANCH IF FILE NAME NOT EXPLICIT
     52	000016	016001 	000046 			MOV	F.DFNB(R0),R1
     53	000022	062701 	000006 			ADD	#N.FNAM,R1
     54	000026	032702 	000040 			BIT	#NB.SNM,R2
     55	000032	001007 				BNE	10$		;BRANCH IF FILE NAME WAS "*"
DFLTNM M0101, PROPAGATE DEFAULT	MACRO M1113  27-FEB-85 12:29  PAGE 7-1
**** DFLTNM VERSION M0101 ****

     56	000034	016021 	000110 			MOV	F.FNAM(R0),(R1)+ ;USE THIS FILE NAME FOR NEXT DEFAULT
     57	000040	016021 	000112 			MOV	F.FNAM+2(R0),(R1)+
     58	000044	016021 	000114 			MOV	F.FNAM+4(R0),(R1)+
     59	000050	000403 				BR	20$
     60					;
     61					; WILD CARD FILE NAME INDICATES NULL DEFAULT
     62	000052	005021 			10$:	CLR	(R1)+
     63	000054	005021 				CLR	(R1)+
     64	000056	005021 				CLR	(R1)+
     65	000060	032702 	000002 		20$:	BIT	#NB.TYP,R2
     66	000064	001412 				BEQ	30$		;BRANCH IF FILE TYPE NOT EXPLICIT
     67	000066	016001 	000046 			MOV	F.DFNB(R0),R1
     68	000072	005061 	000014 			CLR	N.FTYP(R1)	;ASSUME NULL DEFAULT FILE TYPE
     69	000076	032702 	000020 			BIT	#NB.STP,R2
     70	000102	001003 				BNE	30$		;BRANCH IF FILE TYPE WAS "*"
     71	000104	016061 	000116 	000014 		MOV	F.FTYP(R0),N.FTYP(R1) ;USE THIS FILE TYPE AS DEFAULT
     72	000112				30$:	RETURN
     73					;
     74					;
     75		000001 				.END
DFLTNM M0101, PROPAGATE DEFAULT	MACRO M1113  27-FEB-85 12:29  PAGE 7-2
SYMBOL TABLE

FA.APD= 000100   	FD.WBH= 000002   	F.EOBB= 000032   	F.STBK= 000036   	N.NEXT= 000022
FA.CRE= 000010   	FO.APD= 000106   	F.ERR = 000052   	F.UNIT= 000136   	N.STAT= 000020
FA.EXT= 000004   	FO.MFY= 000002   	F.FACC= 000043   	F.URBD= 000020   	N.UNIT= 000034
FA.NSP= 000100   	FO.RD = 000001   	F.FFBY= 000014   	F.VBN = 000064   	R$$DPB= 000001
FA.RD = 000001   	FO.UPD= 000006   	F.FNAM= 000110   	F.VBSZ= 000060   	R$$DYM= 000001
FA.SHR= 000040   	FO.WRT= 000016   	F.FNB = 000102   	NB.DEV= 000200   	R$$EIS= 000000
FA.TMP= 000020   	F.ALOC= 000040   	F.FTYP= 000116   	NB.DIR= 000100   	R$$11M= 000001
FA.WRT= 000002   	F.BBFS= 000062   	F.FVER= 000120   	NB.NAM= 000004   	R.FIX = 000001
FD.BLK= 000010   	F.BDB = 000070   	F.HIBK= 000004   	NB.SD1= 000400   	R.VAR = 000002
FD.CCL= 000002   	F.BGBC= 000057   	F.LUN = 000042   	NB.SD2= 001000   	S.FATT= 000016
FD.CR = 000002   	F.BKDN= 000026   	F.MBCT= 000054   	NB.SNM= 000040   	S.FDB = 000140
FD.DIR= 000010   	F.BKDS= 000020   	F.MBC1= 000055   	NB.STP= 000020   	S.FNAM= 000006
FD.FTN= 000001   	F.BKEF= 000050   	F.MBFG= 000056   	NB.SVR= 000010   	S.FNB = 000036
FD.INS= 000010   	F.BKP1= 000051   	F.NRBD= 000024   	NB.TYP= 000002   	S.FNBW= 000017
FD.PLC= 000004   	F.BKST= 000024   	F.NREC= 000030   	NB.VER= 000001   	S.FNTY= 000004
FD.RAH= 000001   	F.BKVB= 000064   	F.OVBS= 000030   	N.DID = 000024   	S.FTYP= 000002
FD.RAN= 000002   	F.CNTG= 000034   	F.RACC= 000016   	N.DVNM= 000032   	S.NFEN= 000020
FD.REC= 000001   	F.DFNB= 000046   	F.RATT= 000001   	N.FID = 000000   	.DFLTN  000000RG    002
FD.RWM= 000001   	F.DSPT= 000044   	F.RCNM= 000034   	N.FNAM= 000006   	.SAVR1= ****** GX
FD.SDI= 000020   	F.DVNM= 000134   	F.RCTL= 000017   	N.FTYP= 000014   	...GBL= 000000
FD.SQD= 000040   	F.EFBK= 000010   	F.RSIZ= 000002   	N.FVER= 000016   	...TPC= 000140
FD.TTY= 000004   	F.EFN = 000050   	F.RTYP= 000000

. ABS.	000000	   000
      	000000	   001
PURE$I	000114	   002
ERRORS DETECTED:  0

VIRTUAL MEMORY USED:  4187 WORDS  ( 17 PAGES)
DYNAMIC MEMORY:  5678 WORDS  ( 21 PAGES)
ELAPSED TIME:  00:00:11
[43,10]DFLTNM,[43,20]DFLTNM/-SP/CR=[43,30]PIPMAC,DFLTNM
DFLTNM     CREATED BY  MACRO  ON 27-FEB-85 AT 12:30	PAGE 1

SYMBOL CROSS REFERENCE                                  CREF

SYMBOL	VALUE		REFERENCES

F.DFNB	= 000046	 7-52       7-67
F.FNAM	= 000110	 7-56       7-57       7-58
F.FNB 	= 000102	 7-49
F.FTYP	= 000116	 7-71
NB.NAM	= 000004	 7-50
NB.SNM	= 000040	 7-54
NB.STP	= 000020	 7-69
NB.TYP	= 000002	 7-65
N.FNAM	= 000006	 7-53
N.FTYP	= 000014	*7-68      *7-71
N.STAT	= 000020	 7-49
RONLY$	= ******	 7-27       7-27
R$$DPB	= 000001	#1-27
R$$DYM	= 000001	#1-29
R$$EIS	= 000000	#1-28       1-38
R$$11M	= 000001	#1-25       1-26       7-1
SYS40$	= ******	 1-67       7-27       7-27
.DFLTN	  000000 RG	#7-48
.SAVR1	= ******  GX	 7-48
DFLTNM     CREATED BY  MACRO  ON 27-FEB-85 AT 12:30	PAGE 2

MACRO CROSS REFERENCE                                   CREF

MACRO NAME	REFERENCES

ASH   		#1-64
ASHC  		#1-64
DIV   		#1-64
ERRINI		#4-307
ERROUT		#3-215
ERROUX		#3-222
ERROU1		#3-225
ERRP  		#3-247
ERRPX 		#3-253
ERRP1 		#3-256
ERR1  		#3-273
FCSBT$		#7-23       7-25
FDOFF$		#7-24       7-24
FDOF$L		#7-23      #7-24
FLDSOF		#5-382
IDENT 		#5-339     #7-1
IDENT1		#5-347      7-1
IDTITL		#5-356
ILLOP 		#1-52      #1-64       1-64
IMPURE		#1-75
MARK  		#1-64
MSG   		#2-124
MSGZ  		#2-129
MSG1  		#2-133
MUL   		#1-64
NOEIS$		#1-39       1-64
PURE. 		#1-84       7-27
PURE.D		#1-102
PURE.I		#1-98       7-27
RETURN		#7-23      #7-72
RTT   		#1-64
SOB   		#1-64
SXT   		#1-64
XOR   		#1-64
ERRPRG M0107, ERROR PRINT OUT (	MACRO M1113  27-FEB-85 12:30
TABLE OF CONTENTS

     7-    1	**** ERRPRG VERSION M0107 ****
PIPMAC - MACROS FOR PIP, ETC.	MACRO M1113  27-FEB-85 12:30  PAGE 6


    397
ERRPRG M0107, ERROR PRINT OUT (	MACRO M1113  27-FEB-85 12:30  PAGE 7


      1						.TITLE	ERRPRG M0107, ERROR PRINT OUT (GCML)
						.SBTTL	**** ERRPRG VERSION M0107 ****
						.IDENT	/M0107/
      2					; ALTERED FRIDAY 10-MAY-74 14:05
      3					;
      4					; COPYRIGHT 1975,1985, DIGITAL EQUIPMENT CORP., MAYNARD MASS.
      5					; COPYRIGHT 1974, DIGITAL EQUIPMENT CORP., MAYNARD MASS.
      6					;
      7					;			ALL RIGHTS RESERVED
      8					;
      9					; THIS SOFTWARE IS FURNISHED TO PURCHASER UNDER A LICENSE FOR USE
     10					; ON A SINGLE COMPUTER SYSTEM AND CAN BE COPIED (WITH INCLUSION
     11					; OF DEC'S COPYRIGHT NOTICE) ONLY FOR USE IN SUCH SYSTEM, EXCEPT
     12					; AS MAY OTHERWISE BE PROVIDED IN WRITING BY DEC.
     13
     14					; THE INFORMATION IN THIS DOCUMENT IS SUBJECT TO CHANGE WITHOUT
     15					; NOTICE AND SHOULD NOT BE CONSTRUED AS A COMMITMENT BY DIGITAL
     16					; EQUIPMENT CORPORATION.
     17
     18					; DEC ASSUMES NO RESPONSIBILITY FOR THE USE OR RELIABILITY
     19					; OF ITS SOFTWARE ON EQUIPMENT WHICH IS NOT SUPPLIED BY DEC.
     20					;
     21					; PETER H. LIPMAN 4-MAY-73
     22					;
     23						.MCALL	CALL,RETURN
     24					;
     25	000000					PURE.I
     26					;+
     27					; ERROR PRINTOUT ROUTINE FOR PROGRAMS WITH GET COMMAND LINE
     28					;	CHECKS FOR @ FILE AND PRINTS COMMAND LINE IF NOT TTY
     29					;	THEN IT CALL ERRPRT.
     30					; CALLING SEQUENCE:
     31					;	CALL	ERRPRG
     32					; INPUTS:
     33					;	R0=FDB ADDRESS FOR PRINTING FILE NAME
     34					;		IF =0, DON'T PRINT FILE NAME
     35					;		IF EVEN, PRINT FILE NAME FROM FILE NAME BLOCK
     36					;		IF ODD, PRINT FILE NAME FROM F.DSPT
     37					;	IF R2 .GE. 0 R2=SIZE OF ERROR STRING
     38					;		TO PRINT AND R3=ADDRESS
     39					;	IF R2 .LT. 0, R2=NEGATIVE RECORD NUMBER
     40					;		OF ERROR MESSAGE, R3=FNB OF ERROR MESSAGE FILE
     41					;	R4=ERROR CODE TO PRINT, IF =0 DON'T PRINT, OTHERWISE ASSUME
     42					;		IT'S A QIOSYM ERROR CODE, AND PRINT IT
     43					;		NOTE: IF R4 IS LOADED FROM THE BYTE F.ERR IN THE FDB
     44					;	AND IFTHE BYTE F.ERR+1 IS NEGATIVE, SUBTRACT 128.
     45					;	FROM R4 BEFORE CALLING ERRPRG.
     46					; OUTPUTS:
     47					;	C=0 IF NO ERRORS
     48					;	C=1 IF FAILED TO PRINT THE ERROR MESSAGE (MO ERROR)
     49					;	R2,R3 PRESERVED
     50					;	R0,R1,R4,R5 ALTERED
     51					;-
     52	000000				ERRPRG::
     53	000000	012701 	000000G			MOV	#GCMLCB,R1	;R1=GET COMMAND LINE CONTROL BLOCK
     54	000004					CALL	.ERPRT
     55	000010					RETURN
ERRPRG M0107, ERROR PRINT OUT (	MACRO M1113  27-FEB-85 12:30  PAGE 7-1
**** ERRPRG VERSION M0107 ****

     56					;
     57		000001 				.END
ERRPRG M0107, ERROR PRINT OUT (	MACRO M1113  27-FEB-85 12:30  PAGE 7-2
SYMBOL TABLE

ERRPRG  000000RG    002	R$$DPB= 000001   	R$$EIS= 000000   	$$    = 000067   	.ERPRT= ****** GX
GCMLCB= ****** GX	R$$DYM= 000001   	R$$11M= 000001

. ABS.	000000	   000
      	000000	   001
PURE$I	000012	   002
ERRORS DETECTED:  0

VIRTUAL MEMORY USED:  2506 WORDS  ( 10 PAGES)
DYNAMIC MEMORY:  3566 WORDS  ( 13 PAGES)
ELAPSED TIME:  00:00:07
[43,10]ERRPRG,[43,20]ERRPRG/-SP/CR=[43,30]PIPMAC,ERRPRG
ERRPRG     CREATED BY  MACRO  ON 27-FEB-85 AT 12:30	PAGE 1

SYMBOL CROSS REFERENCE                                  CREF

SYMBOL	VALUE		REFERENCES

ERRPRG	  000000 RG	#7-52
GCMLCB	= ******  GX	 7-53
RONLY$	= ******	 7-25       7-25
R$$DPB	= 000001	#1-27
R$$DYM	= 000001	#1-29
R$$EIS	= 000000	#1-28       1-38
R$$11M	= 000001	#1-25       1-26       7-1
SYS40$	= ******	 1-67       7-25       7-25
$$    	= 000067	#7-54       7-54
.ERPRT	= ******  GX	 7-54       7-54
ERRPRG     CREATED BY  MACRO  ON 27-FEB-85 AT 12:30	PAGE 2

MACRO CROSS REFERENCE                                   CREF

MACRO NAME	REFERENCES

ASH   		#1-64
ASHC  		#1-64
CALL  		#7-23      #7-54
DIV   		#1-64
ERRINI		#4-307
ERROUT		#3-215
ERROUX		#3-222
ERROU1		#3-225
ERRP  		#3-247
ERRPX 		#3-253
ERRP1 		#3-256
ERR1  		#3-273
FLDSOF		#5-382
IDENT 		#5-339     #7-1
IDENT1		#5-347      7-1
IDTITL		#5-356
ILLOP 		#1-52      #1-64       1-64
IMPURE		#1-75
MARK  		#1-64
MSG   		#2-124
MSGZ  		#2-129
MSG1  		#2-133
MUL   		#1-64
NOEIS$		#1-39       1-64
PURE. 		#1-84       7-25
PURE.D		#1-102
PURE.I		#1-98       7-25
RETURN		#7-23      #7-55
RTT   		#1-64
SOB   		#1-64
SXT   		#1-64
XOR   		#1-64
ERRPRT M0216, ERROR PRINT OUT R	MACRO M1113  27-FEB-85 12:30
TABLE OF CONTENTS

     7-    1	**** ERRPRT VERSION M0216 ****
PIPMAC - MACROS FOR PIP, ETC.	MACRO M1113  27-FEB-85 12:30  PAGE 6


    397
ERRPRT M0216, ERROR PRINT OUT R	MACRO M1113  27-FEB-85 12:30  PAGE 7


      1						.TITLE	ERRPRT M0216, ERROR PRINT OUT ROUTINE
						.SBTTL	**** ERRPRT VERSION M0216 ****
						.IDENT	/M0216/
      2					; ALTERED FRIDAY 4-OCT-74 12:50
      3					;
      4					; COPYRIGHT 1975,1985, DIGITAL EQUIPMENT CORP., MAYNARD MASS.
      5					; COPYRIGHT 1974, DIGITAL EQUIPMENT CORP., MAYNARD MASS.
      6
      7					;		ALL RIGHTS RESERVED
      8					;
      9					; THIS SOFTWARE IS FURNISHED TO PURCHASER UNDER A LICENSE FOR USE
     10					; ON A SINGLE COMPUTER SYSTEM AND CAN BE COPIED (WITH INCLUSION
     11					; OF DEC'S COPYRIGHT NOTICE) ONLY FOR USE IN SUCH SYSTEM, EXCEPT
     12					; AS MAY OTHERWISE BE PROVIDED IN WRITING BY DEC.
     13
     14					; THE INFORMATION IN THIS DOCUMENT IS SUBJECT TO CHANGE WITHOUT
     15					; NOTICE AND SHOULD NOT BE CONSTRUED AS A COMMITMENT BY DIGITAL
     16					; EQUIPMENT CORPORATION.
     17
     18					; DEC ASSUMES NO RESPONSIBILITY FOR THE USE OR RELIABILITY
     19					; OF ITS SOFTWARE ON EQUIPMENT WHICH IS NOT SUPPLIED BY DEC.
     20					;
     21					; PETER H. LIPMAN 4-MAY-73
     22					;
     23
     24						.MCALL	FDOF$L,FCSBT$,FILIO$,GCMLD$,CSI$
     25	000000					FDOF$L			;DEFINE THE FDB OFFSETS LOCALLY
     26	000000					FCSBT$			;DEFINE THE FCS BITS AND VALUES LOCALLY
     27	000000					FILIO$			;DEFINE THE I/O FUNCTION CODES LOCALLY
     28	000000					GCMLD$			;DEFINE THE GET COMMAND LINE OFFSETS
     29	000000					CSI$			;DEFINE THE CSI BLOCK OFFSETS LOCALLY
     30					;
     31						.MCALL	CALL,RETURN,QIO$S,WTSE$S
     32
     33	000000					IMPURE
     34
     35	000000				.MOPRM::.BLKW	19.
     36	000046				.MOFMT::.BLKW	1
     37	000050				MOSTR1:	.BLKB	64.
     38	000150				MOSTR2:	.BLKB	68.
     39
     40	000000					.PSECT
     41
     42	000000					MSGZ	NULL,<>
     43	000000					MSG	SYDV,<SY>
     44	000000					MSG	EP00,<%N%VA%VA>
     45	000000					MSGZ	EP01,<%N%VA%VA%N%VA>
     46		000026 				EP00SZ=EP00SZ+EP01SZ
     47	000000					MSG	EP02,<%N%VA%VA>
     48	000000					MSGZ	EP03,<%N%VA%VA%N%VA:%VA%VA%VA>
     49		000040 				EP02SZ=EP02SZ+EP03SZ
     50	000000					MSG	EP04,<%N%VA%VA>
     51	000000					MSGZ	EP05,<%N%VA%VA%N%2A%O:%VA%X%VA>
     52		000041 				EP04SZ=EP04SZ+EP05SZ
     53
     54
     55	000000					PURE.D
ERRPRT M0216, ERROR PRINT OUT R	MACRO M1113  27-FEB-85 12:30  PAGE 7-1
**** ERRPRT VERSION M0216 ****

     56	000000	000013'	000003'		MOTBL:	.WORD	EP01MG,EP00MG
     57	000004	000041'	000031'			.WORD	EP03MG,EP02MG
     58	000010	000101'	000071'			.WORD	EP05MG,EP04MG
     59	000014	000002 			.ERLUN::.WORD	2		;LUN TO OUTPUT ERROR MESSAGE
     60	000016	000040 			.EREFN::.WORD	32.		;EFN TO USE FOR ERROR MESSAGE
     61					;
     62					;+
     63					; PRINT ERROR MESSAGE
     64					; CALLING SEQUENCE
     65					;	CALL	.ERPRT
     66					; INPUTS:
     67					;	R0=FDB ADDRESS FOR PRINTING FILE NAME
     68					;		IF =0, DON'T PRINT FILE NAME
     69					;		IF EVEN, PRINT FILE NAME FROM FILE NAME BLOCK
     70					;		IF ODD, PRINT FILE NAME FROM F.DSPT
     71					;	R1=GET COMMAND LINE CONTROL BLOCK OR 0
     72					;		IF NON ZERO, SEE IF COMMAND WAS FROM @FILE,
     73					;		IF IT WAS, ECHO THE COMMAND LINE AS WELL
     74					;	IF R2 .GE. 0, R2=SIZE OF ERROR STRING
     75					;		TO PRINT AND R3=ADDRESS
     76					;	IF R2 .LT. 0, R2=NEGATIVE RECORD NUMBER
     77					;		OF ERROR MESSAGE, R3=FNB OF ERROR MESSAGE FILE
     78					;	R4=ERROR CODE TO PRINT, IF =0 DON'T PRINT, OTHERWISE ASSUME
     79					;		IT'S A QIOSYM ERROR CODE, AND PRINT IT
     80					;		NOTE: IF R4 WAS LOADED FROM TE BYTE F.ERR
     81					;		IN THE FDB AND F.ERR+1 IS NEGATIVE, THEN SUBTRACT
     82					;		128. FROM R4 BEFORE CALLING ERRPRT.
     83					; OUTPUTS:
     84					;	C=0 IF NO ERRORS
     85					;	C=1 IF FAILED TO PRINT THE ERROR MESSAGE (MO ERROR)
     86					;	R2,R3 PRESERVED
     87					;	R0,R1,R4,R5 ALTERED
     88					;-
     89	000020					PURE.I
     90	000000	005001 			ERRPRT::CLR	R1		;NO GET COMMAND LINE CONTROL BLOCK
     91	000002				.ERPRT::
     92	000002	012705 	000000'			MOV	#.MOPRM,R5	;R5=PARAMETER CONTROL BLOCK FOR EDMSG
     93	000006	005067 	000046'			CLR	.MOFMT		;ASSUME NO COMMAND LINE ECHO
     94	000012	005701 				TST	R1		;IS THERE A COMMAND FILE
     95	000014	001416 				BEQ	5$		;BRANCH IF NO
     96	000016	132761 	000004 	000017 		BITB	#FD.TTY,F.RCTL(R1) ;ARE COMMANDS FROM TTY
     97	000024	001012 				BNE	5$		;BRANCH IF YES
     98	000026	005267 	000046'			INC	.MOFMT		;USING LONG FORM FORMAT MESSAGE
     99	000032	012725 	000000G			MOV	#MOIDSZ,(R5)+	;SET DESCRIPTOR FOR PROG ID
    100	000036	012725 	000000G			MOV	#MOIDMG,(R5)+
    101	000042	016125 	000146 			MOV	G.CMLD(R1),(R5)+	;DESCRIPTOR FOR COMMAND LINE
    102	000046	016125 	000150 			MOV	G.CMLD+2(R1),(R5)+
    103	000052	012725 	000000G		5$:	MOV	#MOIDSZ,(R5)+	;DESCRIPTOR FOR PROGRAM ID
    104	000056	012725 	000000G			MOV	#MOIDMG,(R5)+
    105	000062	010246 				MOV	R2,-(SP)	;SAVE ERROR MESSAGE PARAMETERS
    106	000064	010346 				MOV	R3,-(SP)
    107	000066	010446 				MOV	R4,-(SP)	;SAVE FCS ERROR CODE
    108	000070	010046 				MOV	R0,-(SP)
    109	000072	005702 				TST	R2		;
    110	000074	002024 				BGE	20$		;BRANCH IF MESSAGE STRING SPECIFIED
    111	000076	012700 	000050'			MOV	#MOSTR1,R0	;R0=STRING ADDRESS TO STORE MESSAGE
    112	000102	005402 				NEG	R2		;MAKE MESSAGE NUMBER POSITIVE
ERRPRT M0216, ERROR PRINT OUT R	MACRO M1113  27-FEB-85 12:30  PAGE 7-2
**** ERRPRT VERSION M0216 ****

    113	000104	010301 				MOV	R3,R1		;R1=MESSAGE FILE FNB
    114	000106					CALL	.GERRM		;READ THE ERROR MESSAGE FROM THE FILE
    115	000112	103012 				BCC	10$		;BRANCH IF SUCCESSFUL
    116					;
    117					; FAILED TO GET THE ERROR STRING, SAY "ERROR CODE N"
    118					;
    119	000114	010246 				MOV	R2,-(SP)	;STORE ERROR CODE
    120	000116	010602 				MOV	SP,R2		;AND POINT R2 AT IT
    121	000120	012701 	000000G			MOV	#FC03MG,R1	;"ERROR RODE %D."
    122	000124					CALL	$EDMSG		;FORM THIS STRING INSTEAD
    123	000130	010001 				MOV	R0,R1		;
    124	000132	005726 				TST	(SP)+		;POP THE ERROR CODE
    125	000134	162701 	000050'			SUB	#MOSTR1,R1	;R1=SIZE OF STRING
    126	000140	010102 			10$:	MOV	R1,R2		;R2=SIZE
    127	000142	012703 	000050'			MOV	#MOSTR1,R3	;R3=ADDRESS OF STRING
    128	000146	010225 			20$:	MOV	R2,(R5)+	;SIZE OF STRING
    129	000150	001002 				BNE	30$		;
    130	000152	012703 	000000'			MOV	#NULLMG,R3	;USE NULL STRING IF SIZE=0
    131	000156	010325 			30$:	MOV	R3,(R5)+	;ADDRESS OF STRING
    132	000160	012600 				MOV	(SP)+,R0	;RESTORE FDB ADDRESS
    133	000162	001467 				BEQ	ERRCOD		;BRANCH IF NO FILENAME OUTPUT
    134	000164	062767 	000002 	000046'		ADD	#2,.MOFMT	;FORMAT NO. 2,3 IF USING F.DSPT
    135	000172	032700 	000001 			BIT	#1,R0		;
    136	000176	001433 				BEQ	60$		;BRANCH IF TAKING FILENAME FROM FNB
    137					;
    138					; OUTPUT FILENAME BLOCK FROM F.DSPT
    139					;
    140	000200	042700 	000001 			BIC	#1,R0		;RESET THE LOW ORDER BIT
    141	000204	016004 	000044 			MOV	F.DSPT(R0),R4	;GET THE STRING DESCRIPTOR
    142	000210	001403 				BEQ	35$		;BRANCH IF IT'S NULL
    143	000212	005714 				TST	(R4)		;NULL DEVICE STRING?
    144	000214	001006 				BNE	40$		;BRANCH IF NO
    145	000216	022424 				CMP	(R4)+,(R4)+
    146	000220	012725 	000002 		35$:	MOV	#SYDVSZ,(R5)+	;USE SYSTEM DEVICE
    147	000224	012725 	000001'			MOV	#SYDVMG,(R5)+
    148	000230	000402 				BR	50$
    149	000232	012425 			40$:	MOV	(R4)+,(R5)+	;MOVE USER SPECIFIED SIZE
    150	000234	012425 				MOV	(R4)+,(R5)+	;AND ADDRESS OF DEVICE STRING
    151	000236				50$:	CALL	GTDRNM		;NOW GET DIRECTORY STRING
    152	000242	005704 				TST	R4		;IS DESCRIPTOR POINTER NULL
    153	000244	001404 				BEQ	52$		;BRANCH IF YES
    154	000246	012425 				MOV	(R4)+,(R5)+	;IS FILE NAME STRING NULL?
    155	000250	001403 				BEQ	55$		;BRANCH IF YES
    156	000252	011425 				MOV	(R4),(R5)+	;NO, USE THE STRING ADDRESS
    157	000254	000432 				BR	ERRCOD		;
    158	000256	005025 			52$:	CLR	(R5)+
    159	000260	012725 	000000'		55$:	MOV	#NULLMG,(R5)+	;YES, POINT AT A NULL BYTE
    160	000264	000426 				BR	ERRCOD		;
    161					;
    162					; PRINT FILE NAME FROM FNB
    163					;
    164	000266	062767 	000002 	000046'	60$:	ADD	#2,.MOFMT	;FORMAT NO. 4,5 FOR FNB
    165	000274	010015 				MOV	R0,(R5)
    166	000276	062725 	000134 			ADD	#F.DVNM,(R5)+	;POINTER TO 2 CHAR DEVICE NAME
    167	000302	016025 	000136 			MOV	F.UNIT(R0),(R5)+ ;UNIT NUMBER
    168	000306	016004 	000044 			MOV	F.DSPT(R0),R4	;
    169	000312	001401 				BEQ	65$		;BRANCH IF DESCRIPTOR POINTER IS NULL
ERRPRT M0216, ERROR PRINT OUT R	MACRO M1113  27-FEB-85 12:30  PAGE 7-3
**** ERRPRT VERSION M0216 ****

    170	000314	022424 				CMP	(R4)+,(R4)+	;R4=DIRECTORY STRING DESCRIPTOR
    171	000316				65$:	CALL	GTDRNM		;GET DIRECTORY STRING
    172	000322	010004 				MOV	R0,R4		;
    173	000324	062704 	000110 			ADD	#F.FNB+N.FNAM,R4 ;R4=FNB ADDRESS
    174	000330	012703 	000005 			MOV	#S.FNTY+1,R3	;NO. OF WORDS IN FILE NAME TYPE, VER
    175	000334	012425 			70$:	MOV	(R4)+,(R5)+	;MOVE NAME, TYPE, VERSION
    176	000336					SOB	R3,70$
    177	000342				ERRCOD:
    178	000342	012601 				MOV	(SP)+,R1	;R1=FCS ERROR CODE
    179	000344	001416 				BEQ	10$		;BRANCH IF NOT PRINTING ERR CODE
    180	000346	012700 	000150'			MOV	#MOSTR2,R0
    181	000352	012720 	026440 			MOV	#" -,(R0)+	;PUT "--" IN STRING
    182	000356	012720 	020055 			MOV	#"- ,(R0)+
    183	000362					CALL	.FCSER		;GET FCS ERROR MESSAGE
    184	000366	162700 	000150'			SUB	#MOSTR2,R0	;R0=SIZE OF STRING
    185	000372	010025 				MOV	R0,(R5)+	;STORE SIZE
    186	000374	012725 	000150'			MOV	#MOSTR2,(R5)+	;AND ADDRESS OF FCS ERR MSG
    187	000400	000403 				BR	20$		;
    188	000402	005025 			10$:	CLR	(R5)+		;NULL ERR MESSAGE
    189	000404	012725 	000000'			MOV	#NULLMG,(R5)+
    190					;
    191					; NOW FORM AND OUTPUT THE FULL MESSAGE
    192					;
    193	000410	012700 	000000G		20$:	MOV	#.ERRBF,R0	;R0=BUFFER ADDRESS
    194	000414	012702 	000000'			MOV	#.MOPRM,R2	;R2=PARAMETER BLOCK
    195	000420	016701 	000046'			MOV	.MOFMT,R1	;R1=FORMAT STRING NUMBER
    196	000424	006301 				ASL	R1		;FORM INDEX INTO FORMAT TABLE
    197	000426	016101 	000000'			MOV	MOTBL(R1),R1	;R1=FORMAT STRING
    198	000432					CALL	$EDMSG		;FORM THE MESSAGE STRING
    199	000436					QIO$S	#IO.WVB,.ERLUN,.EREFN,,,,<#.ERRBF,R1>
    200	000474	103405 				BCS	30$
    201	000476					WTSE$S	.EREFN
    202	000510	012603 			30$:	MOV	(SP)+,R3
    203	000512	012602 				MOV	(SP)+,R2
    204	000514					RETURN
ERRPRT M0216, ERROR PRINT OUT R	MACRO M1113  27-FEB-85 12:30  PAGE 8
**** ERRPRT VERSION M0216 ****

    206
    207					;+
    208					; GET DIRECTORY STRING
    209					;
    210					; CALLING SEQUENCE:
    211					;
    212					;	CALL	GTDRNM
    213					;
    214					; INPUTS:
    215					;
    216					;	R4=STRING DESCRIPTOR OF USER SPECIFIED DIRECTORY STRING OR 0
    217					;	R5=PARAMETER BLOCK ADDRESS
    218					;
    219					; OUTPUTS:
    220					;
    221					;	R1,R2 ALTERED
    222					;	IF INPUT R4 WAS NON ZERO, R4=INPUT R4+4, OTHERWISE R4=0
    223					;	(R5)=SIZE OF DIRECTORY STRING
    224					;	2(R5)=ADDRESS OF DIRECTORY STRING
    225					;	R5=INPUT R5+4
    226					;
    227					; OPERATION:
    228					;
    229					; IF THE STRING DESCRIPTOR ADDRESSED BY R4 IS NOT NULL THEN THIS STRING
    230					; IS USED.
    231					; IF IT IS NULL, THEN THE DEFAULT DIRECTORY STRING IS USED.
    232					;-
    233	000516				.GDRNM::
    234	000516				GTDRNM:
    235	000516	005704 				TST	R4		;IS DIRECTORY STRING DESCRIPTOR NULL?
    236	000520	001406 				BEQ	15$		;BRANCH IF YES
    237	000522	005714 				TST	(R4)		;IS DIRECTORY STRING DESCRIPTOR NULL?
    238	000524	001403 				BEQ	10$		;BRANCH IF YES
    239	000526	012425 				MOV	(R4)+,(R5)+	;NO, USE IT
    240	000530	012425 				MOV	(R4)+,(R5)+
    241	000532					RETURN
    242	000534	022424 			10$:	CMP	(R4)+,(R4)+	;RETURN R4 POINTING TO NEXT STRING
    243	000536				15$:	CALL	.RDFDR		;GET DEFAULT DIRECTORY STRING
    244	000542	010125 				MOV	R1,(R5)+	;STORE SIZE
    245	000544	001002 				BNE	20$		;BRANCH IF NOT NULL
    246	000546	012702 	000000'			MOV	#NULLMG,R2	;POINT TO NULL MESSAGE
    247	000552	010225 			20$:	MOV	R2,(R5)+	;STORE ADDRESS
    248
    249	000554					RETURN
    250
    251	000000					.PSECT
    252	000000					MSGZ	SYNT,<COMMAND SYNTAX ERROR%N%VA>
    253
    254	000000					PURE.I
    255
    256					;+
    257					; PRINT OUT CSI$1 COMMAND SYNTAX ERROR
    258					;
    259					; CALLING SEQUENCE:
    260					;
    261					;	CALL	.SYNER
    262					;
ERRPRT M0216, ERROR PRINT OUT R	MACRO M1113  27-FEB-85 12:30  PAGE 8-1
**** ERRPRT VERSION M0216 ****

    263					; INPUTS:
    264					;
    265					;	R0=CSI CONTROL BLOCK ADDRESS
    266					;
    267					; OUTPUTS:
    268					;
    269					;	THIS ROUTINE DOES NOT RETURN, IT EXITS VIA ERROUX
    270					;-
    271	000556				.SYNER::
    272	000556	012702 	000000'			MOV	#.MOPRM,R2	;R2=EDMSG PARAMETER CONTROL BLOCK
    273	000562	016012 	000016 			MOV	C.FILD(R0),(R2)	;DESCRIPTOR OF CSI ERROR STRING
    274	000566	016062 	000020 	000002 		MOV	C.FILD+2(R0),2(R2)
    275	000574	012700 	000050'			MOV	#MOSTR1,R0
    276	000600	012701 	000132'			MOV	#SYNTMG,R1
    277	000604					CALL	$EDMSG		;FORM SYNTAX ERROR MESSAGE
    278	000610	010102 				MOV	R1,R2		;SIZE OF MESSAGE IN R2
    279	000612	012703 	000050'			MOV	#MOSTR1,R3	;ADDRESS IN R3
    280	000616					ERROUX			;PRINT ERROR AND EXIT
	000616	104403 				TRAP	X
	000620	000000 	000000 			.WORD	0,0
    281
    282					;
    283					;
    284		000001 				.END
ERRPRT M0216, ERROR PRINT OUT R	MACRO M1113  27-FEB-85 12:30  PAGE 8-2
SYMBOL TABLE

CS.DIF= 000002   	FD.CCL= 000002   	F.HIBK= 000004   	IO.DAC= 010000   	N.FTYP= 000014
CS.DVF= 000004   	FD.CR = 000002   	F.LUN = 000042   	IO.DEL= 012400   	N.FVER= 000016
CS.EQU= 000040   	FD.DIR= 000010   	F.MBCT= 000054   	IO.DET= 002000   	N.NEXT= 000022
CS.INP= 000001   	FD.FTN= 000001   	F.MBC1= 000055   	IO.ENA= 006000   	N.STAT= 000020
CS.MOR= 000020   	FD.INS= 000010   	F.MBFG= 000056   	IO.EXT= 011400   	N.UNIT= 000034
CS.NMF= 000001   	FD.PLC= 000004   	F.NRBD= 000024   	IO.FNA= 004400   	R$$DPB= 000001
CS.OUT= 000002   	FD.RAH= 000001   	F.NREC= 000030   	IO.KIL= 000012   	R$$DYM= 000001
CS.WLD= 000010   	FD.RAN= 000002   	F.OVBS= 000030   	IO.LOV= 001010   	R$$EIS= 000000
C.CMLD= 000002   	FD.REC= 000001   	F.RACC= 000016   	IO.LTK= 000050   	R$$MSG= 000000
C.DEVD= 000006   	FD.RWM= 000001   	F.RATT= 000001   	IO.RAT= 013000   	R$$11M= 000001
C.DIRD= 000012   	FD.SDI= 000020   	F.RCNM= 000034   	IO.RDN= 000022   	R.FIX = 000001
C.DSDS= 000006   	FD.SQD= 000040   	F.RCTL= 000017   	IO.RLB= 001000   	R.VAR = 000002
C.FILD= 000016   	FD.TTY= 000004   	F.RSIZ= 000002   	IO.RNA= 005400   	SYDVMG= 000001R     003
C.MKW1= 000024   	FD.WBH= 000002   	F.RTYP= 000000   	IO.RTK= 000060   	SYDVSZ= 000002
C.MKW2= 000026   	FO.APD= 000106   	F.STBK= 000036   	IO.RVB= 010400   	SYNTMG= 000132R     003
C.SIZE= 000054   	FO.MFY= 000002   	F.UNIT= 000136   	IO.UNL= 000042   	SYNTSZ= 000032
C.STAT= 000001   	FO.RD = 000001   	F.URBD= 000020   	IO.WAT= 013400   	S.FATT= 000016
C.SWAD= 000022   	FO.UPD= 000006   	F.VBN = 000064   	IO.WLB= 000400   	S.FDB = 000140
C.TYPR= 000000   	FO.WRT= 000016   	F.VBSZ= 000060   	IO.WVB= 011000   	S.FNAM= 000006
EP00MG= 000003R     003	F.ALOC= 000040   	GE.BIF= 177775   	IQ.Q  = 000002   	S.FNB = 000036
EP00SZ= 000026   	F.BBFS= 000062   	GE.CLO= 000004   	IQ.X  = 000001   	S.FNBW= 000017
EP01MG= 000013R     003	F.BDB = 000070   	GE.COM= 000001   	MOIDMG= ****** GX	S.FNTY= 000004
EP01SZ= 000016   	F.BGBC= 000057   	GE.EOF= 177766   	MOIDSZ= ****** GX	S.FTYP= 000002
EP02MG= 000031R     003	F.BKDN= 000026   	GE.IND= 000002   	MOSTR1  000050R     002	S.NFEN= 000020
EP02SZ= 000040   	F.BKDS= 000020   	GE.IOR= 177777   	MOSTR2  000150R     002	X     = 000003
EP03MG= 000041R     003	F.BKEF= 000050   	GE.LC = 000010   	MOTBL   000000R     004	$EDMSG= ****** GX
EP03SZ= 000030   	F.BKP1= 000051   	GE.MDE= 177774   	NB.DEV= 000200   	$$    = 000067
EP04MG= 000071R     003	F.BKST= 000024   	GE.OPR= 177776   	NB.DIR= 000100   	$$$ARG= 000002
EP04SZ= 000041   	F.BKVB= 000064   	GTDRNM  000516R     005	NB.NAM= 000004   	$$$T1 = 000010
EP05MG= 000101R     003	F.CNTG= 000034   	G.CMLD= 000146   	NB.SD1= 000400   	.EREFN  000016RG    004
EP05SZ= 000031   	F.DFNB= 000046   	G.DPRM= 000160   	NB.SD2= 001000   	.ERLUN  000014RG    004
ERRCOD  000342R     005	F.DSPT= 000044   	G.ERR = 000140   	NB.SNM= 000040   	.ERPRT  000002RG    005
ERRPRT  000000RG    005	F.DVNM= 000134   	G.ISIZ= 000020   	NB.STP= 000020   	.ERRBF= ****** GX
FA.APD= 000100   	F.EFBK= 000010   	G.MODE= 000141   	NB.SVR= 000010   	.FCSER= ****** GX
FA.CRE= 000010   	F.EFN = 000050   	G.PSDS= 000142   	NB.TYP= 000002   	.GDRNM  000516RG    005
FA.EXT= 000004   	F.EOBB= 000032   	IO.ACE= 007400   	NB.VER= 000001   	.GERRM= ****** GX
FA.NSP= 000100   	F.ERR = 000052   	IO.ACR= 006400   	NULLMG= 000000R     003	.MOFMT  000046RG    002
FA.RD = 000001   	F.FACC= 000043   	IO.ACW= 007000   	NULLSZ= 000001   	.MOPRM  000000RG    002
FA.SHR= 000040   	F.FFBY= 000014   	IO.APC= 014000   	N.DID = 000024   	.RDFDR= ****** GX
FA.TMP= 000020   	F.FNAM= 000110   	IO.APV= 014010   	N.DVNM= 000032   	.SYNER  000556RG    005
FA.WRT= 000002   	F.FNB = 000102   	IO.ATT= 001400   	N.FID = 000000   	...GBL= 000000
FC03MG= ****** GX	F.FTYP= 000116   	IO.CLN= 003400   	N.FNAM= 000006   	...TPC= 000140
FD.BLK= 000010   	F.FVER= 000120   	IO.CRE= 012000

. ABS.	000000	   000
      	000000	   001
IMPURE	000254	   002
MSGSTR	000164	   003
PURE$D	000020	   004
PURE$I	000624	   005
ERRORS DETECTED:  0

VIRTUAL MEMORY USED:  5717 WORDS  ( 23 PAGES)
DYNAMIC MEMORY:  6734 WORDS  ( 25 PAGES)
ELAPSED TIME:  00:00:22
[43,10]ERRPRT,[43,20]ERRPRT/-SP/CR=[43,30]PIPMAC,ERRPRT
ERRPRT     CREATED BY  MACRO  ON 27-FEB-85 AT 12:30	PAGE 1

SYMBOL CROSS REFERENCE                                  CREF

SYMBOL	VALUE		REFERENCES

C.FILD	= 000016	 8-273      8-274
EP00MG	= 000003 R	#7-44       7-44       7-56
EP00SZ	= 000026	#7-44       7-46      #7-46
EP01MG	= 000013 R	#7-45       7-45       7-56
EP01SZ	= 000016	#7-45       7-46
EP02MG	= 000031 R	#7-47       7-47       7-57
EP02SZ	= 000040	#7-47       7-49      #7-49
EP03MG	= 000041 R	#7-48       7-48       7-57
EP03SZ	= 000030	#7-48       7-49
EP04MG	= 000071 R	#7-50       7-50       7-58
EP04SZ	= 000041	#7-50       7-52      #7-52
EP05MG	= 000101 R	#7-51       7-51       7-58
EP05SZ	= 000031	#7-51       7-52
ERRCOD	  000342 R	 7-133      7-157      7-160     #7-177
ERRPRT	  000000 RG	#7-90
FC03MG	= ******  GX	 7-121
FD.TTY	= 000004	 7-96
F.DSPT	= 000044	 7-141      7-168
F.DVNM	= 000134	 7-166
F.FNB 	= 000102	 7-173
F.RCTL	= 000017	 7-96
F.UNIT	= 000136	 7-167
GTDRNM	  000516 R	 7-151      7-151      7-171      7-171     #8-234
G.CMLD	= 000146	 7-101      7-102
IO.WVB	= 011000	 7-199
MOIDMG	= ******  GX	 7-100      7-104
MOIDSZ	= ******  GX	 7-99       7-103
MOSTR1	  000050 R	#7-37       7-111      7-125      7-127      8-275      8-279
MOSTR2	  000150 R	#7-38       7-180      7-184      7-186
MOTBL 	  000000 R	#7-56       7-197
MSGBL.	= ******	 7-42       7-43       7-44       7-45       7-47       7-48       7-50       7-51       8-252
NULLMG	= 000000 R	#7-42       7-42       7-130      7-159      7-189      8-246
NULLSZ	= 000001	#7-42
N.FNAM	= 000006	 7-173
RONLY$	= ******	 7-42       7-42       7-43       7-43       7-44       7-44       7-45       7-45       7-47
                         7-47       7-48       7-48       7-50       7-50       7-51       7-51       7-55       7-55
                         7-89       7-89       8-252      8-252      8-254      8-254
R$$DPB	= 000001	#1-27
R$$DYM	= 000001	#1-29
R$$EIS	= 000000	#1-28       1-38
R$$MSG	= 000000	 7-42       7-42       7-43       7-43       7-44       7-44       7-45       7-45       7-47
                         7-47       7-48       7-48       7-50       7-50       7-51       7-51       8-252      8-252
R$$11M	= 000001	#1-25       1-26       7-1
SYDVMG	= 000001 R	#7-43       7-43       7-147
SYDVSZ	= 000002	#7-43       7-146
SYNTMG	= 000132 R	#8-252      8-252      8-276
SYNTSZ	= 000032	#8-252
SYS40$	= ******	 1-67       7-33       7-33       7-42       7-42       7-43       7-43       7-44       7-44
                         7-45       7-45       7-47       7-47       7-48       7-48       7-50       7-50       7-51
                         7-51       7-55       7-55       7-89       7-89       8-252      8-252      8-254      8-254
S.FNTY	= 000004	 7-174
X     	= 000003	#8-280      8-280
ERRPRT     CREATED BY  MACRO  ON 27-FEB-85 AT 12:30	PAGE 2

SYMBOL CROSS REFERENCE                                  CREF

SYMBOL	VALUE		REFERENCES

$EDMSG	= ******  GX	 7-122      7-122      7-198      7-198      8-277      8-277
$$    	= 000067	#7-114      7-114     #7-122      7-122     #7-151      7-151     #7-171      7-171     #7-183
                         7-183     #7-198      7-198     #8-243      8-243     #8-277      8-277
$$$ARG	= 000002	#7-199      7-199      7-199      7-199      7-199      7-199      7-199      7-199      7-199
                         7-199      7-199      7-199
$$$T1 	= 000010	#7-199      7-199
.EREFN	  000016 RG	#7-60       7-199      7-201
.ERLUN	  000014 RG	#7-59       7-199
.ERPRT	  000002 RG	#7-91
.ERRBF	= ******  GX	 7-193      7-199
.FCSER	= ******  GX	 7-183      7-183
.GDRNM	  000516 RG	#8-233
.GERRM	= ******  GX	 7-114      7-114
.MOFMT	  000046 RG	#7-36      *7-93      *7-98      *7-134     *7-164      7-195
.MOPRM	  000000 RG	#7-35       7-92       7-194      8-272
.RDFDR	= ******  GX	 8-243      8-243
.SYNER	  000556 RG	#8-271
ERRPRT     CREATED BY  MACRO  ON 27-FEB-85 AT 12:30	PAGE 3

MACRO CROSS REFERENCE                                   CREF

MACRO NAME	REFERENCES

ASH   		#1-64
ASHC  		#1-64
CALL  		#7-31      #7-114     #7-122     #7-151     #7-171     #7-183     #7-198     #8-243     #8-277
CSI$  		#7-24      #7-29
DIR$  		#7-199      7-199     #7-201      7-201
DIV   		#1-64
ERRINI		#4-307
ERROUT		#3-215
ERROUX		#3-222      8-280
ERROU1		#3-225     #8-280
ERRP  		#3-247
ERRPX 		#3-253
ERRP1 		#3-256
ERR$  		#7-199     #7-201
ERR1  		#3-273     #8-280
FCSBT$		#7-24       7-26
FDOFF$		#7-25       7-25
FDOF$L		#7-24      #7-25
FILIO$		#7-24       7-27
FLDSOF		#5-382
GCMLD$		#7-24      #7-28
IDENT 		#5-339     #7-1
IDENT1		#5-347      7-1
IDTITL		#5-356
ILLOP 		#1-52      #1-64       1-64
IMPURE		#1-75      #7-33
MARK  		#1-64
MOV$  		#7-199     #7-199      7-199      7-199      7-199      7-199      7-199      7-199     #7-201      7-201
MSG   		#2-124     #7-43      #7-44      #7-47      #7-50
MSGZ  		#2-129     #7-42      #7-45      #7-48      #7-51      #8-252
MSG1  		#2-133     #7-42      #7-43      #7-44      #7-45      #7-47      #7-48      #7-50      #7-51      #8-252
MUL   		#1-64
MVB$  		#7-199     #7-199
NOEIS$		#1-39       1-64
PURE. 		#1-84       7-42       7-43       7-44       7-45       7-47       7-48       7-50       7-51       7-55
                 7-89       8-252      8-254
PURE.D		#1-102      7-55
PURE.I		#1-98       7-89       8-254
QDPB$S		#7-199     #7-199
QIO$S 		#7-31      #7-199
RETURN		#7-31       7-204      8-241      8-249
RTT   		#1-64
RVP$  		#7-199      7-199
SOB   		#1-64      #7-176
SXT   		#1-64
WTSE$S		#7-31       7-201
XOR   		#1-64
ERRTRP M0005, ERROR TRAP HANDLE	MACRO M1113  27-FEB-85 12:30
TABLE OF CONTENTS

     7-    1	**** ERRTRP VERSION M0005 ****
PIPMAC - MACROS FOR PIP, ETC.	MACRO M1113  27-FEB-85 12:30  PAGE 6


    397
ERRTRP M0005, ERROR TRAP HANDLE	MACRO M1113  27-FEB-85 12:30  PAGE 7


      1						.TITLE	ERRTRP M0005, ERROR TRAP HANDLER
						.SBTTL	**** ERRTRP VERSION M0005 ****
						.IDENT	/M0005/
      2
      3					;
      4					; COPYRIGHT   1975, 1985,  DIGITAL  EQUIPMENT  CORP.,  MAYNARD,   MASS.
      5					; COPYRIGHT   1974,  DIGITAL  EQUIPMENT  CORP.,  MAYNARD,   MASS.
      6					;
      7					;			ALL RIGHTS RESERVED
      8					;
      9					; THIS SOFTWARE IS FURNISHED TO PURCHASER UNDER A LICENSE FOR USE
     10					; ON A  SINGLE COMPUTER SYSTEM AND CAN BE  COPIED (WITH INCLUSION
     11					; OF DEC'S COPYRIGHT  NOTICE) ONLY FOR USE IN SUCH SYSTEM, EXCEPT
     12					; AS MAY OTHERWISE BE PROVIDED IN WRITING BY DEC.
     13					;
     14					; THE  INFORMATION  IN THIS DOCUMENT IS SUBJECT TO CHANGE WITHOUT
     15					; NOTICE  AND  SHOULD NOT BE CONSTRUED AS A COMMITMENT BY DIGITAL
     16					; EQUIPMENT CORPORATION.
     17					;
     18					; DEC  ASSUMES NO  RESPONSIBILITY  FOR  THE  USE  OR  RELIABILITY
     19					; OF  ITS  SOFTWARE ON  EQUIPMENT WHICH  IS  NOT SUPPLIED BY DEC.
     20					;
     21					; PETER H. LIPMAN	2-MAY-74
     22
     23
     24						.MCALL	FDOF$L
     25	000000					FDOF$L			;DEFINE THE FDB OFFSETS LOCALLY
     26					;
     27						.MCALL	CALL,RETURN
     28
     29	000000					PURE.I
     30
     31					;+
     32					; THE FOLLOWING TRAP INSTRUCTION IS GENERATED BY THE ERROUT, ERROUX
     33					; ERRP, ERRPX MACROS AND INTERPRETED BY THE ROUTINE .ERTRP.
     34					;
     35					;	TRAP	X
     36					;
     37					; WHERE THE FOLLOWING LOW ORDER BITS ARE DEFINED
     38					;
     39					;	BIT 0 - SET IF JMP @.ABORT WHEN ERROR PRINTED OUT
     40					;	        IS COMPLETE
     41					;	      - RESET IF RETURN TO INSTRUCTION FOLLOWING THE TRAP INSTRUCTION
     42					;	BIT 1 - SET IF SIZE AND ADDRESS OF ERROR STRING FOLLOWS (2 WORDS)
     43					;	      - RESET IF ERROR NUMBER FOLLOWS (1 WORD)
     44					;
     45					;	BITS 2=0. 3=0 - DO DOT PRINT FILE NAME
     46					;	BITS 2=1, 3=0 - PRINT FILE NAME FROM FILE NAME BLOCK
     47					;	BITS 2=0, 3=1 - PRINT FILE FROM FILE DESCRIPTOR POINTER
     48					;	BITS 4=0, 5=0 - DON'T PRINT ERROR CODE
     49					;	BITS 4=1, 5=0 - PRINT ERROR CODE FROM F.ERR(R0)
     50					;	BITS 4=0, 5=1 - PRINT ERROR CODE IN R4
     51					;
     52					; IF THE SIZE AND ADDRESS OF AN ERROR STRING FOLLOWS THE TRAP
     53					; INSTRUCTION, AND THE ADDRESS IS ZERO, THEN R2 IS ASSUMED TO CONTAIN
     54					; THE SIZE AND R3 CONTAINS THE ADDRESS. LIKEWISE IF A POSITIVE ERROR
     55					; NUMBER FOLLOWS THE TRAP INSTRUCTION, 0 INDICATES THAT R2 ALREADY CONTAINS
ERRTRP M0005, ERROR TRAP HANDLE	MACRO M1113  27-FEB-85 12:30  PAGE 7-1
**** ERRTRP VERSION M0005 ****

     56					; THE ERROR NUMBER.
     57					;-
     58	000000				.ERTRP::
     59	000000	006216 				ASR	(SP)		;SHIFT TRAP PARAMETER BACK
     60	000002	032716 	000040 			BIT	#40,(SP)	;R4 ALREADY LOADED?
     61	000006	001013 				BNE	10$		;BRANCH IF YES
     62	000010	005004 				CLR	R4		;ASSUME NO ERROR CODE
     63	000012	032716 	000020 			BIT	#20,(SP)	;IS ERROR CODE DESIRED?
     64	000016	001407 				BEQ	10$		;BRANCH IF NO
     65	000020	116004 	000052 			MOVB	F.ERR(R0),R4	;YES USE F.ERR
     66	000024	105760 	000053 			TSTB	F.ERR+1(R0)	;IS IT A QI/O ERROR?
     67	000030	100002 				BPL	10$		;BRANCH IF NOT
     68	000032	162704 	000200 			SUB	#128.,R4	;QI/O ERRORS ALL SET 128.
     69	000036	032716 	000004 		10$:	BIT	#4,(SP)		;OUTPUT FILENAME FROM FNB?
     70	000042	001006 				BNE	20$		;BRANCH IF YES
     71	000044	052700 	000001 			BIS	#1,R0		;ASSUME USING FDSPT
     72	000050	032716 	000010 			BIT	#10,(SP)
     73	000054	001001 				BNE	20$		;BRANCH IF USING F.DSPT
     74	000056	005000 				CLR	R0		;NO FILE NAME OUTPUT
     75	000060	016605 	000002 		20$:	MOV	2(SP),R5	;
     76	000064	032716 	000002 			BIT	#2,(SP)
     77	000070	001414 				BEQ	30$		;BRANCH IF RECORD NUMBER
     78	000072	005765 	000002 			TST	2(R5)		;ZERO ADDRESS
     79	000076	001004 				BNE	22$
     80	000100	005715 				TST	(R5)		;AND ZERO SIZE
     81	000102	001405 				BEQ	25$		;INDICATES THAT R2, R3 ALL SET UP
     82	000104	012502 				MOV	(R5)+,R2	;ZERO ADDRESS AND NON ZERO LENGTH
     83	000106	000410 				BR	35$		;THEN LENGTH IS A RECORD NUMBER
     84	000110	011502 			22$:	MOV	(R5),R2		;R2=SIZE OF STRING
     85	000112	016503 	000002 			MOV	2(R5),R3	;R3=ADDRESS OF STRING
     86	000116	022525 			25$:	CMP	(R5)+,(R5)+	;POINT BEYOND PARAMETERS
     87	000120	000407 				BR	40$
     88	000122	005715 			30$:	TST	(R5)		;ZERO MESSAGE NO. MEANS R2 IS SET
     89	000124	001401 				BEQ	35$
     90	000126	011502 				MOV	(R5),R2		;R2=MESSAGE NUMBER
     91	000130	005725 			35$:	TST	(R5)+		;POINT BEYOND PARAMETER
     92	000132	005402 				NEG	R2		;MAKE RECORN NUMBER NEGATIVE
     93	000134	012703 	000000G			MOV	#.MSGFN,R3	;R3=FNB FOR MESSAGE FILE
     94	000140	010566 	000002 		40$:	MOV	R5,2(SP)	;RESTORE PC BEYOND PARAMETERS
     95	000144	012701 	000000G			MOV	#GCMLCB,R1
     96	000150					CALL	.ERPRT
     97	000154	032726 	000001 			BIT	#1,(SP)+	;EXIT OR RETURN?
     98	000160	001001 				BNE	50$		;
     99	000162	000002 				RTI			;RETURN IN LINE
    100	000164	000177 	000000G		50$:	JMP	@.ABORT		;EXIT
    101
    102					;
    103					;
    104		000001 				.END
ERRTRP M0005, ERROR TRAP HANDLE	MACRO M1113  27-FEB-85 12:30  PAGE 7-2
SYMBOL TABLE

F.ALOC= 000040   	F.EFN = 000050   	F.NRBD= 000024   	GCMLCB= ****** GX	S.FATT= 000016
F.BBFS= 000062   	F.EOBB= 000032   	F.NREC= 000030   	N.DID = 000024   	S.FDB = 000140
F.BDB = 000070   	F.ERR = 000052   	F.OVBS= 000030   	N.DVNM= 000032   	S.FNAM= 000006
F.BGBC= 000057   	F.FACC= 000043   	F.RACC= 000016   	N.FID = 000000   	S.FNB = 000036
F.BKDN= 000026   	F.FFBY= 000014   	F.RATT= 000001   	N.FNAM= 000006   	S.FNBW= 000017
F.BKDS= 000020   	F.FNAM= 000110   	F.RCNM= 000034   	N.FTYP= 000014   	S.FNTY= 000004
F.BKEF= 000050   	F.FNB = 000102   	F.RCTL= 000017   	N.FVER= 000016   	S.FTYP= 000002
F.BKP1= 000051   	F.FTYP= 000116   	F.RSIZ= 000002   	N.NEXT= 000022   	S.NFEN= 000020
F.BKST= 000024   	F.FVER= 000120   	F.RTYP= 000000   	N.STAT= 000020   	$$    = 000067
F.BKVB= 000064   	F.HIBK= 000004   	F.STBK= 000036   	N.UNIT= 000034   	.ABORT= ****** GX
F.CNTG= 000034   	F.LUN = 000042   	F.UNIT= 000136   	R$$DPB= 000001   	.ERPRT= ****** GX
F.DFNB= 000046   	F.MBCT= 000054   	F.URBD= 000020   	R$$DYM= 000001   	.ERTRP  000000RG    002
F.DSPT= 000044   	F.MBC1= 000055   	F.VBN = 000064   	R$$EIS= 000000   	.MSGFN= ****** GX
F.DVNM= 000134   	F.MBFG= 000056   	F.VBSZ= 000060   	R$$11M= 000001   	...TPC= 000140
F.EFBK= 000010

. ABS.	000000	   000
      	000000	   001
PURE$I	000170	   002
ERRORS DETECTED:  0

VIRTUAL MEMORY USED:  3487 WORDS  ( 14 PAGES)
DYNAMIC MEMORY:  4622 WORDS  ( 17 PAGES)
ELAPSED TIME:  00:00:11
[43,10]ERRTRP,[43,20]ERRTRP/-SP/CR=[43,30]PIPMAC,ERRTRP
ERRTRP     CREATED BY  MACRO  ON 27-FEB-85 AT 12:30	PAGE 1

SYMBOL CROSS REFERENCE                                  CREF

SYMBOL	VALUE		REFERENCES

F.ERR 	= 000052	 7-65       7-66
GCMLCB	= ******  GX	 7-95
RONLY$	= ******	 7-29       7-29
R$$DPB	= 000001	#1-27
R$$DYM	= 000001	#1-29
R$$EIS	= 000000	#1-28       1-38
R$$11M	= 000001	#1-25       1-26       7-1
SYS40$	= ******	 1-67       7-29       7-29
$$    	= 000067	#7-96       7-96
.ABORT	= ******  GX	 7-100
.ERPRT	= ******  GX	 7-96       7-96
.ERTRP	  000000 RG	#7-58
.MSGFN	= ******  GX	 7-93
ERRTRP     CREATED BY  MACRO  ON 27-FEB-85 AT 12:30	PAGE 2

MACRO CROSS REFERENCE                                   CREF

MACRO NAME	REFERENCES

ASH   		#1-64
ASHC  		#1-64
CALL  		#7-27       7-96
DIV   		#1-64
ERRINI		#4-307
ERROUT		#3-215
ERROUX		#3-222
ERROU1		#3-225
ERRP  		#3-247
ERRPX 		#3-253
ERRP1 		#3-256
ERR1  		#3-273
FDOFF$		#7-25      #7-25
FDOF$L		#7-24      #7-25
FLDSOF		#5-382
IDENT 		#5-339     #7-1
IDENT1		#5-347      7-1
IDTITL		#5-356
ILLOP 		#1-52      #1-64       1-64
IMPURE		#1-75
MARK  		#1-64
MSG   		#2-124
MSGZ  		#2-129
MSG1  		#2-133
MUL   		#1-64
NOEIS$		#1-39       1-64
PURE. 		#1-84       7-29
PURE.D		#1-102
PURE.I		#1-98       7-29
RETURN		#7-27
RTT   		#1-64
SOB   		#1-64
SXT   		#1-64
XOR   		#1-64
FCSERR M0003, CONVERT FCS ERROR	MACRO M1113  27-FEB-85 12:31
TABLE OF CONTENTS

     7-    1	**** FCSERR VERSION M0003 ****
PIPMAC - MACROS FOR PIP, ETC.	MACRO M1113  27-FEB-85 12:31  PAGE 6


    397
FCSERR M0003, CONVERT FCS ERROR	MACRO M1113  27-FEB-85 12:31  PAGE 7


      1						.TITLE	FCSERR M0003, CONVERT FCS ERROR CODE TO STRING
						.SBTTL	**** FCSERR VERSION M0003 ****
						.IDENT	/M0003/
      2
      3					;
      4					; COPYRIGHT   1975, 1985, DIGITAL  EQUIPMENT  CORP.,  MAYNARD,   MASS.
      5					; COPYRIGHT   1974,  DIGITAL  EQUIPMENT  CORP.,  MAYNARD,   MASS.
      6					;
      7					;			ALL RIGHTS RESERVED
      8					;
      9					; THIS SOFTWARE IS FURNISHED TO PURCHASER UNDER A LICENSE FOR USE
     10					; ON A  SINGLE COMPUTER SYSTEM AND CAN BE  COPIED (WITH INCLUSION
     11					; OF DEC'S COPYRIGHT  NOTICE) ONLY FOR USE IN SUCH SYSTEM, EXCEPT
     12					; AS MAY OTHERWISE BE PROVIDED IN WRITING BY DEC.
     13					;
     14					; THE  INFORMATION  IN THIS DOCUMENT IS SUBJECT TO CHANGE WITHOUT
     15					; NOTICE  AND  SHOULD NOT BE CONSTRUED AS A COMMITMENT BY DIGITAL
     16					; EQUIPMENT CORPORATION.
     17					;
     18					; DEC  ASSUMES NO  RESPONSIBILITY  FOR  THE  USE  OR  RELIABILITY
     19					; OF  ITS  SOFTWARE ON  EQUIPMENT WHICH  IS  NOT SUPPLIED BY DEC.
     20					;
     21					; PETER H. LIPMAN
     22					;
     23						.MCALL	NMBLK$,CALL,RETURN
     24
     25	000000					.PSECT
     26	000000					MSGZ	FC01,<HANDLER ERROR CODE %D.>
     27	000000					MSG	FC02,<QI/O >
     28	000000					MSGZ	FC03,<ERROR CODE %D.>
     29		000024 				FC02SZ=FC02SZ+FC03SZ
     30						.GLOBL	FC03MG
     31
     32						.IF	EQ,R$$11M
     33						MSG	FC04,<SY:[1,2]QIOSYM.MSG>
     34
     35						PURE.D
     36					QIOMSG:	.WORD	FC04SZ,FC04MG
     37
     38					.IFF
     39	000000					PURE.D
     40	000000				QIOMSG:	NMBLK$	QIOSYM,MSG,,SY,0
     41						.ENDC
     42					;+
     43					;
     44					; CONVERT FCS ERROR CODE TO STRING
     45					;
     46					; CALLING SEQUENCE:
     47					;
     48					;	CALL	.FCSER
     49					;
     50					; INPUTS:
     51					;
     52					;	R0=STRING ADDRESS TO STORE MESSAGE
     53					;	R1=FCS ERROR CODE (NEGATIVE VALUE)
     54					;		NOTE: NORMALLY R1 IS THE BYTE FROM F.ERR IN THE FDB, BUT IF
     55					;		F.ERR+1 IS NEGATIVE, SUBTRACT 128. FROM R1 BEFORE CALING .FCSER.
FCSERR M0003, CONVERT FCS ERROR	MACRO M1113  27-FEB-85 12:31  PAGE 7-1
**** FCSERR VERSION M0003 ****

     56					;
     57					; OUTPUTS:
     58					;
     59					;	R0=UPDATED STRING POINTER
     60					;	R1=SIZE OF STRING
     61					;	R2-R5 PRESERVED
     62					;
     63					; OPERATION:
     64					;
     65					;	THIS ROUTINE EXPECTS TO SEE THE MESSAGE FILE (64. BYTE FIXED LENGTH
     66					; RECORDS) QIOSYM.MSG UNDER [1,2] ON SY0:
     67					;-
     68	000036					PURE.I
     69	000000				.FCSER::
     70	000000				FCSERR::
     71	000000	010246 				MOV	R2,-(SP)
     72	000002	010102 				MOV	R1,R2
     73	000004	005402 				NEG	R2		;MAKE ERROR CODE POSITIVE RECORD NUMBER
     74	000006	012701 	000000'			MOV	#QIOMSG,R1	;R1=FNB FOR QIOSYM.MSG FILE
     75	000012					CALL	.GERRM		;GET THE RECORD FROM THE FILE
     76	000016	103022 				BCC	20$
     77					;
     78					; FAILED TO GET ERROR MESSAGE RECORD, PUT OUT ERROR CODE INSTEAD
     79					;
     80	000020	010046 				MOV	R0,-(SP)
     81	000022	012701 	000000'			MOV	#FC01MG,R1	;HANDLER ERROR CODE
     82	000026	020227 	000200 			CMP	R2,#128.
     83	000032	003404 				BLE	10$		;BRANCH IF HANDLER ERROR CODE
     84	000034	162702 	000200 			SUB	#128.,R2	;NORMALIZE THE QI/O ERROR CODE
     85	000040	012701 	000027'			MOV	#FC02MG,R1		;QI/O ERROR CODE
     86	000044	005402 			10$:	NEG	R2		;PRINT A NEGATIVE ERROR NUMBER
     87	000046	010246 				MOV	R2,-(SP)
     88	000050	010602 				MOV	SP,R2
     89	000052					CALL	$EDMSG		;FORM THE ERROR CODE STRING
     90	000056	005726 				TST	(SP)+
     91	000060	010001 				MOV	R0,R1
     92	000062	162601 				SUB	(SP)+,R1	;R1=SIZE OF STRING
     93	000064	012602 			20$:	MOV	(SP)+,R2
     94	000066					RETURN
     95
     96					;
     97					;
     98		000001 				.END
FCSERR M0003, CONVERT FCS ERROR	MACRO M1113  27-FEB-85 12:31  PAGE 7-2
SYMBOL TABLE

FCSERR  000000RG    004	N.DVNM= 000032   	N.UNIT= 000034   	S.FNAM= 000006   	$$    = 000067
FC01MG= 000000R     002	N.FID = 000000   	QIOMSG  000000R     003	S.FNB = 000036   	.FCSER  000000RG    004
FC01SZ= 000027   	N.FNAM= 000006   	R$$DPB= 000001   	S.FNBW= 000017   	.GERRM= ****** GX
FC02MG= 000027R     002	N.FTYP= 000014   	R$$DYM= 000001   	S.FNTY= 000004   	...PC1= 000000
FC02SZ= 000024   	N.FVER= 000016   	R$$EIS= 000000   	S.FTYP= 000002   	...PC2= 000034R     003
FC03MG= 000034RG    002	N.NEXT= 000022   	R$$MSG= 000000   	S.NFEN= 000020   	...PC3= 000000
FC03SZ= 000017   	N.STAT= 000020   	R$$11M= 000001   	$EDMSG= ****** GX	...TPC= 000036
N.DID = 000024

. ABS.	000000	   000
      	000000	   001
MSGSTR	000053	   002
PURE$D	000036	   003
PURE$I	000070	   004
ERRORS DETECTED:  0

VIRTUAL MEMORY USED:  3338 WORDS  ( 14 PAGES)
DYNAMIC MEMORY:  4622 WORDS  ( 17 PAGES)
ELAPSED TIME:  00:00:10
[43,10]FCSERR,[43,20]FCSERR/-SP/CR=[43,30]PIPMAC,FCSERR
FCSERR     CREATED BY  MACRO  ON 27-FEB-85 AT 12:31	PAGE 1

SYMBOL CROSS REFERENCE                                  CREF

SYMBOL	VALUE		REFERENCES

FCSERR	  000000 RG	#7-70
FC01MG	= 000000 R	#7-26       7-26       7-81
FC01SZ	= 000027	#7-26
FC02MG	= 000027 R	#7-27       7-27       7-85
FC02SZ	= 000024	#7-27       7-29      #7-29
FC03MG	= 000034 RG	#7-28       7-28       7-30
FC03SZ	= 000017	#7-28       7-29
MSGBL.	= ******	 7-26       7-27       7-28
N.DVNM	= 000032	 7-40
N.FNAM	= 000006	 7-40
N.FTYP	= 000014	 7-40
N.UNIT	= 000034	 7-40
QIOMSG	  000000 R	#7-40       7-74
RONLY$	= ******	 7-26       7-26       7-27       7-27       7-28       7-28       7-39       7-39       7-68
                         7-68
R$$DPB	= 000001	#1-27
R$$DYM	= 000001	#1-29
R$$EIS	= 000000	#1-28       1-38
R$$MSG	= 000000	 7-26       7-26       7-27       7-27       7-28       7-28
R$$11M	= 000001	#1-25       1-26       7-1        7-32
SYS40$	= ******	 1-67       7-26       7-26       7-27       7-27       7-28       7-28       7-39       7-39
                         7-68       7-68
S.FNAM	= 000006	 7-40       7-40
S.FNB 	= 000036	 7-40
S.FTYP	= 000002	 7-40       7-40
$EDMSG	= ******  GX	 7-89       7-89
$$    	= 000067	#7-75       7-75      #7-89       7-89
.FCSER	  000000 RG	#7-69
.GERRM	= ******  GX	 7-75       7-75
...PC1	= 000000 R	 7-40       7-40      #7-40       7-40       7-40       7-40       7-40       7-40      #7-40
...PC2	= 000034 R	#7-40       7-40       7-40      #7-40       7-40       7-40      #7-40       7-40
...PC3	= 000000	#7-40       7-40
FCSERR     CREATED BY  MACRO  ON 27-FEB-85 AT 12:31	PAGE 2

MACRO CROSS REFERENCE                                   CREF

MACRO NAME	REFERENCES

ASH   		#1-64
ASHC  		#1-64
CALL  		#7-23      #7-75      #7-89
CWORD$		#7-40       7-40       7-40
DIV   		#1-64
ERRINI		#4-307
ERROUT		#3-215
ERROUX		#3-222
ERROU1		#3-225
ERRP  		#3-247
ERRPX 		#3-253
ERRP1 		#3-256
ERR1  		#3-273
FLDSOF		#5-382
IDENT 		#5-339     #7-1
IDENT1		#5-347      7-1
IDTITL		#5-356
ILLOP 		#1-52      #1-64       1-64
IMPURE		#1-75
MARK  		#1-64
MSG   		#2-124     #7-27
MSGZ  		#2-129     #7-26      #7-28
MSG1  		#2-133     #7-26      #7-27      #7-28
MUL   		#1-64
NBOFF$		#7-40       7-40
NMBLK$		#7-23      #7-40
NOEIS$		#1-39       1-64
PURE. 		#1-84       7-26       7-27       7-28       7-39       7-68
PURE.D		#1-102      7-39
PURE.I		#1-98       7-68
RAD50$		#7-40      #7-40      #7-40
RETURN		#7-23      #7-94
RTT   		#1-64
SOB   		#1-64
SXT   		#1-64
XOR   		#1-64
GERRM M0007, GET ERROR MESSAGE 	MACRO M1113  27-FEB-85 12:31
TABLE OF CONTENTS

     7-    1	**** GERRM VERSION M0007 ****
PIPMAC - MACROS FOR PIP, ETC.	MACRO M1113  27-FEB-85 12:31  PAGE 6


    397
GERRM M0007, GET ERROR MESSAGE 	MACRO M1113  27-FEB-85 12:31  PAGE 7


      1						.TITLE	GERRM M0007, GET ERROR MESSAGE STRING
						.SBTTL	**** GERRM VERSION M0007 ****
						.IDENT	/M0007/
      2
      3					;
      4					; COPYRIGHT   1975, 1985, DIGITAL  EQUIPMENT  CORP.,  MAYNARD,   MASS.
      5					; COPYRIGHT   1974,  DIGITAL  EQUIPMENT  CORP.,  MAYNARD,   MASS.
      6					;
      7					;			ALL RIGHTS RESERVED
      8					;
      9					; THIS SOFTWARE IS FURNISHED TO PURCHASER UNDER A LICENSE FOR USE
     10					; ON A  SINGLE COMPUTER SYSTEM AND CAN BE  COPIED (WITH INCLUSION
     11					; OF DEC'S COPYRIGHT  NOTICE) ONLY FOR USE IN SUCH SYSTEM, EXCEPT
     12					; AS MAY OTHERWISE BE PROVIDED IN WRITING BY DEC.
     13					;
     14					; THE  INFORMATION  IN THIS DOCUMENT IS SUBJECT TO CHANGE WITHOUT
     15					; NOTICE  AND  SHOULD NOT BE CONSTRUED AS A COMMITMENT BY DIGITAL
     16					; EQUIPMENT CORPORATION.
     17					;
     18					; DEC  ASSUMES NO  RESPONSIBILITY  FOR  THE  USE  OR  RELIABILITY
     19					; OF  ITS  SOFTWARE ON  EQUIPMENT WHICH  IS  NOT SUPPLIED BY DEC.
     20					;
     21					; PETER H. LIPMAN	31-APR-74
     22
     23						.IF	GT,R$$11M
     24
     25
     26						.MCALL	FILIO$
     27	000000					FILIO$			;DEFINE THE I/O FUNCTION CODES LOCALLY
     28					;
     29						.MCALL	NMBLK$,QIO$,WTSE$S,DIR$,CALL,RETURN
     30
     31	000000					PURE.D
     32
     33	000000				DIRNMB:	NMBLK$	001002,DIR,,SY,0
     34
     35		000024'				.=DIRNMB+N.DID
     36	000024	177777 	177777 			.WORD	-1,-1
     37		000036'				.=DIRNMB+S.FNB
     38
     39	000036					IMPURE
     40
     41	000000				EOIOST:	.BLKW	2
     42	000004				QIODPB:	QIO$	,,32.,,EOIOST,,<,,,,,>
     43
     44		000010'				.EOLUN==QIODPB+Q.IOLU
     45		000012'				.EOEFN==QIODPB+Q.IOEF
     46
     47	000034				.ERRBF::.BLKW	1000
     48					;+
     49					;
     50					; GET ERROR MESSAGE FROM FILE
     51					;
     52					; CALLING SEQUENCE:
     53					;
     54					;	CALL	.GERRM
     55					;
GERRM M0007, GET ERROR MESSAGE 	MACRO M1113  27-FEB-85 12:31  PAGE 7-1
**** GERRM VERSION M0007 ****

     56					; INPUTS:
     57					;
     58					;	R0=STRING ADDRESS TO RETURN STRING
     59					;	R1=MESSAGE FILE POINTER (FNB FOR 11M, STRING DESCRIPTOR FOR 11D)
     60					;	R2=RECORD NUMBER (64. BYTE FIXED LENGTH RECORDS)
     61					;
     62					; OUTPUTS:
     63					;
     64					;	C=0 IF SUCCESSFUL, C=1 IF FAILED
     65					;	R0=UPDATED STRING ADDRESS
     66					;	R1=NO. OF CHARACTER ADDED
     67					;	R2-R5 PRESERVED
     68					;
     69					;-
     70
     71	002034					PURE.I
     72	000000	004567 	000000G		.GERRM::JSR	R5,$SAVRG
     73	000004	005761 	000024 			TST	N.DID(R1)	;IS DIRECTORY ID SET?
     74	000010	001015 				BNE	20$		;BRANCH IF YES
     75	000012	012704 	000000'			MOV	#DIRNMB,R4
     76	000016	005714 				TST	(R4)
     77	000020	001003 				BNE	10$
     78	000022					CALL	FIND		;FIND THE DIRECTORY ID
     79	000026	103516 				BCS	90$		;BRANCH IF NO MESSAGE FILE
     80	000030	012461 	000024 		10$:	MOV	(R4)+,N.DID(R1) ; SET DIECTORY ID
     81	000034	012461 	000026 			MOV	(R4)+,N.DID+2(R1) ;
     82	000040	012461 	000030 			MOV	(R4)+,N.DID+4(R1)
     83	000044	005711 			20$:	TST	(R1)		;IS FILE ID ALREADY PRESENT
     84	000046	001004 				BNE	30$		;BRANCH IF YES
     85	000050	010104 				MOV	R1,R4		;
     86	000052					CALL	FIND		;FIND THE MESSAGE
     87	000056	103502 				BCS	90$		;BRANCH IF NO MESSAGE FILE
     88	000060				30$:				;
     89	000060	012767 	006400 	000006'		MOV	#IO.ACR,QIODPB+Q.IOFN
     90	000066					CALL	CLRDPB		;SET R5 TO BE WORD PARAM BLOCK
     91	000072	010115 				MOV	R1,(R5)		;FNB
     92
     93						.IF	GT,R$$DPB
     94
     95	000074	012765 	100000 	000010 		MOV	#100000,8.(R5)	;ENABLE ACCESS BIT
     96						.ENDC
     97
     98	000102					CALL	QIOWAT		;ISSUE ACCESS I/O AND WAIT
     99	000106	103466 				BCS	90$		;BRANCH IF FAILED TO ACCESS
    100	000110	010204 				MOV	R2,R4
    101	000112	005304 				DEC	R4
    102	000114	000241 				CLC			;SHIFT R4 3 BITS RIGHT
    103	000116	006004 				ROR	R4
    104	000120	006204 				ASR	R4
    105	000122	006204 				ASR	R4
    106	000124	005204 				INC	R4		;SINCE VBN'S START AT 1
    107	000126	012767 	010400 	000006'		MOV	#IO.RVB,QIODPB+Q.IOFN
    108	000134					CALL	CLRDPB
    109	000140	012725 	000034'			MOV	#.ERRBF,(R5)+	;ADDRESS TO READ INTO
    110	000144	012725 	001000 			MOV	#512.,(R5)+	;SIZE OF TRANSFER
    111	000150	022525 				CMP	(R5)+,(R5)+
    112	000152	010415 				MOV	R4,(R5)		;VBN TO READ
GERRM M0007, GET ERROR MESSAGE 	MACRO M1113  27-FEB-85 12:31  PAGE 7-2
**** GERRM VERSION M0007 ****

    113	000154					CALL	QIOWAT		;ISSUE READ QI/O AND WAIT
    114	000160	006004 				ROR	R4		;SAVE CARRY
    115	000162	012767 	010000 	000006'		MOV	#IO.DAC,QIODPB+Q.IOFN
    116	000170					CALL	CLRDPB
    117	000174	010115 				MOV	R1,(R5)		;FILE TO DEACCESS
    118	000176					CALL	QIOWAT		;ISSUE THE DEACCESS QI/O
    119	000202	103430 				BCS	90$
    120	000204	006104 				ROL	R4		;RESTORE C BIT FROM READ
    121	000206	103426 				BCS	90$		;BRANCH IF READ FAILED
    122	000210	010205 				MOV	R2,R5
    123	000212	005305 				DEC	R5
    124	000214	042705 	177770 			BIC	#177770,R5	;R5=RECORD NO. WITHIN BLOCK
    125	000220	000305 				SWAB	R5		;ASH #6,R5, SHIFT LEFT 6
    126	000222	006205 				ASR	R5
    127	000224	006205 				ASR	R5
    128	000226	062705 	000034'			ADD	#.ERRBF,R5	;FORM R5=ADDRESS OF RECORD
    129	000232	010003 				MOV	R0,R3
    130	000234	012704 	000100 			MOV	#64.,R4
    131	000240	112520 			50$:	MOVB	(R5)+,(R0)+	;MOVE UP TO 64. BYTES ASCIZ
    132	000242	001403 				BEQ	55$
    133	000244					SOB	R4,50$
    134	000250	000401 				BR	60$
    135	000252	005300 			55$:	DEC	R0		;DON'T COUNT THE NULL
    136	000254	010001 			60$:	MOV	R0,R1		;
    137	000256	160301 				SUB	R3,R1		;FORM BYTE COUNT, C=0
    138	000260	001402 				BEQ	95$		;IF NULL RECORD, RETURN ERR
    139	000262					RETURN
    140	000264	005001 			90$:	CLR	R1
    141	000266	000261 			95$:	SEC
    142	000270					RETURN
    143					;+
    144					; ISSUE A FIND QI/O
    145					;
    146					; CALLING SEQUENCE:
    147					;
    148					;	CALL	FIND
    149					;
    150					; INPUTS:
    151					;
    152					;	R4=FNB
    153					;
    154					; OUTPUTS:
    155					;
    156					;	C=0 IF SUCCESSFUL, C=1 IF ERROR
    157					;	R5 ALTERED, R0-R4 PRESERVED
    158					;
    159					;-
    160	000272				FIND:
    161	000272	012767 	004400 	000006'		MOV	#IO.FNA,QIODPB+Q.IOFN
    162	000300					CALL	CLRDPB
    163						.IF	GT,R$$DPB
    164
    165	000304	010465 	000012 			MOV	R4,10.(R5)	;STORE FNB
    166
    167						.IFF
    168
    169						MOV	R4,(R5)
GERRM M0007, GET ERROR MESSAGE 	MACRO M1113  27-FEB-85 12:31  PAGE 7-3
**** GERRM VERSION M0007 ****

    170
    171						.ENDC
    172	000310					CALL	QIOWAT		;ISSUE THE FIND QI/O AND WAIT
    173	000314					RETURN
    174					;+
    175					; CLEAR THE 6 WORD PARAMETER AREA OF THE QIODPB
    176					;
    177					; CALLING SEQUENCE:
    178					;
    179					;	CALL	CLRDPB
    180					;
    181					; INPUTS:
    182					;
    183					;	NONE
    184					;
    185					; OUTPUTS:
    186					;
    187					;	R0-R4 PRESERVED
    188					;	R5 POINTS 1ST WORD OF 6 WORD PARAMETER BLOCK
    189					;
    190					;-
    191	000316				CLRDPB:
    192	000316	012705 	000034'			MOV	#QIODPB+24.,R5	;POINT TO LAST +2 WORD
    193	000322	012746 	000006 			MOV	#6,-(SP)	;CLEAR 6 WORDS
    194	000326	005045 			10$:	CLR	-(R5)		;
    195	000330	005316 				DEC	(SP)
    196	000332	003375 				BGT	10$
    197	000334	005726 				TST	(SP)+
    198	000336					RETURN
    199					;+
    200					;
    201					; ISSUE THE QIO AND WAIT - QIODPB ALL SET UP.
    202					;
    203					; CALLING SEQUENCE:
    204					;
    205					;	CALL	QIOWAT
    206					;
    207					; INPUTS:
    208					;
    209					;	NONE
    210					;
    211					; OUTPUTS:
    212					;
    213					;	C=0 IF SUCCESSFUL, C=1 IF ERROR
    214					;
    215					;-
    216	000340				QIOWAT:
    217	000340					DIR$	#QIODPB
    218	000346	103411 				BCS	10$
    219	000350					WTSE$S	.EOEFN
    220	000362	105767 	000000'			TSTB	EOIOST		;NEGATIVE STATUS IS AN ERROR
    221	000366	003001 				BGT	10$		;BRANCH IF OK, C=0
    222	000370	000261 				SEC
    223	000372				10$:	RETURN
GERRM M0007, GET ERROR MESSAGE 	MACRO M1113  27-FEB-85 12:31  PAGE 8
**** GERRM VERSION M0007 ****

    225						.IFF			;IF THIS IS FOR RSX11D
    226
    227						.MCALL	RETURN,MOUT$S
    228
    229						IMPURE
    230					.ERRBF::.BLKB	3*80.		;ENOUGH SPACE FOR 3 LINES
    231						ERRBFS=.-.ERRBF
    232					EOIOST:	.BLKW	2		;I/O STATUS BLOCK FOR MO CALL
    233					.EOLUN::.BLKW	1		;LUN FOR MO, PATCH AND PREASSIGN TO MO
    234
    235						PURE.I
    236					.GERRM::CLR	-(SP)		;SET UP A ZERO COUNT TO RETURN IF ERROR
    237						MOUT$S	R1,,R2,CONT,USBUF,#.ERRBF,#ERRBFS,#EOIOST,.EOLUN
    238						BCS	20$
    239						SEC
    240						MOVB	EOIOST,R1	;COMPLETED SUCCESSFULLY?
    241						BMI	20$		;BRANCH IF NO
    242						MOV	.ERRBF+2,R1	;LENGTH OF RECORD RETURNED
    243						BEQ	20$		;BRANCH IF EMPTY
    244						MOV	R1,(SP)		;PUT REAL COUNT ON STACK
    245						MOV	R1,-(SP)	;PUSH ANOTHER COPY FOR MOVE LOOP
    246						MOV	#.ERRBF+4,R1
    247					10$:	MOVB	(R1)+,(R0)+	;MOVE THE RECORD TO THE USER STRING
    248						DEC	(SP)
    249						BGT	10$
    250						TST	(SP)+		;POP THE EXPIRED COUNT AND CLEAR CARRY
    251					20$:	MOV	(SP)+,R1	;RECOVER THE SAVED COUNT OR 0 IF ERROR
    252						RETURN
    253
    254						.ENDC
    255					;
    256					;
    257		000001 				.END
GERRM M0007, GET ERROR MESSAGE 	MACRO M1113  27-FEB-85 12:31  PAGE 8-1
SYMBOL TABLE

CLRDPB  000316R     004	IO.ENA= 006000   	IO.WVB= 011000   	Q.IOEF= 000006   	S.NFEN= 000020
DIRNMB  000000R     002	IO.EXT= 011400   	IQ.Q  = 000002   	Q.IOFN= 000002   	$SAVRG= ****** GX
EOIOST  000000R     003	IO.FNA= 004400   	IQ.X  = 000001   	Q.IOLU= 000004   	$$    = 000067
FIND    000272R     004	IO.KIL= 000012   	N.DID = 000024   	Q.IOPL= 000014   	$$$ARG= 000014
IO.ACE= 007400   	IO.LOV= 001010   	N.DVNM= 000032   	Q.IOPR= 000007   	$$$OST= 000014
IO.ACR= 006400   	IO.LTK= 000050   	N.FID = 000000   	Q.IOSB= 000010   	.EOEFN= 000012RG    003
IO.ACW= 007000   	IO.RAT= 013000   	N.FNAM= 000006   	R$$DPB= 000001   	.EOLUN= 000010RG    003
IO.APC= 014000   	IO.RDN= 000022   	N.FTYP= 000014   	R$$DYM= 000001   	.ERRBF  000034RG    003
IO.APV= 014010   	IO.RLB= 001000   	N.FVER= 000016   	R$$EIS= 000000   	.GERRM  000000RG    004
IO.ATT= 001400   	IO.RNA= 005400   	N.NEXT= 000022   	R$$11M= 000001   	...GBL= 000000
IO.CLN= 003400   	IO.RTK= 000060   	N.STAT= 000020   	S.FNAM= 000006   	...PC1= 000000
IO.CRE= 012000   	IO.RVB= 010400   	N.UNIT= 000034   	S.FNB = 000036   	...PC2= 000034R     002
IO.DAC= 010000   	IO.UNL= 000042   	QIODPB  000004R     003	S.FNBW= 000017   	...PC3= 000000
IO.DEL= 012400   	IO.WAT= 013400   	QIOWAT  000340R     004	S.FNTY= 000004   	...TPC= 000036
IO.DET= 002000   	IO.WLB= 000400   	Q.IOAE= 000012   	S.FTYP= 000002

. ABS.	000000	   000
      	000000	   001
PURE$D	000036	   002
IMPURE	002034	   003
PURE$I	000374	   004
ERRORS DETECTED:  0

VIRTUAL MEMORY USED:  4152 WORDS  ( 17 PAGES)
DYNAMIC MEMORY:  5678 WORDS  ( 21 PAGES)
ELAPSED TIME:  00:00:16
[43,10]GERRM,[43,20]GERRM/-SP/CR=[43,30]PIPMAC,GERRM
GERRM      CREATED BY  MACRO  ON 27-FEB-85 AT 12:31	PAGE 1

SYMBOL CROSS REFERENCE                                  CREF

SYMBOL	VALUE		REFERENCES

CLRDPB	  000316 R	 7-90       7-90       7-108      7-108      7-116      7-116      7-162      7-162     #7-191
DIRNMB	  000000 R	#7-33       7-35       7-37       7-75
EOIOST	  000000 R	#7-41       7-42       7-220
FIND  	  000272 R	 7-78       7-78       7-86       7-86      #7-160
IO.ACR	= 006400	 7-89
IO.DAC	= 010000	 7-115
IO.FNA	= 004400	 7-161
IO.RVB	= 010400	 7-107
N.DID 	= 000024	 7-35       7-73      *7-80      *7-81      *7-82
N.DVNM	= 000032	 7-33
N.FNAM	= 000006	 7-33
N.FTYP	= 000014	 7-33
N.UNIT	= 000034	 7-33
QIODPB	  000004 R	#7-42       7-44       7-45      *7-89      *7-107     *7-115     *7-161      7-192      7-217
QIOWAT	  000340 R	 7-98       7-98       7-113      7-113      7-118      7-118      7-172      7-172     #7-216
Q.IOAE	= 000012	#7-42
Q.IOEF	= 000006	#7-42       7-45
Q.IOFN	= 000002	#7-42      *7-89      *7-107     *7-115     *7-161
Q.IOLU	= 000004	#7-42       7-44
Q.IOPL	= 000014	#7-42
Q.IOPR	= 000007	#7-42
Q.IOSB	= 000010	#7-42
RONLY$	= ******	 7-31       7-31       7-71       7-71
R$$DPB	= 000001	#1-27       7-93       7-163
R$$DYM	= 000001	#1-29
R$$EIS	= 000000	#1-28       1-38
R$$11M	= 000001	#1-25       1-26       7-1        7-23
SYS40$	= ******	 1-67       7-31       7-31       7-39       7-39       7-71       7-71
S.FNAM	= 000006	 7-33       7-33
S.FNB 	= 000036	 7-33       7-37
S.FTYP	= 000002	 7-33       7-33
$SAVRG	= ******  GX	 7-72
$$    	= 000067	#7-78       7-78      #7-86       7-86      #7-90       7-90      #7-98       7-98      #7-108
                         7-108     #7-113      7-113     #7-116      7-116     #7-118      7-118     #7-162      7-162
                        #7-172      7-172
$$$ARG	= 000014	#7-42       7-42      #7-42       7-42      #7-42       7-42      #7-42       7-42      #7-42
                         7-42      #7-42       7-42      #7-42       7-42
$$$GLB	= ******	 7-42       7-42       7-42       7-42       7-42       7-42       7-42       7-42
$$$OST	= 000014	#7-42       7-42       7-42      #7-42       7-42       7-42      #7-42       7-42       7-42
                        #7-42       7-42       7-42      #7-42       7-42       7-42      #7-42       7-42       7-42
                        #7-42       7-42
.EOEFN	= 000012 RG	#7-45       7-219
.EOLUN	= 000010 RG	#7-44
.ERRBF	  000034 RG	#7-47       7-109      7-128
.GERRM	  000000 RG	#7-72
...PC1	= 000000 R	 7-33       7-33      #7-33       7-33       7-33       7-33       7-33       7-33      #7-33
...PC2	= 000034 R	#7-33       7-33       7-33      #7-33       7-33       7-33      #7-33       7-33
...PC3	= 000000	#7-33       7-33
GERRM      CREATED BY  MACRO  ON 27-FEB-85 AT 12:31	PAGE 2

MACRO CROSS REFERENCE                                   CREF

MACRO NAME	REFERENCES

ASH   		#1-64
ASHC  		#1-64
CALL  		#7-29      #7-78      #7-86      #7-90      #7-98      #7-108     #7-113     #7-116     #7-118     #7-162
                #7-172
CWORD$		#7-33      #7-33      #7-33
DIR$  		#7-29      #7-217     #7-219     #7-219
DIV   		#1-64
ERRINI		#4-307
ERROUT		#3-215
ERROUX		#3-222
ERROU1		#3-225
ERRP  		#3-247
ERRPX 		#3-253
ERRP1 		#3-256
ERR$  		#7-217     #7-219
ERR1  		#3-273
FILIO$		#7-26       7-27
FLDSOF		#5-382
IDENT 		#5-339     #7-1
IDENT1		#5-347      7-1
IDTITL		#5-356
ILLOP 		#1-52      #1-64       1-64
IMPURE		#1-75      #7-39
MARK  		#1-64
MOV$  		#7-219      7-219
MSG   		#2-124
MSGZ  		#2-129
MSG1  		#2-133
MUL   		#1-64
NBOFF$		#7-33      #7-33
NMBLK$		#7-29       7-33
NOEIS$		#1-39       1-64
OFF$  		#7-42       7-42       7-42       7-42       7-42       7-42       7-42       7-42       7-42
PURE. 		#1-84       7-31       7-71
PURE.D		#1-102      7-31
PURE.I		#1-98       7-71
QDPB$ 		#7-42       7-42
QIO$  		#7-29      #7-42
RAD50$		#7-33      #7-33      #7-33
RETURN		#7-29       7-139      7-142      7-173      7-198      7-223
RTT   		#1-64
SOB   		#1-64      #7-133
SXT   		#1-64
WTSE$S		#7-29       7-219
XOR   		#1-64
GETCML M0103, GET A COMMAND LIN	MACRO M1113  27-FEB-85 12:31
TABLE OF CONTENTS

     7-    1	**** GETCML VERSION M0103 ****
PIPMAC - MACROS FOR PIP, ETC.	MACRO M1113  27-FEB-85 12:31  PAGE 6


    397
GETCML M0103, GET A COMMAND LIN	MACRO M1113  27-FEB-85 12:31  PAGE 7


      1						.TITLE	GETCML M0103, GET A COMMAND LINE
						.SBTTL	**** GETCML VERSION M0103 ****
						.IDENT	/M0103/
      2					; ALTERED THURSDAY 21-NOV-74 9:35
      3					;
      4					; COPYRIGHT 1975, 1985, DIGITAL EQUIPMENT CORP., MAYNARD MASS.
      5					; COPYRIGHT 1974, DIGITAL EQUIPMENT CORP., MAYNARD MASS.
      6
      7					;			ALL RIGHTS RESERVED
      8					;
      9					; THIS SOFTWARE IS FURNISHED TO PURCHASER UNDER A LICENSE FOR USE
     10					; ON A SINGLE COMPUTER SYSTEM AND CAN BE COPIED (WITH INCLUSION
     11					; OF DEC'S COPYRIGHT NOTICE) ONLY FOR USE IN SUCH SYSTEM, EXCEPT
     12					; AS MAY OTHERWISE BE PROVIDED IN WRITING BY DEC.
     13
     14					; THE INFORMATION IN THIS DOCUMENT IS SUBJECT TO CHANGE WITHOUT
     15					; NOTICE AND SHOULD NOT BE CONSTRUED AS A COMMITMENT BY DIGITAL
     16					; EQUIPMENT CORPORATION.
     17
     18					; DEC ASSUMES NO RESPONSIBILITY FOR THE USE OR RELIABILITY
     19					; OF ITS SOFTWARE ON EQUIPMENT WHICH IS NOT SUPPLIED BY DEC.
     20					;
     21					; PETER H. LIPMAN 7-MAY-73
     22					;
     23						.MCALL	GCMLD$,GCML$,RCML$,CALL,RETURN,CLOSE$
     24	000000					GCMLD$
     25					;
     26	000000					PURE.I
     27					;
     28					;+
     29					; GET A COMMAND LINE FROM GCMLCB (MUST BE GLOBALLY DEFINED)
     30					; CALLING SEQUENCE:
     31					;	CALL	GETCML
     32					; INPUTS:
     33					;	NONE
     34					; OUTPUTS:
     35					;	C=0 IF COMMAND WAS SUCCESSFULLY RECEIVED
     36					;	C=1 IF EOF OR FATAL FAILURE - PROGRAM IS EXPECTED TO EXIT
     37					;		THE GCML CONTROL BLOCK WILL BE RESET AND CLOSED
     38					;	R0 ALTERED TO CONTAIN ADR OF GCMLCB
     39					;	R1-R5 PRESERVED
     40					; OPERATION:
     41					;	THIS ROUTINE HANDLES BLANK LINES AS NULL INPUT AND JUST GETS
     42					; ANOTHER LINE.  LIKEWISE IT HANDLES ALL RECOVERABLE ERROR
     43					; MESSAGES, AND GIVES AN APPROPRIATE MESSAGE AND TRIES TO
     44					; GET ANOTHER LINE.  THE ONLY TIME THE C BIT IS SET ON RETURN IS IF
     45					; THE EOF CONDITION WAS RETURNED BY GCML OR IF AN I/O ERROR STATUS CODE
     46					; WAS RETURNED.
     47					;-
     48	000000				GETCML::GCML$	#GCMLCB
     49	000014	103404 				BCS	10$
     50	000016	005760 	000146 			TST	G.CMLD(R0)
     51	000022	001766 				BEQ	GETCML		;GET ANOTHER LINE IF THIS ONE IS NULL
     52	000024					RETURN
     53	000026				10$:	CALL	GCMLER
     54	000032	012700 	000000G			MOV	#GCMLCB,R0
     55	000036	103403 				BCS	20$		;BRANCH IF EOF OR FATAL ERROR
GETCML M0103, GET A COMMAND LIN	MACRO M1113  27-FEB-85 12:31  PAGE 7-1
**** GETCML VERSION M0103 ****

     56	000040					RCML$	R0		;RECOVER FROM ERROR
     57	000044	000755 				BR	GETCML		;AND GET ANOTHER LINE
     58					;
     59					; FATAL ERROR FROM GET COMMMAND LINE (OR EOF)
     60	000046				20$:	RCML$	R0		;CLEAN UP GET COMMAND LINE
     61	000052					CLOSE$	R0
     62	000056	000261 				SEC
     63	000060					RETURN
     64					;
     65					;+
     66					; PROCESS ERROR FROM GET COMMAND LINE
     67					; CALLING SEQUENCE
     68					;	CALL	GCMLER
     69					; INPUTS:
     70					;	R0=GET COMMAND LINE CONTROL BLOCK
     71					; OUTPUTS:
     72					;	C=0 IF OK TO REINIT AND RESTART PROGRAM
     73					;	C=1 IF PROGRAM SHOULD CLEAN UP AND EXIT
     74					;	ALL REGISTERS ALTERED
     75					;-
     76	000062	004567 	000000G		GCMLER::JSR	R5,.SAVR1
     77	000066	122760 	177766 	000140 		CMPB	#GE.EOF,G.ERR(R0)
     78	000074	001417 				BEQ	5$		;BRANCH IF EOF
     79	000076	122760 	177774 	000140 		CMPB	#GE.MDE,G.ERR(R0)
     80	000104	001415 				BEQ	10$		;BRANCH IF TOO MANY INDIRECT FILES
     81	000106	122760 	177775 	000140 		CMPB	#GE.BIF,G.ERR(R0)
     82	000114	001415 				BEQ	20$		;BRANCH IF BAD @ FILE NAME
     83	000116	122760 	177776 	000140 		CMPB	#GE.OPR,G.ERR(R0)
     84	000124	001415 				BEQ	30$		;BRANCH IF FAILED TO OPEN @ FILE
     85	000126					ERROUT	GC01		;I/O ERROR
	000126	104402 				TRAP	X
	000130	000034 				.WORD	GC01SZ
	000132	000000'				.WORD	GC01MG
     86	000134	000261 			5$:	SEC			;EXIT TYPE ERROR
     87	000136					RETURN
     88	000140				10$:	ERROUT	GC03		;MAX @ FILE DEPTH EXCEEDED
	000140	104402 				TRAP	X
	000142	000054 				.WORD	GC03SZ
	000144	000076'				.WORD	GC03MG
     89	000146	000407 				BR	40$
     90	000150				20$:	ERROUT	GC02		;BAD @ FILE NAME
	000150	104402 				TRAP	X
	000152	000042 				.WORD	GC02SZ
	000154	000034'				.WORD	GC02MG
     91	000156	000403 				BR	40$
     92	000160				30$:	ERROUT	GC04		;FAILED TO OPEN @ FILE
	000160	104402 				TRAP	X
	000162	000050 				.WORD	GC04SZ
	000164	000152'				.WORD	GC04MG
     93	000166	000241 			40$:	CLC			;RECOVERABLE TYPE FAILURE
     94	000170					RETURN
     95					;
     96	000000					.CSECT
     97					;
     98					; MESSAGES FOR GET COMMAND LINE ERRORS
     99	000000					MSG	GC01,<GET COMMAND LINE - I/O ERROR>
    100	000000					MSG	GC02,<GET COMMAND LINE - BAD @ FILE NAME>
GETCML M0103, GET A COMMAND LIN	MACRO M1113  27-FEB-85 12:31  PAGE 7-2
**** GETCML VERSION M0103 ****

    101	000000					MSG	GC03,<GET COMMAND LINE - MAX @ FILE DEPTH EXCEEDED>
    102	000000					MSG	GC04,<GET COMMAND LINE - FAILED TO OPEN @ FILE>
    103					;
    104					;
    105		000001 				.END
GETCML M0103, GET A COMMAND LIN	MACRO M1113  27-FEB-85 12:31  PAGE 7-3
SYMBOL TABLE

GCMLCB= ****** GX	GETCML  000000RG    002	GE.OPR= 177776   	R$$DYM= 000001   	S.FTYP= 000002
GCMLER  000062RG    002	GE.BIF= 177775   	G.CMLD= 000146   	R$$EIS= 000000   	S.NFEN= 000020
GC01MG= 000000R     003	GE.CLO= 000004   	G.DPRM= 000160   	R$$MSG= 000000   	X     = 000002
GC01SZ= 000034   	GE.COM= 000001   	G.ERR = 000140   	R$$11M= 000001   	$$    = 000067
GC02MG= 000034R     003	GE.EOF= 177766   	G.ISIZ= 000020   	S.FDB = 000140   	.CLOSE= ****** G
GC02SZ= 000042   	GE.IND= 000002   	G.MODE= 000141   	S.FNAM= 000006   	.GCML1= ****** G
GC03MG= 000076R     003	GE.IOR= 177777   	G.PSDS= 000142   	S.FNB = 000036   	.GCML2= ****** G
GC03SZ= 000054   	GE.LC = 000010   	PAR$$$= 000000   	S.FNBW= 000017   	.SAVR1= ****** GX
GC04MG= 000152R     003	GE.MDE= 177774   	R$$DPB= 000001   	S.FNTY= 000004   	...TPC= 000140
GC04SZ= 000050

. ABS.	000000	   000
      	000000	   001
PURE$I	000172	   002
MSGSTR	000222	   003
ERRORS DETECTED:  0

VIRTUAL MEMORY USED:  4267 WORDS  ( 17 PAGES)
DYNAMIC MEMORY:  5678 WORDS  ( 21 PAGES)
ELAPSED TIME:  00:00:16
[43,10]GETCML,[43,20]GETCML/-SP/CR=[43,30]PIPMAC,GETCML
GETCML     CREATED BY  MACRO  ON 27-FEB-85 AT 12:31	PAGE 1

SYMBOL CROSS REFERENCE                                  CREF

SYMBOL	VALUE		REFERENCES

GCMLCB	= ******  GX	 7-48       7-48       7-54
GCMLER	  000062 RG	 7-53       7-53      #7-76
GC01MG	= 000000 R	 7-85      #7-99       7-99
GC01SZ	= 000034	 7-85      #7-99
GC02MG	= 000034 R	 7-90      #7-100      7-100
GC02SZ	= 000042	 7-90      #7-100
GC03MG	= 000076 R	 7-88      #7-101      7-101
GC03SZ	= 000054	 7-88      #7-101
GC04MG	= 000152 R	 7-92      #7-102      7-102
GC04SZ	= 000050	 7-92      #7-102
GETCML	  000000 RG	#7-48       7-51       7-57
GE.BIF	= 177775	 7-81
GE.EOF	= 177766	 7-77
GE.MDE	= 177774	 7-79
GE.OPR	= 177776	 7-83
G.CMLD	= 000146	 7-50
G.ERR 	= 000140	 7-77       7-79       7-81       7-83
G.PSDS	= 000142	*7-48
MSGBL.	= ******	 7-99       7-100      7-101      7-102
PAR$$$	= 000000	#7-48       7-48      #7-56       7-56      #7-60       7-60      #7-61       7-61
RONLY$	= ******	 7-26       7-26       7-99       7-99       7-100      7-100      7-101      7-101      7-102
                         7-102
R$$DPB	= 000001	#1-27
R$$DYM	= 000001	#1-29
R$$EIS	= 000000	#1-28       1-38
R$$MSG	= 000000	 7-99       7-99       7-100      7-100      7-101      7-101      7-102      7-102
R$$11M	= 000001	#1-25       1-26       7-1
SYS40$	= ******	 1-67       7-26       7-26       7-99       7-99       7-100      7-100      7-101      7-101
                         7-102      7-102
X     	= 000002	#7-85       7-85      #7-88       7-88      #7-90       7-90      #7-92       7-92
$$    	= 000067	#7-53       7-53
.CLOSE	= ******  G	 7-61       7-61
.GCML1	= ******  G	 7-48       7-48
.GCML2	= ******  G	 7-56       7-56       7-60       7-60
.SAVR1	= ******  GX	 7-76
GETCML     CREATED BY  MACRO  ON 27-FEB-85 AT 12:31	PAGE 2

MACRO CROSS REFERENCE                                   CREF

MACRO NAME	REFERENCES

ASH   		#1-64
ASHC  		#1-64
CALL  		#7-23      #7-53      #7-61
CLOSE$		#7-23      #7-61
DIV   		#1-64
ERRINI		#4-307
ERROUT		#3-215      7-85       7-88       7-90       7-92
ERROUX		#3-222
ERROU1		#3-225     #7-85      #7-88      #7-90      #7-92
ERRP  		#3-247
ERRPX 		#3-253
ERRP1 		#3-256
ERR$  		#7-61      #7-61
ERR1  		#3-273     #7-85      #7-88      #7-90      #7-92
FLDSOF		#5-382
GCMLD$		#7-23      #7-24      #7-48      #7-48
GCML$ 		#7-23      #7-48
IDENT 		#5-339     #7-1
IDENT1		#5-347      7-1
IDTITL		#5-356
ILLOP 		#1-52      #1-64       1-64
IMPURE		#1-75
LDFDB$		#7-61       7-61
LDR0$ 		#7-48       7-48      #7-56       7-56      #7-60       7-60
MARK  		#1-64
MSG   		#2-124     #7-99      #7-100     #7-101     #7-102
MSGZ  		#2-129
MSG1  		#2-133     #7-99      #7-100     #7-101     #7-102
MUL   		#1-64
NOEIS$		#1-39       1-64
PURE. 		#1-84       7-26       7-99       7-100      7-101      7-102
PURE.D		#1-102
PURE.I		#1-98       7-26
RCML$ 		#7-23       7-56       7-60
RETURN		#7-23       7-52       7-63       7-87       7-94
RTT   		#1-64
SOB   		#1-64
SXT   		#1-64
XOR   		#1-64
HDRMG M0114, FILE HEADER TO ASC	MACRO M1113  27-FEB-85 12:31
TABLE OF CONTENTS

     7-    1	**** HDRMG VERSION M0114 ****
PIPMAC - MACROS FOR PIP, ETC.	MACRO M1113  27-FEB-85 12:31  PAGE 6


    397
HDRMG M0114, FILE HEADER TO ASC	MACRO M1113  27-FEB-85 12:31  PAGE 7


      1						.TITLE	HDRMG M0114, FILE HEADER TO ASCII
						.SBTTL	**** HDRMG VERSION M0114 ****
						.IDENT	/M0114/
      2					; ALTERED THURSDAY 21-NOV-74 9:45
      3					;
      4					; COPYRIGHT 1975, 1985, DIGITAL EQUIPMENT CORP., MAYNARD MASS.
      5					; COPYRIGHT 1974, DIGITAL EQUIPMENT CORP., MAYNARD MASS.
      6
      7					;			ALL RIGHTS RESERVED
      8					;
      9					; THIS SOFTWARE IS FURNISHED TO PURCHASER UNDER A LICENSE FOR USE
     10					; ON A SINGLE COMPUTER SYSTEM AND CAN BE COPIED (WITH INCLUSION
     11					; OF DEC'S COPYRIGHT NOTICE) ONLY FOR USE IN SUCH SYSTEM, EXCEPT
     12					; AS MAY OTHERWISE BE PROVIDED IN WRITING BY DEC.
     13
     14					; THE INFORMATION IN THIS DOCUMENT IS SUBJECT TO CHANGE WITHOUT
     15					; NOTICE AND SHOULD NOT BE CONSTRUED AS A COMMITMENT BY DIGITAL
     16					; EQUIPMENT CORPORATION.
     17
     18					; DEC ASSUMES NO RESPONSIBILITY FOR THE USE OR RELIABILITY
     19					; OF ITS SOFTWARE ON EQUIPMENT WHICH IS NOT SUPPLIED BY DEC.
     20					;
     21					; PETER H. LIPMAN 5-JUNE-73
     22					;
     23						.MCALL	CALL,RETURN,FDOF$L
     24	000000					FDOF$L
     25					;
     26		000001 				HDFNAM=1		;IF SET IN R3, CONVERT THE FILE NAME
     27		000002 				HDLONG=2		;IF SET IN R3, LONG FORM CONVERSION
     28					;
     29	000000					PURE.D
     30					;
     31					; FIELD DEFINITION TABLES
     32	000000	   024 	   010 	   003 	HDRTB1::.BYTE	20.,8.,3.	;SHORT FORM
     33	000003	   024 	   020 	   016 	HDRTB2:	.BYTE	20.,16.,14.,3.,16.,2,9.,22.,24. ;LONG FORM
	000006	   003 	   020 	   002
	000011	   011 	   026 	   030
     34						.EVEN
HDRMG M0114, FILE HEADER TO ASC	MACRO M1113  27-FEB-85 12:31  PAGE 8
**** HDRMG VERSION M0114 ****

     36					;
     37	000014					PURE.I
     38					;+
     39					; CONVERT FILE HEADER TO STRING
     40					; CALLING SEQUENCE:
     41					;	CALL	HDRMG
     42					; INPUTS
     43					;	R0=STRING ADDRESS TO PUT CHARACTERS IN
     44					;	R1=HEADER ADDRESS
     45					;	R2=STATISTICS BLOCK ADDRESS
     46					;	R3=CONVERT CONTROL BITS (0-7)
     47					;		BIT 0 = 0 SKIP THE FILE NAME, TYPE, AND VERSION
     48					;		BIT 0 = 1 CONVERT THE FILE NAME, TYPE AND VERSION
     49					;		BIT 1 = 0 SHORT FORM CONVERSION
     50					;		BIT 1 = 1 LONG FORM CONVERSION
     51					;	R3 BITS 8-15 - LISTING WIDTH OF LINE, (>=132. FOR LONG 1 LINER)
     52					; OUTPUTS:
     53					;	R0=UPDATED STRING POINTER
     54					;	R1=TOTAL NUMBER OF BYTES CONVERTED
     55					;	R2-R5 PRESERVED
     56					;-
     57	000000	004567 	000000G		HDRMG::	JSR	R5,$SAVRG	;SAVE R3-R5
     58	000004	010046 				MOV	R0,-(SP)
     59	000006	010246 				MOV	R2,-(SP)
     60	000010	010346 				MOV	R3,-(SP)	;TOP OF STACK=CONTROL BITS
     61	000012	010103 				MOV	R1,R3		;R3=ADDRESS OF HEADER
     62	000014	005004 				CLR	R4
     63	000016	156304 	000000G			BISB	HH.IDO(R3),R4
     64	000022	006304 				ASL	R4
     65	000024	060304 				ADD	R3,R4		;R4=BASE OF IDENT AREA IN HEADER
     66	000026	012705 	000000'			MOV	#HDRTB1,R5
     67	000032	032716 	000002 			BIT	#HDLONG,@SP
     68	000036	001402 				BEQ	10$
     69	000040	012705 	000003'			MOV	#HDRTB2,R5	;R5=FIELD CONTROL TABLE
     70	000044	032716 	000001 		10$:	BIT	#HDFNAM,@SP	;CONVERT FILE NAME, TYPE, AND VERSION?
     71	000050	001412 				BEQ	20$		;BRANCH IF NO
     72					;
     73					; CONVERT THE FILE NAME, TYPE, AND VERSION
     74	000052	012701 	000000'			MOV	#HD01MG,R1
     75	000056	010402 				MOV	R4,R2
     76	000060	062702 	000000G			ADD	#HI.NAM,R2	;R2 POINTS AT RAD50 NAME, TYPE VER
     77	000064					CALL	$EDMSG
     78	000070					CALL	HDFILL		;FILL OUT THE FIELD WITH BLANK
     79	000074	000401 				BR	25$
     80	000076	005205 			20$:	INC	R5		;SKIP THE FILENAME FIELD
     81	000100	032716 	000002 		25$:	BIT	#HDLONG,@SP
     82	000104	001425 				BEQ	40$		;BRANCH IF SHORT FORM
     83					;
     84					; CONVERT THE FILE ID
     85	000106	010046 				MOV	R0,-(SP)
     86	000110	112720 	000050 			MOVB	#'(,(R0)+
     87	000114	016301 	000000G			MOV	HH.FNU(R3),R1
     88	000120	005002 				CLR	R2		;SUPPRESS LEADING ZEROS
     89	000122					CALL	$CBOMG		;CONVERT FILE NUMBER
     90	000126	112720 	000054 			MOVB	#',,(R0)+
     91	000132	016301 	000000G			MOV	HH.FSQ(R3),R1
     92	000136	005002 				CLR	R2
HDRMG M0114, FILE HEADER TO ASC	MACRO M1113  27-FEB-85 12:31  PAGE 8-1
**** HDRMG VERSION M0114 ****

     93	000140					CALL	$CBOMG		;CONVERT FILE SEQUENCE NUMBER
     94	000144	112720 	000051 			MOVB	#'),(R0)+
     95	000150	010001 				MOV	R0,R1
     96	000152	162601 				SUB	(SP)+,R1
     97	000154					CALL	HDFILL
     98					; CONVERT THE NO. OF BLOCKS USED.
     99	000160	010301 			40$:	MOV	R3,R1
    100	000162	062701 	000000G			ADD	#HH.UAT,R1
    101	000166	016146 	000010 			MOV	F.EFBK(R1),-(SP) ;SAVE EFBK
    102	000172	016146 	000012 			MOV	F.EFBK+2(R1),-(SP)
    103	000176	011602 				MOV	@SP,R2
    104	000200	056602 	000002 			BIS	2(SP),R2
    105	000204	001011 				BNE	43$
    106					;
    107					; EFBK = 0 INDICATING THAT NO FCS END OF FILE INFO IS PRESENT
    108					; SAY THAT FILE SIZE IS THE ALLOCATED SPACE
    109	000206	016602 	000006 			MOV	6(SP),R2	;R2=STAT BLOCK ADDRESS
    110	000212	016261 	000004 	000010 		MOV	4(R2),F.EFBK(R1) ;USE ALLOCATED SPACE FOR SIZE USED
    111	000220	016261 	000006 	000012 		MOV	6(R2),F.EFBK+2(R1)
    112	000226	000410 				BR	45$
    113	000230	005761 	000014 		43$:	TST	F.FFBY(R1)	;IF FFBY=0
    114	000234	001005 				BNE	45$
    115	000236	162761 	000001 	000012 		SUB	#1,F.EFBK+2(R1)	;THEN EFBK IS 1 TOO BIG
    116	000244	005661 	000010 			SBC	F.EFBK(R1)
    117	000250	062701 	000010 		45$:	ADD	#F.EFBK,R1
    118	000254	005002 				CLR	R2		;ZERO SUPPRESS
    119	000256					CALL	CDDMG		;CONVERT DOUBLE PRECISION TO MAG DECIMAL
    120	000262	012663 	000012G			MOV	(SP)+,HH.UAT+F.EFBK+2(R3) ;RESTORE EFBK
    121	000266	012663 	000010G			MOV	(SP)+,HH.UAT+F.EFBK(R3)
    122	000272	032716 	000002 			BIT	#HDLONG,@SP
    123	000276	001414 				BEQ	60$		;BRANCH IF SHORT MODE
    124					; CONVERT NO. OF BLOCKS ALLOCATED
    125	000300	112720 	000057 			MOVB	#'/,(R0)+	;PUT IN "/"
    126	000304	005201 				INC	R1		;AND COUNT IT
    127	000306	010146 				MOV	R1,-(SP)	;SAVE THE COUNT
    128	000310	016601 	000004 			MOV	4(SP),R1	;R1=STATISTICS BLOCK ADDRESS
    129	000314	062701 	000004 			ADD	#4,R1		;R1=ADDRESS OF ALLOCATED SIZE
    130	000320	005002 				CLR	R2
    131	000322					CALL	CDDMG		;CONVERT DBL PRECISION TO DECIMAL MAGNITUDE
    132	000326	062601 				ADD	(SP)+,R1	;FORM COUNT FOR NNN/MMM
    133	000330				60$:	CALL	HDFILL		;BLANK FILL THE FIELD
    134					; PUT "C" FOR CONTIGUOUS AND "L" FOR LOCKED
    135	000334	112720 	000040 			MOVB	#' ,(R0)+
    136	000340	132763 	000000G	000000G		BITB	#HS.CON,HH.CHU(R3) ;IF CONTIGUOUS
    137	000346	001403 				BEQ	65$
    138	000350	112760 	000103 	177777 		MOVB	#'C,-1(R0)	;PUT A "C" IN STRING
    139	000356	112720 	000040 		65$:	MOVB	#' ,(R0)+
    140	000362	132763 	000000G	000000G		BITB	#HS.PHL,HH.CHU(R3) ;IF LOCKED
    141	000370	001403 				BEQ	70$
    142	000372	112760 	000114 	177777 		MOVB	#'L,-1(R0)	;PUT A "C" IN STRING
    143	000400	012701 	000002 		70$:	MOV	#2,R1		;NO. OF CHARACTERS
    144	000404					CALL	HDFILL
    145					; PUT CREATION DATE AND TIME IN STRING
    146	000410	010401 				MOV	R4,R1
    147	000412	062701 	000000G			ADD	#HI.CDT,R1
    148	000416					CALL	DATIM
    149	000422	032716 	000002 			BIT	#HDLONG,@SP
HDRMG M0114, FILE HEADER TO ASC	MACRO M1113  27-FEB-85 12:31  PAGE 8-2
**** HDRMG VERSION M0114 ****

    150	000426	001574 				BEQ	HDRMGX
    151	000430	122766 	000204 	000001 	HDRMG1:	CMPB	#132.,1(SP)	;DON'T PUT IN ANOTHER LINE IF LONG LINE
    152	000436	101004 				BHI	5$
    153	000440					CALL	HDFILL
    154	000444	005205 				INC	R5		;SKIP INDENT
    155	000446	000410 				BR	10$
    156	000450	112720 	000015 		5$:	MOVB	#15,(R0)+	;NEXT LINE
    157	000454	112720 	000012 			MOVB	#12,(R0)+
    158	000460	005001 				CLR	R1
    159	000462	005205 				INC	R5		;SKIP FILL FIELD FOR CREATION DATE
    160	000464					CALL	HDFILL		;INDENT
    161					; STORE OWNER'S PROJECT PROGRAMMER NUMBER
    162	000470	012701 	000013'		10$:	MOV	#HD03MG,R1
    163	000474	005046 				CLR	-(SP)
    164	000476	116316 	000000G			MOVB	HH.PC(R3),@SP
    165	000502	005046 				CLR	-(SP)
    166	000504	116316 	000000G			MOVB	HH.GC(R3),@SP
    167	000510	010602 				MOV	SP,R2
    168	000512					CALL	$EDMSG
    169	000516	062706 	000004 			ADD	#4,SP
    170	000522					CALL	HDFILL
    171					; PUT PROTECTION CODE IN STRING
    172	000526	010046 				MOV	R0,-(SP)	;SAVE 50 CAN GET COUNT
    173	000530	112720 	000133 			MOVB	#'[,(R0)+
    174	000534	012702 	000004 			MOV	#4,R2
    175	000540	016301 	000000G			MOV	HH.FP(R3),R1
    176	000544	032701 	000000G		18$:	BIT	#HF.RDV,R1
    177	000550	001002 				BNE	20$
    178	000552	112720 	000122 			MOVB	#'R,(R0)+
    179	000556	032701 	000000G		20$:	BIT	#HF.WRV,R1
    180	000562	001002 				BNE	22$
    181	000564	112720 	000127 			MOVB	#'W,(R0)+
    182	000570	032701 	000000G		22$:	BIT	#HF.EXT,R1
    183	000574	001002 				BNE	24$
    184	000576	112720 	000105 			MOVB	#'E,(R0)+
    185	000602	032701 	000000G		24$:	BIT	#HF.DEL,R1
    186	000606	001002 				BNE	26$
    187	000610	112720 	000104 			MOVB	#'D,(R0)+
    188	000614	112720 	000054 		26$:	MOVB	#',,(R0)+
    189
    190						.IF	EQ,R$$EIS
    191		000004 				.REPT	4
    192						ASR	R1		;SHIFT RIGHT 4 BITS
    193						.ENDR
    194
    195						.IFF
    196						ASH	#-4,R1
    197						.ENDC
    198
    199	000630					SOB	R2,18$
    200	000634	112760 	000135 	177777 		MOVB	#'],-1(R0)	;"]" INSTEAD OF TRAILING ","
    201	000642	010001 				MOV	R0,R1
    202	000644	162601 				SUB	(SP)+,R1	;NEW POINTER -OLD=COUNT
    203	000646	105764 	000000G			TSTB	HI.EXP(R4)	;IF NO EXPIRATION DATE
    204	000652	001004 				BNE	30$
    205	000654	022764 	000001 	000000G		CMP	#1,HI.REV(R4)	;AND NO REVISION DATE TO PRINT
    206	000662	103056 				BHIS	HDRMGX		;SKIP TO THE END
HDRMG M0114, FILE HEADER TO ASC	MACRO M1113  27-FEB-85 12:31  PAGE 8-3
**** HDRMG VERSION M0114 ****

    207	000664				30$:	CALL	HDFILL
    208					; REVISION DATE
    209	000670	005001 				CLR	R1
    210	000672	022764 	000001 	000000G		CMP	#1,HI.REV(R4)	;IF REVISION NUMBER IS <=1
    211	000700	103021 				BHIS	40$		;DON'T BOTHER PRINTING THE REVISION INFO
    212	000702	010401 				MOV	R4,R1
    213	000704	062701 	000000G			ADD	#HI.RDT,R1
    214	000710					CALL	DATIM
    215	000714	010146 				MOV	R1,-(SP)
    216					; REVISION NUMBER
    217	000716	010402 				MOV	R4,R2
    218	000720	062702 	000000G			ADD	#HI.REV,R2
    219	000724	012701 	000023'			MOV	#HD04MG,R1
    220	000730					CALL	$EDMSG
    221	000734	062601 				ADD	(SP)+,R1	;ADD SAVED COUNT FROM REVISION DATE
    222	000736	105764 	000000G			TSTB	HI.EXP(R4)	;IF NULL EXPIRATION DATE
    223	000742	001426 				BEQ	HDRMGX		;SKIP TO THE END
    224	000744	122766 	000204 	000001 	40$:	CMPB	#132.,1(SP)	;IF USING LONG LINE FORMAT
    225	000752	101007 				BHI	45$
    226	000754	112720 	000015 			MOVB	#15,(R0)+	;MUST GO TO NEW LINE NOW
    227	000760	112720 	000012 			MOVB	#12,(R0)+
    228	000764	112720 	000011 			MOVB	#11,(R0)+
    229	000770	000402 				BR	50$
    230	000772				45$:	CALL	HDFILL
    231					; EXPIRATION DATE
    232	000776	010401 			50$:	MOV	R4,R1
    233	001000	062701 	000000G			ADD	#HI.EXP,R1
    234	001004					CALL	DATIM
    235	001010	005701 				TST	R1		;ANY EXPIRATION DATE?
    236	001012	001402 				BEQ	HDRMGX		;BRANCH IF NO
    237	001014	162700 	000006 			SUB	#6,R0		;SUBTRACT OFF THE TIME CHARACTERS
    238	001020	012603 			HDRMGX:	MOV	(SP)+,R3
    239	001022	012602 				MOV	(SP)+,R2
    240	001024	010001 				MOV	R0,R1
    241	001026	162601 				SUB	(SP)+,R1
    242	001030	105010 				CLRB	@R0
    243	001032					RETURN
HDRMG M0114, FILE HEADER TO ASC	MACRO M1113  27-FEB-85 12:31  PAGE 9
**** HDRMG VERSION M0114 ****

    245					;+
    246					; FILL IN FIELD WITH BLANKS
    247					; CALLING SEQUENCE:
    248					;	CALL	HDFILL
    249					; INPUTS
    250					;	R0=STRING ADDRESS
    251					;	R1=BYTES USED IN THIS FIELD
    252					;	R5=POINTS TO BYTE WHICH IS NO. OF SPACES TO USE IN THE FIELD
    253					; OUTPUTS:
    254					;	R0=UPDATED STRING POINTER
    255					;	R5=POINTS AT NEXT BYTE IN FIELD DEFINITION TABLE
    256					;	R1 ALTERED
    257					;	R2-R4 PRESERVED
    258					;-
    259	001034	010146 			HDFILL::MOV	R1,-(SP)
    260	001036	112501 				MOVB	(R5)+,R1
    261	001040	162601 				SUB	(SP)+,R1
    262	001042	003404 				BLE	20$
    263	001044	112720 	000040 		10$:	MOVB	#' ,(R0)+
    264	001050					SOB	R1,10$
    265	001054				20$:	RETURN
    266					;
    267					; CONVERT FILE-11 DATE AND TIME FORMAT TO STRING
    268					; INPUTS
    269					;	R0=STRING ADDRES
    270					;	R1=DATE STRING ADDRESS
    271					; OUTPUTS
    272					;	R0 UPDATE
    273					;	R1=NO. OF BYTES
    274	001056	010046 			DATIM:	MOV	R0,-(SP)
    275	001060	105711 				TSTB	@R1
    276	001062	001423 				BEQ	20$
    277	001064	112120 				MOVB	(R1)+,(R0)+	;DATE DD
    278	001066	112120 				MOVB	(R1)+,(R0)+
    279	001070	112720 	000055 			MOVB	#'-,(R0)+
    280	001074	112120 				MOVB	(R1)+,(R0)+	;MONTH MMM
    281	001076	112120 				MOVB	(R1)+,(R0)+
    282	001100	112120 				MOVB	(R1)+,(R0)+
    283	001102	112720 	000055 			MOVB	#'-,(R0)+
    284	001106	112120 				MOVB	(R1)+,(R0)+	;YEAR YY
    285	001110	112120 				MOVB	(R1)+,(R0)+
    286	001112	112720 	000040 			MOVB	#' ,(R0)+
    287	001116	112120 				MOVB	(R1)+,(R0)+	;HOURS HH
    288	001120	112120 				MOVB	(R1)+,(R0)+
    289	001122	112720 	000072 			MOVB	#':,(R0)+
    290	001126	112120 				MOVB	(R1)+,(R0)+	;MINUTES MM
    291	001130	112120 				MOVB	(R1)+,(R0)+
    292	001132	010001 			20$:	MOV	R0,R1
    293	001134	162601 				SUB	(SP)+,R1
    294	001136					RETURN
    295					; CONVERT DOUBLE PRECISION BINARY TO MAGNITIDE DECIMAL
    296					; INPUTS
    297					;	R0=STRING ADDRESS
    298					;	R1=ADDRESS OF DOUBLE PRECISION NUMBER
    299					;	R2=R2 PARAM TO CBDMG
    300					; OUTPUTS
    301					;	R0=UPDATED STRING
HDRMG M0114, FILE HEADER TO ASC	MACRO M1113  27-FEB-85 12:31  PAGE 9-1
**** HDRMG VERSION M0114 ****

    302					;	R1=SIZE
    303					;	R2 ALTERED, R3-R5 PRESERVED
    304	001140	010046 			CDDMG:	MOV	R0,-(SP)
    305	001142					CALL	$CDDMG
    306	001146	112720 	000056 			MOVB	#'.,(R0)+
    307	001152	010001 				MOV	R0,R1
    308	001154	162601 				SUB	(SP)+,R1
    309	001156					RETURN
    310					;
    311	000000					.CSECT
    312					;
    313					; HEADER CONVERSION STRINGS
    314	000000					MSGZ	HD01,<%X>
    315	000000					MSGZ	HD02,<(%P,%P)>
    316	000000					MSGZ	HD03,<[%O,%O]>
    317	000000					MSGZ	HD04,<(%D.)>
    318					;
    319					;
    320					;
    321		000001 				.END
HDRMG M0114, FILE HEADER TO ASC	MACRO M1113  27-FEB-85 12:31  PAGE 9-2
SYMBOL TABLE

CDDMG   001140R     003	F.FNAM= 000110   	F.VBSZ= 000060   	HH.FNU= ****** GX	N.STAT= 000020
DATIM   001056R     003	F.FNB = 000102   	HDFILL  001034RG    003	HH.FP = ****** GX	N.UNIT= 000034
F.ALOC= 000040   	F.FTYP= 000116   	HDFNAM= 000001   	HH.FSQ= ****** GX	R$$DPB= 000001
F.BBFS= 000062   	F.FVER= 000120   	HDLONG= 000002   	HH.GC = ****** GX	R$$DYM= 000001
F.BDB = 000070   	F.HIBK= 000004   	HDRMG   000000RG    003	HH.IDO= ****** GX	R$$EIS= 000000
F.BGBC= 000057   	F.LUN = 000042   	HDRMGX  001020R     003	HH.PC = ****** GX	R$$MSG= 000000
F.BKDN= 000026   	F.MBCT= 000054   	HDRMG1  000430R     003	HH.UAT= ****** GX	R$$11M= 000001
F.BKDS= 000020   	F.MBC1= 000055   	HDRTB1  000000RG    002	HI.CDT= ****** GX	S.FATT= 000016
F.BKEF= 000050   	F.MBFG= 000056   	HDRTB2  000003R     002	HI.EXP= ****** GX	S.FDB = 000140
F.BKP1= 000051   	F.NRBD= 000024   	HD01MG= 000000R     004	HI.NAM= ****** GX	S.FNAM= 000006
F.BKST= 000024   	F.NREC= 000030   	HD01SZ= 000003   	HI.RDT= ****** GX	S.FNB = 000036
F.BKVB= 000064   	F.OVBS= 000030   	HD02MG= 000003R     004	HI.REV= ****** GX	S.FNBW= 000017
F.CNTG= 000034   	F.RACC= 000016   	HD02SZ= 000010   	HS.CON= ****** GX	S.FNTY= 000004
F.DFNB= 000046   	F.RATT= 000001   	HD03MG= 000013R     004	HS.PHL= ****** GX	S.FTYP= 000002
F.DSPT= 000044   	F.RCNM= 000034   	HD03SZ= 000010   	N.DID = 000024   	S.NFEN= 000020
F.DVNM= 000134   	F.RCTL= 000017   	HD04MG= 000023R     004	N.DVNM= 000032   	$CBOMG= ****** GX
F.EFBK= 000010   	F.RSIZ= 000002   	HD04SZ= 000006   	N.FID = 000000   	$CDDMG= ****** GX
F.EFN = 000050   	F.RTYP= 000000   	HF.DEL= ****** GX	N.FNAM= 000006   	$EDMSG= ****** GX
F.EOBB= 000032   	F.STBK= 000036   	HF.EXT= ****** GX	N.FTYP= 000014   	$SAVRG= ****** GX
F.ERR = 000052   	F.UNIT= 000136   	HF.RDV= ****** GX	N.FVER= 000016   	$$    = 000067
F.FACC= 000043   	F.URBD= 000020   	HF.WRV= ****** GX	N.NEXT= 000022   	...TPC= 000140
F.FFBY= 000014   	F.VBN = 000064   	HH.CHU= ****** GX

. ABS.	000000	   000
      	000000	   001
PURE$D	000014	   002
PURE$I	001160	   003
MSGSTR	000031	   004
ERRORS DETECTED:  0

VIRTUAL MEMORY USED:  3865 WORDS  ( 16 PAGES)
DYNAMIC MEMORY:  4622 WORDS  ( 17 PAGES)
ELAPSED TIME:  00:00:16
[43,10]HDRMG,[43,20]HDRMG/-SP/CR=[43,30]PIPMAC,HDRMG
HDRMG      CREATED BY  MACRO  ON 27-FEB-85 AT 12:32	PAGE 1

SYMBOL CROSS REFERENCE                                  CREF

SYMBOL	VALUE		REFERENCES

CDDMG 	  001140 R	 8-119      8-119      8-131      8-131     #9-304
DATIM 	  001056 R	 8-148      8-148      8-214      8-214      8-234      8-234     #9-274
F.EFBK	= 000010	 8-101      8-102     *8-110     *8-111     *8-115     *8-116      8-117     *8-120     *8-121
F.FFBY	= 000014	 8-113
HDFILL	  001034 RG	 8-78       8-78       8-97       8-97       8-133      8-133      8-144      8-144      8-153
                         8-153      8-160      8-160      8-170      8-170      8-207      8-207      8-230      8-230
                        #9-259
HDFNAM	= 000001	#7-26       8-70
HDLONG	= 000002	#7-27       8-67       8-81       8-122      8-149
HDRMG 	  000000 RG	#8-57
HDRMGX	  001020 R	 8-150      8-206      8-223      8-236     #8-238
HDRMG1	  000430 R	#8-151
HDRTB1	  000000 RG	#7-32       8-66
HDRTB2	  000003 R	#7-33       8-69
HD01MG	= 000000 R	 8-74      #9-314      9-314
HD01SZ	= 000003	#9-314
HD02MG	= 000003 R	#9-315      9-315
HD02SZ	= 000010	#9-315
HD03MG	= 000013 R	 8-162     #9-316      9-316
HD03SZ	= 000010	#9-316
HD04MG	= 000023 R	 8-219     #9-317      9-317
HD04SZ	= 000006	#9-317
HF.DEL	= ******  GX	 8-185
HF.EXT	= ******  GX	 8-182
HF.RDV	= ******  GX	 8-176
HF.WRV	= ******  GX	 8-179
HH.CHU	= ******  GX	 8-136      8-140
HH.FNU	= ******  GX	 8-87
HH.FP 	= ******  GX	 8-175
HH.FSQ	= ******  GX	 8-91
HH.GC 	= ******  GX	 8-166
HH.IDO	= ******  GX	 8-63
HH.PC 	= ******  GX	 8-164
HH.UAT	= ******  GX	 8-100     *8-120     *8-121
HI.CDT	= ******  GX	 8-147
HI.EXP	= ******  GX	 8-203      8-222      8-233
HI.NAM	= ******  GX	 8-76
HI.RDT	= ******  GX	 8-213
HI.REV	= ******  GX	 8-205      8-210      8-218
HS.CON	= ******  GX	 8-136
HS.PHL	= ******  GX	 8-140
MSGBL.	= ******	 9-314      9-315      9-316      9-317
RONLY$	= ******	 7-29       7-29       8-37       8-37       9-314      9-314      9-315      9-315      9-316
                         9-316      9-317      9-317
R$$DPB	= 000001	#1-27
R$$DYM	= 000001	#1-29
R$$EIS	= 000000	#1-28       1-38       8-190
R$$MSG	= 000000	 9-314      9-314      9-315      9-315      9-316      9-316      9-317      9-317
R$$11M	= 000001	#1-25       1-26       7-1
SYS40$	= ******	 1-67       7-29       7-29       8-37       8-37       9-314      9-314      9-315      9-315
                         9-316      9-316      9-317      9-317
$CBOMG	= ******  GX	 8-89       8-89       8-93       8-93
HDRMG      CREATED BY  MACRO  ON 27-FEB-85 AT 12:32	PAGE 2

SYMBOL CROSS REFERENCE                                  CREF

SYMBOL	VALUE		REFERENCES

$CDDMG	= ******  GX	 9-305      9-305
$EDMSG	= ******  GX	 8-77       8-77       8-168      8-168      8-220      8-220
$SAVRG	= ******  GX	 8-57
$$    	= 000067	#8-77       8-77      #8-78       8-78      #8-89       8-89      #8-93       8-93      #8-97
                         8-97      #8-119      8-119     #8-131      8-131     #8-133      8-133     #8-144      8-144
                        #8-148      8-148     #8-153      8-153     #8-160      8-160     #8-168      8-168     #8-170
                         8-170     #8-207      8-207     #8-214      8-214     #8-220      8-220     #8-230      8-230
                        #8-234      8-234     #9-305      9-305
HDRMG      CREATED BY  MACRO  ON 27-FEB-85 AT 12:32	PAGE 3

MACRO CROSS REFERENCE                                   CREF

MACRO NAME	REFERENCES

ASH   		#1-64
ASHC  		#1-64
CALL  		#7-23      #8-77      #8-78      #8-89      #8-93      #8-97      #8-119     #8-131     #8-133     #8-144
                #8-148     #8-153     #8-160     #8-168     #8-170     #8-207     #8-214     #8-220     #8-230     #8-234
                #9-305
DIV   		#1-64
ERRINI		#4-307
ERROUT		#3-215
ERROUX		#3-222
ERROU1		#3-225
ERRP  		#3-247
ERRPX 		#3-253
ERRP1 		#3-256
ERR1  		#3-273
FDOFF$		#7-24       7-24
FDOF$L		#7-23      #7-24
FLDSOF		#5-382
IDENT 		#5-339     #7-1
IDENT1		#5-347      7-1
IDTITL		#5-356
ILLOP 		#1-52      #1-64       1-64
IMPURE		#1-75
MARK  		#1-64
MSG   		#2-124
MSGZ  		#2-129     #9-314     #9-315     #9-316     #9-317
MSG1  		#2-133     #9-314     #9-315     #9-316     #9-317
MUL   		#1-64
NOEIS$		#1-39       1-64
PURE. 		#1-84       7-29       8-37       9-314      9-315      9-316      9-317
PURE.D		#1-102      7-29
PURE.I		#1-98       8-37
RETURN		#7-23       8-243      9-265      9-294      9-309
RTT   		#1-64
SOB   		#1-64      #8-199     #9-264
SXT   		#1-64
XOR   		#1-64
PIPMAC - MACROS FOR PIP, ETC.	MACRO M1113  27-FEB-85 12:32  PAGE 6


    397
HDRSYM - FILES 11 HEADER SYMBOL	MACRO M1113  27-FEB-85 12:32  PAGE 7


      1						.TITLE	HDRSYM - FILES 11 HEADER SYMBOLLIC OFFSETS
      2						.IDENT	/01/
      3					; ALTERED TUESDAY 18-SEP-73 12:55
      4					;	LAST ALTERED BY P. H. LIPMAN FROM RSX V002A DEFINITION
      5					;
      6					; COPYRIGHT 1975, 1985, DIGITAL EQUIPMENT CORP., MAYNARD MASS.
      7					; COPYRIGHT 1974, DIGITAL EQUIPMENT CORP., MAYNARD MASS.
      8
      9					;			ALL RIGHTS RESERVED
     10					;
     11					; THIS SOFTWARE IS FURNISHED TO PURCHASER UNDER A LICENSE FOR USE
     12					; ON A SINGLE COMPUTER SYSTEM AND CAN BE COPIED (WITH INCLUSION
     13					; OF DEC'S COPYRIGHT NOTICE) ONLY FOR USE IN SUCH SYSTEM, EXCEPT
     14					; AS MAY OTHERWISE BE PROVIDED IN WRITING BY DEC.
     15
     16					; THE INFORMATION IN THIS DOCUMENT IS SUBJECT TO CHANGE WITHOUT
     17					; NOTICE AND SHOULD NOT BE CONSTRUED AS A COMMITMENT BY DIGITAL
     18					; EQUIPMENT CORPORATION.
     19
     20					; DEC ASSUMES NO RESPONSIBILITY FOR THE USE OR RELIABILITY
     21					; OF ITS SOFTWARE ON EQUIPMENT WHICH IS NOT SUPPLIED BY DEC.
     22					;
     23
     24					;HEADER AREA, OFFSETS TO THE START OF THE HEADER
     25
     26		000000 			HH.IDO	==0	;1B-IDENT AREA OFFSET, IN WORDS
     27		000001 			HH.MAP	==1	;1B-BLOCK MAP AREA OFFSET, IN WORDS
     28		000002 			HH.FNU	==2	;1W-FILE NUMBER OF THIS FILE
     29		000004 			HH.FSQ	==4	;1W-FILE SEQUENCE NUMBER OF THIS FILE
     30		000006 			HH.LEV	==6	;1W-STRUCTURE LEVEL AND SYSTEM NUMBER
     31		000010 			HH.UI	==10	;1W-FILE OWNER'S "UIC"
     32		000010 			HH.PC	==HH.UI+0	;1B-PROGRAMMER CODE
     33		000011 			HH.GC	==HH.UI+1	;1B-GROUP CODE
     34		000012 			HH.FP	==12	;1W-FILE PROTECTION CODE
     35		000001 				HF.RDV	==01	;READ ACCESS ALLOWED
     36		000002 				HF.WRV	==02	;WRITE ACCESS ALLOWED
     37		000004 				HF.EXT	==04	;EXTEND ALLOWED
     38		000010 				HF.DEL	==10	;DELETE ALLOWED
     39		000001 				HF.RAT	==01	;READ ATTRIBUTES (SAME AS READ ACCESS)
     40		000014 			HH.CH	==14	;1W-FILE CHARACTERISTICS CODE
     41		000014 			HH.CHU	==HH.CH+0	;1B-USER CONTROLLED CHARACTERISTICS
     42		000200 				HS.CON	==200	;FILE IS LOGICALLY CONTIGUOUS
     43		000100 				HS.PHL	==100	;RECORD I/O ATTRIBUTES REQUIRED FOR CLOSE
     44		000040 				HS.TMP	==040	;TEMPORARY UN-NAMED FILE
     45		000015 			HH.CHS	==HH.CH+1	;1B-SYSTEM CONTROLLED CHARACTERISTICS
     46		000200 				HS.MDL	==200	;FILE IS MARKED FOR DELETE
     47		000100 				HS.BAD	==100	;BAD DATA BLOCK IN THE FILE
     48		000016 			HH.UAT	==16	;20W-USER CONTROLLED ATTRIBUTE BLOCK, RECORD I/O
     49		000040 				HH.UAL	==40	;COUNT OF BYTES IN ATTRIBUTE BLOCK
     50
     51					;IDENTIFICATION AREA, OFFSETS TO START OF IDENT AREA
     52
     53		000000 			HI.NAM	==0	;3W-FILE NAME. NINE RADIX-50 CHARACTERS
     54		000002 			HI.NA2	==2	;	LEFT JUSTIFIED AND
     55		000004 			HI.NA3	==4	;	FILLED WITH BLANKS
     56		000006 			HI.TYP	==6	;1W-FILE TYPE, THREE RADIX-50 CHARACTERS
     57		000010 			HI.VER	==10	;1W-FILE VERSION NUMBER, BINARY
HDRSYM - FILES 11 HEADER SYMBOL	MACRO M1113  27-FEB-85 12:32  PAGE 7-1


     58		000012 			HI.REV 	==12	;1W-FILE REVISION NUMBER, BINARY
     59		000014 			HI.RDT	==14	;7B-REVISION DATE, ASCII "DDMMMYY"
     60		000023 			HI.RTM	==23	;6B-REVISION 24HR TIME, ASCII "HHMMSS"
     61		000031 			HI.CDT	==31	;7B-CREATION DATE
     62		000040 			HI.CTM	==40	;6B-CREATION TIME
     63		000046 			HI.EXP	==46	;7B-EXPIRATION DATE OF THE FILE
     64		000007 				HI.DAT	==7	;DATES ARE SEVEN BYTES
     65		000006 				HI.TIM	==6	;TIMES ARE SIX BYTES
     66					;
     67					;MAP AREA, OFFSETS TO START OF THE BLOCK MAP AREA
     68
     69		000000 			HM.ESQ	==0	;1B-FILE EXTENSION SEQUENCE NUMBER
     70		000001 			HM.RVN	==1	;1B-RELATIVE VOLUME CONTAINING EXTENSION FILE
     71		000002 			HM.EFN	==2	;1W-EXTENSION FILE NUMBER
     72		000004 			HM.ESN	==4	;1W-EXTENSION FILE SEQUENCE NUMBER
     73		000006 			HM.CN	==6	;1B-BLOCK COUNT FIELD SIZE FIELD
     74		000007 			HM.BN	==7	;1B-BLOCK NUMBER FIELD SIZE FIELD
     75		000010 			HM.USE	==10	;1B-WORDS IN USE IN THE MAP
     76		000011 			HM.MAX	==11	;1B-TOTAL WORDS AVAILABLE FOR MAP
     77		000012 			HM.PNT	==12	;FILE BLOCK POINTER REGION START
     78
     79					;FORMATS FOR HM.CN,HM.BN:
     80
     81						;C,N == 1,3	.BYTE	HIGH ORDER 8 BITS OF BLOCK #
     82							;	.BYTE	COUNT
     83							;	.WORD	LOW ORDER 16 BITS OF BLOCK #
     84
     85						;C,N ==	2,2	.WORD	COUNT
     86							;	.WORD	BLOCK #
     87
     88						;C,N ==	2,4	.WORD	COUNT
     89							;	.WORD	HIGH ORDER PART OF BLOCK #
     90							;	.WORD	LOW ORDER PART OF BLOCK #
     91
     92					;CHECKSUM AREA, OFFSET TO THE START OF THE HEADER
     93
     94		000776 			HD.SUM	==776	;1W-CHECKSUM SLOT
     95					;
     96					;
     97		000001 				.END
HDRSYM - FILES 11 HEADER SYMBOL	MACRO M1113  27-FEB-85 12:32  PAGE 7-2
SYMBOL TABLE

HD.SUM= 000776 G 	HH.FSQ= 000004 G 	HI.CTM= 000040 G 	HI.TYP= 000006 G 	HM.USE= 000010 G
HF.DEL= 000010 G 	HH.GC = 000011 G 	HI.DAT= 000007 G 	HI.VER= 000010 G 	HS.BAD= 000100 G
HF.EXT= 000004 G 	HH.IDO= 000000 G 	HI.EXP= 000046 G 	HM.BN = 000007 G 	HS.CON= 000200 G
HF.RAT= 000001 G 	HH.LEV= 000006 G 	HI.NAM= 000000 G 	HM.CN = 000006 G 	HS.MDL= 000200 G
HF.RDV= 000001 G 	HH.MAP= 000001 G 	HI.NA2= 000002 G 	HM.EFN= 000002 G 	HS.PHL= 000100 G
HF.WRV= 000002 G 	HH.PC = 000010 G 	HI.NA3= 000004 G 	HM.ESN= 000004 G 	HS.TMP= 000040 G
HH.CH = 000014 G 	HH.UAL= 000040 G 	HI.RDT= 000014 G 	HM.ESQ= 000000 G 	R$$DPB= 000001
HH.CHS= 000015 G 	HH.UAT= 000016 G 	HI.REV= 000012 G 	HM.MAX= 000011 G 	R$$DYM= 000001
HH.CHU= 000014 G 	HH.UI = 000010 G 	HI.RTM= 000023 G 	HM.PNT= 000012 G 	R$$EIS= 000000
HH.FNU= 000002 G 	HI.CDT= 000031 G 	HI.TIM= 000006 G 	HM.RVN= 000001 G 	R$$11M= 000001
HH.FP = 000012 G

. ABS.	000000	   000
      	000000	   001
ERRORS DETECTED:  0

VIRTUAL MEMORY USED:  2632 WORDS  ( 11 PAGES)
DYNAMIC MEMORY:  3566 WORDS  ( 13 PAGES)
ELAPSED TIME:  00:00:08
[43,10]HDRSYM,[43,20]HDRSYM/-SP/CR=[43,30]PIPMAC,HDRSYM
HDRSYM     CREATED BY  MACRO  ON 27-FEB-85 AT 12:32	PAGE 1

SYMBOL CROSS REFERENCE                                  CREF

SYMBOL	VALUE		REFERENCES

HD.SUM	= 000776  G	#7-94
HF.DEL	= 000010  G	#7-38
HF.EXT	= 000004  G	#7-37
HF.RAT	= 000001  G	#7-39
HF.RDV	= 000001  G	#7-35
HF.WRV	= 000002  G	#7-36
HH.CH 	= 000014  G	#7-40       7-41       7-45
HH.CHS	= 000015  G	#7-45
HH.CHU	= 000014  G	#7-41
HH.FNU	= 000002  G	#7-28
HH.FP 	= 000012  G	#7-34
HH.FSQ	= 000004  G	#7-29
HH.GC 	= 000011  G	#7-33
HH.IDO	= 000000  G	#7-26
HH.LEV	= 000006  G	#7-30
HH.MAP	= 000001  G	#7-27
HH.PC 	= 000010  G	#7-32
HH.UAL	= 000040  G	#7-49
HH.UAT	= 000016  G	#7-48
HH.UI 	= 000010  G	#7-31       7-32       7-33
HI.CDT	= 000031  G	#7-61
HI.CTM	= 000040  G	#7-62
HI.DAT	= 000007  G	#7-64
HI.EXP	= 000046  G	#7-63
HI.NAM	= 000000  G	#7-53
HI.NA2	= 000002  G	#7-54
HI.NA3	= 000004  G	#7-55
HI.RDT	= 000014  G	#7-59
HI.REV	= 000012  G	#7-58
HI.RTM	= 000023  G	#7-60
HI.TIM	= 000006  G	#7-65
HI.TYP	= 000006  G	#7-56
HI.VER	= 000010  G	#7-57
HM.BN 	= 000007  G	#7-74
HM.CN 	= 000006  G	#7-73
HM.EFN	= 000002  G	#7-71
HM.ESN	= 000004  G	#7-72
HM.ESQ	= 000000  G	#7-69
HM.MAX	= 000011  G	#7-76
HM.PNT	= 000012  G	#7-77
HM.RVN	= 000001  G	#7-70
HM.USE	= 000010  G	#7-75
HS.BAD	= 000100  G	#7-47
HS.CON	= 000200  G	#7-42
HS.MDL	= 000200  G	#7-46
HS.PHL	= 000100  G	#7-43
HS.TMP	= 000040  G	#7-44
R$$DPB	= 000001	#1-27
R$$DYM	= 000001	#1-29
R$$EIS	= 000000	#1-28       1-38
R$$11M	= 000001	#1-25       1-26
SYS40$	= ******	 1-67
HDRSYM     CREATED BY  MACRO  ON 27-FEB-85 AT 12:32	PAGE 2

MACRO CROSS REFERENCE                                   CREF

MACRO NAME	REFERENCES

ASH   		#1-64
ASHC  		#1-64
DIV   		#1-64
ERRINI		#4-307
ERROUT		#3-215
ERROUX		#3-222
ERROU1		#3-225
ERRP  		#3-247
ERRPX 		#3-253
ERRP1 		#3-256
ERR1  		#3-273
FLDSOF		#5-382
IDENT 		#5-339
IDENT1		#5-347
IDTITL		#5-356
ILLOP 		#1-52      #1-64       1-64
IMPURE		#1-75
MARK  		#1-64
MSG   		#2-124
MSGZ  		#2-129
MSG1  		#2-133
MUL   		#1-64
NOEIS$		#1-39       1-64
PURE. 		#1-84
PURE.D		#1-102
PURE.I		#1-98
RTT   		#1-64
SOB   		#1-64
SXT   		#1-64
XOR   		#1-64
IOCSI M0201, INVOKE CSI$2	MACRO M1113  27-FEB-85 12:32
TABLE OF CONTENTS

     7-    1	**** IOCSI VERSION M0201 ****
PIPMAC - MACROS FOR PIP, ETC.	MACRO M1113  27-FEB-85 12:32  PAGE 6


    397
IOCSI M0201, INVOKE CSI$2	MACRO M1113  27-FEB-85 12:32  PAGE 7


      1						.TITLE	IOCSI M0201, INVOKE CSI$2
						.SBTTL	**** IOCSI VERSION M0201 ****
						.IDENT	/M0201/
      2					; ALTERED TUESDAY 19-JUNE-73 11:10
      3					;
      4					; COPYRIGHT 1975, 1985, DIGITAL EQUIPMENT CORP., MAYNARD MASS.
      5					; COPYRIGHT 1974, DIGITAL EQUIPMENT CORP., MAYNARD MASS.
      6
      7					;			ALL RIGHTS RESERVED
      8					;
      9					; THIS SOFTWARE IS FURNISHED TO PURCHASER UNDER A LICENSE FOR USE
     10					; ON A SINGLE COMPUTER SYSTEM AND CAN BE COPIED (WITH INCLUSION
     11					; OF DEC'S COPYRIGHT NOTICE) ONLY FOR USE IN SUCH SYSTEM, EXCEPT
     12					; AS MAY OTHERWISE BE PROVIDED IN WRITING BY DEC.
     13
     14					; THE INFORMATION IN THIS DOCUMENT IS SUBJECT TO CHANGE WITHOUT
     15					; NOTICE AND SHOULD NOT BE CONSTRUED AS A COMMITMENT BY DIGITAL
     16					; EQUIPMENT CORPORATION.
     17
     18					; DEC ASSUMES NO RESPONSIBILITY FOR THE USE OR RELIABILITY
     19					; OF ITS SOFTWARE ON EQUIPMENT WHICH IS NOT SUPPLIED BY DEC.
     20					;
     21					; PETER H. LIPMAN 7-MAY-73
     22					;
     23						.MCALL	CALL,RETURN,CSI$,CSI$2
     24					;
     25	000000					CSI$
     26	000000					FLDSOF			;DEFINE THE CSI FILE DESCRIPTOR OFFSETS
     27					;
     28		000040 				CS.SWF==40		;CSI STATUS FLAG, SWITCHES FOUND
     29					;
     30	000000					IMPURE
     31	000000				FILID::	.BLKW	3
     32					;
     33	000006					PURE.I
     34					;+
     35					; GET THE NEXT INPUT OR OUTPUT SPECIFIER FROM THE COMMAND STRING
     36					; CALLING SEQUENCE:
     37					;	JSR	PC,OUTCSI	;GET NEXT OUTPUT SPEC
     38					;	JSR	PC,INCSI	;GET NEXT INPUT SPEC
     39					; INPUTS:
     40					;	R1=ADDRESS OF 5 WORD BLOCK TO PUT  FILE AND DEVICE
     41					;		DESIGNATORS AND FLAGS WORD (WORD 5)
     42					; OUTPUTS:
     43					;	C=0 FOR SUCCESS, C=1 FOR FAILURE OF CSI$2
     44					;	ALL REGISTERS PRESERVED
     45					; OPERATION:
     46					;	CALLS CSI$2 AND MOVES THE FILE AND DEVICE DESIGNATOR TO THE
     47					; BLOCK SPECIFIED IN R1 AND THEN MOVES THE FLAGS BYTE TO THE 5TH
     48					; WORD.  AN ADDITIONAL FLAG IS DEFINED AND PUT IN THE FLAGS WORD.
     49					; IT IS THE SWITCH PRESENT FLAG (CS.SWF).  A NULL SPECIFIER IS
     50					; ONE WHICH HAS NO FILE NAME, NO DEVICE NAME, AND NO SWITCHES
     51					;
     52					;-
     53	000000	012746 	000002 		OUTCSI::MOV	#CS.OUT,-(SP)
     54	000004	000402 				BR	IOCSI
     55	000006	012746 	000001 		INCSI::	MOV	#CS.INP,-(SP)
IOCSI M0201, INVOKE CSI$2	MACRO M1113  27-FEB-85 12:32  PAGE 7-1
**** IOCSI VERSION M0201 ****

     56	000012	112667 	000000G		IOCSI:	MOVB	(SP)+,CSIBLK+C.TYPR
     57	000016	010046 				MOV	R0,-(SP)
     58	000020	005067 	000000'			CLR	FILID
     59	000024	005067 	000002'			CLR	FILID+2
     60	000030	005067 	000004'			CLR	FILID+4
     61	000034					CSI$2	#CSIBLK,,#CSISWT
     62	000052	103445 				BCS	10$		;ERROR IF BAD SWITCHES
     63	000054	116061 	000001 	000014 		MOVB	C.STAT(R0),N.SPEC(R1)
     64	000062	005760 	000024 			TST	C.MKW1(R0)	;ANY SWITCHES?
     65	000066	001403 				BEQ	5$
     66	000070	152761 	000040 	000014 		BISB	#CS.SWF,N.SPEC(R1) ;NOTE THAT SWITCHES WERE FOUND
     67	000076	016061 	000016 	000010 	5$:	MOV	C.FILD(R0),N.FNMD(R1)
     68	000104	016061 	000020 	000012 		MOV	C.FILD+2(R0),N.FNMD+2(R1)
     69	000112	016061 	000012 	000004 		MOV	C.DIRD(R0),N.DIRD(R1)
     70	000120	016061 	000014 	000006 		MOV	C.DIRD+2(R0),N.DIRD+2(R1)
     71	000126	016061 	000006 	000000 		MOV	C.DEVD(R0),N.DEVD(R1)
     72	000134	016061 	000010 	000002 		MOV	C.DEVD+2(R0),N.DEVD+2(R1)
     73	000142	016761 	000000'	000016 		MOV	FILID,N.FLID(R1) ;MOVE FILE ID
     74	000150	016761 	000002'	000020 		MOV	FILID+2,N.FLID+2(R1)
     75	000156	016761 	000004'	000022 		MOV	FILID+4,N.FLID+4(R1)
     76	000164	000241 				CLC
     77	000166	012600 			10$:	MOV	(SP)+,R0
     78	000170					RETURN
     79					;
     80					;
     81		000001 				.END
IOCSI M0201, INVOKE CSI$2	MACRO M1113  27-FEB-85 12:32  PAGE 7-2
SYMBOL TABLE

CSIBLK= ****** GX	CS.OUT= 000002   	C.MKW1= 000024   	IOCSI   000012R     003	R$$DPB= 000001
CSISWT= ****** GX	CS.SWF= 000040 G 	C.MKW2= 000026   	N.DEVD= 000000   	R$$DYM= 000001
CS.DIF= 000002   	CS.WLD= 000010   	C.SIZE= 000054   	N.DIRD= 000004   	R$$EIS= 000000
CS.DVF= 000004   	C.CMLD= 000002   	C.STAT= 000001   	N.FLID= 000016   	R$$11M= 000001
CS.EQU= 000040   	C.DEVD= 000006   	C.SWAD= 000022   	N.FNMD= 000010   	S.APPD= 000010
CS.INP= 000001   	C.DIRD= 000012   	C.TYPR= 000000   	N.SPEC= 000014   	S.FIDS= 000014
CS.MOR= 000020   	C.DSDS= 000006   	FILID   000000RG    002	OUTCSI  000000RG    003	.CSI2 = ****** G
CS.NMF= 000001   	C.FILD= 000016   	INCSI   000006RG    003	PAR$$$= 000027

. ABS.	000000	   000
      	000000	   001
IMPURE	000006	   002
PURE$I	000172	   003
ERRORS DETECTED:  0

VIRTUAL MEMORY USED:  3005 WORDS  ( 12 PAGES)
DYNAMIC MEMORY:  3566 WORDS  ( 13 PAGES)
ELAPSED TIME:  00:00:09
[43,10]IOCSI,[43,20]IOCSI/-SP/CR=[43,30]PIPMAC,IOCSI
IOCSI      CREATED BY  MACRO  ON 27-FEB-85 AT 12:32	PAGE 1

SYMBOL CROSS REFERENCE                                  CREF

SYMBOL	VALUE		REFERENCES

CSIBLK	= ******  GX	*7-56       7-61       7-61
CSISWT	= ******  GX	 7-61
CS.INP	= 000001	 7-55
CS.OUT	= 000002	 7-53
CS.SWF	= 000040  G	#7-28       7-66
C.DEVD	= 000006	 7-71       7-72
C.DIRD	= 000012	 7-69       7-70
C.FILD	= 000016	 7-67       7-68
C.MKW1	= 000024	 7-64
C.SIZE	= 000054	 7-61
C.STAT	= 000001	 7-63
C.SWAD	= 000022	*7-61
C.TYPR	= 000000	*7-56
FILID 	  000000 RG	#7-31      *7-58      *7-59      *7-60       7-73       7-74       7-75
INCSI 	  000006 RG	#7-55
IOCSI 	  000012 R	 7-54      #7-56
N.DEVD	= 000000	#7-26      *7-71      *7-72
N.DIRD	= 000004	#7-26      *7-69      *7-70
N.FLID	= 000016	#7-26      *7-73      *7-74      *7-75
N.FNMD	= 000010	#7-26      *7-67      *7-68
N.SPEC	= 000014	#7-26      *7-63      *7-66
OUTCSI	  000000 RG	#7-53
PAR$$$	= 000027	#7-61       7-61
RONLY$	= ******	 7-33       7-33
R$$DPB	= 000001	#1-27
R$$DYM	= 000001	#1-29
R$$EIS	= 000000	#1-28       1-38
R$$11M	= 000001	#1-25       1-26       7-1
SYS40$	= ******	 1-67       7-30       7-30       7-33       7-33
S.APPD	= 000010	#7-26
S.FIDS	= 000014	#7-26
.CSI2 	= ******  G	 7-61       7-61
IOCSI      CREATED BY  MACRO  ON 27-FEB-85 AT 12:32	PAGE 2

MACRO CROSS REFERENCE                                   CREF

MACRO NAME	REFERENCES

ASH   		#1-64
ASHC  		#1-64
CALL  		#7-23
CSI$  		#7-23       7-25      #7-61
CSI$2 		#7-23       7-61
DIV   		#1-64
ERRINI		#4-307
ERROUT		#3-215
ERROUX		#3-222
ERROU1		#3-225
ERRP  		#3-247
ERRPX 		#3-253
ERRP1 		#3-256
ERR1  		#3-273
FLDSOF		#5-382      7-26      #7-26
IDENT 		#5-339     #7-1
IDENT1		#5-347      7-1
IDTITL		#5-356
ILLOP 		#1-52      #1-64       1-64
IMPURE		#1-75      #7-30
LDR0$ 		#7-61       7-61
MARK  		#1-64
MSG   		#2-124
MSGZ  		#2-129
MSG1  		#2-133
MUL   		#1-64
NOEIS$		#1-39       1-64
PURE. 		#1-84       7-33
PURE.D		#1-102
PURE.I		#1-98       7-33
RETURN		#7-23      #7-78
RTT   		#1-64
SOB   		#1-64
SXT   		#1-64
XOR   		#1-64
MVSTRG M0001, MOVE A STRING	MACRO M1113  27-FEB-85 12:32
TABLE OF CONTENTS

     7-    1	**** MVSTRG VERSION M0001 ****
PIPMAC - MACROS FOR PIP, ETC.	MACRO M1113  27-FEB-85 12:32  PAGE 6


    397
MVSTRG M0001, MOVE A STRING	MACRO M1113  27-FEB-85 12:32  PAGE 7


      1						.TITLE	MVSTRG M0001, MOVE A STRING
						.SBTTL	**** MVSTRG VERSION M0001 ****
						.IDENT	/M0001/
      2					;
      3					; COPYRIGHT 1975, 1985, DIGITAL EQUIPMENT CORP., MAYNARD MASS.
      4					; COPYRIGHT 1974, DIGITAL EQUIPMENT CORP., MAYNARD MASS.
      5
      6					;			ALL RIGHTS RESERVED
      7					;
      8					; THIS SOFTWARE IS FURNISHED TO PURCHASER UNDER A LICENSE FOR USE
      9					; ON A SINGLE COMPUTER SYSTEM AND CAN BE COPIED (WITH INCLUSION
     10					; OF DEC'S COPYRIGHT NOTICE) ONLY FOR USE IN SUCH SYSTEM, EXCEPT
     11					; AS MAY OTHERWISE BE PROVIDED IN WRITING BY DEC.
     12
     13					; THE INFORMATION IN THIS DOCUMENT IS SUBJECT TO CHANGE WITHOUT
     14					; NOTICE AND SHOULD NOT BE CONSTRUED AS A COMMITMENT BY DIGITAL
     15					; EQUIPMENT CORPORATION.
     16
     17					; DEC ASSUMES NO RESPONSIBILITY FOR THE USE OR RELIABILITY
     18					; OF ITS SOFTWARE ON EQUIPMENT WHICH IS NOT SUPPLIED BY DEC.
     19					;
     20					; PETER H. LIPMAN	10-MAY-74
     21
     22
     23						.MCALL	RETURN
     24
     25					;+
     26					; MOVE STRING TO RECORD BUFFER
     27					; CALLING SEQUENCE:
     28					;
     29					;	JSR	PC,MVSTRG
     30					;
     31					; INPUTS:
     32					;
     33					;	R1=ADDRESS TO MOVE STRING TO
     34					;	R2=SIZE OF STRING TO MOVE
     35					;	R3=ADDRESS OF SOURCE STRING
     36					;
     37					; OUTPUTS:
     38					;
     39					;	R1 UPDATED
     40					;	R2,R3 ALTERED
     41					;	R0,R4,R5 PRESERVED
     42					;-
     43	000000	005702 			MVSTRG::TST	R2
     44	000002	001403 				BEQ	20$		;BRANCH IF NULL STRING
     45	000004	112321 			10$:	MOVB	(R3)+,(R1)+	;
     46	000006					SOB	R2,10$
     47	000012				20$:	RETURN
     48					;
     49					;
     50		000001 				.END
MVSTRG M0001, MOVE A STRING	MACRO M1113  27-FEB-85 12:32  PAGE 7-1
SYMBOL TABLE

MVSTRG  000000RG 	R$$DPB= 000001   	R$$DYM= 000001   	R$$EIS= 000000   	R$$11M= 000001

. ABS.	000000	   000
      	000014	   001
ERRORS DETECTED:  0

VIRTUAL MEMORY USED:  2439 WORDS  ( 10 PAGES)
DYNAMIC MEMORY:  3566 WORDS  ( 13 PAGES)
ELAPSED TIME:  00:00:07
[43,10]MVSTRG,[43,20]MVSTRG/-SP/CR=[43,30]PIPMAC,MVSTRG
MVSTRG     CREATED BY  MACRO  ON 27-FEB-85 AT 12:32	PAGE 1

SYMBOL CROSS REFERENCE                                  CREF

SYMBOL	VALUE		REFERENCES

MVSTRG	  000000 RG	#7-43
R$$DPB	= 000001	#1-27
R$$DYM	= 000001	#1-29
R$$EIS	= 000000	#1-28       1-38
R$$11M	= 000001	#1-25       1-26       7-1
SYS40$	= ******	 1-67
MVSTRG     CREATED BY  MACRO  ON 27-FEB-85 AT 12:32	PAGE 2

MACRO CROSS REFERENCE                                   CREF

MACRO NAME	REFERENCES

ASH   		#1-64
ASHC  		#1-64
DIV   		#1-64
ERRINI		#4-307
ERROUT		#3-215
ERROUX		#3-222
ERROU1		#3-225
ERRP  		#3-247
ERRPX 		#3-253
ERRP1 		#3-256
ERR1  		#3-273
FLDSOF		#5-382
IDENT 		#5-339     #7-1
IDENT1		#5-347      7-1
IDTITL		#5-356
ILLOP 		#1-52      #1-64       1-64
IMPURE		#1-75
MARK  		#1-64
MSG   		#2-124
MSGZ  		#2-129
MSG1  		#2-133
MUL   		#1-64
NOEIS$		#1-39       1-64
PURE. 		#1-84
PURE.D		#1-102
PURE.I		#1-98
RETURN		#7-23      #7-47
RTT   		#1-64
SOB   		#1-64      #7-46
SXT   		#1-64
XOR   		#1-64
PIP M1321, RSX FILE UTILITY	MACRO M1113  27-FEB-85 12:23
TABLE OF CONTENTS

     7-    1	**** PIP VERSION M1321 ****
     8-   47	ASSEMBLY PARAMETERS
     9-   91	READ/WRITE DATA AND WORKING STORAGE
    10-  187	READ ONLY TABLES
PIPMAC - MACROS FOR PIP, ETC.	MACRO M1113  27-FEB-85 12:23  PAGE 6


    397
PIP M1321, RSX FILE UTILITY	MACRO M1113  27-FEB-85 12:23  PAGE 7


      1						.TITLE	PIP M1321, RSX FILE UTILITY
						.SBTTL	**** PIP VERSION M1321 ****
						.IDENT	/M1321/
      2					; ALTERED:
      3					; ANDREW C. GOLDSTEIN  17 JUL 75  16:35
      4					;
      5					; COPYRIGHT 1975, 1985, DIGITAL EQUIPMENT CORP., MAYNARD MASS.
      6					; COPYRIGHT 1974, DIGITAL EQUIPMENT CORP., MAYNARD MASS.
      7
      8					;			ALL RIGHTS RESERVED
      9					;
     10					; THIS SOFTWARE IS FURNISHED TO PURCHASER UNDER A LICENSE FOR USE
     11					; ON A SINGLE COMPUTER SYSTEM AND CAN BE COPIED (WITH INCLUSION
     12					; OF DEC'S COPYRIGHT NOTICE) ONLY FOR USE IN SUCH SYSTEM, EXCEPT
     13					; AS MAY OTHERWISE BE PROVIDED IN WRITING BY DEC.
     14
     15					; THE INFORMATION IN THIS DOCUMENT IS SUBJECT TO CHANGE WITHOUT
     16					; NOTICE AND SHOULD NOT BE CONSTRUED AS A COMMITMENT BY DIGITAL
     17					; EQUIPMENT CORPORATION.
     18
     19					; DEC ASSUMES NO RESPONSIBILITY FOR THE USE OR RELIABILITY
     20					; OF ITS SOFTWARE ON EQUIPMENT WHICH IS NOT SUPPLIED BY DEC.
     21					;
     22					; PETER H. LIPMAN 4-JAN-73;
     23					;
     24					; MACROS
     25					;
     26					; INVOKE FCS MACROS
     27					;
     28	000000					FLDSOF			;DEFINE THE FILE DESCRIPTOR OFFSETS
     29						.MCALL	FDOFF$,CSI$,GCMLD$,FCSBT$
     30	000000					FDOFF$	DEF$L
     31	000000					CSI$			;DEFINE THE CSI BLOCK OFFSETS
     32	000000					GCMLD$			;DEFINE THE GET COMMAND LINE OFFSETS
     33	000000					FCSBT$	DEF$L
     34					;
     35						.MCALL	CSI$SV,CSI$SW,CSI$ND,GCMLB$
     36						.MCALL	FDAT$A,FDBDF$,FDOP$A,FDRC$A,FSRSZ$,NMBLK$
     37					;
     38					; DEFINE THE COMMAND BITS, THE FIRST ARGUMENT IS THE ROUTINE
     39					; ADDRESS TO JMP OFF TO.  THE SECOND IS THE BIT NAME
     40					; BITVAL IS ASSUMED SET UP TO THE FIRST BIT NUMBER TO BE USED.
     41						.MACRO	CMDBIT	ROUTIN,BITNAM
     42						.WORD	ROUTIN
     43						BITNAM==BITVAL
     44						BITVAL=BITVAL*2
     45						.ENDM	CMDBIT
PIP M1321, RSX FILE UTILITY	MACRO M1113  27-FEB-85 12:23  PAGE 8
ASSEMBLY PARAMETERS

     47						.SBTTL	ASSEMBLY PARAMETERS
     48					;
     49		000003 				INLUN==3		;LUN FOR INPUT FILE
     50		000004 				OUTLUN==4		;LUN FOR OUTPUT FILE
     51		000002 				CMOLUN==2		;LUN FOR COMMAND OUTPUT
     52		000001 				FNAEFN==1		;EVENT FLAG USED FOR FIND IN DIR LIST
     53		000002 				RATEFN==2		;EVENT FLAG USED FOR READ ATTRIBUTES (/LI)
     54		000003 				RWEFN==3		;EVENT FLAG FOR READ WRITE MODE COPY
     55		000011 				DFDRSZ==9.		;SIZE OF LARGEST DEFAULT DIR STRING
     56		000011 				TAB=='I-100		;TAB CHARACTER
     57		054523 				SYDEV=="SY		;SYSTEM DEVICE
     58		000000 				SYUNIT==0		;SYSTEM UNIT NO.
     59		000054 				S.WUIC==S.FNB+14.	;SIZE OF WILD UIC SCRATCH STORAGE
     60		001400 				NB.SDI==NB.SD1!NB.SD2	;WILD CARD DIRECTORY
     61		001470 				NB.SFL==NB.SVR!NB.STP!NB.SNM!NB.SDI ;* IN NAME, TYPE, VERS, DIR
     62		000070 				NB.SFN==NB.SNM!NB.STP!NB.SVR ;* IN NAME, TYPE, VER
     63
     64
     65					;
     66					; COPY CONTROL WORD BITS- LOCAL SWITCHES ON EACH FILE SPECIFIER
     67		000004 				CNTGBT==4		;SET TO FORCE CONTIGUOUS OUTPUT FILE
     68		000010 				MFDBIT==10		;OPERATE ON THE MFD
     69					; ***** THE FOLLOWING FOUR VALUES MUST REMAIN IN THEIR CURRENT ORDER
     70		000020 				WOPROB==20		;WORLD PROTECTION SPECIFIED
     71		000040 				GRPROB==40		;GROUP PROTECTION SPECIFIED
     72		000100 				OWPROB==100		;OWNER PROTECTION SPECIFED
     73		000200 				SYPROB==200		;SYSTEM PROTECTION SPECIFIED
     74					; ***** THE PRECEEDING FOUR VALUES MUST REMAIN IN THEIR CURRENT ORDER
     75		001000 				FIDBIT==1000		;FILE ID MANUALLY SPECIFIED
     76		002000 				BLKBIT==2000		;SIZE OF OUTPUT FILE SPECIFIED TO COPY
     77		004000 				NTCNTG==4000		;NOT CONTIGUOUS CONTROL BIT (COPY)
     78		010000 				NVERBT==10000		;SET IF NOT PRESERVING VERSION ON COPY
     79		020000 				SPSDBT==20000		;SET IF SUPERSEDE FILE ON COPY
     80		040000 				FOWNBT==40000		;SET TO FORCE FILE OWNER TO OUTPUT UIC
     81		100000 				FRSTIM==100000		;FIRST TIME THROUGH A GIVEN OPERATION
     82					;
     83					; DEFINITIONS OF OFFSETS USED IN  FILE HEADER
     84		001001 				HA.UI==2*400+1		;WRITE USER ATTRIBUTES
     85		001002 				HA.FP==2*400+2		;SET FILE PROTECTION ATTRIBUTE CODE
     86		000403 				HA.CHU==1*400+3		;SET FILE CHARACTERISTICS ATTRIBUTE CODE
     87									;FOR WRITING THE USER CHARACTERISTICS
     88		000012 				S.STBK==10.		;SIZE OF STATISTICS BLOCK IN BYTES
     89		004000 				ILCLSW==NTCNTG		;INIT LOCAL SWITCHES TO THIS
PIP M1321, RSX FILE UTILITY	MACRO M1113  27-FEB-85 12:23  PAGE 9
READ/WRITE DATA AND WORKING STORAGE

     91						.SBTTL	READ/WRITE DATA AND WORKING STORAGE
     92	000000					.PSECT
     93	000000					FSRSZ$	0		;FILE STORAGE REGION IS DYNAMICALLY SET UP
     94									;GET CMD LINE NOW CLOSES FILE EACH TIME
     95	000000					IMPURE
     96					;
     97					;
     98	000000				FDBOUT::FDBDF$			;ALLOCATE SPACE FOR THE OUTPUT FDB
     99	000140					FDOP$A	OUTLUN,OFNPT	;LUN, FNPT
    100
    101	000140				FDBIN::	FDBDF$
    102	000300					FDRC$A	FD.PLC		;PARTIAL LOCATE MODE
    103	000300					FDOP$A	INLUN,IFNPT	;LUN, FNPT
    104
    105	000300				STBLK::	.BLKB	S.STBK
    106	000312				IOSTBK::.BLKW	2		;I/O STATUS BLOCK FOR READ/WRITE MD COPY
    107	000316				FNASTS::.BLKW	2		;I/O STATUS BLOCK FOR FIND QI/O (/LI)
    108					;
    109					; ***** DO NOT SEPARATE THE FOLLOWING LINES
    110					;
    111	000322				CODEV::	.BLKW	1		;SAVED CMD OUTPUT DEVICE NAME
    112	000324				COUNIT::.BLKW	1		;CMD OUTPUT UNIT
    113	000326				LINBUF::.BLKB	144.		;LINE BUFFER USED BY DIR LIST
    114									;UP TO 2 TTY LINES LONG
    115		000220 				LINBFS==.-LINBUF
    116					;
    117					; ***** DO NOT SEPARATE THE PRECEEDING LINES
    118					;
    119
    120					; ***** DO NOT SEPARATE THE FOLLOWING LINES
    121	000546				IFNPT::	.BLKB	S.FIDS+S.APPD	;INPUT FILE AND DEVICE DESIGNATORS
    122		000562'				INSPEC==IFNPT+N.SPEC
    123	000572				IWUIC::	.BLKB	S.WUIC		;SCRATCH STORAGE FOR WILD UIC LOGIC
    124	000646				OFNPT::	.BLKB	S.FIDS+S.APPD	;OUTPUT FILE AND DEVICE DESIGNATORS
    125		000662'				OUSPEC==OFNPT+N.SPEC
    126	000672				OWUIC::	.BLKB	S.WUIC
    127					; ***** DO NOT SEPARATE THE PRECEEDING LINES
    128
    129	000746				SYDFLT::NMBLK$			;DEFAULT DEVICE = SYSTEM DEVICE
    130	001004				NAMBLK::NMBLK$			;SCRATCH NAME BLOCK
    131	001042				NMBLK1::NMBLK$
    132					;
    133	001100				GCMLCB::GCMLB$	4,PIP		;CONTROL BLOCK FOR GET COMMAND LINE
    134									;UP TO 4 LEVELS OF INDIRECTION
    135	001566				CSIBLK::.BLKB	C.SIZE		;CONTROL BLK FOR CMD STRING INTERPRETER
    136					;
    137					; OTHER SCRATCH LOCATIONS
    138	001642				CMDWRD::.BLKW	2		;COMMAND BITS ARE HERE
    139	001646				CPYCTL::.BLKW	1		;CONTROLLING BITS ARE HERE
    140	001650				SAVSP::	.BLKW	1		;SAVE THE STACK POINTER
    141	001652				VERSAV::.BLKW	1		;SAVE VERSION NUMBER FROM PARSE
    142	001654				INRACC::.BLKW	1		;F.RACC FOR THE INPUT FDB
    143	001656				OURACC::.BLKW	1		;F.RACC FOR THE OUTPUT FDB
    144	001660				DEFDIR::.BLKB	DFDRSZ		;DEFAULT DIRECTORY STRING STORED HERE
    145						.EVEN
    146					;
    147					; ***** DO NOT SEPARATE OR REORDER THE FOLLOWING
PIP M1321, RSX FILE UTILITY	MACRO M1113  27-FEB-85 12:23  PAGE 9-1
READ/WRITE DATA AND WORKING STORAGE

    148	001672				WORPRO::.BLKB	4
    149	001676				GROPRO::.BLKB	4
    150	001702				OWNPRO::.BLKB	4
    151	001706				SYSPRO::.BLKB	4
    152	001712	177777 			PROWRD::.WORD	-1
    153					; ***** DO NOT SEPARATE OR REORDER THE PRECEEDING LINES
    154					;
    155	001714	000001 			PURGCT::.WORD	1		;NO. OF VERSIONS TO PRESERVE
    156	001716	000120 			LPTLEN::.WORD	80.		;DEFAULT DIRECTORY LISTING WIDTH
    157	001720				BLKCNT::.BLKW	1		;NO. OF BLOCKS TO ALLOCATE TO OUT FILE
    158	001722				.LCLSW::.BLKW	1		;INITIAL VALUE FOR LOCAL SWITCHES
    159	001724				.OULCL::.BLKW	1		;LOCAL SWITCHES ON 1ST OUTPUT SPEC
    160	001726	054523 			.DEFDV::.WORD	SYDEV		;DEFAULT DEVICE
    161	001730	000000 			.DEFUN::.WORD	SYUNIT		;DEFAULT UNIT
    162	001732				.EXTSZ::.BLKW	1		;SIZE OF INPUT FILE (+ CONTIG, - = NOT)
    163	001734				.FOWNR::.BLKW	1		;UIC FOR THE FILE OWNER IF /FO SWITCH
    164	001736	000000 	000000 		.DYBLK::.LIMIT			;BLOCKS OF DYNAMIC MEMORY AVAILABLE
    165		001740'				.TOPAD==.DYBLK+2	;ADDRESS OF DYNAMIC MEMORY BUFFER(S)
    166	001742				.DYSIZ::.BLKW	1		;SIZE IN BYTES OF DYNAMIC MEMORY REGION
    167	001744				.DYBUF::.BLKW	1		;ADDRESS OF DYNAMIC BUFFER IN USE
    168	001746				.DYBYT::.BLKW	1		;SIZE IN BYTES OF DYNAMIC BUFFER IN USE
    169					;
    170					; READ ATTRIBUTE CONTROL BLOCK
    171					;
    172						.IF	GT,R$$DPB	;IF NEW DPB FORMATS
    173	001750	   367 	   012 		RATCTL::.BYTE	-9.,S.STBK	;READ ATTRIBUTES - STATISTICS BLOCK
    174	001752	000300'				.WORD	STBLK
    175	001754	   366 	   000 			.BYTE	-10.,0		;FILE HEADER
    176	001756	000000 			.HDRAD::.WORD	0
    177	001760	000000 				.WORD	0		;END OF ATTRIBUTE LIST
    178						.ENDC
    179
    180						.IF	EQ,R$$DYM	;IF NO DYNAMIC MEMORY FACILITY
    181						.PSECT	$$DYB1,D
    182					DYB1::
    183						.PSECT	$$DYB2,D
    184					DYB2::
    185						.ENDC
PIP M1321, RSX FILE UTILITY	MACRO M1113  27-FEB-85 12:23  PAGE 10
READ ONLY TABLES

    187						.SBTTL	READ ONLY TABLES
    188	001762					PURE.D
    189					;
    190					; READ ONLY TABLES AND CONTROL BLOCKS
    191					; COMMAND TABLE - FORMAT COMMAND,BIT
    192		000001 				BITVAL=1
    193	000036				CMDTBL::
    194	000036					CMDBIT	DIRLST,LSTBIT	;ON IF LISTING DIRECTORY
    195	000040					CMDBIT	DIRLST,SHTLST	;ON IF LISTING DIRECTORY BRIEF MODE
    196	000042					CMDBIT	DIRLST,EVRYBT	;ON IF LISTING DIRECTORY FULL MODE
    197	000044					CMDBIT	DIRLST,TOTLBT	;ON IF LISTING DIRECTORY TOTAL BLOCKS ONLY
    198	000046					CMDBIT	DELETE,DELBIT	;ON IF DELETING THE OUTPUT FILE(S)
    199	000050					CMDBIT	DELETE,PURGBT	;ON IF PURGING FILES
    200	000052					CMDBIT	REMOVE,RMVBIT	;REMOVE A DIRECTORY ENTRY
    201	000054					CMDBIT	PIPID,IDBIT	;TYPE THE PIP IDENTIFIER
    202	000056					CMDBIT	.SETDF,DFLTBT	;CHANGE DEFAULT DEVICE OR UIC
    203	000060					CMDBIT	UNLOCK,UNLKBT	;UNLOCK A LOCKED FILE
    204	000062					CMDBIT	PROTCT,PROTBT	;SET FILE  PROTECTION
    205					;
    206					; TABLE FOR COMMAND BITS IN SECOND WORD
    207					;
    208		000001 				BITVAL=1
    209	000064				CMDTB2::
    210	000064					CMDBIT	SPOOL,SPLBIT	;SPOOL FOR PRINTING AND DELETE
    211	000066					CMDBIT	RENAME,RNMBIT	;RENAME INPUT FILE TO OUTPUT NAME
    212	000070					CMDBIT	ENTER,ENTRBT	;ENTER A DIRECTORY ENTRY
    213	000072					CMDBIT	COPY,MERGBT	;MERGE COMMAND
    214	000074					CMDBIT	COPY,APPDBT	;APPEND FILES
    215	000076					CMDBIT	COPY,UPDTBT	;UPDATE (REWRITE) FILE
    216	000100					CMDBIT	.FREE,FREEBT	;PRINT FREE SPACE ON VOLUME
    217					;
    218					; COMMAND STRING INTERPRETER SWITCH TABLE
    219	000102				CSISWT::CSI$SW	DI,LSTBIT,CMDWRD,SET,,0 ;DIRECTORY LISTING SWITCH
    220	000112					CSI$SW	LI,LSTBIT,CMDWRD,SET,,0 ;SYNONYM FOR DIR LISTING CMD
    221	000122					CSI$SW	BR,SHTLST,CMDWRD,SET,,0 ;SHORT FORM DIRECTORY LISTING
    222	000132					CSI$SW	FU,EVRYBT,CMDWRD,SET,,FULVAL ;FULL DIRECTORY LISTING
    223	000142					CSI$SW	TB,TOTLBT,CMDWRD,SET,,0 ;LIST DIRECTORY TOTALS ONLY
    224	000152					CSI$SW	DE,DELBIT,CMDWRD,SET,,0 ;DELETE SWITCH
    225	000162					CSI$SW	PU,PURGBT,CMDWRD,SET,,PURGVL ;PURGE ALL BUT NEWEST VERSION
    226	000172					CSI$SW	RM,RMVBIT,CMDWRD,SET,,0 ;REMOVE A DIRECTORY ENTRY
    227	000202					CSI$SW	ID,IDBIT,CMDWRD,SET,,0 ;ID SWITCH - TYPE PIP'S IDENT
    228	000212					CSI$SW	DF,DFLTBT,CMDWRD,SET,,0 ;SET DEFAULT DEVICE OR UIC
    229	000222					CSI$SW	UI,DFLTBT,CMDWRD,SET,,0 ;SET DEFAULT UIC
    230	000232					CSI$SW	UN,UNLKBT,CMDWRD,SET,,0 ;UNLOCK A LOCKED FILE
    231	000242					CSI$SW	PR,PROTBT,CMDWRD,SET,,PRVAL ;SET FILE PROTECTION
    232	000252					CSI$SW	SP,SPLBIT,CMDWRD+2,SET,,0 ;SPOOL THE FILES FOR PRINTING
    233	000262					CSI$SW	RE,RNMBIT,CMDWRD+2,SET,,0 ;RENAME SWITCH
    234	000272					CSI$SW	EN,ENTRBT,CMDWRD+2,SET,,0 ;ENTER A DIRECTORY ENTRY
    235	000302					CSI$SW	ME,MERGBT,CMDWRD+2,SET,,0 ;MERGE INPUT FILES
    236	000312					CSI$SW	AP,APPDBT,CMDWRD+2,SET,,0 ;APPEND COMMAND
    237	000322					CSI$SW	UP,UPDTBT,CMDWRD+2,SET,,0 ;UPDATE (REWRITE) CMD
    238	000332					CSI$SW	FR,FREEBT,CMDWRD+2,SET,,0 ;FREE SPACE ON VOLUME
    239					;
    240					; CPYCTL SWITCHES, MODIFY COMMANDS, LOCAL TO THE SPECIFIER
    241	000342					CSI$SW	CO,CNTGBT!NTCNTG,CPYCTL,SET,NEG,0 ;FORCE CONTIGUOUS COPY
    242	000352					CSI$SW	MF,MFDBIT,CPYCTL,SET,,0 ;LIST THE MFD FOR SPECIFIED DEVICE
    243	000362					CSI$SW	WO,WOPROB,CPYCTL,SET,,WOVAL ;WORLD PROTECTION
PIP M1321, RSX FILE UTILITY	MACRO M1113  27-FEB-85 12:23  PAGE 10-1
READ ONLY TABLES

    244	000372					CSI$SW	GR,GRPROB,CPYCTL,SET,,GRVAL ;GROUP PROTECTION
    245	000402					CSI$SW	OW,OWPROB,CPYCTL,SET,,OWVAL ;OWNER PROTECTION
    246	000412					CSI$SW	SY,SYPROB,CPYCTL,SET,,SYVAL ;SYSTEM PROTECTION
    247	000422					CSI$SW	FI,FIDBIT,CPYCTL,SET,,FIDVAL ;FILE ID SPECIFIED
    248	000432					CSI$SW	BL,BLKBIT,CPYCTL,SET,,BLKVAL ;NO OF BLOCKS TO ALLOCATE
    249	000442					CSI$SW	NV,NVERBT,CPYCTL,SET,,0 ;COPY TO NEW VERSION
    250	000452					CSI$SW	SU,SPSDBT,CPYCTL,SET,,0 ;SUPERSEDE EXISTING FILES ON COPY
    251	000462					CSI$SW	FO,FOWNBT,CPYCTL,SET,,0 ;FORCE FILE OWNER TO OUTPUT UIC
    252	000472					CSI$ND			;END OF SWITCHES
    253					; VALUE TABLES FOR PROTECTION CODES
    254	000474				WOVAL::	CSI$SV	ASCII,WORPRO,4
    255	000500					CSI$ND
    256	000502				GRVAL::	CSI$SV	ASCII,GROPRO,4
    257	000506					CSI$ND
    258	000510				OWVAL::	CSI$SV	ASCII,OWNPRO,4
    259	000514					CSI$ND
    260	000516				SYVAL::	CSI$SV	ASCII,SYSPRO,4
    261	000522					CSI$ND
    262	000524				PRVAL::	CSI$SV	NUMERIC,PROWRD,2
    263	000530					CSI$ND
    264					;
    265					; VALUE TABLE FOR PURGE SWITCH, NO OF VERSIONS TO PRESERVE
    266	000532				PURGVL::CSI$SV	NUMERIC,PURGCT,2
    267	000536					CSI$ND
    268					;
    269					; VALUE TABLE FOR FILE ID SWITCH
    270	000540				FIDVAL::CSI$SV	NUMERIC,FILID,2
    271	000544					CSI$SV	NUMERIC,FILID+2,2
    272	000550					CSI$SV	NUMERIC,FILID+4,2
    273	000554					CSI$ND
    274					;
    275					; VALUE TABLE FOR /FULL DIRECTORY LISTING SWITCH (OUTPUT WIDTH)
    276	000556				FULVAL::CSI$SV	NUMERIC,LPTLEN,2
    277	000562					CSI$ND
    278					;
    279					; VALUE TABLE FOR /BLOCK SWITCH TO COPY (SPECIFY OUTPUT FILE SIZE)
    280	000564				BLKVAL::CSI$SV	NUMERIC,BLKCNT,2
    281	000570					CSI$ND
    282
    283	000572	000000 			SSTTAB::.WORD	0		;ODD ADDRESS TRAP
    284	000574	000000 				.WORD	0		;MEMORY PROTECTION VIOLATION
    285	000576	000000 				.WORD	0		;T BIT OR BPT INSTRUCTION
    286	000600	000000 				.WORD	0		;IOT INSTRUCTION
    287	000602	000000 				.WORD	0		;RESERVED INSTRUCTION
    288	000604	000000 				.WORD	0		;NON RSX EMT
    289	000606	000000G				.WORD	.ERTRP		;TRAP INSTRUCTION
    290
    291		000007 				SSTENT=<.-SSTTAB>/2	;NO. OF SST ENTRIES IN TABLE
    292
    293	000610	000000G			.ABORT::.WORD	.RSTAR		;ERRPX AND ERROUX RETURN BY JMP @ .ABORT
    294
    295	000612					PURE.I
    296	000000	000167 	000000G		START::	JMP	.INIT
    297	000004				CLOSX::
    298	000004	000167 	000000G		AGAIN::	JMP	.RSTAR
    299					;
    300					;
PIP M1321, RSX FILE UTILITY	MACRO M1113  27-FEB-85 12:23  PAGE 10-2
READ ONLY TABLES

    301		000000'				.END	START
PIP M1321, RSX FILE UTILITY	MACRO M1113  27-FEB-85 12:23  PAGE 10-3
SYMBOL TABLE

AGAIN   000004RG    006	FD.CCL= 000002   	F.NRBD= 000024   	NB.DIR= 000100   	R.FIX = 000001
APPDBT= 000020 G 	FD.CR = 000002   	F.NREC= 000030   	NB.NAM= 000004   	R.VAR = 000002
BITVAL= 000200   	FD.DIR= 000010   	F.OVBS= 000030   	NB.SDI= 001400 G 	SAVSP   001650RG    005
BLKBIT= 002000 G 	FD.FTN= 000001   	F.RACC= 000016   	NB.SD1= 000400   	SHTLST= 000002 G
BLKCNT  001720RG    005	FD.INS= 000010   	F.RATT= 000001   	NB.SD2= 001000   	SPLBIT= 000001 G
BLKVAL  000564RG    003	FD.PLC= 000004   	F.RCNM= 000034   	NB.SFL= 001470 G 	SPOOL = ****** GX
CLOSX   000004RG    006	FD.RAH= 000001   	F.RCTL= 000017   	NB.SFN= 000070 G 	SPSDBT= 020000 G
CMDTBL  000036RG    003	FD.RAN= 000002   	F.RSIZ= 000002   	NB.SNM= 000040   	SSTENT= 000007
CMDTB2  000064RG    003	FD.REC= 000001   	F.RTYP= 000000   	NB.STP= 000020   	SSTTAB  000572RG    003
CMDWRD  001642RG    005	FD.RWM= 000001   	F.STBK= 000036   	NB.SVR= 000010   	START   000000RG    006
CMOLUN= 000002 G 	FD.SDI= 000020   	F.UNIT= 000136   	NB.TYP= 000002   	STBLK   000300RG    005
CNTGBT= 000004 G 	FD.SQD= 000040   	F.URBD= 000020   	NB.VER= 000001   	SYDEV = 054523 G
CODEV   000322RG    005	FD.TTY= 000004   	F.VBN = 000064   	NMBLK1  001042RG    005	SYDFLT  000746RG    005
COPY  = ****** GX	FD.WBH= 000002   	F.VBSZ= 000060   	NTCNTG= 004000 G 	SYPROB= 000200 G
COUNIT  000324RG    005	FIDBIT= 001000 G 	GCMLCB  001100RG    005	NVERBT= 010000 G 	SYSPRO  001706RG    005
CPYCTL  001646RG    005	FIDVAL  000540RG    003	GE.BIF= 177775   	N.DEVD= 000000   	SYUNIT= 000000 G
CSIBLK  001566RG    005	FILID = ****** GX	GE.CLO= 000004   	N.DID = 000024   	SYVAL   000516RG    003
CSISWT  000102RG    003	FNAEFN= 000001 G 	GE.COM= 000001   	N.DIRD= 000004   	S.APPD= 000010
CS.DIF= 000002   	FNASTS  000316RG    005	GE.EOF= 177766   	N.DVNM= 000032   	S.BFHD= 000020
CS.DVF= 000004   	FOWNBT= 040000 G 	GE.IND= 000002   	N.FID = 000000   	S.FATT= 000016
CS.EQU= 000040   	FO.APD= 000106   	GE.IOR= 177777   	N.FLID= 000016   	S.FDB = 000140
CS.INP= 000001   	FO.MFY= 000002   	GE.LC = 000010   	N.FNAM= 000006   	S.FIDS= 000014
CS.MOR= 000020   	FO.RD = 000001   	GE.MDE= 177774   	N.FNMD= 000010   	S.FNAM= 000006
CS.NMF= 000001   	FO.UPD= 000006   	GE.OPR= 177776   	N.FTYP= 000014   	S.FNB = 000036
CS.OUT= 000002   	FO.WRT= 000016   	GROPRO  001676RG    005	N.FVER= 000016   	S.FNBW= 000017
CS.WLD= 000010   	FREEBT= 000100 G 	GRPROB= 000040 G 	N.NEXT= 000022   	S.FNTY= 000004
C.CMLD= 000002   	FRSTIM= 100000 G 	GRVAL   000502RG    003	N.SPEC= 000014   	S.FTYP= 000002
C.DEVD= 000006   	FULVAL  000556RG    003	G.CMLD= 000146   	N.STAT= 000020   	S.NFEN= 000020
C.DIRD= 000012   	F.ALOC= 000040   	G.DPRM= 000160   	N.UNIT= 000034   	S.STBK= 000012 G
C.DSDS= 000006   	F.BBFS= 000062   	G.ERR = 000140   	OFNPT   000646RG    005	S.WUIC= 000054 G
C.FILD= 000016   	F.BDB = 000070   	G.ISIZ= 000020   	OURACC  001656RG    005	TAB   = 000011 G
C.MKW1= 000024   	F.BGBC= 000057   	G.LPDL= 000120   	OUSPEC= 000662RG    005	TOTLBT= 000010 G
C.MKW2= 000026   	F.BKDN= 000026   	G.MODE= 000141   	OUTLUN= 000004 G 	UNLKBT= 001000 G
C.SIZE= 000054   	F.BKDS= 000020   	G.PSDS= 000142   	OWNPRO  001702RG    005	UNLOCK= ****** GX
C.STAT= 000001   	F.BKEF= 000050   	HA.CHU= 000403 G 	OWPROB= 000100 G 	UPDTBT= 000040 G
C.SWAD= 000022   	F.BKP1= 000051   	HA.FP = 001002 G 	OWUIC   000672RG    005	VERSAV  001652RG    005
C.TYPR= 000000   	F.BKST= 000024   	HA.UI = 001001 G 	OWVAL   000510RG    003	WOPROB= 000020 G
DEFDIR  001660RG    005	F.BKVB= 000064   	IDBIT = 000200 G 	PIPID = ****** GX	WORPRO  001672RG    005
DELBIT= 000020 G 	F.CNTG= 000034   	IDNTMG= 000000RG    002	PROTBT= 002000 G 	WOVAL   000474RG    003
DELETE= ****** GX	F.DFNB= 000046   	IDNTSZ= 000021 G 	PROTCT= ****** GX	$$    = 000000
DFDRSZ= 000011 G 	F.DSPT= 000044   	IFNPT   000546RG    005	PROWRD  001712RG    005	$$$   = 001260R     005
DFLTBT= 000400 G 	F.DVNM= 000134   	ILCLSW= 004000 G 	PRVAL   000524RG    003	.ABORT  000610RG    003
DIRLST= ****** GX	F.EFBK= 000010   	INLUN = 000003 G 	PURGBT= 000040 G 	.DEFDV  001726RG    005
ENTER = ****** GX	F.EFN = 000050   	INRACC  001654RG    005	PURGCT  001714RG    005	.DEFUN  001730RG    005
ENTRBT= 000004 G 	F.EOBB= 000032   	INSPEC= 000562RG    005	PURGVL  000532RG    003	.DYBLK  001736RG    005
EVRYBT= 000004 G 	F.ERR = 000052   	IOSTBK  000312RG    005	RATCTL  001750RG    005	.DYBUF  001744RG    005
FA.APD= 000100   	F.FACC= 000043   	IWUIC   000572RG    005	RATEFN= 000002 G 	.DYBYT  001746RG    005
FA.CRE= 000010   	F.FFBY= 000014   	LINBFS= 000220 G 	REMOVE= ****** GX	.DYSIZ  001742RG    005
FA.EXT= 000004   	F.FNAM= 000110   	LINBUF  000326RG    005	RENAME= ****** GX	.ERTRP= ****** GX
FA.NSP= 000100   	F.FNB = 000102   	LPTLEN  001716RG    005	RMVBIT= 000100 G 	.EXTSZ  001732RG    005
FA.RD = 000001   	F.FTYP= 000116   	LSTBIT= 000001 G 	RNMBIT= 000002 G 	.FOWNR  001734RG    005
FA.SHR= 000040   	F.FVER= 000120   	MERGBT= 000010 G 	RWEFN = 000003 G 	.FREE = ****** GX
FA.TMP= 000020   	F.HIBK= 000004   	MFDBIT= 000010 G 	R$$DPB= 000001   	.FSRCB= ****** G
FA.WRT= 000002   	F.LUN = 000042   	MOIDMG= 000021RG    002	R$$DYM= 000001   	.HDRAD  001756RG    005
FDBIN   000140RG    005	F.MBCT= 000054   	MOIDSZ= 000007 G 	R$$EIS= 000000   	.INIT = ****** GX
FDBOUT  000000RG    005	F.MBC1= 000055   	NAMBLK  001004RG    005	R$$MSG= 000000   	.LCLSW  001722RG    005
FD.BLK= 000010   	F.MBFG= 000056   	NB.DEV= 000200   	R$$11M= 000001   	.MSGFN  000000RG    003
PIP M1321, RSX FILE UTILITY	MACRO M1113  27-FEB-85 12:23  PAGE 10-4
SYMBOL TABLE

.OULCL  001724RG    005	.SETDF= ****** GX	...GBL= 000000   	...PC2= 001302R     005	...TPC= 000020
.RSTAR= ****** GX	.TOPAD= 001740RG    005	...PC1= 001100R     005	...PC3= 001100R     005

. ABS.	000000	   000
      	000000	   001
MSGSTR	000030	   002
PURE$D	000612	   003
$$FSR1	000000	   004
IMPURE	001762	   005
PURE$I	000010	   006
ERRORS DETECTED:  0

VIRTUAL MEMORY USED:  6098 WORDS  ( 24 PAGES)
DYNAMIC MEMORY:  6734 WORDS  ( 25 PAGES)
ELAPSED TIME:  00:00:33
[43,10]PIP,[43,20]PIP/-SP/CR=[43,30]PIPMAC,PIP
PIP        CREATED BY  MACRO  ON 27-FEB-85 AT 12:24	PAGE 1

SYMBOL CROSS REFERENCE                                  CREF

SYMBOL	VALUE		REFERENCES

AGAIN 	  000004 RG	#10-298
APPDBT	= 000020  G	#10-214     10-236
BITVAL	= 000200	#10-192     10-194     10-194    #10-194     10-195     10-195    #10-195     10-196     10-196
                        #10-196     10-197     10-197    #10-197     10-198     10-198    #10-198     10-199     10-199
                        #10-199     10-200     10-200    #10-200     10-201     10-201    #10-201     10-202     10-202
                        #10-202     10-203     10-203    #10-203     10-204     10-204    #10-204    #10-208     10-210
                         10-210    #10-210     10-211     10-211    #10-211     10-212     10-212    #10-212     10-213
                         10-213    #10-213     10-214     10-214    #10-214     10-215     10-215    #10-215     10-216
                         10-216    #10-216
BLKBIT	= 002000  G	#8-76       10-248
BLKCNT	  001720 RG	#9-157      10-280
BLKVAL	  000564 RG	 10-248    #10-280
CLOSX 	  000004 RG	#10-297
CMDTBL	  000036 RG	#10-193
CMDTB2	  000064 RG	#10-209
CMDWRD	  001642 RG	#9-138      10-219     10-220     10-221     10-222     10-223     10-224     10-225     10-226
                         10-227     10-228     10-229     10-230     10-231     10-232     10-233     10-234     10-235
                         10-236     10-237     10-238
CMOLUN	= 000002  G	#8-51
CNTGBT	= 000004  G	#8-67       10-241
CODEV 	  000322 RG	#9-111
COPY  	= ******  GX	 10-213     10-214     10-215
COUNIT	  000324 RG	#9-112
CPYCTL	  001646 RG	#9-139      10-241     10-242     10-243     10-244     10-245     10-246     10-247     10-248
                         10-249     10-250     10-251
CSIBLK	  001566 RG	#9-135
CSISWT	  000102 RG	#10-219
C.SIZE	= 000054	 9-135
DEFDIR	  001660 RG	#9-144
DELBIT	= 000020  G	#10-198     10-224
DELETE	= ******  GX	 10-198     10-199
DFDRSZ	= 000011  G	#8-55       9-144
DFLTBT	= 000400  G	#10-202     10-228     10-229
DIRLST	= ******  GX	 10-194     10-195     10-196     10-197
ENTER 	= ******  GX	 10-212
ENTRBT	= 000004  G	#10-212     10-234
EVRYBT	= 000004  G	#10-196     10-222
FDBIN 	  000140 RG	#9-101
FDBOUT	  000000 RG	#9-98
FD.CCL	= 000002	 9-133
FD.PLC	= 000004	 9-102
FD.REC	= 000001	 9-133
FD.TTY	= 000004	 9-133
FIDBIT	= 001000  G	#8-75       10-247
FIDVAL	  000540 RG	 10-247    #10-270
FILID 	= ******  GX	 10-270     10-271     10-272
FNAEFN	= 000001  G	#8-52
FNASTS	  000316 RG	#9-107
FOWNBT	= 040000  G	#8-80       10-251
FREEBT	= 000100  G	#10-216     10-238
FRSTIM	= 100000  G	#8-81
FULVAL	  000556 RG	 10-222    #10-276
PIP        CREATED BY  MACRO  ON 27-FEB-85 AT 12:24	PAGE 2

SYMBOL CROSS REFERENCE                                  CREF

SYMBOL	VALUE		REFERENCES

F.DFNB	= 000046	 9-133
F.DSPT	= 000044	 9-99       9-103
F.LUN 	= 000042	 9-99       9-103      9-133
F.MBCT	= 000054	 9-133
F.RACC	= 000016	 9-102
F.RCTL	= 000017	 9-133
F.RTYP	= 000000	 9-133
GCMLCB	  001100 RG	#9-133
GE.CLO	= 000004	 9-133
GE.COM	= 000001	 9-133
GE.IND	= 000002	 9-133
GROPRO	  001676 RG	#9-149      10-256
GRPROB	= 000040  G	#8-71       10-244
GRVAL 	  000502 RG	 10-244    #10-256
G.LPDL	= 000120	#9-133      9-133
HA.CHU	= 000403  G	#8-86
HA.FP 	= 001002  G	#8-85
HA.UI 	= 001001  G	#8-84
IDBIT 	= 000200  G	#10-201     10-227
IDNTMG	= 000000 RG	#7-1        7-1        7-1
IDNTSZ	= 000021  G	#7-1        7-1
IFNPT 	  000546 RG	 9-103     #9-121      9-122
ILCLSW	= 004000  G	#8-89
INLUN 	= 000003  G	#8-49       9-103
INRACC	  001654 RG	#9-142
INSPEC	= 000562 RG	#9-122
IOSTBK	  000312 RG	#9-106
IWUIC 	  000572 RG	#9-123
LINBFS	= 000220  G	#9-115
LINBUF	  000326 RG	#9-113      9-115
LPTLEN	  001716 RG	#9-156      10-276
LSTBIT	= 000001  G	#10-194     10-219     10-220
MERGBT	= 000010  G	#10-213     10-235
MFDBIT	= 000010  G	#8-68       10-242
MOIDMG	= 000021 RG	#7-1        7-1        7-1
MOIDSZ	= 000007  G	#7-1        7-1
MSGBL.	= ******	 7-1        7-1
NAMBLK	  001004 RG	#9-130
NB.SDI	= 001400  G	#8-60       8-61
NB.SD1	= 000400	 8-60
NB.SD2	= 001000	 8-60
NB.SFL	= 001470  G	#8-61
NB.SFN	= 000070  G	#8-62
NB.SNM	= 000040	 8-61       8-62
NB.STP	= 000020	 8-61       8-62
NB.SVR	= 000010	 8-61       8-62
NMBLK1	  001042 RG	#9-131
NTCNTG	= 004000  G	#8-77       8-89       10-241
NVERBT	= 010000  G	#8-78       10-249
N.DEVD	= 000000	#7-28
N.DIRD	= 000004	#7-28
N.DVNM	= 000032	 7-1
PIP        CREATED BY  MACRO  ON 27-FEB-85 AT 12:24	PAGE 3

SYMBOL CROSS REFERENCE                                  CREF

SYMBOL	VALUE		REFERENCES

N.FLID	= 000016	#7-28
N.FNAM	= 000006	 7-1        9-129      9-130      9-131      9-133
N.FNMD	= 000010	#7-28
N.FTYP	= 000014	 7-1        9-129      9-130      9-131      9-133
N.SPEC	= 000014	#7-28       9-122      9-125
N.UNIT	= 000034	 7-1
OFNPT 	  000646 RG	 9-99      #9-124      9-125
OURACC	  001656 RG	#9-143
OUSPEC	= 000662 RG	#9-125
OUTLUN	= 000004  G	#8-50       9-99
OWNPRO	  001702 RG	#9-150      10-258
OWPROB	= 000100  G	#8-72       10-245
OWUIC 	  000672 RG	#9-126
OWVAL 	  000510 RG	 10-245    #10-258
PIPID 	= ******  GX	 10-201
PROTBT	= 002000  G	#10-204     10-231
PROTCT	= ******  GX	 10-204
PROWRD	  001712 RG	#9-152      10-262
PRVAL 	  000524 RG	 10-231    #10-262
PURGBT	= 000040  G	#10-199     10-225
PURGCT	  001714 RG	#9-155      10-266
PURGVL	  000532 RG	 10-225    #10-266
RATCTL	  001750 RG	#9-173
RATEFN	= 000002  G	#8-53
REMOVE	= ******  GX	 10-200
RENAME	= ******  GX	 10-211
RMVBIT	= 000100  G	#10-200     10-226
RNMBIT	= 000002  G	#10-211     10-233
RONLY$	= ******	 7-1        7-1        7-1        7-1        7-1        7-1        10-188     10-188     10-295
                         10-295
RWEFN 	= 000003  G	#8-54
R$$DPB	= 000001	#1-27       9-172
R$$DYM	= 000001	#1-29       9-180
R$$EIS	= 000000	#1-28       1-38
R$$MSG	= 000000	 7-1        7-1        7-1        7-1
R$$11M	= 000001	#1-25       1-26       7-1        7-1        7-1
SAVSP 	  001650 RG	#9-140
SHTLST	= 000002  G	#10-195     10-221
SPLBIT	= 000001  G	#10-210     10-232
SPOOL 	= ******  GX	 10-210
SPSDBT	= 020000  G	#8-79       10-250
SSTENT	= 000007	#10-291
SSTTAB	  000572 RG	#10-283     10-291
START 	  000000 RG	#10-296     10-301
STBLK 	  000300 RG	#9-105      9-174
SYDEV 	= 054523  G	#8-57       9-160
SYDFLT	  000746 RG	#9-129
SYPROB	= 000200  G	#8-73       10-246
SYSPRO	  001706 RG	#9-151      10-260
SYS40$	= ******	 1-67       7-1        7-1        7-1        7-1        7-1        7-1        9-95       9-95
                         10-188     10-188     10-295     10-295
SYUNIT	= 000000  G	#8-58       9-161
PIP        CREATED BY  MACRO  ON 27-FEB-85 AT 12:24	PAGE 4

SYMBOL CROSS REFERENCE                                  CREF

SYMBOL	VALUE		REFERENCES

SYVAL 	  000516 RG	 10-246    #10-260
S.APPD	= 000010	#7-28       9-121      9-124
S.BFHD	= 000020	 9-93       9-93
S.FDB 	= 000140	 9-98       9-98       9-101      9-101      9-133      9-133
S.FIDS	= 000014	#7-28       9-121      9-124
S.FNAM	= 000006	 7-1        7-1        9-129      9-129      9-130      9-130      9-131      9-131      9-133
                         9-133
S.FNB 	= 000036	 7-1        8-59       9-129      9-130      9-131      9-133
S.FTYP	= 000002	 7-1        7-1        9-129      9-129      9-130      9-130      9-131      9-131      9-133
                         9-133
S.STBK	= 000012  G	#8-88       9-105      9-173
S.WUIC	= 000054  G	#8-59       9-123      9-126
TAB   	= 000011  G	#8-56
TOTLBT	= 000010  G	#10-197     10-223
UNLKBT	= 001000  G	#10-203     10-230
UNLOCK	= ******  GX	 10-203
UPDTBT	= 000040  G	#10-215     10-237
VERSAV	  001652 RG	#9-141
WOPROB	= 000020  G	#8-70       10-243
WORPRO	  001672 RG	#9-148      10-254
WOVAL 	  000474 RG	 10-243    #10-254
$$    	= 000000 R	#10-219     10-219    #10-219     10-219    #10-219     10-219    #10-220     10-220    #10-220
                         10-220    #10-220     10-220    #10-221     10-221    #10-221     10-221    #10-221     10-221
                        #10-222     10-222    #10-222     10-222    #10-222     10-222    #10-223     10-223    #10-223
                         10-223    #10-223     10-223    #10-224     10-224    #10-224     10-224    #10-224     10-224
                        #10-225     10-225    #10-225     10-225    #10-225     10-225    #10-226     10-226    #10-226
                         10-226    #10-226     10-226    #10-227     10-227    #10-227     10-227    #10-227     10-227
                        #10-228     10-228    #10-228     10-228    #10-228     10-228    #10-229     10-229    #10-229
                         10-229    #10-229     10-229    #10-230     10-230    #10-230     10-230    #10-230     10-230
                        #10-231     10-231    #10-231     10-231    #10-231     10-231    #10-232     10-232    #10-232
                         10-232    #10-232     10-232    #10-233     10-233    #10-233     10-233    #10-233     10-233
                        #10-234     10-234    #10-234     10-234    #10-234     10-234    #10-235     10-235    #10-235
                         10-235    #10-235     10-235    #10-236     10-236    #10-236     10-236    #10-236     10-236
                        #10-237     10-237    #10-237     10-237    #10-237     10-237    #10-238     10-238    #10-238
                         10-238    #10-238     10-238    #10-241     10-241    #10-241     10-241    #10-241    #10-241
                         10-241    #10-242     10-242    #10-242     10-242    #10-242     10-242    #10-243     10-243
                        #10-243     10-243    #10-243     10-243    #10-244     10-244    #10-244     10-244    #10-244
                         10-244    #10-245     10-245    #10-245     10-245    #10-245     10-245    #10-246     10-246
                        #10-246     10-246    #10-246     10-246    #10-247     10-247    #10-247     10-247    #10-247
                         10-247    #10-248     10-248    #10-248     10-248    #10-248     10-248    #10-249     10-249
                        #10-249     10-249    #10-249     10-249    #10-250     10-250    #10-250     10-250    #10-250
                         10-250    #10-251     10-251    #10-251     10-251    #10-251     10-251
$$$   	= 001260 R	#9-133      9-133
.ABORT	  000610 RG	#10-293
.DEFDV	  001726 RG	#9-160
.DEFUN	  001730 RG	#9-161
.DYBLK	  001736 RG	#9-164      9-165
.DYBUF	  001744 RG	#9-167
.DYBYT	  001746 RG	#9-168
.DYSIZ	  001742 RG	#9-166
.ERTRP	= ******  GX	 10-289
.EXTSZ	  001732 RG	#9-162
PIP        CREATED BY  MACRO  ON 27-FEB-85 AT 12:24	PAGE 5

SYMBOL CROSS REFERENCE                                  CREF

SYMBOL	VALUE		REFERENCES

.FOWNR	  001734 RG	#9-163
.FREE 	= ******  GX	 10-216
.FSRCB	= ******  G	 9-93
.HDRAD	  001756 RG	#9-176
.INIT 	= ******  GX	 10-296
.LCLSW	  001722 RG	#9-158
.MSGFN	  000000 RG	#7-1
.OULCL	  001724 RG	#9-159
.RSTAR	= ******  GX	 10-293     10-298
.SETDF	= ******  GX	 10-202
.TOPAD	= 001740 RG	#9-165
...PC1	= 001100 R	 7-1        7-1       #7-1        7-1        7-1        7-1        7-1        7-1       #7-1
                        #9-98       9-99       9-99      #9-101      9-102      9-103      9-103      9-129      9-129
                        #9-129      9-129      9-129      9-129     #9-129      9-130      9-130     #9-130      9-130
                         9-130      9-130     #9-130      9-131      9-131     #9-131      9-131      9-131      9-131
                        #9-131     #9-133      9-133      9-133      9-133      9-133      9-133      9-133      9-133
                        #9-133      9-133      9-133      9-133     #9-133
...PC2	= 001302 R	#7-1        7-1        7-1       #7-1        7-1        7-1       #7-1        7-1       #9-99
                         9-99      #9-99       9-99      #9-102      9-102     #9-103      9-103     #9-103      9-103
                        #9-129      9-129      9-129     #9-129      9-129      9-129     #9-130      9-130      9-130
                        #9-130      9-130      9-130     #9-131      9-131      9-131     #9-131      9-131      9-131
                        #9-133      9-133     #9-133      9-133     #9-133      9-133     #9-133      9-133     #9-133
                         9-133     #9-133      9-133      9-133     #9-133      9-133      9-133
...PC3	= 001100 R	#7-1        7-1       #9-129      9-129     #9-130      9-130     #9-131      9-131     #9-133
                         9-133
PIP        CREATED BY  MACRO  ON 27-FEB-85 AT 12:24	PAGE 6

MACRO CROSS REFERENCE                                   CREF

MACRO NAME	REFERENCES

ASH   		#1-64
ASHC  		#1-64
BDOFF$		#9-93
CBYTE$		#9-99       9-99       9-99      #9-102      9-102     #9-103      9-103      9-103     #9-133     #9-133
                 9-133      9-133     #9-133      9-133      9-133     #9-133      9-133      9-133      9-133      9-133
CMDBIT		#7-41       10-194     10-195     10-196     10-197     10-198     10-199     10-200     10-201     10-202
                 10-203     10-204     10-210     10-211     10-212     10-213     10-214     10-215     10-216
CSI$  		#7-29      #7-31
CSI$ND		#7-35       10-252     10-255     10-257     10-259     10-261     10-263     10-267     10-273     10-277
                 10-281
CSI$SV		#7-35       10-254     10-256     10-258     10-260     10-262     10-266     10-270     10-271     10-272
                 10-276     10-280
CSI$SW		#7-35      #10-219    #10-220    #10-221    #10-222    #10-223    #10-224    #10-225    #10-226    #10-227
                #10-228    #10-229    #10-230    #10-231    #10-232    #10-233    #10-234    #10-235    #10-236    #10-237
                #10-238    #10-241    #10-242    #10-243    #10-244    #10-245    #10-246    #10-247    #10-248    #10-249
                #10-250    #10-251
CWORD$		#7-1        7-1        7-1       #9-99       9-99       9-99      #9-102      9-102      9-102     #9-103
                 9-103      9-103     #9-129      9-129      9-129     #9-130      9-130      9-130     #9-131      9-131
                 9-131     #9-133      9-133      9-133      9-133     #9-133      9-133      9-133     #9-133      9-133
                #9-133      9-133      9-133
DEF$L 		#9-93
DIV   		#1-64
ERRINI		#4-307
ERROUT		#3-215
ERROUX		#3-222
ERROU1		#3-225
ERRP  		#3-247
ERRPX 		#3-253
ERRP1 		#3-256
ERR1  		#3-273
FCSBT$		#7-29      #7-33
FDAT$A		#7-36      #9-133     #9-133
FDBDF$		#7-36       9-98       9-101     #9-133      9-133
FDBF$A		#9-133      9-133
FDBSZ$		#9-98      #9-98      #9-101     #9-101     #9-133     #9-133
FDOFF$		#7-29      #7-30      #9-99      #9-99      #9-102     #9-102     #9-103     #9-103     #9-133     #9-133
                #9-133     #9-133     #9-133     #9-133
FDOP$A		#7-36       9-99       9-103     #9-133      9-133
FDRC$A		#7-36      #9-102
FLDSOF		#5-382     #7-28      #7-28
FSRSZ$		#7-36       9-93
GCMLB$		#7-35      #9-133
GCMLD$		#7-29       7-32      #9-133      9-133
IDENT 		#5-339     #7-1
IDENT1		#5-347      7-1
IDTITL		#5-356      7-1
ILLOP 		#1-52      #1-64       1-64
IMPURE		#1-75      #9-95
MARK  		#1-64
MSG   		#2-124     #7-1       #7-1
MSGZ  		#2-129
MSG1  		#2-133     #7-1       #7-1
PIP        CREATED BY  MACRO  ON 27-FEB-85 AT 12:24	PAGE 7

MACRO CROSS REFERENCE                                   CREF

MACRO NAME	REFERENCES

MUL   		#1-64
NBOFF$		#7-1        7-1       #9-129      9-129     #9-130      9-130     #9-131      9-131     #9-133      9-133
NMBLK$		#7-1       #7-1       #7-36      #9-129     #9-130     #9-131     #9-133     #9-133
NOEIS$		#1-39       1-64
PURE. 		#1-84       7-1        7-1        7-1        10-188     10-295
PURE.D		#1-102      7-1        10-188
PURE.I		#1-98       10-295
RAD50$		#7-1        7-1        7-1       #9-129      9-129      9-129     #9-130      9-130      9-130     #9-131
                 9-131      9-131     #9-133      9-133      9-133
RTT   		#1-64
SOB   		#1-64
SXT   		#1-64
XOR   		#1-64
PIPDSP M0216, PIP COMMAND RECEI	MACRO M1113  27-FEB-85 12:24
TABLE OF CONTENTS

     7-    1	**** PIPDSP VERSION M0216 ****
     8-   36	COMMAND RECEIVER AND DISPATCHER
PIPMAC - MACROS FOR PIP, ETC.	MACRO M1113  27-FEB-85 12:24  PAGE 6


    397
PIPDSP M0216, PIP COMMAND RECEI	MACRO M1113  27-FEB-85 12:24  PAGE 7


      1						.TITLE	PIPDSP M0216, PIP COMMAND RECEIVER & DISPATCHER
						.SBTTL	**** PIPDSP VERSION M0216 ****
						.IDENT	/M0216/
      2					; ALTERED:
      3					; ANDREW C. GOLDSTEIN  28 JAN 75  22:20
      4					;
      5					; COPYRIGHT 1975, 1985, DIGITAL EQUIPMENT CORP., MAYNARD MASS.
      6					; COPYRIGHT 1974, DIGITAL EQUIPMENT CORP., MAYNARD MASS.
      7
      8					;			ALL RIGHTS RESERVED
      9					;
     10					; THIS SOFTWARE IS FURNISHED TO PURCHASER UNDER A LICENSE FOR USE
     11					; ON A SINGLE COMPUTER SYSTEM AND CAN BE COPIED (WITH INCLUSION
     12					; OF DEC'S COPYRIGHT NOTICE) ONLY FOR USE IN SUCH SYSTEM, EXCEPT
     13					; AS MAY OTHERWISE BE PROVIDED IN WRITING BY DEC.
     14
     15					; THE INFORMATION IN THIS DOCUMENT IS SUBJECT TO CHANGE WITHOUT
     16					; NOTICE AND SHOULD NOT BE CONSTRUED AS A COMMITMENT BY DIGITAL
     17					; EQUIPMENT CORPORATION.
     18
     19					; DEC ASSUMES NO RESPONSIBILITY FOR THE USE OR RELIABILITY
     20					; OF ITS SOFTWARE ON EQUIPMENT WHICH IS NOT SUPPLIED BY DEC.
     21					;
     22					; PETER H. LIPMAN 30-JAN-74;
     23					;
     24					; MACROS
     25					;
     26					; INVOKE FCS MACROS
     27					;
     28	000000					FLDSOF			;DEFINE THE FILE DESCRIPTOR OFFSETS
     29						.MCALL	CSI$
     30	000000					CSI$
     31						.MCALL	GCMLD$
     32	000000					GCMLD$
     33						.MCALL	CALL,RETURN,FINIT$,GLUN$S,EXIT$S,CSI$1,CSI$2,SVTK$S
     34						.MCALL	GTSK$S,GPRT$S
PIPDSP M0216, PIP COMMAND RECEI	MACRO M1113  27-FEB-85 12:24  PAGE 8
COMMAND RECEIVER AND DISPATCHER

     36						.SBTTL	COMMAND RECEIVER AND DISPATCHER
     37	000000					PURE.I
     38					;
     39					; INITIAL STARTING POINT
     40
     41						.ENABL	LSB
     42
     43	000000	010667 	000000G		.INIT::	MOV	SP,SAVSP
     44	000004	112767 	000000C	000000C		MOVB	#FD.TTY!FD.REC!FD.CCL,GCMLCB+F.RCTL ;MAKE MCR LEVEL LIKE TTY
     45	000012	152767 	000004 	000141G		BISB	#GE.CLO,GCMLCB+G.MODE ;FORCE GCML TO CLOSE CMD FILE EACH TIME
     46	000020					FINIT$
     47	000024					GLUN$S	#CMOLUN,#CODEV	;GET DEVICE AND UNIT OF COMMAND OUTPUT LUN
     48	000042	105067 	000001G			CLRB	COUNIT+1	;ZERO FLAGS BYTE IN UNIT WORD
     49
     50						.IF	GT,R$$DYM
     51	000046					GPRT$S	,#LINBUF	;GET PARTITION PARAMETERS
     52	000064	013700 	000000G			MOV	@#$DSW,R0	;GET BASE ADDRESS OF THE TASK
     53	000070					GTSK$S	#LINBUF		;GET TASK PARAMETERS
     54	000102	066700 	000032G			ADD	LINBUF+G.TSTS,R0 ;TOP OF AVAILABLE SPACE
     55
     56						.IFF
     57						MOV	#DYB1,.TOPAD
     58						MOV	#DYB2,R0
     59						.ENDC
     60
     61	000106	166700 	000000G			SUB	.TOPAD,R0	;NO. OF BYTES AVAILABLE FOR DYNAMIC MEM
     62	000112	042700 	000003 			BIC	#3,R0		;MULTIPLE OF 4 BYTES IN FILE STORAGE REGION
     63	000116	010067 	000000G			MOV	R0,.DYSIZ	;NO. OF BYTES OF DYNAMIC MEMORY
     64	000122	012767 	000001 	000000G		MOV	#1,.MBFCT	;ASSUME SINGLE BUFFERING
     65	000130	020027 	000000C			CMP	R0,#<4*<1000+S.BFHD>+1000> ;ENOUGH FOR DOUBLE BUFFERING?
     66	000134	103402 				BLO	10$		;BRANCH IF NOT
     67	000136	005267 	000000G			INC	.MBFCT		;YES, DEFAULT TO DOUBLE BUFFERING
     68	000142	016767 	000000G	000000G	10$:	MOV	.TOPAD,.DYBUF	;FAKE AN ALLOCATED BUFFER
     69	000150	010067 	000000G			MOV	R0,.DYBYT	;SO THAT .DYREL WILL RETURN IT TO FSR
     70	000154	042700 	000777 			BIC	#777,R0
     71	000160	000300 				SWAB	R0
     72	000162	006200 				ASR	R0		;NO. OF BLOCKS AVAILABLE
     73	000164	010067 	000000G			MOV	R0,.DYBLK	;STORE THE BLOCK COUNT
     74	000170	001006 				BNE	.RSTAR
     75	000172					ERROUT	DY01		;NOT ENOUGH DYNAMIC MEMORY
	000172	104402 				TRAP	X
	000174	000000G				.WORD	DY01SZ
	000176	000000G				.WORD	DY01MG
     76	000200				EXIT:	EXIT$S
     77					;
     78					; RESTART HERE FOR SUBSEQUENT COMMANDS
     79					;
     80	000206				.RSTAR::
     81	000206	016706 	000000G			MOV	SAVSP,SP
     82	000212					CALL	CLOSE		;CLOSE ANY FILES LEFT OPEN
     83	000216					CALL	.DYREL		;RELEASE ANY BUFFER IN USE TO FSR
     84	000222					CALL	TDRDEL
     85	000226	005067 	000000G			CLR	CMDWRD		;INIT FLAGS WORD
     86	000232	005067 	000002G			CLR	CMDWRD+2
     87	000236	012767 	177777 	000000G		MOV	#-1,PROWRD	;NO PROTECTION VALUE SPECIFIED
     88	000244					CALL	GETCML		;GET THE NEXT COMMAND LINE
     89	000250	103753 				BCS	EXIT
PIPDSP M0216, PIP COMMAND RECEI	MACRO M1113  27-FEB-85 12:24  PAGE 8-1
COMMAND RECEIVER AND DISPATCHER

     90	000252					CSI$1	#CSIBLK,GCMLCB+G.CMLD+2,GCMLCB+G.CMLD ;CHECK CMD SYNTAX
     91	000276	016067 	000002 	000146G		MOV	C.CMLD(R0),GCMLCB+G.CMLD ;FIX STRING SIZE (COMPRESSED)
     92	000304	103552 				BCS	SERR2		;BRANCH IF SYNTAX ERROR
     93
     94					; LOOK AT ALL THE SPECIFIERS TO GET THE GLOBAL FLAG
     95	000306	012700 	000000G			MOV	#CSIBLK,R0
     96	000312				20$:	CSI$2	R0,OUTPUT,#CSISWT
     97	000330	103462 				BCS	40$
     98	000332	132760 	000020 	000001 		BITB	#CS.MOR,C.STAT(R0)
     99	000340	001364 				BNE	20$
    100	000342				30$:	CSI$2	R0,INPUT,#CSISWT
    101	000360	103526 				BCS	SERR3
    102	000362	132760 	000020 	000001 		BITB	#CS.MOR,C.STAT(R0)
    103	000370	001364 				BNE	30$
    104					;
    105					; NOW RESET CSI
    106	000372					CSI$1	R0,GCMLCB+G.CMLD+2,GCMLCB+G.CMLD
    107	000412	103507 				BCS	SERR2
    108	000414	012767 	000000G	000000G		MOV	#ILCLSW,CPYCTL	;INIT THE LOCAL FLAGS REGISTER
    109	000422	012767 	000000G	000000G		MOV	#ILCLSW,.LCLSW	;INITIAL VALUE FOR LOCAL SWITHCES
    110					;
    111					; INIT ALL THE LOCAL SWITCHES SINCE CSI$2 SCAN SET THEM TO
    112					; LAST VALUES ON LAST LOCAL SWITCH IN THE LIST
    113	000430					CALL	INIPRO		;INIT THE PROTECTION SUBSWITCHES
    114	000434	012767 	000001 	000000G		MOV	#1,PURGCT	;INIT THE COUNT OF FILES TO BE PRESERVED
    115	000442	005067 	000000G			CLR	BLKCNT		;INIT BLOCK COUNT (OUTPUT FILE SIZE)
    116					;
    117					; SET UP THE OUTPUT SPEC AND THE 1ST INPUT SPEC
    118	000446	012701 	000000G			MOV	#OFNPT,R1
    119	000452					CALL	OUTCSI		;GET THE FIRST OUTPUT SPEC
    120	000456	103467 				BCS	SERR3		;BRANCH IF ERROR
    121	000460	016767 	000000G	000000G		MOV	CPYCTL,.OULCL	;SAVE LOCAL SWITCHES FROM 1ST OUT SPEC
    122	000466	012701 	000000G			MOV	#IFNPT,R1
    123	000472					CALL	INCSI		;GET THE FIRST INPUT SPEC
    124	000476	103457 			40$:	BCS	SERR3
    125	000500	032767 	000000C	000000G		BIT	#SHTLST!EVRYBT!TOTLBT,CMDWRD ; CHECK FOR LISTING OPTIONS
    126	000506	001403 				BEQ	50$		; BRANCH IF NONE
    127	000510	042767 	000000G	000000G		BIC	#LSTBIT,CMDWRD	; OVERRIDE /LI
    128	000516	016702 	000000G		50$:	MOV	CMDWRD,R2
    129	000522	001022 				BNE	DISPAT
    130	000524	016702 	000002G			MOV	CMDWRD+2,R2	; NOTHING IN FIRST WORD, TRY THE SECOND
    131	000530	001027 				BNE	DISPT2
    132					;
    133					; ALLOW SUBSWITCHES TO SPECIFY COMMAND SWITCH IF NONE SPECIFIED
    134	000532	016703 	000000G			MOV	CPYCTL,R3
    135	000536	032703 	000000G			BIT	#NTCNTG,R3	;/-CO SWITCH SPECIFIED?
    136	000542	001420 				BEQ	60$		;IF ZERO THEN YES, COPY COMMAND
    137	000544	032703 	000000C			BIT	#WOPROB!GRPROB!OWPROB!SYPROB,R3
    138	000550	001415 				BEQ	60$		;COPY IF NO OTHER IMPLIED COMMAND
    139	000552	012702 	000000G			MOV	#PROTBT,R2	;ASSUME /PROTECTION
    140	000556	042703 	000000C			BIC	#WOPROB!GRPROB!OWPROB!SYPROB!FIDBIT!NTCNTG,R3
    141	000562	001030 				BNE	SERR4		; CHECK FOR CONFLICTING SWITCHES
    142	000564	010267 	000000G			MOV	R2,CMDWRD
    143					;
    144					; DISPATCH TO THE REQUESTED FUNCTION
    145					;
    146	000570	005767 	000002G		DISPAT:	TST	CMDWRD+2	;CHECK FOR DUPLICATE COMMANDS
PIPDSP M0216, PIP COMMAND RECEI	MACRO M1113  27-FEB-85 12:24  PAGE 8-2
COMMAND RECEIVER AND DISPATCHER

    147	000574	001023 				BNE	SERR4		; YES - GET OUT
    148	000576	012700 	000000G			MOV	#CMDTBL,R0	; POINT TO COMMAND TABLE #1
    149	000602	000404 				BR	70$
    150
    151	000604	012702 	000000G		60$:	MOV	#MERGBT,R2	;EXECUTE THE COPY COMMAND
    152	000610	012700 	000000G		DISPT2:	MOV	#CMDTB2,R0	; POINT TO COMMAND TABLE #2
    153
    154	000614	006002 			70$:	ROR	R2		; SCAN FOR A COMMAND BIT
    155	000616	103402 				BCS	80$		; BRANCH IF FOUND
    156	000620	005720 				TST	(R0)+		; OTHERWISE BUMP TO NEXT TABLE ENTRY
    157	000622	000774 				BR	70$		; AND TRY AGAIN
    158
    159					; BIT FOUND IN COMMAND WORD - NO MORE SHOULD BE PRESENT
    160	000624	005702 			80$:	TST	R2
    161	000626	001006 				BNE	SERR4
    162	000630	000130 				JMP	@(R0)+		;GO EXECUTE THE COMMAND
    163
    164						.DSABL	LSB
PIPDSP M0216, PIP COMMAND RECEI	MACRO M1113  27-FEB-85 12:24  PAGE 9
COMMAND RECEIVER AND DISPATCHER

    166					;
    167					; SYNTAX ERROR FROM CSI$1
    168					; FORM ONE STRING WITH SYNTAX ERROR MSG AND PIECE OF CMD LINE
    169	000632				SERR2:	CALL	.SYNER
    170					;
    171					; BAD SWITCH OR VALUE FROM CSI$2
    172	000636				SERR3:	ERROUX	CR02
	000636	104403 				TRAP	X
	000640	000000G				.WORD	CR02SZ
	000642	000000G				.WORD	CR02MG
    173					;
    174					;MULTIPLE COMMAND SWITCHES FOUND
    175	000644				SERR4:	ERROUX	CR03
	000644	104403 				TRAP	X
	000646	000000G				.WORD	CR03SZ
	000650	000000G				.WORD	CR03MG
    176					;
    177					; OUTPUT PIP VERSION IDENTIFIER
    178	000652				PIPID::	ERROUX	IDNT
	000652	104403 				TRAP	X
	000654	000000G				.WORD	IDNTSZ
	000656	000000G				.WORD	IDNTMG
    179					;
    180					;
    181		000001 				.END
PIPDSP M0216, PIP COMMAND RECEI	MACRO M1113  27-FEB-85 12:24  PAGE 9-1
SYMBOL TABLE

BLKCNT= ****** GX	C.SIZE= 000054   	G.ISIZ= 000020   	MERGBT= ****** GX	S.FNAM= 000006
CLOSE = ****** GX	C.STAT= 000001   	G.LUCW= 000004   	NTCNTG= ****** GX	S.FNB = 000036
CMDTBL= ****** GX	C.SWAD= 000022   	G.LUFB= 000003   	N.DEVD= 000000   	S.FNBW= 000017
CMDTB2= ****** GX	C.TYPR= 000000   	G.LUNA= 000000   	N.DIRD= 000004   	S.FNTY= 000004
CMDWRD= ****** GX	DISPAT  000570R     002	G.LUNU= 000002   	N.FLID= 000016   	S.FTYP= 000002
CMOLUN= ****** GX	DISPT2  000610R     002	G.MODE= 000141   	N.FNMD= 000010   	S.NFEN= 000020
CODEV = ****** GX	DY01MG= ****** GX	G.PRFW= 000004   	N.SPEC= 000014   	TDRDEL= ****** GX
COUNIT= ****** GX	DY01SZ= ****** GX	G.PRPB= 000000   	OFNPT = ****** GX	TOTLBT= ****** GX
CPYCTL= ****** GX	EVRYBT= ****** GX	G.PRPS= 000002   	OUTCSI= ****** GX	WOPROB= ****** GX
CR02MG= ****** GX	EXIT    000200R     002	G.PSDS= 000142   	OWPROB= ****** GX	X     = 000003
CR02SZ= ****** GX	FD.CCL= ****** GX	G.TSFW= 000024   	PAR$$$= 000000   	$DSW  = ****** GX
CR03MG= ****** GX	FD.REC= ****** GX	G.TSGC= 000017   	PIPID   000652RG    002	$$    = 000067
CR03SZ= ****** GX	FD.TTY= ****** GX	G.TSMT= 000022   	PROTBT= ****** GX	$$$OST= 000034
CSIBLK= ****** GX	FIDBIT= ****** GX	G.TSNL= 000020   	PROWRD= ****** GX	.CSI1 = ****** G
CSISWT= ****** GX	F.RCTL= ****** GX	G.TSPC= 000016   	PURGCT= ****** GX	.CSI2 = ****** G
CS.DIF= 000002   	GCMLCB= ****** GX	G.TSPN= 000004   	R$$DPB= 000001   	.DYBLK= ****** GX
CS.DVF= 000004   	GETCML= ****** GX	G.TSPR= 000014   	R$$DYM= 000001   	.DYBUF= ****** GX
CS.EQU= 000040   	GE.BIF= 177775   	G.TSRN= 000010   	R$$EIS= 000000   	.DYBYT= ****** GX
CS.INP= 000001   	GE.CLO= 000004   	G.TSTN= 000000   	R$$11M= 000001   	.DYREL= ****** GX
CS.MOR= 000020   	GE.COM= 000001   	G.TSTS= 000032   	SAVSP = ****** GX	.DYSIZ= ****** GX
CS.NMF= 000001   	GE.EOF= 177766   	G.TSVA= 000026   	SERR2   000632R     002	.FINIT= ****** G
CS.OUT= 000002   	GE.IND= 000002   	G.TSVL= 000030   	SERR3   000636R     002	.INIT   000000RG    002
CS.WLD= 000010   	GE.IOR= 177777   	IDNTMG= ****** GX	SERR4   000644R     002	.LCLSW= ****** GX
C.CMLD= 000002   	GE.LC = 000010   	IDNTSZ= ****** GX	SHTLST= ****** GX	.MBFCT= ****** GX
C.DEVD= 000006   	GE.MDE= 177774   	IFNPT = ****** GX	SYPROB= ****** GX	.OULCL= ****** GX
C.DIRD= 000012   	GE.OPR= 177776   	ILCLSW= ****** GX	S.APPD= 000010   	.RSTAR  000206RG    002
C.DSDS= 000006   	GRPROB= ****** GX	INCSI = ****** GX	S.BFHD= ****** GX	.SYNER= ****** GX
C.FILD= 000016   	G.CMLD= 000146   	INIPRO= ****** GX	S.FDB = 000140   	.TOPAD= ****** GX
C.MKW1= 000024   	G.DPRM= 000160   	LINBUF= ****** GX	S.FIDS= 000014   	...TPC= 000140
C.MKW2= 000026   	G.ERR = 000140   	LSTBIT= ****** GX

. ABS.	000000	   000
      	000000	   001
PURE$I	000660	   002
ERRORS DETECTED:  0

VIRTUAL MEMORY USED:  5540 WORDS  ( 22 PAGES)
DYNAMIC MEMORY:  6734 WORDS  ( 25 PAGES)
ELAPSED TIME:  00:00:27
[43,10]PIPDSP,[43,20]PIPDSP/-SP/CR=[43,30]PIPMAC,PIPDSP
PIPDSP     CREATED BY  MACRO  ON 27-FEB-85 AT 12:24	PAGE 1

SYMBOL CROSS REFERENCE                                  CREF

SYMBOL	VALUE		REFERENCES

BLKCNT	= ******  GX	*8-115
CLOSE 	= ******  GX	 8-82       8-82
CMDTBL	= ******  GX	 8-148
CMDTB2	= ******  GX	 8-152
CMDWRD	= ******  GX	*8-85      *8-86       8-125     *8-127      8-128      8-130     *8-142      8-146
CMOLUN	= ******  GX	 8-47
CODEV 	= ******  GX	 8-47
COUNIT	= ******  GX	*8-48
CPYCTL	= ******  GX	*8-108      8-121      8-134
CR02MG	= ******  GX	 9-172
CR02SZ	= ******  GX	 9-172
CR03MG	= ******  GX	 9-175
CR03SZ	= ******  GX	 9-175
CSIBLK	= ******  GX	 8-90       8-90       8-95
CSISWT	= ******  GX	 8-96       8-100
CS.INP	= 000001	 8-100
CS.MOR	= 000020	 8-98       8-102
CS.OUT	= 000002	 8-96
C.CMLD	= 000002	*8-90      *8-90       8-91      *8-106     *8-106
C.SIZE	= 000054	 8-90       8-96       8-100      8-106
C.STAT	= 000001	 8-98       8-102
C.SWAD	= 000022	*8-96      *8-100
DISPAT	  000570 R	 8-129     #8-146
DISPT2	  000610 R	 8-131     #8-152
DY01MG	= ******  GX	 8-75
DY01SZ	= ******  GX	 8-75
EVRYBT	= ******  GX	 8-125
EXIT  	  000200 R	#8-76       8-89
FD.CCL	= ******  GX	 8-44
FD.REC	= ******  GX	 8-44
FD.TTY	= ******  GX	 8-44
FIDBIT	= ******  GX	 8-140
F.RCTL	= ******  GX	*8-44
GCMLCB	= ******  GX	*8-44      *8-45       8-90       8-90      *8-91       8-106      8-106
GETCML	= ******  GX	 8-88       8-88
GE.CLO	= 000004	 8-45
GRPROB	= ******  GX	 8-137      8-140
G.CMLD	= 000146	 8-90       8-90      *8-91       8-106      8-106
G.LUCW	= 000004	#8-47
G.LUFB	= 000003	#8-47
G.LUNA	= 000000	#8-47
G.LUNU	= 000002	#8-47
G.MODE	= 000141	*8-45
G.PRFW	= 000004	#8-51
G.PRPB	= 000000	#8-51
G.PRPS	= 000002	#8-51
G.TSFW	= 000024	#8-53
G.TSGC	= 000017	#8-53
G.TSMT	= 000022	#8-53
G.TSNL	= 000020	#8-53
G.TSPC	= 000016	#8-53
G.TSPN	= 000004	#8-53
PIPDSP     CREATED BY  MACRO  ON 27-FEB-85 AT 12:24	PAGE 2

SYMBOL CROSS REFERENCE                                  CREF

SYMBOL	VALUE		REFERENCES

G.TSPR	= 000014	#8-53
G.TSRN	= 000010	#8-53
G.TSTN	= 000000	#8-53
G.TSTS	= 000032	#8-53       8-54
G.TSVA	= 000026	#8-53
G.TSVL	= 000030	#8-53
IDNTMG	= ******  GX	 9-178
IDNTSZ	= ******  GX	 9-178
IFNPT 	= ******  GX	 8-122
ILCLSW	= ******  GX	 8-108      8-109
INCSI 	= ******  GX	 8-123      8-123
INIPRO	= ******  GX	 8-113      8-113
LINBUF	= ******  GX	 8-51       8-53       8-54
LSTBIT	= ******  GX	 8-127
MERGBT	= ******  GX	 8-151
NTCNTG	= ******  GX	 8-135      8-140
N.DEVD	= 000000	#7-28
N.DIRD	= 000004	#7-28
N.FLID	= 000016	#7-28
N.FNMD	= 000010	#7-28
N.SPEC	= 000014	#7-28
OFNPT 	= ******  GX	 8-118
OUTCSI	= ******  GX	 8-119      8-119
OWPROB	= ******  GX	 8-137      8-140
PAR$$$	= 000000	#8-90       8-90      #8-96       8-96      #8-100      8-100     #8-106      8-106
PIPID 	  000652 RG	#9-178
PROTBT	= ******  GX	 8-139
PROWRD	= ******  GX	*8-87
PURGCT	= ******  GX	*8-114
RONLY$	= ******	 8-37       8-37
R$$DPB	= 000001	#1-27
R$$DYM	= 000001	#1-29       8-50
R$$EIS	= 000000	#1-28       1-38
R$$11M	= 000001	#1-25       1-26       7-1
SAVSP 	= ******  GX	*8-43       8-81
SERR2 	  000632 R	 8-92       8-107     #9-169
SERR3 	  000636 R	 8-101      8-120      8-124     #9-172
SERR4 	  000644 R	 8-141      8-147      8-161     #9-175
SHTLST	= ******  GX	 8-125
SYPROB	= ******  GX	 8-137      8-140
SYS40$	= ******	 1-67       8-37       8-37
S.APPD	= 000010	#7-28
S.BFHD	= ******  GX	 8-65
S.FIDS	= 000014	#7-28
TDRDEL	= ******  GX	 8-84       8-84
TOTLBT	= ******  GX	 8-125
WOPROB	= ******  GX	 8-137      8-140
X     	= 000003	#8-75       8-75      #9-172      9-172     #9-175      9-175     #9-178      9-178
$DSW  	= ******  GX	 8-52
$$    	= 000067	#8-82       8-82      #8-83       8-83      #8-84       8-84      #8-88       8-88      #8-113
                         8-113     #8-119      8-119     #8-123      8-123     #9-169      9-169
$$$GLB	= ******	 8-47       8-47       8-47       8-47       8-51       8-51       8-51       8-53       8-53
PIPDSP     CREATED BY  MACRO  ON 27-FEB-85 AT 12:24	PAGE 3

SYMBOL CROSS REFERENCE                                  CREF

SYMBOL	VALUE		REFERENCES

                         8-53       8-53       8-53       8-53       8-53       8-53       8-53       8-53       8-53
                         8-53
$$$OST	= 000034	#8-47       8-47       8-47      #8-47       8-47       8-47      #8-47       8-47       8-47
                        #8-47       8-47       8-47      #8-47      #8-51       8-51       8-51      #8-51       8-51
                         8-51      #8-51       8-51       8-51      #8-51      #8-53       8-53       8-53      #8-53
                         8-53       8-53      #8-53       8-53       8-53      #8-53       8-53       8-53      #8-53
                         8-53       8-53      #8-53       8-53       8-53      #8-53       8-53       8-53      #8-53
                         8-53       8-53      #8-53       8-53       8-53      #8-53       8-53       8-53      #8-53
                         8-53       8-53      #8-53       8-53       8-53      #8-53
.CSI1 	= ******  G	 8-90       8-90       8-106      8-106
.CSI2 	= ******  G	 8-96       8-96       8-100      8-100
.DYBLK	= ******  GX	*8-73
.DYBUF	= ******  GX	*8-68
.DYBYT	= ******  GX	*8-69
.DYREL	= ******  GX	 8-83       8-83
.DYSIZ	= ******  GX	*8-63
.FINIT	= ******  G	 8-46       8-46
.INIT 	  000000 RG	#8-43
.LCLSW	= ******  GX	*8-109
.MBFCT	= ******  GX	*8-64      *8-67
.OULCL	= ******  GX	*8-121
.RSTAR	  000206 RG	 8-74      #8-80
.SYNER	= ******  GX	 9-169      9-169
.TOPAD	= ******  GX	 8-61       8-68
PIPDSP     CREATED BY  MACRO  ON 27-FEB-85 AT 12:24	PAGE 4

MACRO CROSS REFERENCE                                   CREF

MACRO NAME	REFERENCES

ASH   		#1-64
ASHC  		#1-64
CALL  		#7-33       8-82       8-83       8-84       8-88       8-113      8-119      8-123      9-169
CSI$  		#7-29      #7-30      #8-90      #8-96      #8-100     #8-106
CSI$1 		#7-33       8-90       8-106
CSI$2 		#7-33      #8-96      #8-100
DIR$  		#8-47       8-47      #8-51       8-51      #8-53       8-53      #8-76       8-76
DIV   		#1-64
ERRINI		#4-307
ERROUT		#3-215      8-75
ERROUX		#3-222      9-172      9-175      9-178
ERROU1		#3-225     #8-75      #9-172     #9-175     #9-178
ERRP  		#3-247
ERRPX 		#3-253
ERRP1 		#3-256
ERR$  		#8-47      #8-51      #8-53      #8-76
ERR1  		#3-273     #8-75      #9-172     #9-175     #9-178
EXIT$S		#7-33      #8-76
FINIT$		#7-33       8-46
FLDSOF		#5-382     #7-28      #7-28
GCMLD$		#7-31       7-32
GLUN$S		#7-33       8-47
GPRT$S		#7-34       8-51
GTSK$S		#7-34       8-53
IDENT 		#5-339     #7-1
IDENT1		#5-347      7-1
IDTITL		#5-356
ILLOP 		#1-52      #1-64       1-64
IMPURE		#1-75
LDR0$ 		#8-90      #8-90      #8-96      #8-96      #8-100     #8-100     #8-106     #8-106
MARK  		#1-64
MOV$  		#8-47      #8-47      #8-47      #8-51      #8-51      #8-53      #8-53
MSG   		#2-124
MSGZ  		#2-129
MSG1  		#2-133
MUL   		#1-64
NOEIS$		#1-39       1-64
OFF$  		#8-47      #8-47      #8-47      #8-47      #8-47      #8-51      #8-51      #8-51      #8-51      #8-53
                #8-53      #8-53      #8-53      #8-53      #8-53      #8-53      #8-53      #8-53      #8-53      #8-53
                #8-53      #8-53
PURE. 		#1-84       8-37
PURE.D		#1-102
PURE.I		#1-98       8-37
RETURN		#7-33
RFA$  		#8-51       8-51
RTT   		#1-64
SOB   		#1-64
SVTK$S		#7-33
SXT   		#1-64
XOR   		#1-64
PIPCPY M0224, COPY COMMAND-PIP	MACRO M1113  27-FEB-85 12:24
TABLE OF CONTENTS

     7-    1	**** PIPCPY VERSION M0224 ****
PIPMAC - MACROS FOR PIP, ETC.	MACRO M1113  27-FEB-85 12:24  PAGE 6


    397
PIPCPY M0224, COPY COMMAND-PIP	MACRO M1113  27-FEB-85 12:24  PAGE 7


      1						.TITLE	PIPCPY M0224, COPY COMMAND-PIP
						.SBTTL	**** PIPCPY VERSION M0224 ****
						.IDENT	/M0224/
      2					; ALTERED:
      3					; ANDREW C. GOLDSTEIN  3 MAR 75  17:01
      4					;
      5					; COPYRIGHT 1975, 1985, DIGITAL EQUIPMENT CORP., MAYNARD MASS.
      6					; COPYRIGHT 1974, DIGITAL EQUIPMENT CORP., MAYNARD MASS.
      7
      8					;			ALL RIGHTS RESERVED
      9					;
     10					; THIS SOFTWARE IS FURNISHED TO PURCHASER UNDER A LICENSE FOR USE
     11					; ON A SINGLE COMPUTER SYSTEM AND CAN BE COPIED (WITH INCLUSION
     12					; OF DEC'S COPYRIGHT NOTICE) ONLY FOR USE IN SUCH SYSTEM, EXCEPT
     13					; AS MAY OTHERWISE BE PROVIDED IN WRITING BY DEC.
     14
     15					; THE INFORMATION IN THIS DOCUMENT IS SUBJECT TO CHANGE WITHOUT
     16					; NOTICE AND SHOULD NOT BE CONSTRUED AS A COMMITMENT BY DIGITAL
     17					; EQUIPMENT CORPORATION.
     18
     19					; DEC ASSUMES NO RESPONSIBILITY FOR THE USE OR RELIABILITY
     20					; OF ITS SOFTWARE ON EQUIPMENT WHICH IS NOT SUPPLIED BY DEC.
     21					;
     22					; PETER H. LIPMAN	2-MAY-74
     23					;
     24						.IF	GT,R$$11M
     25						.MACRO	OPEN$	A1,A2,A3,A4,A5,A6,A7,A8,A9
     26						.MCALL	OFNB$
     27						OFNB$	A1,A2,A3,A4,A5,A6,A7,A8,A9
     28						.ENDM	OPEN$
     29					;
     30						.MACRO	GET$	A1,A2,A3,A4
     31						.MCALL	GET$S
     32						GET$S	A1,A2,A3,A4
     33						.ENDM	GET$
     34					;
     35						.MACRO	PUT$	A1,A2,A3,A4
     36						.MCALL	PUT$S
     37						PUT$S	A1,A2,A3,A4
     38						.ENDM	PUT$
     39					;
     40						.ENDC
     41
     42	000000					FLDSOF
     43						.MCALL	CSI$,FDOF$L,FCSBT$,IOERR$
     44	000000					CSI$
     45	000000					FDOF$L			;DEFINE FDB OFFSETS LOCALLY
     46	000000					FCSBT$			;DEFINE FDB BITS AND VALUES LOCALLY
     47	000000					IOERR$			;DEFINE I/O ERROR CODES LOCALLY
     48						.MCALL	CALL,RETURN
     49						.MCALL	FDRC$R,FDAT$R,FDBF$R
     50						.MCALL	OPEN$R,OPEN$U,OPEN$A,OPEN$
     51						.MCALL	PUT$,GET$,QIO$,DIR$,WTSE$S,WSIG$S
     52					;
     53	000000					MSG1	LPHD,<<14>>	;HEADER FOR COPY TO LP:
     54
     55	000000					IMPURE
PIPCPY M0224, COPY COMMAND-PIP	MACRO M1113  27-FEB-85 12:24  PAGE 7-1
**** PIPCPY VERSION M0224 ****

     56
     57	000000				QIODPB:	QIO$	,,RWEFN,,IOSTBK,,<,,,,>
     58		000014 				Q.XFAD=Q.IOPL		;TRANSFER ADDRESS OFFSET
     59		000016 				Q.XFSZ=Q.IOPL+2		;TRANSFER SIZE OFFSET
     60		000022 				Q.XFVB=Q.IOPL+6		;TRANSFER VBN OFFSET
PIPCPY M0224, COPY COMMAND-PIP	MACRO M1113  27-FEB-85 12:24  PAGE 8
**** PIPCPY VERSION M0224 ****

     62	000026					PURE.I
     63
     64					; COPY THE INPUT FILE TO THE OUTPUT FILE
     65	000000				COPY::
     66	000000	016767 	000000G	000000G		MOV	.OULCL,.LCLSW	;LOCAL OUTPUT SWITCHES APPLY
     67									;TO ALL INPUT SPECIFIERS
     68	000006	032767 	000000C	000002G		BIT	#APPDBT!UPDTBT,CMDWRD+2
     69	000014	001403 				BEQ	10$
     70	000016	052767 	000000G	000002G		BIS	#MERGBT,CMDWRD+2	;APPEND OR UPDATE IMPLY MERGE
     71	000024	005767 	000000G		10$:	TST	INSPEC		;ANY INPUT FILE SPEC AT ALL?
     72	000030	001003 				BNE	30$
     73	000032					ERROUX	CP02		;NOTHING TO COPY!
	000032	104403 				TRAP	X
	000034	000000G				.WORD	CP02SZ
	000036	000000G				.WORD	CP02MG
     74					; INITIALIZE THE DEFAULT NAME BLOCKS AND PUT ADDRESSES IN FDB'S
     75	000040	012767 	000000G	000046G	30$:	MOV	#NAMBLK,FDBOUT+F.DFNB
     76	000046	005001 				CLR	R1
     77	000050	005002 				CLR	R2
     78	000052					CALL	STNMBK		;INIT "NAMBLK"
     79	000056	012700 	000000G			MOV	#NMBLK1,R0
     80	000062	010067 	000046G			MOV	R0,FDBIN+F.DFNB
     81					; R1 AND R2 SHOULD STILL CONTAIN 0
     82	000066					CALL	STNBK1		;INIT NAMBLK IN R0
     83	000072	012767 	000000G	000044G		MOV	#IFNPT,FDBIN+F.DSPT ;INIT DESCRIPTOR POINTERS
     84	000100	012767 	000000G	000044G		MOV	#OFNPT,FDBOUT+F.DSPT
     85	000106	012700 	000000G			MOV	#FDBOUT,R0
     86	000112	112760 	000016 	000043 		MOVB	#FO.WRT,F.FACC(R0) ; SET INTENT TO CAUSE SPOOLING
     87	000120					CALL	PARSE		;PARSE THE OUTPUT FILE NAME
     88	000124	103004 				BCC	40$
     89	000126					CALL	PRSERR		;FAILED TO PARSE OUTPUT FILE NAME
     90	000132	000167 	000000G			JMP	CLOSX
     91	000136				40$:	CALL	CWLDUI		;CHECK FOR LEGAL WILD UIC
     92	000142	103003 				BCC	42$		;BRANCH IF OK
     93	000144					ERROUX	CP01		;ONLY [*,*] IS LEGAL FOR OUTPUT
	000144	104403 				TRAP	X
	000146	000000G				.WORD	CP01SZ
	000150	000000G				.WORD	CP01MG
     94	000152	032761 	000000G	000020 	42$:	BIT	#NB.SFN,N.STAT(R1) ;NO WILD CARDS IN NAME?
     95	000160	001431 				BEQ	46$		;BRANCH IF YES
     96	000162	016102 	000020 			MOV	N.STAT(R1),R2
     97	000166	042702 	000000C			BIC	#^C<NB.SFN>,R2
     98	000172	022702 	000000G			CMP	#NB.SFN,R2	;*.*;* ?
     99	000176	001412 				BEQ	44$		;BRANCH IF YES, OK
    100	000200	022702 	000060 			CMP	#NB.SNM!NB.STP,R2 ;*.* ?
    101	000204	001004 				BNE	43$		;BRANCH IF NO, ILLEGAL  USE OF *
    102	000206	032761 	000001 	000020 		BIT	#NB.VER,N.STAT(R1) ;NOT EXPLICIT VERSION
    103	000214	001403 				BEQ	44$		;BRANCH IF YES, OK
    104	000216				43$:	ERROUX	CP04,1		;ILLEGAL * IN OUTPUT NAME
	000216	104413 				TRAP	X
	000220	000000G				.WORD	CP04SZ
	000222	000000G				.WORD	CP04MG
    105	000224	042767 	000001 	000000G	44$:	BIC	#CS.NMF,OUSPEC	;NORMALIZE WILD CARD OUTPUT NAME
    106	000232	005067 	000010G			CLR	OFNPT+N.FNMD
    107	000236	042761 	000000G	000020 		BIC	#NB.SFN,N.STAT(R1)
    108	000244	032767 	000001 	000000G	46$:	BIT	#CS.NMF,OUSPEC	;IF EXPLICIT OUTPUT FILE NAME
    109	000252	001013 				BNE	54$		;BRANCH IF YES
PIPCPY M0224, COPY COMMAND-PIP	MACRO M1113  27-FEB-85 12:24  PAGE 8-1
**** PIPCPY VERSION M0224 ****

    110	000254	032767 	000000G	000002G		BIT	#MERGBT,CMDWRD+2	;MERGE, APPEND, OR UPDATE REQUEST?
    111	000262	001416 				BEQ	60$		;BRANCH IF NO
    112	000264	132760 	000010 	000017 		BITB	#FD.DIR,F.RCTL(R0)
    113	000272	001412 				BEQ	60$		;OK IF NON DIRECTORY DEVICE
    114	000274					ERROUX	CP05,1		;MUST HAVE EXPLICIT OUTPUT FILE NAME
	000274	104413 				TRAP	X
	000276	000000G				.WORD	CP05SZ
	000300	000000G				.WORD	CP05MG
    115	000302	032767 	000030 	000000G	54$:	BIT	#CS.MOR!CS.WLD,INSPEC ;MULTIPLE INPUT FILES?
    116	000310	001403 				BEQ	60$
    117					;
    118					; EXPLICIT OUTPUT FILE NAME AND MULTIPLE INPUT FILES IMPLY A MERGE
    119	000312	052767 	000000G	000002G		BIS	#MERGBT,CMDWRD+2
    120	000320	012700 	000000G		60$:	MOV	#FDBIN,R0
PIPCPY M0224, COPY COMMAND-PIP	MACRO M1113  27-FEB-85 12:24  PAGE 9
**** PIPCPY VERSION M0224 ****

    122
    123	000324				COPY2:	CALL	PARSE		;PARSE THE FILE NAME
    124	000330	103004 				BCC	10$
    125	000332					CALL	PRSERR
    126	000336	000167 	002002 			JMP	CPYNXT
    127	000342	016067 	000120 	000000G	10$:	MOV	F.FVER(R0),VERSAV
    128	000350	052767 	000000G	000000G		BIS	#FRSTIM,CPYCTL	;FIRST FIND OPERATION NOT DONE YET
    129	000356	032767 	000001 	000000G		BIT	#CS.NMF,INSPEC	;ALLOW NULL INPUT FILE NAME TO = *.*;*
    130	000364	001021 				BNE	CPYWLD
    131	000366	005762 	000016 			TST	N.FLID(R2)	;UNLESS FILE ID SPECIFIED
    132	000372	001016 				BNE	CPYWLD
    133	000374	132760 	000010 	000017 		BITB	#FD.DIR,F.RCTL(R0) ;OR UNLESS NON DIRECTORY DEVICE
    134	000402	001412 				BEQ	CPYWLD
    135	000404	052761 	000000G	000020 		BIS	#NB.SFN,N.STAT(R1) ;SINCE WILD CARDS ON INPUT SIDE
    136	000412	032767 	000001 	000000G		BIT	#CS.NMF,OUSPEC	;OUTPUT FILE NAME IMPLIES MERGE
    137	000420	001403 				BEQ	CPYWLD
    138	000422	052767 	000000G	000002G		BIS	#MERGBT,CMDWRD+2
    139	000430	016760 	000000G	000120 	CPYWLD:	MOV	VERSAV,F.FVER(R0)
    140	000436					CALL	FNDNXT
    141	000442	103004 				BCC	COPY1		;BRANCH IF SUCCESSFUL
    142					;
    143					; ERROR FROM LOOKUP
    144	000444					CALL	FNDERR
    145	000450	000167 	001670 			JMP	CPYNXT
    146	000454	005067 	000000G		COPY1:	CLR	OURACC
    147	000460	012767 	000004 	000000G		MOV	#FD.PLC,INRACC
    148	000466	032767 	000001 	000000G		BIT	#CS.NMF,OUSPEC	;IS OUTPUT FILE NAME EXPLICIT
    149	000474	001100 				BNE	40$		;BRANCH IF YES
    150	000476	010002 				MOV	R0,R2
    151	000500	062702 	000110 			ADD	#F.FNAM,R2	;R2=ADR OF FNAME IN NAME BLOCK
    152	000504	005001 				CLR	R1		;R1= DIRECTORY ID FIELD
    153	000506					CALL	STNMBK		;STORE INTO NAMBLK
    154					;
    155					; IF THE OUTPUT DIRECTORY IS WILD CARD, USE THE INPUT DIR ID
    156	000512	032767 	000000G	000020G		BIT	#NB.SDI,OWUIC+N.STAT
    157	000520	001412 				BEQ	10$
    158	000522	016702 	000044G			MOV	FDBOUT+F.DSPT,R2
    159	000526	016703 	000044G			MOV	FDBIN+F.DSPT,R3
    160	000532	016362 	000004 	000004 		MOV	N.DIRD(R3),N.DIRD(R2)
    161	000540	016362 	000006 	000006 		MOV	N.DIRD+2(R3),N.DIRD+2(R2)
    162					;
    163					; DEFAULT FILE VERSION TO THAT OF INPUT FILE UNLESS DEVICE AND
    164					; DIRECTORY ARE THE SAME.
    165	000546	032767 	000000G	000000G	10$:	BIT	#NVERBT,CPYCTL	;FORCING NEW OUTPUT FILE VERSION?
    166	000554	001035 				BNE	30$		;BRANCH IF YES
    167	000556	016767 	000120G	000016G		MOV	FDBIN+F.FVER,NAMBLK+N.FVER
    168	000564	026767 	000134G	000134G		CMP	FDBIN+F.DVNM,FDBOUT+F.DVNM ;SAME DEVICES?
    169	000572	001041 				BNE	40$		;BRANCH IF NO
    170	000574	026767 	000136G	000136G		CMP	FDBIN+F.UNIT,FDBOUT+F.UNIT
    171	000602	001035 				BNE	40$		;BRANCH IF UNITS DIFFERENT
    172	000604	012704 	000003 			MOV	#3,R4		;CHECK 3 DIRECTORY ID WORDS
    173	000610	012702 	000126G			MOV	#FDBIN+F.FNB+N.DID,R2
    174	000614	012703 	000126G			MOV	#FDBOUT+F.FNB+N.DID,R3
    175	000620	022223 			20$:	CMP	(R2)+,(R3)+
    176	000622	001025 				BNE	40$
    177	000624					SOB	R4,20$
    178	000630	032767 	000000G	000122G		BIT	#NB.SFL,FDBIN+F.FNB+N.STAT
PIPCPY M0224, COPY COMMAND-PIP	MACRO M1113  27-FEB-85 12:24  PAGE 9-1
**** PIPCPY VERSION M0224 ****

    179	000636	001415 				BEQ	35$
    180					; WILD CARD COPY TO SAME DEVICE, DIRECTORY IS ILLEGAL
    181	000640					ERROUT	CP03
	000640	104402 				TRAP	X
	000642	000000G				.WORD	CP03SZ
	000644	000000G				.WORD	CP03MG
    182	000646	000407 				BR	32$
    183					;
    184					; PRODUCE NEW VERSION OF FILE, DON'T PRESERVE THE INPUT FILE'S VERSION NUMBER
    185					;
    186	000650	032767 	000010 	000122G	30$:	BIT	#NB.SVR,FDBIN+F.FNB+N.STAT ;IF WILD VERSION SPECIFIED
    187	000656	001405 				BEQ	35$
    188	000660					ERROUT	CP15		;THEN ILLEGAL
	000660	104402 				TRAP	X
	000662	000000G				.WORD	CP15SZ
	000664	000000G				.WORD	CP15MG
    189	000666	000167 	001452 		32$:	JMP	CPYNXT
    190	000672	005067 	000016G		35$:	CLR	NAMBLK+N.FVER	;FORCE DEFAULT (NEW) OUTPUT FILE VERSION
    191					;
    192					; NOW SEE IF CAN COPY IN BLOCK MODE INSTEAD OF RECORD MODE
    193	000676	005767 	000070G		40$:	TST	FDBOUT+F.BDB	;IF OUTPUT FILE IS ALREADY OPEN
    194	000702	001061 				BNE	CPYOPN		;SET UP RECORD ORIENTED INPUT FILE
    195	000704	032767 	000000G	000002G		BIT	#MERGBT,CMDWRD+2	;IF 1ST FILE OF MERGE
    196	000712	001406 				BEQ	50$		;BRANCH IF NOT
    197	000714					FDBF$R	#FDBIN,,#512.	;FORCE STANDARD BUF SIZE, AVOID FRAGMENTING FSR1
    198	000726	000447 				BR	CPYOPN		;AND USE RECORD ORIENTED COPY
    199	000730	026767 	000062G	000062G	50$:	CMP	FDBIN+F.BBFS,FDBOUT+F.BBFS ;BLOCK SIZES THE SAME?
    200	000736	001043 				BNE	CPYOPN		;BRANCH IF NO, RECORD ORIENTED COPY
    201	000740	026727 	000062G	001000 		CMP	FDBIN+F.BBFS,#1000 ;MUST BE 1000 BYTE BLOCKS
    202	000746	001037 				BNE	CPYOPN		;BRANCH IF NOT
    203					;
    204					; BOTH MUST BE BLOCK ORIENTED AND NON SEQUENTIAL
    205	000750	132767 	000041 	000017G		BITB	#FD.REC!FD.SQD,FDBIN+F.RCTL
    206	000756	001033 				BNE	CPYOPN
    207	000760	132767 	000041 	000017G		BITB	#FD.REC!FD.SQD,FDBOUT+F.RCTL
    208	000766	001027 				BNE	CPYOPN
    209					;
    210					; BOTH FILES ARE BLOCK ORIENTED AND THE SAME BLOCK SIZE, USE READ/WRITE
    211					;
    212	000770	026767 	000000G	000000G		CMP	.DYSIZ,.DYBYT	; SEE IF DYNAMIC BUFFER IS ALLOCATED
    213	000776	001412 				BEQ	60$		; BRANCH IF YES
    214					;
    215					; FAKE AN ALLOCATION OF THE ENTIRE DYNAMIC BUFFER REGION. WE CANNOT
    216					; CALL $RQLCB SINCE THE DESIRED SIZE MAY BE OVER 16K AND CAUSE
    217					; SIGN PROBLEMS.
    218					;
    219	001000					CALL	.DYREL		; RELEASE ANYTHING THAT'S ALLOCATED
    220	001004	016767 	000000G	000000G		MOV	.DYSIZ,.DYBYT	; SET ALLOCATED SIZE
    221	001012	013700 	000000G			MOV	@#.FSRPT,R0	; GET FSR2 ADDRESS
    222	001016	011067 	000000G			MOV	(R0),.DYBUF	; SET BUFFER ADDRESS
    223	001022	005010 				CLR	(R0)		; MARK ENTIRE FSR ALLOCATED
    224
    225	001024	012700 	000000G		60$:	MOV	#FDBIN,R0
    226	001030	012767 	000001 	000000G		MOV	#FD.RWM,INRACC
    227	001036	012767 	000001 	000000G		MOV	#FD.RWM,OURACC
    228	001044	000400 				BR	CPYOPN
PIPCPY M0224, COPY COMMAND-PIP	MACRO M1113  27-FEB-85 12:24  PAGE 10
**** PIPCPY VERSION M0224 ****

    230
    231	001046				CPYOPN:
    232	001046	012701 	000000G			MOV	#STBLK,R1	;R1=ADDRESS OF STATISTICS BLOCK
    233	001052	132760 	000040 	000017 		BITB	#FD.SQD,F.RCTL(R0) ;IF SEQUENTIAL DEVICE
    234	001060	001002 				BNE	10$		;DON'T READ THE STATISTICS BLOCK
    235	001062	010160 	000036 			MOV	R1,F.STBK(R0)	;OTHERWISE READ IT AT OPEN TIME
    236	001066	005021 			10$:	CLR	(R1)+		;ZERO THE LBN IN THE STATISTICS BLOCK
    237	001070	005021 				CLR	(R1)+
    238	001072	005021 				CLR	(R1)+		;AND ZERO THE SIZE FIELD
    239	001074	005011 				CLR	(R1)		;LEAVING R1 POINTING AT LOW ORDER SIZE
    240	001076					OPEN$R	R0,,,INRACC	;OPEN THE INPUT FILE
    241	001116	103002 				BCC	20$		;
    242	001120	000167 	001376 			JMP	CERR51		;FAILED TO OPEN INPUT FILE
    243
    244					;
    245					; FIX UP THE STATISTICS BLOCK IF THIS WAS A SEQUENTIAL DEVICE. HIBK+2 WILL
    246					; CONTAIN THE SIZE IF FLE WAS CONTIGUOUS.
    247					;
    248	001124	132760 	000040 	000017 	20$:	BITB	#FD.SQD,F.RCTL(R0) ;IF SEQUENTIAL DEVICE
    249	001132	001405 				BEQ	30$		;
    250	001134	016011 	000006 			MOV	F.HIBK+2(R0),(R1) ;FIX UP FILE SIZE
    251	001140	001402 				BEQ	30$		;BRANCH IF NOT CONTIGUOUS
    252	001142	005261 	177774 			INC	-4(R1)		;MAKE LBN IN STAT BLOCK NON-ZERO
    253					;
    254					; ESTABLISH SIZE AND CONTIGUOUS ATTRIBUTE FOR THE INPUT FILE
    255					;
    256	001146				30$:
    257	001146	005004 			EXTSIZ:	CLR	R4		;ASSUME NON CONTIGUOUS
    258	001150	011105 				MOV	(R1),R5		;R5=SIZE OF FILE SPACE ALLOCATED
    259	001152	005741 				TST	-(R1)
    260	001154	014146 				MOV	-(R1),-(SP)	;IF BOTH LBN WORDS ARE 0
    261	001156	054126 				BIS	-(R1),(SP)+	;THEN FILE IS NON CONTIGUOUS
    262	001160	001404 				BEQ	10$		;BRANCH IF NOT CONTIGUOUS
    263	001162	032767 	000000G	000000G		BIT	#NTCNTG,CPYCTL	;/-CO SWITCH?
    264	001170	001012 				BNE	30$		;BRANCH IF COPYING CONTIGUOUS
    265					;
    266					; USE FILE SIZE FROM RECORD ATTRIBUTE
    267					;
    268	001172	016005 	000012 		10$:	MOV	F.EFBK+2(R0),R5	;R5=VBN OF END OF FILE
    269	001176	005760 	000014 			TST	F.FFBY(R0)	;UNLESS FFBY=0
    270	001202	001001 				BNE	20$		;
    271	001204	005305 				DEC	R5		;IN WHICH CASE IT IS ONE TOO BIG
    272	001206	032767 	000000G	000000G	20$:	BIT	#CNTGBT,CPYCTL	;FORCE CONTIGUOUS?
    273	001214	001401 				BEQ	40$		;BRANCH IF NO
    274	001216	005204 			30$:	INC	R4		;CONTIGUOUS ALLOCATION
    275					;
    276					; SEE IF USER WANTS TO OVERRIDE THE EXTEND SIZE. IF HE SAID /BL:N, THEN
    277					; USE THAN EXTEND SIZE.
    278					;
    279	001220	032767 	000000G	000000G	40$:	BIT	#BLKBIT,CPYCTL	;/BL SWITCH SPECIFIED?
    280	001226	001402 				BEQ	50$		;BRANCH IF NO
    281	001230	016705 	000000G			MOV	BLKCNT,R5	;USE SPECIFIED SIZE
    282	001234	005704 			50$:	TST	R4		;IS EXTEND CONTIGUOUS?
    283	001236	001001 				BNE	60$		;BRANCH IF YES
    284	001240	005405 				NEG	R5		;NEGATIVE FOR NON CONTIGUOUS
    285	001242	010567 	000000G		60$:	MOV	R5,.EXTSZ	;SAVE THE EXTEND INFO
PIPCPY M0224, COPY COMMAND-PIP	MACRO M1113  27-FEB-85 12:24  PAGE 11
**** PIPCPY VERSION M0224 ****

    287
    288					;
    289					; NOW PREPARE TO OPEN THE OUTPUT FILE
    290					;
    291	001246				OUTOPN:
    292	001246	010001 				MOV	R0,R1		;PRESERVE THE INPUT FDB IN R1
    293	001250	012700 	000000G			MOV	#FDBOUT,R0	;OUTPUT FDB
    294	001254	005760 	000070 			TST	F.BDB(R0)	;
    295	001260	001124 				BNE	ISOPEN		;BRANCH IF OUTPUT FILE IS ALEADY OPEN
    296
    297	001262					FDAT$R	R0,F.RTYP(R1),F.RATT(R1),F.RSIZ(R1) ;SET REC ATTRIB.
    298	001304	022760 	050114 	000134 		CMP	#"LP,F.DVNM(R0)	;IF OUTPUT TO LINE PRINTER
    299	001312	001003 				BNE	10$		;
    300	001314					FDBF$R	R0,,#132.	;OVERRIDE BUFFER SIZE
    301	001322				10$:	FDRC$R	R0,OURACC
    302	001330					CALL	PRSREG
    303	001334					CALL	.PARSE
    304	001340	103004 				BCC	15$
    305	001342					CALL	PRSERR
    306	001346	000167 	000000G			JMP	CLOSX
    307	001352				15$:	CALL	.GFOWN		;SET UP FILE OWNER FOR /FO SWITCH
    308	001356	032767 	000000C	000002G		BIT	#APPDBT!UPDTBT,CMDWRD+2
    309	001364	001020 				BNE	OPENAU		;BRANCH IF APPENDING OR UPDATING
    310					;
    311					; CREATING A NEW FILE
    312					;
    313						.IF	GT,R$$DPB	;IF NEW DPB FORMAT
    314	001366					FDAT$R	R0,,,,.EXTSZ	;SET INITIALIZE ALLOCATION
    315
    316
    317						.IFF			;IF OLD DPB FORMAT
    318						MOV	.EXTSZ,R1	;ONLY SET INITIAL SIZE IF CONTIGUOUS
    319						BLT	20$		;BRANCH IF NOT CONTIGUOUS
    320						FDAT$R	R0,,,,R1	;
    321					20$:				;
    322						.ENDC
    323
    324	001374	012705 	000116 			MOV	#FO.WRT!FA.NSP,R5 ;ASSUME NOT SUPERSEDING
    325	001400	032767 	000000G	000000G		BIT	#SPSDBT,CPYCTL	;IS SUPERSEDE DESIRED
    326	001406	001402 				BEQ	30$		;BRANCH IF NO
    327	001410	012705 	000016 			MOV	#FO.WRT,R5	;
    328	001414				30$:	OPEN$	R0,R5		;OPEN A NEW FILE
    329	001424	000437 				BR	OPNCHK
    330
    331					;
    332					; OPEN FOR APPEND OR UPDATE
    333					;
    334	001426				OPENAU:
    335	001426	032767 	000000G	000002G		BIT	#APPDBT,CMDWRD+2
    336	001434	001026 				BNE	20$		;BRANCH IF OPEN FOR APPEND
    337	001436					OPEN$U	R0		;OPEN FOR UPDATE (REWRITE THE FILE)
    338	001450	103425 				BCS	OPNCHK
    339	001452	016702 	000002G			MOV	FDBIN+F.RSIZ,R2	;USE INPUT RECORD SIZE
    340	001456	122767 	000001 	000000G		CMPB	#R.FIX,FDBIN+F.RTYP
    341	001464	001401 				BEQ	10$		;IF FIXED LENGTH RECORDS
    342	001466	005002 				CLR	R2		;OR ZERO IF NOT
    343	001470				10$:	FDAT$R	R0,FDBIN+F.RTYP,FDBIN+F.RATT,R2
PIPCPY M0224, COPY COMMAND-PIP	MACRO M1113  27-FEB-85 12:24  PAGE 11-1
**** PIPCPY VERSION M0224 ****

    344	001510	000560 				BR	COPYGO		;SKIP THE 1ST EXTEND
    345	001512				20$:	OPEN$A	R0		;OPEN FOR APPEND (ADD TO END OF FILE)
    346	001524	103002 			OPNCHK:	BCC	ISOPEN
    347	001526	000167 	000402 			JMP	CERR2
PIPCPY M0224, COPY COMMAND-PIP	MACRO M1113  27-FEB-85 12:24  PAGE 12
**** PIPCPY VERSION M0224 ****

    349					;
    350					; BOTH FILES ARE NOW OPEN. IF RECORD ORIENTED COPY, ALLOCATE REMAINING
    351					; BUFFER SPACE AS A RECORD BUFFER
    352					;
    353	001532	032760 	000001 	000016 	ISOPEN:	BIT	#FD.RWM,F.RACC(R0) ; SEE IF BLOCK COPY IN USE
    354	001540	001040 				BNE	4$		; YES - NO RECORD BUFFER NEEDED
    355	001542					FDRC$R	R0,,#0,#0	;NO USER RECORD BUFFER
    356	001552	005001 				CLR	R1
    357	001554	013702 	000000G			MOV	@#.FSRPT,R2	; GET BUFFER FREE LIST HEAD FROM FSR2
    358	001560	011202 			1$:	MOV	(R2),R2		; CHAIN TO NEXT FREE AREA
    359	001562	001406 				BEQ	2$		; BRANCH IF NO MORE
    360	001564	026201 	000002 			CMP	2(R2),R1	; SEE IF THIS SPACE IS LARGER THAN PREVIOUS
    361	001570	101773 				BLOS	1$		; NO, KEEP LOOKING
    362	001572	016201 	000002 			MOV	2(R2),R1	; YES, CONSIDER THIS SPACE
    363	001576	000770 				BR	1$		; BUT KEEP TRYING
    364
    365	001600	005701 			2$:	TST	R1		; SEE IF WE FOUND ANYTHING
    366	001602	001005 				BNE	3$
    367	001604	012700 	000000G			MOV	#FDBIN,R0
    368	001610					ERROUX	DY01,0		;NOT ENOUGH BUFFER SPACE
	001610	104407 				TRAP	X
	001612	000000G				.WORD	DY01SZ
	001614	000000G				.WORD	DY01MG
    369	001616				3$:	CALL	.DYALC		;ALLOCATE THE EXTRA AS LARGEST POSSIBLE REC BUF
    370	001622					FDRC$R	#FDBIN,,.DYBUF,.DYBYT
    371					;
    372					; OUTPUT FILE IS OPEN - SEE IF EXTEND IS NECESSARY
    373					;
    374	001642	012700 	000000G		4$:	MOV	#FDBOUT,R0
    375	001646	132760 	000041 	000017 		BITB	#FD.REC!FD.SQD,F.RCTL(R0) ;DON'T EXTEND REC OR SEQ DEV
    376	001654	001040 				BNE	30$
    377	001656	016003 	000006 			MOV	F.HIBK+2(R0),R3	;LOW ORDER SIZE OF FILE IN BLOCKS
    378	001662	016002 	000004 			MOV	F.HIBK(R0),R2	;HIGH ORDER SIZE OF FILE
    379	001666	166003 	000012 			SUB	F.EFBK+2(R0),R3	;CALCULATE SPACE AVAILABLE
    380	001672	005602 				SBC	R2
    381	001674	166002 	000010 			SUB	F.EFBK(R0),R2
    382	001700	005760 	000014 			TST	F.FFBY(R0)	;IF FFBY=0
    383	001704	001003 				BNE	10$		;
    384	001706	062703 	000001 			ADD	#1,R3		;SUBTRACTED ONE TOO MANY
    385	001712	005502 				ADC	R2		;
    386	001714	005702 			10$:	TST	R2		;BRANCH IF HIGH ORDER NON-ZERO, (NO EXTEND)
    387	001716	001055 				BNE	40$
    388	001720	016701 	000000G			MOV	.EXTSZ,R1
    389	001724	002001 				BGE	20$
    390	001726	005401 				NEG	R1		;R1=SIZE OF INPUT FILE
    391	001730	160301 			20$:	SUB	R3,R1		;R1=NO. OF ADDITIONAL BLOCKS NEEDED
    392	001732	003447 				BLE	40$		;BRANCH IF EXTEND UNNECESSARY
    393	001734	005002 				CLR	R2		;NON CONTIGUOUS EXTEND
    394	001736					CALL	.EXTND
    395	001742	103043 				BCC	40$
    396					;
    397					; FAILED TO EXTEND-IGNORE FCP STACK OVERFLOW AND DO DEFAULT EXTEND AS
    398					; FILE IS WRITTEN.
    399					;
    400	001744	122760 	177706 	000052 		CMPB	#IE.STK,F.ERR(R0) ;FCP STACK OVERFLOW?
    401	001752	001131 				BNE	CERR52		;BRANCH IF OTHER ERROR
    402	001754	000436 				BR	40$		;
PIPCPY M0224, COPY COMMAND-PIP	MACRO M1113  27-FEB-85 12:24  PAGE 12-1
**** PIPCPY VERSION M0224 ****

    403	001756				30$:	CALL	RECATT		;ATTACH A RECORD DEVICE
    404	001762	103512 				BCS	CERR3
    405	001764	022760 	050114 	000134 		CMP	#"LP,F.DVNM(R0)	;IF OUTPUT TO LP
    406	001772	001027 				BNE	40$
    407	001774					FDAT$R	R0,#R.VAR,#0
    408	002006					PUT$	R0,#LPHDMG,#LPHDSZ ;START WITH A FORM FEED
    409	002026	103532 				BCS	CERR1		;BRANCH IF WRITE ERROR
    410	002030					FDAT$R	R0,FDBIN+F.RTYP,FDBIN+F.RATT,FDBIN+F.RSIZ
    411
    412	002052				40$:
    413	002052	012701 	000000G		COPYGO:	MOV	#FDBIN,R1	;SET R1, R2 TO FDB ADDRESSES
    414	002056	012702 	000000G			MOV	#FDBOUT,R2	;TO GAIN SPEED IN COPY LOOP
    415	002062	132761 	000001 	000016 		BITB	#FD.RWM,F.RACC(R1)
    416	002070	001402 				BEQ	40$
    417	002072	000167 	000452 			JMP	CPYBLK		;BRANCH IF COPYING IN BLOCK MODE
    418					;
    419					; COPY IN RECORD MODE
    420	002076				40$:	GET$	R1
    421	002104	103507 				BCS	CPYEOF		;BRANCH IF ERROR IN READ, EOF?
    422	002106	016767 	000026G	000026G		MOV	FDBIN+F.NRBD+2,FDBOUT+F.NRBD+2 ; SET OUTPUT ADDRESS
    423	002114	016767 	000024G	000024G		MOV	FDBIN+F.NRBD,FDBOUT+F.NRBD ; AND SIZE
    424	002122					PUT$	R2
    425	002130	103362 				BCC	40$		;DO NEXT RECORD IF ALL IS WELL
    426	002132	000470 				BR	CERR1		;WRITE ERROR
PIPCPY M0224, COPY COMMAND-PIP	MACRO M1113  27-FEB-85 12:24  PAGE 13
**** PIPCPY VERSION M0224 ****

    428					;
    429					; FAILED TO OPEN OUTPUT FILE
    430	002134	122760 	177750 	000052 	CERR2:	CMPB	#IE.DFU,F.ERR(R0) ;ALLOCATION FAILURE?
    431	002142	001426 				BEQ	CERR53		;BRANCH IF YES
    432	002144	122760 	177707 	000052 		CMPB	#IE.DUP,F.ERR(R0) ;FILE ALREADY EXISTS?
    433	002152	001404 				BEQ	10$		;BRANCH IF YES
    434	002154					ERROUT	OP02,0,0	;FAILED TO OPEN OUTPUT FILE
	002154	104426 				TRAP	X
	002156	000000G				.WORD	OP02SZ
	002160	000000G				.WORD	OP02MG
    435	002162	000410 				BR	20$
    436	002164				10$:	ERROUT	OP08,0		;OUTPUT FILE ALREADY EXISTS
	002164	104406 				TRAP	X
	002166	000000G				.WORD	OP08SZ
	002170	000000G				.WORD	OP08MG
    437	002172	032767 	000000G	000002G		BIT	#MERGBT,CMDWRD+2	;IF MERGING
    438	002200	001001 				BNE	20$		;THEN CAN'T CONTINUE WITH NEXT FILE
    439	002202	000463 				BR	COPYX		;OTHERWISE GO DO NEXT FILE
    440	002204	000167 	000000G		20$:	JMP	CLOSX
    441					;
    442					; FAILE TO ATTACH THE TTY
    443	002210				CERR3:	ERROUT	DI06,0,0
	002210	104426 				TRAP	X
	002212	000000G				.WORD	DI06SZ
	002214	000000G				.WORD	DI06MG
    444	002216	000455 				BR	COPYX
    445					;
    446					; EXTEND FAILURE AT OPEN TIME
    447					;
    448	002220	012702 	000001 		CERR53:	MOV	#1,R2		;ASSUME IT WAS CONTIGUOUS EXTEND
    449	002224	016701 	000000G			MOV	.EXTSZ,R1
    450	002230	002002 				BGE	CERR52		;BRANCH IF IT WAS CONTIGUOUS
    451	002232	005002 				CLR	R2		;NON-CONTIGUOUS
    452	002234	005401 				NEG	R1
    453					;
    454					; FAILED TO EXTEND THE OUTPUT FILE
    455					; R1 = DESIRED SIZE OF EXTEND, R2=0 FOR NON-CONTIGUOUS EXTEND, 1 FOR
    456					; CONTIGUOUS REQUEST.
    457					;
    458	002236	122760 	177750 	000052 	CERR52:	CMPB	#IE.DFU,F.ERR(R0) ;DEVICE FULL?
    459	002244	001016 				BNE	30$		;BRANCH IF SOME OTHER ERROR
    460	002246	005702 				TST	R2		;ASKING FOR CONTIGUOUS SPACE?
    461	002250	001010 				BNE	20$		;BRANCH IF YES
    462	002252	010146 				MOV	R1,-(SP)	;SAVE EXTEND SIZE
    463	002254					ERROUT	CP11,0		;COULDN'T ALLOCATE ANY SPACE
	002254	104406 				TRAP	X
	002256	000000G				.WORD	CP11SZ
	002260	000000G				.WORD	CP11MG
    464	002262	022627 	000024 			CMP	(SP)+,#20.	;IF RELATIVELY LARGE SPACE WAS NEEDED
    465	002266	101031 				BHI	COPYX		;GO TRY NEXT FILE
    466	002270	000407 				BR	40$		;OTHERWISE STOP THE COPY LOOP NOW
    467	002272				20$:	ERROUT	CP10,0		;FAILED TO FIND CONTIGUOUS SPACE
	002272	104406 				TRAP	X
	002274	000000G				.WORD	CP10SZ
	002276	000000G				.WORD	CP10MG
    468	002300	000424 				BR	COPYX		;GO TRY TO COPY NEXT FILE
    469	002302				30$:	ERROUT	CP12,0,0	;COULDN'T EXTEND - PRINT REASON
PIPCPY M0224, COPY COMMAND-PIP	MACRO M1113  27-FEB-85 12:24  PAGE 13-1
**** PIPCPY VERSION M0224 ****

	002302	104426 				TRAP	X
	002304	000000G				.WORD	CP12SZ
	002306	000000G				.WORD	CP12MG
    470	002310	000167 	000000G		40$:	JMP	CLOSX		;EXIT FROM THE COPY LOOP
    471					;
    472					; WRITE ERROR
    473	002314				CERR1:	ERROUT	CP14,0,0
	002314	104426 				TRAP	X
	002316	000000G				.WORD	CP14SZ
	002320	000000G				.WORD	CP14MG
    474	002322	000413 				BR	COPYX
PIPCPY M0224, COPY COMMAND-PIP	MACRO M1113  27-FEB-85 12:24  PAGE 14
**** PIPCPY VERSION M0224 ****

    476	002324	122760 	177766 	000052 	CPYEOF:	CMPB	#IE.EOF,F.ERR(R0)
    477	002332	001407 				BEQ	COPYX
    478					;
    479					; READ ERROR
    480	002334				CERR6:	ERROUT	CP13,0,0
	002334	104426 				TRAP	X
	002336	000000G				.WORD	CP13SZ
	002340	000000G				.WORD	CP13MG
    481	002342	000403 				BR	COPYX
    482
    483	002344	042767 	000000G	000122G	CPYNXT:	BIC	#NB.SFL,FDBIN+F.FNB+N.STAT
    484	002352				COPYX:	CALL	CLSIN		;CLOSE INPUT FILE
    485	002356					CALL	.DYREL		; RELEASE THE RECORD BUFFER TO KEEP FSR CLEAN
    486	002362	032767 	000000G	000002G		BIT	#MERGBT,CMDWRD+2 ;AND THE OUTPUT FILE UNLESS MERGE MODE
    487	002370	001033 				BNE	10$
    488	002372	005767 	000070G			TST	FDBOUT+F.BDB	;NEED TO CLOSE OUTPUT FILE?
    489	002376	001426 				BEQ	5$		;BRANCH IF ALREADY CLOSED
    490	002400	016746 	000102G			MOV	FDBOUT+F.FNB+N.FID,-(SP) ;SAVE OUTPUT FILE ID
    491	002404					CALL	CLSOUT		;CLOSE THE OUTPUT FILE
    492	002410	012602 				MOV	(SP)+,R2	;R2=SAVED FILE NUMBER
    493	002412	016703 	000000G			MOV	.FOWNR,R3	;IF NO FILE OWNER SPECIFIED
    494	002416	001416 				BEQ	5$		;DON'T WRITE ATTRIBUTES
    495	002420	010260 	000102 			MOV	R2,F.FNB+N.FID(R0) ;OTHERWISE RESTORE THE FILE ID
    496	002424	005046 				CLR	-(SP)		;SET UP ATTRIBUTE LIST
    497	002426	012746 	000000G			MOV	#.FOWNR,-(SP)	;ADDRESS OF FILE OWNER
    498	002432	012746 	000000G			MOV	#HA.UI,-(SP)	;WRITE FILE OWNER ATTRIBUTE
    499	002436	010601 				MOV	SP,R1		;R1=ADDRESS OF ATTRIBUTE LIST
    500	002440					CALL	WRTATT		;ISSUE THE WRITE ATTRIBUTES QI/O AND WAIT
    501	002444	062706 	000006 			ADD	#6,SP		;POP THE ATTRIBUTE LIST
    502	002450	005067 	000102G			CLR	FDBOUT+F.FNB+N.FID ;ZERO THE FILE NUMBER AGAIN
    503	002454	005067 	000000G		5$:	CLR	BLKCNT		;RESET ONLY IF NOT A MERGE OPERATION
    504	002460	012700 	000000G		10$:	MOV	#FDBIN,R0	;R0=INPUT FDB ADDRESS
    505	002464					CALL	NXTFIL		;IS THERE A WILD CARD FILE?
    506	002470	103405 				BCS	CPYNX1		;BRANCH IF NO
    507	002472	042767 	000000G	000000G		BIC	#FRSTIM,CPYCTL	;SAY "NOT THE FIRST TIME"
    508	002500	000167 	175724 			JMP	CPYWLD
    509	002504				CPYNX1:	CALL	NXTIN		;GET THE NEXT INPUT SPECIFIER
    510	002510	103402 				BCS	10$		;BRANCH IF NO MORE SPECS
    511	002512	000167 	175606 			JMP	COPY2
    512	002516	000167 	000000G		10$:	JMP	CLOSX
    513
    514					; FAILED TO OPEN INPUT FILE
    515	002522	122760 	177746 	000052 	CERR51:	CMPB	#IE.NSF,F.ERR(R0)  ;WAS FILE NOT FOUND?
    516	002530	001003 				BNE	CERR13		;BRANCH IF SOME OTHER ERROR
    517	002532					CALL	FNDERR
    518	002536	000705 				BR	COPYX
    519	002540				CERR13:	ERROUT	OP01,0,0
	002540	104426 				TRAP	X
	002542	000000G				.WORD	OP01SZ
	002544	000000G				.WORD	OP01MG
    520	002546	000701 				BR	COPYX
PIPCPY M0224, COPY COMMAND-PIP	MACRO M1113  27-FEB-85 12:24  PAGE 15
**** PIPCPY VERSION M0224 ****

    522					;
    523					; COPY IN BLOCK MODE
    524	002550	016767 	000000G	000014'	CPYBLK:	MOV	.DYBUF,QIODPB+Q.XFAD ;PUT BUFFER ADDRESS IN DPB
    525	002556	016704 	000010G			MOV	FDBIN+F.EFBK,R4
    526	002562	016705 	000012G			MOV	FDBIN+F.EFBK+2,R5 ;R4,R5 = NO.OF BLOCK IN USE
    527	002566	005767 	000014G			TST	FDBIN+F.FFBY	 ;ONE TOO BIG IF FFBY=0
    528	002572	001003 				BNE	10$
    529	002574	162705 	000001 			SUB	#1,R5
    530	002600	005604 				SBC	R4
    531	002602	005067 	000022'		10$:	CLR	QIODPB+Q.XFVB
    532	002606	012767 	000001 	000024'		MOV	#1,QIODPB+Q.XFVB+2 ;START AT VBN 1
    533	002614	016703 	000000G		20$:	MOV	.DYBLK,R3	;R3=NO. OF BLOCKS AVAILABLE IN BUFFER
    534	002620	005704 				TST	R4		;IF MORE THAN 65K BLOCKS LEFT
    535	002622	001004 				BNE	30$		;TRANSFER MAX BUFFER SIZE
    536	002624	020503 				CMP	R5,R3		;OR IF MORE BLOCKS THAN BUFFER SPACE
    537	002626	101002 				BHI	30$		;TRANSFER MAX BUFFER SIZE
    538	002630	010503 				MOV	R5,R3		;OTHERWISE USE WHAT'S LEFT
    539	002632	001434 				BEQ	40$		;BRANCH IF NONE LEFT, ALL DONE
    540	002634	010301 			30$:	MOV	R3,R1
    541	002636	000301 				SWAB	R1
    542	002640	006301 				ASL	R1		;CONVERT BLOCK COUNT TO BYTE COUNT
    543	002642	010167 	000016'			MOV	R1,QIODPB+Q.XFSZ ;AND STORE IT IN THE DPB
    544	002646	012767 	000000G	000002'		MOV	#IO.RVB,QIODPB+Q.IOFN ;I/O FUNCTION CODE FOR READ VIRTUAL
    545	002654	012700 	000000G			MOV	#FDBIN,R0
    546	002660					CALL	RWGO		;PERFORM THE READ
    547	002664	103623 				BCS	CERR6		;BRANCH IF ERROR
    548	002666	012767 	000000G	000002'		MOV	#IO.WVB,QIODPB+Q.IOFN ;I/O FUCNTION CODE FOR WRITE VIRTUAL
    549	002674	012700 	000000G			MOV	#FDBOUT,R0
    550	002700					CALL	RWGO		;WRITE THE BLOCK
    551	002704	103603 				BCS	CERR1
    552	002706	160305 				SUB	R3,R5
    553	002710	005604 				SBC	R4		;R4,R5 = NO. OF BLOCKS LEFT TO TRANSFER
    554	002712	060367 	000024'			ADD	R3,QIODPB+Q.XFVB+2
    555	002716	005567 	000022'			ADC	QIODPB+Q.XFVB	;UPDATE THE NEXT VBN
    556	002722	000734 				BR	20$		;GO DO THE NEXT SET OF VBN'S
    557	002724	016767 	000010G	000010G	40$:	MOV	FDBIN+F.EFBK,FDBOUT+F.EFBK ;SET OUTPUT EOF
    558	002732	016767 	000012G	000012G		MOV	FDBIN+F.EFBK+2,FDBOUT+F.EFBK+2
    559	002740	016767 	000014G	000014G		MOV	FDBIN+F.FFBY,FDBOUT+F.FFBY
    560	002746	000601 				BR	COPYX
    561					;+
    562					; START UP A READ OR WRITE VIRTUAL BLOCK FOR BLOCK MODE COPY
    563					;
    564					; INPUTS:
    565					;
    566					;	R0=FDB ADDRESS
    567					;
    568					; OUTPUTS:
    569					;
    570					;	C=0 IF SUCCESSFUL, C=1 IF ERROR
    571					;	F.ERR(R0) SET TO ERROR CODE IF ERROR
    572					;	ALL REGISTERS PRESERVED
    573					;
    574					;-
    575	002750	116067 	000042 	000004'	RWGO:	MOVB	F.LUN(R0),QIODPB+Q.IOLU
    576	002756	005060 	000052 		10$:	CLR	F.ERR(R0)
    577	002762					DIR$	#QIODPB		;ISSUE THE QI/O
    578	002770	103416 				BCS	20$
PIPCPY M0224, COPY COMMAND-PIP	MACRO M1113  27-FEB-85 12:24  PAGE 15-1
**** PIPCPY VERSION M0224 ****

    579	002772					WTSE$S	#RWEFN		;WAIT FOR COMPLETION
    580	003004	116760 	000000G	000052 		MOVB	IOSTBK,F.ERR(R0) ;SET ERROR IF ANY
    581	003012	002415 				BLT	30$		;BRANCH IF ERROR
    582	003014	026767 	000002G	000016'		CMP	IOSTBK+2,QIODPB+Q.XFSZ ;ALL BYTES TRANSFERRED?
    583	003022	001021 				BNE	50$		;BRANCH IF NO, ERROR
    584	003024					RETURN
    585	003026	013760 	000000G	000052 	20$:	MOV	@#$DSW,F.ERR(R0) ;PICK UP REASON FOR QI/O FAILURE
    586	003034	022760 	000000G	000052 		CMP	#IE.UPN,F.ERR(R0) ;OUT OF DYNAMIC MEMORY?
    587	003042	001405 				BEQ	40$		;YES, WAIT AND TRY AGAIN
    588	003044	000413 				BR	60$
    589	003046	122760 	177751 	000052 	30$:	CMPB	#IE.NOD,F.ERR(R0) ;NO DYNAMIC MEMORY AVAILABLE?
    590	003054	001007 				BNE	60$
    591	003056				40$:	WSIG$S			;YES, WAIT AND TRY AGAIN
    592	003064	000734 				BR	10$
    593	003066	112760 	177761 	000052 	50$:	MOVB	#IE.ABO,F.ERR(R0) ;FAILED TO TRANSFER DESIRED COUNT, ABORT
    594	003074	000261 			60$:	SEC
    595	003076					RETURN
    596
    597					;
    598					;
    599		000001 				.END
PIPCPY M0224, COPY COMMAND-PIP	MACRO M1113  27-FEB-85 12:24  PAGE 15-2
SYMBOL TABLE

APPDBT= ****** GX	CS.WLD= 000010   	F.BKEF= 000050   	IE.DFU= 177750   	ISOPEN  001532R     004
BLKBIT= ****** GX	CWLDUI= ****** GX	F.BKP1= 000051   	IE.DNA= 177771   	IS.BV = 000005
BLKCNT= ****** GX	C.CMLD= 000002   	F.BKST= 000024   	IE.DNR= 177775   	IS.CR = 006401
CERR1   002314R     004	C.DEVD= 000006   	F.BKVB= 000064   	IE.DUN= 177767   	IS.ESC= 015401
CERR13  002540R     004	C.DIRD= 000012   	F.CNTG= 000034   	IE.DUP= 177707   	IS.PND= 000000
CERR2   002134R     004	C.DSDS= 000006   	F.DFNB= 000046   	IE.EBX= 177776   	IS.RDD= 000002
CERR3   002210R     004	C.FILD= 000016   	F.DSPT= 000044   	IE.EOF= 177766   	IS.SUC= 000001
CERR51  002522R     004	C.MKW1= 000024   	F.DVNM= 000134   	IE.EOT= 177702   	LPHDMG= 000000R     002
CERR52  002236R     004	C.MKW2= 000026   	F.EFBK= 000010   	IE.EOV= 177765   	LPHDSZ= 000001
CERR53  002220R     004	C.SIZE= 000054   	F.EFN = 000050   	IE.EXP= 177676   	MERGBT= ****** GX
CERR6   002334R     004	C.STAT= 000001   	F.EOBB= 000032   	IE.FEX= 177717   	NAMBLK= ****** GX
CLOSX = ****** GX	C.SWAD= 000022   	F.ERR = 000052   	IE.FHE= 177705   	NB.DEV= 000200
CLSIN = ****** GX	C.TYPR= 000000   	F.FACC= 000043   	IE.FOP= 177713   	NB.DIR= 000100
CLSOUT= ****** GX	DI06MG= ****** GX	F.FFBY= 000014   	IE.HFU= 177744   	NB.NAM= 000004
CMDWRD= ****** GX	DI06SZ= ****** GX	F.FNAM= 000110   	IE.IFC= 177776   	NB.SDI= ****** GX
CNTGBT= ****** GX	DY01MG= ****** GX	F.FNB = 000102   	IE.IFU= 177747   	NB.SD1= 000400
COPY    000000RG    004	DY01SZ= ****** GX	F.FTYP= 000116   	IE.ILL= 177726   	NB.SD2= 001000
COPYGO  002052R     004	EXTSIZ  001146R     004	F.FVER= 000120   	IE.ISQ= 177703   	NB.SFL= ****** GX
COPYX   002352R     004	FA.APD= 000100   	F.HIBK= 000004   	IE.LCK= 177745   	NB.SFN= ****** GX
COPY1   000454R     004	FA.CRE= 000010   	F.LUN = 000042   	IE.MBK= 177721   	NB.SNM= 000040
COPY2   000324R     004	FA.EXT= 000004   	F.MBCT= 000054   	IE.MOD= 177753   	NB.STP= 000020
CPYBLK  002550R     004	FA.NSP= 000100   	F.MBC1= 000055   	IE.NBF= 177731   	NB.SVR= 000010
CPYCTL= ****** GX	FA.RD = 000001   	F.MBFG= 000056   	IE.NBK= 177727   	NB.TYP= 000002
CPYEOF  002324R     004	FA.SHR= 000040   	F.NRBD= 000024   	IE.NFI= 177704   	NB.VER= 000001
CPYNXT  002344R     004	FA.TMP= 000020   	F.NREC= 000030   	IE.NLN= 177733   	NMBLK1= ****** GX
CPYNX1  002504R     004	FA.WRT= 000002   	F.OVBS= 000030   	IE.NNC= 177674   	NTCNTG= ****** GX
CPYOPN  001046R     004	FDBIN = ****** GX	F.RACC= 000016   	IE.NOD= 177751   	NVERBT= ****** GX
CPYWLD  000430R     004	FDBOUT= ****** GX	F.RATT= 000001   	IE.NSF= 177746   	NXTFIL= ****** GX
CP01MG= ****** GX	FD.BLK= 000010   	F.RCNM= 000034   	IE.OFL= 177677   	NXTIN = ****** GX
CP01SZ= ****** GX	FD.CCL= 000002   	F.RCTL= 000017   	IE.ONP= 177773   	N.DEVD= 000000
CP02MG= ****** GX	FD.CR = 000002   	F.RSIZ= 000002   	IE.OVR= 177756   	N.DID = 000024
CP02SZ= ****** GX	FD.DIR= 000010   	F.RTYP= 000000   	IE.PRI= 177760   	N.DIRD= 000004
CP03MG= ****** GX	FD.FTN= 000001   	F.STBK= 000036   	IE.RAC= 177724   	N.DVNM= 000032
CP03SZ= ****** GX	FD.INS= 000010   	F.UNIT= 000136   	IE.RAT= 177723   	N.FID = 000000
CP04MG= ****** GX	FD.PLC= 000004   	F.URBD= 000020   	IE.RBG= 177730   	N.FLID= 000016
CP04SZ= ****** GX	FD.RAH= 000001   	F.VBN = 000064   	IE.RCN= 177722   	N.FNAM= 000006
CP05MG= ****** GX	FD.RAN= 000002   	F.VBSZ= 000060   	IE.RER= 177740   	N.FNMD= 000010
CP05SZ= ****** GX	FD.REC= 000001   	HA.UI = ****** GX	IE.RNM= 177715   	N.FTYP= 000014
CP10MG= ****** GX	FD.RWM= 000001   	IE.ABO= 177761   	IE.RSU= 177757   	N.FVER= 000016
CP10SZ= ****** GX	FD.SDI= 000020   	IE.ALN= 177736   	IE.SNC= 177735   	N.NEXT= 000022
CP11MG= ****** GX	FD.SQD= 000040   	IE.BAD= 177777   	IE.SPC= 177772   	N.SPEC= 000014
CP11SZ= ****** GX	FD.TTY= 000004   	IE.BBE= 177710   	IE.SQC= 177734   	N.STAT= 000020
CP12MG= ****** GX	FD.WBH= 000002   	IE.BDI= 177714   	IE.SRE= 177762   	N.UNIT= 000034
CP12SZ= ****** GX	FNDERR= ****** GX	IE.BDR= 177716   	IE.STK= 177706   	OFNPT = ****** GX
CP13MG= ****** GX	FNDNXT= ****** GX	IE.BDV= 177711   	IE.UPN= ****** GX	OPENAU  001426R     004
CP13SZ= ****** GX	FO.APD= 000106   	IE.BHD= 177700   	IE.VER= 177774   	OPNCHK  001524R     004
CP14MG= ****** GX	FO.MFY= 000002   	IE.BLK= 177754   	IE.WAC= 177743   	OP01MG= ****** GX
CP14SZ= ****** GX	FO.RD = 000001   	IE.BNM= 177712   	IE.WAT= 177741   	OP01SZ= ****** GX
CP15MG= ****** GX	FO.UPD= 000006   	IE.BTF= 177675   	IE.WER= 177737   	OP02MG= ****** GX
CP15SZ= ****** GX	FO.WRT= 000016   	IE.BTP= 177725   	IE.WLK= 177764   	OP02SZ= ****** GX
CS.DIF= 000002   	FRSTIM= ****** GX	IE.BVR= 177701   	IE.2DV= 177720   	OP08MG= ****** GX
CS.DVF= 000004   	F.ALOC= 000040   	IE.BYT= 177755   	IFNPT = ****** GX	OP08SZ= ****** GX
CS.EQU= 000040   	F.BBFS= 000062   	IE.CKS= 177742   	INRACC= ****** GX	OURACC= ****** GX
CS.INP= 000001   	F.BDB = 000070   	IE.CLO= 177732   	INSPEC= ****** GX	OUSPEC= ****** GX
CS.MOR= 000020   	F.BGBC= 000057   	IE.CON= 177752   	IOSTBK= ****** GX	OUTOPN  001246R     004
CS.NMF= 000001   	F.BKDN= 000026   	IE.DAA= 177770   	IO.RVB= ****** GX	OWUIC = ****** GX
CS.OUT= 000002   	F.BKDS= 000020   	IE.DAO= 177763   	IO.WVB= ****** GX	PARSE = ****** GX
PIPCPY M0224, COPY COMMAND-PIP	MACRO M1113  27-FEB-85 12:24  PAGE 15-3
SYMBOL TABLE

PAR$$$= 000002   	RECATT= ****** GX	STNMBK= ****** GX	WRTATT= ****** GX	.EXTND= ****** GX
PRSERR= ****** GX	RWEFN = ****** GX	S.APPD= 000010   	X     = 000026   	.EXTSZ= ****** GX
PRSREG= ****** GX	RWGO    002750R     004	S.FATT= 000016   	$DSW  = ****** GX	.FOWNR= ****** GX
QIODPB  000000R     003	R$$DPB= 000001   	S.FDB = 000140   	$$    = 000067   	.FSRPT= ****** GX
Q.IOAE= 000012   	R$$DYM= 000001   	S.FIDS= 000014   	$$MSG = 000000   	.GETSQ= ****** G
Q.IOEF= 000006   	R$$EIS= 000000   	S.FNAM= 000006   	$$$ARG= 000013   	.GFOWN= ****** GX
Q.IOFN= 000002   	R$$MSG= 000000   	S.FNB = 000036   	$$$OST= 000014   	.LCLSW= ****** GX
Q.IOLU= 000004   	R$$11M= 000001   	S.FNBW= 000017   	.DYALC= ****** GX	.OPFNB= ****** G
Q.IOPL= 000014   	R.FIX = 000001   	S.FNTY= 000004   	.DYBLK= ****** GX	.OULCL= ****** GX
Q.IOPR= 000007   	R.VAR = 000002   	S.FTYP= 000002   	.DYBUF= ****** GX	.PARSE= ****** GX
Q.IOSB= 000010   	SPSDBT= ****** GX	S.NFEN= 000020   	.DYBYT= ****** GX	.PUTSQ= ****** G
Q.XFAD= 000014   	STBLK = ****** GX	UPDTBT= ****** GX	.DYREL= ****** GX	...GBL= 000000
Q.XFSZ= 000016   	STNBK1= ****** GX	VERSAV= ****** GX	.DYSIZ= ****** GX	...TPC= 000140
Q.XFVB= 000022

. ABS.	000000	   000
      	000000	   001
MSGSTR	000001	   002
IMPURE	000026	   003
PURE$I	003100	   004
ERRORS DETECTED:  0

VIRTUAL MEMORY USED:  7794 WORDS  ( 31 PAGES)
DYNAMIC MEMORY:  8846 WORDS  ( 34 PAGES)
ELAPSED TIME:  00:00:47
[43,10]PIPCPY,[43,20]PIPCPY/-SP/CR=[43,30]PIPMAC,PIPCPY
PIPCPY     CREATED BY  MACRO  ON 27-FEB-85 AT 12:25	PAGE 1

SYMBOL CROSS REFERENCE                                  CREF

SYMBOL	VALUE		REFERENCES

APPDBT	= ******  GX	 8-68       11-308     11-335
BLKBIT	= ******  GX	 10-279
BLKCNT	= ******  GX	 10-281    *14-503
CERR1 	  002314 R	 12-409     12-426    #13-473     15-551
CERR13	  002540 R	 14-516    #14-519
CERR2 	  002134 R	 11-347    #13-430
CERR3 	  002210 R	 12-404    #13-443
CERR51	  002522 R	 10-242    #14-515
CERR52	  002236 R	 12-401     13-450    #13-458
CERR53	  002220 R	 13-431    #13-448
CERR6 	  002334 R	#14-480     15-547
CLOSX 	= ******  GX	 8-90       11-306     13-440     13-470     14-512
CLSIN 	= ******  GX	 14-484     14-484
CLSOUT	= ******  GX	 14-491     14-491
CMDWRD	= ******  GX	 8-68      *8-70       8-110     *8-119     *9-138      9-195      11-308     11-335     13-437
                         14-486
CNTGBT	= ******  GX	 10-272
COPY  	  000000 RG	#8-65
COPYGO	  002052 R	 11-344    #12-413
COPYX 	  002352 R	 13-439     13-444     13-465     13-468     13-474     14-477     14-481    #14-484     14-518
                         14-520     15-560
COPY1 	  000454 R	 9-141     #9-146
COPY2 	  000324 R	#9-123      14-511
CPYBLK	  002550 R	 12-417    #15-524
CPYCTL	= ******  GX	*9-128      9-165      10-263     10-272     10-279     11-325    *14-507
CPYEOF	  002324 R	 12-421    #14-476
CPYNXT	  002344 R	 9-126      9-145      9-189     #14-483
CPYNX1	  002504 R	 14-506    #14-509
CPYOPN	  001046 R	 9-194      9-198      9-200      9-202      9-206      9-208      9-228     #10-231
CPYWLD	  000430 R	 9-130      9-132      9-134      9-137     #9-139      14-508
CP01MG	= ******  GX	 8-93
CP01SZ	= ******  GX	 8-93
CP02MG	= ******  GX	 8-73
CP02SZ	= ******  GX	 8-73
CP03MG	= ******  GX	 9-181
CP03SZ	= ******  GX	 9-181
CP04MG	= ******  GX	 8-104
CP04SZ	= ******  GX	 8-104
CP05MG	= ******  GX	 8-114
CP05SZ	= ******  GX	 8-114
CP10MG	= ******  GX	 13-467
CP10SZ	= ******  GX	 13-467
CP11MG	= ******  GX	 13-463
CP11SZ	= ******  GX	 13-463
CP12MG	= ******  GX	 13-469
CP12SZ	= ******  GX	 13-469
CP13MG	= ******  GX	 14-480
CP13SZ	= ******  GX	 14-480
CP14MG	= ******  GX	 13-473
CP14SZ	= ******  GX	 13-473
CP15MG	= ******  GX	 9-188
CP15SZ	= ******  GX	 9-188
PIPCPY     CREATED BY  MACRO  ON 27-FEB-85 AT 12:25	PAGE 2

SYMBOL CROSS REFERENCE                                  CREF

SYMBOL	VALUE		REFERENCES

CS.MOR	= 000020	 8-115
CS.NMF	= 000001	 8-105      8-108      9-129      9-136      9-148
CS.WLD	= 000010	 8-115
CWLDUI	= ******  GX	 8-91       8-91
DI06MG	= ******  GX	 13-443
DI06SZ	= ******  GX	 13-443
DY01MG	= ******  GX	 12-368
DY01SZ	= ******  GX	 12-368
EXTSIZ	  001146 R	#10-257
FA.NSP	= 000100	 11-324
FDBIN 	= ******  GX	*8-80      *8-83       8-120      9-159      9-167      9-168      9-170      9-173      9-178
                         9-186      9-197      9-197      9-199      9-201      9-205      9-225      11-339     11-340
                         11-343     11-343     12-367     12-370     12-370     12-410     12-410     12-410     12-413
                         12-422     12-423    *14-483     14-504     15-525     15-526     15-527     15-545     15-557
                         15-558     15-559
FDBOUT	= ******  GX	*8-75      *8-84       8-85       9-158      9-168      9-170      9-174      9-193      9-199
                         9-207      11-293     12-374     12-414    *12-422    *12-423     14-488     14-490    *14-502
                         15-549    *15-557    *15-558    *15-559
FD.DIR	= 000010	 8-112      9-133
FD.PLC	= 000004	 9-147
FD.REC	= 000001	 9-205      9-207      12-375
FD.RWM	= 000001	 9-226      9-227      12-353     12-415
FD.SQD	= 000040	 9-205      9-207      10-233     10-248     12-375
FNDERR	= ******  GX	 9-144      9-144      14-517     14-517
FNDNXT	= ******  GX	 9-140      9-140
FO.APD	= 000106	 11-345
FO.RD 	= 000001	 10-240
FO.UPD	= 000006	 11-337
FO.WRT	= 000016	 8-86       11-324     11-327
FRSTIM	= ******  GX	 9-128      14-507
F.BBFS	= 000062	 9-199      9-199      9-201
F.BDB 	= 000070	 9-193      11-294     14-488
F.CNTG	= 000034	*11-314
F.DFNB	= 000046	*8-75      *8-80
F.DSPT	= 000044	*8-83      *8-84       9-158      9-159
F.DVNM	= 000134	 9-168      9-168      11-298     12-405
F.EFBK	= 000010	 10-268     12-379     12-381     15-525     15-526     15-557    *15-557     15-558    *15-558
F.ERR 	= 000052	 12-400     13-430     13-432     13-458     14-476     14-515    *15-576    *15-580    *15-585
                         15-586     15-589    *15-593
F.FACC	= 000043	*8-86      *10-240    *11-328    *11-337    *11-345
F.FFBY	= 000014	 10-269     12-382     15-527     15-559    *15-559
F.FNAM	= 000110	 9-151
F.FNB 	= 000102	 9-173      9-174      9-178      9-186     *14-483     14-490    *14-495    *14-502
F.FVER	= 000120	 9-127     *9-139      9-167
F.HIBK	= 000004	 10-250     12-377     12-378
F.LUN 	= 000042	 15-575
F.NRBD	= 000024	*12-408    *12-408     12-422    *12-422     12-423    *12-423
F.OVBS	= 000030	*9-197     *11-300
F.RACC	= 000016	*10-240    *11-301     12-353     12-415
F.RATT	= 000001	 11-297    *11-297     11-343    *11-343    *12-407     12-410    *12-410
F.RCTL	= 000017	 8-112      9-133      9-205      9-207      10-233     10-248     12-375
F.RSIZ	= 000002	 11-297    *11-297     11-339    *11-343     12-410    *12-410
PIPCPY     CREATED BY  MACRO  ON 27-FEB-85 AT 12:25	PAGE 3

SYMBOL CROSS REFERENCE                                  CREF

SYMBOL	VALUE		REFERENCES

F.RTYP	= 000000	 11-297    *11-297     11-340     11-343    *11-343    *12-407     12-410    *12-410
F.STBK	= 000036	*10-235
F.UNIT	= 000136	 9-170      9-170
F.URBD	= 000020	*12-355    *12-355    *12-370    *12-370
HA.UI 	= ******  GX	 14-498
IE.ABO	= 177761	 15-593
IE.DFU	= 177750	 13-430     13-458
IE.DUP	= 177707	 13-432
IE.EOF	= 177766	 14-476
IE.NOD	= 177751	 15-589
IE.NSF	= 177746	 14-515
IE.STK	= 177706	 12-400
IE.UPN	= ******  GX	 15-586
IFNPT 	= ******  GX	 8-83
INRACC	= ******  GX	*9-147     *9-226      10-240
INSPEC	= ******  GX	 8-71       8-115      9-129
IOSTBK	= ******  GX	 7-57       15-580     15-582
IO.RVB	= ******  GX	 15-544
IO.WVB	= ******  GX	 15-548
ISOPEN	  001532 R	 11-295     11-346    #12-353
LPHDMG	= 000000 R	#7-53       7-53       12-408
LPHDSZ	= 000001	#7-53       12-408
MERGBT	= ******  GX	 8-70       8-110      8-119      9-138      9-195      13-437     14-486
MSGBL.	= ******	 7-53
NAMBLK	= ******  GX	 8-75      *9-167     *9-190
NB.SDI	= ******  GX	 9-156
NB.SFL	= ******  GX	 9-178      14-483
NB.SFN	= ******  GX	 8-94       8-97       8-98       8-107      9-135
NB.SNM	= 000040	 8-100
NB.STP	= 000020	 8-100
NB.SVR	= 000010	 9-186
NB.VER	= 000001	 8-102
NMBLK1	= ******  GX	 8-79
NTCNTG	= ******  GX	 10-263
NVERBT	= ******  GX	 9-165
NXTFIL	= ******  GX	 14-505     14-505
NXTIN 	= ******  GX	 14-509     14-509
N.DEVD	= 000000	#7-42
N.DID 	= 000024	 9-173      9-174
N.DIRD	= 000004	#7-42       9-160     *9-160      9-161     *9-161
N.FID 	= 000000	 14-490    *14-495    *14-502
N.FLID	= 000016	#7-42       9-131
N.FNMD	= 000010	#7-42      *8-106
N.FVER	= 000016	*9-167     *9-190
N.SPEC	= 000014	#7-42
N.STAT	= 000020	 8-94       8-96       8-102     *8-107     *9-135      9-156      9-178      9-186     *14-483
OFNPT 	= ******  GX	 8-84      *8-106
OPENAU	  001426 R	 11-309    #11-334
OPNCHK	  001524 R	 11-329     11-338    #11-346
OP01MG	= ******  GX	 14-519
OP01SZ	= ******  GX	 14-519
OP02MG	= ******  GX	 13-434
PIPCPY     CREATED BY  MACRO  ON 27-FEB-85 AT 12:25	PAGE 4

SYMBOL CROSS REFERENCE                                  CREF

SYMBOL	VALUE		REFERENCES

OP02SZ	= ******  GX	 13-434
OP08MG	= ******  GX	 13-436
OP08SZ	= ******  GX	 13-436
OURACC	= ******  GX	*9-146     *9-227      11-301
OUSPEC	= ******  GX	*8-105      8-108      9-136      9-148
OUTOPN	  001246 R	#11-291
OWUIC 	= ******  GX	 9-156
PARSE 	= ******  GX	 8-87       8-87       9-123      9-123
PAR$$$	= 000002	#9-197      9-197     #10-240     10-240    #11-297     11-297    #11-300     11-300    #11-301
                         11-301    #11-314     11-314    #11-328     11-328    #11-337     11-337    #11-343     11-343
                        #11-345     11-345    #12-355     12-355    #12-370     12-370    #12-407     12-407    #12-408
                         12-408    #12-410     12-410    #12-420     12-420    #12-424     12-424
PRSERR	= ******  GX	 8-89       8-89       9-125      9-125      11-305     11-305
PRSREG	= ******  GX	 11-302     11-302
QIODPB	  000000 R	#7-57      *15-524    *15-531    *15-532    *15-543    *15-544    *15-548    *15-554    *15-555
                        *15-575     15-577     15-582
Q.IOAE	= 000012	#7-57
Q.IOEF	= 000006	#7-57
Q.IOFN	= 000002	#7-57      *15-544    *15-548
Q.IOLU	= 000004	#7-57      *15-575
Q.IOPL	= 000014	#7-57       7-58       7-59       7-60
Q.IOPR	= 000007	#7-57
Q.IOSB	= 000010	#7-57
Q.XFAD	= 000014	#7-58      *15-524
Q.XFSZ	= 000016	#7-59      *15-543     15-582
Q.XFVB	= 000022	#7-60      *15-531    *15-532    *15-554    *15-555
RECATT	= ******  GX	 12-403     12-403
RONLY$	= ******	 7-53       7-53       8-62       8-62
RWEFN 	= ******  GX	 7-57       15-579
RWGO  	  002750 R	 15-546     15-546     15-550     15-550    #15-575
R$$DPB	= 000001	#1-27       11-313
R$$DYM	= 000001	#1-29
R$$EIS	= 000000	#1-28       1-38
R$$MSG	= 000000	 7-53       7-53
R$$11M	= 000001	#1-25       1-26       7-1        7-24
R.FIX 	= 000001	 11-340
R.VAR 	= 000002	 12-407
SPSDBT	= ******  GX	 11-325
STBLK 	= ******  GX	 10-232
STNBK1	= ******  GX	 8-82       8-82
STNMBK	= ******  GX	 8-78       8-78       9-153      9-153
SYS40$	= ******	 1-67       7-53       7-53       7-55       7-55       8-62       8-62
S.APPD	= 000010	#7-42
S.FIDS	= 000014	#7-42
UPDTBT	= ******  GX	 8-68       11-308
VERSAV	= ******  GX	*9-127      9-139
WRTATT	= ******  GX	 14-500     14-500
X     	= 000026	#8-73       8-73      #8-93       8-93      #8-104      8-104     #8-104      8-104     #8-114
                         8-114     #8-114      8-114     #9-181      9-181     #9-188      9-188     #12-368     12-368
                        #12-368     12-368    #13-434     13-434    #13-434     13-434    #13-434     13-434    #13-436
                         13-436    #13-436     13-436    #13-443     13-443    #13-443     13-443    #13-443     13-443
                        #13-463     13-463    #13-463     13-463    #13-467     13-467    #13-467     13-467    #13-469
PIPCPY     CREATED BY  MACRO  ON 27-FEB-85 AT 12:25	PAGE 5

SYMBOL CROSS REFERENCE                                  CREF

SYMBOL	VALUE		REFERENCES

                         13-469    #13-469     13-469    #13-469     13-469    #13-473     13-473    #13-473     13-473
                        #13-473     13-473    #14-480     14-480    #14-480     14-480    #14-480     14-480    #14-519
                         14-519    #14-519     14-519    #14-519     14-519
$DSW  	= ******  GX	 15-585
$$    	= 000067	#8-78       8-78      #8-82       8-82      #8-87       8-87      #8-89       8-89      #8-91
                         8-91      #9-123      9-123     #9-125      9-125     #9-140      9-140     #9-144      9-144
                        #9-153      9-153     #9-219      9-219     #11-302     11-302    #11-303     11-303    #11-305
                         11-305    #11-307     11-307    #12-369     12-369    #12-394     12-394    #12-403     12-403
                        #14-484     14-484    #14-485     14-485    #14-491     14-491    #14-500     14-500    #14-505
                         14-505    #14-509     14-509    #14-517     14-517    #15-546     15-546    #15-550     15-550
$$$ARG	= 000013	#7-57       7-57      #7-57       7-57      #7-57       7-57      #7-57       7-57      #7-57
                         7-57      #7-57       7-57
$$$GLB	= ******	 7-57       7-57       7-57       7-57       7-57       7-57       7-57       7-57
$$$OST	= 000014	#7-57       7-57       7-57      #7-57       7-57       7-57      #7-57       7-57       7-57
                        #7-57       7-57       7-57      #7-57       7-57       7-57      #7-57       7-57       7-57
                        #7-57       7-57
.DYALC	= ******  GX	 12-369     12-369
.DYBLK	= ******  GX	 15-533
.DYBUF	= ******  GX	*9-222      12-370     15-524
.DYBYT	= ******  GX	 9-212     *9-220      12-370
.DYREL	= ******  GX	 9-219      9-219      14-485     14-485
.DYSIZ	= ******  GX	 9-212      9-220
.EXTND	= ******  GX	 12-394     12-394
.EXTSZ	= ******  GX	*10-285     11-314     12-388     13-449
.FOWNR	= ******  GX	 14-493     14-497
.FSRPT	= ******  GX	 9-221      12-357
.GETSQ	= ******  G	 12-420     12-420
.GFOWN	= ******  GX	 11-307     11-307
.LCLSW	= ******  GX	*8-66
.OPFNB	= ******  G	 10-240     10-240     11-328     11-328     11-337     11-337     11-345     11-345
.OULCL	= ******  GX	 8-66
.PARSE	= ******  GX	 11-303     11-303
.PUTSQ	= ******  G	 12-408     12-408     12-424     12-424
PIPCPY     CREATED BY  MACRO  ON 27-FEB-85 AT 12:25	PAGE 6

MACRO CROSS REFERENCE                                   CREF

MACRO NAME	REFERENCES

ASH   		#1-64
ASHC  		#1-64
CALL  		#7-48      #8-78      #8-82      #8-87      #8-89      #8-91      #9-123     #9-125     #9-140     #9-144
                #9-153     #9-219     #10-240    #11-302    #11-303    #11-305    #11-307    #11-328    #11-337    #11-345
                #12-369    #12-394    #12-403    #12-408    #12-420    #12-424    #14-484    #14-485    #14-491    #14-500
                #14-505    #14-509    #14-517    #15-546    #15-550
CMOV$B		#9-197     #9-197     #9-197     #9-197     #10-240    #10-240    #10-240    #10-240    #10-240    #10-240
                #11-297    #11-297    #11-297    #11-300    #11-300    #11-300    #11-300    #11-301    #11-301    #11-314
                #11-314    #11-314    #11-328    #11-328    #11-328    #11-328    #11-328    #11-328    #11-337    #11-337
                #11-337    #11-337    #11-337    #11-337    #11-343    #11-343    #11-343    #11-345    #11-345    #11-345
                #11-345    #11-345    #11-345    #12-355    #12-355    #12-370    #12-370    #12-407    #12-407    #12-407
                #12-410    #12-410    #12-410
CMOV$W		#9-197      9-197     #10-240     10-240     10-240    #10-240     10-240     10-240    #11-297     11-297
                 11-297     11-297    #11-300     11-300    #11-301     11-301     11-301    #11-314     11-314     11-314
                 11-314    #11-328     11-328     11-328    #11-328     11-328     11-328    #11-337     11-337     11-337
                #11-337     11-337     11-337    #11-343     11-343     11-343     11-343    #11-345     11-345     11-345
                #11-345     11-345     11-345    #12-355     12-355     12-355    #12-370     12-370     12-370    #12-407
                 12-407     12-407     12-407    #12-408     12-408     12-408    #12-410     12-410     12-410     12-410
                #12-420     12-420     12-420    #12-424     12-424     12-424
CSI$  		#7-43       7-44
DIR$  		#7-51      #15-577    #15-579    #15-579    #15-591    #15-591
DIV   		#1-64
ERRINI		#4-307
ERROUT		#3-215      9-181      9-188      13-434     13-436     13-443     13-463     13-467     13-469     13-473
                 14-480     14-519
ERROUX		#3-222      8-73       8-93       8-104      8-114      12-368
ERROU1		#3-225     #8-73      #8-93      #8-104     #8-114     #9-181     #9-188     #12-368    #13-434    #13-436
                #13-443    #13-463    #13-467    #13-469    #13-473    #14-480    #14-519
ERRP  		#3-247
ERRPX 		#3-253
ERRP1 		#3-256
ERR$  		#10-240     10-240    #11-328     11-328    #11-337     11-337    #11-345     11-345    #12-408     12-408
                #12-420     12-420    #12-424     12-424    #15-577    #15-579    #15-591
ERR1  		#3-273     #8-73      #8-93      #8-104     #8-114     #9-181     #9-188     #12-368    #13-434    #13-436
                #13-443    #13-463    #13-467    #13-469    #13-473    #14-480    #14-519
FCSBT$		#7-43       7-46
FDAT$R		#7-49       11-297     11-314     11-343     12-407     12-410
FDBF$R		#7-49      #9-197     #11-300
FDOFF$		#7-45       7-45
FDOF$L		#7-43      #7-45
FDOP$R		#10-240    #10-240    #11-328    #11-328    #11-337    #11-337    #11-345    #11-345
FDRC$R		#7-49      #10-240    #10-240    #11-301    #11-328    #11-328    #11-337    #11-337    #11-345    #11-345
                #12-355    #12-370
FLDSOF		#5-382     #7-42      #7-42
GET$  		#7-30      #7-51       12-420
GET$S 		#12-420    #12-420
IDENT 		#5-339     #7-1
IDENT1		#5-347      7-1
IDTITL		#5-356
ILLOP 		#1-52      #1-64       1-64
IMPURE		#1-75      #7-55
IOERR$		#7-43       7-47
PIPCPY     CREATED BY  MACRO  ON 27-FEB-85 AT 12:25	PAGE 7

MACRO CROSS REFERENCE                                   CREF

MACRO NAME	REFERENCES

LDFDB$		#9-197      9-197     #10-240     10-240    #10-240     10-240    #11-297     11-297    #11-300     11-300
                #11-301     11-301    #11-314     11-314    #11-328     11-328    #11-328     11-328    #11-337     11-337
                #11-337     11-337    #11-343     11-343    #11-345     11-345    #11-345     11-345    #12-355     12-355
                #12-370     12-370    #12-407     12-407    #12-408     12-408    #12-410     12-410    #12-420     12-420
                #12-424     12-424
MARK  		#1-64
MOV$  		#15-579     15-579
MSG   		#2-124
MSGZ  		#2-129
MSG1  		#2-133     #7-53
MUL   		#1-64
NOEIS$		#1-39       1-64
OFF$  		#7-57      #7-57      #7-57      #7-57      #7-57      #7-57      #7-57      #7-57      #7-57
OFNB$ 		#10-240    #10-240    #11-328    #11-328    #11-337    #11-337    #11-345    #11-345
OPEN$ 		#7-25      #7-50      #10-240    #10-240    #11-328    #11-337    #11-337    #11-345    #11-345
OPEN$A		#7-50       11-345
OPEN$R		#7-50       10-240
OPEN$U		#7-50      #11-337
PURE. 		#1-84       7-53       8-62
PURE.D		#1-102
PURE.I		#1-98       8-62
PUT$  		#7-35      #7-51       12-408     12-424
PUT$S 		#12-408    #12-408    #12-424    #12-424
QDPB$ 		#7-57      #7-57
QIO$  		#7-51       7-57
RETURN		#7-48       15-584     15-595
RTT   		#1-64
SOB   		#1-64      #9-177
SXT   		#1-64
WSIG$S		#7-51       15-591
WTSE$S		#7-51       15-579
XOR   		#1-64
PIPDEF M0004, SET DEFAULT COMMA	MACRO M1113  27-FEB-85 12:25
TABLE OF CONTENTS

     7-    1	**** PIPDEF VERSION M0004 ****
PIPMAC - MACROS FOR PIP, ETC.	MACRO M1113  27-FEB-85 12:25  PAGE 6


    397
PIPDEF M0004, SET DEFAULT COMMA	MACRO M1113  27-FEB-85 12:25  PAGE 7


      1						.TITLE	PIPDEF M0004, SET DEFAULT COMMAND-PIP
						.SBTTL	**** PIPDEF VERSION M0004 ****
						.IDENT	/M0004/
      2					;
      3					; COPYRIGHT   1974,  1985,  DIGITAL  EQUIPMENT  CORP.,  MAYNARD,   MASS.
      4					;
      5					;			ALL RIGHTS RESERVED
      6					;
      7					; THIS SOFTWARE IS FURNISHED TO PURCHASER UNDER A LICENSE FOR USE
      8					; ON A  SINGLE COMPUTER SYSTEM AND CAN BE  COPIED (WITH INCLUSION
      9					; OF DEC'S COPYRIGHT  NOTICE) ONLY FOR USE IN SUCH SYSTEM, EXCEPT
     10					; AS MAY OTHERWISE BE PROVIDED IN WRITING BY DEC.
     11					;
     12					; THE  INFORMATION  IN THIS DOCUMENT IS SUBJECT TO CHANGE WITHOUT
     13					; NOTICE  AND  SHOULD NOT BE CONSTRUED AS A COMMITMENT BY DIGITAL
     14					; EQUIPMENT CORPORATION.
     15					;
     16					; DEC  ASSUMES NO  RESPONSIBILITY  FOR  THE  USE  OR  RELIABILITY
     17					; OF  ITS  SOFTWARE ON  EQUIPMENT WHICH  IS  NOT SUPPLIED BY DEC.
     18					;
     19					; PETER H. LIPMAN	14-MAY-74
     20					;
     21	000000					FLDSOF
     22						.MCALL	CSI$,FDOF$L,CALL,RETURN
     23	000000					CSI$			;DEFINE CSI OFSETS
     24	000000					FDOF$L			;DEFINE FDB OFFSETS LOCALLY
     25					;
     26					; SET DEFAULT DEVICE OR DIRECTORY
     27					;
     28	000000				.SETDF::
     29	000000	005767 	000000G			TST	INSPEC		;NO INPUT SPECIFIER ALLOWED
     30	000004	001014 				BNE	10$		;BRANCH IF BAD SYNTAX
     31	000006	032767 	000031 	000000G		BIT	#CS.NMF!CS.MOR!CS.WLD,OUSPEC ;ONLY DEV OR UIC ALLOWED
     32	000014	001010 				BNE	10$		;BRANCH IF BAD SYNTAX
     33	000016	032767 	000006 	000000G		BIT	#CS.DVF!CS.DIF,OUSPEC ;EXPLICIT DEV OR DIR?
     34	000024	001007 				BNE	20$		;BRANCH IF YES, OK SYNTAX
     35	000026	032767 	000000G	000000G		BIT	#MFDBIT,CPYCTL	;SET UIC TO THE MFD?
     36	000034	001003 				BNE	20$		;YES, SYNTAX IS OK
     37	000036				10$:	ERROUX	DF01		;BAD SYNTAX FOR /DFAULT SWITCH
	000036	104403 				TRAP	X
	000040	000000G				.WORD	DF01SZ
	000042	000000G				.WORD	DF01MG
     38	000044	032767 	000004 	000000G	20$:	BIT	#CS.DVF,OUSPEC	;IS USER CHANGING THE DEFAULT DEVICE?
     39	000052	001402 				BEQ	30$		;BRANCH IF NO
     40	000054					CALL	SETDEV		;YES, GO SET THE NEW DEFAULT
     41	000060	032767 	000002 	000000G	30$:	BIT	#CS.DIF,OUSPEC	;IS HE CHANGING THE DEFAULT DIRECTORY?
     42	000066	001004 				BNE	40$		;BRANCH IF YES
     43	000070	032767 	000000G	000000G		BIT	#MFDBIT,CPYCTL
     44	000076	001402 				BEQ	50$		;BRANCH IF NO SETTING DEFAULT UIC
     45	000100				40$:	CALL	SETUIC		;CHANGE THE DEFAULT UIC
     46	000104	000167 	000000G		50$:	JMP	CLOSX
PIPDEF M0004, SET DEFAULT COMMA	MACRO M1113  27-FEB-85 12:25  PAGE 8
**** PIPDEF VERSION M0004 ****

     48					;
     49					; SET DEFAULT DEVICE AND UNIT
     50					;
     51	000110	012700 	000000G		SETDEV:	MOV	#FDBOUT,R0
     52	000114	012701 	000000G			MOV	#NMBLK1,R1
     53	000120	012702 	000000G			MOV	#OFNPT,R2
     54	000124	005003 				CLR	R3
     55	000126					CALL	.PRSDV		;PARSE THE DEVICE NAME
     56	000132	103407 				BCS	20$
     57	000134	016167 	000032 	000000G		MOV	N.DVNM(R1),.DEFDV
     58	000142	016167 	000034 	000000G		MOV	N.UNIT(R1),.DEFUN
     59	000150					RETURN
     60	000152				20$:	CALL	PRSERR
     61	000156					RETURN
     62
     63					;
     64					; SET DEFAULT UIC
     65					;
     66	000160	032767 	000002 	000000G	SETUIC:	BIT	#CS.DIF,OUSPEC	;EXPLICIT DIRECTORY SPECIFIED?
     67	000166	001006 				BNE	10$		;BRANCH IF IT IS
     68	000170	032767 	000000G	000000G		BIT	#MFDBIT,CPYCTL	;BETTER BE MFD SWITCH
     69	000176	001424 				BEQ	50$		;BRANCH IF NOT, ERROR
     70	000200	005001 				CLR	R1
     71	000202	000415 				BR	40$		;SET NULL DEFAULT DIRECTORY - GETS MFD
     72	000204	016702 	000004G		10$:	MOV	OFNPT+N.DIRD,R2	;R2=SIZE OF DIRECTORY STRING
     73	000210	016703 	000006G			MOV	OFNPT+N.DIRD+2,R3 ;R3=ADDR OF DIRECTORY STRING
     74	000214	022702 	000000G			CMP	#DFDRSZ,R2	;IS STRING LONGER THAN SPACE ALLOCATED?
     75	000220	002413 				BLT	50$		;BRANCH IF YES
     76	000222	012701 	000000G			MOV	#DEFDIR,R1
     77	000226					CALL	MVSTRG		;MOVE STRING TO DEFAULT DIRECTORY AREA
     78	000232	016701 	000004G			MOV	OFNPT+N.DIRD,R1	;R1=SIZE
     79	000236	012702 	000000G		40$:	MOV	#DEFDIR,R2	;R2=ADR OF DEF DIR STRING
     80	000242					CALL	.WDFDR		;CALL FCS TO SET THE DEFAULT
     81	000246					RETURN
     82	000250				50$:	ERROUX	UI01		;SYNTAX ERROR
	000250	104403 				TRAP	X
	000252	000000G				.WORD	UI01SZ
	000254	000000G				.WORD	UI01MG
     83
     84					;
     85					;
     86		000001 				.END
PIPDEF M0004, SET DEFAULT COMMA	MACRO M1113  27-FEB-85 12:25  PAGE 8-1
SYMBOL TABLE

CLOSX = ****** GX	DF01SZ= ****** GX	F.FNB = 000102   	MFDBIT= ****** GX	R$$11M= 000001
CPYCTL= ****** GX	FDBOUT= ****** GX	F.FTYP= 000116   	MVSTRG= ****** GX	SETDEV  000110R
CS.DIF= 000002   	F.ALOC= 000040   	F.FVER= 000120   	NMBLK1= ****** GX	SETUIC  000160R
CS.DVF= 000004   	F.BBFS= 000062   	F.HIBK= 000004   	N.DEVD= 000000   	S.APPD= 000010
CS.EQU= 000040   	F.BDB = 000070   	F.LUN = 000042   	N.DID = 000024   	S.FATT= 000016
CS.INP= 000001   	F.BGBC= 000057   	F.MBCT= 000054   	N.DIRD= 000004   	S.FDB = 000140
CS.MOR= 000020   	F.BKDN= 000026   	F.MBC1= 000055   	N.DVNM= 000032   	S.FIDS= 000014
CS.NMF= 000001   	F.BKDS= 000020   	F.MBFG= 000056   	N.FID = 000000   	S.FNAM= 000006
CS.OUT= 000002   	F.BKEF= 000050   	F.NRBD= 000024   	N.FLID= 000016   	S.FNB = 000036
CS.WLD= 000010   	F.BKP1= 000051   	F.NREC= 000030   	N.FNAM= 000006   	S.FNBW= 000017
C.CMLD= 000002   	F.BKST= 000024   	F.OVBS= 000030   	N.FNMD= 000010   	S.FNTY= 000004
C.DEVD= 000006   	F.BKVB= 000064   	F.RACC= 000016   	N.FTYP= 000014   	S.FTYP= 000002
C.DIRD= 000012   	F.CNTG= 000034   	F.RATT= 000001   	N.FVER= 000016   	S.NFEN= 000020
C.DSDS= 000006   	F.DFNB= 000046   	F.RCNM= 000034   	N.NEXT= 000022   	UI01MG= ****** GX
C.FILD= 000016   	F.DSPT= 000044   	F.RCTL= 000017   	N.SPEC= 000014   	UI01SZ= ****** GX
C.MKW1= 000024   	F.DVNM= 000134   	F.RSIZ= 000002   	N.STAT= 000020   	X     = 000003
C.MKW2= 000026   	F.EFBK= 000010   	F.RTYP= 000000   	N.UNIT= 000034   	$$    = 000067
C.SIZE= 000054   	F.EFN = 000050   	F.STBK= 000036   	OFNPT = ****** GX	.DEFDV= ****** GX
C.STAT= 000001   	F.EOBB= 000032   	F.UNIT= 000136   	OUSPEC= ****** GX	.DEFUN= ****** GX
C.SWAD= 000022   	F.ERR = 000052   	F.URBD= 000020   	PRSERR= ****** GX	.PRSDV= ****** GX
C.TYPR= 000000   	F.FACC= 000043   	F.VBN = 000064   	R$$DPB= 000001   	.SETDF  000000RG
DEFDIR= ****** GX	F.FFBY= 000014   	F.VBSZ= 000060   	R$$DYM= 000001   	.WDFDR= ****** GX
DFDRSZ= ****** GX	F.FNAM= 000110   	INSPEC= ****** GX	R$$EIS= 000000   	...TPC= 000140
DF01MG= ****** GX

. ABS.	000000	   000
      	000256	   001
ERRORS DETECTED:  0

VIRTUAL MEMORY USED:  3624 WORDS  ( 15 PAGES)
DYNAMIC MEMORY:  4622 WORDS  ( 17 PAGES)
ELAPSED TIME:  00:00:20
[43,10]PIPDEF,[43,20]PIPDEF/-SP/CR=[43,30]PIPMAC,PIPDEF
PIPDEF     CREATED BY  MACRO  ON 27-FEB-85 AT 12:26	PAGE 1

SYMBOL CROSS REFERENCE                                  CREF

SYMBOL	VALUE		REFERENCES

CLOSX 	= ******  GX	 7-46
CPYCTL	= ******  GX	 7-35       7-43       8-68
CS.DIF	= 000002	 7-33       7-41       8-66
CS.DVF	= 000004	 7-33       7-38
CS.MOR	= 000020	 7-31
CS.NMF	= 000001	 7-31
CS.WLD	= 000010	 7-31
DEFDIR	= ******  GX	 8-76       8-79
DFDRSZ	= ******  GX	 8-74
DF01MG	= ******  GX	 7-37
DF01SZ	= ******  GX	 7-37
FDBOUT	= ******  GX	 8-51
INSPEC	= ******  GX	 7-29
MFDBIT	= ******  GX	 7-35       7-43       8-68
MVSTRG	= ******  GX	 8-77       8-77
NMBLK1	= ******  GX	 8-52
N.DEVD	= 000000	#7-21
N.DIRD	= 000004	#7-21       8-72       8-73       8-78
N.DVNM	= 000032	 8-57
N.FLID	= 000016	#7-21
N.FNMD	= 000010	#7-21
N.SPEC	= 000014	#7-21
N.UNIT	= 000034	 8-58
OFNPT 	= ******  GX	 8-53       8-72       8-73       8-78
OUSPEC	= ******  GX	 7-31       7-33       7-38       7-41       8-66
PRSERR	= ******  GX	 8-60       8-60
R$$DPB	= 000001	#1-27
R$$DYM	= 000001	#1-29
R$$EIS	= 000000	#1-28       1-38
R$$11M	= 000001	#1-25       1-26       7-1
SETDEV	  000110 R	 7-40       7-40      #8-51
SETUIC	  000160 R	 7-45       7-45      #8-66
SYS40$	= ******	 1-67
S.APPD	= 000010	#7-21
S.FIDS	= 000014	#7-21
UI01MG	= ******  GX	 8-82
UI01SZ	= ******  GX	 8-82
X     	= 000003	#7-37       7-37      #8-82       8-82
$$    	= 000067	#7-40       7-40      #7-45       7-45      #8-55       8-55      #8-60       8-60      #8-77
                         8-77      #8-80       8-80
.DEFDV	= ******  GX	*8-57
.DEFUN	= ******  GX	*8-58
.PRSDV	= ******  GX	 8-55       8-55
.SETDF	  000000 RG	#7-28
.WDFDR	= ******  GX	 8-80       8-80
PIPDEF     CREATED BY  MACRO  ON 27-FEB-85 AT 12:26	PAGE 2

MACRO CROSS REFERENCE                                   CREF

MACRO NAME	REFERENCES

ASH   		#1-64
ASHC  		#1-64
CALL  		#7-22      #7-40      #7-45      #8-55      #8-60      #8-77      #8-80
CSI$  		#7-22       7-23
DIV   		#1-64
ERRINI		#4-307
ERROUT		#3-215
ERROUX		#3-222      7-37       8-82
ERROU1		#3-225     #7-37      #8-82
ERRP  		#3-247
ERRPX 		#3-253
ERRP1 		#3-256
ERR1  		#3-273     #7-37      #8-82
FDOFF$		#7-24       7-24
FDOF$L		#7-22       7-24
FLDSOF		#5-382     #7-21      #7-21
IDENT 		#5-339     #7-1
IDENT1		#5-347      7-1
IDTITL		#5-356
ILLOP 		#1-52      #1-64       1-64
IMPURE		#1-75
MARK  		#1-64
MSG   		#2-124
MSGZ  		#2-129
MSG1  		#2-133
MUL   		#1-64
NOEIS$		#1-39       1-64
PURE. 		#1-84
PURE.D		#1-102
PURE.I		#1-98
RETURN		#7-22      #8-59      #8-61      #8-81
RTT   		#1-64
SOB   		#1-64
SXT   		#1-64
XOR   		#1-64
PIPDEL M0211, DELETE & REMOVE C	MACRO M1113  27-FEB-85 12:26
TABLE OF CONTENTS

     7-    1	**** PIPDEL VERSION M0211 ****
PIPMAC - MACROS FOR PIP, ETC.	MACRO M1113  27-FEB-85 12:26  PAGE 6


    397
PIPDEL M0211, DELETE & REMOVE C	MACRO M1113  27-FEB-85 12:26  PAGE 7


      1						.TITLE	PIPDEL M0211, DELETE & REMOVE COMMANDS-PIP
						.SBTTL	**** PIPDEL VERSION M0211 ****
						.IDENT	/M0211/
      2					; ALTERED:
      3					; ANDREW C. GOLDSTEIN  28 JAN 1975  14:00
      4					;
      5					; COPYRIGHT 1975, 1985, DIGITAL EQUIPMENT CORP., MAYNARD MASS.
      6					; COPYRIGHT 1974, DIGITAL EQUIPMENT CORP., MAYNARD MASS.
      7
      8					;			ALL RIGHTS RESERVED
      9					;
     10					; THIS SOFTWARE IS FURNISHED TO PURCHASER UNDER A LICENSE FOR USE
     11					; ON A SINGLE COMPUTER SYSTEM AND CAN BE COPIED (WITH INCLUSION
     12					; OF DEC'S COPYRIGHT NOTICE) ONLY FOR USE IN SUCH SYSTEM, EXCEPT
     13					; AS MAY OTHERWISE BE PROVIDED IN WRITING BY DEC.
     14
     15					; THE INFORMATION IN THIS DOCUMENT IS SUBJECT TO CHANGE WITHOUT
     16					; NOTICE AND SHOULD NOT BE CONSTRUED AS A COMMITMENT BY DIGITAL
     17					; EQUIPMENT CORPORATION.
     18
     19					; DEC ASSUMES NO RESPONSIBILITY FOR THE USE OR RELIABILITY
     20					; OF ITS SOFTWARE ON EQUIPMENT WHICH IS NOT SUPPLIED BY DEC.
     21					;
     22					; PETER H. LIPMAN	2-MAY-74
     23
     24	000000					FLDSOF
     25						.MCALL	CALL,RETURN,DELET$
     26
     27
     28	000000					PURE.I
     29
     30					; DELETE THE SPECIFIED FILES
     31
     32	000000				REMOVE::
     33	000000				DELETE::CALL	FSTOUT
     34	000004	012700 	000000G		DELET1:	MOV	#FDBOUT,R0
     35	000010					CALL	PARSE
     36	000014	103010 				BCC	10$
     37	000016					CALL	PRSERR		;FAILED TO PARSE FILE NAME
     38					;
     39					; PRIVILEGE VIOLATION FROM PARSE PROBABLY MEANS DEVICE NOT MOUNTED
     40					;
     41	000022	122767 	000000G	000000C		CMPB	#IE.PRI,FDBOUT+F.ERR
     42	000030	001150 				BNE	DELNXT
     43	000032	000167 	000000G			JMP	CLOSX		;EXIT FROM DELETE LOOP IF NOT MOUNTED
     44	000036	132760 	000000G	000000G	10$:	BITB	#FD.DIR,F.RCTL(R0) ;MUST BE A DIRECTORY DEVICE
     45	000044	001003 				BNE	15$		;BRANCH IF IT IS
     46	000046					ERROUX	DI08,1		;ERROR
	000046	104413 				TRAP	X
	000050	000000G				.WORD	DI08SZ
	000052	000000G				.WORD	DI08MG
     47	000054	052767 	000000G	000000G	15$:	BIS	#FRSTIM,CPYCTL
     48	000062	032767 	000000G	000000G		BIT	#RMVBIT,CMDWRD	;SKIP EXPLICIT FILE ID CHECK IF REMOVE
     49	000070	001007 				BNE	18$
     50	000072					CALL	USEFID
     51	000076	103404 				BCS	18$		;BRANCH IF NO EXPLICIT FILE ID
     52	000100	042761 	000000G	000000G		BIC	#NB.SFL,N.STAT(R1) ;EXPLICIT FILE ID WAS INPUT
PIPDEL M0211, DELETE & REMOVE C	MACRO M1113  27-FEB-85 12:26  PAGE 7-1
**** PIPDEL VERSION M0211 ****

     53	000106	000431 				BR	22$		;JUST DO THE MARK FOR DELETE
     54	000110	032767 	000000G	000000G	18$:	BIT	#PURGBT,CMDWRD	;PURGE MODE FOR THIS FILE?
     55	000116	001127 				BNE	DELPUR		;BRANCH IF YES
     56	000120					CALL	WLDVER		;DISALLOW WILD CARDS WITH DEFAULT VER
     57	000124	103512 				BCS	DELNXT
     58	000126	032761 	000000C	000000G		BIT	#NB.SVR!NB.VER,N.STAT(R1) ;VERSION MUST BE EXPLICIT
     59	000134	001004 				BNE	20$
     60	000136					ERROUT	DE04,1		;VERSION NO. NOT EXPLICIT OR WILD CARD
	000136	104412 				TRAP	X
	000140	000000G				.WORD	DE04SZ
	000142	000000G				.WORD	DE04MG
     61	000144	000502 				BR	DELNXT
     62	000146				20$:	CALL	RMVNXT		;REMOVE THE FILE FROM THE DIRECTORY
     63	000152	103425 				BCS	30$		;BRANCH IF ERROR
     64	000154	042767 	000000G	000000G		BIC	#FRSTIM,CPYCTL
     65	000162	032767 	000000G	000000G		BIT	#RMVBIT,CMDWRD	;IF REMOVE COMMAND
     66	000170	001012 				BNE	25$		;SKIP THE MARK FOR DELETE
     67	000172	010146 			22$:	MOV	R1,-(SP)
     68	000174	012701 	000000G			MOV	#IO.DEL,R1	;FUNCTION CODE FOR MARK FOR DELETE
     69	000200	012702 	000001 			MOV	#1,R2
     70	000204	010603 				MOV	SP,R3		;1 ADDITIONAL PARAM ON TOP OF STACK
     71	000206					CALL	.XQIO		;ISSUE THE MARK FOR DELETE AND WAIT
     72	000212	012601 				MOV	(SP)+,R1
     73	000214	103423 				BCS	40$
     74	000216				25$:	CALL	NXTFIL		;ANY MORE FILES IN THIS FILE SPEC?
     75	000222	103351 				BCC	20$		;BRANCH IF YES - DELETING A CLASS
     76	000224	000452 				BR	DELNXT		;DONE WITH THIS SPECIFIER
     77					;
     78					; ERROR FROM REMOVE - NO SUCH FILE WOULD INDICATE DONE
     79	000226				30$:	CALL	RMVERR
     80	000232	116705 	000000C			MOVB	FDBOUT+F.ERR,R5	;R5=ERROR CODE
     81	000236	122705 	000000G			CMPB	#IE.NSF,R5	;IF NO SUCH FILE, THEN GO DO NEXT SPEC
     82	000242	001443 				BEQ	DELNXT
     83					;
     84					; FILE PROCESSOR WRITE ERROR FROM REMOVE PROBABLY MEANS THAT
     85					; THE VOLUME IS WRITE LOCKED, STOP TRYING TO DELETE FILES.
     86					;
     87	000244	122705 	000000G			CMPB	#IE.WER,R5
     88	000250	001403 				BEQ	35$		;BRANCH IF WRITE ERROR
     89	000252	122705 	000000G			CMPB	#IE.PRI,R5
     90	000256	001357 				BNE	25$		;BRANCH IF CONTINUING WITH THIS SPEC
     91	000260	000167 	000000G		35$:	JMP	CLOSX		;TERMINATE THE DELETE OPERATION
     92					;
     93					; FAILED TO MARK FILE FOR DELETION
     94	000264				40$:	ERROUT	DE01,0,0
	000264	104426 				TRAP	X
	000266	000000G				.WORD	DE01SZ
	000270	000000G				.WORD	DE01MG
     95					;
     96					; NOW REENTER THE REMOVED DIRECTORY ENTRY TO FIX THINGS UP
     97	000272	012700 	000000G			MOV	#FDBOUT,R0
     98	000276	016002 	000000G			MOV	F.DSPT(R0),R2
     99	000302	005762 	000016 			TST	N.FLID(R2)
    100	000306	001021 				BNE	DELNXT		;IF EXPLICIT FILE ID, SKIP THIS
    101	000310	012701 	000000C			MOV	#FDBOUT+F.FNB,R1
    102	000314	016146 	000000G			MOV	N.NEXT(R1),-(SP) ;SAVE FIND/REMOVE NEXT POINTER
    103	000320					CALL	.ENTER
PIPDEL M0211, DELETE & REMOVE C	MACRO M1113  27-FEB-85 12:26  PAGE 7-2
**** PIPDEL VERSION M0211 ****

    104	000324	012661 	000000G			MOV	(SP)+,N.NEXT(R1)
    105	000330	103332 				BCC	25$		;BRANCH IF REENTER WORKED
    106					;
    107					; NOW WE REALLY HAVE TROUBLE, COULDN'T PUT DIRECTORY ENTRY BACK
    108					; FILE IS LOST, SHOULD AT LEAST TYPE FILE ID - BUT NOT YET DOING SO
    109	000332					ERROUT	DE02,0,0
	000332	104426 				TRAP	X
	000334	000000G				.WORD	DE02SZ
	000336	000000G				.WORD	DE02MG
    110					;
    111					; SET UP TO GO DO THE NEXT FILE
    112	000340	012700 	000000G			MOV	#FDBOUT,R0
    113	000344	012701 	000000C			MOV	#FDBOUT+F.FNB,R1
    114	000350	000722 				BR	25$
    115					; GO GET THE NEXT FILE SPECIFIER IF ANY MORE IN THE LIST
    116	000352	012767 	000001 	000000G	DELNXT:	MOV	#1,PURGCT
    117	000360					CALL	NXTOUT
    118	000364	103402 				BCS	10$
    119	000366	000167 	177412 			JMP	DELET1		;GO DO THE NEXT FILE SPECIFIER
    120	000372	000167 	000000G		10$:	JMP	AGAIN		;NO MORE FILES IN LIST
    121					;
    122					; PURGE MODE FOR THIS FILE SPECIFIER (LOCAL SWITCH)
    123					; DELETE ALL BUT THE MOST RECENT VERSION OF THE SPECIFIED
    124					; FILE(S).  IF THE OPTIONAL VALUE IS SPECIFIED, THEN IF N IS
    125					; THE MOST RECENT VERSION AND M IS THE VALUE, THEN VERSION N-M+1
    126					; THOUGH VERSION N WILL NOT BE DELETED. I.E THE MOST RECENT M
    127					; VERSIONS WILL NOT BE DELETED WHERE THE VERSIONS ARE ASSUMED
    128					; CONSECUTIVELY NUMBERED
    129	000376	052761 	000000G	000000G	DELPUR:	BIS	#NB.SVR,N.STAT(R1) ;USER NEED NOT TYPE WILD VERSION
    130	000404				10$:	CALL	FNDNXT		;FIND THE NEXT FILE IN THE CLASS
    131	000410	103503 				BCS	80$
    132	000412	042767 	000000G	000000G		BIC	#FRSTIM,CPYCTL
    133	000420	016146 	000000G			MOV	N.NEXT(R1),-(SP) ;SAVE FIND NEXT POINTER
    134	000424	016146 	000000G			MOV	N.STAT(R1),-(SP) ;AND STATUS BITS
    135	000430	005061 	000000G			CLR	N.NEXT(R1)	;START AT BEGINNING OF DIRECTORY
    136	000434	005061 	000000G			CLR	N.STAT(R1)	;NO WILD CARDS
    137	000440	005061 	000000G			CLR	N.FVER(R1)	;FIND THE MOST RECENT VERSION NO.
    138	000444					CALL	FINDFL
    139	000450	103466 				BCS	85$
    140	000452	016105 	000000G			MOV	N.FVER(R1),R5	;SAVE THE NEWEST VERSION
    141	000456	166705 	000000G			SUB	PURGCT,R5	;R5=HIGHEST DELETABLE VERSION
    142	000462	003443 				BLE	28$		;BRANCH IF NONE TO DELETE IN THIS CLASS
    143	000464	005061 	000000G			CLR	N.NEXT(R1)
    144	000470	052760 	000000G	000000C	20$:	BIS	#NB.SVR,F.FNB+N.STAT(R0) ;FIND WILD CARD VERSION
    145	000476				25$:	CALL	FINDFL
    146	000502	103436 				BCS	30$
    147	000504	026105 	000000G			CMP	N.FVER(R1),R5
    148	000510	101372 				BHI	25$		;BRANCH IF TOO NEW TO DELETE
    149	000512	016146 	000000G			MOV	N.NEXT(R1),-(SP)
    150	000516	005061 	000000G			CLR	N.NEXT(R1)
    151	000522	005061 	000000G			CLR	N.STAT(R1)
    152	000526					DELET$	R0		;DELETE THIS ONE
    153	000532	012661 	000000G			MOV	(SP)+,N.NEXT(R1)
    154	000536	103354 				BCC	20$		;GO FIND THE NEXT ONE
    155					;
    156					; ERROR FROM DELETE
    157	000540	010046 				MOV	R0,-(SP)
PIPDEL M0211, DELETE & REMOVE C	MACRO M1113  27-FEB-85 12:26  PAGE 7-3
**** PIPDEL VERSION M0211 ****

    158	000542	010546 				MOV	R5,-(SP)
    159	000544					ERROUT	DE09,0,0
	000544	104426 				TRAP	X
	000546	000000G				.WORD	DE09SZ
	000550	000000G				.WORD	DE09MG
    160	000552	012605 				MOV	(SP)+,R5
    161	000554	012600 				MOV	(SP)+,R0
    162					;
    163					; FILE PROCESSOR WRITE ERROR AT THIS POINT PROBABLY MEANS THAT THE
    164					; VOLUME IS WRITE LOCKED, STOP THE DELETE LOOP NOW.
    165					;
    166	000556	122767 	000000G	000000C		CMPB	#IE.WER,FDBOUT+F.ERR
    167	000564	001341 				BNE	20$
    168	000566	000167 	000000G			JMP	CLOSX
    169	000572	112760 	000000G	000000G	28$:	MOVB	#IE.NSF,F.ERR(R0)
    170					;
    171					; DONE PURGING THIS FILE NAME, GO GET ANOTHER
    172	000600	012661 	000000G		30$:	MOV	(SP)+,N.STAT(R1)
    173	000604	012661 	000000G			MOV	(SP)+,N.NEXT(R1)
    174	000610	122760 	000000G	000000G		CMPB	#IE.NSF,F.ERR(R0)
    175	000616	001672 				BEQ	10$
    176					;
    177					; FILE NOT FOUND, PROBABLY ALL DONE
    178	000620				80$:	CALL	FNDERR
    179	000624	000652 				BR	DELNXT
    180	000626	062706 	000004 		85$:	ADD	#4,SP
    181	000632	000772 				BR	80$
    182
    183					;
    184					;
    185		000001 				.END
PIPDEL M0211, DELETE & REMOVE C	MACRO M1113  27-FEB-85 12:26  PAGE 7-4
SYMBOL TABLE

AGAIN = ****** GX	DE09MG= ****** GX	F.RCTL= ****** GX	N.FVER= ****** GX	R$$DPB= 000001
CLOSX = ****** GX	DE09SZ= ****** GX	IE.NSF= ****** GX	N.NEXT= ****** GX	R$$DYM= 000001
CMDWRD= ****** GX	DI08MG= ****** GX	IE.PRI= ****** GX	N.SPEC= 000014   	R$$EIS= 000000
CPYCTL= ****** GX	DI08SZ= ****** GX	IE.WER= ****** GX	N.STAT= ****** GX	R$$11M= 000001
DELETE  000000RG    002	FDBOUT= ****** GX	IO.DEL= ****** GX	PARSE = ****** GX	S.APPD= 000010
DELET1  000004R     002	FD.DIR= ****** GX	NB.SFL= ****** GX	PAR$$$= 000000   	S.FIDS= 000014
DELNXT  000352R     002	FINDFL= ****** GX	NB.SVR= ****** GX	PRSERR= ****** GX	USEFID= ****** GX
DELPUR  000376R     002	FNDERR= ****** GX	NB.VER= ****** GX	PURGBT= ****** GX	WLDVER= ****** GX
DE01MG= ****** GX	FNDNXT= ****** GX	NXTFIL= ****** GX	PURGCT= ****** GX	X     = 000026
DE01SZ= ****** GX	FRSTIM= ****** GX	NXTOUT= ****** GX	REMOVE  000000RG    002	$$    = 000067
DE02MG= ****** GX	FSTOUT= ****** GX	N.DEVD= 000000   	RMVBIT= ****** GX	.DELET= ****** G
DE02SZ= ****** GX	F.DSPT= ****** GX	N.DIRD= 000004   	RMVERR= ****** GX	.ENTER= ****** GX
DE04MG= ****** GX	F.ERR = ****** GX	N.FLID= 000016   	RMVNXT= ****** GX	.XQIO = ****** GX
DE04SZ= ****** GX	F.FNB = ****** GX	N.FNMD= 000010

. ABS.	000000	   000
      	000000	   001
PURE$I	000634	   002
ERRORS DETECTED:  0

VIRTUAL MEMORY USED:  3108 WORDS  ( 13 PAGES)
DYNAMIC MEMORY:  4622 WORDS  ( 17 PAGES)
ELAPSED TIME:  00:00:13
[43,10]PIPDEL,[43,20]PIPDEL/-SP/CR=[43,30]PIPMAC,PIPDEL
