PIPDEL     CREATED BY  MACRO  ON 27-FEB-85 AT 12:26	PAGE 1

SYMBOL CROSS REFERENCE                                  CREF

SYMBOL	VALUE		REFERENCES

AGAIN 	= ******  GX	 7-120
CLOSX 	= ******  GX	 7-43       7-91       7-168
CMDWRD	= ******  GX	 7-48       7-54       7-65
CPYCTL	= ******  GX	*7-47      *7-64      *7-132
DELETE	  000000 RG	#7-33
DELET1	  000004 R	#7-34       7-119
DELNXT	  000352 R	 7-42       7-57       7-61       7-76       7-82       7-100     #7-116      7-179
DELPUR	  000376 R	 7-55      #7-129
DE01MG	= ******  GX	 7-94
DE01SZ	= ******  GX	 7-94
DE02MG	= ******  GX	 7-109
DE02SZ	= ******  GX	 7-109
DE04MG	= ******  GX	 7-60
DE04SZ	= ******  GX	 7-60
DE09MG	= ******  GX	 7-159
DE09SZ	= ******  GX	 7-159
DI08MG	= ******  GX	 7-46
DI08SZ	= ******  GX	 7-46
FDBOUT	= ******  GX	 7-34       7-41       7-80       7-97       7-101      7-112      7-113      7-166
FD.DIR	= ******  GX	 7-44
FINDFL	= ******  GX	 7-138      7-138      7-145      7-145
FNDERR	= ******  GX	 7-178      7-178
FNDNXT	= ******  GX	 7-130      7-130
FRSTIM	= ******  GX	 7-47       7-64       7-132
FSTOUT	= ******  GX	 7-33       7-33
F.DSPT	= ******  GX	 7-98
F.ERR 	= ******  GX	 7-41       7-80       7-166     *7-169      7-174
F.FNB 	= ******  GX	 7-101      7-113     *7-144
F.RCTL	= ******  GX	 7-44
IE.NSF	= ******  GX	 7-81       7-169      7-174
IE.PRI	= ******  GX	 7-41       7-89
IE.WER	= ******  GX	 7-87       7-166
IO.DEL	= ******  GX	 7-68
NB.SFL	= ******  GX	 7-52
NB.SVR	= ******  GX	 7-58       7-129      7-144
NB.VER	= ******  GX	 7-58
NXTFIL	= ******  GX	 7-74       7-74
NXTOUT	= ******  GX	 7-117      7-117
N.DEVD	= 000000	#7-24
N.DIRD	= 000004	#7-24
N.FLID	= 000016	#7-24       7-99
N.FNMD	= 000010	#7-24
N.FVER	= ******  GX	*7-137      7-140      7-147
N.NEXT	= ******  GX	 7-102     *7-104      7-133     *7-135     *7-143      7-149     *7-150     *7-153     *7-173
N.SPEC	= 000014	#7-24
N.STAT	= ******  GX	*7-52       7-58      *7-129      7-134     *7-136     *7-144     *7-151     *7-172
PARSE 	= ******  GX	 7-35       7-35
PAR$$$	= 000000	#7-152      7-152
PRSERR	= ******  GX	 7-37       7-37
PURGBT	= ******  GX	 7-54
PURGCT	= ******  GX	*7-116      7-141
REMOVE	  000000 RG	#7-32
PIPDEL     CREATED BY  MACRO  ON 27-FEB-85 AT 12:26	PAGE 2

SYMBOL CROSS REFERENCE                                  CREF

SYMBOL	VALUE		REFERENCES

RMVBIT	= ******  GX	 7-48       7-65
RMVERR	= ******  GX	 7-79       7-79
RMVNXT	= ******  GX	 7-62       7-62
RONLY$	= ******	 7-28       7-28
R$$DPB	= 000001	#1-27
R$$DYM	= 000001	#1-29
R$$EIS	= 000000	#1-28       1-38
R$$11M	= 000001	#1-25       1-26       7-1
SYS40$	= ******	 1-67       7-28       7-28
S.APPD	= 000010	#7-24
S.FIDS	= 000014	#7-24
USEFID	= ******  GX	 7-50       7-50
WLDVER	= ******  GX	 7-56       7-56
X     	= 000026	#7-46       7-46      #7-46       7-46      #7-60       7-60      #7-60       7-60      #7-94
                         7-94      #7-94       7-94      #7-94       7-94      #7-109      7-109     #7-109      7-109
                        #7-109      7-109     #7-159      7-159     #7-159      7-159     #7-159      7-159
$$    	= 000067	#7-33       7-33      #7-35       7-35      #7-37       7-37      #7-50       7-50      #7-56
                         7-56      #7-62       7-62      #7-71       7-71      #7-74       7-74      #7-79       7-79
                        #7-103      7-103     #7-117      7-117     #7-130      7-130     #7-138      7-138     #7-145
                         7-145     #7-178      7-178
.DELET	= ******  G	 7-152      7-152
.ENTER	= ******  GX	 7-103      7-103
.XQIO 	= ******  GX	 7-71       7-71
PIPDEL     CREATED BY  MACRO  ON 27-FEB-85 AT 12:26	PAGE 3

MACRO CROSS REFERENCE                                   CREF

MACRO NAME	REFERENCES

ASH   		#1-64
ASHC  		#1-64
CALL  		#7-25      #7-33      #7-35      #7-37      #7-50      #7-56      #7-62      #7-71      #7-74      #7-79
                #7-103     #7-117     #7-130     #7-138     #7-145     #7-152     #7-178
DELET$		#7-25       7-152
DIV   		#1-64
ERRINI		#4-307
ERROUT		#3-215      7-60       7-94       7-109      7-159
ERROUX		#3-222      7-46
ERROU1		#3-225     #7-46      #7-60      #7-94      #7-109     #7-159
ERRP  		#3-247
ERRPX 		#3-253
ERRP1 		#3-256
ERR$  		#7-152     #7-152
ERR1  		#3-273     #7-46      #7-60      #7-94      #7-109     #7-159
FLDSOF		#5-382     #7-24      #7-24
IDENT 		#5-339     #7-1
IDENT1		#5-347      7-1
IDTITL		#5-356
ILLOP 		#1-52      #1-64       1-64
IMPURE		#1-75
LDFDB$		#7-152     #7-152
MARK  		#1-64
MSG   		#2-124
MSGZ  		#2-129
MSG1  		#2-133
MUL   		#1-64
NOEIS$		#1-39       1-64
PURE. 		#1-84       7-28
PURE.D		#1-102
PURE.I		#1-98       7-28
RETURN		#7-25
RTT   		#1-64
SOB   		#1-64
SXT   		#1-64
XOR   		#1-64
PIPDIR M0216, LIST DIRECTORY CO	MACRO M1113  27-FEB-85 12:26
TABLE OF CONTENTS

     7-    1	**** PIPDIR VERSION M0216 ****
PIPMAC - MACROS FOR PIP, ETC.	MACRO M1113  27-FEB-85 12:26  PAGE 6


    397
PIPDIR M0216, LIST DIRECTORY CO	MACRO M1113  27-FEB-85 12:26  PAGE 7


      1						.TITLE	PIPDIR M0216, LIST DIRECTORY COMMAND-PIP
						.SBTTL	**** PIPDIR VERSION M0216 ****
						.IDENT	/M0216/
      2					; ALTERED:
      3					; ANDREW C. GOLDSTEIN  19 FEB 75  14:30
      4					;
      5					; COPYRIGHT 1975, 1985, DIGITAL EQUIPMENT CORP., MAYNARD MASS.
      6					; COPYRIGHT 1974, DIGITAL EQUIPMENT CORP., MAYNARD MASS.
      7
      8					;			ALL RIGHTS RESERVED
      9					;
     10					; THIS SOFTWARE IS FURNISHED TO PURCHASER UNDER A LICENSE FOR USE
     11					; ON A SINGLE COMPUTER SYSTEM AND CAN BE COPIED (WITH INCLUSION
     12					; OF DEC'S COPYRIGHT NOTICE) ONLY FOR USE IN SUCH SYSTEM, EXCEPT
     13					; AS MAY OTHERWISE BE PROVIDED IN WRITING BY DEC.
     14
     15					; THE INFORMATION IN THIS DOCUMENT IS SUBJECT TO CHANGE WITHOUT
     16					; NOTICE AND SHOULD NOT BE CONSTRUED AS A COMMITMENT BY DIGITAL
     17					; EQUIPMENT CORPORATION.
     18
     19					; DEC ASSUMES NO RESPONSIBILITY FOR THE USE OR RELIABILITY
     20					; OF ITS SOFTWARE ON EQUIPMENT WHICH IS NOT SUPPLIED BY DEC.
     21					;
     22					; PETER H. LIPMAN	2-MAY-74
     23					;
     24						.IF	GT,R$$11M
     25						.MACRO	PUT$	A1,A2,A3,A4
     26						.MCALL	PUT$S
     27						PUT$S	A1,A2,A3,A4
     28						.ENDM	PUT$
     29						.ENDC
     30	000000					FLDSOF
     31						.MCALL	CSI$
     32	000000					CSI$
     33
     34						.MCALL	CALL,RETURN,QIO$S,WTSE$S
     35						.MCALL	FDBF$R,FDAT$R,OPEN$W,OFNB$W,PUT$,GTIM$S
     36
     37
     38		000014 				FF=14			;FORM FEED CHARACTER
     39					;
     40					; DIRECTORY LISTING  - CONVERSION STRINGS
     41	000000					MSGZ	LI01,< FILE ID %P,%P,%O>
     42	000000					MSGZ	LI02,<%N%X>
     43	000000					MSG	LI03,<READ ATTRIBUTES ERR - >
     44	000000					MSG	TOTH,<STORAGE USED/ALLOCATED FOR >
     45	000000					MSGZ	DIRH,<DIRECTORY %2A%O:>
     46	000000					MSGZ	TIME,<%N%Y %2Z>
     47	000000					MSGZ	TOT1,<%N%N	TOTAL OF >
     48	000000					MSGZ	TOT2,<. BLOCKS IN %D. FILES>
     49	000000					IMPURE
     50
     51					;
     52					; ***** DO NOT SEPARATE THE FOLLOWING
     53					;
     54	000000				FILCNT:	.BLKW	1		;COUNT OF FILES IN THIS DIRECTORY
     55	000002				FILUSD:	.BLKW	2		;COUNT OF BLOCKS USED
PIPDIR M0216, LIST DIRECTORY CO	MACRO M1113  27-FEB-85 12:26  PAGE 7-1
**** PIPDIR VERSION M0216 ****

     56	000006				FILALC:	.BLKW	2		;COUNT OF BLOCKS ALLOCATED
     57					;
     58					; ***** DO NOT SEPARATE THE PRECEEDING
     59					;
     60	000012				USDMSG:	.BLKW	1		;0 IF NO "USED" MESSAGE IS TO BE OUTPUT
     61									;END OF MESSAGE POINTER IF MSG NEEDS TO BE TYPED
     62	000014				DIHDMG:	.BLKW	1		;0 IF NO DIRECTORY HEADER MESSAGE TO TYPE
     63									;END OF MESSAGE PTR IF NEED TO OUTPUT HDR
     64	000016				DIROUT:	.BLKW	1		;0 IF NO OUTPUT DONE YET
     65									;NON ZERO IF ANY OUTPUT HAS BEEN DONE
PIPDIR M0216, LIST DIRECTORY CO	MACRO M1113  27-FEB-85 12:26  PAGE 8
**** PIPDIR VERSION M0216 ****

     67	000020					PURE.I
     68
     69					; LIST THE DIRECTORY TO THE SPECIFIED OUTPUT FILE
     70
     71	000000	012767 	000000G	000000C	DIRLST::MOV	#OFNPT,FDBIN+F.DSPT ;ASSUME NO LISTING FILE SPEC
     72	000006	012767 	000000G	000000C		MOV	#NAMBLK,FDBIN+F.DFNB
     73	000014	012767 	000000G	000000C		MOV	#IFNPT,FDBOUT+F.DSPT	;NULL DSPT IF NO INPUT SPEC
     74	000022	012767 	000000G	000000C		MOV	#SYDFLT,FDBOUT+F.DFNB
     75	000030	016767 	000000G	000000C		MOV	CODEV,SYDFLT+N.DVNM ;DEFAULT OUTPUT TO CO:
     76	000036	016767 	000000G	000000C		MOV	COUNIT,SYDFLT+N.UNIT
     77	000044	012767 	000000G	000000G		MOV	#FD.PLC,INRACC
     78	000052	012767 	000000G	000000G		MOV	#FD.PLC,OURACC
     79	000060	005767 	000000G			TST	INSPEC		;WAS THERE AN INPUT SPEC?
     80	000064	001423 				BEQ	10$		;BRANCH IF NO
     81	000066	016767 	000000G	000000G		MOV	.OULCL,.LCLSW	;LOCAL SWITCHES ON OUTSPEC ARE STICKY
     82	000074	012767 	000000G	000000C		MOV	#IFNPT,FDBIN+F.DSPT ;USE INPUT SPECIFIER FOR DIRECTORY
     83	000102	012767 	000000G	000000C		MOV	#OFNPT,FDBOUT+F.DSPT ;OUTPUT SPEC FOR LISTING
     84	000110	032767 	000003 	000000G		BIT	#CS.DIF!CS.NMF,OUSPEC ;IF OUTPUT FILE NAME SPECIFIED
     85	000116	001406 				BEQ	10$
     86	000120	012767 	000000G	000000C		MOV	#SYDEV,SYDFLT+N.DVNM ;DEFAULT TO SY0:
     87	000126	012767 	000000G	000000C		MOV	#SYUNIT,SYDFLT+N.UNIT
     88					;
     89					; NORMAL DIRECTORY LISTING
     90	000134	005001 			10$:	CLR	R1		;R1 MEANS NO DEFAULT DIRECTORY ID
     91	000136	005002 				CLR	R2		;NO DEFAULT FILE NAME AND TYPE
     92	000140					CALL	STNMBK		;INIT THE NAMBLK
     93	000144	005067 	000012'			CLR	USDMSG		;NO TOTAL LINE TO BE TYPED
     94	000150	005067 	000016'			CLR	DIROUT		;NO OUTPUT DONE YET
     95	000154	012701 	000000C			MOV	#<<<LINBFS+3>&177774>+1000>,R1
     96	000160					CALL	.DYALC		;ALLOCATE A LINE AND HEADER BUFFER
     97	000164	062700 	000000C			ADD	#<<LINBFS+3>&177774>,R0 ;CALCULATE HEADER BUFFER ADDRESS
     98	000170	010067 	000000G			MOV	R0,.HDRAD	;AND SAVE IT
     99					;
    100					; HERE FOR EACH NEW DIRECTORY SPECIFIER
    101					;
    102	000174	012700 	000000G		DIRLS1:	MOV	#FDBIN,R0
    103	000200					CALL	PARSE
    104	000204	103004 				BCC	20$
    105	000206					CALL	PRSERR
    106	000212	000167 	000000G			JMP	CLOSX
    107	000216	016267 	000014 	000000G	20$:	MOV	N.SPEC(R2),INSPEC ;MOV OUSPEC TO INSPEC IF NO LIST FILE
    108	000224	132760 	000000G	000000G		BITB	#FD.DIR,F.RCTL(R0)
    109	000232	001003 				BNE	25$		;BRANCH IF DIRECTORY DEVICE
    110	000234					ERROUX	DI08,1
	000234	104413 				TRAP	X
	000236	000000G				.WORD	DI08SZ
	000240	000000G				.WORD	DI08MG
    111	000242	016067 	000000G	000000G	25$:	MOV	F.FVER(R0),VERSAV
    112	000250	005762 	000016 			TST	N.FLID(R2)	;IF FILE ID WAS SPECIFIED, USE IT
    113	000254	001412 				BEQ	40$
    114	000256	016261 	000016 	000000G		MOV	N.FLID(R2),N.DID(R1) ;PUT FILE ID IN DIRECTORY ID SLOT
    115	000264	016261 	000020 	000002G		MOV	N.FLID+2(R2),N.DID+2(R1)
    116	000272	016261 	000022 	000004G		MOV	N.FLID+4(R2),N.DID+4(R1)
    117	000300	000407 				BR	DIRLS2		;NEW DIRECTORY TO LIST
    118	000302	032767 	000006 	000000G	40$:	BIT	#CS.DIF!CS.DVF,INSPEC ;NEW DIRECTORY?
    119	000310	001003 				BNE	DIRLS2		;BRANCH IF YES
    120	000312	005767 	000000C			TST	FDBOUT+F.BDB	;IF NOT FIRST DIRECTORY (OUT FILE OPEN)
PIPDIR M0216, LIST DIRECTORY CO	MACRO M1113  27-FEB-85 12:26  PAGE 8-1
**** PIPDIR VERSION M0216 ****

    121	000316	001020 				BNE	DIRLS3		;THEN NOT A NEW DIRECTORY
    122	000320	016700 	000012'		DIRLS2:	MOV	USDMSG,R0	;PRINT "M BLOCKS USED IN N FILES"
    123	000324	001404 				BEQ	10$		;BRANCH IF NOTHING TO PRINT
    124	000326	005067 	000012'			CLR	USDMSG		;SO IT WON'T BE DONE AGAIN
    125	000332					CALL	EDTPT1		;OUTPUT THE"TOTAL" MESSAGE
    126	000336	012702 	000005 		10$:	MOV	#5,R2		;NO. OF WORDS OF FILE AND SIZE COUNTING
    127	000342	012701 	000000'			MOV	#FILCNT,R1	;REINIT THE COUNTS FOR THE NEW DIRECTORY
    128	000346	005021 			20$:	CLR	(R1)+
    129	000350					SOB	R2,20$
    130	000354	005267 	000014'			INC	DIHDMG		;FORCE THIS NON ZERO INDICATING NEW DIR
    131	000360	032767 	000001 	000000G	DIRLS3:	BIT	#CS.NMF,INSPEC	;IF NOT LISTING ENTIRE DIRECTORY
    132	000366	001006 				BNE	45$		;BRANCH IF NOT LISTING ENTIRE DIRECTORY
    133					;
    134					; LISTING ENTIRE DIRECTORY
    135	000370	052767 	000001 	000000G		BIS	#CS.NMF,INSPEC	;SAY THAT FILE NAME WAS SPECIFIED
    136	000376	052767 	000000G	000000C		BIS	#NB.SFN,FDBIN+F.FNB+N.STAT ;IT WAS *.*;*
    137	000404	052767 	000000G	000000G	45$:	BIS	#FRSTIM,CPYCTL
    138	000412	012700 	000000G			MOV	#FDBOUT,R0
    139	000416	005760 	000000G			TST	F.BDB(R0)
    140	000422	001044 				BNE	60$		;BRANCH IF LISTING FILE ALREADY OPEN
    141	000424					FDAT$R	R0,#R.VAR,#0	;VARIABLE LENGTH, NO CARRIAGE CONTROL
    142					; OVERIDE DEFAULT BUFFER SIZE FOR LONG PARTIAL LOCATE MODE PUTS
    143	000436					FDBF$R	R0,,#LINBFS,#3 ;FORCE 3 BUFS
    144					;
    145						.IF	EQ,R$$11M
    146						OPEN$W	R0,,,OURACC,#LINBUF,#LINBFS
    147						.IFF
    148	000452					CALL	PARSE
    149	000456	103004 				BCC	58$
    150	000460					CALL	PRSERR		;ERROR FROM PARSE
    151	000464	000167 	000000G			JMP	CLOSX
    152	000470				58$:	OFNB$W	R0,,,OURACC,#LINBUF,#LINBFS
    153						.ENDC
    154					;
    155	000524	103563 				BCS	94$		;BRANCH IF FAILED TO OPEN OUTPUT FILE
    156	000526					CALL	RECATT		;ATTACH DEVICE IF TTY
    157	000532	103551 				BCS	82$		;BRANCH IF FAILED
    158	000534	016700 	000000G		60$:	MOV	.DYBUF,R0
    159	000540	005767 	000016'			TST	DIROUT		;HAS THERE BEEN ANY OUTPUT YET?
    160	000544	001007 				BNE	62$		;BRANCH IF YES
    161	000546	132767 	000000G	000000C		BITB	#FD.TTY,FDBOUT+F.RCTL
    162	000554	001003 				BNE	62$
    163	000556	112720 	000014 			MOVB	#FF,(R0)+	;FORM FEED IF NOT TTY
    164	000562	000407 				BR	65$
    165	000564	112720 	000015 		62$:	MOVB	#15,(R0)+
    166	000570	012701 	000012 			MOV	#12,R1		;A FEW BLANK LINES FOR TTY
    167	000574	110120 				MOVB	R1,(R0)+
    168	000576	110120 				MOVB	R1,(R0)+
    169	000600	110120 				MOVB	R1,(R0)+
    170	000602	010046 			65$:	MOV	R0,-(SP)
    171	000604					CALL	STFIND		;START THE FIRST FIND OPERATION
    172	000610	012600 				MOV	(SP)+,R0
    173	000612	016746 	000000C			MOV	FDBIN+F.UNIT,-(SP)
    174	000616	012746 	000000C			MOV	#FDBIN+F.DVNM,-(SP)
    175	000622	010602 				MOV	SP,R2
    176	000624	012701 	000110'			MOV	#DIRHMG,R1
    177	000630	032767 	000000G	000000G		BIT	#TOTLBT,CMDWRD	;IF JUST LISTING TOTALS
PIPDIR M0216, LIST DIRECTORY CO	MACRO M1113  27-FEB-85 12:26  PAGE 8-2
**** PIPDIR VERSION M0216 ****

    178	000636	001402 				BEQ	66$
    179	000640	012701 	000055'			MOV	#TOTHMG,R1	;USE THE OTHER MESSAGE
    180	000644				66$:	CALL	$EDMSG		;"DIRECTORY DK0:"
    181	000650	022626 				CMP	(SP)+,(SP)+
    182	000652	016702 	000000C			MOV	FDBIN+F.DSPT,R2
    183	000656	005762 	000016 			TST	N.FLID(R2)	;WAS FILE ID OF DIRECTORY FILE GIVEN
    184	000662	001023 				BNE	70$		;BRANCH IF YES
    185					; DIRECTORY NAME
    186	000664	132767 	000000G	000000C		BITB	#FD.SDI,FDBIN+F.RCTL ;IF SINGLE DIRECTORY DEVICE
    187	000672	001025 				BNE	75$		;DON'T PRINT DIRECTORY NAME
    188	000674	016701 	000000C			MOV	FDBIN+F.DSPT,R1
    189	000700	016102 	000006 			MOV	N.DIRD+2(R1),R2	;R2=ADDRESS OF DIRECTORY STRING
    190	000704	016101 	000004 			MOV	N.DIRD(R1),R1	;R1=SIZE OF DIRECTORY STRING
    191	000710	001004 				BNE	67$		;BRANCH IF STRING IS NOT NULL
    192	000712					CALL	.RDFDR		;OTHERWISE USE DEFAULT DIRECTORY
    193	000716	005701 				TST	R1		;IF NULL DEFAULT DIRECTORY
    194	000720	001412 				BEQ	75$		;SKIP PRINTING THE DIRECTORY NAME
    195	000722	112220 			67$:	MOVB	(R2)+,(R0)+	;MOVE THE DIRECTORY STRING
    196	000724					SOB	R1,67$
    197	000730	000406 				BR	75$
    198					; LISTING DIRECTORY BY FILE ID
    199	000732	062702 	000016 		70$:	ADD	#N.FLID,R2
    200	000736	012701 	000000'			MOV	#LI01MG,R1
    201	000742					CALL	$EDMSG		;"FILE ID 401,5743"
    202	000746	032767 	000000G	000000G	75$:	BIT	#SHTLST,CMDWRD	;IF BRIEF DIRECTORY LISTING
    203	000754	001013 				BNE	78$		;SKIP THE DATE AND TIME
    204	000756	016702 	000000G			MOV	.HDRAD,R2
    205	000762					GTIM$S	R2		;READ TIME OF DAY
    206	000772	103434 				BCS	88$
    207	000774	012701 	000131'			MOV	#TIMEMG,R1
    208	001000					CALL	$EDMSG
    209	001004	112720 	000015 		78$:	MOVB	#15,(R0)+
    210	001010	112720 	000012 			MOVB	#12,(R0)+
    211	001014	005767 	000014'			TST	DIHDMG		;ZERO IF ALREADY TYPED HEADER
    212	001020	001415 				BEQ	80$
    213	001022	010067 	000014'			MOV	R0,DIHDMG	;NOTE HEADER MESSAGE TO BE TYPED
    214	001026	016701 	000000C			MOV	FDBIN+F.FNB+N.STAT,R1
    215	001032	042701 	000000C			BIC	#^C<NB.SDI!NB.SNM!NB.STP>,R1
    216	001036	022701 	000000C			CMP	#<NB.SDI!NB.SNM!NB.STP>,R1 ;IF [*,*]*.* (OR [*,*]*.*;*)
    217	001042	001004 				BNE	80$
    218	001044	005067 	000014'			CLR	DIHDMG		;PRINT THE DIRECTORY HEADER
    219	001050					CALL	EDTPT1		;WHETHER OR NOT THE DIRECTORY IS EMPTY
    220	001054	000414 			80$:	BR	GTENT		;OTHERWISE OUTPUT IT LATER
    221					;
    222					; FAILED TO ATTACH THE TTY
    223	001056				82$:	ERROUX	DI06,0,0
	001056	104427 				TRAP	X
	001060	000000G				.WORD	DI06SZ
	001062	000000G				.WORD	DI06MG
    224					;
    225					; FAILED TO GET TIME INFORMATION
    226	001064				88$:	ERROUX	DI07
	001064	104403 				TRAP	X
	001066	000000G				.WORD	DI07SZ
	001070	000000G				.WORD	DI07MG
    227	001072	000403 				BR	98$
    228					;
PIPDIR M0216, LIST DIRECTORY CO	MACRO M1113  27-FEB-85 12:26  PAGE 8-3
**** PIPDIR VERSION M0216 ****

    229					; FAILED TO OPEN LISTING FILE
    230	001074				94$:	ERROUT	OP02,0,0
	001074	104426 				TRAP	X
	001076	000000G				.WORD	OP02SZ
	001100	000000G				.WORD	OP02MG
    231	001102	000167 	000000G		98$:	JMP	CLOSX
PIPDIR M0216, LIST DIRECTORY CO	MACRO M1113  27-FEB-85 12:26  PAGE 9
**** PIPDIR VERSION M0216 ****

    233	001106	032767 	000000G	000000C	GTENT:	BIT	#NB.SFN,FDBIN+F.FNB+N.STAT ;ANY WILD CARDS?
    234	001114	001004 				BNE	10$		;BRANCH IF YES
    235	001116	032767 	000000G	000000G		BIT	#FRSTIM,CPYCTL	;IF FIRST FIND, DO IT
    236	001124	001416 				BEQ	15$		;OTHERWISE STOP NOW
    237	001126	042767 	000000G	000000G	10$:	BIC	#FRSTIM,CPYCTL	;NO LONGER THE FIRST TIME
    238	001134	012700 	000000G			MOV	#FDBIN,R0
    239	001140	012702 	000000G			MOV	#FNAEFN,R2	;R2=EVENT FLAG FOR PENDING FIND QI/O
    240	001144	012701 	000000G			MOV	#FNASTS,R1	;R1 = I/O STATUS BLOCK ADR FOR FIND
    241	001150					CALL	WATQIO		;WAIT FOR THE LAST FIND QI/O TO COMPLETE
    242	001154	103004 				BCC	20$		;BRANCH IF IT WAS SUCCESSFUL
    243	001156					CALL	FNDERR		;NORMAL TERMINATION IF NO SUCH FILE
    244	001162	000167 	000514 		15$:	JMP	LSTNXT
    245	001166	005267 	000000'		20$:	INC	FILCNT		;COUNT THIS FILE
    246	001172	016700 	000014'			MOV	DIHDMG,R0	;SEE IF DIRECTORY HEADER MSG TO OUTPUT
    247	001176	001404 				BEQ	25$		;BRANCH IF NONE
    248	001200	005067 	000014'			CLR	DIHDMG		;ONLY OUTPUT IT ONCE
    249	001204					CALL	EDTPT1
    250	001210	012701 	000000C		25$:	MOV	#FDBIN+F.FNB,R1
    251	001214	012700 	000000G			MOV	#NMBLK1,R0
    252	001220	012702 	000000G			MOV	#S.FNBW,R2	;R2 = SIZE IN WORDS OF FILE NAME BLOCK
    253	001224	012120 			30$:	MOV	(R1)+,(R0)+	;MOVE FDB'S FNB TO NMBLK1
    254	001226					SOB	R2,30$
    255					;
    256					; R0=FILE NAME BLOCK ADDRESS TO LIST DIRECTORY FROM
    257					;
    258	001232	032767 	000000G	000000G		BIT	#SHTLST,CMDWRD	;IF BRIEF MODE LISTING
    259	001240	001031 				BNE	50$		;SKIP THE READ ATTRIBUTES
    260					;
    261					; START UP THE READ ATTRIBUTES, WAIT FOR COMPLETION LATER
    262					;
    263
    264						.IF	EQ,R$$DPB	;IF OLD DPB FORMAT
    265						QIO$S	#IO.RAT,#INLUN,#RATEFN,,#IOSTBK,,<#NMBLK1,#HDBLK,#STBLK>
    266						.IFF			;IF NEW DPB FORMAT
    267	001242					QIO$S	#IO.RAT,#INLUN,#RATEFN,,#IOSTBK,,<#NMBLK1,#RATCTL,,,,>
    268						.ENDC
    269
    270	001314	103003 				BCC	50$		;BRANCH IF QIO WAS OK
    271	001316	113767 	000000G	000000G		MOVB	@#$DSW,IOSTBK	;SET ERROR CODE FOR WAIT TO SEE
    272					;
    273					; START THE NEXT FIND NAME QI/O UNLESS JUST LISTING ONE FILE
    274					;
    275	001324	032767 	000000G	000000C	50$:	BIT	#NB.SFN,FDBIN+F.FNB+N.STAT
    276	001332	001402 				BEQ	60$		;BRANCH IF NO WILD CARDS
    277	001334					CALL	STFIND		;START UP THE NEXT FIND QI/O
    278	001340	012702 	000000G		60$:	MOV	#NMBLK1,R2	;R2=FILE NAME BLOCK ADDRESS
    279	001344	016700 	000000C			MOV	FDBOUT+F.NRBD+2,R0 ;R0=ADDRESS TO STORE STRING TO PUT$
    280	001350	062702 	000000G			ADD	#N.FNAM,R2	;POINT AT FILE NAME FIELD
    281	001354	012701 	000022'			MOV	#LI02MG,R1
    282	001360					CALL	$EDMSG		;CONVERT THE FILE NAME
    283	001364	032767 	000000G	000000G		BIT	#SHTLST,CMDWRD
    284	001372	001116 				BNE	DIRPUT
    285	001374	162701 	000002 			SUB	#2,R1		;DON'T COUNT CR,LF
    286	001400	012705 	000000G			MOV	#HDRTB1,R5
    287	001404					CALL	HDFILL		;ADD BLANKS TO FILL THE FIELD
    288	001410					CALL	EDTPUT		;OUTPUT THE FILE NAME FIELD
    289	001414	012700 	000000G			MOV	#FDBIN,R0
PIPDIR M0216, LIST DIRECTORY CO	MACRO M1113  27-FEB-85 12:26  PAGE 9-1
**** PIPDIR VERSION M0216 ****

    290	001420	012702 	000000G			MOV	#RATEFN,R2	;EVENT FLAG FOR READ ATTRIBUTES
    291	001424	012701 	000000G			MOV	#IOSTBK,R1	;I/O STATUS BLOCK FOR RD ATT
    292	001430					CALL	WATQIO		;WAIT FOR I/O DONE ON THE READ ATTRIB
    293	001434	103501 				BCS	RDATER		;BRANCH IF ERROR
    294					;
    295					; IF SEQUENTIAL DEVICE, THEN EFBK IS WRONG
    296					; PUTTING ZERO IN WILL TELL HDRMG TO PRINT ALLOCATED SPACE
    297	001436	016705 	000000G			MOV	.HDRAD,R5	;R5=ADDRESS OF FILE HEADER
    298	001442	132767 	000000G	000000C		BITB	#FD.SQD,FDBIN+F.RCTL
    299	001450	001402 				BEQ	70$
    300	001452	005065 	000000C			CLR	HH.UAT+F.EFBK+2(R5)
    301	001456	016500 	000000C		70$:	MOV	HH.UAT+F.EFBK(R5),R0 ;R0,R1 = EOF FROM RECORD ATTRIBUTES
    302	001462	016501 	000000C			MOV	HH.UAT+F.EFBK+2(R5),R1
    303	001466	001007 				BNE	72$		;IF BOTH ZERO, THEN USE REAL FILE SIZE
    304	001470	005700 				TST	R0
    305	001472	001005 				BNE	72$
    306	001474	016700 	000004G			MOV	STBLK+4,R0	;R0, R1 = REAL FILE SIZE (ALLOCATED)
    307	001500	016701 	000006G			MOV	STBLK+6,R1
    308	001504	000406 				BR	76$
    309	001506	005765 	000000C		72$:	TST	HH.UAT+F.FFBY(R5) ;IF FFBY = 0 THEN EFBK IS 1 TOO BIG
    310	001512	001003 				BNE	76$
    311	001514	162701 	000001 			SUB	#1,R1		;MAKE IT SMALLER
    312	001520	005600 				SBC	R0
    313	001522	060167 	000004'		76$:	ADD	R1,FILUSD+2	;RECORD THIS FILE'S USED SPACE
    314	001526	005500 				ADC	R0
    315	001530	060067 	000002'			ADD	R0,FILUSD
    316	001534	066767 	000006G	000010'		ADD	STBLK+6,FILALC+2 ;AND RECORD SPACE ALLOCATED
    317	001542	005567 	000006'			ADC	FILALC
    318	001546	066767 	000004G	000006'		ADD	STBLK+4,FILALC
    319	001554	016700 	000000C			MOV	FDBOUT+F.NRBD+2,R0
    320	001560	010501 				MOV	R5,R1		;R1=ADDRESS OF HEADER
    321	001562	012702 	000000G			MOV	#STBLK,R2	;R2=ADDRESS OF STATISTICS BLOCK
    322	001566	005003 				CLR	R3		;NO FILE NAME, NOT LONG FORM
    323	001570	032767 	000000C	000000G		BIT	#EVRYBT!TOTLBT,CMDWRD
    324	001576	001412 				BEQ	80$
    325	001600	012703 	000002 			MOV	#2,R3		;LONG FORM, STILL NO FILE NAME
    326	001604	132767 	000000G	000000C		BITB	#FD.TTY,FDBOUT+F.RCTL
    327	001612	001004 				BNE	80$
    328					; FOR OTHER THAN TTY OUTPUT, SET LENGTH OF LINE IN 2ND BYTE OF R3
    329	001614	000303 				SWAB	R3
    330	001616	056703 	000000G			BIS	LPTLEN,R3
    331	001622	000303 				SWAB	R3
    332	001624				80$:	CALL	HDRMG		;CONVERT THE FILE HEADER INFO
    333	001630				DIRPUT:	CALL	EDTPUT
    334	001634	000167 	177246 			JMP	GTENT
    335					;
    336					;ERROR READING ATTRIBUTES
    337	001640	005367 	000000'		RDATER:	DEC	FILCNT		;DON'T COUNT FILES THAT CAN'T BE LISTED
    338	001644	016701 	000000C			MOV	FDBOUT+F.NRBD+2,R1
    339	001650	012702 	000026 			MOV	#LI03SZ,R2
    340	001654	012703 	000027'			MOV	#LI03MG,R3
    341	001660					CALL	MVSTRG
    342	001664	010100 				MOV	R1,R0
    343	001666	116701 	000000C			MOVB	FDBIN+F.ERR,R1
    344	001672					CALL	FCSERR		;CONVERT FCS ERROR TO MESSAGE
    345	001676	000167 	177726 			JMP	DIRPUT
PIPDIR M0216, LIST DIRECTORY CO	MACRO M1113  27-FEB-85 12:26  PAGE 10
**** PIPDIR VERSION M0216 ****

    347	001702	005067 	000012'		LSTNXT:	CLR	USDMSG		;NO "TOTAL" MESSAGE
    348	001706	032767 	000000G	000000G		BIT	#SHTLST,CMDWRD	;IF BRIEF MODE, DON'T LIST TOTALS
    349	001714	001054 				BNE	10$
    350	001716	005767 	000000'			TST	FILCNT		;IF NO FILES, SKIP THE TOTAL MESSAGE
    351	001722	001003 				BNE	3$
    352	001724	005767 	000014'			TST	DIHDMG		;IF DIRECTORY HEADER WAS PRINTED, ALLOW TOTALS
    353	001730	001046 				BNE	10$
    354	001732	016700 	000000G		3$:	MOV	.DYBUF,R0	;ADDRESS OF BUFFER TO BUILD MESSAGE
    355	001736	012701 	000142'			MOV	#TOT1MG,R1
    356	001742	005002 				CLR	R2
    357	001744					CALL	$EDMSG
    358	001750	012701 	000002'			MOV	#FILUSD,R1	;ADDRESS OF USED COUNT
    359	001754	005002 				CLR	R2		;SUPPRESS LEAD ZEROES
    360	001756					CALL	$CDDMG		;CONVERT TO DOUBLE PRECISION DECIMAL
    361	001762	032767 	000000C	000000G		BIT	#EVRYBT!TOTLBT,CMDWRD	;IF FULL DIRECTORY LISTING
    362	001770	001411 				BEQ	5$
    363	001772	112720 	000056 			MOVB	#'.,(R0)+	;ALSO OUTPUT ALLOCATED SPACE
    364	001776	112720 	000057 			MOVB	#'/,(R0)+
    365	002002	012701 	000006'			MOV	#FILALC,R1	;ADDRESS OF ALLOCATED SPACE
    366	002006	005002 				CLR	R2
    367	002010					CALL	$CDDMG
    368	002014	012701 	000161'		5$:	MOV	#TOT2MG,R1
    369	002020	012702 	000000'			MOV	#FILCNT,R2	;ADDRESS OF FILE COUNT
    370	002024					CALL	$EDMSG
    371	002030	022767 	000001 	000000'		CMP	#1,FILCNT	;IF ONLY 1 FILE
    372	002036	001001 				BNE	8$
    373	002040	005300 				DEC	R0		;STRIP OFF THE S FROM "FILES"
    374	002042	010067 	000012'		8$:	MOV	R0,USDMSG	;SAVE END POINTER OF MESSAGE
    375	002046				10$:	CALL	CLSIN
    376	002052	012700 	000000G			MOV	#FDBIN,R0
    377	002056					CALL	PRSREG
    378	002062					CALL	.NXDIR		;NEXT WILD CARD DIRECTORY IF ANY
    379	002066	103402 				BCS	20$
    380	002070	000167 	176224 			JMP	DIRLS2
    381	002074				20$:	CALL	FNDERR		;ERR MESSAGE IF NOT IE.NSF
    382	002100	012700 	000000G			MOV	#FDBIN,R0
    383	002104	016001 	000000G			MOV	F.DSPT(R0),R1
    384	002110	012702 	000000G			MOV	#INCSI,R2
    385	002114	020127 	000000G			CMP	R1,#IFNPT
    386	002120	001402 				BEQ	30$
    387	002122	012702 	000000G			MOV	#OUTCSI,R2
    388	002126				30$:	CALL	NXINOU		;GET NEXT SPECIFIER IF ANY
    389	002132	103402 				BCS	40$
    390	002134	000167 	176034 			JMP	DIRLS1
    391	002140	016700 	000012'		40$:	MOV	USDMSG,R0	;SEE IF TOTAL MESSAGE TO BE PRINTED
    392	002144	001010 				BNE	45$
    393	002146	005767 	000016'			TST	DIROUT		;IF NO OUTPUT HAS BEEN DONE YET
    394	002152	001003 				BNE	42$
    395	002154					ERROUX	FI03		;SAY NO SUCH FILES
	002154	104403 				TRAP	X
	002156	000000G				.WORD	FI03SZ
	002160	000000G				.WORD	FI03MG
    396	002162	016700 	000000G		42$:	MOV	.DYBUF,R0	;OTHERWISE JUST OUTPUT A FEW LF'S
    397	002166	112720 	000015 		45$:	MOVB	#15,(R0)+	;CR
    398	002172	012701 	000012 			MOV	#12,R1
    399	002176	110120 				MOVB	R1,(R0)+	;LF
    400	002200	132767 	000000G	000000C		BITB	#FD.TTY,FDBOUT+F.RCTL ;IF OUTPUT TO TERMINAL DEVICE
PIPDIR M0216, LIST DIRECTORY CO	MACRO M1113  27-FEB-85 12:26  PAGE 10-1
**** PIPDIR VERSION M0216 ****

    401	002206	001402 				BEQ	50$
    402	002210	110120 				MOVB	R1,(R0)+	;ADD 2 MORE LF'S
    403	002212	110120 				MOVB	R1,(R0)+
    404	002214				50$:	CALL	EDTPT1
    405	002220	000167 	000000G		60$:	JMP	CLOSX
PIPDIR M0216, LIST DIRECTORY CO	MACRO M1113  27-FEB-85 12:26  PAGE 11
**** PIPDIR VERSION M0216 ****

    407					;
    408					; OUTPUT RECORD TO LISTING FILE
    409					; INPUTS:
    410					;	R0=POINTER TO END OF STRING
    411					;	FDBOUT+F.NRBD+2 = ADDRESS OF BEGIN OF STRING
    412					; OUTPUTS:
    413					;	R0 ALTERED, OTHERS PRESERVED
    414					; OPERATION:
    415					;	IF I/O ERROR TO LISTING FILE, GIVES ERROR MESSAGE AND
    416					; TERMINATES.  DOES NOT RETURN IN THIS CASE
    417
    418						.ENABL	LSB
    419
    420					;
    421					; HERE TO PRINT THE DIRECTORY HEADER MESSAGE AND TOTAL MESSAGE
    422					;
    423	002224	010067 	000016'		EDTPT1:	MOV	R0,DIROUT	;NOTE THAT OUTPUT HAS BEEN DONE
    424	002230	010146 				MOV	R1,-(SP)	; SAVE REGISTERS
    425	002232	010246 				MOV	R2,-(SP)
    426	002234	016701 	000000G			MOV	.DYBUF,R1	; ADDRESS OF RECORD TO PUT
    427	002240	016702 	000000C			MOV	FDBOUT+F.NRBD+2,R2 ; GET ADDRESS OF RECORD BUFFER
    428	002244	160100 				SUB	R1,R0		; COMPUTE BYTE COUNT
    429	002246	001426 				BEQ	8$		; EXIT ON NULL RECORD
    430	002250	010067 	000000C			MOV	R0,FDBOUT+F.NRBD ; SET RECORD SIZE IN FDB
    431	002254	112122 			1$:	MOVB	(R1)+,(R2)+	; COPY THE RECORD INTO THE BUFFER
    432	002256					SOB	R0,1$
    433	002262	012602 				MOV	(SP)+,R2	; RESTORE REGISTERS
    434	002264	012601 				MOV	(SP)+,R1
    435	002266	000411 				BR	5$
    436					;
    437					; HERE TO PRINT OUT THE DIRECTORY LISTING TEXT FOR EACH FILE
    438					;
    439	002270	032767 	000000G	000000G	EDTPUT:	BIT	#TOTLBT,CMDWRD	;IF JUST PRINTING TOTALS
    440	002276	001012 				BNE	8$		;DON'T PRINT THE DIRECTORY ENTRIES
    441	002300	010067 	000000C			MOV	R0,FDBOUT+F.NRBD
    442	002304	166767 	000000C	000000C		SUB	FDBOUT+F.NRBD+2,FDBOUT+F.NRBD
    443	002312				5$:	PUT$	#FDBOUT
    444	002322	103401 				BCS	10$
    445	002324				8$:	RETURN
    446	002326				10$:	ERROUX	CP14,0,0
	002326	104427 				TRAP	X
	002330	000000G				.WORD	CP14SZ
	002332	000000G				.WORD	CP14MG
    447
    448						.DSABL	LSB
    449
    450					;
    451					; START UP A FIND QI/O OPERATION
    452					;
    453					; INPUTS:
    454					;	NONE
    455					; OUPTUTS:
    456					;	R0=INPUT FDB ADDRESS
    457					;	R1=(R0)+F.FNB
    458					;	R2=0
    459					;
    460	002334	012700 	000000G		STFIND:	MOV	#FDBIN,R0
PIPDIR M0216, LIST DIRECTORY CO	MACRO M1113  27-FEB-85 12:26  PAGE 11-1
**** PIPDIR VERSION M0216 ****

    461	002340	012701 	000000C			MOV	#FDBIN+F.FNB,R1
    462	002344	005002 				CLR	R2
    463	002346	016761 	000000G	000000G		MOV	VERSAV,N.FVER(R1)
    464	002354					CALL	.WLDVC		;SPECIAL DEFAULT VERSION LOGIC?
    465	002360	103006 				BCC	5$		;BRANCH IF NO
    466	002362					CALL	.FNDNX		;DO THE SPECIAL FIND
    467	002366	116067 	000000G	000000G		MOVB	F.ERR(R0),FNASTS ;SET STATUS SO WAIT WILL WORK
    468	002374					RETURN
    469	002376				5$:
    470						.IF	EQ,R$$DPB	;IF OLD DPB FORMAT
    471						QIO$S	#IO.FNA,#INLUN,#FNAEFN,,#FNASTS,,<R1>
    472						.IFF			;IF NEW DPB FORMAT
    473	002376					QIO$S	#IO.FNA,#INLUN,#FNAEFN,,#FNASTS,,<,,,,,R1>
    474						.ENDC
    475
    476	002444	103003 				BCC	10$
    477	002446	113767 	000000G	000000G		MOVB	@#$DSW,FNASTS	;PUT ERROR BYTE WHERE WAIT WILL FIND IT
    478	002454				10$:	RETURN
    479					;
    480					; WAIT FOR THE COMPLETION OF A PREVIOUSLY ISSUED QI/O
    481					; INPUTS:
    482					;	R0=FDB ADDRESS, SET F.ERR
    483					;	R1=I/O STATUS BLOCK ADDRESS
    484					;	R2=EVENT FLAG NUMBER
    485					; OUTPUT:
    486					;	C=0 IF OPERATION WAS COMPLETED SUCCESSFULLY
    487					;	C=1 IF ERROR, F.ERR(R0) SET TO REASON
    488					;	ALL REGISTERS PRESERVED
    489					;
    490	002456	000241 			WATQIO:	CLC
    491	002460	111160 	000000G			MOVB	(R1),F.ERR(R0)	;SEE IF OPERATION COMPLETE FIRST
    492	002464	001005 				BNE	20$		;BRANCH IF IT IS
    493	002466					WTSE$S	R2		;WAIT FOR SPECIFIED EVENT FLAG
    494	002476	000767 				BR	WATQIO
    495	002500	003001 			20$:	BGT	30$
    496	002502	000261 				SEC
    497	002504				30$:	RETURN
    498
    499					;
    500					;
    501		000001 				.END
PIPDIR M0216, LIST DIRECTORY CO	MACRO M1113  27-FEB-85 12:26  PAGE 11-2
SYMBOL TABLE

CLOSX = ****** GX	DI07SZ= ****** GX	F.RATT= ****** GX	NB.SFN= ****** GX	STNMBK= ****** GX
CLSIN = ****** GX	DI08MG= ****** GX	F.RCTL= ****** GX	NB.SNM= ****** GX	SYDEV = ****** GX
CMDWRD= ****** GX	DI08SZ= ****** GX	F.RTYP= ****** GX	NB.STP= ****** GX	SYDFLT= ****** GX
CODEV = ****** GX	EDTPT1  002224R     004	F.UNIT= ****** GX	NMBLK1= ****** GX	SYUNIT= ****** GX
COUNIT= ****** GX	EDTPUT  002270R     004	F.URBD= ****** GX	NXINOU= ****** GX	S.APPD= 000010
CPYCTL= ****** GX	EVRYBT= ****** GX	GTENT   001106R     004	N.DEVD= 000000   	S.FIDS= 000014
CP14MG= ****** GX	FCSERR= ****** GX	G.TICP= 000016   	N.DID = ****** GX	S.FNBW= ****** GX
CP14SZ= ****** GX	FDBIN = ****** GX	G.TICT= 000014   	N.DIRD= 000004   	TIMEMG= 000131R     002
CS.DIF= 000002   	FDBOUT= ****** GX	G.TIDA= 000004   	N.DVNM= ****** GX	TIMESZ= 000011
CS.DVF= 000004   	FD.DIR= ****** GX	G.TIHR= 000006   	N.FLID= 000016   	TOTHMG= 000055R     002
CS.EQU= 000040   	FD.PLC= ****** GX	G.TIMI= 000010   	N.FNAM= ****** GX	TOTHSZ= 000033
CS.INP= 000001   	FD.SDI= ****** GX	G.TIMO= 000002   	N.FNMD= 000010   	TOTLBT= ****** GX
CS.MOR= 000020   	FD.SQD= ****** GX	G.TISC= 000012   	N.FVER= ****** GX	TOT1MG= 000142R     002
CS.NMF= 000001   	FD.TTY= ****** GX	G.TIYR= 000000   	N.SPEC= 000014   	TOT1SZ= 000017
CS.OUT= 000002   	FF    = 000014   	HDFILL= ****** GX	N.STAT= ****** GX	TOT2MG= 000161R     002
CS.WLD= 000010   	FILALC  000006R     003	HDRMG = ****** GX	N.UNIT= ****** GX	TOT2SZ= 000026
C.CMLD= 000002   	FILCNT  000000R     003	HDRTB1= ****** GX	OFNPT = ****** GX	USDMSG  000012R     003
C.DEVD= 000006   	FILUSD  000002R     003	HH.UAT= ****** GX	OP02MG= ****** GX	VERSAV= ****** GX
C.DIRD= 000012   	FI03MG= ****** GX	IFNPT = ****** GX	OP02SZ= ****** GX	WATQIO  002456R     004
C.DSDS= 000006   	FI03SZ= ****** GX	INCSI = ****** GX	OURACC= ****** GX	X     = 000027
C.FILD= 000016   	FNAEFN= ****** GX	INLUN = ****** GX	OUSPEC= ****** GX	$CDDMG= ****** GX
C.MKW1= 000024   	FNASTS= ****** GX	INRACC= ****** GX	OUTCSI= ****** GX	$DSW  = ****** GX
C.MKW2= 000026   	FNDERR= ****** GX	INSPEC= ****** GX	PARSE = ****** GX	$EDMSG= ****** GX
C.SIZE= 000054   	FO.WRT= ****** GX	IOSTBK= ****** GX	PAR$$$= 000027   	$$    = 000067
C.STAT= 000001   	FRSTIM= ****** GX	IO.FNA= ****** GX	PRSERR= ****** GX	$$$ARG= 000006
C.SWAD= 000022   	F.BDB = ****** GX	IO.RAT= ****** GX	PRSREG= ****** GX	$$$OST= 000020
C.TYPR= 000000   	F.DFNB= ****** GX	LINBFS= ****** GX	RATCTL= ****** GX	$$$T1 = 000014
DIHDMG  000014R     003	F.DSPT= ****** GX	LINBUF= ****** GX	RATEFN= ****** GX	.DYALC= ****** GX
DIRHMG= 000110R     002	F.DVNM= ****** GX	LI01MG= 000000R     002	RDATER  001640R     004	.DYBUF= ****** GX
DIRHSZ= 000021   	F.EFBK= ****** GX	LI01SZ= 000022   	RECATT= ****** GX	.FNDNX= ****** GX
DIRLST  000000RG    004	F.ERR = ****** GX	LI02MG= 000022R     002	R$$DPB= 000001   	.HDRAD= ****** GX
DIRLS1  000174R     004	F.FACC= ****** GX	LI02SZ= 000005   	R$$DYM= 000001   	.LCLSW= ****** GX
DIRLS2  000320R     004	F.FFBY= ****** GX	LI03MG= 000027R     002	R$$EIS= 000000   	.NXDIR= ****** GX
DIRLS3  000360R     004	F.FNB = ****** GX	LI03SZ= 000026   	R$$MSG= 000000   	.OPFNB= ****** G
DIROUT  000016R     003	F.FVER= ****** GX	LPTLEN= ****** GX	R$$11M= 000001   	.OULCL= ****** GX
DIRPUT  001630R     004	F.MBCT= ****** GX	LSTNXT  001702R     004	R.VAR = ****** GX	.PUTSQ= ****** G
DI06MG= ****** GX	F.NRBD= ****** GX	MVSTRG= ****** GX	SHTLST= ****** GX	.RDFDR= ****** GX
DI06SZ= ****** GX	F.OVBS= ****** GX	NAMBLK= ****** GX	STBLK = ****** GX	.WLDVC= ****** GX
DI07MG= ****** GX	F.RACC= ****** GX	NB.SDI= ****** GX	STFIND  002334R     004

. ABS.	000000	   000
      	000000	   001
MSGSTR	000207	   002
IMPURE	000020	   003
PURE$I	002506	   004
ERRORS DETECTED:  0

VIRTUAL MEMORY USED:  5720 WORDS  ( 23 PAGES)
DYNAMIC MEMORY:  6734 WORDS  ( 25 PAGES)
ELAPSED TIME:  00:00:31
[43,10]PIPDIR,[43,20]PIPDIR/-SP/CR=[43,30]PIPMAC,PIPDIR
PIPDIR     CREATED BY  MACRO  ON 27-FEB-85 AT 12:26	PAGE 1

SYMBOL CROSS REFERENCE                                  CREF

SYMBOL	VALUE		REFERENCES

CLOSX 	= ******  GX	 8-106      8-151      8-231      10-405
CLSIN 	= ******  GX	 10-375     10-375
CMDWRD	= ******  GX	 8-177      8-202      9-258      9-283      9-323      10-348     10-361     11-439
CODEV 	= ******  GX	 8-75
COUNIT	= ******  GX	 8-76
CPYCTL	= ******  GX	*8-137      9-235     *9-237
CP14MG	= ******  GX	 11-446
CP14SZ	= ******  GX	 11-446
CS.DIF	= 000002	 8-84       8-118
CS.DVF	= 000004	 8-118
CS.NMF	= 000001	 8-84       8-131      8-135
DIHDMG	  000014 R	#7-62      *8-130      8-211     *8-213     *8-218      9-246     *9-248      10-352
DIRHMG	= 000110 R	#7-45       7-45       8-176
DIRHSZ	= 000021	#7-45
DIRLST	  000000 RG	#8-71
DIRLS1	  000174 R	#8-102      10-390
DIRLS2	  000320 R	 8-117      8-119     #8-122      10-380
DIRLS3	  000360 R	 8-121     #8-131
DIROUT	  000016 R	#7-64      *8-94       8-159      10-393    *11-423
DIRPUT	  001630 R	 9-284     #9-333      9-345
DI06MG	= ******  GX	 8-223
DI06SZ	= ******  GX	 8-223
DI07MG	= ******  GX	 8-226
DI07SZ	= ******  GX	 8-226
DI08MG	= ******  GX	 8-110
DI08SZ	= ******  GX	 8-110
EDTPT1	  002224 R	 8-125      8-125      8-219      8-219      9-249      9-249      10-404     10-404    #11-423
EDTPUT	  002270 R	 9-288      9-288      9-333      9-333     #11-439
EVRYBT	= ******  GX	 9-323      10-361
FCSERR	= ******  GX	 9-344      9-344
FDBIN 	= ******  GX	*8-71      *8-72      *8-82       8-102     *8-136      8-173      8-174      8-182      8-186
                         8-188      8-214      9-233      9-238      9-250      9-275      9-289      9-298      9-343
                         10-376     10-382     11-460     11-461
FDBOUT	= ******  GX	*8-73      *8-74      *8-83       8-120      8-138      8-161      9-279      9-319      9-326
                         9-338      10-400     11-427    *11-430    *11-441     11-442    *11-442     11-443     11-443
FD.DIR	= ******  GX	 8-108
FD.PLC	= ******  GX	 8-77       8-78
FD.SDI	= ******  GX	 8-186
FD.SQD	= ******  GX	 9-298
FD.TTY	= ******  GX	 8-161      9-326      10-400
FF    	= 000014	#7-38       8-163
FILALC	  000006 R	#7-56      *9-316     *9-317     *9-318      10-365
FILCNT	  000000 R	#7-54       8-127     *9-245     *9-337      10-350     10-369     10-371
FILUSD	  000002 R	#7-55      *9-313     *9-315      10-358
FI03MG	= ******  GX	 10-395
FI03SZ	= ******  GX	 10-395
FNAEFN	= ******  GX	 9-239      11-473
FNASTS	= ******  GX	 9-240     *11-467     11-473    *11-477
FNDERR	= ******  GX	 9-243      9-243      10-381     10-381
FO.WRT	= ******  GX	 8-152
FRSTIM	= ******  GX	 8-137      9-235      9-237
F.BDB 	= ******  GX	 8-120      8-139
PIPDIR     CREATED BY  MACRO  ON 27-FEB-85 AT 12:26	PAGE 2

SYMBOL CROSS REFERENCE                                  CREF

SYMBOL	VALUE		REFERENCES

F.DFNB	= ******  GX	*8-72      *8-74
F.DSPT	= ******  GX	*8-71      *8-73      *8-82      *8-83       8-182      8-188      10-383
F.DVNM	= ******  GX	 8-174
F.EFBK	= ******  GX	*9-300      9-301      9-302
F.ERR 	= ******  GX	 9-343      11-467    *11-491
F.FACC	= ******  GX	*8-152
F.FFBY	= ******  GX	 9-309
F.FNB 	= ******  GX	*8-136      8-214      9-233      9-250      9-275      11-461
F.FVER	= ******  GX	 8-111
F.MBCT	= ******  GX	*8-143
F.NRBD	= ******  GX	 9-279      9-319      9-338      11-427    *11-430    *11-441     11-442    *11-442
F.OVBS	= ******  GX	*8-143
F.RACC	= ******  GX	*8-152
F.RATT	= ******  GX	*8-141
F.RCTL	= ******  GX	 8-108      8-161      8-186      9-298      9-326      10-400
F.RTYP	= ******  GX	*8-141
F.UNIT	= ******  GX	 8-173
F.URBD	= ******  GX	*8-152     *8-152
GTENT 	  001106 R	 8-220     #9-233      9-334
G.TICP	= 000016	#8-205
G.TICT	= 000014	#8-205
G.TIDA	= 000004	#8-205
G.TIHR	= 000006	#8-205
G.TIMI	= 000010	#8-205
G.TIMO	= 000002	#8-205
G.TISC	= 000012	#8-205
G.TIYR	= 000000	#8-205
HDFILL	= ******  GX	 9-287      9-287
HDRMG 	= ******  GX	 9-332      9-332
HDRTB1	= ******  GX	 9-286
HH.UAT	= ******  GX	*9-300      9-301      9-302      9-309
IFNPT 	= ******  GX	 8-73       8-82       10-385
INCSI 	= ******  GX	 10-384
INLUN 	= ******  GX	 9-267      11-473
INRACC	= ******  GX	*8-77
INSPEC	= ******  GX	 8-79      *8-107      8-118      8-131     *8-135
IOSTBK	= ******  GX	 9-267     *9-271      9-291
IO.FNA	= ******  GX	 11-473
IO.RAT	= ******  GX	 9-267
LINBFS	= ******  GX	 8-95       8-97       8-143      8-152
LINBUF	= ******  GX	 8-152
LI01MG	= 000000 R	#7-41       7-41       8-200
LI01SZ	= 000022	#7-41
LI02MG	= 000022 R	#7-42       7-42       9-281
LI02SZ	= 000005	#7-42
LI03MG	= 000027 R	#7-43       7-43       9-340
LI03SZ	= 000026	#7-43       9-339
LPTLEN	= ******  GX	 9-330
LSTNXT	  001702 R	 9-244     #10-347
MSGBL.	= ******	 7-41       7-42       7-43       7-44       7-45       7-46       7-47       7-48
MVSTRG	= ******  GX	 9-341      9-341
NAMBLK	= ******  GX	 8-72
PIPDIR     CREATED BY  MACRO  ON 27-FEB-85 AT 12:26	PAGE 3

SYMBOL CROSS REFERENCE                                  CREF

SYMBOL	VALUE		REFERENCES

NB.SDI	= ******  GX	 8-215      8-216
NB.SFN	= ******  GX	 8-136      9-233      9-275
NB.SNM	= ******  GX	 8-215      8-216
NB.STP	= ******  GX	 8-215      8-216
NMBLK1	= ******  GX	 9-251      9-267      9-278
NXINOU	= ******  GX	 10-388     10-388
N.DEVD	= 000000	#7-30
N.DID 	= ******  GX	*8-114     *8-115     *8-116
N.DIRD	= 000004	#7-30       8-189      8-190
N.DVNM	= ******  GX	*8-75      *8-86
N.FLID	= 000016	#7-30       8-112      8-114      8-115      8-116      8-183      8-199
N.FNAM	= ******  GX	 9-280
N.FNMD	= 000010	#7-30
N.FVER	= ******  GX	*11-463
N.SPEC	= 000014	#7-30       8-107
N.STAT	= ******  GX	*8-136      8-214      9-233      9-275
N.UNIT	= ******  GX	*8-76      *8-87
OFNPT 	= ******  GX	 8-71       8-83
OP02MG	= ******  GX	 8-230
OP02SZ	= ******  GX	 8-230
OURACC	= ******  GX	*8-78       8-152
OUSPEC	= ******  GX	 8-84
OUTCSI	= ******  GX	 10-387
PARSE 	= ******  GX	 8-103      8-103      8-148      8-148
PAR$$$	= 000027	#8-141      8-141     #8-143      8-143     #8-152      8-152     #11-443     11-443
PRSERR	= ******  GX	 8-105      8-105      8-150      8-150
PRSREG	= ******  GX	 10-377     10-377
RATCTL	= ******  GX	 9-267
RATEFN	= ******  GX	 9-267      9-290
RDATER	  001640 R	 9-293     #9-337
RECATT	= ******  GX	 8-156      8-156
RONLY$	= ******	 7-41       7-41       7-42       7-42       7-43       7-43       7-44       7-44       7-45
                         7-45       7-46       7-46       7-47       7-47       7-48       7-48       8-67       8-67
R$$DPB	= 000001	#1-27       9-264      11-470
R$$DYM	= 000001	#1-29
R$$EIS	= 000000	#1-28       1-38
R$$MSG	= 000000	 7-41       7-41       7-42       7-42       7-43       7-43       7-44       7-44       7-45
                         7-45       7-46       7-46       7-47       7-47       7-48       7-48
R$$11M	= 000001	#1-25       1-26       7-1        7-24       8-145
R.VAR 	= ******  GX	 8-141
SHTLST	= ******  GX	 8-202      9-258      9-283      10-348
STBLK 	= ******  GX	 9-306      9-307      9-316      9-318      9-321
STFIND	  002334 R	 8-171      8-171      9-277      9-277     #11-460
STNMBK	= ******  GX	 8-92       8-92
SYDEV 	= ******  GX	 8-86
SYDFLT	= ******  GX	 8-74      *8-75      *8-76      *8-86      *8-87
SYS40$	= ******	 1-67       7-41       7-41       7-42       7-42       7-43       7-43       7-44       7-44
                         7-45       7-45       7-46       7-46       7-47       7-47       7-48       7-48       7-49
                         7-49       8-67       8-67
SYUNIT	= ******  GX	 8-87
S.APPD	= 000010	#7-30
S.FIDS	= 000014	#7-30
PIPDIR     CREATED BY  MACRO  ON 27-FEB-85 AT 12:26	PAGE 4

SYMBOL CROSS REFERENCE                                  CREF

SYMBOL	VALUE		REFERENCES

S.FNBW	= ******  GX	 9-252
TIMEMG	= 000131 R	#7-46       7-46       8-207
TIMESZ	= 000011	#7-46
TOTHMG	= 000055 R	#7-44       7-44       8-179
TOTHSZ	= 000033	#7-44
TOTLBT	= ******  GX	 8-177      9-323      10-361     11-439
TOT1MG	= 000142 R	#7-47       7-47       10-355
TOT1SZ	= 000017	#7-47
TOT2MG	= 000161 R	#7-48       7-48       10-368
TOT2SZ	= 000026	#7-48
USDMSG	  000012 R	#7-60      *8-93       8-122     *8-124     *10-347    *10-374     10-391
VERSAV	= ******  GX	*8-111      11-463
WATQIO	  002456 R	 9-241      9-241      9-292      9-292     #11-490     11-494
X     	= 000027	#8-110      8-110     #8-110      8-110     #8-223      8-223     #8-223      8-223     #8-223
                         8-223     #8-226      8-226     #8-230      8-230     #8-230      8-230     #8-230      8-230
                        #10-395     10-395    #11-446     11-446    #11-446     11-446    #11-446     11-446
$CDDMG	= ******  GX	 10-360     10-360     10-367     10-367
$DSW  	= ******  GX	 9-271      11-477
$EDMSG	= ******  GX	 8-180      8-180      8-201      8-201      8-208      8-208      9-282      9-282      10-357
                         10-357     10-370     10-370
$$    	= 000067	#8-92       8-92      #8-96       8-96      #8-103      8-103     #8-105      8-105     #8-125
                         8-125     #8-148      8-148     #8-150      8-150     #8-156      8-156     #8-171      8-171
                        #8-180      8-180     #8-192      8-192     #8-201      8-201     #8-208      8-208     #8-219
                         8-219     #9-241      9-241     #9-243      9-243     #9-249      9-249     #9-277      9-277
                        #9-282      9-282     #9-287      9-287     #9-288      9-288     #9-292      9-292     #9-332
                         9-332     #9-333      9-333     #9-341      9-341     #9-344      9-344     #10-357     10-357
                        #10-360     10-360    #10-367     10-367    #10-370     10-370    #10-375     10-375    #10-377
                         10-377    #10-378     10-378    #10-381     10-381    #10-388     10-388    #10-404     10-404
                        #11-464     11-464    #11-466     11-466
$$$ARG	= 000006	#9-267      9-267      9-267      9-267      9-267      9-267      9-267      9-267      9-267
                         9-267      9-267      9-267     #11-473     11-473     11-473     11-473     11-473     11-473
                         11-473     11-473     11-473     11-473     11-473     11-473
$$$GLB	= ******	 8-205      8-205      8-205      8-205      8-205      8-205      8-205      8-205
$$$OST	= 000020	#8-205      8-205      8-205     #8-205      8-205      8-205     #8-205      8-205      8-205
                        #8-205      8-205      8-205     #8-205      8-205      8-205     #8-205      8-205      8-205
                        #8-205      8-205      8-205     #8-205      8-205      8-205     #8-205
$$$T1 	= 000014	#9-267      9-267     #11-473     11-473
.DYALC	= ******  GX	 8-96       8-96
.DYBUF	= ******  GX	 8-158      10-354     10-396     11-426
.FNDNX	= ******  GX	 11-466     11-466
.HDRAD	= ******  GX	*8-98       8-204      9-297
.LCLSW	= ******  GX	*8-81
.NXDIR	= ******  GX	 10-378     10-378
.OPFNB	= ******  G	 8-152      8-152
.OULCL	= ******  GX	 8-81
.PUTSQ	= ******  G	 11-443     11-443
.RDFDR	= ******  GX	 8-192      8-192
.WLDVC	= ******  GX	 11-464     11-464
PIPDIR     CREATED BY  MACRO  ON 27-FEB-85 AT 12:26	PAGE 5

MACRO CROSS REFERENCE                                   CREF

MACRO NAME	REFERENCES

ASH   		#1-64
ASHC  		#1-64
CALL  		#7-34       8-92       8-96       8-103      8-105      8-125      8-148      8-150     #8-152      8-156
                 8-171      8-180      8-192      8-201      8-208      8-219      9-241      9-243      9-249      9-277
                 9-282      9-287      9-288      9-292      9-332      9-333      9-341      9-344      10-357     10-360
                 10-367     10-370     10-375     10-377     10-378     10-381     10-388     10-404    #11-443     11-464
                 11-466
CMOV$B		#8-141     #8-141     #8-141     #8-143     #8-143     #8-143     #8-143     #8-152     #8-152     #8-152
                #8-152     #8-152     #8-152
CMOV$W		#8-141     #8-141     #8-141     #8-141     #8-143     #8-143     #8-152     #8-152     #8-152     #8-152
                #8-152     #8-152     #11-443    #11-443    #11-443
CSI$  		#7-31      #7-32
DIR$  		#8-205     #8-205     #9-267     #9-267     #11-473    #11-473    #11-493    #11-493
DIV   		#1-64
ERRINI		#4-307
ERROUT		#3-215      8-230
ERROUX		#3-222      8-110      8-223      8-226      10-395     11-446
ERROU1		#3-225     #8-110     #8-223     #8-226     #8-230     #10-395    #11-446
ERRP  		#3-247
ERRPX 		#3-253
ERRP1 		#3-256
ERR$  		#8-152     #8-152     #8-205     #9-267     #11-443    #11-443    #11-473    #11-493
ERR1  		#3-273     #8-110     #8-223     #8-226     #8-230     #10-395    #11-446
FDAT$R		#7-35      #8-141
FDBF$R		#7-35       8-143
FDOP$R		#8-152     #8-152
FDRC$R		#8-152     #8-152
FLDSOF		#5-382      7-30      #7-30
GTIM$S		#7-35       8-205
IDENT 		#5-339     #7-1
IDENT1		#5-347      7-1
IDTITL		#5-356
ILLOP 		#1-52      #1-64       1-64
IMPURE		#1-75      #7-49
LDFDB$		#8-141      8-141     #8-143      8-143     #8-152      8-152     #8-152      8-152     #11-443     11-443
MARK  		#1-64
MOV$  		#8-205      8-205     #9-267     #9-267      9-267      9-267      9-267      9-267      9-267      9-267
                 9-267      9-267      9-267      9-267     #11-473    #11-473     11-473     11-473     11-473     11-473
                 11-473     11-473     11-473     11-473     11-473     11-473    #11-493     11-493
MSG   		#2-124     #7-43      #7-44
MSGZ  		#2-129     #7-41      #7-42      #7-45      #7-46      #7-47      #7-48
MSG1  		#2-133     #7-41      #7-42      #7-43      #7-44      #7-45      #7-46      #7-47      #7-48
MUL   		#1-64
MVB$  		#9-267     #9-267     #11-473    #11-473
NOEIS$		#1-39       1-64
OFF$  		#8-205     #8-205     #8-205     #8-205     #8-205     #8-205     #8-205     #8-205     #8-205
OFNB$ 		#8-152      8-152
OFNB$W		#7-35       8-152
OPEN$W		#7-35
PURE. 		#1-84       7-41       7-42       7-43       7-44       7-45       7-46       7-47       7-48       8-67
PURE.D		#1-102
PURE.I		#1-98       8-67
PIPDIR     CREATED BY  MACRO  ON 27-FEB-85 AT 12:26	PAGE 6

MACRO CROSS REFERENCE                                   CREF

MACRO NAME	REFERENCES

PUT$  		#7-25      #7-35      #11-443
PUT$S 		#11-443     11-443
QDPB$S		#9-267      9-267     #11-473     11-473
QIO$S 		#7-34       9-267      11-473
RETURN		#7-34       11-445     11-468     11-478     11-497
RTT   		#1-64
RVP$  		#9-267      9-267     #11-473     11-473
SOB   		#1-64      #8-129     #8-196     #9-254     #11-432
SXT   		#1-64
WTSE$S		#7-34      #11-493
XOR   		#1-64
PIPFRE M0105, PIP - PRINT FREE 	MACRO M1113  27-FEB-85 12:27
TABLE OF CONTENTS

     7-    1	**** PIPFRE VERSION M0105 ****
     8-   51	PRINT FREE SPACE ON VOLUME
    10-  227	FORMAT STRINGS
PIPMAC - MACROS FOR PIP, ETC.	MACRO M1113  27-FEB-85 12:27  PAGE 6


    397
PIPFRE M0105, PIP - PRINT FREE 	MACRO M1113  27-FEB-85 12:27  PAGE 7


      1						.TITLE	PIPFRE M0105, PIP - PRINT FREE SPACE ON VOLUME
						.SBTTL	**** PIPFRE VERSION M0105 ****
						.IDENT	/M0105/
      2					; ALTERED WEDNESDAY 8-JAN-75 12:30
      3					; ALTERED TUESDAY 19-NOV-74 16:40
      4					;
      5					; COPYRIGHT 1974, 1985, DIGITAL EQUIPMENT CORP., MAYNARD MASS.
      6
      7					;			ALL RIGHTS RESERVED
      8					;
      9					; THIS SOFTWARE IS FURNISHED TO PURCHASER UNDER A LICENSE FOR USE
     10					; ON A SINGLE COMPUTER SYSTEM AND CAN BE COPIED (WITH INCLUSION
     11					; OF DEC'S COPYRIGHT NOTICE) ONLY FOR USE IN SUCH SYSTEM, EXCEPT
     12					; AS MAY OTHERWISE BE PROVIDED IN WRITING BY DEC.
     13
     14					; THE INFORMATION IN THIS DOCUMENT IS SUBJECT TO CHANGE WITHOUT
     15					; NOTICE AND SHOULD NOT BE CONSTRUED AS A COMMITMENT BY DIGITAL
     16					; EQUIPMENT CORPORATION.
     17
     18					; DEC ASSUMES NO RESPONSIBILITY FOR THE USE OR RELIABILITY
     19					; OF ITS SOFTWARE ON EQUIPMENT WHICH IS NOT SUPPLIED BY DEC.
     20					;
     21					; PETER H. LIPMAN 8-NOV-74
     22					;
     23	000000					FLDSOF			;DEFINE DESCRIPTOR POINTER OFFSETS
     24						.MCALL	CSI$
     25	000000					CSI$			;DEFINE THE CSI CONTROL BLOCK OFFSETS
     26
     27						.IF	GT,R$$11M
     28						.MACRO	OPEN$	FDB,FACC
     29						.MCALL	OFNB$
     30						OFNB$	FDB,<FACC>
     31						.ENDM	OPEN$
     32						.ENDC
     33
     34						.MCALL	CALL,RETURN,FDOP$R,FDAT$R,FDRC$R,FDBK$R,NMBLK$
     35						.MCALL	OPEN$,QIO$S,WTSE$S,READ$,WAIT$
     36
     37	000000					IMPURE
     38	000000				MAXLBN:	.BLKW	2		;MAXIMUM NO. OF BLOCKS ON VOLUME
     39	000004				NBTBLK:	.BLKW	1		;NO. OF BIT MAP BLOCKS ON VOLUME
     40	000006				MOPRM:	.BLKW	2		;PARAMETER STORAGE FOR CALL TO EDTMG
     41
     42
     43	000012					PURE.D
     44
     45	000000				FRDFNB:	NMBLK$	BITMAP,SYS,1,SY,0
     46
     47	000000					.PSECT
     48
     49	000000					MSG	MFDN,<[0,0]>
PIPFRE M0105, PIP - PRINT FREE 	MACRO M1113  27-FEB-85 12:27  PAGE 8
PRINT FREE SPACE ON VOLUME

     51						.SBTTL	PRINT FREE SPACE ON VOLUME
     52
     53	000000					PURE.I
     54
     55	000000				.FREE::
     56	000000	005767 	000000G			TST	INSPEC		;NO INPUT SPECIFER ALLOWED
     57	000004	001142 				BNE	90$		;BRANCH IF SYNTAX ERROR
     58	000006	032767 	000033 	000000G		BIT	#CS.DIF!CS.NMF!CS.WLD!CS.MOR,OUSPEC
     59	000014	001136 				BNE	90$		;BRANCH IF SYNTAX ERROR
     60	000016	012701 	001000 			MOV	#1000,R1
     61	000022					CALL	.DYALC		;ALLOCATE A BUFFER TO READ THE BITMAP
     62	000026					FDRC$R	#FDBIN,#FD.RWM
     63	000040					FDBK$R	R0,.DYBUF,#1000
     64	000054					FDOP$R	R0,,#OFNPT,#FRDFNB
     65	000070	012760 	000000G	000000G		MOV	#STBLK,F.STBK(R0) ;READ STATISTICS BLOCK ON OPEN
     66	000076	012767 	000005 	000004G		MOV	#MFDNSZ,OFNPT+N.DIRD ;FORCE MFD DIRECTORY NAME
     67	000104	012767 	000000'	000006G		MOV	#MFDNMG,OFNPT+N.DIRD+2
     68
     69						.IF	GT,R$$11M
     70	000112					CALL	PRSREG		;SET UP FOR CALL TO PARSE
     71	000116					CALL	.PARSE
     72	000122	103004 				BCC	20$		;BRANCH IF SUCCESSFUL
     73	000124					CALL	PRSERR		;ISSUE THE ERROR MESSAGE
     74	000130	000167 	000000G			JMP	CLOSX
     75	000134				20$:
     76						.ENDC
     77
     78	000134					OPEN$	R0,#FO.RD!FA.SHR
     79	000146	103003 				BCC	60$
     80	000150				50$:	ERROUX	FR01,1,0	;FAILED TO OPEN BITMAP FILE
	000150	104433 				TRAP	X
	000152	000000G				.WORD	FR01SZ
	000154	000000G				.WORD	FR01MG
     81	000156	016705 	000006G		60$:	MOV	STBLK+6,R5
     82	000162	010560 	000002G			MOV	R5,F.HIBK+2(R0)	;FIX UP FDB SO EOF IS RIGHT
     83	000166	005205 				INC	R5
     84	000170	010560 	000002G			MOV	R5,F.EFBK+2(R0)	;EOF = 1ST BYTE OF NEXT BLOCK
     85	000174	005060 	000000G			CLR	F.FFBY(R0)
     86	000200					READ$	R0		;READ VBN 1
     87	000204	103445 				BCS	RDERR
     88	000206					WAIT$	R0
     89	000212	103442 				BCS	RDERR		;BRANCH IF ERROR
     90	000214	016701 	000000G			MOV	.DYBUF,R1
     91	000220	116103 	000003 			MOVB	3(R1),R3	;NO. OF BIT MAP BLOCKS
     92	000224	010367 	000004'			MOV	R3,NBTBLK
     93	000230	006303 				ASL	R3		;CALCULATE ADDRESS OF MAXLBN
     94	000232	006303 				ASL	R3
     95	000234	060301 				ADD	R3,R1
     96	000236	062701 	000004 			ADD	#4,R1		;4 PLUS 2 WORDS FOR EACH BIT MAP BLOCK
     97	000242	012167 	000000'			MOV	(R1)+,MAXLBN
     98	000246	011167 	000002'			MOV	@R1,MAXLBN+2
     99					;
    100					; R0=FDB ADDRESS OF BITMAP, FILE IS OPEN
    101	000252					CALL	MAPFRE		;GET COUNT OF FREE BLOCKS
    102	000256	012703 	000006'			MOV	#MOPRM,R3
    103	000262	010304 				MOV	R3,R4
    104	000264	010013 				MOV	R0,@R3
PIPFRE M0105, PIP - PRINT FREE 	MACRO M1113  27-FEB-85 12:27  PAGE 8-1
PRINT FREE SPACE ON VOLUME

    105	000266	062723 	000000G			ADD	#F.DVNM,(R3)+	;ADDRESS OF DEVICE NAME
    106	000272	016023 	000000G			MOV	F.UNIT(R0),(R3)+ ;UNIT NUMBER
    107	000276	012703 	000053'			MOV	#LO45MG,R3
    108	000302					CALL	PRTFRE
    109	000306	000167 	000000G			JMP	CLOSX
    110	000312				90$:	ERROUX	CR01		;SYNTAX ERROR
	000312	104403 				TRAP	X
	000314	000000G				.WORD	CR01SZ
	000316	000000G				.WORD	CR01MG
    111	000320				RDERR:	ERROUX	CP13,0,0	;READ ERROR
	000320	104427 				TRAP	X
	000322	000000G				.WORD	CP13SZ
	000324	000000G				.WORD	CP13MG
PIPFRE M0105, PIP - PRINT FREE 	MACRO M1113  27-FEB-85 12:27  PAGE 9
PRINT FREE SPACE ON VOLUME

    113					;+
    114					; PRINT THE FREE BLOCK INFORMATION
    115					; CALLING SEQUENCE:
    116					;	CALL	PRTFRE
    117					; INPUTS:
    118					;	R1,R2 = FREE BLOCK COUNT (R2 = LOW ORDER BITS)
    119					;	R3=FORMAT STRING FOR INITIAL MESSAGE
    120					;	R4=PARAMETER BLOCK ADDRESS FOR INITIAL MESSAGE
    121					;	MAXLBN, MAXLBN+2 = TOTAL BLOCKS ON DEVICE
    122					; OUTPUTS:
    123					;	ALL REGISTERS ALTERED
    124					; OPERATION:
    125					;	CALL EDMSG WITH FIRST PART OF MESSAGE AS SPECIFIED IN
    126					; THE FORAMT STRING AND PARAMETER BLOCK ADDRESS
    127					;	THEN IT FORMATS THE STRING:
    128					;	NNN. BLOCKS FREE, NNN. BLOCKS USED OUT OF NNN.
    129					; WHERE THE NNN VALUES ARE ALL COVERTED FROM DOUBLE PRECISION BINARY
    130					;-
    131	000326	010246 			PRTFRE:	MOV	R2,-(SP)
    132	000330	010146 				MOV	R1,-(SP)	;SP = ADR OF DBL PRECISION FREE COUNT
    133	000332	010301 				MOV	R3,R1		;SET UP TO CALL EDMSG
    134	000334	010402 				MOV	R4,R2
    135	000336	012700 	000000G			MOV	#LINBUF,R0	;CONVERTS STRING INTO OUTPUT BUFFER
    136	000342					CALL	$EDMSG
    137	000346	010601 				MOV	SP,R1		;R1=ADR OF 2 WORD FREE COUNT
    138	000350	005002 				CLR	R2		;ZERO SUPPRESS
    139	000352					CALL	$CDDMG		;CONVERT DBL PRECISION TO DECIMAL MAG
    140	000356	012701 	000005'			MOV	#LO40MG,R1
    141	000362	005002 				CLR	R2
    142	000364					CALL	$EDMSG		;". BLOCKS FREE "
    143					;
    144					; CALCULATE HOW MANY BLOCKS ARE USED
    145	000370	016701 	000000'			MOV	MAXLBN,R1
    146	000374	016702 	000002'			MOV	MAXLBN+2,R2
    147	000400	166602 	000002 			SUB	2(SP),R2
    148	000404	005601 				SBC	R1
    149	000406	162601 				SUB	(SP)+,R1
    150	000410	010216 				MOV	R2,@SP
    151	000412	010146 				MOV	R1,-(SP)
    152	000414	010601 				MOV	SP,R1		;R1=ADR OF 2 WORD USED COUNT
    153	000416	005002 				CLR	R2		;ZERO SUPPRESS
    154	000420					CALL	$CDDMG		;CONVERT TO MAGNITUDE DECIMAL
    155	000424	022626 				CMP	(SP)+,(SP)+	;CLEAR 2 WORDS FROM STACK
    156	000426	012701 	000025'			MOV	#LO41MG,R1
    157	000432	005002 				CLR	R2
    158	000434					CALL	$EDMSG		;". BLOCKS USED OUT OF "
    159	000440	012701 	000000'			MOV	#MAXLBN,R1	;R1=ADR OF 2 WORD TOTAL BLOCK COUNT
    160	000444	005002 				CLR	R2
    161	000446					CALL	$CDDMG
    162	000452	112720 	000056 			MOVB	#'.,(R0)+
    163	000456	112720 	000015 			MOVB	#15,(R0)+	;ADD CR
    164	000462	112720 	000012 			MOVB	#12,(R0)+	;AND LF
    165	000466	162700 	000000G			SUB	#LINBUF,R0	;R0=NO. OF BYTES TO WRITE
    166	000472					QIO$S	#IO.WVB,#CMOLUN,#FNAEFN,,,,<#LINBUF,R0,#0>
    167	000532	103405 				BCS	20$
    168	000534					WTSE$S	#FNAEFN
    169	000546				20$:	RETURN
PIPFRE M0105, PIP - PRINT FREE 	MACRO M1113  27-FEB-85 12:27  PAGE 10
PRINT FREE SPACE ON VOLUME

    171					;
    172					; COUNT THE FREE BLOCKS IN A BIT MAP
    173					; INPUTS:
    174					;	R0=FDB OF DESIRED BIT MAP
    175					;	FBTBLK = FIRST VBN OF BIT MAP BLOCKS
    176					;	NBTBLK = NO. OF BIT MAP BLOCKS
    177					; OUTPUTS:
    178					;	R1,R2=NO. OF FREE BLOCKS
    179					;	R0 PRESERVED, R3-R5 ALTERED
    180	000550	010046 			MAPFRE:	MOV	R0,-(SP)
    181	000552	016704 	000000'			MOV	MAXLBN,R4
    182	000556	016705 	000002'			MOV	MAXLBN+2,R5	;NUMBER OF BLOCKS TO CHECK
    183	000562	016703 	000004'			MOV	NBTBLK,R3	;NUMBER OF BIT MAP BLOCKS
    184	000566	005002 				CLR	R2
    185	000570	005001 				CLR	R1
    186	000572	011600 			10$:	MOV	@SP,R0
    187	000574					CALL	BITCNT
    188	000600	060002 				ADD	R0,R2
    189	000602	005501 				ADC	R1
    190	000604	162705 	010000 			SUB	#10000,R5
    191	000610	005604 				SBC	R4
    192	000612					SOB	R3,10$
    193	000616	012600 				MOV	(SP)+,R0
    194	000620					RETURN
    195					;
    196					; COUNT THE FREE BLOCKS IN THE BIT MAP BLOCK ABOUT TO BE READ
    197					; INPUTS:
    198					;	R0=FDB OF BIT MAP FILE, RECORD NUMBER SET TO NEXT BLOCK TO READ
    199					;	R4,R5=NO. OF LOGICAL BLOCKS LEFT TO CHECK IN BITMAP
    200					; OUTPUTS:
    201					;	R0=COUNT OF FREE BLOCKS
    202					;	R1-R5 PRESERVED
    203	000622				BITCNT:	READ$	R0
    204	000626	103434 				BCS	60$
    205	000630					WAIT$	R0
    206	000634	103431 				BCS	60$
    207	000636	004567 	000000G			JSR	R5,.SAVR1	;SAVE REGISTERS R1-R5
    208	000642	005000 				CLR	R0		;INIT FREE BLOCK COUNTER
    209	000644	005704 				TST	R4		;IF HIGH ORDER BITS OF LBN COUNT NOT 0
    210	000646	001402 				BEQ	10$
    211	000650	012705 	010000 			MOV	#10000,R5	;GUARANTEE THAT WE CHECK ALL BITS
    212	000654	012704 	000400 		10$:	MOV	#256.,R4	;NO. OF WORDS
    213	000660	016703 	000000G			MOV	.DYBUF,R3	;R3=ADDRESS OF BITMAP BLOCK
    214	000664	012702 	000020 		20$:	MOV	#16.,R2		;NO. OF BITS PER WORD
    215	000670	012301 				MOV	(R3)+,R1	;GET NEXT WORD TO R1
    216	000672	000241 			30$:	CLC
    217	000674	006001 				ROR	R1
    218	000676	103001 				BCC	40$
    219	000700	005200 				INC	R0		;COUNT BITS THAT ARE ON
    220	000702	005305 			40$:	DEC	R5
    221	000704	001404 				BEQ	50$		;BRANCH IF RUN OUT OF BLOCKS TO CHECK
    222	000706					SOB	R2,30$
    223	000712					SOB	R4,20$
    224	000716				50$:	RETURN
    225	000720	000167 	177374 		60$:	JMP	RDERR
    226
    227						.SBTTL	FORMAT STRINGS
PIPFRE M0105, PIP - PRINT FREE 	MACRO M1113  27-FEB-85 12:27  PAGE 10-1
FORMAT STRINGS

    228	000000					.PSECT
    229
    230	000000					MSGZ	LO40,<. BLOCKS FREE, >
    231	000000					MSGZ	LO41,<. BLOCKS USED OUT OF >
    232	000000					MSGZ	LO45,<%N%N%2A%O: HAS >
    233						.EVEN
    234					;
    235					;
    236		000001 				.END
PIPFRE M0105, PIP - PRINT FREE 	MACRO M1113  27-FEB-85 12:27  PAGE 10-2
SYMBOL TABLE

BITCNT  000622R     005	C.STAT= 000001   	IO.WVB= ****** GX	N.FVER= 000016   	S.FNBW= 000017
CLOSX = ****** GX	C.SWAD= 000022   	LINBUF= ****** GX	N.NEXT= 000022   	S.FNTY= 000004
CMOLUN= ****** GX	C.TYPR= 000000   	LO40MG= 000005R     004	N.SPEC= 000014   	S.FTYP= 000002
CP13MG= ****** GX	FA.SHR= ****** GX	LO40SZ= 000020   	N.STAT= 000020   	S.NFEN= 000020
CP13SZ= ****** GX	FDBIN = ****** GX	LO41MG= 000025R     004	N.UNIT= 000034   	X     = 000027
CR01MG= ****** GX	FD.RWM= ****** GX	LO41SZ= 000026   	OFNPT = ****** GX	$CDDMG= ****** GX
CR01SZ= ****** GX	FNAEFN= ****** GX	LO45MG= 000053R     004	OUSPEC= ****** GX	$EDMSG= ****** GX
CS.DIF= 000002   	FO.RD = ****** GX	LO45SZ= 000020   	PAR$$$= 000000   	$$    = 000067
CS.DVF= 000004   	FRDFNB  000000R     003	MAPFRE  000550R     005	PRSERR= ****** GX	$$$ARG= 000003
CS.EQU= 000040   	FR01MG= ****** GX	MAXLBN  000000R     002	PRSREG= ****** GX	$$$T1 = 000011
CS.INP= 000001   	FR01SZ= ****** GX	MFDNMG= 000000R     004	PRTFRE  000326R     005	.DYALC= ****** GX
CS.MOR= 000020   	F.BKDS= ****** GX	MFDNSZ= 000005   	RDERR   000320R     005	.DYBUF= ****** GX
CS.NMF= 000001   	F.DFNB= ****** GX	MOPRM   000006R     002	R$$DPB= 000001   	.FREE   000000RG    005
CS.OUT= 000002   	F.DSPT= ****** GX	NBTBLK  000004R     002	R$$DYM= 000001   	.OPFNB= ****** G
CS.WLD= 000010   	F.DVNM= ****** GX	N.DEVD= 000000   	R$$EIS= 000000   	.PARSE= ****** GX
C.CMLD= 000002   	F.EFBK= ****** GX	N.DID = 000024   	R$$MSG= 000000   	.READ = ****** G
C.DEVD= 000006   	F.FACC= ****** GX	N.DIRD= 000004   	R$$11M= 000001   	.SAVR1= ****** GX
C.DIRD= 000012   	F.FFBY= ****** GX	N.DVNM= 000032   	STBLK = ****** GX	.WAIT = ****** G
C.DSDS= 000006   	F.HIBK= ****** GX	N.FID = 000000   	S.APPD= 000010   	...PC1= 000000
C.FILD= 000016   	F.RACC= ****** GX	N.FLID= 000016   	S.FIDS= 000014   	...PC2= 000034R     003
C.MKW1= 000024   	F.STBK= ****** GX	N.FNAM= 000006   	S.FNAM= 000006   	...PC3= 000000
C.MKW2= 000026   	F.UNIT= ****** GX	N.FNMD= 000010   	S.FNB = 000036   	...TPC= 000036
C.SIZE= 000054   	INSPEC= ****** GX	N.FTYP= 000014

. ABS.	000000	   000
      	000000	   001
IMPURE	000012	   002
PURE$D	000036	   003
MSGSTR	000073	   004
PURE$I	000724	   005
ERRORS DETECTED:  0

VIRTUAL MEMORY USED:  5384 WORDS  ( 22 PAGES)
DYNAMIC MEMORY:  6734 WORDS  ( 25 PAGES)
ELAPSED TIME:  00:00:26
[43,10]PIPFRE,[43,20]PIPFRE/-SP/CR=[43,30]PIPMAC,PIPFRE
PIPFRE     CREATED BY  MACRO  ON 27-FEB-85 AT 12:27	PAGE 1

SYMBOL CROSS REFERENCE                                  CREF

SYMBOL	VALUE		REFERENCES

BITCNT	  000622 R	 10-187     10-187    #10-203
CLOSX 	= ******  GX	 8-74       8-109
CMOLUN	= ******  GX	 9-166
CP13MG	= ******  GX	 8-111
CP13SZ	= ******  GX	 8-111
CR01MG	= ******  GX	 8-110
CR01SZ	= ******  GX	 8-110
CS.DIF	= 000002	 8-58
CS.MOR	= 000020	 8-58
CS.NMF	= 000001	 8-58
CS.WLD	= 000010	 8-58
FA.SHR	= ******  GX	 8-78
FDBIN 	= ******  GX	 8-62       8-62
FD.RWM	= ******  GX	 8-62
FNAEFN	= ******  GX	 9-166      9-168
FO.RD 	= ******  GX	 8-78
FRDFNB	  000000 R	#7-45       8-64
FR01MG	= ******  GX	 8-80
FR01SZ	= ******  GX	 8-80
F.BKDS	= ******  GX	*8-63      *8-63
F.DFNB	= ******  GX	*8-64
F.DSPT	= ******  GX	*8-64
F.DVNM	= ******  GX	 8-105
F.EFBK	= ******  GX	*8-84
F.FACC	= ******  GX	*8-78
F.FFBY	= ******  GX	*8-85
F.HIBK	= ******  GX	*8-82
F.RACC	= ******  GX	*8-62
F.STBK	= ******  GX	*8-65
F.UNIT	= ******  GX	 8-106
INSPEC	= ******  GX	 8-56
IO.WVB	= ******  GX	 9-166
LINBUF	= ******  GX	 9-135      9-165      9-166
LO40MG	= 000005 R	 9-140     #10-230     10-230
LO40SZ	= 000020	#10-230
LO41MG	= 000025 R	 9-156     #10-231     10-231
LO41SZ	= 000026	#10-231
LO45MG	= 000053 R	 8-107     #10-232     10-232
LO45SZ	= 000020	#10-232
MAPFRE	  000550 R	 8-101      8-101     #10-180
MAXLBN	  000000 R	#7-38      *8-97      *8-98       9-145      9-146      9-159      10-181     10-182
MFDNMG	= 000000 R	#7-49       7-49       8-67
MFDNSZ	= 000005	#7-49       8-66
MOPRM 	  000006 R	#7-40       8-102
MSGBL.	= ******	 7-49       10-230     10-231     10-232
NBTBLK	  000004 R	#7-39      *8-92       10-183
N.DEVD	= 000000	#7-23
N.DIRD	= 000004	#7-23      *8-66      *8-67
N.DVNM	= 000032	 7-45
N.FLID	= 000016	#7-23
N.FNAM	= 000006	 7-45
N.FNMD	= 000010	#7-23
PIPFRE     CREATED BY  MACRO  ON 27-FEB-85 AT 12:27	PAGE 2

SYMBOL CROSS REFERENCE                                  CREF

SYMBOL	VALUE		REFERENCES

N.FTYP	= 000014	 7-45
N.FVER	= 000016	 7-45
N.SPEC	= 000014	#7-23
N.UNIT	= 000034	 7-45
OFNPT 	= ******  GX	 8-64      *8-66      *8-67
OUSPEC	= ******  GX	 8-58
PAR$$$	= 000000	#8-62       8-62      #8-63       8-63      #8-64       8-64      #8-78       8-78      #8-86
                         8-86      #8-88       8-88      #10-203     10-203    #10-205     10-205
PRSERR	= ******  GX	 8-73       8-73
PRSREG	= ******  GX	 8-70       8-70
PRTFRE	  000326 R	 8-108      8-108     #9-131
RDERR 	  000320 R	 8-87       8-89      #8-111      10-225
RONLY$	= ******	 7-43       7-43       7-49       7-49       8-53       8-53       10-230     10-230     10-231
                         10-231     10-232     10-232
R$$DPB	= 000001	#1-27
R$$DYM	= 000001	#1-29
R$$EIS	= 000000	#1-28       1-38
R$$MSG	= 000000	 7-49       7-49       10-230     10-230     10-231     10-231     10-232     10-232
R$$11M	= 000001	#1-25       1-26       7-1        7-27       8-69
STBLK 	= ******  GX	 8-65       8-81
SYS40$	= ******	 1-67       7-37       7-37       7-43       7-43       7-49       7-49       8-53       8-53
                         10-230     10-230     10-231     10-231     10-232     10-232
S.APPD	= 000010	#7-23
S.FIDS	= 000014	#7-23
S.FNAM	= 000006	 7-45       7-45
S.FNB 	= 000036	 7-45
S.FTYP	= 000002	 7-45       7-45
X     	= 000027	#8-80       8-80      #8-80       8-80      #8-80       8-80      #8-110      8-110     #8-111
                         8-111     #8-111      8-111     #8-111      8-111
$CDDMG	= ******  GX	 9-139      9-139      9-154      9-154      9-161      9-161
$EDMSG	= ******  GX	 9-136      9-136      9-142      9-142      9-158      9-158
$$    	= 000067	#8-61       8-61      #8-70       8-70      #8-71       8-71      #8-73       8-73      #8-101
                         8-101     #8-108      8-108     #9-136      9-136     #9-139      9-139     #9-142      9-142
                        #9-154      9-154     #9-158      9-158     #9-161      9-161     #10-187     10-187
$$$ARG	= 000003	#9-166      9-166      9-166      9-166      9-166      9-166      9-166      9-166      9-166
                         9-166      9-166      9-166
$$$T1 	= 000011	#9-166      9-166
.DYALC	= ******  GX	 8-61       8-61
.DYBUF	= ******  GX	 8-63       8-90       10-213
.FREE 	  000000 RG	#8-55
.OPFNB	= ******  G	 8-78       8-78
.PARSE	= ******  GX	 8-71       8-71
.READ 	= ******  G	 8-86       8-86       10-203     10-203
.SAVR1	= ******  GX	 10-207
.WAIT 	= ******  G	 8-88       8-88       10-205     10-205
...PC1	= 000000 R	 7-45       7-45      #7-45       7-45       7-45       7-45       7-45       7-45       7-45
                        #7-45
...PC2	= 000034 R	#7-45       7-45       7-45      #7-45       7-45       7-45      #7-45       7-45      #7-45
                         7-45
...PC3	= 000000	#7-45       7-45
PIPFRE     CREATED BY  MACRO  ON 27-FEB-85 AT 12:27	PAGE 3

MACRO CROSS REFERENCE                                   CREF

MACRO NAME	REFERENCES

ASH   		#1-64
ASHC  		#1-64
CALL  		#7-34       8-61       8-70       8-71       8-73      #8-78      #8-86      #8-88       8-101      8-108
                 9-136      9-139      9-142      9-154      9-158      9-161      10-187    #10-203    #10-205
CMOV$B		#8-62       8-62      #8-63       8-63      #8-64       8-64       8-64      #8-78      #8-78       8-78
                 8-78      #8-78       8-78      #8-86       8-86      #8-88       8-88      #10-203     10-203    #10-205
                 10-205
CMOV$W		#8-62       8-62       8-62      #8-63       8-63       8-63       8-63       8-63      #8-64       8-64
                 8-64      #8-78       8-78       8-78      #8-78       8-78       8-78      #8-86       8-86       8-86
                 8-86       8-86      #8-88       8-88      #10-203     10-203     10-203     10-203     10-203    #10-205
                 10-205
CMOV$2		#8-63      #8-63      #8-86      #8-86      #10-203    #10-203
CSI$  		#7-24      #7-25
CWORD$		#7-45      #7-45      #7-45
DIR$  		#9-166      9-166     #9-168      9-168
DIV   		#1-64
ERRINI		#4-307
ERROUT		#3-215
ERROUX		#3-222      8-80       8-110      8-111
ERROU1		#3-225     #8-80      #8-110     #8-111
ERRP  		#3-247
ERRPX 		#3-253
ERRP1 		#3-256
ERR$  		#8-78       8-78      #8-86       8-86      #8-88       8-88      #9-166     #9-168     #10-203     10-203
                #10-205     10-205
ERR1  		#3-273     #8-80      #8-110     #8-111
FDAT$R		#7-34
FDBK$R		#7-34      #8-63      #8-86      #8-86      #10-203    #10-203
FDOP$R		#7-34       8-64      #8-78       8-78
FDRC$R		#7-34       8-62      #8-78       8-78
FLDSOF		#5-382     #7-23      #7-23
IDENT 		#5-339     #7-1
IDENT1		#5-347      7-1
IDTITL		#5-356
ILLOP 		#1-52      #1-64       1-64
IMPURE		#1-75      #7-37
LDFDB$		#8-62      #8-62      #8-63      #8-63      #8-64      #8-64      #8-78      #8-78      #8-78      #8-78
                #8-86      #8-86      #8-88      #8-88      #10-203    #10-203    #10-205    #10-205
MARK  		#1-64
MOV$  		#9-166     #9-166      9-166      9-166      9-166      9-166      9-166      9-166      9-166     #9-168
                 9-168
MSG   		#2-124     #7-49
MSGZ  		#2-129     #10-230    #10-231    #10-232
MSG1  		#2-133     #7-49      #10-230    #10-231    #10-232
MUL   		#1-64
MVB$  		#9-166      9-166
NBOFF$		#7-45      #7-45
NMBLK$		#7-34      #7-45
NOEIS$		#1-39       1-64
OFNB$ 		#8-78      #8-78
OPEN$ 		#7-28      #7-35       8-78
PURE. 		#1-84       7-43       7-49       8-53       10-230     10-231     10-232
PIPFRE     CREATED BY  MACRO  ON 27-FEB-85 AT 12:27	PAGE 4

MACRO CROSS REFERENCE                                   CREF

MACRO NAME	REFERENCES

PURE.D		#1-102      7-43
PURE.I		#1-98       8-53
QDPB$S		#9-166      9-166
QIO$S 		#7-35      #9-166
RAD50$		#7-45      #7-45      #7-45
READ$ 		#7-35      #8-86      #10-203
RETURN		#7-34       9-169      10-194     10-224
RTT   		#1-64
RVP$  		#9-166     #9-166
SOB   		#1-64      #10-192    #10-222    #10-223
SXT   		#1-64
WAIT$ 		#7-35       8-88       10-205
WTSE$S		#7-35       9-168
XOR   		#1-64
PIPPRO M0206, SET FILE PROTECTI	MACRO M1113  27-FEB-85 12:27
TABLE OF CONTENTS

     7-    1	**** PIPPRO VERSION M0206 ****
PIPMAC - MACROS FOR PIP, ETC.	MACRO M1113  27-FEB-85 12:27  PAGE 6


    397
PIPPRO M0206, SET FILE PROTECTI	MACRO M1113  27-FEB-85 12:27  PAGE 7


      1						.TITLE	PIPPRO M0206, SET FILE PROTECTION COMMAND-PIP
						.SBTTL	**** PIPPRO VERSION M0206 ****
						.IDENT	/M0206/
      2					; ALTERED WEDNESDAY 8-JAN-75 12:00
      3					;
      4					; COPYRIGHT 1974, 1985, DIGITAL EQUIPMENT CORP., MAYNARD MASS.
      5
      6					;			ALL RIGHTS RESERVED
      7					;
      8					; THIS SOFTWARE IS FURNISHED TO PURCHASER UNDER A LICENSE FOR USE
      9					; ON A SINGLE COMPUTER SYSTEM AND CAN BE COPIED (WITH INCLUSION
     10					; OF DEC'S COPYRIGHT NOTICE) ONLY FOR USE IN SUCH SYSTEM, EXCEPT
     11					; AS MAY OTHERWISE BE PROVIDED IN WRITING BY DEC.
     12
     13					; THE INFORMATION IN THIS DOCUMENT IS SUBJECT TO CHANGE WITHOUT
     14					; NOTICE AND SHOULD NOT BE CONSTRUED AS A COMMITMENT BY DIGITAL
     15					; EQUIPMENT CORPORATION.
     16
     17					; DEC ASSUMES NO RESPONSIBILITY FOR THE USE OR RELIABILITY
     18					; OF ITS SOFTWARE ON EQUIPMENT WHICH IS NOT SUPPLIED BY DEC.
     19					;
     20					; PETER H. LIPMAN	2-MAY-74
     21
     22						.MCALL	FDOF$L
     23	000000					FDOF$L			;DEFINE FDB OFFSETS LOCALLY
     24						.MCALL	CALL,RETURN
     25					; EXAMPLE:
     26					;	TEST.DAT;5/PRO/WOR:R/OWN:RWE/GRP:R/SYS:RWE
     27					; THE SUB SWITCHES ARE
     28					;	/SYSTEM
     29					;	/OWNER
     30					;	/GROUP
     31					;	/WORLD
     32					; THE VALUES FOR ANY OF THESE SWITCHES IS UP TO 4 ASCII
     33					; CHARACTERS IN ANY ORDER WHERE:
     34					;	R=READ PRIVILEGE
     35					;	W=WRITE PRIVILEGE
     36					;	E=EXTEND PRIVILEGE
     37					;	D=DELETE PRIVILEGE
     38					; IF A GIVEN SUB SWITCH IS SPECIFIED AND NO VALUE FOR THAT SWITCH IS
     39					; SPECIFIED, THEN NO PRIVILEGES ARE GRANTED FOR THAT
     40					; GROUP.  IF A GIVEN SUB SWITCH ISN'T MENTIONED, THE PRIVILEGES
     41					; FOR THAT GROUP ARE UNCHANGED.
     42					;
     43
     44
     45	000000					PURE.I
     46
     47	000000				PROTCT::
     48	000000	012701 	001000 			MOV	#1000,R1	;ALLOCATE A HEADER BUFFER
     49	000004					CALL	.DYALC
     50	000010	010067 	000000G			MOV	R0,.HDRAD	;AND SAVE IT'S ADDRESS IN .HDRAD
     51	000014					CALL	FSTOUT		;SET UP FOR FIRST FILE IN OUTPUT LIST
     52	000020	012700 	000000G			MOV	#FDBOUT,R0
     53	000024	052767 	000000G	000000G	PROTC1:	BIS	#FRSTIM,CPYCTL
     54	000032					CALL	PARSE
     55	000036	103003 				BCC	10$
PIPPRO M0206, SET FILE PROTECTI	MACRO M1113  27-FEB-85 12:27  PAGE 7-1
**** PIPPRO VERSION M0206 ****

     56	000040					CALL	PRSERR
     57	000044	000545 				BR	PRONXT
     58	000046	132760 	000000G	000017 	10$:	BITB	#FD.DIR,F.RCTL(R0) ;MUST BE A DIRECTORY DEVICE
     59	000054	001003 				BNE	20$		;BRANCH IF IT IS
     60	000056					ERROUX	DI08,1		;ERROR
	000056	104413 				TRAP	X
	000060	000000G				.WORD	DI08SZ
	000062	000000G				.WORD	DI08MG
     61	000064	016067 	000120 	000000G	20$:	MOV	F.FVER(R0),VERSAV
     62	000072	016760 	000000G	000120 	PROTC2:	MOV	VERSAV,F.FVER(R0)
     63	000100					CALL	FNDNXT
     64	000104	103512 				BCS	70$
     65	000106	042767 	000000G	000000G		BIC	#FRSTIM,CPYCTL
     66	000114					CALL	.GFOWN		;SET UP FILE OWNER FOR /FO OPTION
     67					;
     68					; READ ATTRIBUTES
     69	000120	016702 	000000G			MOV	PROWRD,R2
     70	000124	022702 	177777 			CMP	#-1,R2		;WAS PROTECTION VALUE SPECIFIED
     71	000130	001050 				BNE	65$		;BRANCH IF YES, DON'T READ ATTRIBUTES
     72	000132	012701 	000102G			MOV	#FDBOUT+F.FNB,R1
     73	000136					CALL	RDATT
     74	000142	103476 				BCS	85$		;BRANCH IF FAILED TO READ ATTRIBUTES
     75	000144	012701 	000004 			MOV	#4,R1		;NUMBER OF GROUPS
     76	000150	016703 	000000G			MOV	.HDRAD,R3
     77	000154	016303 	000000G			MOV	HH.FP(R3),R3	;R3=CURRENT PROTECTION
     78	000160	005002 				CLR	R2
     79	000162	012704 	000000G			MOV	#WOPROB,R4	;WORLD PROTECTION BIT
     80	000166	012705 	000000G			MOV	#WORPRO,R5	;ADR FOR ARRAY OF PROT CODES
     81	000172				40$:
     82						.IF	GT,R$$EIS
     83						ASHC	#4,R2		;SHIFT NEXT GROUP INTO R2
     84						.IFF
     85	000172	012746 	000004 			MOV	#4,-(SP)
     86	000176	006303 			42$:	ASL	R3		;COMBINED SHIFT 1 BIT
     87	000200	006102 				ROL	R2
     88	000202	005316 				DEC	(SP)		;4 TIMES
     89	000204	003374 				BGT	42$
     90	000206	005726 				TST	(SP)+
     91						.ENDC
     92
     93	000210	030467 	000000G			BIT	R4,CPYCTL	;SWITCH SPECIFIED FOR THIS GROUP
     94	000214	001003 				BNE	45$		;BRANCH IF YES
     95	000216	062705 	000004 			ADD	#4,R5		;SKIP PROTECTION CODES FOR THIS GROUP
     96	000222	000410 				BR	60$
     97	000224	052702 	000017 		45$:	BIS	#17,R2		;YES, SET (NO ACCESS) PROTECTION BITS
     98	000230	012700 	000004 			MOV	#4,R0		;LOOK AT 4 CHARS OF PROT CODE
     99	000234				50$:	CALL	PROBIT
    100	000240					SOB	R0,50$
    101	000244	006304 			60$:	ASL	R4		;BIT FOR NEXT PROTECTION GROUP
    102	000246					SOB	R1,40$
    103					;
    104					; NOW R2=NEW PROTECTION CODE WORD, WRITE ATTRIBUTES
    105	000252	010277 	000000G		65$:	MOV	R2,@.HDRAD
    106	000256	010605 				MOV	SP,R5		;PRESERVE THE STACK POINTER
    107	000260	005046 				CLR	-(SP)		;PUSH THE ATTRIBUTE LIST
    108	000262	016746 	000000G			MOV	.HDRAD,-(SP)	;WRITE THE PROTECTION WORD
    109	000266	012746 	000000G			MOV	#HA.FP,-(SP)
PIPPRO M0206, SET FILE PROTECTI	MACRO M1113  27-FEB-85 12:27  PAGE 7-2
**** PIPPRO VERSION M0206 ****

    110	000272	005767 	000000G			TST	.FOWNR		;FORCING FILE OWNER THE SAME AS DIRECTORY
    111	000276	001404 				BEQ	68$		;BRANCH IF NO
    112	000300	012746 	000000G			MOV	#.FOWNR,-(SP)	;WRITE THE FILE OWNER
    113	000304	012746 	000000G			MOV	#HA.UI,-(SP)
    114	000310	010601 			68$:	MOV	SP,R1
    115	000312	012700 	000000G			MOV	#FDBOUT,R0
    116	000316	010546 				MOV	R5,-(SP)	;R5 IS DESTOYED BY WRITE ATT ERROR
    117	000320					CALL	WRTATT		;ISSUE THE WRITE ATTRIBUTES QI/O AND WAIT
    118	000324	012605 				MOV	(SP)+,R5
    119	000326	010506 				MOV	R5,SP		;RESTORE THE STACK
    120	000330	000406 				BR	PRONX1
    121					;
    122					; FAILED TO FIND FILE
    123	000332				70$:	CALL	FNDERR
    124	000336	000410 				BR	PRONXT
    125					;
    126					; FAILED TO READ ATTRIBUTES
    127	000340				85$:	ERROUT	UN02,0,0
	000340	104426 				TRAP	X
	000342	000000G				.WORD	UN02SZ
	000344	000000G				.WORD	UN02MG
    128					;
    129					; COME HERE TO CONTINUE WITH NEXT WILD CARD FILE
    130	000346	012700 	000000G		PRONX1:	MOV	#FDBOUT,R0
    131	000352					CALL	NXTFIL		;ANY MORE FILES IN THIS FILE SPEC?
    132	000356	103245 				BCC	PROTC2		;BRANCH IF YES, PROCESS THE NEXT
    133					;
    134					; DO NEXT FILE IN LIST IF ANY MORE
    135	000360				PRONXT:	CALL	INIPRO		;REINIT THE PROTECTION VALUES
    136	000364					CALL	NXTOUT
    137	000370	103215 				BCC	PROTC1		;BRANCH IF MORE FILES TO DO
    138	000372	000167 	000000G			JMP	CLOSX
    139					;
    140					; CHECK CHAR @R5 AGAINST CHARS "RWED", IF ONE OF THOSE, CLEAR
    141					; APPROPRIATE BIT IN R2.  BUMP R5 ON EXIT
    142	000376	122715 	000122 		PROBIT:	CMPB	#'R,@R5
    143	000402	001002 				BNE	10$
    144	000404	042702 	000000G			BIC	#HF.RDV,R2
    145	000410	122715 	000127 		10$:	CMPB	#'W,@R5
    146	000414	001002 				BNE	20$
    147	000416	042702 	000000G			BIC	#HF.WRV,R2
    148	000422	122715 	000105 		20$:	CMPB	#'E,@R5
    149	000426	001002 				BNE	30$
    150	000430	042702 	000000G			BIC	#HF.EXT,R2
    151	000434	122725 	000104 		30$:	CMPB	#'D,(R5)+
    152	000440	001002 				BNE	40$
    153	000442	042702 	000000G			BIC	#HF.DEL,R2
    154	000446				40$:	RETURN
    155					;
    156					;
    157		000001 				.END
PIPPRO M0206, SET FILE PROTECTI	MACRO M1113  27-FEB-85 12:27  PAGE 7-3
SYMBOL TABLE

CLOSX = ****** GX	F.DSPT= 000044   	F.RCNM= 000034   	N.FID = 000000   	S.FATT= 000016
CPYCTL= ****** GX	F.DVNM= 000134   	F.RCTL= 000017   	N.FNAM= 000006   	S.FDB = 000140
DI08MG= ****** GX	F.EFBK= 000010   	F.RSIZ= 000002   	N.FTYP= 000014   	S.FNAM= 000006
DI08SZ= ****** GX	F.EFN = 000050   	F.RTYP= 000000   	N.FVER= 000016   	S.FNB = 000036
FDBOUT= ****** GX	F.EOBB= 000032   	F.STBK= 000036   	N.NEXT= 000022   	S.FNBW= 000017
FD.DIR= ****** GX	F.ERR = 000052   	F.UNIT= 000136   	N.STAT= 000020   	S.FNTY= 000004
FNDERR= ****** GX	F.FACC= 000043   	F.URBD= 000020   	N.UNIT= 000034   	S.FTYP= 000002
FNDNXT= ****** GX	F.FFBY= 000014   	F.VBN = 000064   	PARSE = ****** GX	S.NFEN= 000020
FRSTIM= ****** GX	F.FNAM= 000110   	F.VBSZ= 000060   	PROBIT  000376R     002	UN02MG= ****** GX
FSTOUT= ****** GX	F.FNB = 000102   	HA.FP = ****** GX	PRONXT  000360R     002	UN02SZ= ****** GX
F.ALOC= 000040   	F.FTYP= 000116   	HA.UI = ****** GX	PRONX1  000346R     002	VERSAV= ****** GX
F.BBFS= 000062   	F.FVER= 000120   	HF.DEL= ****** GX	PROTCT  000000RG    002	WOPROB= ****** GX
F.BDB = 000070   	F.HIBK= 000004   	HF.EXT= ****** GX	PROTC1  000024R     002	WORPRO= ****** GX
F.BGBC= 000057   	F.LUN = 000042   	HF.RDV= ****** GX	PROTC2  000072R     002	WRTATT= ****** GX
F.BKDN= 000026   	F.MBCT= 000054   	HF.WRV= ****** GX	PROWRD= ****** GX	X     = 000026
F.BKDS= 000020   	F.MBC1= 000055   	HH.FP = ****** GX	PRSERR= ****** GX	$$    = 000067
F.BKEF= 000050   	F.MBFG= 000056   	INIPRO= ****** GX	RDATT = ****** GX	.DYALC= ****** GX
F.BKP1= 000051   	F.NRBD= 000024   	NXTFIL= ****** GX	R$$DPB= 000001   	.FOWNR= ****** GX
F.BKST= 000024   	F.NREC= 000030   	NXTOUT= ****** GX	R$$DYM= 000001   	.GFOWN= ****** GX
F.BKVB= 000064   	F.OVBS= 000030   	N.DID = 000024   	R$$EIS= 000000   	.HDRAD= ****** GX
F.CNTG= 000034   	F.RACC= 000016   	N.DVNM= 000032   	R$$11M= 000001   	...TPC= 000140
F.DFNB= 000046   	F.RATT= 000001

. ABS.	000000	   000
      	000000	   001
PURE$I	000450	   002
ERRORS DETECTED:  0

VIRTUAL MEMORY USED:  3704 WORDS  ( 15 PAGES)
DYNAMIC MEMORY:  4622 WORDS  ( 17 PAGES)
ELAPSED TIME:  00:00:15
[43,10]PIPPRO,[43,20]PIPPRO/-SP/CR=[43,30]PIPMAC,PIPPRO
PIPPRO     CREATED BY  MACRO  ON 27-FEB-85 AT 12:27	PAGE 1

SYMBOL CROSS REFERENCE                                  CREF

SYMBOL	VALUE		REFERENCES

CLOSX 	= ******  GX	 7-138
CPYCTL	= ******  GX	*7-53      *7-65       7-93
DI08MG	= ******  GX	 7-60
DI08SZ	= ******  GX	 7-60
FDBOUT	= ******  GX	 7-52       7-72       7-115      7-130
FD.DIR	= ******  GX	 7-58
FNDERR	= ******  GX	 7-123      7-123
FNDNXT	= ******  GX	 7-63       7-63
FRSTIM	= ******  GX	 7-53       7-65
FSTOUT	= ******  GX	 7-51       7-51
F.FNB 	= 000102	 7-72
F.FVER	= 000120	 7-61      *7-62
F.RCTL	= 000017	 7-58
HA.FP 	= ******  GX	 7-109
HA.UI 	= ******  GX	 7-113
HF.DEL	= ******  GX	 7-153
HF.EXT	= ******  GX	 7-150
HF.RDV	= ******  GX	 7-144
HF.WRV	= ******  GX	 7-147
HH.FP 	= ******  GX	 7-77
INIPRO	= ******  GX	 7-135      7-135
NXTFIL	= ******  GX	 7-131      7-131
NXTOUT	= ******  GX	 7-136      7-136
PARSE 	= ******  GX	 7-54       7-54
PROBIT	  000376 R	 7-99       7-99      #7-142
PRONXT	  000360 R	 7-57       7-124     #7-135
PRONX1	  000346 R	 7-120     #7-130
PROTCT	  000000 RG	#7-47
PROTC1	  000024 R	#7-53       7-137
PROTC2	  000072 R	#7-62       7-132
PROWRD	= ******  GX	 7-69
PRSERR	= ******  GX	 7-56       7-56
RDATT 	= ******  GX	 7-73       7-73
RONLY$	= ******	 7-45       7-45
R$$DPB	= 000001	#1-27
R$$DYM	= 000001	#1-29
R$$EIS	= 000000	#1-28       1-38       7-82
R$$11M	= 000001	#1-25       1-26       7-1
SYS40$	= ******	 1-67       7-45       7-45
UN02MG	= ******  GX	 7-127
UN02SZ	= ******  GX	 7-127
VERSAV	= ******  GX	*7-61       7-62
WOPROB	= ******  GX	 7-79
WORPRO	= ******  GX	 7-80
WRTATT	= ******  GX	 7-117      7-117
X     	= 000026	#7-60       7-60      #7-60       7-60      #7-127      7-127     #7-127      7-127     #7-127
                         7-127
$$    	= 000067	#7-49       7-49      #7-51       7-51      #7-54       7-54      #7-56       7-56      #7-63
                         7-63      #7-66       7-66      #7-73       7-73      #7-99       7-99      #7-117      7-117
                        #7-123      7-123     #7-131      7-131     #7-135      7-135     #7-136      7-136
.DYALC	= ******  GX	 7-49       7-49
.FOWNR	= ******  GX	 7-110      7-112
PIPPRO     CREATED BY  MACRO  ON 27-FEB-85 AT 12:27	PAGE 2

SYMBOL CROSS REFERENCE                                  CREF

SYMBOL	VALUE		REFERENCES

.GFOWN	= ******  GX	 7-66       7-66
.HDRAD	= ******  GX	*7-50       7-76       7-105      7-108
PIPPRO     CREATED BY  MACRO  ON 27-FEB-85 AT 12:27	PAGE 3

MACRO CROSS REFERENCE                                   CREF

MACRO NAME	REFERENCES

ASH   		#1-64
ASHC  		#1-64
CALL  		#7-24      #7-49      #7-51      #7-54      #7-56      #7-63      #7-66      #7-73      #7-99      #7-117
                #7-123     #7-131     #7-135     #7-136
DIV   		#1-64
ERRINI		#4-307
ERROUT		#3-215      7-127
ERROUX		#3-222      7-60
ERROU1		#3-225     #7-60      #7-127
ERRP  		#3-247
ERRPX 		#3-253
ERRP1 		#3-256
ERR1  		#3-273     #7-60      #7-127
FDOFF$		#7-23      #7-23
FDOF$L		#7-22      #7-23
FLDSOF		#5-382
IDENT 		#5-339     #7-1
IDENT1		#5-347      7-1
IDTITL		#5-356
ILLOP 		#1-52      #1-64       1-64
IMPURE		#1-75
MARK  		#1-64
MSG   		#2-124
MSGZ  		#2-129
MSG1  		#2-133
MUL   		#1-64
NOEIS$		#1-39       1-64
PURE. 		#1-84       7-45
PURE.D		#1-102
PURE.I		#1-98       7-45
RETURN		#7-24       7-154
RTT   		#1-64
SOB   		#1-64      #7-100     #7-102
SXT   		#1-64
XOR   		#1-64
PIPREN M0206, RENAME AND ENTER 	MACRO M1113  27-FEB-85 12:27
TABLE OF CONTENTS

     7-    1	**** PIPREN VERSION M0206 ****
PIPMAC - MACROS FOR PIP, ETC.	MACRO M1113  27-FEB-85 12:27  PAGE 6


    397
PIPREN M0206, RENAME AND ENTER 	MACRO M1113  27-FEB-85 12:27  PAGE 7


      1						.TITLE	PIPREN M0206, RENAME AND ENTER COMMANDS-PIP
						.SBTTL	**** PIPREN VERSION M0206 ****
						.IDENT	/M0206/
      2					; ALTERED:
      3					; ANDREW C. GOLDSTEIN  17 JUL 75  16:36
      4					;
      5					; COPYRIGHT 1975, 1985. DIGITAL EQUIPMENT CORP., MAYNARD MASS.
      6					; COPYRIGHT 1974, DIGITAL EQUIPMENT CORP., MAYNARD MASS.
      7
      8					;			ALL RIGHTS RESERVED
      9					;
     10					; THIS SOFTWARE IS FURNISHED TO PURCHASER UNDER A LICENSE FOR USE
     11					; ON A SINGLE COMPUTER SYSTEM AND CAN BE COPIED (WITH INCLUSION
     12					; OF DEC'S COPYRIGHT NOTICE) ONLY FOR USE IN SUCH SYSTEM, EXCEPT
     13					; AS MAY OTHERWISE BE PROVIDED IN WRITING BY DEC.
     14
     15					; THE INFORMATION IN THIS DOCUMENT IS SUBJECT TO CHANGE WITHOUT
     16					; NOTICE AND SHOULD NOT BE CONSTRUED AS A COMMITMENT BY DIGITAL
     17					; EQUIPMENT CORPORATION.
     18
     19					; DEC ASSUMES NO RESPONSIBILITY FOR THE USE OR RELIABILITY
     20					; OF ITS SOFTWARE ON EQUIPMENT WHICH IS NOT SUPPLIED BY DEC.
     21					;
     22
     23					; PETER H. LIPMAN	2-MAY-74
     24	000000					FLDSOF
     25						.MCALL	CSI$,FDOF$L,FCSBT$,IOERR$
     26	000000					CSI$
     27	000000					FDOF$L			;DEFINE THE FDB OFFSETS LOCALLY
     28	000000					FCSBT$			;DEFINE THE FDB BITS AND VALUES LOCALLY
     29	000000					IOERR$			;DEFINE THE I/O ERROR CODES LOCALLY
     30
     31						.MCALL	CALL,RETURN,FDOP$R
     32
     33
     34	000000					PURE.I
     35
     36					; RENAME INPUT FILE TO OUTPUT NAME
     37	000000				ENTER::
     38	000000	016767 	000000G	000000G	RENAME::MOV	.OULCL,.LCLSW	;LOCAL SWITCHES ON OUTSPEC ARE STICKY
     39	000006	005767 	000000G			TST	INSPEC		;REQUIRE AN INPUT SPECIFIER
     40	000012	001003 				BNE	10$
     41	000014					ERROUX	CP02		;ILLEGAL COMMAND
	000014	104403 				TRAP	X
	000016	000000G				.WORD	CP02SZ
	000020	000000G				.WORD	CP02MG
     42	000022	005767 	000000G		10$:	TST	OFNPT+N.DEVD	;IF NO EXPLICIT OUTPUT DEVICE
     43	000026	001006 				BNE	30$
     44	000030	016767 	000000G	000000G		MOV	IFNPT+N.DEVD,OFNPT+N.DEVD ;USE THE INPUT DEV SPEC
     45	000036	016767 	000002G	000002G		MOV	IFNPT+N.DEVD+2,OFNPT+N.DEVD+2
     46	000044	012700 	000000G		30$:	MOV	#SYDFLT,R0
     47	000050	005001 				CLR	R1
     48	000052	005002 				CLR	R2
     49	000054					CALL	STNBK1		;INIT SYSDFLT NAMBLK
     50	000060					FDOP$R	#FDBOUT,,#OFNPT,#SYDFLT
     51	000100					CALL	PARSE
     52	000104	103004 				BCC	40$
PIPREN M0206, RENAME AND ENTER 	MACRO M1113  27-FEB-85 12:27  PAGE 7-1
**** PIPREN VERSION M0206 ****

     53	000106					CALL	PRSERR		;ERROR FROM PARSE
     54	000112	000167 	000000G			JMP	CLOSX
     55	000116	032767 	000001 	000000G	40$:	BIT	#CS.NMF,OUSPEC	;NULL FILE NAME = *.*;*
     56	000124	001003 				BNE	45$
     57	000126	052761 	000000G	000020 		BIS	#NB.SFN,N.STAT(R1)
     58	000134				45$:	CALL	CWLDUI		;CHECK FOR LEGAL WILD CARD UIC
     59	000140	103003 				BCC	50$
     60	000142					ERROUX	CP01
	000142	104403 				TRAP	X
	000144	000000G				.WORD	CP01SZ
	000146	000000G				.WORD	CP01MG
     61	000150	005761 	000016 		50$:	TST	N.FVER(R1)	;IF 0 VERSION NUMBER
     62	000154	001007 				BNE	60$
     63	000156	032761 	000001 	000020 		BIT	#NB.VER,N.STAT(R1) ;AND EXPLICITLY 0
     64	000164	001403 				BEQ	60$
     65	000166	052767 	000000G	000000G		BIS	#NVERBT,CPYCTL ;FORCE NEW VERSION BIT
     66	000174				60$:	FDOP$R	#FDBIN,,#IFNPT,#NAMBLK
     67	000214	005001 				CLR	R1
     68	000216	005002 				CLR	R2
     69	000220					CALL	STNMBK		;INIT DEFAULT NAMBLK
     70	000224	005767 	000000G			TST	IFNPT+N.DEVD	;IF NO EXPLICIT INPUT DEVICE
     71	000230	001006 				BNE	RENAM1
     72	000232	016767 	000134G	000032G		MOV	FDBOUT+F.DVNM,NAMBLK+N.DVNM ;USE OUTPUT DEVICE
     73	000240	016767 	000136G	000034G		MOV	FDBOUT+F.UNIT,NAMBLK+N.UNIT
     74	000246	052767 	000000G	000000G	RENAM1:	BIS	#FRSTIM,CPYCTL
     75	000254					CALL	PARSE		;PARSE THE INPUT SPEC
     76	000260	103004 				BCC	1$
     77	000262					CALL	PRSERR
     78	000266	000167 	000546 			JMP	RNMNXT
     79	000272	132760 	000010 	000017 	1$:	BITB	#FD.DIR,F.RCTL(R0) ;MUST BE A DIRECTORY DEVICE
     80	000300	001003 				BNE	2$		;BRANCH IF IT IS
     81	000302					ERROUX	DI08,1		;ERROR
	000302	104413 				TRAP	X
	000304	000000G				.WORD	DI08SZ
	000306	000000G				.WORD	DI08MG
     82	000310	016067 	000120 	000000G	2$:	MOV	F.FVER(R0),VERSAV
     83	000316	026767 	000134G	000134G		CMP	FDBIN+F.DVNM,FDBOUT+F.DVNM
     84	000324	001004 				BNE	3$		;BRANCH IF DEVICES ARE DIFFERENT
     85	000326	026767 	000136G	000136G		CMP	FDBIN+F.UNIT,FDBOUT+F.UNIT
     86	000334	001405 				BEQ	4$
     87					; DEVICES ARE DIFFERENT - ERROR
     88	000336				3$:	ERROUT	RE04,0
	000336	104406 				TRAP	X
	000340	000000G				.WORD	RE04SZ
	000342	000000G				.WORD	RE04MG
     89	000344	000167 	000470 			JMP	RNMNXT
     90	000350	032767 	000000G	000002G	4$:	BIT	#ENTRBT,CMDWRD+2
     91	000356	001005 				BNE	5$
     92	000360					CALL	WLDVER		;WILD CARD VERSION CHECK IF RENAME
     93	000364	103002 				BCC	5$
     94	000366	000167 	000446 			JMP	RNMNXT
     95	000372	032767 	000001 	000000G	5$:	BIT	#CS.NMF,INSPEC	;NULL INPUT FILE NAME = *.*;*
     96	000400	001006 				BNE	8$
     97	000402	005762 	000016 			TST	N.FLID(R2)	;R2 FROM PARSE, FILE ID SPECIFIED?
     98	000406	001003 				BNE	8$		;BRANCH IF YES
     99	000410	052761 	000000G	000020 		BIS	#NB.SFN,N.STAT(R1) ;R1 FROM PARSE, SET WILD CARDS
    100	000416	032767 	000000G	000002G	8$:	BIT	#ENTRBT,CMDWRD+2
PIPREN M0206, RENAME AND ENTER 	MACRO M1113  27-FEB-85 12:27  PAGE 7-2
**** PIPREN VERSION M0206 ****

    101	000424	001004 				BNE	10$		;BRANCH IF ENTER RATHER THAN RENAME
    102	000426					CALL	RMVNXT
    103	000432	103575 				BCS	70$
    104	000434	000406 				BR	15$
    105	000436	016760 	000000G	000120 	10$:	MOV	VERSAV,F.FVER(R0)
    106	000444					CALL	FNDNXT		;FIND NEXT IF ENTERING
    107	000450	103571 				BCS	75$
    108	000452	042767 	000000G	000000G	15$:	BIC	#FRSTIM,CPYCTL
    109					;
    110					; SET WILD CARD OR UNSPECIFIED FIELDS OF OUTPUT FILE NAME BLOCK TO
    111					; EQUIVALENT INPUT FILE NAME BLOCK FIELDS
    112	000460	012701 	000102G			MOV	#FDBOUT+F.FNB,R1
    113	000464	016102 	000020 			MOV	N.STAT(R1),R2
    114	000470	012703 	000004 			MOV	#NB.NAM,R3
    115
    116						.IF	GT,R$$EIS
    117						XOR	R3,R2
    118						.IFF
    119	000474	010246 				MOV	R2,-(SP)
    120	000476	040302 				BIC	R3,R2
    121	000500	042603 				BIC	(SP)+,R3
    122	000502	050302 				BIS	R3,R2
    123						.ENDC
    124
    125	000504	032702 	000044 			BIT	#NB.NAM!NB.SNM,R2 ;WILD CARD OR UNSPECIFIED NAME?
    126	000510	001411 				BEQ	20$		;BRANCH IF NO
    127	000512	016061 	000110 	000006 		MOV	F.FNAM(R0),N.FNAM(R1) ;USE DEFAULT NAME
    128	000520	016061 	000112 	000010 		MOV	F.FNAM+2(R0),N.FNAM+2(R1)
    129	000526	016061 	000114 	000012 		MOV	F.FNAM+4(R0),N.FNAM+4(R1)
    130	000534	012703 	000002 		20$:	MOV	#NB.TYP,R3
    131						.IF	GT,R$$EIS
    132						XOR	R3,R2
    133						.IFF
    134	000540	010246 				MOV	R2,-(SP)
    135	000542	040302 				BIC	R3,R2
    136	000544	042603 				BIC	(SP)+,R3
    137	000546	050302 				BIS	R3,R2
    138						.ENDC
    139
    140	000550	032702 	000022 			BIT	#NB.TYP!NB.STP,R2 ;WILD CARD OR UNSPECIFIED TYPE?
    141	000554	001403 				BEQ	30$		;BRANCH IF NO
    142	000556	016061 	000116 	000014 		MOV	F.FTYP(R0),N.FTYP(R1) ;USE DEFAULT TYPE
    143	000564	012703 	000001 		30$:	MOV	#NB.VER,R3
    144
    145						.IF	GT,R$$EIS
    146						XOR	R3,R2
    147						.IFF
    148	000570	010246 				MOV	R2,-(SP)
    149	000572	040302 				BIC	R3,R2
    150	000574	042603 				BIC	(SP)+,R3
    151	000576	050302 				BIS	R3,R2
    152						.ENDC
    153
    154	000600	032702 	000011 			BIT	#NB.VER!NB.SVR,R2 ;WILD CARD OR UNSPECIFIED VERSION?
    155	000604	001403 				BEQ	40$		;BRANCH IF NO
    156	000606	016061 	000120 	000016 		MOV	F.FVER(R0),N.FVER(R1) ;USE DEFAULT VERSION
    157					;
PIPREN M0206, RENAME AND ENTER 	MACRO M1113  27-FEB-85 12:27  PAGE 7-3
**** PIPREN VERSION M0206 ****

    158					; IF OUTPUT DIRECTORY IS WILD CARD OR NULL, USE INPUT DIRECTORY
    159	000614	012703 	000100 		40$:	MOV	#NB.DIR,R3
    160						.IF	GT,R$$EIS
    161						XOR	R3,R2
    162						.IFF
    163	000620	010246 				MOV	R2,-(SP)
    164	000622	040302 				BIC	R3,R2
    165	000624	042603 				BIC	(SP)+,R3
    166	000626	050302 				BIS	R3,R2
    167						.ENDC
    168	000630	032702 	000000C			BIT	#NB.DIR!NB.SDI,R2 ; CHECK FOR WILD OR DEFAULT UIC
    169	000634	001411 				BEQ	42$
    170	000636	016061 	000126 	000024 		MOV	F.FNB+N.DID(R0),N.DID(R1)
    171	000644	016061 	000130 	000026 		MOV	F.FNB+N.DID+2(R0),N.DID+2(R1)
    172	000652	016061 	000132 	000030 		MOV	F.FNB+N.DID+4(R0),N.DID+4(R1)
    173	000660	016061 	000102 	000000 	42$:	MOV	F.FNB+N.FID(R0),N.FID(R1) ;SET FILE ID TO ENTER
    174	000666	016061 	000104 	000002 		MOV	F.FNB+N.FID+2(R0),N.FID+2(R1)
    175	000674	016061 	000106 	000004 		MOV	F.FNB+N.FID+4(R0),N.FID+4(R1)
    176	000702	012700 	000000G			MOV	#FDBOUT,R0
    177	000706	032767 	000000G	000000G		BIT	#NVERBT,CPYCTL	;IF NEW VERSION DESIRED
    178	000714	001402 				BEQ	44$
    179	000716	005061 	000016 			CLR	N.FVER(R1)	;ZERO THE VERSION TO BE ENTERED
    180	000722				44$:	CALL	.ENTER
    181	000726	103030 				BCC	50$
    182					;
    183					; ERROR FROM ENTER, IF RENAMING, MUST REENTER THE ORIGINAL NAME
    184	000730	116004 	000052 			MOVB	F.ERR(R0),R4
    185	000734	022704 	177707 			CMP	#IE.DUP,R4	;IF DUPLICATE ENTRY
    186	000740	001002 				BNE	45$
    187	000742	012704 	177717 			MOV	#IE.FEX,R4	;USE FILE ALREADY EXITS ERROR
    188	000746				45$:	ERROUT	RE02,0,R4
	000746	104446 				TRAP	X
	000750	000000G				.WORD	RE02SZ
	000752	000000G				.WORD	RE02MG
    189	000754	032767 	000000G	000002G		BIT	#ENTRBT,CMDWRD+2
    190	000762	001012 				BNE	50$
    191	000764	012700 	000000G			MOV	#FDBIN,R0
    192	000770	012701 	000102G			MOV	#FDBIN+F.FNB,R1
    193	000774					CALL	.ENTER		;REENTER THE REMOVED ENTRY
    194	001000	103003 				BCC	50$
    195	001002					ERROUT	RE03,0,0	;FILE IS LOST
	001002	104426 				TRAP	X
	001004	000000G				.WORD	RE03SZ
	001006	000000G				.WORD	RE03MG
    196	001010	012700 	000000G		50$:	MOV	#FDBIN,R0
    197	001014					CALL	NXTFIL		;ANY MORE FILES IN THIS FILE SPECIFIER?
    198	001020	103407 				BCS	RNMNXT		;BRANCH IF NO
    199	001022	000167 	177370 			JMP	8$
    200					;
    201					; ERROR FROM REMOVE NEXT
    202	001026				70$:	CALL	RMVERR
    203	001032	000402 				BR	RNMNXT
    204					;
    205					; ERROR FROM FIND NEXT
    206	001034				75$:	CALL	FNDERR		;OTHERWISE, NORMAL FIND ERROR
    207					;
    208					; GET NEXT INPUT FILE SPECIFIER TO RENAME
PIPREN M0206, RENAME AND ENTER 	MACRO M1113  27-FEB-85 12:27  PAGE 7-4
**** PIPREN VERSION M0206 ****

    209	001040				RNMNXT:	CALL	NXTIN
    210	001044	103002 				BCC	10$
    211	001046	000167 	000000G			JMP	CLOSX
    212	001052	000167 	177170 		10$:	JMP	RENAM1
    213
    214					;
    215					;
    216		000001 				.END
PIPREN M0206, RENAME AND ENTER 	MACRO M1113  27-FEB-85 12:27  PAGE 7-5
SYMBOL TABLE

CLOSX = ****** GX	FD.SDI= 000020   	F.URBD= 000020   	IE.OVR= 177756   	N.FTYP= 000014
CMDWRD= ****** GX	FD.SQD= 000040   	F.VBN = 000064   	IE.PRI= 177760   	N.FVER= 000016
CPYCTL= ****** GX	FD.TTY= 000004   	F.VBSZ= 000060   	IE.RAC= 177724   	N.NEXT= 000022
CP01MG= ****** GX	FD.WBH= 000002   	IE.ABO= 177761   	IE.RAT= 177723   	N.SPEC= 000014
CP01SZ= ****** GX	FNDERR= ****** GX	IE.ALN= 177736   	IE.RBG= 177730   	N.STAT= 000020
CP02MG= ****** GX	FNDNXT= ****** GX	IE.BAD= 177777   	IE.RCN= 177722   	N.UNIT= 000034
CP02SZ= ****** GX	FO.APD= 000106   	IE.BBE= 177710   	IE.RER= 177740   	OFNPT = ****** GX
CS.DIF= 000002   	FO.MFY= 000002   	IE.BDI= 177714   	IE.RNM= 177715   	OUSPEC= ****** GX
CS.DVF= 000004   	FO.RD = 000001   	IE.BDR= 177716   	IE.RSU= 177757   	PARSE = ****** GX
CS.EQU= 000040   	FO.UPD= 000006   	IE.BDV= 177711   	IE.SNC= 177735   	PAR$$$= 000027
CS.INP= 000001   	FO.WRT= 000016   	IE.BHD= 177700   	IE.SPC= 177772   	PRSERR= ****** GX
CS.MOR= 000020   	FRSTIM= ****** GX	IE.BLK= 177754   	IE.SQC= 177734   	RENAME  000000RG    002
CS.NMF= 000001   	F.ALOC= 000040   	IE.BNM= 177712   	IE.SRE= 177762   	RENAM1  000246R     002
CS.OUT= 000002   	F.BBFS= 000062   	IE.BTF= 177675   	IE.STK= 177706   	RE02MG= ****** GX
CS.WLD= 000010   	F.BDB = 000070   	IE.BTP= 177725   	IE.VER= 177774   	RE02SZ= ****** GX
CWLDUI= ****** GX	F.BGBC= 000057   	IE.BVR= 177701   	IE.WAC= 177743   	RE03MG= ****** GX
C.CMLD= 000002   	F.BKDN= 000026   	IE.BYT= 177755   	IE.WAT= 177741   	RE03SZ= ****** GX
C.DEVD= 000006   	F.BKDS= 000020   	IE.CKS= 177742   	IE.WER= 177737   	RE04MG= ****** GX
C.DIRD= 000012   	F.BKEF= 000050   	IE.CLO= 177732   	IE.WLK= 177764   	RE04SZ= ****** GX
C.DSDS= 000006   	F.BKP1= 000051   	IE.CON= 177752   	IE.2DV= 177720   	RMVERR= ****** GX
C.FILD= 000016   	F.BKST= 000024   	IE.DAA= 177770   	IFNPT = ****** GX	RMVNXT= ****** GX
C.MKW1= 000024   	F.BKVB= 000064   	IE.DAO= 177763   	INSPEC= ****** GX	RNMNXT  001040R     002
C.MKW2= 000026   	F.CNTG= 000034   	IE.DFU= 177750   	IS.BV = 000005   	R$$DPB= 000001
C.SIZE= 000054   	F.DFNB= 000046   	IE.DNA= 177771   	IS.CR = 006401   	R$$DYM= 000001
C.STAT= 000001   	F.DSPT= 000044   	IE.DNR= 177775   	IS.ESC= 015401   	R$$EIS= 000000
C.SWAD= 000022   	F.DVNM= 000134   	IE.DUN= 177767   	IS.PND= 000000   	R$$11M= 000001
C.TYPR= 000000   	F.EFBK= 000010   	IE.DUP= 177707   	IS.RDD= 000002   	R.FIX = 000001
DI08MG= ****** GX	F.EFN = 000050   	IE.EBX= 177776   	IS.SUC= 000001   	R.VAR = 000002
DI08SZ= ****** GX	F.EOBB= 000032   	IE.EOF= 177766   	NAMBLK= ****** GX	STNBK1= ****** GX
ENTER   000000RG    002	F.ERR = 000052   	IE.EOT= 177702   	NB.DEV= 000200   	STNMBK= ****** GX
ENTRBT= ****** GX	F.FACC= 000043   	IE.EOV= 177765   	NB.DIR= 000100   	SYDFLT= ****** GX
FA.APD= 000100   	F.FFBY= 000014   	IE.EXP= 177676   	NB.NAM= 000004   	S.APPD= 000010
FA.CRE= 000010   	F.FNAM= 000110   	IE.FEX= 177717   	NB.SDI= ****** GX	S.FATT= 000016
FA.EXT= 000004   	F.FNB = 000102   	IE.FHE= 177705   	NB.SD1= 000400   	S.FDB = 000140
FA.NSP= 000100   	F.FTYP= 000116   	IE.FOP= 177713   	NB.SD2= 001000   	S.FIDS= 000014
FA.RD = 000001   	F.FVER= 000120   	IE.HFU= 177744   	NB.SFN= ****** GX	S.FNAM= 000006
FA.SHR= 000040   	F.HIBK= 000004   	IE.IFC= 177776   	NB.SNM= 000040   	S.FNB = 000036
FA.TMP= 000020   	F.LUN = 000042   	IE.IFU= 177747   	NB.STP= 000020   	S.FNBW= 000017
FA.WRT= 000002   	F.MBCT= 000054   	IE.ILL= 177726   	NB.SVR= 000010   	S.FNTY= 000004
FDBIN = ****** GX	F.MBC1= 000055   	IE.ISQ= 177703   	NB.TYP= 000002   	S.FTYP= 000002
FDBOUT= ****** GX	F.MBFG= 000056   	IE.LCK= 177745   	NB.VER= 000001   	S.NFEN= 000020
FD.BLK= 000010   	F.NRBD= 000024   	IE.MBK= 177721   	NVERBT= ****** GX	VERSAV= ****** GX
FD.CCL= 000002   	F.NREC= 000030   	IE.MOD= 177753   	NXTFIL= ****** GX	WLDVER= ****** GX
FD.CR = 000002   	F.OVBS= 000030   	IE.NBF= 177731   	NXTIN = ****** GX	X     = 000026
FD.DIR= 000010   	F.RACC= 000016   	IE.NBK= 177727   	N.DEVD= 000000   	$$    = 000067
FD.FTN= 000001   	F.RATT= 000001   	IE.NFI= 177704   	N.DID = 000024   	$$MSG = 000000
FD.INS= 000010   	F.RCNM= 000034   	IE.NLN= 177733   	N.DIRD= 000004   	.ENTER= ****** GX
FD.PLC= 000004   	F.RCTL= 000017   	IE.NNC= 177674   	N.DVNM= 000032   	.LCLSW= ****** GX
FD.RAH= 000001   	F.RSIZ= 000002   	IE.NOD= 177751   	N.FID = 000000   	.OULCL= ****** GX
FD.RAN= 000002   	F.RTYP= 000000   	IE.NSF= 177746   	N.FLID= 000016   	...GBL= 000000
FD.REC= 000001   	F.STBK= 000036   	IE.OFL= 177677   	N.FNAM= 000006   	...TPC= 000140
FD.RWM= 000001   	F.UNIT= 000136   	IE.ONP= 177773   	N.FNMD= 000010

. ABS.	000000	   000
      	000000	   001
PURE$I	001056	   002
ERRORS DETECTED:  0
PIPREN M0206, RENAME AND ENTER 	MACRO M1113  27-FEB-85 12:27  PAGE 7-6
SYMBOL TABLE


VIRTUAL MEMORY USED:  6917 WORDS  ( 28 PAGES)
DYNAMIC MEMORY:  7790 WORDS  ( 29 PAGES)
ELAPSED TIME:  00:00:22
[43,10]PIPREN,[43,20]PIPREN/-SP/CR=[43,30]PIPMAC,PIPREN
PIPREN     CREATED BY  MACRO  ON 27-FEB-85 AT 12:28	PAGE 1

SYMBOL CROSS REFERENCE                                  CREF

SYMBOL	VALUE		REFERENCES

CLOSX 	= ******  GX	 7-54       7-211
CMDWRD	= ******  GX	 7-90       7-100      7-189
CPYCTL	= ******  GX	*7-65      *7-74      *7-108      7-177
CP01MG	= ******  GX	 7-60
CP01SZ	= ******  GX	 7-60
CP02MG	= ******  GX	 7-41
CP02SZ	= ******  GX	 7-41
CS.NMF	= 000001	 7-55       7-95
CWLDUI	= ******  GX	 7-58       7-58
DI08MG	= ******  GX	 7-81
DI08SZ	= ******  GX	 7-81
ENTER 	  000000 RG	#7-37
ENTRBT	= ******  GX	 7-90       7-100      7-189
FDBIN 	= ******  GX	 7-66       7-66       7-83       7-85       7-191      7-192      7-196
FDBOUT	= ******  GX	 7-50       7-50       7-72       7-73       7-83       7-85       7-112      7-176
FD.DIR	= 000010	 7-79
FNDERR	= ******  GX	 7-206      7-206
FNDNXT	= ******  GX	 7-106      7-106
FRSTIM	= ******  GX	 7-74       7-108
F.DFNB	= 000046	*7-50      *7-66
F.DSPT	= 000044	*7-50      *7-66
F.DVNM	= 000134	 7-72       7-83       7-83
F.ERR 	= 000052	 7-184
F.FNAM	= 000110	 7-127      7-128      7-129
F.FNB 	= 000102	 7-112      7-170      7-171      7-172      7-173      7-174      7-175      7-192
F.FTYP	= 000116	 7-142
F.FVER	= 000120	 7-82      *7-105      7-156
F.RCTL	= 000017	 7-79
F.UNIT	= 000136	 7-73       7-85       7-85
IE.DUP	= 177707	 7-185
IE.FEX	= 177717	 7-187
IFNPT 	= ******  GX	 7-44       7-45       7-66       7-70
INSPEC	= ******  GX	 7-39       7-95
NAMBLK	= ******  GX	 7-66      *7-72      *7-73
NB.DIR	= 000100	 7-159      7-168
NB.NAM	= 000004	 7-114      7-125
NB.SDI	= ******  GX	 7-168
NB.SFN	= ******  GX	 7-57       7-99
NB.SNM	= 000040	 7-125
NB.STP	= 000020	 7-140
NB.SVR	= 000010	 7-154
NB.TYP	= 000002	 7-130      7-140
NB.VER	= 000001	 7-63       7-143      7-154
NVERBT	= ******  GX	 7-65       7-177
NXTFIL	= ******  GX	 7-197      7-197
NXTIN 	= ******  GX	 7-209      7-209
N.DEVD	= 000000	#7-24       7-42       7-44      *7-44       7-45      *7-45       7-70
N.DID 	= 000024	 7-170     *7-170      7-171     *7-171      7-172     *7-172
N.DIRD	= 000004	#7-24
N.DVNM	= 000032	*7-72
N.FID 	= 000000	 7-173     *7-173      7-174     *7-174      7-175     *7-175
N.FLID	= 000016	#7-24       7-97
PIPREN     CREATED BY  MACRO  ON 27-FEB-85 AT 12:28	PAGE 2

SYMBOL CROSS REFERENCE                                  CREF

SYMBOL	VALUE		REFERENCES

N.FNAM	= 000006	*7-127     *7-128     *7-129
N.FNMD	= 000010	#7-24
N.FTYP	= 000014	*7-142
N.FVER	= 000016	 7-61      *7-156     *7-179
N.SPEC	= 000014	#7-24
N.STAT	= 000020	*7-57       7-63      *7-99       7-113
N.UNIT	= 000034	*7-73
OFNPT 	= ******  GX	 7-42      *7-44      *7-45       7-50
OUSPEC	= ******  GX	 7-55
PARSE 	= ******  GX	 7-51       7-51       7-75       7-75
PAR$$$	= 000027	#7-50       7-50      #7-66       7-66
PRSERR	= ******  GX	 7-53       7-53       7-77       7-77
RENAME	  000000 RG	#7-38
RENAM1	  000246 R	 7-71      #7-74       7-212
RE02MG	= ******  GX	 7-188
RE02SZ	= ******  GX	 7-188
RE03MG	= ******  GX	 7-195
RE03SZ	= ******  GX	 7-195
RE04MG	= ******  GX	 7-88
RE04SZ	= ******  GX	 7-88
RMVERR	= ******  GX	 7-202      7-202
RMVNXT	= ******  GX	 7-102      7-102
RNMNXT	  001040 R	 7-78       7-89       7-94       7-198      7-203     #7-209
RONLY$	= ******	 7-34       7-34
R$$DPB	= 000001	#1-27
R$$DYM	= 000001	#1-29
R$$EIS	= 000000	#1-28       1-38       7-116      7-131      7-145      7-160
R$$11M	= 000001	#1-25       1-26       7-1
STNBK1	= ******  GX	 7-49       7-49
STNMBK	= ******  GX	 7-69       7-69
SYDFLT	= ******  GX	 7-46       7-50
SYS40$	= ******	 1-67       7-34       7-34
S.APPD	= 000010	#7-24
S.FIDS	= 000014	#7-24
VERSAV	= ******  GX	*7-82       7-105
WLDVER	= ******  GX	 7-92       7-92
X     	= 000026	#7-41       7-41      #7-60       7-60      #7-81       7-81      #7-81       7-81      #7-88
                         7-88      #7-88       7-88      #7-188      7-188     #7-188      7-188     #7-188      7-188
                        #7-195      7-195     #7-195      7-195     #7-195      7-195
$$    	= 000067	#7-49       7-49      #7-51       7-51      #7-53       7-53      #7-58       7-58      #7-69
                         7-69      #7-75       7-75      #7-77       7-77      #7-92       7-92      #7-102      7-102
                        #7-106      7-106     #7-180      7-180     #7-193      7-193     #7-197      7-197     #7-202
                         7-202     #7-206      7-206     #7-209      7-209
.ENTER	= ******  GX	 7-180      7-180      7-193      7-193
.LCLSW	= ******  GX	*7-38
.OULCL	= ******  GX	 7-38
PIPREN     CREATED BY  MACRO  ON 27-FEB-85 AT 12:28	PAGE 3

MACRO CROSS REFERENCE                                   CREF

MACRO NAME	REFERENCES

ASH   		#1-64
ASHC  		#1-64
CALL  		#7-31       7-49       7-51       7-53       7-58       7-69       7-75       7-77       7-92       7-102
                 7-106      7-180      7-193      7-197      7-202      7-206      7-209
CMOV$B		#7-50       7-50       7-50      #7-66       7-66       7-66
CMOV$W		#7-50       7-50       7-50      #7-66       7-66       7-66
CSI$  		#7-25      #7-26
DIV   		#1-64
ERRINI		#4-307
ERROUT		#3-215      7-88       7-188      7-195
ERROUX		#3-222      7-41       7-60       7-81
ERROU1		#3-225     #7-41      #7-60      #7-81      #7-88      #7-188     #7-195
ERRP  		#3-247
ERRPX 		#3-253
ERRP1 		#3-256
ERR1  		#3-273     #7-41      #7-60      #7-81      #7-88      #7-188     #7-195
FCSBT$		#7-25       7-28
FDOFF$		#7-27      #7-27
FDOF$L		#7-25       7-27
FDOP$R		#7-31       7-50       7-66
FLDSOF		#5-382     #7-24      #7-24
IDENT 		#5-339     #7-1
IDENT1		#5-347      7-1
IDTITL		#5-356
ILLOP 		#1-52      #1-64       1-64
IMPURE		#1-75
IOERR$		#7-25      #7-29
LDFDB$		#7-50       7-50      #7-66       7-66
MARK  		#1-64
MSG   		#2-124
MSGZ  		#2-129
MSG1  		#2-133
MUL   		#1-64
NOEIS$		#1-39       1-64
PURE. 		#1-84       7-34
PURE.D		#1-102
PURE.I		#1-98       7-34
RETURN		#7-31
RTT   		#1-64
SOB   		#1-64
SXT   		#1-64
XOR   		#1-64
PIPSPL M0206, SPOOL COMMAND-PIP	MACRO M1113  27-FEB-85 12:28
TABLE OF CONTENTS

     7-    1	**** PIPSPL VERSION M0206 ****
PIPMAC - MACROS FOR PIP, ETC.	MACRO M1113  27-FEB-85 12:28  PAGE 6


    397
PIPSPL M0206, SPOOL COMMAND-PIP	MACRO M1113  27-FEB-85 12:28  PAGE 7


      1						.TITLE	PIPSPL M0206, SPOOL COMMAND-PIP
						.SBTTL	**** PIPSPL VERSION M0206 ****
						.IDENT	/M0206/
      2					; ALTERED:
      3					; ANDREW C. GOLDSTEIN  16 JUN 75  17:20
      4					;
      5					; COPYRIGHT 1975, 1985, DIGITAL EQUIPMENT CORP., MAYNARD MASS.
      6					; COPYRIGHT 1974, DIGITAL EQUIPMENT CORP., MAYNARD MASS.
      7
      8					;			ALL RIGHTS RESERVED
      9					;
     10					; THIS SOFTWARE IS FURNISHED TO PURCHASER UNDER A LICENSE FOR USE
     11					; ON A SINGLE COMPUTER SYSTEM AND CAN BE COPIED (WITH INCLUSION
     12					; OF DEC'S COPYRIGHT NOTICE) ONLY FOR USE IN SUCH SYSTEM, EXCEPT
     13					; AS MAY OTHERWISE BE PROVIDED IN WRITING BY DEC.
     14
     15					; THE INFORMATION IN THIS DOCUMENT IS SUBJECT TO CHANGE WITHOUT
     16					; NOTICE AND SHOULD NOT BE CONSTRUED AS A COMMITMENT BY DIGITAL
     17					; EQUIPMENT CORPORATION.
     18
     19					; DEC ASSUMES NO RESPONSIBILITY FOR THE USE OR RELIABILITY
     20					; OF ITS SOFTWARE ON EQUIPMENT WHICH IS NOT SUPPLIED BY DEC.
     21					;
     22					; PETER H. LIPMAN	2-MAY-74
     23
     24						.IF	GT,R$$11M
     25						.MACRO	OPEN$	A1,A2,A3,A4,A5,A6,A7,A8,A9
     26						.MCALL	OFNB$
     27						OFNB$	A1,A2,A3,A4,A5,A6,A7,A8,A9
     28						.ENDM	OPEN$
     29						.ENDC
     30					;
     31						.MCALL	FDOF$L,FCSBT$
     32	000000					FDOF$L			;DEFINE THE FDB OFFSETS LOCALLY
     33	000000					FCSBT$			;DEFINE THE FDB BITS AND VALUES LOCALLY
     34					;
     35						.MCALL	CALL,RETURN,FDRC$R
     36						.MCALL	OPEN$R,PRINT$,CLOSE$
     37
     38	000000					PURE.I
     39
     40					; SPOOL THE SPECIFIED LIST OF FILES FOR PRINTING AND DELETE THEM
     41	000000				SPOOL::	CALL	FSTOUT
     42	000004					FDRC$R	#FDBOUT,#FD.RWM
     43	000016	052767 	000000G	000000G	SPOOL1:	BIS	#FRSTIM,CPYCTL
     44						.IF	LE,R$$11M
     45						BIT	#FIDBIT,CPYCTL	; CHECK FOR /FI SWITCH
     46						BNE	80$		; CAN'T DO IT - OUT
     47						.ENDC
     48	000024					CALL	PARSE
     49	000030	103431 				BCS	60$
     50	000032	016067 	000120 	000000G		MOV	F.FVER(R0),VERSAV
     51	000040	016760 	000000G	000120 	10$:	MOV	VERSAV,F.FVER(R0)
     52	000046					CALL	FNDNXT
     53	000052	103423 				BCS	68$
     54	000054	042767 	000000G	000000G		BIC	#FRSTIM,CPYCTL
     55	000062					OPEN$R	R0		;OPEN THE FILE
PIPSPL M0206, SPOOL COMMAND-PIP	MACRO M1113  27-FEB-85 12:28  PAGE 7-1
**** PIPSPL VERSION M0206 ****

     56	000074	103415 				BCS	70$
     57					; SPOOL THE OPEN FILE FOR PRINTING, SPOOLER WILL CLOSE, PRINT AND
     58					; DELETE THE FILE
Q    59	000076					PRINT$	R0
     60	000076	103422 				BCS	75$
     61	000100				20$:	CLOSE$	R0		;CERTAIN CONDITIONS WILL LEAVE IT OPEN
     62	000104					CALL	NXTFIL		;ANY MORE FILES IN THIS FILE SPEC?
     63	000110	103420 				BCS	SPLNXT		;BRANCH IF NO
     64	000112	000752 				BR	10$		;GO FIND THE NEXT FILE
     65					;
     66					; PARSE ERROR
     67	000114				60$:	CALL	PRSERR
     68	000120	000414 				BR	SPLNXT
     69					;
     70					; FAILED TO FIND FILE
     71	000122				68$:	CALL	FNDERR
     72	000126	000411 				BR	SPLNXT
     73					;
     74					; OPEN FAILURE
     75	000130				70$:	ERROUT	OP01,0,0
	000130	104426 				TRAP	X
	000132	000000G				.WORD	OP01SZ
	000134	000000G				.WORD	OP01MG
     76	000136	012700 	000000G			MOV	#FDBOUT,R0
     77	000142	000756 				BR	20$
     78					;
     79					; ERROR FROM PRINT$
     80	000144				75$:	ERROUT	SP01,0
	000144	104406 				TRAP	X
	000146	000000G				.WORD	SP01SZ
	000150	000000G				.WORD	SP01MG
     81						.IF	LE,R$$11M
     82						BR	SPLNXT
     83					;
     84					; ATTEMPT TO SPOOL FILE BY FILE ID - NOT SUPPORTED
     85					80$:	ERROUT	SP02
     86						.ENDC
     87					;
     88					; GO GET THE NEXT FILE IN THE LIST TO BE SPOOLED
     89	000152				SPLNXT:	CALL	NXTOUT
     90	000156	103402 				BCS	10$
     91	000160	000167 	177632 			JMP	SPOOL1
     92	000164	000167 	000000G		10$:	JMP	CLOSX
     93
     94					;
     95					;
     96		000001 				.END
PIPSPL M0206, SPOOL COMMAND-PIP	MACRO M1113  27-FEB-85 12:28  PAGE 7-2
SYMBOL TABLE

CLOSX = ****** GX	FNDERR= ****** GX	F.ERR = 000052   	NB.DEV= 000200   	R$$DPB= 000001
CPYCTL= ****** GX	FNDNXT= ****** GX	F.FACC= 000043   	NB.DIR= 000100   	R$$DYM= 000001
FA.APD= 000100   	FO.APD= 000106   	F.FFBY= 000014   	NB.NAM= 000004   	R$$EIS= 000000
FA.CRE= 000010   	FO.MFY= 000002   	F.FNAM= 000110   	NB.SD1= 000400   	R$$11M= 000001
FA.EXT= 000004   	FO.RD = 000001   	F.FNB = 000102   	NB.SD2= 001000   	R.FIX = 000001
FA.NSP= 000100   	FO.UPD= 000006   	F.FTYP= 000116   	NB.SNM= 000040   	R.VAR = 000002
FA.RD = 000001   	FO.WRT= 000016   	F.FVER= 000120   	NB.STP= 000020   	SPLNXT  000152R     002
FA.SHR= 000040   	FRSTIM= ****** GX	F.HIBK= 000004   	NB.SVR= 000010   	SPOOL   000000RG    002
FA.TMP= 000020   	FSTOUT= ****** GX	F.LUN = 000042   	NB.TYP= 000002   	SPOOL1  000016R     002
FA.WRT= 000002   	F.ALOC= 000040   	F.MBCT= 000054   	NB.VER= 000001   	SP01MG= ****** GX
FDBOUT= ****** GX	F.BBFS= 000062   	F.MBC1= 000055   	NXTFIL= ****** GX	SP01SZ= ****** GX
FD.BLK= 000010   	F.BDB = 000070   	F.MBFG= 000056   	NXTOUT= ****** GX	S.FATT= 000016
FD.CCL= 000002   	F.BGBC= 000057   	F.NRBD= 000024   	N.DID = 000024   	S.FDB = 000140
FD.CR = 000002   	F.BKDN= 000026   	F.NREC= 000030   	N.DVNM= 000032   	S.FNAM= 000006
FD.DIR= 000010   	F.BKDS= 000020   	F.OVBS= 000030   	N.FID = 000000   	S.FNB = 000036
FD.FTN= 000001   	F.BKEF= 000050   	F.RACC= 000016   	N.FNAM= 000006   	S.FNBW= 000017
FD.INS= 000010   	F.BKP1= 000051   	F.RATT= 000001   	N.FTYP= 000014   	S.FNTY= 000004
FD.PLC= 000004   	F.BKST= 000024   	F.RCNM= 000034   	N.FVER= 000016   	S.FTYP= 000002
FD.RAH= 000001   	F.BKVB= 000064   	F.RCTL= 000017   	N.NEXT= 000022   	S.NFEN= 000020
FD.RAN= 000002   	F.CNTG= 000034   	F.RSIZ= 000002   	N.STAT= 000020   	VERSAV= ****** GX
FD.REC= 000001   	F.DFNB= 000046   	F.RTYP= 000000   	N.UNIT= 000034   	X     = 000006
FD.RWM= 000001   	F.DSPT= 000044   	F.STBK= 000036   	OP01MG= ****** GX	$$    = 000067
FD.SDI= 000020   	F.DVNM= 000134   	F.UNIT= 000136   	OP01SZ= ****** GX	.CLOSE= ****** G
FD.SQD= 000040   	F.EFBK= 000010   	F.URBD= 000020   	PARSE = ****** GX	.OPFNB= ****** G
FD.TTY= 000004   	F.EFN = 000050   	F.VBN = 000064   	PAR$$$= 000000   	...GBL= 000000
FD.WBH= 000002   	F.EOBB= 000032   	F.VBSZ= 000060   	PRSERR= ****** GX	...TPC= 000140

. ABS.	000000	   000
      	000000	   001
PURE$I	000170	   002
ERRORS DETECTED:  1

VIRTUAL MEMORY USED:  4407 WORDS  ( 18 PAGES)
DYNAMIC MEMORY:  5678 WORDS  ( 21 PAGES)
ELAPSED TIME:  00:00:16
[43,10]PIPSPL,[43,20]PIPSPL/-SP/CR=[43,30]PIPMAC,PIPSPL
PIPSPL     CREATED BY  MACRO  ON 27-FEB-85 AT 12:28	PAGE 1

SYMBOL CROSS REFERENCE                                  CREF

SYMBOL	VALUE		REFERENCES

CLOSX 	= ******  GX	 7-92
CPYCTL	= ******  GX	*7-43      *7-54
FDBOUT	= ******  GX	 7-42       7-42       7-76
FD.RWM	= 000001	 7-42
FNDERR	= ******  GX	 7-71       7-71
FNDNXT	= ******  GX	 7-52       7-52
FO.RD 	= 000001	 7-55
FRSTIM	= ******  GX	 7-43       7-54
FSTOUT	= ******  GX	 7-41       7-41
F.FACC	= 000043	*7-55
F.FVER	= 000120	 7-50      *7-51
F.RACC	= 000016	*7-42
NXTFIL	= ******  GX	 7-62       7-62
NXTOUT	= ******  GX	 7-89       7-89
OP01MG	= ******  GX	 7-75
OP01SZ	= ******  GX	 7-75
PARSE 	= ******  GX	 7-48       7-48
PAR$$$	= 000000	#7-42       7-42      #7-55       7-55      #7-61       7-61
PRSERR	= ******  GX	 7-67       7-67
RONLY$	= ******	 7-38       7-38
R$$DPB	= 000001	#1-27
R$$DYM	= 000001	#1-29
R$$EIS	= 000000	#1-28       1-38
R$$11M	= 000001	#1-25       1-26       7-1        7-24       7-44       7-81
SPLNXT	  000152 R	 7-63       7-68       7-72      #7-89
SPOOL 	  000000 RG	#7-41
SPOOL1	  000016 R	#7-43       7-91
SP01MG	= ******  GX	 7-80
SP01SZ	= ******  GX	 7-80
SYS40$	= ******	 1-67       7-38       7-38
VERSAV	= ******  GX	*7-50       7-51
X     	= 000006	#7-75       7-75      #7-75       7-75      #7-75       7-75      #7-80       7-80      #7-80
                         7-80
$$    	= 000067	#7-41       7-41      #7-48       7-48      #7-52       7-52      #7-62       7-62      #7-67
                         7-67      #7-71       7-71      #7-89       7-89
.CLOSE	= ******  G	 7-61       7-61
.OPFNB	= ******  G	 7-55       7-55
PIPSPL     CREATED BY  MACRO  ON 27-FEB-85 AT 12:28	PAGE 2

MACRO CROSS REFERENCE                                   CREF

MACRO NAME	REFERENCES

ASH   		#1-64
ASHC  		#1-64
CALL  		#7-35       7-41       7-48       7-52      #7-55      #7-61       7-62       7-67       7-71       7-89
CLOSE$		#7-36      #7-61
CMOV$B		#7-42       7-42      #7-55      #7-55       7-55       7-55      #7-55       7-55
CMOV$W		#7-42      #7-42      #7-42      #7-55      #7-55      #7-55      #7-55      #7-55      #7-55
DIV   		#1-64
ERRINI		#4-307
ERROUT		#3-215      7-75       7-80
ERROUX		#3-222
ERROU1		#3-225     #7-75      #7-80
ERRP  		#3-247
ERRPX 		#3-253
ERRP1 		#3-256
ERR$  		#7-55      #7-55      #7-61      #7-61
ERR1  		#3-273     #7-75      #7-80
FCSBT$		#7-31       7-33
FDOFF$		#7-32       7-32
FDOF$L		#7-31       7-32
FDOP$R		#7-55       7-55
FDRC$R		#7-35       7-42      #7-55       7-55
FLDSOF		#5-382
IDENT 		#5-339     #7-1
IDENT1		#5-347      7-1
IDTITL		#5-356
ILLOP 		#1-52      #1-64       1-64
IMPURE		#1-75
LDFDB$		#7-42      #7-42      #7-55      #7-55      #7-55      #7-55      #7-61      #7-61
MARK  		#1-64
MSG   		#2-124
MSGZ  		#2-129
MSG1  		#2-133
MUL   		#1-64
NOEIS$		#1-39       1-64
OFNB$ 		#7-55      #7-55
OPEN$ 		#7-25      #7-55      #7-55
OPEN$R		#7-36      #7-55
PRINT$		#7-36       7-59
PURE. 		#1-84       7-38
PURE.D		#1-102
PURE.I		#1-98       7-38
RETURN		#7-35
RTT   		#1-64
SOB   		#1-64
SXT   		#1-64
XOR   		#1-64
PIPUNL M0202, UNLOCK COMMAND-PI	MACRO M1113  27-FEB-85 12:28
TABLE OF CONTENTS

     7-    1	**** PIPUNL VERSION M0202 ****
PIPMAC - MACROS FOR PIP, ETC.	MACRO M1113  27-FEB-85 12:28  PAGE 6


    397
PIPUNL M0202, UNLOCK COMMAND-PI	MACRO M1113  27-FEB-85 12:28  PAGE 7


      1						.TITLE	PIPUNL M0202, UNLOCK COMMAND-PIP
						.SBTTL	**** PIPUNL VERSION M0202 ****
						.IDENT	/M0202/
      2					; ALTERED WEDNESDAY 8-JAN-75 12:45
      3					;
      4					; COPYRIGHT 1974, 1985, DIGITAL EQUIPMENT CORP., MAYNARD MASS.
      5
      6					;			ALL RIGHTS RESERVED
      7					;
      8					; THIS SOFTWARE IS FURNISHED TO PURCHASER UNDER A LICENSE FOR USE
      9					; ON A SINGLE COMPUTER SYSTEM AND CAN BE COPIED (WITH INCLUSION
     10					; OF DEC'S COPYRIGHT NOTICE) ONLY FOR USE IN SUCH SYSTEM, EXCEPT
     11					; AS MAY OTHERWISE BE PROVIDED IN WRITING BY DEC.
     12
     13					; THE INFORMATION IN THIS DOCUMENT IS SUBJECT TO CHANGE WITHOUT
     14					; NOTICE AND SHOULD NOT BE CONSTRUED AS A COMMITMENT BY DIGITAL
     15					; EQUIPMENT CORPORATION.
     16
     17					; DEC ASSUMES NO RESPONSIBILITY FOR THE USE OR RELIABILITY
     18					; OF ITS SOFTWARE ON EQUIPMENT WHICH IS NOT SUPPLIED BY DEC.
     19					;
     20					; PETER H. LIPMAN	2-MAY-74
     21
     22						.MCALL	FDOF$L
     23	000000					FDOF$L			;DEFINE THE FDB OFFSETS LOCALLY
     24					;
     25						.MCALL	CALL,RETURN
     26
     27
     28	000000					PURE.I
     29
     30					; UNLOCK A LOCKED FILE
     31	000000				UNLOCK::
     32	000000	012701 	001000 			MOV	#1000,R1
     33	000004					CALL	.DYALC		;ALLOCATE A HEADER BUFFER
     34	000010	010067 	000000G			MOV	R0,.HDRAD	;AND SAVE IT'S ADDRESS
     35	000014					CALL	FSTOUT
     36	000020	012700 	000000G			MOV	#FDBOUT,R0
     37	000024	052767 	000000G	000000G	UNLCK1:	BIS	#FRSTIM,CPYCTL
     38	000032					CALL	PARSE
     39	000036	103003 				BCC	10$
     40	000040					CALL	PRSERR
     41	000044	000465 				BR	ULKNXT
     42	000046	016067 	000120 	000000G	10$:	MOV	F.FVER(R0),VERSAV
     43	000054	016760 	000000G	000120 	UNLCK2:	MOV	VERSAV,F.FVER(R0)
     44	000062					CALL	FNDNXT
     45	000066	103441 				BCS	65$
     46	000070	042767 	000000G	000000G		BIC	#FRSTIM,CPYCTL
     47					; READ THE FILE ATTRIBUTES
     48	000076					CALL	RDATT
     49	000102	103436 				BCS	70$
     50					;
     51					; NOW VERIFY THAT FILE IS LOCKED
     52	000104	016705 	000000G			MOV	.HDRAD,R5	;ADDRESS OF HEADER BUFFER TO R5
     53	000110	062705 	000000G			ADD	#HH.CHU,R5	;R5=ADDRESS OF CHARACTERISTICS BYTE
     54	000114	132715 	000000G			BITB	#HS.PHL,(R5)
     55	000120	001420 				BEQ	40$		;BRANCH HF FILE NOT LOCKED
PIPUNL M0202, UNLOCK COMMAND-PI	MACRO M1113  27-FEB-85 12:28  PAGE 7-1
**** PIPUNL VERSION M0202 ****

     56	000122	142715 	000000G			BICB	#HS.PHL,(R5)	;CLEAR THE LOCK BIT
     57					;
     58					; SET UP TO WRITE THE USER CHARACTERISTICS BACK TO THE FILE
     59					; FIRST PUT AN ATTRIBUTE BLOCK ON THE STACK
     60	000126	005046 				CLR	-(SP)
     61	000130	010546 				MOV	R5,-(SP)	;ADDRESS OF BYTE TO WRITE
     62	000132	012746 	000000G			MOV	#HA.CHU,-(SP)	;ATTRIBUTE CODE AND BYTE COUNT
     63	000136	010601 				MOV	SP,R1		;R1=ADDRESS OF ATTRIBUTE BLOCK
     64	000140					CALL	WRTATT		;WRITE THE ATTRIBUTES
     65	000144	062706 	000006 			ADD	#6,SP		;CLEAN UP THE STACK
     66	000150	000416 				BR	ULKNX1
     67					;
     68					; BAD SYNTAX FOR UNLOCK COMMAND
     69	000152				20$:	ERROUT	UN04
	000152	104402 				TRAP	X
	000154	000000G				.WORD	UN04SZ
	000156	000000G				.WORD	UN04MG
     70	000160	000422 				BR	UNLKX1
     71					;
     72					; FILE ALREADY UNLOCKED
     73	000162				40$:	ERROUT	UN03,0
	000162	104406 				TRAP	X
	000164	000000G				.WORD	UN03SZ
	000166	000000G				.WORD	UN03MG
     74	000170	000406 				BR	ULKNX1
     75					;
     76					; FIND ERROR
     77	000172				65$:	CALL	FNDERR
     78	000176	000410 				BR	ULKNXT
     79					;
     80					; ERROR FROM READ ATTRIBUTES
     81	000200				70$:	ERROUT	UN02,0,0
	000200	104426 				TRAP	X
	000202	000000G				.WORD	UN02SZ
	000204	000000G				.WORD	UN02MG
     82					;
     83					; COME HERE TO CONTINUE WITH NEXT FILE IN WILD CARD CLASS
     84	000206	012700 	000000G		ULKNX1:	MOV	#FDBOUT,R0
     85	000212					CALL	NXTFIL		;ANY MORE FILES IN THIS FILE SPEC?
     86	000216	103316 				BCC	UNLCK2		;BRANCH IF YES
     87					;
     88					; COME HERE TO CONTINUE WITH THE NEXT FILE SPECIFIER
     89	000220				ULKNXT:	CALL	NXTOUT
     90	000224	103277 				BCC	UNLCK1
     91	000226	000167 	000000G		UNLKX1:	JMP	CLOSX
     92
     93					;
     94					;
     95		000001 				.END
PIPUNL M0202, UNLOCK COMMAND-PI	MACRO M1113  27-FEB-85 12:28  PAGE 7-2
SYMBOL TABLE

CLOSX = ****** GX	F.DVNM= 000134   	F.RATT= 000001   	N.FVER= 000016   	ULKNXT  000220R     002
CPYCTL= ****** GX	F.EFBK= 000010   	F.RCNM= 000034   	N.NEXT= 000022   	ULKNX1  000206R     002
FDBOUT= ****** GX	F.EFN = 000050   	F.RCTL= 000017   	N.STAT= 000020   	UNLCK1  000024R     002
FNDERR= ****** GX	F.EOBB= 000032   	F.RSIZ= 000002   	N.UNIT= 000034   	UNLCK2  000054R     002
FNDNXT= ****** GX	F.ERR = 000052   	F.RTYP= 000000   	PARSE = ****** GX	UNLKX1  000226R     002
FRSTIM= ****** GX	F.FACC= 000043   	F.STBK= 000036   	PRSERR= ****** GX	UNLOCK  000000RG    002
FSTOUT= ****** GX	F.FFBY= 000014   	F.UNIT= 000136   	RDATT = ****** GX	UN02MG= ****** GX
F.ALOC= 000040   	F.FNAM= 000110   	F.URBD= 000020   	R$$DPB= 000001   	UN02SZ= ****** GX
F.BBFS= 000062   	F.FNB = 000102   	F.VBN = 000064   	R$$DYM= 000001   	UN03MG= ****** GX
F.BDB = 000070   	F.FTYP= 000116   	F.VBSZ= 000060   	R$$EIS= 000000   	UN03SZ= ****** GX
F.BGBC= 000057   	F.FVER= 000120   	HA.CHU= ****** GX	R$$11M= 000001   	UN04MG= ****** GX
F.BKDN= 000026   	F.HIBK= 000004   	HH.CHU= ****** GX	S.FATT= 000016   	UN04SZ= ****** GX
F.BKDS= 000020   	F.LUN = 000042   	HS.PHL= ****** GX	S.FDB = 000140   	VERSAV= ****** GX
F.BKEF= 000050   	F.MBCT= 000054   	NXTFIL= ****** GX	S.FNAM= 000006   	WRTATT= ****** GX
F.BKP1= 000051   	F.MBC1= 000055   	NXTOUT= ****** GX	S.FNB = 000036   	X     = 000026
F.BKST= 000024   	F.MBFG= 000056   	N.DID = 000024   	S.FNBW= 000017   	$$    = 000067
F.BKVB= 000064   	F.NRBD= 000024   	N.DVNM= 000032   	S.FNTY= 000004   	.DYALC= ****** GX
F.CNTG= 000034   	F.NREC= 000030   	N.FID = 000000   	S.FTYP= 000002   	.HDRAD= ****** GX
F.DFNB= 000046   	F.OVBS= 000030   	N.FNAM= 000006   	S.NFEN= 000020   	...TPC= 000140
F.DSPT= 000044   	F.RACC= 000016   	N.FTYP= 000014

. ABS.	000000	   000
      	000000	   001
PURE$I	000232	   002
ERRORS DETECTED:  0

VIRTUAL MEMORY USED:  3609 WORDS  ( 15 PAGES)
DYNAMIC MEMORY:  4622 WORDS  ( 17 PAGES)
ELAPSED TIME:  00:00:12
[43,10]PIPUNL,[43,20]PIPUNL/-SP/CR=[43,30]PIPMAC,PIPUNL
PIPUNL     CREATED BY  MACRO  ON 27-FEB-85 AT 12:28	PAGE 1

SYMBOL CROSS REFERENCE                                  CREF

SYMBOL	VALUE		REFERENCES

CLOSX 	= ******  GX	 7-91
CPYCTL	= ******  GX	*7-37      *7-46
FDBOUT	= ******  GX	 7-36       7-84
FNDERR	= ******  GX	 7-77       7-77
FNDNXT	= ******  GX	 7-44       7-44
FRSTIM	= ******  GX	 7-37       7-46
FSTOUT	= ******  GX	 7-35       7-35
F.FVER	= 000120	 7-42      *7-43
HA.CHU	= ******  GX	 7-62
HH.CHU	= ******  GX	 7-53
HS.PHL	= ******  GX	 7-54       7-56
NXTFIL	= ******  GX	 7-85       7-85
NXTOUT	= ******  GX	 7-89       7-89
PARSE 	= ******  GX	 7-38       7-38
PRSERR	= ******  GX	 7-40       7-40
RDATT 	= ******  GX	 7-48       7-48
RONLY$	= ******	 7-28       7-28
R$$DPB	= 000001	#1-27
R$$DYM	= 000001	#1-29
R$$EIS	= 000000	#1-28       1-38
R$$11M	= 000001	#1-25       1-26       7-1
SYS40$	= ******	 1-67       7-28       7-28
ULKNXT	  000220 R	 7-41       7-78      #7-89
ULKNX1	  000206 R	 7-66       7-74      #7-84
UNLCK1	  000024 R	#7-37       7-90
UNLCK2	  000054 R	#7-43       7-86
UNLKX1	  000226 R	 7-70      #7-91
UNLOCK	  000000 RG	#7-31
UN02MG	= ******  GX	 7-81
UN02SZ	= ******  GX	 7-81
UN03MG	= ******  GX	 7-73
UN03SZ	= ******  GX	 7-73
UN04MG	= ******  GX	 7-69
UN04SZ	= ******  GX	 7-69
VERSAV	= ******  GX	*7-42       7-43
WRTATT	= ******  GX	 7-64       7-64
X     	= 000026	#7-69       7-69      #7-73       7-73      #7-73       7-73      #7-81       7-81      #7-81
                         7-81      #7-81       7-81
$$    	= 000067	#7-33       7-33      #7-35       7-35      #7-38       7-38      #7-40       7-40      #7-44
                         7-44      #7-48       7-48      #7-64       7-64      #7-77       7-77      #7-85       7-85
                        #7-89       7-89
.DYALC	= ******  GX	 7-33       7-33
.HDRAD	= ******  GX	*7-34       7-52
PIPUNL     CREATED BY  MACRO  ON 27-FEB-85 AT 12:28	PAGE 2

MACRO CROSS REFERENCE                                   CREF

MACRO NAME	REFERENCES

ASH   		#1-64
ASHC  		#1-64
CALL  		#7-25       7-33       7-35       7-38       7-40       7-44       7-48       7-64       7-77       7-85
                 7-89
DIV   		#1-64
ERRINI		#4-307
ERROUT		#3-215      7-69       7-73       7-81
ERROUX		#3-222
ERROU1		#3-225     #7-69      #7-73      #7-81
ERRP  		#3-247
ERRPX 		#3-253
ERRP1 		#3-256
ERR1  		#3-273     #7-69      #7-73      #7-81
FDOFF$		#7-23      #7-23
FDOF$L		#7-22      #7-23
FLDSOF		#5-382
IDENT 		#5-339     #7-1
IDENT1		#5-347      7-1
IDTITL		#5-356
ILLOP 		#1-52      #1-64       1-64
IMPURE		#1-75
MARK  		#1-64
MSG   		#2-124
MSGZ  		#2-129
MSG1  		#2-133
MUL   		#1-64
NOEIS$		#1-39       1-64
PURE. 		#1-84       7-28
PURE.D		#1-102
PURE.I		#1-98       7-28
RETURN		#7-25
RTT   		#1-64
SOB   		#1-64
SXT   		#1-64
XOR   		#1-64
PIPSBR M0211, COMMAND SUBROUTIN	MACRO M1113  27-FEB-85 12:28
TABLE OF CONTENTS

     7-    1	**** PIPSBR VERSION M0211 ****
     8-   81	FSTOUT, NXTOUT, NXTIN, WLDVER, CWLDUI
     9-  172	STNMBK, STNBK1 - INITIALIZE NAME BLOCK ROUTINES
    10-  221	PARSE, FNDNXT, FINDFL, RMVNXT
    12-  372	USEFID, PRSREG
    13-  413	COMMON ERROR ROUTINES
    14-  458	DYNAMIC MEMORY ALLOCATION AND RELEASE ROUTINES
PIPMAC - MACROS FOR PIP, ETC.	MACRO M1113  27-FEB-85 12:28  PAGE 6


    397
PIPSBR M0211, COMMAND SUBROUTIN	MACRO M1113  27-FEB-85 12:28  PAGE 7


      1						.TITLE	PIPSBR M0211, COMMAND SUBROUTINES-PIP
						.SBTTL	**** PIPSBR VERSION M0211 ****
						.IDENT	/M0211/
      2					; ALTERED TUESDAY 21-JAN-75 8:00
      3					;
      4					; COPYRIGHT 1975, 1985, DIGITAL EQUIPMENT CORP., MAYNARD MASS.
      5					; COPYRIGHT 1974, DIGITAL EQUIPMENT CORP., MAYNARD MASS.
      6
      7					;			ALL RIGHTS RESERVED
      8					;
      9					; THIS SOFTWARE IS FURNISHED TO PURCHASER UNDER A LICENSE FOR USE
     10					; ON A SINGLE COMPUTER SYSTEM AND CAN BE COPIED (WITH INCLUSION
     11					; OF DEC'S COPYRIGHT NOTICE) ONLY FOR USE IN SUCH SYSTEM, EXCEPT
     12					; AS MAY OTHERWISE BE PROVIDED IN WRITING BY DEC.
     13
     14					; THE INFORMATION IN THIS DOCUMENT IS SUBJECT TO CHANGE WITHOUT
     15					; NOTICE AND SHOULD NOT BE CONSTRUED AS A COMMITMENT BY DIGITAL
     16					; EQUIPMENT CORPORATION.
     17
     18					; DEC ASSUMES NO RESPONSIBILITY FOR THE USE OR RELIABILITY
     19					; OF ITS SOFTWARE ON EQUIPMENT WHICH IS NOT SUPPLIED BY DEC.
     20					;
     21					; PETER H. LIPMAN	2-MAY-74
     22
     23	000000					FLDSOF
     24						.MCALL	CSI$
     25	000000					CSI$
     26
     27						.MCALL	CALL,RETURN,CLOSE$,FDBF$R
     28
     29	000000					PURE.I
     30
     31					;  CLOSE THE INPUT AND OUTPUT FILES
     32	000000				CLOSE::	CALL	CLSIN
     33	000004	012700 	000000G		CLSOUT::MOV	#FDBOUT,R0
     34	000010					FDBF$R	R0,,,#0		;FORCE DEFAULT BUFFER COUNT
     35	000014	005760 	000000G			TST	F.BDB(R0)	;DON'T THINK ABOUT DETACHING IF CLOSED
     36	000020	001417 				BEQ	15$
     37	000022	132760 	000000G	000000G		BITB	#FD.REC,F.RCTL(R0) ;IF OUTPUT FILE IS REC DEV
     38	000030	001413 				BEQ	15$
     39	000032	012701 	000000G			MOV	#IO.DET,R1	;DETACH IT BEFORE CLOSING
     40	000036	005002 				CLR	R2
     41	000040					CALL	.XQIO
     42	000044	103005 				BCC	15$
     43	000046					ERROUT	OP06,0,0	;FAILED TO DETACH
	000046	104426 				TRAP	X
	000050	000000G				.WORD	OP06SZ
	000052	000000G				.WORD	OP06MG
     44	000054	012700 	000000G			MOV	#FDBOUT,R0	;R0 CLOBBERED BY ERROR PRINTING
     45	000060				15$:	CLOSE$	R0
     46	000064	103003 				BCC	20$
     47	000066					ERROUT	OP05,0,0
	000066	104426 				TRAP	X
	000070	000000G				.WORD	OP05SZ
	000072	000000G				.WORD	OP05MG
     48	000074				20$:	RETURN
     49					;
PIPSBR M0211, COMMAND SUBROUTIN	MACRO M1113  27-FEB-85 12:28  PAGE 7-1
**** PIPSBR VERSION M0211 ****

     50					; CLOSE THE INPUT FILE
     51	000076				CLSIN::	CLOSE$	#FDBIN
     52	000106	103003 				BCC	10$
     53	000110					ERROUT	OP04,0,0
	000110	104426 				TRAP	X
	000112	000000G				.WORD	OP04SZ
	000114	000000G				.WORD	OP04MG
     54	000116				10$:	RETURN
     55					;+
     56					; ATTACH DEVICE IF IT IS A RECORD DEVICE.
     57					; CALLING SEQUENCE:
     58					;	CALL	RECATT
     59					; INPUTS:
     60					;	R0=FDB
     61					; OUTPUTS:
     62					;	C=0 IF OK, C=1 IF ERROR, F.ERR SET
     63					;	R1,R2 ALTERED, OTHERS PRESERVED
     64					;-
     65	000120	132760 	000000G	000000G	RECATT::BITB	#FD.REC,F.RCTL(R0)
     66	000126	001406 				BEQ	10$		;BRANCH IF NOTHING TO DO
     67	000130	012701 	000000G			MOV	#IO.ATT,R1
     68	000134	005002 				CLR	R2		;NO, EXTRA PARAMS IN DPB
     69	000136					CALL	.XQIO
     70	000142					RETURN			;NOTE THAT C BIT IS CORRECT
     71	000144	000241 			10$:	CLC
     72	000146					RETURN
     73					;
     74					; INIT THE PROTECTION VALUES TO ZERO
     75	000150	012701 	000000G		INIPRO::MOV	#WORPRO,R1
     76	000154	012702 	000000C			MOV	#<PROWRD-WORPRO>/2,R2
     77	000160	005021 			25$:	CLR	(R1)+
     78	000162					SOB	R2,25$
     79	000166					RETURN
PIPSBR M0211, COMMAND SUBROUTIN	MACRO M1113  27-FEB-85 12:28  PAGE 8
FSTOUT, NXTOUT, NXTIN, WLDVER, CWLDUI

     81						.SBTTL	FSTOUT, NXTOUT, NXTIN, WLDVER, CWLDUI
     82					;
     83					; SET UP FOR FIRST OUTPUT SPEC - USED BY COMMANDS WHICH HAVE A LIST
     84					; OF OUTPUT SPECS AND NO INPUT SPECS
     85	000170	005767 	000000G		FSTOUT::TST	INSPEC		;NO INPUT SPECIFIER ALLOWED
     86	000174	001405 				BEQ	10$
     87	000176					ERROUT	CR01		;BAD SYNTAX
	000176	104402 				TRAP	X
	000200	000000G				.WORD	CR01SZ
	000202	000000G				.WORD	CR01MG
     88	000204	000167 	000000G			JMP	AGAIN
     89	000210	012767 	000000G	000000C	10$:	MOV	#NAMBLK,FDBOUT+F.DFNB ;SET UP DEFAULT NAME BLOCK
     90	000216	012767 	000000G	000000C		MOV	#OFNPT,FDBOUT+F.DSPT ;AND DESCRIPTOR POINTER
     91					; INITIALIZE THE DEFAULT NAME BLOCK
     92	000224	005002 				CLR	R2		;NO FILE NAME AND TYPE
     93	000226	005001 				CLR	R1		;ZERO DIRECTORY ID
     94	000230					CALL	STNMBK		;USES DEFAULT SYS DEVICE
     95	000234					RETURN
     96					; SET UP FOR NEXT OUTPUT IN LIST IF ANY, RETURN C=0 IF READY WITH
     97					; ANOTHER FILE, C=1 IF NO MORE IN LIST, OR IF ERROR
     98	000236	012700 	000000G		NXTOUT::MOV	#FDBOUT,R0
     99	000242	012701 	000000G			MOV	#OFNPT,R1
    100	000246	012702 	000000G			MOV	#OUTCSI,R2
    101	000252	000406 				BR	NXTIN1
    102	000254	012700 	000000G		NXTIN::	MOV	#FDBIN,R0
    103	000260	012701 	000000G			MOV	#IFNPT,R1
    104	000264	012702 	000000G			MOV	#INCSI,R2
    105	000270				NXTIN1::CALL	NXINOU
    106	000274					RETURN
    107					;
    108					; SET UP FOR NEXT INPUT OR OUTPUT SPEC
    109					; INPUTS:
    110					;	R0=FDB
    111					;	R1=ADDRESS OF CSI FILE NAME DESCRIPTOR
    112					;	R2=ADDR OF INCSI OR OUTCSI AS APPROPRIATE
    113	000276				NXINOU::	CLOSE$	R0
    114	000302	103415 				BCS	80$
    115	000304	032761 	000020 	000014 		BIT	#CS.MOR,N.SPEC(R1)
    116	000312	001420 				BEQ	95$
    117	000314	016767 	000000G	000000G		MOV	.LCLSW,CPYCTL
    118	000322					CALL	@R2
    119	000324	103410 				BCS	85$		;BRANCH IF BAD SWITCH OR VALUE
    120					;
    121					; IF PREVIOUS FILE NAME/TYPE WAS EXPLICIT, BUT NOT A WILD CARD
    122					; THEN USE THAT NAME/TYPE AS A DEFAULT FOR THE NEXT SPECIFIER
    123	000326					CALL	.DFLTN		;SET NEXT DEFAULT FILE NAME AND TYPE
    124	000332	000241 				CLC
    125	000334					RETURN
    126					;
    127					; CLOSE FAILURE
    128	000336				80$:	ERROUT	OP05,0,0
	000336	104426 				TRAP	X
	000340	000000G				.WORD	OP05SZ
	000342	000000G				.WORD	OP05MG
    129	000344	000403 				BR	95$
    130					;
    131					; BAD SWITCH
PIPSBR M0211, COMMAND SUBROUTIN	MACRO M1113  27-FEB-85 12:28  PAGE 8-1
FSTOUT, NXTOUT, NXTIN, WLDVER, CWLDUI

    132	000346				85$:	ERROUT	CR02,1
	000346	104412 				TRAP	X
	000350	000000G				.WORD	CR02SZ
	000352	000000G				.WORD	CR02MG
    133	000354	000261 			95$:	SEC
    134	000356					RETURN
    135					;
    136					; CHECK IF WILD CARDS ARE PRESENT IN NAME OR TYPE, THAT VERSION
    137					; IS EXPLICIT OR WILD CARD
    138					; INPUTS:
    139					;	R0=FDB
    140					;	R1=FILE NAME BLOCK
    141					; OUTPUTS:
    142					;	C=0 IF OK, AND ALL REGISTERS PRESERVED
    143					;	C=1 IF NOT OK, ALL REGISTERS ALTERED
    144	000360				WLDVER::CALL	.WLDVC
    145	000364	103004 				BCC	10$
    146	000366					ERROUT	DE04,1
	000366	104412 				TRAP	X
	000370	000000G				.WORD	DE04SZ
	000372	000000G				.WORD	DE04MG
    147	000374	000261 				SEC
    148	000376				10$:	RETURN
    149					;
    150					;+
    151					; CHECK FOR LEGAL WILD CARD UIC, RESTRICT TO [*,*]
    152					; USED ONLY TO RESTRICT OUTPUT UIC'S
    153					; CALLING SEQUENCE:
    154					;	CALL	CWLDUI
    155					; INPUTS:
    156					;	R0=FDB
    157					; OUTPUTS:
    158					;	C=0 IFLEGAL, C=1 IF NOT
    159					;	ALL REGISTERS PRESERVED
    160					;-
    161	000400	032760 	000000G	000000C	CWLDUI::BIT	#NB.SDI,F.FNB+N.STAT(R0) ;LEGAL IF NO WILD UIC'S
    162	000406	001407 				BEQ	20$
    163	000410	016046 	000000C			MOV	F.FNB+N.STAT(R0),-(SP)
    164	000414	042716 	000000C			BIC	#^C<NB.SDI>,@SP
    165	000420	022726 	000000G			CMP	#NB.SDI,(SP)+
    166	000424	001002 				BNE	30$
    167	000426	000241 			20$:	CLC
    168	000430					RETURN
    169	000432	000261 			30$:	SEC
    170	000434					RETURN
PIPSBR M0211, COMMAND SUBROUTIN	MACRO M1113  27-FEB-85 12:28  PAGE 9
STNMBK, STNBK1 - INITIALIZE NAME BLOCK ROUTINES

    172						.SBTTL	STNMBK, STNBK1 - INITIALIZE NAME BLOCK ROUTINES
    173					;+
    174					; SET UP THE FILE NAME BLOCK, NAMBLK, WITH THE FILE NAME, AND TYPE
    175					; THE DIRECTORY ID, AND THE DEVICE AND UNIT
    176					; CALLING SEQUENCE:
    177					;	JSR	PC,STNMBK
    178					; INPUTS:
    179					;	R1=VALUE TO BE STORED IN FIRST 2 LOC OF DIRECTORY ID
    180					;		=0 FOR NORMAL CASE OF NO DEFAULT DIRECTORY ID
    181					;		=-1 TO DEFAULT TO MFD
    182					;	R2=POINTER TO NAME AND TYPE TO MOVE IN
    183					;		OR = 0 IF DESIRE NULL DEFAULTS FOR FILE NAME AND TYPE
    184					; OUTPUTS:
    185					;	R0,R1,R5 PRESERVED, R3,R4 ALTERED
    186					;	R2 ALTERED IF IT POINTS AT A NAME TO MOVE, PRESERVED IF 0
    187					; OPERATION:
    188					;	ZEROS THE SPECIFIED FILE NAME BLOCK AND SET UP THE SPECIFIED
    189					; DIRECTORY ID (VALUE FROM R1), THE SYSTEM
    190					; DEVICE AND UNIT, AND THE DEFAULT FILE NAME AND TYPE IF R2 NON ZERO.
    191					;
    192					; ALTERNATE ENTRY POINT:
    193					;	JSR	PC,STNBK1
    194					; INPUTS:
    195					;	R0 = NAMBLK ADDRESS TO INITIALIZE
    196					;	OTHERWISE, SAME AS ABOVE
    197					;-
    198	000436	010046 			STNMBK::MOV	R0,-(SP)
    199	000440	012700 	000000G			MOV	#NAMBLK,R0
    200	000444					CALL	STNBK1
    201	000450	012600 				MOV	(SP)+,R0
    202	000452					RETURN
    203					;
    204	000454	010003 			STNBK1::MOV	R0,R3		;ZERO THE FILE NAME BLOCK
    205	000456	012704 	000000G			MOV	#S.FNBW,R4	;NO. OF WORDS IN FNB
    206	000462	005023 			10$:	CLR	(R3)+
    207	000464					SOB	R4,10$
    208	000470	010160 	000000G			MOV	R1,N.DID(R0)	;STORE DEFAULT DIRECTORY ID
    209	000474	010160 	000002G			MOV	R1,N.DID+2(R0)
    210	000500	016760 	000000G	000000G		MOV	.DEFDV,N.DVNM(R0) ;SET DEFAULT DEVICE
    211	000506	016760 	000000G	000000G		MOV	.DEFUN,N.UNIT(R0) ;AND UNIT
    212	000514	005702 				TST	R2		;IF DEFAULT NAME AND TYPE SPECIFIED
    213	000516	001410 				BEQ	40$
    214	000520	010003 				MOV	R0,R3		;MOVE THEM IN
    215	000522	062703 	000000G			ADD	#N.FNAM,R3
    216	000526	012704 	000000G			MOV	#S.FNTY,R4	;NUMBER OF WORDS TO MOVE
    217	000532	012223 			20$:	MOV	(R2)+,(R3)+	;MOVE FILE NAME AND TYPE
    218	000534					SOB	R4,20$
    219	000540				40$:	RETURN
PIPSBR M0211, COMMAND SUBROUTIN	MACRO M1113  27-FEB-85 12:28  PAGE 10
PARSE, FNDNXT, FINDFL, RMVNXT

    221						.SBTTL	PARSE, FNDNXT, FINDFL, RMVNXT
    222					;+
    223					; PARSE THE FILE NAME BLOCK
    224					; CALLING SEQUENCE:
    225					;	CALL	PARSE
    226					; INPUTS:
    227					;	R0=FDB
    228					; OUTPUTS:
    229					;	C=0 IF SUCCESSFUL, C=1 IF FAILURE
    230					;	R1=FILE NAME BLOCK
    231					;	R2=FILE DESCRIPTOR POINTER
    232					;	R3=DEFAULT FILE NAME BLOCK
    233					;	R0,R4,R5 PRESERVED
    234					; OPERATION:
    235					;	HANDLES WILD CARD UIC PARSE
    236					;-
    237	000542	010446 			PARSE::	MOV	R4,-(SP)
    238	000544					CALL	PRSREG
    239	000550	005762 	000016 			TST	N.FLID(R2)	;/FI SWITCH SPECIFIED?
    240	000554	001403 				BEQ	5$		;BRANCH IF NOT
    241	000556					CALL	.PRSDV		;JUST PARSE THE DEVICE NAME
    242	000562	000407 				BR	20$
    243	000564	005704 			5$:	TST	R4
    244	000566	001403 				BEQ	10$		;BRANCH IF CALLING .PARSE
    245	000570					CALL	.WPARS
    246	000574	000402 				BR	20$
    247	000576				10$:	CALL	.PARSE
    248	000602	012604 			20$:	MOV	(SP)+,R4
    249	000604					RETURN
    250					;
    251					;+
    252					; FIND THE NEXT FILE IN THIS (OR NEXT) DIRECTORY
    253					; CALLING SEQUENCE:
    254					;	CALL	FNDNXT
    255					; INPUTS:
    256					;	R0=FDB ADDRESS
    257					; OUTPUTS:
    258					;	C=0 IF SUCCESSFUL, C=1 IF FAILURE
    259					;	R1=FILE NAME BLOCK
    260					;	R0,R2-R5 PRESERVED
    261					; OPERATION:
    262					;	FIND WILL USE EXPLICIT FILE ID IF SPECIFIED, AND WILL CROSS
    263					; DIRECTORIES IF WILD CARD UIC IS SPECIFIED
    264					;-
    265	000606	010001 			FNDNXT::MOV	R0,R1
    266	000610	062701 	000000G			ADD	#F.FNB,R1
    267	000614					CALL	USEFID
    268	000620	103011 				BCC	20$
    269	000622	010246 				MOV	R2,-(SP)
    270	000624	016002 	000000G			MOV	F.DSPT(R0),R2
    271	000630	001402 				BEQ	10$
    272	000632	062702 	000024 			ADD	#S.FIDS+S.APPD,R2
    273	000636				10$:	CALL	.FNDNX
    274	000642	012602 				MOV	(SP)+,R2
    275	000644				20$:	RETURN
    276					;
    277					;+
PIPSBR M0211, COMMAND SUBROUTIN	MACRO M1113  27-FEB-85 12:28  PAGE 10-1
PARSE, FNDNXT, FINDFL, RMVNXT

    278					; FIND NEXT FILE, DO NOT ALLOW FILE ID OR CROSS DIRECTORY SEARCH
    279					; CALLING SEQUENCE:
    280					;	CALL	FINDFL
    281					; INPUTS:
    282					;	R0=FDB ADDRESS
    283					; OUTPUTS:
    284					;	C=0 IF SUCCESSFUL, C=1 IF ERROR
    285					;	R1= FILE NAME BLOCK
    286					;	R0,R2-R5 PRESERVED
    287					;-
    288	000646	010001 			FINDFL::MOV	R0,R1
    289	000650	062701 	000000G			ADD	#F.FNB,R1
    290	000654	010246 				MOV	R2,-(SP)
    291	000656	005002 				CLR	R2
    292	000660					CALL	.FNDNX
    293	000664	012602 				MOV	(SP)+,R2
    294	000666					RETURN
    295					;
    296					;+
    297					; IS THERE ANOTHER FILE TO OPERATE ON IN THIS FILE SPECIFIER
    298					; CALLING SEQUENCE:
    299					;	CALL	NXTFIL
    300					; INPUTS:
    301					;	R0=FDB
    302					; OUTPUTS:
    303					;	C=0 IF THERE IS ANOTHER FILE, C=1 IF NOT
    304					;	R0,R5 PRESERVED
    305					;	R1 = FILE NAME BLOCK
    306					;	R2,R3,R4 ALTERED
    307					; OPERATION:
    308					;	SETS UP FOR THE NEXT FNDNXT, RMVNXT CALL BY CHECKING IF
    309					; A WILD CARD NAME OR DIRECTORY WAS SPECIFIED.  THIS ROUTINE WILL
    310					; CROSS DIRECTORIES IF A WILD CARD UIC IS SPECIFIED WITH NO WILD
    311					; CARDS IN THE FILE NAME.
    312					;-
    313	000670	000261 			NXTFIL::SEC			;ASSUME NO WILD CARDS
    314	000672	032760 	000000G	000000C		BIT	#NB.SFL,F.FNB+N.STAT(R0) ;ANY WILD CARDS?
    315	000700	001411 				BEQ	20$		;BRANCH IF NO
    316	000702	000241 				CLC			;NOW ASSUME SUCCESSFUL
    317	000704	032760 	000000G	000000C		BIT	#NB.SFN,F.FNB+N.STAT(R0) ;* IN NAME, TYPE, VERSION
    318	000712	001004 				BNE	20$		;BRANCH IF YES
    319					;
    320					; NO WILD CARDS IN NAME, BUT WILD CARD UIC, CROSS DIRECTORIES NOW
    321					;
    322	000714					CALL	PRSREG		;SET UP REGISTERS
    323	000720					CALL	.NXDIR		;AND CHAIN TO NEXT DIRECTORY
    324	000724				20$:	RETURN
PIPSBR M0211, COMMAND SUBROUTIN	MACRO M1113  27-FEB-85 12:28  PAGE 11
PARSE, FNDNXT, FINDFL, RMVNXT

    326					;+
    327					; REMOVE NEXT FILE, ALLOWS CROSS DIRECTORY OPERATION
    328					; INPUTS:
    329					;	R0=FDB
    330					; OUTPUTS:
    331					;	C=0 IF REMOVED, C=1 IF ERROR
    332					;	R1=FILE NAME BLOCK ADDRESS
    333					;	OTHER REGISTERS PRESERVED
    334					; OPERATION:
    335					;	HANDLES THE SPECIAL CASE OF EXPLICIT FILE NAME AND TYPE AND
    336					; DEFAULT VERSION (0 OR -1) BY DOING A FIND AND THEN A REMOVE.  ALL
    337					; OTHER CASES JUST DO THE REMOVE.
    338					;	IF WILD CARD DIRECTORY WAS SPECIFIED, RMVNXT WILL
    339					; AUTOMATICALLY CROSS TO THE NEXT DIRECTORY.
    340					;-
    341	000726	010001 			RMVNXT::MOV	R0,R1
    342	000730	062701 	000000G			ADD	#F.FNB,R1
    343	000734					CALL	USEFID
    344	000740	103047 				BCC	70$
    345	000742	032761 	000000G	000000G	5$:	BIT	#NB.SFN,N.STAT(R1) ;IF WILD CARDS
    346	000750	001014 				BNE	30$		;JUST DO THE REMOVE
    347	000752	005761 	000000G			TST	N.FVER(R1)	;IF DEFAULT NEWEST VERSION
    348	000756	001404 				BEQ	10$		;MUST DO FIND FIRST
    349	000760	022761 	177777 	000000G		CMP	#-1,N.FVER(R1)	;IF DEFAULT OLDEST VERSION
    350	000766	001005 				BNE	30$
    351	000770				10$:	CALL	.FIND		;MUST DO THE FIND FIRST
    352	000774	103404 				BCS	50$
    353	000776	005061 	000000G			CLR	N.NEXT(R1)
    354	001002				30$:	CALL	.REMOV
    355	001006	103024 			50$:	BCC	70$
    356	001010	032761 	000000G	000000G		BIT	#NB.SDI,N.STAT(R1) ;ANY WILD UIC'S
    357	001016	001420 				BEQ	70$		;BRANCH IF NO
    358	001020	122760 	000000G	000000G		CMPB	#IE.NSF,F.ERR(R0) ;"NO SUCH FILE" ERROR
    359	001026	001013 				BNE	60$
    360	001030	010246 				MOV	R2,-(SP)
    361	001032	010346 				MOV	R3,-(SP)
    362	001034	010446 				MOV	R4,-(SP)
    363	001036					CALL	PRSREG
    364	001042					CALL	.NXDIR		;GET NEXT WILD DIRECTORY IF ANY
    365	001046	012604 				MOV	(SP)+,R4
    366	001050	012603 				MOV	(SP)+,R3
    367	001052	012602 				MOV	(SP)+,R2
    368	001054	103332 				BCC	5$
    369	001056	000261 			60$:	SEC
    370	001060				70$:	RETURN
PIPSBR M0211, COMMAND SUBROUTIN	MACRO M1113  27-FEB-85 12:28  PAGE 12
USEFID, PRSREG

    372						.SBTTL	USEFID, PRSREG
    373					;
    374					; CHECK IF FILE ID WAS MANUALLY SPECIFIED
    375					; IF IT WAS, MOVE IT TO THE FILE ID OF F.FNB, RETURN C=0
    376					; IF NOT, RETURN C=1
    377					; ALL REGISTER PRESERVED
    378	001062	010246 			USEFID::MOV	R2,-(SP)
    379	001064	016002 	000000G			MOV	F.DSPT(R0),R2
    380	001070	001414 				BEQ	10$
    381	001072	016261 	000016 	000000G		MOV	N.FLID(R2),N.FID(R1) ;WAS FILE ID MANUALLY SPECIFIED
    382	001100	001410 				BEQ	10$		;BRANCH IF NO
    383	001102	016261 	000020 	000002G		MOV	N.FLID+2(R2),N.FID+2(R1)
    384	001110	016261 	000022 	000004G		MOV	N.FLID+4(R2),N.FID+4(R1)
    385	001116	000241 				CLC
    386	001120	000401 				BR	20$		;NOTE CARRY BIT MUST BE CLEAR
    387	001122	000261 			10$:	SEC
    388	001124	012602 			20$:	MOV	(SP)+,R2
    389	001126					RETURN
    390					;
    391					;+
    392					; SET UP REGISTERS FOR CALL TO .WPARS, .NXDIR
    393					; CALLING SEQUENCE:
    394					;	CALL	PRSREG
    395					; INPUTS:
    396					;	R0=FDB ADDRESS
    397					; OUTPUTS:
    398					;	R0=FDB ADDRESS
    399					;	R1=FILE NAME BLOCK
    400					;	R2=FILE DESCRIPTOR POINTER
    401					;	R3=DEFAULT FILE NAME BLOCK
    402					;	R4=S.FIDS+S.APPD;(F.DSPT(R0))
    403					;-
    404	001130	010001 			PRSREG::MOV	R0,R1
    405	001132	062701 	000000G			ADD	#F.FNB,R1
    406	001136	016002 	000000G			MOV	F.DSPT(R0),R2
    407	001142	016003 	000000G			MOV	F.DFNB(R0),R3
    408	001146	010204 				MOV	R2,R4
    409	001150	001402 				BEQ	10$
    410	001152	062704 	000024 			ADD	#S.FIDS+S.APPD,R4
    411	001156				10$:	RETURN
PIPSBR M0211, COMMAND SUBROUTIN	MACRO M1113  27-FEB-85 12:28  PAGE 13
COMMON ERROR ROUTINES

    413						.SBTTL	COMMON ERROR ROUTINES
    414					;
    415					; ERROR FROM PARSE
    416	001160	122760 	000000G	000000G	PRSERR::CMPB	#IE.NSF,F.ERR(R0) ;NO SUCH FILE?
    417	001166	001004 				BNE	20$
    418	001170					ERROUT	DI05,1		;CAN'T FIND DIRECTORY FILE
	001170	104412 				TRAP	X
	001172	000000G				.WORD	DI05SZ
	001174	000000G				.WORD	DI05MG
    419	001176					RETURN
    420	001200	122760 	000000G	000000G	20$:	CMPB	#IE.PRI,F.ERR(R0) ;PROTECTION VIOLATION
    421	001206	001404 				BEQ	30$
    422	001210					ERROUT	DE08,1,0
	001210	104432 				TRAP	X
	001212	000000G				.WORD	DE08SZ
	001214	000000G				.WORD	DE08MG
    423	001216					RETURN
    424					; PROTECTION VIOLATION  PROBABLY INDICATES
    425					; THAT THE DEVICE WAS NEVER MOUNTED
    426	001220				30$:	ERROUT	OP07,1
	001220	104412 				TRAP	X
	001222	000000G				.WORD	OP07SZ
	001224	000000G				.WORD	OP07MG
    427	001226					RETURN
    428					;
    429					; FIND ERROR - IF NO SUCH FILE, NO ERROR MESSAGE
    430					; R0=FDB, R1=FNB, ALL REGISTERS ALTERED
    431	001230	032767 	000000G	000000G	FNDERR::BIT	#FRSTIM,CPYCTL	;IF NOT THE FIRST TIM
    432	001236	001010 				BNE	20$
    433	001240	122760 	000000G	000000G		CMPB	#IE.NSF,F.ERR(R0) ;AND IF "NO SUCH FILE"
    434	001246	001403 				BEQ	10$		;NO ERROR MESSAGE
    435					;
    436					; OTHER ERROR THAN "NO SUCH FILE" - NOT THE FIRST FIND
    437	001250					ERROUT	FI01,1,0
	001250	104432 				TRAP	X
	001252	000000G				.WORD	FI01SZ
	001254	000000G				.WORD	FI01MG
    438	001256				10$:	RETURN
    439					;
    440					; ERROR ON FIRST FIND
    441	001260	122760 	000000G	000000G	20$:	CMPB	#IE.NSF,F.ERR(R0)
    442	001266	001004 				BNE	30$
    443	001270					ERROUT	FI03,1		;NO SUCH FILE
	001270	104412 				TRAP	X
	001272	000000G				.WORD	FI03SZ
	001274	000000G				.WORD	FI03MG
    444	001276					RETURN
    445	001300				30$:	ERROUT	FI02,1,0	;CANNOT FIND FILE
	001300	104432 				TRAP	X
	001302	000000G				.WORD	FI02SZ
	001304	000000G				.WORD	FI02MG
    446	001306					RETURN
    447					;
    448					; REMOVE ERROR - LIKE FNDERR ABOVE
    449	001310	122760 	000000G	000000G	RMVERR::CMPB	#IE.NSF,F.ERR(R0)
    450	001316	001744 				BEQ	FNDERR		;IF NO SUCH FILE, THEN USE FNDERR
    451	001320	122760 	000000G	000000G		CMPB	#IE.PRI,F.ERR(R0) ;IF PROTECTION VIOLATION
PIPSBR M0211, COMMAND SUBROUTIN	MACRO M1113  27-FEB-85 12:28  PAGE 13-1
COMMON ERROR ROUTINES

    452	001326	001004 				BNE	10$
    453	001330					ERROUT	RM02,1,0	;PROBABLY INDICATES DISK WRITE PROTECTED
	001330	104432 				TRAP	X
	001332	000000G				.WORD	RM02SZ
	001334	000000G				.WORD	RM02MG
    454	001336					RETURN
    455	001340				10$:	ERROUT	RM01,1,0
	001340	104432 				TRAP	X
	001342	000000G				.WORD	RM01SZ
	001344	000000G				.WORD	RM01MG
    456	001346					RETURN
PIPSBR M0211, COMMAND SUBROUTIN	MACRO M1113  27-FEB-85 12:28  PAGE 14
DYNAMIC MEMORY ALLOCATION AND RELEASE ROUTINES

    458						.SBTTL	DYNAMIC MEMORY ALLOCATION AND RELEASE ROUTINES
    459					;+
    460					; ALLOCATE BUFFER OF THE SPECIFIED SIZE (R1 BYTES) FROM THE FILE STORAGE REGION
    461					; CALLING SEQUENCE
    462					;	CALL	.DYALC
    463					; INPUTS:
    464					;	R1=BYTE COUNT TO ALLOCATE
    465					; OUTPUTS:
    466					;	R0=ADDRESS ALLOCATED
    467					;	R1-R5 PRESERVED
    468					;	.DYBUF AND .DYBYT ALSO SET TO ADDRESS AND SIZE OF BUFFER
    469					;	IF FAIL TO ALLOCATE, THEN FATAL DYNAMIC MEMORY ERROR
    470					;-
    471	001350	016700 	000000G		.DYALC::MOV	.DYBUF,R0
    472	001354	020167 	000000G			CMP	R1,.DYBYT	;DESIRED SIZE BUFFER ALREADY ALLOCATED?
    473	001360	001417 				BEQ	40$		;BRANCH IF  YES
    474	001362					CALL	.DYREL		;NO, RELEASE ANYTHING CURRENTLY ALLOCATED
    475	001366	010246 				MOV	R2,-(SP)
    476	001370	010146 				MOV	R1,-(SP)
    477	001372	013700 	000000G			MOV	@#.FSRPT,R0
    478	001376					CALL	$RQCB		;ALLOCATE FOR FILE STORAGE REGION
    479	001402	012601 				MOV	(SP)+,R1
    480	001404	012602 				MOV	(SP)+,R2
    481	001406	103405 				BCS	60$		;BRANCH IF FAILED TO ALLOCATE
    482	001410	010067 	000000G			MOV	R0,.DYBUF	;SET UP ADDRESS
    483	001414	010167 	000000G			MOV	R1,.DYBYT	;AND SIZE OF THE BUFFER ALLOCATED
    484	001420				40$:	RETURN
    485	001422				60$:	ERROUX	DY01		;NOT ENOUGH DYNAMIC MEMORY
	001422	104403 				TRAP	X
	001424	000000G				.WORD	DY01SZ
	001426	000000G				.WORD	DY01MG
    486
    487					;+
    488					; RELEASE THE CURRENTLY ALLOCATED DYNAMIC MEMORY BUFFER TO THE FILE
    489					; STORAGE REGION
    490					; CALLING SEQUENCE:
    491					;	CALL	.DYREL
    492					; INPUTS:
    493					;	NONE
    494					; OUTPUTS:
    495					;	ALL REGISTER PRESERVED
    496					;	.DYBYT ZEROED TO REFLECT BUFFER RELEASED
    497					;-
    498	001430	005767 	000000G		.DYREL::TST	.DYBYT		;IF NOTHING TO RELEASE, QUICK NOP
    499	001434	001414 				BEQ	40$
    500	001436	004567 	000000G			JSR	R5,.SAVR1
    501	001442	013700 	000000G			MOV	@#.FSRPT,R0
    502	001446	016701 	000000G			MOV	.DYBYT,R1
    503	001452	016702 	000000G			MOV	.DYBUF,R2
    504	001456					CALL	$RLCB		;RELEASE THE BUFFER (ADR IN R2, SIZE IN R1)
    505	001462	005067 	000000G			CLR	.DYBYT		;RECORD THE FACT THAT IT'S RELEASED
    506	001466				40$:	RETURN
    507					;
    508					;
    509		000001 				.END
PIPSBR M0211, COMMAND SUBROUTIN	MACRO M1113  27-FEB-85 12:28  PAGE 14-1
SYMBOL TABLE

AGAIN = ****** GX	DE04SZ= ****** GX	IFNPT = ****** GX	OP04MG= ****** GX	S.FNBW= ****** GX
CLOSE   000000RG    002	DE08MG= ****** GX	INCSI = ****** GX	OP04SZ= ****** GX	S.FNTY= ****** GX
CLSIN   000076RG    002	DE08SZ= ****** GX	INIPRO  000150RG    002	OP05MG= ****** GX	USEFID  001062RG    002
CLSOUT  000004RG    002	DI05MG= ****** GX	INSPEC= ****** GX	OP05SZ= ****** GX	WLDVER  000360RG    002
CPYCTL= ****** GX	DI05SZ= ****** GX	IO.ATT= ****** GX	OP06MG= ****** GX	WORPRO= ****** GX
CR01MG= ****** GX	DY01MG= ****** GX	IO.DET= ****** GX	OP06SZ= ****** GX	X     = 000003
CR01SZ= ****** GX	DY01SZ= ****** GX	NAMBLK= ****** GX	OP07MG= ****** GX	$RLCB = ****** GX
CR02MG= ****** GX	FDBIN = ****** GX	NB.SDI= ****** GX	OP07SZ= ****** GX	$RQCB = ****** GX
CR02SZ= ****** GX	FDBOUT= ****** GX	NB.SFL= ****** GX	OUTCSI= ****** GX	$$    = 000067
CS.DIF= 000002   	FD.REC= ****** GX	NB.SFN= ****** GX	PARSE   000542RG    002	.CLOSE= ****** G
CS.DVF= 000004   	FINDFL  000646RG    002	NXINOU  000276RG    002	PAR$$$= 000000   	.DEFDV= ****** GX
CS.EQU= 000040   	FI01MG= ****** GX	NXTFIL  000670RG    002	PROWRD= ****** GX	.DEFUN= ****** GX
CS.INP= 000001   	FI01SZ= ****** GX	NXTIN   000254RG    002	PRSERR  001160RG    002	.DFLTN= ****** GX
CS.MOR= 000020   	FI02MG= ****** GX	NXTIN1  000270RG    002	PRSREG  001130RG    002	.DYALC  001350RG    002
CS.NMF= 000001   	FI02SZ= ****** GX	NXTOUT  000236RG    002	RECATT  000120RG    002	.DYBUF= ****** GX
CS.OUT= 000002   	FI03MG= ****** GX	N.DEVD= 000000   	RMVERR  001310RG    002	.DYBYT= ****** GX
CS.WLD= 000010   	FI03SZ= ****** GX	N.DID = ****** GX	RMVNXT  000726RG    002	.DYREL  001430RG    002
CWLDUI  000400RG    002	FNDERR  001230RG    002	N.DIRD= 000004   	RM01MG= ****** GX	.FIND = ****** GX
C.CMLD= 000002   	FNDNXT  000606RG    002	N.DVNM= ****** GX	RM01SZ= ****** GX	.FNDNX= ****** GX
C.DEVD= 000006   	FRSTIM= ****** GX	N.FID = ****** GX	RM02MG= ****** GX	.FSRPT= ****** GX
C.DIRD= 000012   	FSTOUT  000170RG    002	N.FLID= 000016   	RM02SZ= ****** GX	.LCLSW= ****** GX
C.DSDS= 000006   	F.BDB = ****** GX	N.FNAM= ****** GX	R$$DPB= 000001   	.NXDIR= ****** GX
C.FILD= 000016   	F.DFNB= ****** GX	N.FNMD= 000010   	R$$DYM= 000001   	.PARSE= ****** GX
C.MKW1= 000024   	F.DSPT= ****** GX	N.FVER= ****** GX	R$$EIS= 000000   	.PRSDV= ****** GX
C.MKW2= 000026   	F.ERR = ****** GX	N.NEXT= ****** GX	R$$11M= 000001   	.REMOV= ****** GX
C.SIZE= 000054   	F.FNB = ****** GX	N.SPEC= 000014   	STNBK1  000454RG    002	.SAVR1= ****** GX
C.STAT= 000001   	F.MBCT= ****** GX	N.STAT= ****** GX	STNMBK  000436RG    002	.WLDVC= ****** GX
C.SWAD= 000022   	F.RCTL= ****** GX	N.UNIT= ****** GX	S.APPD= 000010   	.WPARS= ****** GX
C.TYPR= 000000   	IE.NSF= ****** GX	OFNPT = ****** GX	S.FIDS= 000014   	.XQIO = ****** GX
DE04MG= ****** GX	IE.PRI= ****** GX

. ABS.	000000	   000
      	000000	   001
PURE$I	001470	   002
ERRORS DETECTED:  0

VIRTUAL MEMORY USED:  3839 WORDS  ( 15 PAGES)
DYNAMIC MEMORY:  4622 WORDS  ( 17 PAGES)
ELAPSED TIME:  00:00:24
[43,10]PIPSBR,[43,20]PIPSBR/-SP/CR=[43,30]PIPMAC,PIPSBR
PIPSBR     CREATED BY  MACRO  ON 27-FEB-85 AT 12:28	PAGE 1

SYMBOL CROSS REFERENCE                                  CREF

SYMBOL	VALUE		REFERENCES

AGAIN 	= ******  GX	 8-88
CLOSE 	  000000 RG	#7-32
CLSIN 	  000076 RG	 7-32       7-32      #7-51
CLSOUT	  000004 RG	#7-33
CPYCTL	= ******  GX	*8-117      13-431
CR01MG	= ******  GX	 8-87
CR01SZ	= ******  GX	 8-87
CR02MG	= ******  GX	 8-132
CR02SZ	= ******  GX	 8-132
CS.MOR	= 000020	 8-115
CWLDUI	  000400 RG	#8-161
DE04MG	= ******  GX	 8-146
DE04SZ	= ******  GX	 8-146
DE08MG	= ******  GX	 13-422
DE08SZ	= ******  GX	 13-422
DI05MG	= ******  GX	 13-418
DI05SZ	= ******  GX	 13-418
DY01MG	= ******  GX	 14-485
DY01SZ	= ******  GX	 14-485
FDBIN 	= ******  GX	 7-51       7-51       8-102
FDBOUT	= ******  GX	 7-33       7-44      *8-89      *8-90       8-98
FD.REC	= ******  GX	 7-37       7-65
FINDFL	  000646 RG	#10-288
FI01MG	= ******  GX	 13-437
FI01SZ	= ******  GX	 13-437
FI02MG	= ******  GX	 13-445
FI02SZ	= ******  GX	 13-445
FI03MG	= ******  GX	 13-443
FI03SZ	= ******  GX	 13-443
FNDERR	  001230 RG	#13-431     13-450
FNDNXT	  000606 RG	#10-265
FRSTIM	= ******  GX	 13-431
FSTOUT	  000170 RG	#8-85
F.BDB 	= ******  GX	 7-35
F.DFNB	= ******  GX	*8-89       12-407
F.DSPT	= ******  GX	*8-90       10-270     12-379     12-406
F.ERR 	= ******  GX	 11-358     13-416     13-420     13-433     13-441     13-449     13-451
F.FNB 	= ******  GX	 8-161      8-163      10-266     10-289     10-314     10-317     11-342     12-405
F.MBCT	= ******  GX	*7-34
F.RCTL	= ******  GX	 7-37       7-65
IE.NSF	= ******  GX	 11-358     13-416     13-433     13-441     13-449
IE.PRI	= ******  GX	 13-420     13-451
IFNPT 	= ******  GX	 8-103
INCSI 	= ******  GX	 8-104
INIPRO	  000150 RG	#7-75
INSPEC	= ******  GX	 8-85
IO.ATT	= ******  GX	 7-67
IO.DET	= ******  GX	 7-39
NAMBLK	= ******  GX	 8-89       9-199
NB.SDI	= ******  GX	 8-161      8-164      8-165      11-356
NB.SFL	= ******  GX	 10-314
NB.SFN	= ******  GX	 10-317     11-345
PIPSBR     CREATED BY  MACRO  ON 27-FEB-85 AT 12:28	PAGE 2

SYMBOL CROSS REFERENCE                                  CREF

SYMBOL	VALUE		REFERENCES

NXINOU	  000276 RG	 8-105      8-105     #8-113
NXTFIL	  000670 RG	#10-313
NXTIN 	  000254 RG	#8-102
NXTIN1	  000270 RG	 8-101     #8-105
NXTOUT	  000236 RG	#8-98
N.DEVD	= 000000	#7-23
N.DID 	= ******  GX	*9-208     *9-209
N.DIRD	= 000004	#7-23
N.DVNM	= ******  GX	*9-210
N.FID 	= ******  GX	*12-381    *12-383    *12-384
N.FLID	= 000016	#7-23       10-239     12-381     12-383     12-384
N.FNAM	= ******  GX	 9-215
N.FNMD	= 000010	#7-23
N.FVER	= ******  GX	 11-347     11-349
N.NEXT	= ******  GX	*11-353
N.SPEC	= 000014	#7-23       8-115
N.STAT	= ******  GX	 8-161      8-163      10-314     10-317     11-345     11-356
N.UNIT	= ******  GX	*9-211
OFNPT 	= ******  GX	 8-90       8-99
OP04MG	= ******  GX	 7-53
OP04SZ	= ******  GX	 7-53
OP05MG	= ******  GX	 7-47       8-128
OP05SZ	= ******  GX	 7-47       8-128
OP06MG	= ******  GX	 7-43
OP06SZ	= ******  GX	 7-43
OP07MG	= ******  GX	 13-426
OP07SZ	= ******  GX	 13-426
OUTCSI	= ******  GX	 8-100
PARSE 	  000542 RG	#10-237
PAR$$$	= 000000	#7-34       7-34      #7-45       7-45      #7-51       7-51      #8-113      8-113
PROWRD	= ******  GX	 7-76
PRSERR	  001160 RG	#13-416
PRSREG	  001130 RG	 10-238     10-238     10-322     10-322     11-363     11-363    #12-404
RECATT	  000120 RG	#7-65
RMVERR	  001310 RG	#13-449
RMVNXT	  000726 RG	#11-341
RM01MG	= ******  GX	 13-455
RM01SZ	= ******  GX	 13-455
RM02MG	= ******  GX	 13-453
RM02SZ	= ******  GX	 13-453
RONLY$	= ******	 7-29       7-29
R$$DPB	= 000001	#1-27
R$$DYM	= 000001	#1-29
R$$EIS	= 000000	#1-28       1-38
R$$11M	= 000001	#1-25       1-26       7-1
STNBK1	  000454 RG	 9-200      9-200     #9-204
STNMBK	  000436 RG	 8-94       8-94      #9-198
SYS40$	= ******	 1-67       7-29       7-29
S.APPD	= 000010	#7-23       10-272     12-410
S.FIDS	= 000014	#7-23       10-272     12-410
S.FNBW	= ******  GX	 9-205
S.FNTY	= ******  GX	 9-216
PIPSBR     CREATED BY  MACRO  ON 27-FEB-85 AT 12:28	PAGE 3

SYMBOL CROSS REFERENCE                                  CREF

SYMBOL	VALUE		REFERENCES

USEFID	  001062 RG	 10-267     10-267     11-343     11-343    #12-378
WLDVER	  000360 RG	#8-144
WORPRO	= ******  GX	 7-75       7-76
X     	= 000003	#7-43       7-43      #7-43       7-43      #7-43       7-43      #7-47       7-47      #7-47
                         7-47      #7-47       7-47      #7-53       7-53      #7-53       7-53      #7-53       7-53
                        #8-87       8-87      #8-128      8-128     #8-128      8-128     #8-128      8-128     #8-132
                         8-132     #8-132      8-132     #8-146      8-146     #8-146      8-146     #13-418     13-418
                        #13-418     13-418    #13-422     13-422    #13-422     13-422    #13-422     13-422    #13-426
                         13-426    #13-426     13-426    #13-437     13-437    #13-437     13-437    #13-437     13-437
                        #13-443     13-443    #13-443     13-443    #13-445     13-445    #13-445     13-445    #13-445
                         13-445    #13-453     13-453    #13-453     13-453    #13-453     13-453    #13-455     13-455
                        #13-455     13-455    #13-455     13-455    #14-485     14-485
$RLCB 	= ******  GX	 14-504     14-504
$RQCB 	= ******  GX	 14-478     14-478
$$    	= 000067	#7-32       7-32      #7-41       7-41      #7-69       7-69      #8-94       8-94      #8-105
                         8-105     #8-118      8-118     #8-123      8-123     #8-144      8-144     #9-200      9-200
                        #10-238     10-238    #10-241     10-241    #10-245     10-245    #10-247     10-247    #10-267
                         10-267    #10-273     10-273    #10-292     10-292    #10-322     10-322    #10-323     10-323
                        #11-343     11-343    #11-351     11-351    #11-354     11-354    #11-363     11-363    #11-364
                         11-364    #14-474     14-474    #14-478     14-478    #14-504     14-504
.CLOSE	= ******  G	 7-45       7-45       7-51       7-51       8-113      8-113
.DEFDV	= ******  GX	 9-210
.DEFUN	= ******  GX	 9-211
.DFLTN	= ******  GX	 8-123      8-123
.DYALC	  001350 RG	#14-471
.DYBUF	= ******  GX	 14-471    *14-482     14-503
.DYBYT	= ******  GX	 14-472    *14-483     14-498     14-502    *14-505
.DYREL	  001430 RG	 14-474     14-474    #14-498
.FIND 	= ******  GX	 11-351     11-351
.FNDNX	= ******  GX	 10-273     10-273     10-292     10-292
.FSRPT	= ******  GX	 14-477     14-501
.LCLSW	= ******  GX	 8-117
.NXDIR	= ******  GX	 10-323     10-323     11-364     11-364
.PARSE	= ******  GX	 10-247     10-247
.PRSDV	= ******  GX	 10-241     10-241
.REMOV	= ******  GX	 11-354     11-354
.SAVR1	= ******  GX	 14-500
.WLDVC	= ******  GX	 8-144      8-144
.WPARS	= ******  GX	 10-245     10-245
.XQIO 	= ******  GX	 7-41       7-41       7-69       7-69
PIPSBR     CREATED BY  MACRO  ON 27-FEB-85 AT 12:28	PAGE 4

MACRO CROSS REFERENCE                                   CREF

MACRO NAME	REFERENCES

ASH   		#1-64
ASHC  		#1-64
CALL  		#7-27       7-32       7-41      #7-45      #7-51       7-69       8-94       8-105     #8-113      8-118
                 8-123      8-144      9-200      10-238     10-241     10-245     10-247     10-267     10-273     10-292
                 10-322     10-323     11-343     11-351     11-354     11-363     11-364     14-474     14-478     14-504
CLOSE$		#7-27       7-45       7-51       8-113
CMOV$B		#7-34       7-34       7-34       7-34
CMOV$W		#7-34       7-34
CSI$  		#7-24      #7-25
DIV   		#1-64
ERRINI		#4-307
ERROUT		#3-215      7-43       7-47       7-53       8-87       8-128      8-132      8-146      13-418     13-422
                 13-426     13-437     13-443     13-445     13-453     13-455
ERROUX		#3-222      14-485
ERROU1		#3-225     #7-43      #7-47      #7-53      #8-87      #8-128     #8-132     #8-146     #13-418    #13-422
                #13-426    #13-437    #13-443    #13-445    #13-453    #13-455    #14-485
ERRP  		#3-247
ERRPX 		#3-253
ERRP1 		#3-256
ERR$  		#7-45       7-45      #7-51       7-51      #8-113      8-113
ERR1  		#3-273     #7-43      #7-47      #7-53      #8-87      #8-128     #8-132     #8-146     #13-418    #13-422
                #13-426    #13-437    #13-443    #13-445    #13-453    #13-455    #14-485
FDBF$R		#7-27       7-34
FLDSOF		#5-382     #7-23      #7-23
IDENT 		#5-339     #7-1
IDENT1		#5-347      7-1
IDTITL		#5-356
ILLOP 		#1-52      #1-64       1-64
IMPURE		#1-75
LDFDB$		#7-34       7-34      #7-45       7-45      #7-51       7-51      #8-113      8-113
MARK  		#1-64
MSG   		#2-124
MSGZ  		#2-129
MSG1  		#2-133
MUL   		#1-64
NOEIS$		#1-39       1-64
PURE. 		#1-84       7-29
PURE.D		#1-102
PURE.I		#1-98       7-29
RETURN		#7-27      #7-48      #7-54      #7-70      #7-72      #7-79      #8-95      #8-106     #8-125     #8-134
                #8-148     #8-168     #8-170     #9-202     #9-219     #10-249    #10-275    #10-294    #10-324    #11-370
                #12-389    #12-411    #13-419    #13-423    #13-427    #13-438    #13-444    #13-446    #13-454    #13-456
                #14-484    #14-506
RTT   		#1-64
SOB   		#1-64      #7-78      #9-207     #9-218
SXT   		#1-64
XOR   		#1-64
PIPSB1 M0210, COMMAND SUBROUTIN	MACRO M1113  27-FEB-85 12:29
TABLE OF CONTENTS

     7-    1	**** PIPSB1 VERSION M0210 ****
PIPMAC - MACROS FOR PIP, ETC.	MACRO M1113  27-FEB-85 12:29  PAGE 6


    397
PIPSB1 M0210, COMMAND SUBROUTIN	MACRO M1113  27-FEB-85 12:29  PAGE 7


      1						.TITLE	PIPSB1 M0210, COMMAND SUBROUTINES-PIP
						.SBTTL	**** PIPSB1 VERSION M0210 ****
						.IDENT	/M0210/
      2					; ALTERED THURSDAY 9-JAN-75 9:25
      3					;
      4					; COPYRIGHT 1974, 1985, DIGITAL EQUIPMENT CORP., MAYNARD MASS.
      5
      6					;			ALL RIGHTS RESERVED
      7					;
      8					; THIS SOFTWARE IS FURNISHED TO PURCHASER UNDER A LICENSE FOR USE
      9					; ON A SINGLE COMPUTER SYSTEM AND CAN BE COPIED (WITH INCLUSION
     10					; OF DEC'S COPYRIGHT NOTICE) ONLY FOR USE IN SUCH SYSTEM, EXCEPT
     11					; AS MAY OTHERWISE BE PROVIDED IN WRITING BY DEC.
     12
     13					; THE INFORMATION IN THIS DOCUMENT IS SUBJECT TO CHANGE WITHOUT
     14					; NOTICE AND SHOULD NOT BE CONSTRUED AS A COMMITMENT BY DIGITAL
     15					; EQUIPMENT CORPORATION.
     16
     17					; DEC ASSUMES NO RESPONSIBILITY FOR THE USE OR RELIABILITY
     18					; OF ITS SOFTWARE ON EQUIPMENT WHICH IS NOT SUPPLIED BY DEC.
     19					;
     20					; PETER H. LIPMAN	9-JAN-75
     21
     22	000000					FLDSOF
     23						.MCALL	CALL,RETURN
     24
     25	000000					PURE.I
     26
     27					;
     28					; WRITE ATTRIBUTES
     29					; INPUTS:
     30					;	R0=FDB ADDRESS
     31					;	R1=ADDRESS OF ATTRIBUTE BLOCK
     32					; OUTPUTS:
     33					;	C=0 IF OK, C=1 IF ERROR
     34	000000	010146 			WRTATT::MOV	R1,-(SP)	;ADDRESS OF ATTRIBUTE BLOCK
     35	000002	010046 				MOV	R0,-(SP)
     36	000004	062716 	000000G			ADD	#F.FNB,@SP
     37					;
     38					; NOW CALL XQIO
     39	000010	010603 				MOV	SP,R3		;ADDRESS OF ADDITIONAL PARAMETERS
     40	000012	012702 	000002 			MOV	#2,R2		;SIZE OF EXTRA PARAM BLOCK
     41	000016	012701 	000000G			MOV	#IO.WAT,R1	;I/O FUNCTION CODE  - WRT ATTRIBUTES
     42	000022					CALL	.XQIO
     43	000026	012603 				MOV	(SP)+,R3	;CLEAN UP THE STACK
     44	000030	012603 				MOV	(SP)+,R3
     45	000032	103004 				BCC	10$		;BRANCH IF ERROR, MUST POP 5 WORDS
     46	000034					ERROUT	UN01,0,0
	000034	104426 				TRAP	X
	000036	000000G				.WORD	UN01SZ
	000040	000000G				.WORD	UN01MG
     47	000042	000261 				SEC
     48	000044				10$:	RETURN
     49					;
     50					; READ ATTRIBUTES - JUST THE FILE HEADER
     51					; INPUTS:
     52					;	R0=FDB
PIPSB1 M0210, COMMAND SUBROUTIN	MACRO M1113  27-FEB-85 12:29  PAGE 7-1
**** PIPSB1 VERSION M0210 ****

     53					;	R1=FNB ADDRESS
     54					; OUTPUTS:
     55					;	C=0 IF SUCCESSFUL, C=1 IF ERROR
     56					;	R0,R1,R4,R5 PRESERVED, R2,R3 ALTERED
     57					;
     58	000046				RDATT::
     59						.IF	EQ,R$$DPB	;IF OLD DPB FORMAT
     60						MOV	#HDBLK,-(SP)	;FILE HEADER ADDRESS
     61						.IFF			;IF NEW DPB FORMAT
     62	000046	012746 	000004G			MOV	#RATCTL+4,-(SP) ;ADDRESS OF ATTRIBUTE CONTROL BLOCK
     63						.ENDC
     64
     65	000052	010146 				MOV	R1,-(SP)	;ADDRESS OF FILE NAME BLOCK
     66	000054	010603 				MOV	SP,R3		;R3=ADDRESS OF EXTRA PARAMETERS
     67	000056	012702 	000002 			MOV	#2,R2		;R2=NO. OF EXTRA PARAMETERS
     68	000062	012701 	000000G			MOV	#IO.RAT,R1	;READ ATTRIBUTES I/O FUCNTION CODE
     69	000066					CALL	.XQIO		;ISSUE THE QI/O AND WAIT
     70	000072	012601 				MOV	(SP)+,R1	;CLEAN UP STACK, PRESERVIN C BIT
     71	000074	012602 				MOV	(SP)+,R2
     72	000076					RETURN
     73					;
     74					;+
     75					;
     76					; ** .GFOWN - SET UP FILE OWNER WORD IF /FO WAS SPECIFIED
     77					;
     78					; INPUTS:
     79					;
     80					;	R0=FDB
     81					;
     82					; OUTPUTS:
     83					;
     84					;	R0,R5 PRESERVED, OTHERS ALTERED
     85					;	.FOWNR=UIC OF DIRECTORY FOR THIS FDB IF /FO SWITCH WAS SPECIFIED
     86					;	.FOWNR=0 IF /FO NOT SPECIFIED OR IF FDB IS NOT FOR A DIRECTORY DEVICE
     87					;
     88					;-
     89	000100				.GFOWN::
     90	000100	012703 	000000G			MOV	#.FOWNR,R3
     91	000104	032767 	000000G	000000G		BIT	#FOWNBT,CPYCTL	;WAS /FO SPECIFIED?
     92	000112	001425 				BEQ	20$		;BRANCH IF NO, JUST RETURN 0
     93	000114	132760 	000000G	000000G		BITB	#FD.DIR,F.RCTL(R0) ;IS THIS A DIRECTORY DEVICE?
     94	000122	001421 				BEQ	20$		;BRANCH IF NO
     95	000124	016002 	000000G			MOV	F.DSPT(R0),R2	;R2=DESCRIPTOR POINTER
     96	000130	062702 	000004 			ADD	#N.DIRD,R2	;FORM ADDRESS OF DIRECTORY STRING DESCRIPTOR
     97	000134	011246 				MOV	(R2),-(SP)	;SAVE SIZE OF STRING
     98	000136	001007 				BNE	10$		;BRANCH IF NOT NULL
     99	000140	010204 				MOV	R2,R4		;SAVE ADDRESS
    100	000142					CALL	.RDFDR		;READ THE DEFAULT DIRECTORY STRING
    101	000146	010114 				MOV	R1,(R4)		;STORE IT'S SIZE
    102	000150	010264 	000002 			MOV	R2,2(R4)	;AND ADDRESS
    103	000154	010402 				MOV	R4,R2		;R2 = DIRECTORY STRING DESCRIPTOR
    104	000156				10$:	CALL	.ASCPP		;CONVERT TO PPN - STORE (R3)
    105	000162	012612 				MOV	(SP)+,(R2)	;RESTORE ORIGINAL SIZE OF STRING OR 0
    106	000164	103001 				BCC	30$		;BRANCH IF CONVERSION OK
    107	000166	005013 			20$:	CLR	(R3)		;SAY NO FILE OWNER SPECIFIED
    108	000170				30$:	RETURN
    109					;
PIPSB1 M0210, COMMAND SUBROUTIN	MACRO M1113  27-FEB-85 12:29  PAGE 7-2
**** PIPSB1 VERSION M0210 ****

    110					;
    111		000001 				.END
PIPSB1 M0210, COMMAND SUBROUTIN	MACRO M1113  27-FEB-85 12:29  PAGE 7-3
SYMBOL TABLE

CPYCTL= ****** GX	IO.WAT= ****** GX	RATCTL= ****** GX	S.APPD= 000010   	$$    = 000067
FD.DIR= ****** GX	N.DEVD= 000000   	RDATT   000046RG    002	S.FIDS= 000014   	.ASCPP= ****** GX
FOWNBT= ****** GX	N.DIRD= 000004   	R$$DPB= 000001   	UN01MG= ****** GX	.FOWNR= ****** GX
F.DSPT= ****** GX	N.FLID= 000016   	R$$DYM= 000001   	UN01SZ= ****** GX	.GFOWN  000100RG    002
F.FNB = ****** GX	N.FNMD= 000010   	R$$EIS= 000000   	WRTATT  000000RG    002	.RDFDR= ****** GX
F.RCTL= ****** GX	N.SPEC= 000014   	R$$11M= 000001   	X     = 000026   	.XQIO = ****** GX
IO.RAT= ****** GX

. ABS.	000000	   000
      	000000	   001
PURE$I	000172	   002
ERRORS DETECTED:  0

VIRTUAL MEMORY USED:  2576 WORDS  ( 11 PAGES)
DYNAMIC MEMORY:  3566 WORDS  ( 13 PAGES)
ELAPSED TIME:  00:00:11
[43,10]PIPSB1,[43,20]PIPSB1/-SP/CR=[43,30]PIPMAC,PIPSB1
PIPSB1     CREATED BY  MACRO  ON 27-FEB-85 AT 12:29	PAGE 1

SYMBOL CROSS REFERENCE                                  CREF

SYMBOL	VALUE		REFERENCES

CPYCTL	= ******  GX	 7-91
FD.DIR	= ******  GX	 7-93
FOWNBT	= ******  GX	 7-91
F.DSPT	= ******  GX	 7-95
F.FNB 	= ******  GX	 7-36
F.RCTL	= ******  GX	 7-93
IO.RAT	= ******  GX	 7-68
IO.WAT	= ******  GX	 7-41
N.DEVD	= 000000	#7-22
N.DIRD	= 000004	#7-22       7-96
N.FLID	= 000016	#7-22
N.FNMD	= 000010	#7-22
N.SPEC	= 000014	#7-22
RATCTL	= ******  GX	 7-62
RDATT 	  000046 RG	#7-58
RONLY$	= ******	 7-25       7-25
R$$DPB	= 000001	#1-27       7-59
R$$DYM	= 000001	#1-29
R$$EIS	= 000000	#1-28       1-38
R$$11M	= 000001	#1-25       1-26       7-1
SYS40$	= ******	 1-67       7-25       7-25
S.APPD	= 000010	#7-22
S.FIDS	= 000014	#7-22
UN01MG	= ******  GX	 7-46
UN01SZ	= ******  GX	 7-46
WRTATT	  000000 RG	#7-34
X     	= 000026	#7-46       7-46      #7-46       7-46      #7-46       7-46
$$    	= 000067	#7-42       7-42      #7-69       7-69      #7-100      7-100     #7-104      7-104
.ASCPP	= ******  GX	 7-104      7-104
.FOWNR	= ******  GX	 7-90
.GFOWN	  000100 RG	#7-89
.RDFDR	= ******  GX	 7-100      7-100
.XQIO 	= ******  GX	 7-42       7-42       7-69       7-69
PIPSB1     CREATED BY  MACRO  ON 27-FEB-85 AT 12:29	PAGE 2

MACRO CROSS REFERENCE                                   CREF

MACRO NAME	REFERENCES

ASH   		#1-64
ASHC  		#1-64
CALL  		#7-23      #7-42      #7-69      #7-100     #7-104
DIV   		#1-64
ERRINI		#4-307
ERROUT		#3-215      7-46
ERROUX		#3-222
ERROU1		#3-225     #7-46
ERRP  		#3-247
ERRPX 		#3-253
ERRP1 		#3-256
ERR1  		#3-273     #7-46
FLDSOF		#5-382     #7-22      #7-22
IDENT 		#5-339     #7-1
IDENT1		#5-347      7-1
IDTITL		#5-356
ILLOP 		#1-52      #1-64       1-64
IMPURE		#1-75
MARK  		#1-64
MSG   		#2-124
MSGZ  		#2-129
MSG1  		#2-133
MUL   		#1-64
NOEIS$		#1-39       1-64
PURE. 		#1-84       7-25
PURE.D		#1-102
PURE.I		#1-98       7-25
RETURN		#7-23       7-48       7-72       7-108
RTT   		#1-64
SOB   		#1-64
SXT   		#1-64
XOR   		#1-64
PIPMSG M0015, ERROR MESSAGES FO	MACRO M1113  27-FEB-85 12:29
TABLE OF CONTENTS

     7-    1	**** PIPMSG VERSION M0015 ****
PIPMAC - MACROS FOR PIP, ETC.	MACRO M1113  27-FEB-85 12:29  PAGE 6


    397
PIPMSG M0015, ERROR MESSAGES FO	MACRO M1113  27-FEB-85 12:29  PAGE 7


      1						.TITLE	PIPMSG M0015, ERROR MESSAGES FOR PIP
						.SBTTL	**** PIPMSG VERSION M0015 ****
						.IDENT	/M0015/
      2					; ALTERED:
      3					; ANDREW C. GOLDSTEIN  3 FEB 75  12:40
      4					;
      5					; COPYRIGHT 1975, 1985, DIGITAL EQUIPMENT CORP., MAYNARD MASS.
      6					; COPYRIGHT 1973, DIGITAL EQUIPMENT CORP., MAYNARD MASS.
      7
      8					;			ALL RIGHTS RESERVED
      9					;
     10					; THIS SOFTWARE IS FURNISHED TO PURCHASER UNDER A LICENSE FOR USE
     11					; ON A SINGLE COMPUTER SYSTEM AND CAN BE COPIED (WITH INCLUSION
     12					; OF DEC'S COPYRIGHT NOTICE) ONLY FOR USE IN SUCH SYSTEM, EXCEPT
     13					; AS MAY OTHERWISE BE PROVIDED IN WRITING BY DEC.
     14
     15					; THE INFORMATION IN THIS DOCUMENT IS SUBJECT TO CHANGE WITHOUT
     16					; NOTICE AND SHOULD NOT BE CONSTRUED AS A COMMITMENT BY DIGITAL
     17					; EQUIPMENT CORPORATION.
     18
     19					; DEC ASSUMES NO RESPONSIBILITY FOR THE USE OR RELIABILITY
     20					; OF ITS SOFTWARE ON EQUIPMENT WHICH IS NOT SUPPLIED BY DEC.
     21					;
     22					; PETER H. LIPMAN 18-SEP-73
     23					;
     24						.IF	NDF,R$$MSG
     25						.IF	EQ,R$$11M
     26						R$$MSG=1		;SEPARATE MESSAGE FILE FOR RSX11D
     27						.IFF
     28						R$$MSG=0		;MESSAGES IN CORE IMAGE FOR RSX11M
     29						.ENDC
     30						.ENDC
     31		000014 				FF=14
     32		000001 				MSGBL.=1		;FORCE GLOBAL DEFINITIONS
     33		000000 				MSGCT.=0		;INITIALIZE MESSAGE COUNTER
     34					;
     35					; NOTE: THE MESSAGE NAMES ARE 4 CHARACTERS. APPEND "MG"
     36					; TO THE NAME TO GET THE SYMBOLLIC ADDRESS OF THE MESSAGE.
     37					; APPEND "SZ" TO THE NAME TO GET THE SYMBOLLIC SIZE
     38
     39
     40					; COMMAND RECEIVER AND DISPATCHER ERRORS
     41	000000					MSG	CR01,<COMMAND SYNTAX ERROR>
     42	000000					MSG	CR02,<ILLEGAL SWITCH>
     43	000000					MSG	CR03,<TOO MANY COMMAND SWITCHES - AMBIGUOUS>
     44
     45					; COPY FILE ERRORS
     46	000000					MSG	CP01,<ONLY [*,*] IS LEGAL AS DESTINATION UIC>
     47	000000					MSG	CP02,<ILLEGAL COMMAND>
     48	000000					MSG	CP03,<ILLEGAL "*" COPY TO SAME DEVICE AND DIRECTORY>
     49	000000					MSG	CP04,<BAD USE OF WILD CARDS IN DESTINATION FILE NAME>
     50	000000					MSG	CP05,<EXPLICIT OUTPUT FILE NAME REQUIRED>
     51	000000					MSG	CP10,<ALLOCATION FAILURE - NO CONTIGUOUS SPACE>
     52	000000					MSG	CP11,<ALLOCATION FAILURE - NO SPACE AVAILABLE>
     53	000000					MSG	CP12,<ALLOCATION FAILURE ON OUTPUT FILE>
     54	000000					MSG	CP13,<I/O ERROR ON INPUT FILE>
     55	000000					MSG	CP14,<I/O ERROR ON OUTPUT FILE>
PIPMSG M0015, ERROR MESSAGES FO	MACRO M1113  27-FEB-85 12:29  PAGE 7-1
**** PIPMSG VERSION M0015 ****

     56	000000					MSG	CP15,<ILLEGAL USE OF WILD CARD VERSION>
     57					;
     58					; OPEN OR CLOSE FILE ERROR MESSAGES
     59	000000					MSG	OP01,<OPEN FAILURE ON INPUT FILE>
     60	000000					MSG	OP02,<OPEN FAILURE ON OUTPUT FILE>
     61	000000					MSG	OP04,<CLOSE FAILURE ON INPUT FILE>
     62	000000					MSG	OP05,<CLOSE FAILURE ON OUTPUT FILE>
     63	000000					MSG	OP06,<FAILED TO DETACH OUTPUT DEVICE>
     64	000000					MSG	OP07,<DEVICE NOT MOUNTED>
     65	000000					MSG	OP08,<OUTPUT FILE ALREADY EXISTS - NOT SUPERSEDED>
     66					;
     67					; DELETE ERROR MESSAGES
     68	000000					MSG	DE01,<FAILED TO MARK FILE FOR DELETE>
     69	000000					MSG	DE02,<FILE IS LOST>
     70	000000					MSG	DE04,<VERSION MUST BE EXPLICIT OR "*">
     71	000000					MSG	DE08,<ERROR FROM PARSE>
     72	000000					MSG	DE09,<FAILED TO DELETE FILE>
     73					;
     74					; SET UIC ERROR MESSAGES
     75		000000'				UI01MG==CR01MG
     76		000024 				UI01SZ==CR01SZ
     77					;
     78					; SET DEFAULT DEVICE OR UIC ERROR MESSAGES
     79		000000'				DF01MG==CR01MG
     80		000024 				DF01SZ==CR01SZ
     81					;
     82					; DIRECTORY LISTING ERRORS
     83	000000					MSG	DI05,<CANNOT FIND DIRECTORY FILE>
     84	000000					MSG	DI06,<FAILED TO ATTACH OUTPUT DEVICE>
     85	000000					MSG	DI07,<FAILED TO GET TIME PARAMETERS>
     86	000000					MSG	DI08,<NOT A DIRECTORY DEVICE>
     87					;
     88					; UNLOCK ERROR MESSAGES
     89	000000					MSG	UN01,<FAILED TO WRITE ATTRIBUTES>
     90	000000					MSG	UN02,<FAILED TO READ ATTRIBUTES>
     91	000000					MSG	UN03,<FILE NOT LOCKED>
     92		000000'				UN04MG==CR01MG
     93		000024 				UN04SZ==CR01SZ
     94					;
     95					; RENAME ERROR MESSAGES
     96	000000					MSG	RE02,<FAILED TO ENTER NEW FILE NAME>
     97	000000					MSG	RE03,<FAILED TO RESTORE ORIGINAL DIRECTORY ENTRY - FILE IS LOST>
     98	000000					MSG	RE04,<CANNOT RENAME FROM ONE DEVICE TO ANOTHER>
     99					;
    100					; SPOOL ERROR MESSAGES
    101	000000					MSG	SP01,<FAILED TO SPOOL FILE FOR PRINTING>
    102	000000					MSG	SP02,<CANNOT SPOOL BY FILE ID>
    103					;
    104					; FREE BLOCKS ERROR MESSAGES
    105	000000					MSG	FR01,<FAILED TO OPEN STORAGE BITMAP FILE>
    106					;
    107					; FIND ERROR MESSAGES
    108	000000					MSG	FI01,<FAILED TO FIND FILE(S)>
    109	000000					MSG	FI02,<CANNOT FIND FILE(S)>
    110	000000					MSG	FI03,<NO SUCH FILE(S)>
    111					;
    112					; REMOVE ERROR MESSAGES
PIPMSG M0015, ERROR MESSAGES FO	MACRO M1113  27-FEB-85 12:29  PAGE 7-2
**** PIPMSG VERSION M0015 ****

    113	000000					MSG	RM01,<FAILED TO REMOVE DIRECTORY ENTRY>
    114	000000					MSG	RM02,<DIRECTORY WRITE PROTECTED>
    115					;
    116					; DYNAMIC MEMORY ERROR MESSAGES
    117					;
    118	000000					MSG	DY01,<NOT ENOUGH BUFFER SPACE AVAILABLE>
    119					;
    120					;
    121		000001 				.END
PIPMSG M0015, ERROR MESSAGES FO	MACRO M1113  27-FEB-85 12:29  PAGE 7-3
SYMBOL TABLE

CP01MG= 000107RG    002	CP15SZ= 000040 G 	DI06MG= 001407RG    002	OP02MG= 000722RG    002	RM02SZ= 000031 G
CP01SZ= 000046 G 	CR01MG= 000000RG    002	DI06SZ= 000036 G 	OP02SZ= 000033 G 	R$$DPB= 000001
CP02MG= 000155RG    002	CR01SZ= 000024 G 	DI07MG= 001445RG    002	OP04MG= 000755RG    002	R$$DYM= 000001
CP02SZ= 000017 G 	CR02MG= 000024RG    002	DI07SZ= 000035 G 	OP04SZ= 000033 G 	R$$EIS= 000000
CP03MG= 000174RG    002	CR02SZ= 000016 G 	DI08MG= 001502RG    002	OP05MG= 001010RG    002	R$$MSG= 000000
CP03SZ= 000055 G 	CR03MG= 000042RG    002	DI08SZ= 000026 G 	OP05SZ= 000034 G 	R$$11M= 000001
CP04MG= 000251RG    002	CR03SZ= 000045 G 	DY01MG= 002343RG    002	OP06MG= 001044RG    002	SP01MG= 002030RG    002
CP04SZ= 000056 G 	DE01MG= 001177RG    002	DY01SZ= 000041 G 	OP06SZ= 000036 G 	SP01SZ= 000041 G
CP05MG= 000327RG    002	DE01SZ= 000036 G 	FF    = 000014   	OP07MG= 001102RG    002	SP02MG= 002071RG    002
CP05SZ= 000042 G 	DE02MG= 001235RG    002	FI01MG= 002162RG    002	OP07SZ= 000022 G 	SP02SZ= 000027 G
CP10MG= 000371RG    002	DE02SZ= 000014 G 	FI01SZ= 000026 G 	OP08MG= 001124RG    002	UI01MG= 000000RG    002
CP10SZ= 000050 G 	DE04MG= 001251RG    002	FI02MG= 002210RG    002	OP08SZ= 000053 G 	UI01SZ= 000024 G
CP11MG= 000441RG    002	DE04SZ= 000037 G 	FI02SZ= 000023 G 	RE02MG= 001632RG    002	UN01MG= 001530RG    002
CP11SZ= 000047 G 	DE08MG= 001310RG    002	FI03MG= 002233RG    002	RE02SZ= 000035 G 	UN01SZ= 000032 G
CP12MG= 000510RG    002	DE08SZ= 000020 G 	FI03SZ= 000017 G 	RE03MG= 001667RG    002	UN02MG= 001562RG    002
CP12SZ= 000041 G 	DE09MG= 001330RG    002	FR01MG= 002120RG    002	RE03SZ= 000071 G 	UN02SZ= 000031 G
CP13MG= 000551RG    002	DE09SZ= 000025 G 	FR01SZ= 000042 G 	RE04MG= 001760RG    002	UN03MG= 001613RG    002
CP13SZ= 000027 G 	DF01MG= 000000RG    002	MSGBL.= 000001   	RE04SZ= 000050 G 	UN03SZ= 000017 G
CP14MG= 000600RG    002	DF01SZ= 000024 G 	MSGCT.= 000000   	RM01MG= 002252RG    002	UN04MG= 000000RG    002
CP14SZ= 000030 G 	DI05MG= 001355RG    002	OP01MG= 000670RG    002	RM01SZ= 000040 G 	UN04SZ= 000024 G
CP15MG= 000630RG    002	DI05SZ= 000032 G 	OP01SZ= 000032 G 	RM02MG= 002312RG    002

. ABS.	000000	   000
      	000000	   001
MSGSTR	002404	   002
ERRORS DETECTED:  0

VIRTUAL MEMORY USED:  3156 WORDS  ( 13 PAGES)
DYNAMIC MEMORY:  4622 WORDS  ( 17 PAGES)
ELAPSED TIME:  00:00:20
[43,10]PIPMSG,[43,20]PIPMSG/-SP/CR=[43,30]PIPMAC,PIPMSG
PIPMSG     CREATED BY  MACRO  ON 27-FEB-85 AT 12:29	PAGE 1

SYMBOL CROSS REFERENCE                                  CREF

SYMBOL	VALUE		REFERENCES

CP01MG	= 000107 RG	#7-46       7-46       7-46
CP01SZ	= 000046  G	#7-46       7-46
CP02MG	= 000155 RG	#7-47       7-47       7-47
CP02SZ	= 000017  G	#7-47       7-47
CP03MG	= 000174 RG	#7-48       7-48       7-48
CP03SZ	= 000055  G	#7-48       7-48
CP04MG	= 000251 RG	#7-49       7-49       7-49
CP04SZ	= 000056  G	#7-49       7-49
CP05MG	= 000327 RG	#7-50       7-50       7-50
CP05SZ	= 000042  G	#7-50       7-50
CP10MG	= 000371 RG	#7-51       7-51       7-51
CP10SZ	= 000050  G	#7-51       7-51
CP11MG	= 000441 RG	#7-52       7-52       7-52
CP11SZ	= 000047  G	#7-52       7-52
CP12MG	= 000510 RG	#7-53       7-53       7-53
CP12SZ	= 000041  G	#7-53       7-53
CP13MG	= 000551 RG	#7-54       7-54       7-54
CP13SZ	= 000027  G	#7-54       7-54
CP14MG	= 000600 RG	#7-55       7-55       7-55
CP14SZ	= 000030  G	#7-55       7-55
CP15MG	= 000630 RG	#7-56       7-56       7-56
CP15SZ	= 000040  G	#7-56       7-56
CR01MG	= 000000 RG	#7-41       7-41       7-41       7-75       7-79       7-92
CR01SZ	= 000024  G	#7-41       7-41       7-76       7-80       7-93
CR02MG	= 000024 RG	#7-42       7-42       7-42
CR02SZ	= 000016  G	#7-42       7-42
CR03MG	= 000042 RG	#7-43       7-43       7-43
CR03SZ	= 000045  G	#7-43       7-43
DE01MG	= 001177 RG	#7-68       7-68       7-68
DE01SZ	= 000036  G	#7-68       7-68
DE02MG	= 001235 RG	#7-69       7-69       7-69
DE02SZ	= 000014  G	#7-69       7-69
DE04MG	= 001251 RG	#7-70       7-70       7-70
DE04SZ	= 000037  G	#7-70       7-70
DE08MG	= 001310 RG	#7-71       7-71       7-71
DE08SZ	= 000020  G	#7-71       7-71
DE09MG	= 001330 RG	#7-72       7-72       7-72
DE09SZ	= 000025  G	#7-72       7-72
DF01MG	= 000000 RG	#7-79
DF01SZ	= 000024  G	#7-80
DI05MG	= 001355 RG	#7-83       7-83       7-83
DI05SZ	= 000032  G	#7-83       7-83
DI06MG	= 001407 RG	#7-84       7-84       7-84
DI06SZ	= 000036  G	#7-84       7-84
DI07MG	= 001445 RG	#7-85       7-85       7-85
DI07SZ	= 000035  G	#7-85       7-85
DI08MG	= 001502 RG	#7-86       7-86       7-86
DI08SZ	= 000026  G	#7-86       7-86
DY01MG	= 002343 RG	#7-118      7-118      7-118
DY01SZ	= 000041  G	#7-118      7-118
FF    	= 000014	#7-31
FI01MG	= 002162 RG	#7-108      7-108      7-108
PIPMSG     CREATED BY  MACRO  ON 27-FEB-85 AT 12:29	PAGE 2

SYMBOL CROSS REFERENCE                                  CREF

SYMBOL	VALUE		REFERENCES

FI01SZ	= 000026  G	#7-108      7-108
FI02MG	= 002210 RG	#7-109      7-109      7-109
FI02SZ	= 000023  G	#7-109      7-109
FI03MG	= 002233 RG	#7-110      7-110      7-110
FI03SZ	= 000017  G	#7-110      7-110
FR01MG	= 002120 RG	#7-105      7-105      7-105
FR01SZ	= 000042  G	#7-105      7-105
MSGBL.	= 000001	#7-32       7-41       7-42       7-43       7-46       7-47       7-48       7-49       7-50
                         7-51       7-52       7-53       7-54       7-55       7-56       7-59       7-60       7-61
                         7-62       7-63       7-64       7-65       7-68       7-69       7-70       7-71       7-72
                         7-83       7-84       7-85       7-86       7-89       7-90       7-91       7-96       7-97
                         7-98       7-101      7-102      7-105      7-108      7-109      7-110      7-113      7-114
                         7-118
MSGCT.	= 000000	#7-33
OP01MG	= 000670 RG	#7-59       7-59       7-59
OP01SZ	= 000032  G	#7-59       7-59
OP02MG	= 000722 RG	#7-60       7-60       7-60
OP02SZ	= 000033  G	#7-60       7-60
OP04MG	= 000755 RG	#7-61       7-61       7-61
OP04SZ	= 000033  G	#7-61       7-61
OP05MG	= 001010 RG	#7-62       7-62       7-62
OP05SZ	= 000034  G	#7-62       7-62
OP06MG	= 001044 RG	#7-63       7-63       7-63
OP06SZ	= 000036  G	#7-63       7-63
OP07MG	= 001102 RG	#7-64       7-64       7-64
OP07SZ	= 000022  G	#7-64       7-64
OP08MG	= 001124 RG	#7-65       7-65       7-65
OP08SZ	= 000053  G	#7-65       7-65
RE02MG	= 001632 RG	#7-96       7-96       7-96
RE02SZ	= 000035  G	#7-96       7-96
RE03MG	= 001667 RG	#7-97       7-97       7-97
RE03SZ	= 000071  G	#7-97       7-97
RE04MG	= 001760 RG	#7-98       7-98       7-98
RE04SZ	= 000050  G	#7-98       7-98
RM01MG	= 002252 RG	#7-113      7-113      7-113
RM01SZ	= 000040  G	#7-113      7-113
RM02MG	= 002312 RG	#7-114      7-114      7-114
RM02SZ	= 000031  G	#7-114      7-114
RONLY$	= ******	 7-41       7-41       7-42       7-42       7-43       7-43       7-46       7-46       7-47
                         7-47       7-48       7-48       7-49       7-49       7-50       7-50       7-51       7-51
                         7-52       7-52       7-53       7-53       7-54       7-54       7-55       7-55       7-56
                         7-56       7-59       7-59       7-60       7-60       7-61       7-61       7-62       7-62
                         7-63       7-63       7-64       7-64       7-65       7-65       7-68       7-68       7-69
                         7-69       7-70       7-70       7-71       7-71       7-72       7-72       7-83       7-83
                         7-84       7-84       7-85       7-85       7-86       7-86       7-89       7-89       7-90
                         7-90       7-91       7-91       7-96       7-96       7-97       7-97       7-98       7-98
                         7-101      7-101      7-102      7-102      7-105      7-105      7-108      7-108      7-109
                         7-109      7-110      7-110      7-113      7-113      7-114      7-114      7-118      7-118
R$$DPB	= 000001	#1-27
R$$DYM	= 000001	#1-29
R$$EIS	= 000000	#1-28       1-38
R$$MSG	= 000000	 7-24       7-41       7-41       7-42       7-42       7-43       7-43       7-46       7-46
PIPMSG     CREATED BY  MACRO  ON 27-FEB-85 AT 12:29	PAGE 3

SYMBOL CROSS REFERENCE                                  CREF

SYMBOL	VALUE		REFERENCES

                         7-47       7-47       7-48       7-48       7-49       7-49       7-50       7-50       7-51
                         7-51       7-52       7-52       7-53       7-53       7-54       7-54       7-55       7-55
                         7-56       7-56       7-59       7-59       7-60       7-60       7-61       7-61       7-62
                         7-62       7-63       7-63       7-64       7-64       7-65       7-65       7-68       7-68
                         7-69       7-69       7-70       7-70       7-71       7-71       7-72       7-72       7-83
                         7-83       7-84       7-84       7-85       7-85       7-86       7-86       7-89       7-89
                         7-90       7-90       7-91       7-91       7-96       7-96       7-97       7-97       7-98
                         7-98       7-101      7-101      7-102      7-102      7-105      7-105      7-108      7-108
                         7-109      7-109      7-110      7-110      7-113      7-113      7-114      7-114      7-118
                         7-118
R$$11M	= 000001	#1-25       1-26       7-1
SP01MG	= 002030 RG	#7-101      7-101      7-101
SP01SZ	= 000041  G	#7-101      7-101
SP02MG	= 002071 RG	#7-102      7-102      7-102
SP02SZ	= 000027  G	#7-102      7-102
SYS40$	= ******	 1-67       7-41       7-41       7-42       7-42       7-43       7-43       7-46       7-46
                         7-47       7-47       7-48       7-48       7-49       7-49       7-50       7-50       7-51
                         7-51       7-52       7-52       7-53       7-53       7-54       7-54       7-55       7-55
                         7-56       7-56       7-59       7-59       7-60       7-60       7-61       7-61       7-62
                         7-62       7-63       7-63       7-64       7-64       7-65       7-65       7-68       7-68
                         7-69       7-69       7-70       7-70       7-71       7-71       7-72       7-72       7-83
                         7-83       7-84       7-84       7-85       7-85       7-86       7-86       7-89       7-89
                         7-90       7-90       7-91       7-91       7-96       7-96       7-97       7-97       7-98
                         7-98       7-101      7-101      7-102      7-102      7-105      7-105      7-108      7-108
                         7-109      7-109      7-110      7-110      7-113      7-113      7-114      7-114      7-118
                         7-118
UI01MG	= 000000 RG	#7-75
UI01SZ	= 000024  G	#7-76
UN01MG	= 001530 RG	#7-89       7-89       7-89
UN01SZ	= 000032  G	#7-89       7-89
UN02MG	= 001562 RG	#7-90       7-90       7-90
UN02SZ	= 000031  G	#7-90       7-90
UN03MG	= 001613 RG	#7-91       7-91       7-91
UN03SZ	= 000017  G	#7-91       7-91
UN04MG	= 000000 RG	#7-92
UN04SZ	= 000024  G	#7-93
PIPMSG     CREATED BY  MACRO  ON 27-FEB-85 AT 12:29	PAGE 4

MACRO CROSS REFERENCE                                   CREF

MACRO NAME	REFERENCES

ASH   		#1-64
ASHC  		#1-64
DIV   		#1-64
ERRINI		#4-307
ERROUT		#3-215
ERROUX		#3-222
ERROU1		#3-225
ERRP  		#3-247
ERRPX 		#3-253
ERRP1 		#3-256
ERR1  		#3-273
FLDSOF		#5-382
IDENT 		#5-339     #7-1
IDENT1		#5-347      7-1
IDTITL		#5-356
ILLOP 		#1-52      #1-64       1-64
IMPURE		#1-75
MARK  		#1-64
MSG   		#2-124     #7-41      #7-42      #7-43      #7-46      #7-47      #7-48      #7-49      #7-50      #7-51
                #7-52      #7-53      #7-54      #7-55      #7-56      #7-59      #7-60      #7-61      #7-62      #7-63
                #7-64      #7-65      #7-68      #7-69      #7-70      #7-71      #7-72      #7-83      #7-84      #7-85
                #7-86      #7-89      #7-90      #7-91      #7-96      #7-97      #7-98      #7-101     #7-102     #7-105
                #7-108     #7-109     #7-110     #7-113     #7-114     #7-118
MSGZ  		#2-129
MSG1  		#2-133     #7-41      #7-42      #7-43      #7-46      #7-47      #7-48      #7-49      #7-50      #7-51
                #7-52      #7-53      #7-54      #7-55      #7-56      #7-59      #7-60      #7-61      #7-62      #7-63
                #7-64      #7-65      #7-68      #7-69      #7-70      #7-71      #7-72      #7-83      #7-84      #7-85
                #7-86      #7-89      #7-90      #7-91      #7-96      #7-97      #7-98      #7-101     #7-102     #7-105
                #7-108     #7-109     #7-110     #7-113     #7-114     #7-118
MUL   		#1-64
NOEIS$		#1-39       1-64
PURE. 		#1-84       7-41       7-42       7-43       7-46       7-47       7-48       7-49       7-50       7-51
                 7-52       7-53       7-54       7-55       7-56       7-59       7-60       7-61       7-62       7-63
                 7-64       7-65       7-68       7-69       7-70       7-71       7-72       7-83       7-84       7-85
                 7-86       7-89       7-90       7-91       7-96       7-97       7-98       7-101      7-102      7-105
                 7-108      7-109      7-110      7-113      7-114      7-118
PURE.D		#1-102
PURE.I		#1-98
RTT   		#1-64
SOB   		#1-64
SXT   		#1-64
XOR   		#1-64
PRSFND M0114, PARSE, FIND, ETC.	MACRO M1113  27-FEB-85 12:32
TABLE OF CONTENTS

     7-    1	**** PRSFND VERSION M0114 ****
     8-   48	.WPARS - WILD CARD UIC PARSE
    10-  101	.FNDNX - FIND THE NEXT FILE
    11-  184	.NXDIR - FIND NEXT WILD CARD DIRECTORY
    12-  275	.WLDVC - CHECK FOR WILD CARDS WITH DEFAULT VERSION
    13-  302	USEFUL SUBROUTINES
PIPMAC - MACROS FOR PIP, ETC.	MACRO M1113  27-FEB-85 12:32  PAGE 6


    397
PRSFND M0114, PARSE, FIND, ETC.	MACRO M1113  27-FEB-85 12:32  PAGE 7


      1						.TITLE	PRSFND M0114, PARSE, FIND, ETC.
						.SBTTL	**** PRSFND VERSION M0114 ****
						.IDENT	/M0114/
      2					; ALTERED THURSDAY 22-AUG-74 12:10
      3					;
      4					; COPYRIGHT 1975, 1985, DIGITAL EQUIPMENT CORP., MAYNARD MASS.
      5					; COPYRIGHT 1974, DIGITAL EQUIPMENT CORP., MAYNARD MASS.
      6
      7					;			ALL RIGHTS RESERVED
      8					;
      9					; THIS SOFTWARE IS FURNISHED TO PURCHASER UNDER A LICENSE FOR USE
     10					; ON A SINGLE COMPUTER SYSTEM AND CAN BE COPIED (WITH INCLUSION
     11					; OF DEC'S COPYRIGHT NOTICE) ONLY FOR USE IN SUCH SYSTEM, EXCEPT
     12					; AS MAY OTHERWISE BE PROVIDED IN WRITING BY DEC.
     13
     14					; THE INFORMATION IN THIS DOCUMENT IS SUBJECT TO CHANGE WITHOUT
     15					; NOTICE AND SHOULD NOT BE CONSTRUED AS A COMMITMENT BY DIGITAL
     16					; EQUIPMENT CORPORATION.
     17
     18					; DEC ASSUMES NO RESPONSIBILITY FOR THE USE OR RELIABILITY
     19					; OF ITS SOFTWARE ON EQUIPMENT WHICH IS NOT SUPPLIED BY DEC.
     20					;
     21					; PETER H. LIPMAN 12-JUNE 73
     22					;
     23						.MCALL	NBOF$L,IOERR$,FILIO$
     24	000000					NBOF$L			;DEFINE FNB OFFSETS LOCALLY
     25	000000					IOERR$			;DEFINE I/O ERROR CODES LOCALLY
     26	000000					FILIO$			;DEFINE THE I/O FUNCTION CODES LOCALLY
     27					;
     28						.MCALL	CALL,RETURN,FDBDF$,FDAT$A,FDOP$A,FCSBT$
     29					;
     30	000000					FCSBT$	DEF$L
     31	000000					FLDSOF			;DEFINE FILE DESCRIPTOR OFFSETS
     32					;
     33		000400 				NB.SD1=400		;WILD CARD IN PROJECT #
     34		001000 				NB.SD2=1000		;WILD CARD IN PROGRAMMER #
     35		001400 				NB.SDI=NB.SD1!NB.SD2	;WILD CARD IN DIRECTORY
     36					;
     37					; SCRATCH STORAGE FOR WILD UIC LOGIC CONSISTS
     38					; OF A FILE NAME BLOCK FOLLOWED BY THE FOLLOWING EXTRA WORDS
     39		000036 				N.WNM1=S.FNB		;2 WORDS FOR RAD50 NON WILD CARD
     40									;PROJECT OR PROGRAMMER NAME
     41		000042 				N.WNM2=N.WNM1+4		;5 WORDS OF STRING STORAGE FOR
     42									;ASCII FORM OF CURRENT DIRECTORY NAME
     43		000054 				S.WUIC=S.FNB+14.	;NO. OF BYTES IN SCRATCH AREA
     44					;
     45		015172 				DIRTYP=<'D-100>*50*50+<<'I-100>*50>+<'R-100> ;.RAD50 DIR
     46		140116 				MFDNAM=<'0-22>*50*50+<<'0-22>*50>+<'0-22> ;.RAD50 000
PRSFND M0114, PARSE, FIND, ETC.	MACRO M1113  27-FEB-85 12:32  PAGE 8
.WPARS - WILD CARD UIC PARSE

     48						.SBTTL	.WPARS - WILD CARD UIC PARSE
     49					;
     50	000000					PURE.I
     51					;+
     52					; WILD CARD UIC PARSE
     53					; CALLING SEQUENCE:
     54					;	CALL	.WPARS
     55					; INPUTS:
     56					;	R0=FDB
     57					;	R1=FILE NAME BLOCK ADDRESS
     58					;	R2=FILE DESCRIPTOR POINTER
     59					;	R3=DEFAULT FILE NAME BLOCK
     60					;	R4=ADDR OF SCRATCH AREA FOR WILD UIC LOGIC
     61					; OUTPUTS:
     62					;	C=0 IF SUCCESSFUL, C=1 IF ERROR
     63					;	ALL REGISTERS PRESERVED
     64					; OPERATION:
     65					;	PERFORMS A NORMAL CALL TO .PARSE, AND IF A BAD DIRECTORY
     66					; INDICATION IS RETURNED, ATTEMPTS TO PARSE AND SET UP FOR WILD UIC'S
     67					; IF A SUCCESSFUL INDICATION IS RETURNED, THE DIRECTORY ID
     68					; IS SET UP POINTING AT THE FIRST DIRECTORY TO BE USED
     69					;-
     70	000000	012764 	000050 	000020 	.WPARS::MOV	#NB.SNM!NB.SVR,N.STAT(R4)
     71	000006					CALL	.PARSE
     72	000012	103056 				BCC	60$		;BRANCH IF PARSE SUCCESSFUL
     73	000014	122760 	177714 	000000G		CMPB	#IE.BDI,F.ERR(R0) ;BAD DIRECTORY NAME?
     74	000022	001051 				BNE	58$		;BRANCH IF NO, REPORT ERROR
     75					; SEE IF WILD CARD DIRECTORY NAME
     76	000024	005762 	000004 			TST	N.DIRD(R2)	;IF NULL DIRECTORY DESCRIPTOR
     77	000030	001446 				BEQ	58$		;THEN REPORT ERROR
     78	000032					CALL	PRSDIR
     79	000036	103444 				BCS	60$		;BRANCH IF BAD DIRECTORY SYNTAX
     80	000040	032764 	001400 	000020 		BIT	#NB.SDI,N.STAT(R4)
     81	000046	001437 				BEQ	58$		;BRANCH IF NO WILD UIC'S
     82					; IT'S A WILD CARD DIRECTORY NAME
     83	000050	012764 	015172 	000014 		MOV	#DIRTYP,N.FTYP(R4) ;FILE TYPE "DIR"
     84	000056	005064 	000022 			CLR	N.NEXT(R4)
     85	000062	012764 	177777 	000024 		MOV	#-1,N.DID(R4)	;DOING FIND'S IN MFD
     86	000070	012764 	177777 	000026 		MOV	#-1,N.DID+2(R4)
     87	000076	005064 	000030 			CLR	N.DID+4(R4)
     88	000102	016164 	000032 	000032 		MOV	N.DVNM(R1),N.DVNM(R4)
     89	000110	016164 	000034 	000034 		MOV	N.UNIT(R1),N.UNIT(R4)
     90	000116					CALL	.NXDIR		;SET UP TO USE THE NEXT DIRECTORY
     91	000122	103412 				BCS	60$
     92	000124					CALL	.PARSE
     93	000130	016446 	000020 			MOV	N.STAT(R4),-(SP)
     94	000134	042716 	176377 			BIC	#^C<NB.SDI>,@SP
     95	000140	052661 	000020 			BIS	(SP)+,N.STAT(R1) ;SET WILD DIR BITS IN FNB STATUS
     96	000144					RETURN
     97	000146	000261 			58$:	SEC
     98	000150				60$:	RETURN
PRSFND M0114, PARSE, FIND, ETC.	MACRO M1113  27-FEB-85 12:32  PAGE 10
.FNDNX - FIND THE NEXT FILE

    101						.SBTTL	.FNDNX - FIND THE NEXT FILE
    102					;+
    103					; FIND THE NEXT FILE IN THIS (OR NEXT) DIRECTORY
    104					; CALLING SEQUENCE:
    105					;	CALL	.FNDNX
    106					; INPUTS:
    107					;	R0=FDB ADDRESS
    108					;	R1=FILE NAME BLOCK ADDRESS
    109					;	R2=ADDRESS OF SCRATCH BLOCK FOR UIC WILD CARD LOGIC
    110					; OUPUTS:
    111					;	C=0 IF SUCCESSFUL, C=1 IF FAILURE
    112					;	ALL REGISTERS PRESERVED
    113					; OPERATION:
    114					;	FINDS THE NEXT FILE IN THE CURRENT DIRECTORY (EVEN IF
    115					; WILD CARD NAME, TYPE AND DEFAULT VERSION).  OPTIONALLY WILL
    116					; CROSS TO THE NEXT WILD CARD DIRECTORY IF R2 NON ZERO (AND
    117					; IF WILD CARD UIC'S ARE PRESENT).
    118					;-
    119	000152				.FNDNX::CALL	.WLDVC		;WILD CARDS WITH DEFAULT VERSION?
    120	000156	103403 				BCS	FNDNX1		;BRANCH IF YES
    121	000160					CALL	.FIND
    122	000164	000470 				BR	FNDNX2
    123					;
    124					; HANDLE THE SPECIAL CASE OF WILD CARD FIND OF NEWEST OR OLDEST VERSION
    125	000166	005761 	000022 		FNDNX1:	TST	N.NEXT(R1)	;FIRST FILE IN CLASS?
    126	000172	001003 				BNE	10$		;BRANCH IF NOT
    127	000174					CALL	TDRINI		;YES, INIT TEMP DIRECTORY
    128	000200	103444 				BCS	40$		;BRANCH IF FAILED
    129	000202	016146 	000016 		10$:	MOV	N.FVER(R1),-(SP)
    130	000206	016146 	000020 		20$:	MOV	N.STAT(R1),-(SP)
    131	000212	052761 	000010 	000020 		BIS	#NB.SVR,N.STAT(R1) ;FIND ANY VERSION FIRST
    132	000220					CALL	.FIND
    133	000224	103441 				BCS	60$		;BRANCH IF NO MORE FILES
    134	000226	016146 	000022 			MOV	N.NEXT(R1),-(SP)
    135	000232	005061 	000020 			CLR	N.STAT(R1)
    136	000236	005061 	000022 			CLR	N.NEXT(R1)
    137	000242	016661 	000004 	000016 		MOV	4(SP),N.FVER(R1) ;SAVED FILE VERSION (0 OR -1)
    138	000250					CALL	.FIND		;FIND NEWEST (OR OLDEST)
    139	000254	103422 				BCS	50$		;BRANCH IF FAILED (SHOULDN'T HAPPEN)
    140	000256					CALL	TDRENT		;HAVE WE ALREADY FOUND THIS ONE
    141	000262	012661 	000022 			MOV	(SP)+,N.NEXT(R1)
    142	000266	012661 	000020 			MOV	(SP)+,N.STAT(R1)
    143	000272	103402 				BCS	30$
    144	000274	005726 				TST	(SP)+		;POP THE SAVED VERSION
    145	000276	000454 				BR	FNDNX3
    146					; IF DUPLICATE ERROR, WE'VE SEEN THIS FILE BEFORE, DON'T "FIND" IT AGAIN
    147	000300	122767 	177707 	000000C	30$:	CMPB	#IE.DUP,TDRFDB+F.ERR
    148	000306	001737 				BEQ	20$		;GO FIND ANOTHER
    149	000310	005726 				TST	(SP)+
    150					;
    151					; ERROR FROM INIT OR ENTER IN TMP DIRECTORY
    152	000312	116760 	000000C	000000G	40$:	MOVB	TDRFDB+F.ERR,F.ERR(R0)
    153	000320	000411 				BR	70$
    154					;
    155					; COULDN'T FIND NEWEST OR OLDEST VERSION - CAN'T THINK OF A REASON
    156	000322	012661 	000022 		50$:	MOV	(SP)+,N.NEXT(R1)
    157	000326	000402 				BR	65$
PRSFND M0114, PARSE, FIND, ETC.	MACRO M1113  27-FEB-85 12:32  PAGE 10-1
.FNDNX - FIND THE NEXT FILE

    158					;
    159					; FAILED TO FIND NEXT FILE IN CLASS, ALL DONE
    160	000330				60$:	CALL	TDRDEL		;DELETE THE TEMP DIRECTORY
    161	000334	012661 	000020 		65$:	MOV	(SP)+,N.STAT(R1)
    162	000340	012661 	000016 			MOV	(SP)+,N.FVER(R1)
    163	000344	000261 			70$:	SEC
    164	000346	103030 			FNDNX2:	BCC	FNDNX3
    165	000350	005702 				TST	R2		;ALLOWED TO CROSS DIRECTORIES\?
    166	000352	001425 				BEQ	20$		;BRANCH IF NOT
    167	000354	032761 	001400 	000020 		BIT	#NB.SDI,N.STAT(R1) ;ANY WILD UIC'S
    168	000362	001421 				BEQ	20$		;BRANCH IF NOT
    169	000364	122760 	177746 	000000G		CMPB	#IE.NSF,F.ERR(R0) ;IF "NO SUCH FILE"
    170	000372	001015 				BNE	20$		;BRANCH IF NOT
    171	000374	010346 				MOV	R3,-(SP)
    172	000376	010446 				MOV	R4,-(SP)
    173	000400	010204 				MOV	R2,R4
    174	000402	016002 	000000G			MOV	F.DSPT(R0),R2
    175	000406	016003 	000000G			MOV	F.DFNB(R0),R3
    176	000412					CALL	.NXDIR
    177	000416	010402 				MOV	R4,R2
    178	000420	012604 				MOV	(SP)+,R4
    179	000422	012603 				MOV	(SP)+,R3
    180	000424	103252 				BCC	.FNDNX		;IF FOUND NEW DIRECTORY, FIND NEXT FILE
    181	000426	000261 			20$:	SEC
    182	000430				FNDNX3:	RETURN
PRSFND M0114, PARSE, FIND, ETC.	MACRO M1113  27-FEB-85 12:32  PAGE 11
.NXDIR - FIND NEXT WILD CARD DIRECTORY

    184						.SBTTL	.NXDIR - FIND NEXT WILD CARD DIRECTORY
    185					;+
    186					; SET UP FOR NEXT WILD CARD DIRECTORY
    187					; CALLING SEQUENCE:
    188					;	CALL	.NXDIR
    189					; INPUTS:
    190					;	R0=FDB ADDRESS
    191					;	R1=FILE NAME BLOCK ADDRESS
    192					;	R2=FILE DESCRIPTOR POINTER
    193					;	R3=DEFAULT FILE NAME BLOCK
    194					;	R4=ADDR OF SCRATCH AREA FOR WILD UIC LOGIC
    195					; OUTPUTS:
    196					;	C=0 IF SUCCESSFUL, C=1 IF FAILED
    197					;	ALL REGISTERS PRESERVED
    198					; OPERATION:
    199					;	FINDS THE NEXT DIRECTORY THAT MEETS THE WILD CARD CRITERIA
    200					; IF ONLY THE PROJECT # WAS WILD, THEN THE PROG NAMES MUST MATCH
    201					; AND VICE-VERSA.  DIRECTORY NAMES OF MORE THAN 6 CHARS WILL NOT
    202					; SATISFY THE MATCH, AND LIKEWISE, ANY NAME BEGINNING WITH 000
    203					; (RAD50) WILL ALSO NOT MATCH.  THIS MEANS THE MFD WILL
    204					; NOT BE FOUND.
    205					;	WHEN A DIRECTORY IS FOUND, IT'S ID IS PLACED
    206					; IN THE DIRECTORY ID SLOT IN THE FILE NAME BLOCK.
    207					; ALSO THE DIRECTORY STRING IS GENERATED AND POINTED TO BY F.DSPT
    208					; IF PRESENT, OR THE DIRECTORY ID IS PUT INTO THE
    209					; DEFAULT NAME BLOCK IF IT IS PRESENT.
    210					;-
    211	000432	032764 	001400 	000020 	.NXDIR::BIT	#NB.SDI,N.STAT(R4) ;WILD CARD UIC'S?
    212	000440	001522 				BEQ	50$		;BRANCH IF NO
    213	000442					CALL	$SAVAL
    214	000446	010146 			10$:	MOV	R1,-(SP)
    215	000450	010401 				MOV	R4,R1
    216	000452					CALL	.FIND		;FIND THE NEXT DIRECTORY
    217	000456	012601 				MOV	(SP)+,R1
    218	000460	103516 				BCS	60$
    219					; FOUND ONE, SEE IF IT MATCHE OUR REQUIREMENTS
    220	000462	022764 	140116 	000006 		CMP	#MFDNAM,N.FNAM(R4) ;DON'T ALLOW MFD
    221	000470	001766 				BEQ	10$
    222	000472	005764 	000012 			TST	N.FNAM+4(R4)	;NO 7-9 CHAR NAMES
    223	000476	001363 				BNE	10$
    224					; MATCH PROJ OR PROG NAME IF NECESSARY
    225	000500	032764 	000400 	000020 		BIT	#NB.SD1,N.STAT(R4) ;WILD CARD PROJ #?
    226	000506	001004 				BNE	20$		;BRANCH IF YES
    227	000510	026464 	000036 	000006 		CMP	N.WNM1(R4),N.FNAM(R4)
    228	000516	001353 				BNE	10$		;BRANCH IF PROJ NAMES DISAGREE
    229	000520	032764 	001000 	000020 	20$:	BIT	#NB.SD2,N.STAT(R4) ;WILD CARD PROGRAMMER #?
    230	000526	001004 				BNE	30$		;BRANCH IF YES
    231	000530	026464 	000040 	000010 		CMP	N.WNM1+2(R4),N.FNAM+2(R4)
    232	000536	001343 				BNE	10$		;BRANCH IF PROG NAMES DISAGREE
    233					; THIS DIRECTORY IS JUST FINE, SET UP THE FILE NAME BLOCK DIRECTORY ID
    234					; AND ALSO SET THE DIR NAME POINTER IN F.DSPT IF PRESENT
    235					; OR THE DIRECTORY ID IN F.DFNB IF F.DSPT IS 0
    236	000540	016461 	000000 	000024 	30$:	MOV	N.FID(R4),N.DID(R1)
    237	000546	016461 	000002 	000026 		MOV	N.FID+2(R4),N.DID+2(R1)
    238	000554	016461 	000004 	000030 		MOV	N.FID+4(R4),N.DID+4(R1)
    239	000562	005061 	000022 			CLR	N.NEXT(R1)	;START AT BEGINNING OF DIRECTORY
    240					; SET UP STRING WITH DIRECTORY NAME, AND POINT TO IT FROM
PRSFND M0114, PARSE, FIND, ETC.	MACRO M1113  27-FEB-85 12:32  PAGE 11-1
.NXDIR - FIND NEXT WILD CARD DIRECTORY

    241					; THE FILE DESCRIPTOR POINTER
    242	000566	010205 				MOV	R2,R5		;SAVE THE FILE DECRIPTOR POINTER
    243	000570	001432 				BEQ	40$		;SKIP THIS IF NULL POINTER
    244	000572	010400 				MOV	R4,R0
    245	000574	062700 	000042 			ADD	#N.WNM2,R0	;R0=ADDRESS OF STRING AREA
    246	000600	016401 	000006 			MOV	N.FNAM(R4),R1	;R1=1ST RAD50 FILE NAME WORD
    247	000604					CALL	C5TB		;CONVERT RAD50 TO BINARY IN R1
    248	000610	010146 				MOV	R1,-(SP)	;SAVE PROJECT #
    249	000612	016401 	000010 			MOV	N.FNAM+2(R4),R1
    250	000616					CALL	C5TB		;CONVERT 2ND RAD50 WORD
    251	000622	005003 				CLR	R3
    252	000624	152603 				BISB	(SP)+,R3	;PROJECT #
    253	000626	000303 				SWAB	R3
    254	000630	150103 				BISB	R1,R3		;R3 =.BYTE PROG#,PROJ#
    255	000632	010002 				MOV	R0,R2		;R2=SCRATCH AREA STRING ADR
    256	000634	005004 				CLR	R4
    257	000636					CALL	.PPASC		;PPN TO ASCII STRING
    258	000642	010065 	000006 			MOV	R0,N.DIRD+2(R5)	;R5=F.DSPT, STORE STRING ADDRESS
    259	000646	160002 				SUB	R0,R2		;CALCULATE DIRECTORY STRING SIZE
    260	000650	010265 	000004 			MOV	R2,N.DIRD(R5)	;AND STORE IT IN F.DSPT
    261	000654	000420 				BR	60$
    262					;
    263					; SET DIRECTORY ID IN DEFAULT NAME BLOCK, SINCE THERE
    264					; WAS NO FILE DESCRIPTOR POINTER TO PUT A STRING IN
    265	000656	005703 			40$:	TST	R3		;ANY DEFAULT FILE NAME BLOCK?
    266	000660	001416 				BEQ	60$		;BRANCH IF NO
    267	000662	016463 	000000 	000024 		MOV	N.FID(R4),N.DID(R3)
    268	000670	016463 	000002 	000026 		MOV	N.FID+2(R4),N.DID+2(R3)
    269	000676	016463 	000004 	000030 		MOV	N.FID+4(R4),N.DID+4(R3)
    270	000704					RETURN
    271	000706	112760 	177746 	000000G	50$:	MOVB	#IE.NSF,F.ERR(R0)
    272	000714	000261 				SEC
    273	000716				60$:	RETURN
PRSFND M0114, PARSE, FIND, ETC.	MACRO M1113  27-FEB-85 12:32  PAGE 12
.WLDVC - CHECK FOR WILD CARDS WITH DEFAULT VERSION

    275						.SBTTL	.WLDVC - CHECK FOR WILD CARDS WITH DEFAULT VERSION
    276					;
    277					;+
    278					; CHECK IF DEFAULT VERSION WITH WILD CARD NAME OR TYPE
    279					; CALLING SEQUENCE:
    280					;	CALL	.WLDVC
    281					; INPUTS:
    282					;	R0=FDB ADDRESS
    283					;	R1=FILE NAME BLOCK
    284					; OUTPUTS:
    285					;	C=1 IF WILD NAME OR TYPE, AND DEFAULT VERSION
    286					;	C=0 IF NOT
    287					;	ALL REGISTERS PRESERVED
    288					;-
    289	000720	032761 	000060 	000020 	.WLDVC::BIT	#NB.SNM!NB.STP,N.STAT(R1)
    290	000726	001415 				BEQ	10$
    291	000730	032761 	000010 	000020 		BIT	#NB.SVR,N.STAT(R1) ;REQUIRE WILD VERSION
    292	000736	001011 				BNE	10$
    293	000740	005761 	000016 			TST	N.FVER(R1)	;OR EXPLICIT VERSION
    294	000744	001404 				BEQ	5$
    295	000746	022761 	177777 	000016 		CMP	#-1,N.FVER(R1)
    296	000754	001002 				BNE	10$
    297	000756	000261 			5$:	SEC
    298	000760					RETURN
    299	000762	000241 			10$:	CLC
    300	000764					RETURN
PRSFND M0114, PARSE, FIND, ETC.	MACRO M1113  27-FEB-85 12:32  PAGE 13
USEFUL SUBROUTINES

    302						.SBTTL	USEFUL SUBROUTINES
    303					;
    304					;+
    305					; PARSE THE DIRECTORY STRING, ALLOWING WILD CARD UIC'S
    306					; CALLING SEQUENCE:
    307					;	CALL	PRSDIR
    308					; INPUTS:
    309					;	R0=FDB
    310					;	R1=FILE NAME BLOCK
    311					;	R2=FILE DESCRIPTOR POINTER
    312					;	R3=DEFAULT FILE NAME BLOCK
    313					;	R4=SCRATCH AREA TO BE INITIALIZED WITH WILD CARD
    314					;		UIC INFORMATION
    315					; OUTPUTS:
    316					;	C=0 IF OK, C=1 IF BAD SYNTAX IN DIRECTORY STRING
    317					;	ALL REGISTERS PRESERVED
    318					; OPERATION:
    319					;	SETS UP THE STATUS WORD (N.STAT) IN THE FNB OF THE
    320					; SCRATCH AREA WITH THE APPROPRIATE WILD CARD UIC BITS, AND STORES
    321					; THE EXPLICIT PROJECT NAME (RAD50) AND PROGRAMER NAME
    322					; IN N.WNM1, N.WNM1+2 (R4).
    323					;-
    324	000766				PRSDIR:	CALL	$SAVAL
    325	000772	010446 				MOV	R4,-(SP)
    326	000774	010401 				MOV	R4,R1
    327	000776	062701 	000036 			ADD	#N.WNM1,R1
    328	001002					CALL	PRSUI1
    329	001006	012604 				MOV	(SP)+,R4
    330	001010	103437 				BCS	60$
    331	001012	014301 				MOV	-(R3),R1	;R1=PROJECT #
    332	001014	010400 				MOV	R4,R0
    333	001016	062700 	000042 			ADD	#N.WNM2,R0	;SCRATCH STRING ADDRESS
    334	001022					CALL	CDRNM		;CONVERT NUMBER TO RAD50  (1 WORD)
    335	001026	010123 				MOV	R1,(R3)+	;STORE RAD50 BACK IN N.WNM1(R4)
    336	001030	103006 				BCC	20$
    337					; NUMBER WAS TOO BIG, WAS IT -1, IF SO, SET WILD BIT
    338	001032	022701 	177777 			CMP	#-1,R1
    339	001036	001024 				BNE	60$		;OTHERWISE SYNTAX ERROR
    340	001040	052764 	000400 	000020 		BIS	#NB.SD1,N.STAT(R4) ;SET WILD PROJECT #
    341	001046	011301 			20$:	MOV	@R3,R1		;R1=PROGRAMMER #
    342	001050	010400 				MOV	R4,R0
    343	001052	062700 	000042 			ADD	#N.WNM2,R0
    344	001056					CALL	CDRNM
    345	001062	010113 				MOV	R1,@R3		;STORE RAD50
    346	001064	103006 				BCC	30$
    347	001066	022701 	177777 			CMP	#-1,R1
    348	001072	001006 				BNE	60$		;BRANCH IF SYNTAX ERROR
    349	001074	052764 	001000 	000020 		BIS	#NB.SD2,N.STAT(R4) ;SET WILD CARD PROGRAMMER #
    350	001102	000241 			30$:	CLC
    351	001104					RETURN
    352	001106	005726 			58$:	TST	(SP)+
    353	001110	000261 			60$:	SEC
    354	001112					RETURN
    355					;
    356					;+
    357					; PARSE UIC STRING INTO BINARY PROJ AND PROG NUMBERS (2 WORDS)
    358					; CALLING SEQUENCE:
PRSFND M0114, PARSE, FIND, ETC.	MACRO M1113  27-FEB-85 12:32  PAGE 13-1
USEFUL SUBROUTINES

    359					;	CALL	.PRSUI
    360					; INPUTS:
    361					;	R1=ADDRESS OF 2 WORD BLOCK TO STORE PPN
    362					;	R2=FILE DESCRIPTOR POINTER
    363					; OUTPUTS:
    364					;	C=0 OK, C=1 IF SUNTAX ERROR
    365					;	ALL REGISTERS PRESERVED
    366					;	@R1 = PROJECT # OR -1 IF *
    367					;	2(R1) = PROGRAMMER # OR -1 IF *
    368					; ALTERNATE ENTRY:
    369					;	CALL	PRSUI1
    370					; INPUTS:
    371					;	SAME
    372					; OUTPUTS:
    373					;	SAME EXCEPT REGISTERS NOT PRESERVED
    374					;	R3= ADDRESS OF PROGRAMMER # (2ND WORD)
    375					;	R0 PRESERVED, R2,R4,R5 ALTERED
    376					;-
    377	001114				.PRSUI::
    378	001114	004567 	000000G			JSR	R5,.SAVR1
    379	001120	010103 			PRSUI1:	MOV	R1,R3		;R3=ADR TO RETURN PROJECT #
    380	001122	016201 	000004 			MOV	N.DIRD(R2),R1	;R1=SIZE OF DIRECTORY STRING
    381	001126	016202 	000006 			MOV	N.DIRD+2(R2),R2	;R2=ADDRESS OF DIRECOTRY STRING
    382	001132	122722 	000133 			CMPB	#'[,(R2)+	;REQUIRE LEADING "["
    383	001136	001014 				BNE	40$
    384	001140	005301 				DEC	R1		;COUNT THE "["
    385	001142	012704 	000054 			MOV	#',,R4		;R4=TERMINATOR CHARACTER
    386	001146					CALL	SCNCVT		;CONVERT PROJECT #
    387	001152	103405 				BCS	30$		;BRANCH IF BAD SYNTAX
    388	001154	005723 				TST	(R3)+		;R3= ADDRESS TO STORE PROG #
    389	001156	012704 	000135 			MOV	#'],R4		;R4=TERMINATING CHAR
    390	001162					CALL	SCNCVT		;CONVERT PROGRAMMER #
    391	001166				30$:	RETURN
    392					;
    393	001170	000261 			40$:	SEC
    394	001172					RETURN
PRSFND M0114, PARSE, FIND, ETC.	MACRO M1113  27-FEB-85 12:32  PAGE 14
USEFUL SUBROUTINES

    396					;+
    397					; SCAN ASCII STRING UNTIL FIND TERMINATING CHAR
    398					; CONVERT TO NUMBER OR -1 IF WILD CARD, RETURN @R3
    399					; CALLING SEQUENCE:
    400					;	CALL	SCNCVT
    401					; INPUTS:
    402					;	R1 = STRING SIZE
    403					;	R2 = STRING ADDRESS
    404					;	R3 = ADDRESS TO RETURN VALUE
    405					;	R4 = TERMINATING CHARACTER TO MATCH
    406					; OUTPUTS:
    407					;	C=0 IF OK, C=1 IF SYNTAX ERROR
    408					;	R1,R2 UPDATED TO REFLECT CHARACTERS SCANNED
    409					;	R4,R5 ALTERED
    410					;	R0,R3 PRESERVED
    411					;-
    412	001174	010205 			SCNCVT:	MOV	R2,R5		;SAVE STARTING CHARACTER ADDRESS
    413	001176	120422 			10$:	CMPB	R4,(R2)+
    414	001200	001404 				BEQ	20$		;BRANCH IF THIS IS THE TERMINATOR
    415	001202					SOB	R1,10$
    416	001206	000261 				SEC			;RAN OUT OF CHARACTER, BAD SYNTAX
    417	001210					RETURN
    418	001212	005301 			20$:	DEC	R1		;COUNT TERMINATOR
    419	001214	122715 	000052 			CMPB	#'*,@R5		;WILD CARD?
    420	001220	001004 				BNE	30$		;BRANCH IF NO
    421	001222	012713 	177777 			MOV	#-1,@R3
    422	001226	000241 				CLC
    423	001230					RETURN
    424	001232	010204 			30$:	MOV	R2,R4
    425	001234	160504 				SUB	R5,R4
    426	001236	005304 				DEC	R4		;R4 = SIZE OF NUMERIC STRING
    427	001240					CALL	.ODCVT
    428	001244					RETURN
    429					;
    430					;+
    431					; CONVERT PROJECT OR PROGRAMMER NUMBER IN R1 TO 3 CHAR RAD50 NAME
    432					;	RETURNED IN R1
    433					; CALLING SEQUENCE:
    434					;	CALL	CDRNM
    435					; INPUTS:
    436					;	R0=STRING ADDRESS TO STORE CHARS IN (SCRATCH)
    437					;	R1=NUMBER TO CONVERT
    438					; OUTPUTS:
    439					;	C=0 IF CONVERTED, C=1 IF HIGH BYTE OF R1 NON ZERO
    440					;	R1=RAD50 CONVERSION OF NUMBER
    441					;	R0,R2 ALTERED
    442					;	R3-R5 PRESERVED
    443					;-
    444	001246	032701 	177400 		CDRNM:	BIT	#177400,R1
    445	001252	001402 				BEQ	20$		;BRANCH IF NO HIGH ORDER BITS SET
    446	001254	000261 				SEC
    447	001256					RETURN
    448	001260	010702 			20$:	MOV	PC,R2		;R2 NON 0, DON'T SUPPRESS LEAD 0'S
    449	001262					CALL	$CBOMG		;CONVERT BINARY TO OCTAL MAGNITUDE
    450	001266	162700 	000003 			SUB	#3,R0		;R0 POINTS AT LAST 3 CHARS
    451	001272					CALL	$CAT5		;CONVERT ASCII TO RAD50
    452	001276	000241 				CLC
PRSFND M0114, PARSE, FIND, ETC.	MACRO M1113  27-FEB-85 12:32  PAGE 14-1
USEFUL SUBROUTINES

    453	001300					RETURN
    454					;
    455					;+
    456					; CONVERT RAD50 NUMBER IN R1 TO BINARY VALUE IN R1
    457					; CALLING SEQUENCE:
    458					;	CALL	C5TB
    459					; INPUTS:
    460					;	R0=STRING ADDRESS (SCRATCH)
    461					;	R1=RAD50 VALUE TO CONVERT
    462					; OUTPUTS:
    463					;	R1=BINARY VALUE
    464					;	R0,R3-R5 PRESERVED
    465					;	R2 ALTERED
    466					;-
    467	001302	010046 			C5TB:	MOV	R0,-(SP)
    468	001304					CALL	$C5TA		;CONVERT RAD50 TO ASCII
    469	001310	105010 				CLRB	@R0
    470	001312	162700 	000003 			SUB	#3,R0
    471	001316					CALL	$COTB		;CONVERT OCTAL STRING TO BINARY
    472	001322	012600 				MOV	(SP)+,R0
    473	001324					RETURN
    474					;
    475					;
    476		000001 				.END
PRSFND M0114, PARSE, FIND, ETC.	MACRO M1113  27-FEB-85 12:32  PAGE 14-2
SYMBOL TABLE

CDRNM   001246R     002	IE.BDR= 177716   	IE.OFL= 177677   	IO.RNA= 005400   	N.WNM2= 000042
C5TB    001302R     002	IE.BDV= 177711   	IE.ONP= 177773   	IO.RTK= 000060   	PRSDIR  000766R     002
DIRTYP= 015172   	IE.BHD= 177700   	IE.OVR= 177756   	IO.RVB= 010400   	PRSUI1  001120R     002
FA.APD= 000100   	IE.BLK= 177754   	IE.PRI= 177760   	IO.UNL= 000042   	R$$DPB= 000001
FA.CRE= 000010   	IE.BNM= 177712   	IE.RAC= 177724   	IO.WAT= 013400   	R$$DYM= 000001
FA.EXT= 000004   	IE.BTF= 177675   	IE.RAT= 177723   	IO.WLB= 000400   	R$$EIS= 000000
FA.NSP= 000100   	IE.BTP= 177725   	IE.RBG= 177730   	IO.WVB= 011000   	R$$11M= 000001
FA.RD = 000001   	IE.BVR= 177701   	IE.RCN= 177722   	IQ.Q  = 000002   	R.FIX = 000001
FA.SHR= 000040   	IE.BYT= 177755   	IE.RER= 177740   	IQ.X  = 000001   	R.VAR = 000002
FA.TMP= 000020   	IE.CKS= 177742   	IE.RNM= 177715   	IS.BV = 000005   	SCNCVT  001174R     002
FA.WRT= 000002   	IE.CLO= 177732   	IE.RSU= 177757   	IS.CR = 006401   	S.APPD= 000010
FD.BLK= 000010   	IE.CON= 177752   	IE.SNC= 177735   	IS.ESC= 015401   	S.FIDS= 000014
FD.CCL= 000002   	IE.DAA= 177770   	IE.SPC= 177772   	IS.PND= 000000   	S.FNAM= 000006
FD.CR = 000002   	IE.DAO= 177763   	IE.SQC= 177734   	IS.RDD= 000002   	S.FNB = 000036
FD.DIR= 000010   	IE.DFU= 177750   	IE.SRE= 177762   	IS.SUC= 000001   	S.FNBW= 000017
FD.FTN= 000001   	IE.DNA= 177771   	IE.STK= 177706   	MFDNAM= 140116   	S.FNTY= 000004
FD.INS= 000010   	IE.DNR= 177775   	IE.VER= 177774   	NB.DEV= 000200   	S.FTYP= 000002
FD.PLC= 000004   	IE.DUN= 177767   	IE.WAC= 177743   	NB.DIR= 000100   	S.NFEN= 000020
FD.RAH= 000001   	IE.DUP= 177707   	IE.WAT= 177741   	NB.NAM= 000004   	S.WUIC= 000054
FD.RAN= 000002   	IE.EBX= 177776   	IE.WER= 177737   	NB.SDI= 001400   	TDRDEL= ****** GX
FD.REC= 000001   	IE.EOF= 177766   	IE.WLK= 177764   	NB.SD1= 000400   	TDRENT= ****** GX
FD.RWM= 000001   	IE.EOT= 177702   	IE.2DV= 177720   	NB.SD2= 001000   	TDRFDB= ****** GX
FD.SDI= 000020   	IE.EOV= 177765   	IO.ACE= 007400   	NB.SNM= 000040   	TDRINI= ****** GX
FD.SQD= 000040   	IE.EXP= 177676   	IO.ACR= 006400   	NB.STP= 000020   	$CAT5 = ****** GX
FD.TTY= 000004   	IE.FEX= 177717   	IO.ACW= 007000   	NB.SVR= 000010   	$CBOMG= ****** GX
FD.WBH= 000002   	IE.FHE= 177705   	IO.APC= 014000   	NB.TYP= 000002   	$COTB = ****** GX
FNDNX1  000166R     002	IE.FOP= 177713   	IO.APV= 014010   	NB.VER= 000001   	$C5TA = ****** GX
FNDNX2  000346R     002	IE.HFU= 177744   	IO.ATT= 001400   	N.DEVD= 000000   	$SAVAL= ****** GX
FNDNX3  000430R     002	IE.IFC= 177776   	IO.CLN= 003400   	N.DID = 000024   	$$    = 000067
FO.APD= 000106   	IE.IFU= 177747   	IO.CRE= 012000   	N.DIRD= 000004   	$$MSG = 000000
FO.MFY= 000002   	IE.ILL= 177726   	IO.DAC= 010000   	N.DVNM= 000032   	.FIND = ****** GX
FO.RD = 000001   	IE.ISQ= 177703   	IO.DEL= 012400   	N.FID = 000000   	.FNDNX  000152RG    002
FO.UPD= 000006   	IE.LCK= 177745   	IO.DET= 002000   	N.FLID= 000016   	.NXDIR  000432RG    002
FO.WRT= 000016   	IE.MBK= 177721   	IO.ENA= 006000   	N.FNAM= 000006   	.ODCVT= ****** GX
F.DFNB= ****** GX	IE.MOD= 177753   	IO.EXT= 011400   	N.FNMD= 000010   	.PARSE= ****** GX
F.DSPT= ****** GX	IE.NBF= 177731   	IO.FNA= 004400   	N.FTYP= 000014   	.PPASC= ****** GX
F.ERR = ****** GX	IE.NBK= 177727   	IO.KIL= 000012   	N.FVER= 000016   	.PRSUI  001114RG    002
IE.ABO= 177761   	IE.NFI= 177704   	IO.LOV= 001010   	N.NEXT= 000022   	.SAVR1= ****** GX
IE.ALN= 177736   	IE.NLN= 177733   	IO.LTK= 000050   	N.SPEC= 000014   	.WLDVC  000720RG    002
IE.BAD= 177777   	IE.NNC= 177674   	IO.RAT= 013000   	N.STAT= 000020   	.WPARS  000000RG    002
IE.BBE= 177710   	IE.NOD= 177751   	IO.RDN= 000022   	N.UNIT= 000034   	...GBL= 000000
IE.BDI= 177714   	IE.NSF= 177746   	IO.RLB= 001000   	N.WNM1= 000036   	...TPC= 000036

. ABS.	000000	   000
      	000000	   001
PURE$I	001326	   002
ERRORS DETECTED:  0

VIRTUAL MEMORY USED:  6405 WORDS  ( 26 PAGES)
DYNAMIC MEMORY:  7790 WORDS  ( 29 PAGES)
ELAPSED TIME:  00:00:24
[43,10]PRSFND,[43,20]PRSFND/-SP/CR=[43,30]PIPMAC,PRSFND
PRSFND     CREATED BY  MACRO  ON 27-FEB-85 AT 12:32	PAGE 1

SYMBOL CROSS REFERENCE                                  CREF

SYMBOL	VALUE		REFERENCES

CDRNM 	  001246 R	 13-334     13-334     13-344     13-344    #14-444
C5TB  	  001302 R	 11-247     11-247     11-250     11-250    #14-467
DIRTYP	= 015172	#7-45       8-83
FNDNX1	  000166 R	 10-120    #10-125
FNDNX2	  000346 R	 10-122    #10-164
FNDNX3	  000430 R	 10-145     10-164    #10-182
F.DFNB	= ******  GX	 10-175
F.DSPT	= ******  GX	 10-174
F.ERR 	= ******  GX	 8-73       10-147     10-152    *10-152     10-169    *11-271
IE.BDI	= 177714	 8-73
IE.DUP	= 177707	 10-147
IE.NSF	= 177746	 10-169     11-271
MFDNAM	= 140116	#7-46       11-220
NB.SDI	= 001400	#7-35       8-80       8-94       10-167     11-211
NB.SD1	= 000400	#7-33       7-35       11-225     13-340
NB.SD2	= 001000	#7-34       7-35       11-229     13-349
NB.SNM	= 000040	 8-70       12-289
NB.STP	= 000020	 12-289
NB.SVR	= 000010	 8-70       10-131     12-291
N.DEVD	= 000000	#7-31
N.DID 	= 000024	*8-85      *8-86      *8-87      *11-236    *11-237    *11-238    *11-267    *11-268    *11-269
N.DIRD	= 000004	#7-31       8-76      *11-258    *11-260     13-380     13-381
N.DVNM	= 000032	 8-88      *8-88
N.FID 	= 000000	 11-236     11-237     11-238     11-267     11-268     11-269
N.FLID	= 000016	#7-31
N.FNAM	= 000006	 11-220     11-222     11-227     11-231     11-246     11-249
N.FNMD	= 000010	#7-31
N.FTYP	= 000014	*8-83
N.FVER	= 000016	 10-129    *10-137    *10-162     12-293     12-295
N.NEXT	= 000022	*8-84       10-125     10-134    *10-136    *10-141    *10-156    *11-239
N.SPEC	= 000014	#7-31
N.STAT	= 000020	*8-70       8-80       8-93      *8-95       10-130    *10-131    *10-135    *10-142    *10-161
                         10-167     11-211     11-225     11-229     12-289     12-291    *13-340    *13-349
N.UNIT	= 000034	 8-89      *8-89
N.WNM1	= 000036	#7-39       7-41       11-227     11-231     13-327
N.WNM2	= 000042	#7-41       11-245     13-333     13-343
PRSDIR	  000766 R	 8-78       8-78      #13-324
PRSUI1	  001120 R	 13-328     13-328    #13-379
RONLY$	= ******	 8-50       8-50
R$$DPB	= 000001	#1-27
R$$DYM	= 000001	#1-29
R$$EIS	= 000000	#1-28       1-38
R$$11M	= 000001	#1-25       1-26       7-1
SCNCVT	  001174 R	 13-386     13-386     13-390     13-390    #14-412
SYS40$	= ******	 1-67       8-50       8-50
S.APPD	= 000010	#7-31
S.FIDS	= 000014	#7-31
S.FNB 	= 000036	 7-39       7-43
S.WUIC	= 000054	#7-43
TDRDEL	= ******  GX	 10-160     10-160
TDRENT	= ******  GX	 10-140     10-140
TDRFDB	= ******  GX	 10-147     10-152
PRSFND     CREATED BY  MACRO  ON 27-FEB-85 AT 12:32	PAGE 2

SYMBOL CROSS REFERENCE                                  CREF

SYMBOL	VALUE		REFERENCES

TDRINI	= ******  GX	 10-127     10-127
$CAT5 	= ******  GX	 14-451     14-451
$CBOMG	= ******  GX	 14-449     14-449
$COTB 	= ******  GX	 14-471     14-471
$C5TA 	= ******  GX	 14-468     14-468
$SAVAL	= ******  GX	 11-213     11-213     13-324     13-324
$$    	= 000067	#8-71       8-71      #8-78       8-78      #8-90       8-90      #8-92       8-92      #10-119
                         10-119    #10-121     10-121    #10-127     10-127    #10-132     10-132    #10-138     10-138
                        #10-140     10-140    #10-160     10-160    #10-176     10-176    #11-213     11-213    #11-216
                         11-216    #11-247     11-247    #11-250     11-250    #11-257     11-257    #13-324     13-324
                        #13-328     13-328    #13-334     13-334    #13-344     13-344    #13-386     13-386    #13-390
                         13-390    #14-427     14-427    #14-449     14-449    #14-451     14-451    #14-468     14-468
                        #14-471     14-471
.FIND 	= ******  GX	 10-121     10-121     10-132     10-132     10-138     10-138     11-216     11-216
.FNDNX	  000152 RG	#10-119     10-180
.NXDIR	  000432 RG	 8-90       8-90       10-176     10-176    #11-211
.ODCVT	= ******  GX	 14-427     14-427
.PARSE	= ******  GX	 8-71       8-71       8-92       8-92
.PPASC	= ******  GX	 11-257     11-257
.PRSUI	  001114 RG	#13-377
.SAVR1	= ******  GX	 13-378
.WLDVC	  000720 RG	 10-119     10-119    #12-289
.WPARS	  000000 RG	#8-70
PRSFND     CREATED BY  MACRO  ON 27-FEB-85 AT 12:32	PAGE 3

MACRO CROSS REFERENCE                                   CREF

MACRO NAME	REFERENCES

ASH   		#1-64
ASHC  		#1-64
CALL  		#7-28      #8-71      #8-78      #8-90      #8-92      #10-119    #10-121    #10-127    #10-132    #10-138
                #10-140    #10-160    #10-176    #11-213    #11-216    #11-247    #11-250    #11-257    #13-324    #13-328
                #13-334    #13-344    #13-386    #13-390    #14-427    #14-449    #14-451    #14-468    #14-471
DIV   		#1-64
ERRINI		#4-307
ERROUT		#3-215
ERROUX		#3-222
ERROU1		#3-225
ERRP  		#3-247
ERRPX 		#3-253
ERRP1 		#3-256
ERR1  		#3-273
FCSBT$		#7-28       7-30
FDAT$A		#7-28
FDBDF$		#7-28
FDOP$A		#7-28
FILIO$		#7-23      #7-26
FLDSOF		#5-382     #7-31      #7-31
IDENT 		#5-339     #7-1
IDENT1		#5-347      7-1
IDTITL		#5-356
ILLOP 		#1-52      #1-64       1-64
IMPURE		#1-75
IOERR$		#7-23       7-25
MARK  		#1-64
MSG   		#2-124
MSGZ  		#2-129
MSG1  		#2-133
MUL   		#1-64
NBOFF$		#7-24       7-24
NBOF$L		#7-23      #7-24
NOEIS$		#1-39       1-64
PURE. 		#1-84       8-50
PURE.D		#1-102
PURE.I		#1-98       8-50
RETURN		#7-28       8-96       8-98       10-182     11-270     11-273     12-298     12-300     13-351     13-354
                 13-391     13-394     14-417     14-423     14-428     14-447     14-453     14-473
RTT   		#1-64
SOB   		#1-64      #14-415
SXT   		#1-64
XOR   		#1-64
TMPDIR M0114, TEMPORARY DIRECTO	MACRO M1113  27-FEB-85 12:33
TABLE OF CONTENTS

     7-    1	**** TMPDIR VERSION M0114 ****
PIPMAC - MACROS FOR PIP, ETC.	MACRO M1113  27-FEB-85 12:33  PAGE 6


    397
TMPDIR M0114, TEMPORARY DIRECTO	MACRO M1113  27-FEB-85 12:33  PAGE 7


      1						.TITLE	TMPDIR M0114, TEMPORARY DIRECTORY LOGIC
						.SBTTL	**** TMPDIR VERSION M0114 ****
						.IDENT	/M0114/
      2					; ALTERED THURSDAY 22-AUG-74 14:05
      3					;
      4					; COPYRIGHT 1975, 1985, DIGITAL EQUIPMENT CORP., MAYNARD MASS.
      5					; COPYRIGHT 1974, DIGITAL EQUIPMENT CORP., MAYNARD MASS.
      6
      7					;			ALL RIGHTS RESERVED
      8					;
      9					; THIS SOFTWARE IS FURNISHED TO PURCHASER UNDER A LICENSE FOR USE
     10					; ON A SINGLE COMPUTER SYSTEM AND CAN BE COPIED (WITH INCLUSION
     11					; OF DEC'S COPYRIGHT NOTICE) ONLY FOR USE IN SUCH SYSTEM, EXCEPT
     12					; AS MAY OTHERWISE BE PROVIDED IN WRITING BY DEC.
     13
     14					; THE INFORMATION IN THIS DOCUMENT IS SUBJECT TO CHANGE WITHOUT
     15					; NOTICE AND SHOULD NOT BE CONSTRUED AS A COMMITMENT BY DIGITAL
     16					; EQUIPMENT CORPORATION.
     17
     18					; DEC ASSUMES NO RESPONSIBILITY FOR THE USE OR RELIABILITY
     19					; OF ITS SOFTWARE ON EQUIPMENT WHICH IS NOT SUPPLIED BY DEC.
     20					;
     21					; PETER H. LIPMAN 19-AUG-74
     22					;
     23						.MCALL	FILIO$
     24	000000					FILIO$			;DEFINE THE I/O FUNCTION CODES LOCALLY
     25					;
     26						.MCALL	CALL,RETURN,FDBDF$,FDAT$A,FDOP$A,FCSBT$
     27					;
     28	000000					FCSBT$	DEF$L
     29					;
     30		000006 				TDRLUN=6		;LUN FOR TEMP DIRECTORY FILE
     31		007004 				HA.UAT=S.FATT*400+4	;WRITE USER ATTRIBUTE CODE
     32					;
     33	000000					IMPURE
     34					;
     35	000000				TDRFDB::FDBDF$
     36	000140					FDAT$A	R.FIX,,S.NFEN
     37	000140					FDOP$A	TDRLUN,TDRNAM
     38					;
     39	000140					PURE.D
     40					;
     41	000000	007004 	000000'	000000 	ATTBLK:	.WORD	HA.UAT,TDRFDB,0
     42	000006	000003 	000022'	000000 	TDRNAM:	.WORD	TDRDVS,TDRDVN,0,0,0,0
	000014	000000 	000000 	000000
     43	000022	   123 	   131 	   060 	TDRDVN:	.ASCII	/SY0/
     44		000003 				TDRDVS=.-TDRDVN
     45						.EVEN
     46					;
     47	000026					PURE.I
     48					;
     49					; INIT THE TEMP DIRECTORY, DELETE THE OLD ONE AND CREATE A NEW ONE
     50					; RETURN C=0 IF SUCCESSFUL, C=1 IF ERROR
     51	000000				TDRINI::CALL	TDRDEL
     52	000004	103423 				BCS	20$
     53	000006					CALL	$SAVAL
     54
TMPDIR M0114, TEMPORARY DIRECTO	MACRO M1113  27-FEB-85 12:33  PAGE 7-1
**** TMPDIR VERSION M0114 ****

     55						.IF	EQ,R$$DPB
     56						MOV	#ATTBLK,-(SP)	;PUSH PARAMS TO CREATE QIO ONTO STACK
     57						CLR	-(SP)
     58						.IFF
     59	000012	005046 				CLR	-(SP)
     60	000014	012746 	000000'			MOV	#ATTBLK,-(SP)
     61						.ENDC
     62
     63	000020	012746 	000126'			MOV	#TDRFDB+F.FNB+N.DID,-(SP)
     64	000024	012700 	000000'			MOV	#TDRFDB,R0
     65	000030	012701 	012000 			MOV	#IO.CRE,R1
     66	000034	012702 	000003 			MOV	#3,R2
     67	000040	010603 				MOV	SP,R3
     68	000042					CALL	.XQIO		;CREATE THE FILE
     69	000046	012601 				MOV	(SP)+,R1	;CLEAN UP THE STACK, PRESERVING C BIT
     70	000050	012601 				MOV	(SP)+,R1
     71	000052	012601 				MOV	(SP)+,R1
     72	000054				20$:	RETURN
     73					;
     74					; DELETE THE TEMP DIRECTORY FILE IF IT EXISTS
     75					; AND INITIALIZE THE FDB IN PREPARATION FOR CREATING A NEW ONE
     76					; RETURNS C=0 IF SUCCESSFUL, C=1 IF FAILURE
     77
     78	000056				TDRDEL::
     79	000056					CALL	$SAVAL
     80	000062	012700 	000000'			MOV	#TDRFDB,R0
     81	000066	005760 	000126 			TST	F.FNB+N.DID(R0)	;IF DIRECTORY ID IS SET, DELETE THE FILE
     82	000072	001412 				BEQ	10$
     83					;
     84					; MARK THE FILE FOR DELETE
     85	000074	012746 	000126'			MOV	#TDRFDB+F.FNB+N.DID,-(SP)
     86	000100	012701 	012400 			MOV	#IO.DEL,R1
     87	000104	012702 	000001 			MOV	#1,R2
     88	000110	010603 				MOV	SP,R3
     89	000112					CALL	.XQIO
     90	000116	012601 				MOV	(SP)+,R1
     91	000120	006102 			10$:	ROL	R2		;SAVE THE CARRY BIT
     92	000122	005760 	000134 			TST	F.DVNM(R0)	;IS THE FDB INITED
     93	000126	001013 				BNE	20$		;IF DEVICE NAME IS SET, THEN YES
     94	000130	012760 	000001 	000012 		MOV	#1,F.EFBK+2(R0)
     95	000136	012701 	000102'			MOV	#TDRFDB+F.FNB,R1
     96	000142	012702 	000006'			MOV	#TDRNAM,R2
     97	000146	005003 				CLR	R3
     98	000150					CALL	.PRSDV
     99	000154	103403 				BCS	30$
    100	000156	005060 	000126 		20$:	CLR	F.FNB+N.DID(R0)
    101	000162	006002 				ROR	R2		;RESTOR CARRY BIT
    102	000164				30$:	RETURN
    103					;
    104					; ENTER FILE IN TEMP DIRECTORY
    105					; INPUTS:
    106					;	R1=FNB OF ENTRY TO MAKE
    107					; OUTPUTS:
    108					;	C=0 IF ENTER WAS SUCCESSFUL
    109					;	C=1 IF ERROR FROM ENTER
    110					;	ALL REGISTERS PRESERVED
    111					;-
TMPDIR M0114, TEMPORARY DIRECTO	MACRO M1113  27-FEB-85 12:33  PAGE 7-2
**** TMPDIR VERSION M0114 ****

    112	000166				TDRENT::CALL	$SAVAL
    113	000172	012702 	000102'			MOV	#TDRFDB+F.FNB,R2
    114	000176	012703 	000010 			MOV	#S.NFEN/2,R3
    115	000202	012122 			10$:	MOV	(R1)+,(R2)+
    116	000204					SOB	R3,10$
    117	000210	012700 	000000'			MOV	#TDRFDB,R0
    118	000214	012701 	000102'			MOV	#TDRFDB+F.FNB,R1
    119	000220					CALL	.ENTER
    120	000224					RETURN
    121					;
    122					;
    123					;
    124		000001 				.END
TMPDIR M0114, TEMPORARY DIRECTO	MACRO M1113  27-FEB-85 12:33  PAGE 7-3
SYMBOL TABLE

ATTBLK  000000R     003	F.BDB = 000070   	F.RATT= 000001   	IO.RLB= 001000   	R$$DYM= 000001
FA.APD= 000100   	F.BGBC= 000057   	F.RCNM= 000034   	IO.RNA= 005400   	R$$EIS= 000000
FA.CRE= 000010   	F.BKDN= 000026   	F.RCTL= 000017   	IO.RTK= 000060   	R$$11M= 000001
FA.EXT= 000004   	F.BKDS= 000020   	F.RSIZ= 000002   	IO.RVB= 010400   	R.FIX = 000001
FA.NSP= 000100   	F.BKEF= 000050   	F.RTYP= 000000   	IO.UNL= 000042   	R.VAR = 000002
FA.RD = 000001   	F.BKP1= 000051   	F.STBK= 000036   	IO.WAT= 013400   	S.FATT= 000016
FA.SHR= 000040   	F.BKST= 000024   	F.UNIT= 000136   	IO.WLB= 000400   	S.FDB = 000140
FA.TMP= 000020   	F.BKVB= 000064   	F.URBD= 000020   	IO.WVB= 011000   	S.FNAM= 000006
FA.WRT= 000002   	F.CNTG= 000034   	F.VBN = 000064   	IQ.Q  = 000002   	S.FNB = 000036
FD.BLK= 000010   	F.DFNB= 000046   	F.VBSZ= 000060   	IQ.X  = 000001   	S.FNBW= 000017
FD.CCL= 000002   	F.DSPT= 000044   	HA.UAT= 007004   	NB.DEV= 000200   	S.FNTY= 000004
FD.CR = 000002   	F.DVNM= 000134   	IO.ACE= 007400   	NB.DIR= 000100   	S.FTYP= 000002
FD.DIR= 000010   	F.EFBK= 000010   	IO.ACR= 006400   	NB.NAM= 000004   	S.NFEN= 000020
FD.FTN= 000001   	F.EFN = 000050   	IO.ACW= 007000   	NB.SD1= 000400   	TDRDEL  000056RG    004
FD.INS= 000010   	F.EOBB= 000032   	IO.APC= 014000   	NB.SD2= 001000   	TDRDVN  000022R     003
FD.PLC= 000004   	F.ERR = 000052   	IO.APV= 014010   	NB.SNM= 000040   	TDRDVS= 000003
FD.RAH= 000001   	F.FACC= 000043   	IO.ATT= 001400   	NB.STP= 000020   	TDRENT  000166RG    004
FD.RAN= 000002   	F.FFBY= 000014   	IO.CLN= 003400   	NB.SVR= 000010   	TDRFDB  000000RG    002
FD.REC= 000001   	F.FNAM= 000110   	IO.CRE= 012000   	NB.TYP= 000002   	TDRINI  000000RG    004
FD.RWM= 000001   	F.FNB = 000102   	IO.DAC= 010000   	NB.VER= 000001   	TDRLUN= 000006
FD.SDI= 000020   	F.FTYP= 000116   	IO.DEL= 012400   	N.DID = 000024   	TDRNAM  000006R     003
FD.SQD= 000040   	F.FVER= 000120   	IO.DET= 002000   	N.DVNM= 000032   	$SAVAL= ****** GX
FD.TTY= 000004   	F.HIBK= 000004   	IO.ENA= 006000   	N.FID = 000000   	$$    = 000067
FD.WBH= 000002   	F.LUN = 000042   	IO.EXT= 011400   	N.FNAM= 000006   	.ENTER= ****** GX
FO.APD= 000106   	F.MBCT= 000054   	IO.FNA= 004400   	N.FTYP= 000014   	.PRSDV= ****** GX
FO.MFY= 000002   	F.MBC1= 000055   	IO.KIL= 000012   	N.FVER= 000016   	.XQIO = ****** GX
FO.RD = 000001   	F.MBFG= 000056   	IO.LOV= 001010   	N.NEXT= 000022   	...GBL= 000000
FO.UPD= 000006   	F.NRBD= 000024   	IO.LTK= 000050   	N.STAT= 000020   	...PC1= 000000R     002
FO.WRT= 000016   	F.NREC= 000030   	IO.RAT= 013000   	N.UNIT= 000034   	...PC2= 000140R     002
F.ALOC= 000040   	F.OVBS= 000030   	IO.RDN= 000022   	R$$DPB= 000001   	...TPC= 000140
F.BBFS= 000062   	F.RACC= 000016

. ABS.	000000	   000
      	000000	   001
IMPURE	000140	   002
PURE$D	000026	   003
PURE$I	000226	   004
ERRORS DETECTED:  0

VIRTUAL MEMORY USED:  4494 WORDS  ( 18 PAGES)
DYNAMIC MEMORY:  5678 WORDS  ( 21 PAGES)
ELAPSED TIME:  00:00:20
[43,10]TMPDIR,[43,20]TMPDIR/-SP/CR=[43,30]PIPMAC,TMPDIR
TMPDIR     CREATED BY  MACRO  ON 27-FEB-85 AT 12:33	PAGE 1

SYMBOL CROSS REFERENCE                                  CREF

SYMBOL	VALUE		REFERENCES

ATTBLK	  000000 R	#7-41       7-60
F.DSPT	= 000044	 7-37
F.DVNM	= 000134	 7-92
F.EFBK	= 000010	*7-94
F.FNB 	= 000102	 7-63       7-81       7-85       7-95      *7-100      7-113      7-118
F.LUN 	= 000042	 7-37
F.RSIZ	= 000002	 7-36
F.RTYP	= 000000	 7-36
HA.UAT	= 007004	#7-31       7-41
IO.CRE	= 012000	 7-65
IO.DEL	= 012400	 7-86
N.DID 	= 000024	 7-63       7-81       7-85      *7-100
RONLY$	= ******	 7-39       7-39       7-47       7-47
R$$DPB	= 000001	#1-27       7-55
R$$DYM	= 000001	#1-29
R$$EIS	= 000000	#1-28       1-38
R$$11M	= 000001	#1-25       1-26       7-1
R.FIX 	= 000001	 7-36
SYS40$	= ******	 1-67       7-33       7-33       7-39       7-39       7-47       7-47
S.FATT	= 000016	 7-31
S.FDB 	= 000140	 7-35       7-35
S.NFEN	= 000020	 7-36       7-114
TDRDEL	  000056 RG	 7-51       7-51      #7-78
TDRDVN	  000022 R	 7-42      #7-43       7-44
TDRDVS	= 000003	 7-42      #7-44
TDRENT	  000166 RG	#7-112
TDRFDB	  000000 RG	#7-35       7-41       7-63       7-64       7-80       7-85       7-95       7-113      7-117
                         7-118
TDRINI	  000000 RG	#7-51
TDRLUN	= 000006	#7-30       7-37
TDRNAM	  000006 R	 7-37      #7-42       7-96
$SAVAL	= ******  GX	 7-53       7-53       7-79       7-79       7-112      7-112
$$    	= 000067	#7-51       7-51      #7-53       7-53      #7-68       7-68      #7-79       7-79      #7-89
                         7-89      #7-98       7-98      #7-112      7-112     #7-119      7-119
.ENTER	= ******  GX	 7-119      7-119
.PRSDV	= ******  GX	 7-98       7-98
.XQIO 	= ******  GX	 7-68       7-68       7-89       7-89
...PC1	= 000000 R	#7-35       7-36       7-36       7-37       7-37
...PC2	= 000140 R	#7-36       7-36      #7-36       7-36      #7-37       7-37      #7-37       7-37
TMPDIR     CREATED BY  MACRO  ON 27-FEB-85 AT 12:33	PAGE 2

MACRO CROSS REFERENCE                                   CREF

MACRO NAME	REFERENCES

ASH   		#1-64
ASHC  		#1-64
CALL  		#7-26      #7-51      #7-53      #7-68      #7-79      #7-89      #7-98      #7-112     #7-119
CBYTE$		#7-36       7-36       7-36      #7-37       7-37       7-37
CWORD$		#7-36      #7-36      #7-36      #7-36      #7-37      #7-37      #7-37
DIV   		#1-64
ERRINI		#4-307
ERROUT		#3-215
ERROUX		#3-222
ERROU1		#3-225
ERRP  		#3-247
ERRPX 		#3-253
ERRP1 		#3-256
ERR1  		#3-273
FCSBT$		#7-26      #7-28
FDAT$A		#7-26      #7-36
FDBDF$		#7-26       7-35
FDBSZ$		#7-35      #7-35
FDOFF$		#7-36       7-36      #7-37       7-37
FDOP$A		#7-26      #7-37
FILIO$		#7-23       7-24
FLDSOF		#5-382
IDENT 		#5-339     #7-1
IDENT1		#5-347      7-1
IDTITL		#5-356
ILLOP 		#1-52      #1-64       1-64
IMPURE		#1-75      #7-33
MARK  		#1-64
MSG   		#2-124
MSGZ  		#2-129
MSG1  		#2-133
MUL   		#1-64
NOEIS$		#1-39       1-64
PURE. 		#1-84       7-39       7-47
PURE.D		#1-102      7-39
PURE.I		#1-98       7-47
RETURN		#7-26      #7-72      #7-102     #7-120
RTT   		#1-64
SOB   		#1-64      #7-116
SXT   		#1-64
XOR   		#1-64
