RSXTOPS10  CREATED BY  MACRO  ON 16-MAY-88 AT 15:48	PAGE 1

SYMBOL CROSS REFERENCE                                  CREF   04.00

SYMBOL	VALUE		REFERENCES

ABCHAR	  011364 RG	#41-1734   *214-11623
ACKNOW	  026344 RG	 148-8400  #155-8556
ADRSAV	  005604 RG	#33-1104
AF.PP 	= 000200  G	#53-2464
ASXCMN	  014210 R	 70-3265    70-3270    70-3275    70-3280   #70-3291
ASXDT 	  014064 R	 69-3222   #69-3224
ASXEXT	  014400 R	 69-3253   #73-3342
ASXE1 	  014040 RG	 42-1769   #69-3209    74-3438    75-3623
ASXE2 	  014054 R	 67-3156   #69-3221    71-3303    73-3423
ASXLRF	  014224 R	 69-3235   #71-3299    72-3312
ASXLRQ	  014262 R	 69-3231   #72-3309
ASXSCN	  014052 R	#69-3220    69-3233    69-3239    70-3291    72-3310
ASXTE 	  014672 R	 69-3237    70-3294    72-3337   #74-3434
ASXWR0	  014112 R	 69-3243   #70-3264
ASXWR1	  014122 R	 69-3245   #70-3269
ASXWR2	  014132 R	 69-3247   #70-3274
ASXWR3	  014142 R	 69-3249   #70-3279
ASXWR4	  014152 R	 69-3251   #70-3284
A.EF  	= 000020  G	 15-836    #53-2433    70-3264    70-3269    70-3284    70-3286   *72-3309    72-3329   *76-3715
                        *76-3767   *76-3771   *81-4053    113-5987   113-5988  *124-6853  *147-8358  *179-9625   193-10662
                        *193-10663 *210-11290 *217-11869 *218-11911 *224-12290 *231-12603  255-13968  258-14095 *258-14101
                        *260-14206 *260-14261  261-14319
A.FB  	= 000015  G	#53-2431
A.FM  	= 000024  G	*43-1840   #53-2435    70-3264    70-3269    70-3274    70-3279    70-3284    70-3286    70-3288
                         70-3290   *71-3299    72-3311   *76-3752   *114-6054   115-6120  *115-6146  *122-6499   260-14256
A.HA  	= 000012  G	#53-2429    72-3314    74-3451    74-3466    78-3887    139-7852   288-15976
A.PD  	= 000006  G	 43-1843   #53-2427    71-3302    73-3348    139-7851   141-7974
A.PF  	= 000034  G	#53-2439   *76-3715   *135-7585   135-7588
A.RP  	= 000010  G	#53-2428    124-6722   139-7861
A.SP  	= 000004  G	#53-2425   *72-3334   *74-3464    74-3465    79-3941
A.SZ  	= 000036  G	#53-2441
A.TD  	= 000016  G	 43-1829   #53-2432    67-2920    67-3088    72-3335    73-3347    124-6782   127-7080   127-7106
                         131-7330   133-7494   139-7850
A.TS  	= 000014  G	*43-1841   #53-2430    69-3221   *70-3293   *71-3300   *72-3313   *114-6055  *115-6133  *115-6145
                        *122-6498   127-7108  *127-7110
BC.AKA	= 000025  G	#146-8297   195-10721
BC.BTP	= 000024  G	#146-8296   162-8786
BC.BTW	= 000035  G	#146-8305
BC.DEB	= 000036  G	#146-8306
BC.DES	= 000010  G	#146-8284
BC.EDR	= 000027  G	#146-8299
BC.FNM	= 000041  G	#146-8309   179-9640
BC.FOD	= 000013  G	#146-8287
BC.HAD	= 000002  G	#146-8278   162-8756
BC.HDS	= 000007  G	#146-8283   258-14090
BC.HSN	= 000040  G	#146-8308   162-8778
BC.HTD	= 000012  G	#146-8286
BC.LDR	= 000030  G	#146-8300
BC.LDV	= 000031  G	#146-8301
BC.LNC	= 000004  G	#146-8280   275-15053
BC.NDM	= 000037  G	#146-8307
BC.NSA	= 000032  G	#146-8302
RSXTOPS10  CREATED BY  MACRO  ON 16-MAY-88 AT 15:48	PAGE 2

SYMBOL CROSS REFERENCE                                  CREF   04.00

SYMBOL	VALUE		REFERENCES

BC.RDS	= 000005  G	#146-8281
BC.RQD	= 000001  G	#146-8277
BC.RTD	= 000011  G	#146-8285
BC.SAK	= 000017  G	#146-8291   175-9331   276-15088
BC.SDS	= 000006  G	#146-8282
BC.SKP	= 000033  G	#146-8303   162-8768
BC.SLA	= 000023  G	#146-8295   195-10717
BC.SNA	= 000014  G	#146-8288
BC.SPT	= 000026  G	#146-8298
BC.STR	= 000003  G	#146-8279
BC.STS	= 000022  G	#146-8294
BC.TDU	= 000015  G	#146-8289   227-12469
BC.THU	= 000016  G	#146-8290   227-12475
BC.XEN	= 000034  G	#146-8304
BC.XOF	= 000020  G	#146-8292
BC.XON	= 000021  G	#146-8293
BELADR	  037206 RG	 215-11733 #215-11741
BITTBL	  044250 RG	 206-11123  215-11738 #254-13887  255-13960  261-14321
BIT0  	= 000001	#7-288      41-1699   #48-2204   #80-4024   #82-4348   #86-4617   #145-8240  #176-9383  #190-10386
                         190-10511 #253-13880
BIT1  	= 000002	#7-288      41-1700    41-1732   #48-2204   #80-4024   #82-4348   #86-4617   #145-8240  #176-9383
                        #190-10386  190-10510 #253-13880
BIT10 	= 002000	#7-288     #48-2204   #80-4024   #82-4348   #86-4617   #145-8240  #176-9383  #190-10386  190-10482
                         190-10504 #253-13880
BIT11 	= 004000	#7-288     #48-2204   #80-4024   #82-4348   #86-4617   #145-8240  #176-9383  #190-10386  190-10481
                         190-10503 #253-13880
BIT12 	= 010000	#7-288     #48-2204   #80-4024   #82-4348   #86-4617   #145-8240  #176-9383  #190-10386  190-10480
                         190-10502 #253-13880
BIT13 	= 020000	#7-288     #48-2204   #80-4024   #82-4348   #86-4617   #145-8240  #176-9383  #190-10386  190-10479
                         190-10501  190-10516  190-10524 #253-13880
BIT14 	= 040000	#7-288     #48-2204   #80-4024   #82-4348   #86-4617   #145-8240   157-8623  #176-9383  #190-10386
                         190-10478  190-10500 #253-13880
BIT15 	= 100000	#7-288     #48-2204   #80-4024    81-4053   #82-4348   #86-4617   #145-8240   162-8778  #176-9383
                        #190-10386  190-10477  190-10499 #253-13880  258-14090
BIT2  	= 000004	#7-288      41-1701   #48-2204   #80-4024   #82-4348   #86-4617   #145-8240  #176-9383  #190-10386
                         190-10509 #253-13880
BIT3  	= 000010	#7-288      41-1702   #48-2204   #80-4024   #82-4348   #86-4617   #145-8240  #176-9383  #190-10386
                         190-10508 #253-13880
BIT4  	= 000020	#7-288      41-1703   #48-2204   #80-4024   #82-4348   #86-4617   #145-8240  #176-9383  #190-10386
                         190-10512 #253-13880
BIT5  	= 000040	#7-288      41-1704   #48-2204   #80-4024   #82-4348   #86-4617   #145-8240  #176-9383  #190-10386
                         190-10507 #253-13880
BIT6  	= 000100	#7-288     #48-2204   #80-4024   #82-4348   #86-4617   #145-8240  #176-9383  #190-10386  190-10506
                         190-10520 #253-13880
BIT7  	= 000200	#7-288     #48-2204   #80-4024   #82-4348   #86-4617   #145-8240  #176-9383  #190-10386  190-10505
                        #253-13880
BIT8  	= 000400	#7-288     #48-2204   #80-4024   #82-4348   #86-4617   #145-8240  #176-9383  #190-10386  190-10484
                         190-10512 #253-13880
BIT9  	= 001000	#7-288     #48-2204   #80-4024   #82-4348   #86-4617   #145-8240  #176-9383  #190-10386  190-10483
                         190-10484  190-10512 #253-13880
BLDPKT	  044130 R	 247-13670  247-13670 #248-13713
BLKTT 	  005654 RG	#33-1121
RSXTOPS10  CREATED BY  MACRO  ON 16-MAY-88 AT 15:48	PAGE 3

SYMBOL CROSS REFERENCE                                  CREF   04.00

SYMBOL	VALUE		REFERENCES

BLXCOM	  050330 R	 287-15872 #287-15878
BLXPLP	  050360 R	 287-15901 #287-15912  287-15914
BLXRTN	  050370 R	#287-15922
BPARER	= 000020	#7-288     #48-2204   #80-4024   #82-4348   #86-4617   #145-8240  #176-9383  #190-10386 #253-13880
                         280-15428
BPTTRP	  012032 R	 43-1860   #43-1881
BTPHD 	  016262 RG	 36-1386    37-1454    38-1494   #81-4047
BTPRO 	  016562 R	 81-4048    81-4048   #81-4050    81-4095    81-4171    81-4291
BTWCHR	  026702 RG	 148-8414  #159-8670
BYCNT 	  002734 RG	#18-928    *198-10862  200-10899  210-11273 *210-11275
BYTESA	  005606 RG	#33-1106
CDBA  	= 177164  G	#34-1138
CDCC  	= 177162  G	#34-1137
CDD   	= 000020	#7-288     #48-2204   #80-4024   #82-4348   #86-4617   #145-8240  #176-9383  #190-10386 #253-13880
CDDB  	= 177166  G	#34-1139    34-1153
CDRTPD	  007722 RG	 36-1379    37-1423   #38-1489
CDST  	= 177160  G	#34-1136    34-1153    34-1169
CDTSK 	  007342 RG	 37-1416   #37-1422    37-1424
CESCHK	  022166 R	 97-5152    97-5152    97-5184    97-5184    97-5192    97-5192   #101-5334
CH    	= 063400  G	#66-2883    66-2883    66-2883   #66-2883    66-2883    66-2883   #66-2883    66-2883    66-2883
                        #66-2883    66-2883    66-2883   #66-2883    66-2883    66-2883   #66-2883    66-2883    66-2883
                        #66-2883    66-2883    66-2883   #66-2883    66-2883    66-2883   #66-2883   #66-2883    66-2883
                         66-2883   #66-2883    66-2883    66-2883   #66-2883    66-2883    66-2883   #66-2883    66-2883
                         66-2883   #66-2883    66-2883    66-2883   #66-2883    66-2883    66-2883   #66-2883    66-2883
                         66-2883   #66-2883    66-2883    66-2883   #66-2883   #66-2883    66-2883    66-2883   #66-2883
                         66-2883    66-2883   #66-2883    66-2883    66-2883   #66-2883    66-2883    66-2883   #66-2883
                         66-2883    66-2883   #66-2883    66-2883    66-2883   #66-2883    66-2883    66-2883   #66-2883
                         66-2883    66-2883   #66-2883   #66-2883    66-2883    66-2883   #66-2883    66-2883    66-2883
                        #66-2883    66-2883    66-2883   #66-2883    66-2883    66-2883   #66-2883    66-2883    66-2883
                        #66-2883    66-2883    66-2883   #66-2883    66-2883    66-2883   #66-2883    66-2883    66-2883
                        #66-2883   #66-2883    66-2883    66-2883   #66-2883    66-2883    66-2883   #66-2883    66-2883
                         66-2883   #66-2883    66-2883    66-2883   #66-2883    66-2883    66-2883   #66-2883    66-2883
                         66-2883   #66-2883    66-2883    66-2883   #66-2883    66-2883    66-2883   #66-2883   #66-2883
                         66-2883    66-2883   #66-2883    66-2883    66-2883   #66-2883    66-2883    66-2883   #66-2883
                         66-2883    66-2883   #66-2883    66-2883    66-2883   #66-2883    66-2883    66-2883   #66-2883
                         66-2883    66-2883   #66-2883    66-2883    66-2883   #66-2883   #66-2883    66-2883    66-2883
                        #66-2883    66-2883    66-2883   #66-2883    66-2883    66-2883   #66-2883    66-2883    66-2883
                        #66-2883    66-2883    66-2883   #66-2883    66-2883    66-2883   #66-2883    66-2883    66-2883
                        #66-2883    66-2883    66-2883   #66-2883   #66-2883    66-2883    66-2883   #66-2883    66-2883
                         66-2883   #66-2883    66-2883    66-2883   #66-2883    66-2883    66-2883   #66-2883    66-2883
                         66-2883   #66-2883    66-2883    66-2883   #66-2883    66-2883    66-2883   #66-2883    66-2883
                         66-2883   #66-2883   #66-2883    66-2883    66-2883   #66-2883    66-2883    66-2883   #66-2883
                         66-2883    66-2883   #66-2883    66-2883    66-2883   #66-2883    66-2883    66-2883   #66-2883
                         66-2883    66-2883   #66-2883    66-2883    66-2883   #66-2883    66-2883    66-2883   #66-2883
                        #66-2883    66-2883    66-2883   #66-2883    66-2883    66-2883   #66-2883    66-2883    66-2883
                        #66-2883    66-2883    66-2883   #66-2883    66-2883    66-2883   #66-2883    66-2883    66-2883
                        #66-2883    66-2883    66-2883   #66-2883    66-2883    66-2883   #66-2883   #66-2883    66-2883
                         66-2883   #66-2883    66-2883    66-2883   #66-2883    66-2883    66-2883   #66-2883    66-2883
                         66-2883   #66-2883    66-2883    66-2883   #66-2883    66-2883    66-2883   #66-2883    66-2883
                         66-2883   #66-2883    66-2883    66-2883   #66-2883   #66-2883    66-2883    66-2883   #66-2883
                         66-2883    66-2883   #66-2883    66-2883    66-2883   #66-2883    66-2883    66-2883   #66-2883
                         66-2883    66-2883   #66-2883    66-2883    66-2883   #66-2883    66-2883    66-2883   #66-2883
RSXTOPS10  CREATED BY  MACRO  ON 16-MAY-88 AT 15:48	PAGE 4

SYMBOL CROSS REFERENCE                                  CREF   04.00

SYMBOL	VALUE		REFERENCES

                         66-2883    66-2883   #66-2883   #66-2883    66-2883    66-2883   #66-2883    66-2883    66-2883
                        #66-2883    66-2883    66-2883   #66-2883    66-2883    66-2883   #66-2883    66-2883    66-2883
                        #66-2883    66-2883    66-2883   #66-2883    66-2883    66-2883   #66-2883    66-2883    66-2883
                        #66-2883   #66-2883    66-2883    66-2883   #66-2883    66-2883    66-2883   #66-2883    66-2883
                         66-2883   #66-2883    66-2883    66-2883   #66-2883    66-2883    66-2883   #66-2883    66-2883
                         66-2883   #66-2883    66-2883    66-2883   #66-2883    66-2883    66-2883   #66-2883   #66-2883
                         66-2883    66-2883   #66-2883    66-2883    66-2883   #66-2883    66-2883    66-2883   #66-2883
                         66-2883    66-2883   #66-2883    66-2883    66-2883   #66-2883    66-2883    66-2883   #66-2883
                         66-2883    66-2883   #66-2883    66-2883    66-2883   #66-2883   #66-2883    66-2883    66-2883
                        #66-2883    66-2883    66-2883   #66-2883    66-2883    66-2883   #66-2883    66-2883    66-2883
                        #66-2883    66-2883    66-2883   #66-2883    66-2883    66-2883   #66-2883    66-2883    66-2883
                        #66-2883    66-2883    66-2883   #66-2883   #66-2883    66-2883    66-2883   #66-2883    66-2883
                         66-2883   #66-2883    66-2883    66-2883   #66-2883    66-2883    66-2883   #66-2883    66-2883
                         66-2883   #66-2883    66-2883    66-2883   #66-2883    66-2883    66-2883   #66-2883    66-2883
                         66-2883   #66-2883   #66-2883    66-2883    66-2883   #66-2883    66-2883    66-2883   #66-2883
                         66-2883    66-2883   #66-2883    66-2883    66-2883   #66-2883    66-2883    66-2883   #66-2883
                         66-2883    66-2883   #66-2883    66-2883    66-2883   #66-2883    66-2883    66-2883   #66-2883
                        #66-2883    66-2883    66-2883   #66-2883    66-2883    66-2883   #66-2883    66-2883    66-2883
                        #66-2883    66-2883    66-2883   #66-2883    66-2883    66-2883   #66-2883    66-2883    66-2883
                        #66-2883    66-2883    66-2883   #66-2883    66-2883    66-2883   #66-2883   #66-2883    66-2883
                         66-2883   #66-2883    66-2883    66-2883   #66-2883    66-2883    66-2883   #66-2883    66-2883
                         66-2883   #66-2883    66-2883    66-2883   #66-2883    66-2883    66-2883   #66-2883    66-2883
                         66-2883   #66-2883    66-2883    66-2883   #66-2883   #66-2883    66-2883    66-2883   #66-2883
                         66-2883    66-2883   #66-2883    66-2883    66-2883   #66-2883    66-2883    66-2883   #66-2883
                         66-2883    66-2883   #66-2883    66-2883    66-2883   #66-2883    66-2883    66-2883   #66-2883
                         66-2883    66-2883   #66-2883   #66-2883    66-2883    66-2883   #66-2883    66-2883    66-2883
                        #66-2883    66-2883    66-2883   #66-2883    66-2883    66-2883   #66-2883    66-2883    66-2883
                        #66-2883    66-2883    66-2883   #66-2883    66-2883    66-2883   #66-2883    66-2883    66-2883
                        #66-2883   #66-2883    66-2883    66-2883   #66-2883    66-2883    66-2883   #66-2883    66-2883
                         66-2883   #66-2883    66-2883    66-2883   #66-2883    66-2883    66-2883   #66-2883    66-2883
                         66-2883   #66-2883    66-2883    66-2883   #66-2883    66-2883    66-2883   #66-2883   #66-2883
                         66-2883    66-2883   #66-2883    66-2883    66-2883   #66-2883    66-2883    66-2883   #66-2883
                         66-2883    66-2883   #66-2883    66-2883    66-2883   #66-2883    66-2883    66-2883   #66-2883
                         66-2883    66-2883   #66-2883    66-2883    66-2883   #66-2883   #66-2883    66-2883    66-2883
                        #66-2883    66-2883    66-2883   #66-2883    66-2883    66-2883   #66-2883    66-2883    66-2883
                        #66-2883    66-2883    66-2883   #66-2883    66-2883    66-2883   #66-2883    66-2883    66-2883
                        #66-2883    66-2883    66-2883   #66-2883
CHNPNT	= 000001	#7-288     #48-2204   #80-4024   #82-4348   #86-4617   #145-8240  #176-9383  #190-10386 #253-13880
CH.FOR	= 000100  G	#57-2613
CH.LAB	= 000001  G	#57-2617
CH.NAT	= 000020  G	#57-2615
CH.NDC	= 000010  G	#57-2616
CH.OFF	= 000200  G	#57-2612
CH.UNL	= 000040  G	#57-2614
CKDLEN	  041664 R	 232-12658  232-12658  232-12670  232-12670 #232-12713
CLRDEB	  027600 RG	 148-8416  #169-8957
CMEDP 	  021544 R	#91-4928    92-4976
CMNABO	  011664 RG	 43-1831    43-1834   #43-1838    67-3043
CMNABT	  013572 R	 67-2927   #67-3042    67-3094
CMSG  	  012366 R	 44-1913    44-1925   #44-1995
CNT   	  002732 RG	#18-926    *198-10863  219-12040
CNUPE 	= 000002	#7-288     #48-2204   #80-4024   #82-4348   #86-4617   #145-8240  #176-9383  #190-10386 #253-13880
RSXTOPS10  CREATED BY  MACRO  ON 16-MAY-88 AT 15:48	PAGE 5

SYMBOL CROSS REFERENCE                                  CREF   04.00

SYMBOL	VALUE		REFERENCES

COMBSE	  001236 RG	#11-635    *90-4803    90-4866
COMTRP	  011562 R	 8-347      8-349      8-351      8-353     #43-1814
COPBUF	  030120 RG	 66-2847    66-2847    170-9033   170-9033  #171-9131   273-14873  273-14873
CPUERR	  021102 R	 87-4668   #87-4694
CPUNUM	= 000002	#7-288     #48-2204   #80-4024   #82-4348   #86-4617    90-4815   #145-8240  #176-9383  #190-10386
                        #253-13880
CPYRGT	  011374 RG	#41-1742
CRADR 	  002736 RG	#18-930    *198-10864  199-10883  200-10898  200-10900  210-11277 *210-11279 *210-11288 *212-11443
                        *212-11455
CRBFLN	= 000240  G	#34-1160
CRBUFF	  005762 RG	#34-1158    34-1160
CRBUFH	  005760 RG	#34-1156
CRCEVF	  005732 RG	 34-1142   #34-1143
CREVFG	  005730 RG	#34-1141
CREXP 	= 006226 RG	#34-1168
CRHD  	= ******  GX	 36-1379    37-1423    38-1490
CRHUNG	  005734 RG	#34-1145
CRJT  	= 001000	#190-10412  200-10901  212-11379  212-11388  212-11399
CROBAR	  001034 RG	#9-496     *83-4422   *84-4447
CRSIZE	= 000010  G	#34-1174
CRSTB 	  011744 R	 43-1854   #43-1857
CRSTBH	  005740 RG	#34-1150
CRSTBK	  005742 RG	#34-1152    34-1154
CRSTK 	= ******  GX	 37-1423
CRSTLN	= 000016  G	#34-1154
CRSTS 	= 006230 RG	#34-1170
CRTBL 	  006224 RG	#34-1165    34-1174    39-1550
CRTHD 	= 006224 RG	#34-1166
CRTNXA	  015120 R	 75-3580   #75-3589
CRTNX1	  015112 R	 75-3583   #75-3586
CRTNX2	  015120 R	#75-3595
CRTNX3	  015122 R	 75-3587   #75-3610    75-3641
CRTY  	= 002000	#190-10411  200-10897  201-10918  201-10924  210-11284
CR$BO5	= 044176 RG	#248-13729
CR$B03	= 047372 RG	#279-15297
CR$CBR	= 020344 RG	#84-4449
CR$DTB	= 031114 RG	#179-9608
CR$DTD	= 012020 RG	#43-1876
CR$DTF	= 030600 RG	#178-9495
CR$ETE	= 030512 RG	#177-9443
CR$FTA	= 011722 RG	#43-1845
CR$IAS	= 015272 RG	#75-3653
CR$ILF	= 026036 RG	#149-8428
CR$ILQ	= 031570 RG	#180-9794
CR$LRF	= 014256 RG	#71-3304
CR$MPE	= 012064 RG	#43-1893
CR$PT1	= 031206 RG	#179-9637
CR$PT2	= 031224 RG	#179-9642
CR$PT3	= 031534 RG	#180-9774
CR$PT4	= 031640 RG	#180-9805
CR$RES	= 012026 RG	#43-1879
CR$TBT	= 012034 RG	#43-1882
RSXTOPS10  CREATED BY  MACRO  ON 16-MAY-88 AT 15:48	PAGE 6

SYMBOL CROSS REFERENCE                                  CREF   04.00

SYMBOL	VALUE		REFERENCES

CR$TET	= 030474 RG	#177-9437
CR$T04	= 011776 RG	#43-1869
CR$UIE	= 031446 RG	#180-9737
CSDONE	  015042 R	 74-3435   #74-3525
CS.EXP	= 177670	#7-288     #48-2204   #80-4024   #82-4348   #86-4617   #145-8240  #176-9383  #190-10386 #253-13880
CTLO  	= 000040	#190-10414  198-10869  201-10916  212-11404  219-11960  219-11961
CTRLC 	  033044 R	#191-10549  219-12067
CTRLU 	  033050 R	#191-10551  219-12038
CTRLZ 	  033054 R	#191-10553  219-12058
CTYPTR	  002642 RG	#17-886     162-8757   198-10846  198-10865  209-11212  209-11219  210-11242  210-11260  217-11859
                         219-11954
CTYSTS	  002672 RG	#18-922     198-10866  210-11261 *212-11422  212-11427  212-11442  219-11955
CURBF 	= 000006	#190-10398 *200-10898  219-12002 *219-12003 *219-12006  219-12018 *219-12020  219-12021 *219-12041
C.AS  	= 000002  G	#54-2478
C.AT  	= 000000  G	#54-2477    120-6407
C.FA  	= 000012  G	#54-2482
C.FM  	= 000010  G	#54-2481
C.HALT	= 000033  G	#190-10537
C.HCRT	= 000015  G	#190-10532  210-11283  212-11355  219-11989
C.HEOF	= 000032  G	#190-10535  219-11987
C.HESC	= 000033  G	#190-10536  190-10537  219-11985
C.HFFD	= 000014  G	#190-10531
C.HLFD	= 000012  G	#190-10529  211-11325  212-11358
C.HPAR	= 000200  G	#190-10539  250-13786
C.HSPC	= 000040  G	#190-10538
C.HTAB	= 000011  G	#190-10528  212-11360
C.HVTB	= 000013  G	#190-10530
C.HXOF	= 000023  G	#190-10534  217-11842  250-13786
C.HXON	= 000021  G	#190-10533  217-11838  250-13781
C.RS  	= 000006  G	#54-2480
C.SD  	= 000004  G	#54-2479
C.SZ  	= 000014  G	#15-828     15-837    #54-2484    118-6309   120-6418   143-8112   256-14002
C1    	= 140010	#40-1591    40-1641    40-1645    40-1670
C1DB  	= 140110	#40-1593    40-1597    40-1603    40-1608    40-1613    40-1618    40-1623    40-1628    40-1633
DAG1  	= 000030	#3-129      81-4082    81-4132   *97-5157    97-5160    97-5173   *97-5202   *100-5313   100-5317
                        *101-5335   101-5336  *280-15408  280-15411 *280-15454  280-15457
DAG2  	= 000032	#3-128     *84-4455   *101-5338  *280-15445
DAG3  	= 000036	#3-126     *178-9554  *184-10037
DBLDON	  031652 R	 180-9755   180-9790  #180-9811
DBLEPP	  031452 R	 180-9725  #180-9742
DBLEPX	  031456 R	 180-9720  #180-9744
DBLHDR	  031546 R	 180-9771  #180-9788
DBLPWR	  031506 R	 180-9736  #180-9760
DBLRLD	  031462 R	 180-9734  #180-9750
DBLXFR	  031516 R	 180-9732  #180-9769
DBLXIT	  031664 R	 180-9762   180-9781   180-9809  #180-9814
DCOMST	= 000001	#7-288     #48-2204   #80-4024   #82-4348   #86-4617    97-5154    97-5160    97-5186    97-5194
                        #145-8240  #176-9383  #190-10386 #253-13880
DEAND1	  026762 R	 148-8406   156-8573   157-8608   157-8619   157-8630   158-8652   159-8676   159-8678   160-8706
                        #161-8737
DEAND2	  026374 R	 152-8471   152-8474   153-8489   153-8495   153-8497   154-8530   154-8533   154-8540   154-8547
                         155-8559  #156-8572
RSXTOPS10  CREATED BY  MACRO  ON 16-MAY-88 AT 15:48	PAGE 7

SYMBOL CROSS REFERENCE                                  CREF   04.00

SYMBOL	VALUE		REFERENCES

DEAND3	  026126 R	 150-8439  #152-8473
DEANOD	  027462 R	 161-8738   162-8788   163-8802   164-8833   165-8876   166-8892  #166-8901   167-8923   168-8935
                         168-8943   169-8955   169-8959   175-9323
DEP   	= 010000	#7-288      44-1960   #48-2204   #80-4024    81-4114    81-4152    81-4158    81-4202    81-4229
                         81-4283   #82-4348   #86-4617    91-4927    97-5203    98-5240    99-5270   #145-8240  #176-9383
                         178-9547   183-9986   184-10040  185-10077 #190-10386 #253-13880  282-15579
DEPOF 	  001242 RG	#11-639    *90-4805    90-4861    92-4973
DEX   	= 000400	#7-288     #48-2204   #80-4024   #82-4348   #86-4617   #145-8240  #176-9383  #190-10386 #253-13880
DEXCOM	  013674 R	#67-3100
DEXDON	= 000004	#7-288     #48-2204   #80-4024   #82-4348   #86-4617   #145-8240  #176-9383  #190-10386 #253-13880
                         280-15401
DEXST 	  001352 RG	#12-728    *97-5158   *97-5162   *280-15396 *280-15403
DEXTM1	  001360 RG	#12-734     90-4818    90-4841
DEXTM2	  001356 RG	#12-732     90-4798    90-4810    90-4837    90-4874
DEXTM3	  001354 RG	#12-730     90-4794    90-4817
DEXWD1	= 174406	#7-288     #48-2204   #80-4024   #82-4348   #86-4617   #145-8240  #176-9383  #190-10386 #253-13880
DEXWD2	= 174404	#7-288     #48-2204   #80-4024   #82-4348   #86-4617   #145-8240  #176-9383  #190-10386 #253-13880
DEXWD3	= 174402	#7-288     #48-2204   #80-4024   #82-4348   #86-4617   #145-8240  #176-9383  #190-10386 #253-13880
DE.01 	= 000377  G	#67-3057    76-3790    118-6306   124-6754   137-7709   137-7716
DE.02 	= 000376  G	#67-3058    87-4695    91-4937    97-5164    99-5280    127-7045   131-7355   141-7982
DE.03 	= 000375  G	#67-3059    77-3837    91-4940
DE.04 	= 000374  G	#67-3060    128-7167
DE.05 	= 000373  G	#67-3061    105-5578   124-6687
DE.06 	= 000372  G	#67-3062
DE.07 	= 000371  G	#67-3063    76-3788
DE.08 	= 000370  G	#67-3064    131-7405   135-7590
DE.09 	= 000367  G	#67-3065
DE.10 	= 000366  G	#67-3066
DE.11 	= 000365  G	#67-3067
DE.80 	= 000260  G	#67-3068
DE.81 	= 000257  G	#67-3069
DE.90 	= 000246  G	#67-3070    103-5482
DE.91 	= 000245  G	#67-3071
DE.92 	= 000244  G	#67-3072    103-5458
DE.93 	= 000243  G	#67-3073
DE.94 	= 000242  G	#67-3074    77-3846
DE.95 	= 000241  G	#67-3075    77-3847
DE.96 	= 000240  G	#67-3076    78-3914
DE.97 	= 000237  G	#67-3077    113-5994   118-6278   120-6416   255-13974
DE.98 	= 000236  G	#67-3078    115-6149
DE.99 	= 000235  G	 67-2984   #67-3079    88-4725
DFTBL 	  025734 RG	 147-8366  #148-8385   148-8419
DFTSZ 	= 000100	#148-8419
DFUNC 	= 000200	#7-288     #48-2204   #80-4024   #82-4348   #86-4617    97-5154    97-5186    97-5194   #145-8240
                        #176-9383  #190-10386 #253-13880
DF.DMG	= 000004	#7-288     #48-2204   #80-4024   #82-4348   #86-4617   #145-8240  #176-9383  #190-10386 #253-13880
DF.DMN	= 000007	#7-288     #48-2204   #80-4024   #82-4348   #86-4617   #145-8240  #176-9383  #190-10386 #253-13880
DF.DOR	= 000001	#7-288     #48-2204   #80-4024   #82-4348   #86-4617   #145-8240  #176-9383  #190-10386 #253-13880
DF.EHG	= 000010	#7-288     #48-2204   #80-4024   #82-4348   #86-4617   #145-8240  #176-9383  #190-10386  191-10559
                        #253-13880
DF.EHM	= 000011	#7-288     #48-2204   #80-4024   #82-4348   #86-4617   #145-8240  #176-9383  #190-10386 #253-13880
DF.EMG	= 000005	#7-288     #48-2204   #80-4024   #82-4348   #86-4617   #145-8240  #176-9383  #190-10386 #253-13880
RSXTOPS10  CREATED BY  MACRO  ON 16-MAY-88 AT 15:48	PAGE 8

SYMBOL CROSS REFERENCE                                  CREF   04.00

SYMBOL	VALUE		REFERENCES

DF.EMN	= 000006	#7-288     #48-2204   #80-4024   #82-4348   #86-4617   #145-8240  #176-9383  #190-10386 #253-13880
DF.KLR	= 000012	#7-288     #48-2204   #80-4024   #82-4348   #86-4617   #145-8240  #176-9383  #190-10386 #253-13880
DF.KLW	= 000013	#7-288     #48-2204   #80-4024   #82-4348   #86-4617   #145-8240  #176-9383  #190-10386 #253-13880
DF.KLX	= 000014	#7-288     #48-2204   #80-4024   #82-4348   #86-4617   #145-8240  #176-9383  #190-10386 #253-13880
DF.OFF	= 000002	#7-288     #48-2204   #80-4024   #82-4348   #86-4617   #145-8240  #176-9383  #190-10386 #253-13880
DF.ON 	= 000003	#7-288     #48-2204   #80-4024    81-4276   #82-4348   #86-4617   #145-8240  #176-9383  #190-10386
                        #253-13880
DF.PDP	= 000016	#7-288     #48-2204   #80-4024   #82-4348   #86-4617   #145-8240  #176-9383  #190-10386 #253-13880
DF.PEX	= 000015	#7-288     #48-2204   #80-4024   #82-4348   #86-4617   #145-8240  #176-9383  #190-10386 #253-13880
DHBUF 	= 000020	#190-10404 *212-11422  212-11427
DHCNT 	= 000200  G	#28-1020    39-1538
DHERLG	  042306 R	 232-12747  232-12747  233-12850  233-12850 #233-12942  234-13022  234-13022
DHISTQ	  036424 R	 213-11506  213-11512  213-11514  213-11518  213-11520 #214-11588  216-11772
DHSAV 	  040344 R	 202-10943  213-11481  214-11579 #220-12112
DHSTSV	  002660 RG	#17-901    *214-11582  214-11604
DHTBL 	  003054 RG	 19-944     19-945     19-946     19-947     19-948     19-949     19-950     19-951    #21-987
                         28-1020    39-1538    153-8488   154-8520   170-9038   172-9171   210-11238  210-11302  212-11420
                         220-12123  221-12177  233-12812
DHTMP 	  002654 RG	#17-897    *202-10942 *214-11578  220-12119
DH.FER	= 020000  G	#190-10524  214-11675
DIAG1 	= 174430	#7-288     #48-2204   #80-4024   #82-4348   #86-4617   #145-8240  #176-9383  #190-10386 #253-13880
DIAG2 	= 174432	#7-288     #48-2204   #80-4024   #82-4348   #86-4617   #145-8240  #176-9383  #190-10386 #253-13880
DIAG3 	= 174436	#7-288     #48-2204   #80-4024   #82-4348   #86-4617   #145-8240  #176-9383  #190-10386 #253-13880
DIALUP	  026130 RG	 148-8398  #153-8485
DIKL10	= 000010	#7-288     #48-2204   #80-4024   #82-4348   #86-4617    97-5154    97-5194    97-5202   #145-8240
                        #176-9383  #190-10386 #253-13880
DIRDPT	  013446 R	 67-2985   #67-2987    67-3025
DIRMAX	= 000102	 67-2982   #67-3025
DIROK 	  013442 R	 67-2983   #67-2985
DIV216	  045264 RG	 114-6042   114-6042   255-13957  255-13957  261-14309  261-14309 #263-14363
DLCNT 	= 000005  G	#20-982     39-1534    153-8492   154-8527   157-8607
DLECNT	= 000004  G	#20-983     232-12665
DLETBL	  003014 RG	 17-890    #20-977     20-983     232-12664
DLHUPX	  041454 R	 228-12516 #231-12612
DLTBL 	  003004 RG	 17-887    #20-975     20-982     39-1534    170-9021   232-12655
DLTMP 	  002656 RG	#17-899    *207-11133 *216-11766  220-12136
DLYCNT	= 174400	#7-288     #48-2204   #80-4024   #82-4348   #86-4617   #145-8240  #176-9383  #190-10386 #253-13880
DL.CAR	= 010000  G	#190-10502  218-11916  232-12674
DL.CTS	= 020000  G	#190-10501
DL.DEN	= 000040  G	#190-10507  218-11901  231-12610  232-12743  232-12759
DL.DSC	= 100000  G	#190-10499
DL.DTR	= 000002  G	#190-10510  218-11901  218-11928  232-12678
DL.FER	= 020000  G	#190-10516  216-11774
DL.RAC	= 004000  G	#190-10503
DL.RDE	= 000001  G	#190-10511
DL.RDN	= 000200  G	#190-10505
DL.REN	= 000100  G	#190-10506  218-11921  231-12610  232-12726  232-12754  245-13555  246-13612
DL.RNG	= 040000  G	#190-10500  218-11899
DL.RTS	= 000004  G	#190-10509  218-11901  218-11918  232-12676  232-12678
DL.SRD	= 002000  G	#190-10504
DL.STD	= 000010  G	#190-10508
DL.UNA	= 001420  G	#190-10512
RSXTOPS10  CREATED BY  MACRO  ON 16-MAY-88 AT 15:48	PAGE 9

SYMBOL CROSS REFERENCE                                  CREF   04.00

SYMBOL	VALUE		REFERENCES

DL.XEN	= 000100  G	#190-10520  208-11179  212-11414  212-11434  232-12732  232-12756
DMTBE 	= 003004 RG	#19-953     234-12983
DMTBL 	  002742 RG	#19-943     172-9170   226-12376  226-12384  234-12976
DMTMP 	  002652 RG	#17-895    *226-12370  226-12372
DMTNXM	  042266 R	 233-12815 #233-12927  233-12930
DMYN  	= 000004  G	#11-652    *90-4860   *90-4861    94-5043    178-9546   184-10038  185-10076
DNBLK 	  005636 RG	#33-1113
DNFCN 	  005640 RG	#33-1115
DNSTS 	  005646 RG	#33-1118
DON10C	= 040000	#7-288     #48-2204   #80-4024   #82-4348   #86-4617   #145-8240  #176-9383   178-9490  #190-10386
                        #253-13880
DON10S	= 100000	#7-288     #48-2204   #80-4024   #82-4348   #86-4617   #145-8240  #176-9383  #190-10386 #253-13880
DON11C	= 000100	#7-288     #48-2204   #80-4024   #82-4348   #86-4617   #145-8240  #176-9383   179-9595  #190-10386
                        #253-13880
DON11S	= 000200	#7-288     #48-2204   #80-4024   #82-4348   #86-4617   #145-8240  #176-9383  #190-10386 #253-13880
DPB.CK	= ******	 103-5440   105-5567
DPCMN 	  021540 R	#91-4926    94-5044
DPMSEP	  021566 R	 91-4930   #91-4939
DPSEC 	  021564 R	 91-4933   #91-4936
DPS4  	= 040000	#7-288     #48-2204   #80-4024   #82-4348   #86-4617   #145-8240  #176-9383  #190-10386 #253-13880
DQNXT 	  034032 R	#198-10836  199-10881  199-10888
DRESET	= 000100	#7-288     #48-2204   #80-4024   #82-4348    84-4455   #86-4617    101-5338  #145-8240  #176-9383
                        #190-10386 #253-13880  280-15445
DRXCOM	  013710 R	 67-3099   #67-3105
DRXRR 	  013722 R	 67-3102   #67-3107
DR.DTE	= 000011	#7-288     #48-2204   #80-4024    81-4276   #82-4348   #86-4617   #145-8240  #176-9383  #190-10386
                         191-10559 #253-13880
DR.00 	= 000000  G	#67-3050    110-5842   111-5892   112-5951
DR.01 	= 000001  G	#67-3051    76-3787    76-3789    89-4762    91-4934    97-5179    99-5277    100-5319   103-5484
                         105-5587   107-5696   113-5992   114-6057   115-6135   115-6147   116-6183   118-6320   120-6405
                         122-6500   124-6859   126-6967   131-7389   133-7496   135-7586   139-7877
DR.02 	= 000002  G	#67-3052    109-5792   127-7112
DR.03 	= 000003  G	#67-3053    127-7114
DSEND 	= 000004	#7-288     #48-2204   #80-4024   #82-4348   #86-4617    97-5194    97-5199    97-5202   #145-8240
                        #176-9383  #190-10386 #253-13880
DS.99 	  013440 R	#67-2984    67-3001    67-3009    67-3010    67-3017    67-3018    67-3022
DS04  	= 004000	#7-288     #48-2204   #80-4024    81-4082    81-4132   #82-4348   #86-4617    101-5336  #145-8240
                        #176-9383  #190-10386 #253-13880  280-15411
DS05  	= 002000	#7-288     #48-2204   #80-4024   #82-4348   #86-4617   #145-8240  #176-9383  #190-10386 #253-13880
DS06  	= 001000	#7-288     #48-2204   #80-4024   #82-4348   #86-4617   #145-8240  #176-9383  #190-10386 #253-13880
                         280-15457
DTBUF 	  005504 RG	#30-1046
DTCNT 	  005510 RG	#30-1048
DTCW2 	  005512 RG	#30-1050
DTCW3 	  005514 RG	#30-1052
DTEADR	  001276 RG	#12-684     178-9509  *178-9560
DTECMD	= 000451	#7-288     #48-2204   #80-4024    81-4101    81-4178   #82-4348   #86-4617   #145-8240  #176-9383
                        #190-10386 #253-13880
DTEDSP	  021044 R	 87-4674   #87-4678
DTEFLG	= 000444	#7-288     #48-2204   #80-4024    81-4115    81-4284   #82-4348   #86-4617   #145-8240  #176-9383
                        #190-10386 #253-13880
DTEF11	= 000450	#7-288     #48-2204   #80-4024    81-4153   #82-4348   #86-4617   #145-8240  #176-9383  #190-10386
RSXTOPS10  CREATED BY  MACRO  ON 16-MAY-88 AT 15:48	PAGE 10

SYMBOL CROSS REFERENCE                                  CREF   04.00

SYMBOL	VALUE		REFERENCES

                        #253-13880
DTEHD 	  025304 RG	 36-1332    37-1399    38-1473   #147-8346
DTEMSK	  001274 RG	#12-682     178-9509  *178-9559
DTEMTD	= 000455	#7-288     #48-2204   #80-4024    81-4203   #82-4348   #86-4617   #145-8240  #176-9383  #190-10386
                        #253-13880
DTEMTI	= 000456	#7-288     #48-2204   #80-4024    81-4142    81-4159   #82-4348   #86-4617   #145-8240  #176-9383
                        #190-10386 #253-13880
DTENM 	= 000000	#11-648
DTESNP	  047762 R	 280-15419  280-15419  280-15435  280-15435  280-15472  280-15472 #281-15512
DTESP 	  025564 RG	 37-1399    147-8347  #147-8347
DTETPD	  007622 RG	 36-1332   #38-1472
DTETSK	  007142 RG	 37-1394   #37-1398    37-1400   *179-9625
DTEXIT	  030534 R	 177-9447  #177-9451   180-9745
DTHD  	= ******  GX	 36-1341    37-1431    38-1498
DTRNA 	  005502 RG	#30-1044
DTRTC 	  005500 RG	#30-1042
DTSTK 	= ******  GX	 37-1431
DTTPD 	  007762 RG	 36-1341   #38-1497
DTTSK 	  007402 RG	 37-1423   #37-1430    37-1432    40-1641    40-1645
DT0PEN	  011032 RG	 36-1355   #40-1640    40-1641    40-1680
DT1PEN	  011102 RG	#40-1644    40-1645
DUPE  	= 000020	#7-288     #48-2204   #80-4024   #82-4348   #86-4617   #145-8240  #176-9383  #190-10386 #253-13880
DURE  	= 000004	#7-288     #48-2204   #80-4024   #82-4348   #86-4617   #145-8240  #176-9383  #190-10386 #253-13880
DVCH  	= 110220	#40-1587    40-1597    40-1603    40-1608    40-1613    40-1618    40-1623    40-1628    40-1633
                         40-1641    40-1645    40-1670
DV.CFG	= 004000  G	#60-2675
DV.EOF	= 000040  G	#60-2669
DV.F11	= 000400  G	#60-2672
DV.HNG	= 001000  G	#60-2673
DV.IOP	= 000020  G	#60-2668
DV.LIN	= 002000  G	#60-2674    233-12945
DV.LOG	= 000100  G	#60-2670    214-11722  233-12945  281-15538
DV.NXD	= 000001  G	#60-2664
DV.OFL	= 000002  G	#60-2665
DV.OIR	= 000004  G	#60-2666
DV.SCN	= 000010  G	#60-2667
DV.URE	= 000200  G	#60-2671    214-11722  280-15474  281-15538
DWNMS 	  013220 R	 66-2875   #66-2877    66-2887
DWNMSG	  013206 R	 66-2846   #66-2874
DWNMSZ	= 000043	 66-2875    66-2875   #66-2887
DXTSK 	  007502 RG	 37-1439   #37-1450
DXWD1 	= 000006	#3-135     *81-4151   *81-4213    97-5169   *97-5198   *178-9536   180-9724  *184-10029 *185-10072
                         282-15590 *282-15599
DXWD2 	= 000004	#3-136      81-4146   *81-4150    81-4214   *81-4215   *81-4219   *81-4223    97-5168   *97-5197
                        *178-9537   180-9723  *184-10030 *185-10073  282-15589 *282-15598
DXWD3 	= 000002	#3-137      81-4076    81-4106   *81-4113   *81-4149   *81-4157    81-4185    81-4187    81-4189
                         81-4197   *81-4201   *81-4216   *81-4220   *81-4224    81-4243   *81-4282    97-5167   *97-5196
                        *178-9542   180-9722   180-9802   182-9922   182-9935  *184-10034 *185-10074  282-15588 *282-15597
DXWRD1	= 002000	#7-288     #48-2204   #80-4024   #82-4348   #86-4617   #145-8240  #176-9383  #190-10386 #253-13880
D$$H11	= 000010	#1-44       8-427
D.AT  	= 000000  G	#55-2500
D.CCDR	= 000006  G	#39-1548
RSXTOPS10  CREATED BY  MACRO  ON 16-MAY-88 AT 15:48	PAGE 11

SYMBOL CROSS REFERENCE                                  CREF   04.00

SYMBOL	VALUE		REFERENCES

D.CCLK	= 000007  G	#39-1552
D.CCPU	= 000200  G	#39-1566    162-8770
D.CCTY	= 000001  G	#39-1528    162-8755
D.CDH1	= 000003  G	#39-1536
D.CDLS	= 000004  G	#39-1540    175-9303   197-10820  209-11225  227-12483  275-15049
D.CDL1	= 000002  G	#39-1532
D.CDMB	= 000204  G	#39-1570
D.CDTE	= 000202  G	#39-1568    197-10822
D.CKLE	= 000201  G	#39-1567
D.CKLN	= 000210  G	#39-1572
D.CLOG	= 000205  G	#39-1571
D.CLPT	= 000005  G	#39-1544    195-10715
D.CRJP	= 000203  G	#39-1569    162-8780   197-10825
D.FA  	= 000004  G	#55-2502
D.FEPD	= 000010  G	#39-1555
D.FM  	= 000002  G	#55-2501
D.SZ  	= 000006  G	#55-2504
D1011 	= 000040	#7-288     #48-2204   #80-4024   #82-4348   #86-4617   #145-8240  #176-9383  #190-10386 #253-13880
EBSEL 	= 000100	#7-288     #48-2204   #80-4024   #82-4348   #86-4617   #145-8240  #176-9383  #190-10386 #253-13880
EBUSPC	= 000020	#7-288     #48-2204   #80-4024   #82-4348   #86-4617   #145-8240  #176-9383  #190-10386 #253-13880
EBUSPS	= 000004	#7-288     #48-2204   #80-4024   #82-4348   #86-4617   #145-8240  #176-9383  #190-10386 #253-13880
ECHOB 	  035644 R	 210-11280  210-11285  211-11326  211-11335 #212-11351  219-12082
EDONES	= 040000	#7-288     #48-2204   #80-4024   #82-4348   #86-4617   #145-8240  #176-9383  #190-10386 #253-13880
EDRMT 	  026042 RG	 148-8408  #150-8437
EF.BOV	= 000040  G	#49-2288
EF.CLK	= 000002  G	#49-2280
EF.CRI	= 002000  G	#49-2320    81-4069    81-4087    81-4241    83-4388
EF.CTC	= 040000  G	#49-2312    217-11864
EF.DTE	= 000001  G	#49-2278
EF.FCP	= 001000  G	#49-2322    81-4098
EF.IOD	= 000020  G	#49-2286    191-10557  198-10832  210-11290
EF.NIR	= 000010  G	#49-2284    76-3767    124-6853   191-10557  260-14206  260-14261
EF.PFR	= 004000  G	 43-1874   #49-2318    81-4241    83-4388    85-4539    180-9761
EF.PR1	= 100000  G	#49-2310    283-15628  285-15676
EF.PR2	= 020000  G	#49-2314    217-11876  283-15628  284-15655
EF.RKH	= 002000  G	#49-2298    191-10557  193-10675  231-12603
EF.RKP	= 010000  G	#49-2316    168-8938   168-8942
EF.RKR	= 001000  G	#49-2296    191-10557  193-10671  218-11911
EF.RQM	= 000200  G	#49-2292    191-10557  193-10666  217-11869
EF.RSS	= 004000  G	#49-2300    191-10557  193-10679  224-12290
EF.SND	= 100000  G	#49-2305
EF.TED	= 000100  G	#146-8265   146-8315   179-9625
EF.TMO	= 000100  G	 15-835    #49-2290    191-10557  194-10693  196-10767
EF.TTY	= 000004  G	#49-2282
EF.WFM	= 000400  G	#49-2294
EHSG  	= 000006  G	#11-654    *90-4867    95-5078
EHSM  	= 000010  G	#11-656    *90-4883    96-5112    180-9717   180-9798   182-9918
EIS   	= ******	 287-15902  287-15907
EMGSTK	  011562 RG	#42-1773    43-1819    44-1922
EMTSTK	  001116 RG	#9-510     *43-1835   *67-2917   *67-2936    67-3039    67-3042   *67-3086    67-3100    67-3105
                         67-3127
EMTTRP	  013266 RG	 8-357     #67-2912
RSXTOPS10  CREATED BY  MACRO  ON 16-MAY-88 AT 15:48	PAGE 12

SYMBOL CROSS REFERENCE                                  CREF   04.00

SYMBOL	VALUE		REFERENCES

EMYN  	= 000002  G	#11-650    *90-4858    93-5009
EM.DRO	= 000020  G	#67-2908    67-2938    67-2970   *67-3101   *67-3106    67-3126   *122-6494
ENBXOF	  026052 RG	 148-8413  #151-8450
ENTELQ	  031126 R	#179-9616   179-9660
EOLS  	= 000400	#190-10413  200-10897  201-10918  211-11316  219-12007  219-12069  219-12078
EPTR  	= 000000	#7-288     #48-2204   #80-4024    81-4100    81-4114    81-4141    81-4152    81-4158    81-4177
                         81-4202    81-4229    81-4283   #82-4348   #86-4617   #145-8240  #176-9383  #190-10386 #253-13880
EQSZ  	  001340 RG	#12-721    *179-9664  *180-9802   180-9803   181-9861  *181-9877
ERRCES	= 000001  G	#41-1718
ERRCPE	= 000007  G	#41-1724
ERRCST	= 000004  G	#41-1721
ERRDEX	= 000003  G	#41-1720
ERRDPE	= 000010  G	#41-1725
ERREPE	= 000002  G	#41-1719
ERRFME	= 000006  G	#41-1723
ERRPTO	= 000005  G	#41-1722
ERRTRR	= 000012  G	#41-1727
ERRTSP	= 000011  G	#41-1726
ERR10C	= 010000	#7-288     #48-2204   #80-4024   #82-4348   #86-4617   #145-8240  #176-9383  #190-10386 #253-13880
ERR10S	= 020000	#7-288     #48-2204   #80-4024   #82-4348   #86-4617   #145-8240  #176-9383  #190-10386 #253-13880
ERR11C	= 000001	#7-288     #48-2204   #80-4024   #82-4348   #86-4617   #145-8240  #176-9383  #190-10386 #253-13880
ERR11S	= 000002	#7-288     #48-2204   #80-4024   #82-4348   #86-4617   #145-8240  #176-9383  #190-10386 #253-13880
EV.AS 	= 000002  G	#64-2783    75-3626    75-3642    79-3956
EV.PF 	= 000200  G	 42-1767   #64-2784    75-3619    75-3649    84-4471
EV.SE 	= 000001  G	#64-2780    69-3209    74-3436    75-3619    116-6182   262-14342
EXCMN 	  021574 R	#92-4974    93-5010    95-5079    96-5113
EXKAL 	  033066 R	#191-10558  196-10773
E.BOV 	= 000006  G	#49-2289
E.CLK 	= 000002  G	#49-2281
E.DTE 	= 000001  G	#49-2279
E.DV  	= 000006  G	#146-8272   165-8850   167-8920   174-9245
E.FCRI	= 000073  G	#49-2321
E.FCTC	= 000077  G	#49-2313
E.FFCP	= 000072  G	#49-2323
E.FN  	= 000004  G	#146-8271   147-8364   165-8847
E.FP  	= 000000  G	#146-8269
E.FPFR	= 000074  G	#49-2319
E.FPR1	= 000100  G	#49-2311
E.FPR2	= 000076  G	#49-2315    81-4052    81-4275
E.FRKP	= 000075  G	#49-2317
E.FSND	= 000040  G	#49-2306
E.FW  	= 000010  G	#146-8273   150-8438  *152-8464   152-8470   153-8491   154-8526  *156-8569   156-8571   157-8584
                         157-8589   157-8599   157-8606  *157-8610   157-8615   157-8623  *158-8639   158-8657  *159-8671
                         159-8675   162-8751   165-8848   165-8851   166-8890   168-8933   174-9246
E.IOD 	= 000005  G	#49-2287
E.LS  	= 000002  G	#146-8270
E.NIR 	= 000004  G	#49-2285
E.OPSZ	= 000060  G	#146-8261   279-15294
E.RKH 	= 000013  G	#49-2299
E.RKR 	= 000012  G	#49-2297
E.RQM 	= 000010  G	#49-2293
E.RSS 	= 000014  G	#49-2301
RSXTOPS10  CREATED BY  MACRO  ON 16-MAY-88 AT 15:48	PAGE 13

SYMBOL CROSS REFERENCE                                  CREF   04.00

SYMBOL	VALUE		REFERENCES

E.TMO 	= 000007  G	#49-2291
E.TTY 	= 000003  G	#49-2283
E.WFM 	= 000011  G	#49-2295
FDVNM 	  030272 R	 164-8832   164-8832   165-8868   165-8868  #175-9279
FDVNMF	  030404 R	 173-9210  #175-9320
FDVNMM	  030256 R	 152-8465   152-8465   153-8486   153-8486   154-8506   154-8506   155-8557   155-8557   156-8570
                         156-8570   157-8611   157-8611   158-8640   158-8640   159-8672   159-8672   160-8703   160-8703
                         161-8732   161-8732   167-8914   167-8914  #174-9244
FEHD  	= ******  GX	 36-1336    37-1439    38-1477
FELXFR	  031164 R	 179-9612  #179-9632
FERCHK	  036730 RG	 214-11606  214-11608  214-11622 #214-11674
FESTK 	= ******  GX	 37-1439
FETBL 	  005572 RG	#33-1097    39-1556
FETPD 	  007642 RG	 36-1336   #38-1476
FETSK 	  007442 RG	 37-1431   #37-1438    37-1440    40-1670   *81-4053
FE0PUD	  011222 RG	#40-1669    40-1670
FLBT  	= 000001	#190-10417
FLBYT 	= 000011	#190-10400  211-11342 *212-11369 *212-11392
FLCT  	= 000017	#190-10416  201-10918  210-11262
FLDVOT	  027472 RG	 148-8396  #167-8913
FNBYT 	= 000005	#190-10397 *219-12048 *219-12056 *219-12065 *219-12076
FNDDM 	  030174 R	 153-8494   153-8494   154-8529   154-8529   157-8618   157-8618  #172-9168
FNDSPD	  030226 R	 157-8585   157-8585   157-8590   157-8590  #173-9201
FORPRO	= 000020	#7-288     #48-2204   #80-4024   #82-4348   #86-4617    90-4821    90-4862    90-4868   #145-8240
                        #176-9383   178-9545   180-9716   180-9797   182-9917   184-10039  185-10075 #190-10386 #253-13880
FW    	= 000300	#40-1589    40-1597    40-1603    40-1608    40-1613    40-1618    40-1623    40-1628    40-1633
                         40-1641    40-1645
F11TPD	  010022 RG	 36-1355   #38-1512    43-1843    71-3302
GENTPD	  010042 RG	#38-1516
GETBUF	  032420 R	 181-9863   181-9863   182-9924   182-9924  #186-10112
HANGUP	  026176 RG	 148-8399  #154-8505
HDR64 	= ******	 72-3315    74-3452    74-3467    78-3888    141-7996   260-14248
HIBYTE	= 177400	#7-288     #48-2204   #80-4024   #82-4348   #86-4617   #145-8240  #176-9383  #190-10386 #253-13880
HICTS 	  026766 RG	 148-8386  #162-8749
HIDVST	  027226 RG	 148-8392  #164-8816
HISN  	  027120 RG	 148-8417  #162-8776
HORPS 	= 000016	#190-10403  212-11365 *212-11381 *212-11400
HSPMSK	= 000376	#192-10570  214-11638
HSPSPD	  033210 RG	#192-10622
HSPTAB	  033163 RG	#192-10588  192-10601  214-11639
HSPTLN	= 000014	#192-10601  214-11640
H.CSP 	= 000000  G	#51-2357
H.DSW 	= 000046  G	#51-2359    74-3458    74-3473
H.FCP 	= 000050  G	#51-2360
H.FOR 	= 000052  G	#51-2361
H.HSZ 	= 000002  G	#51-2358
H.IPC 	= 000076  G	#51-2364    72-3322
H.IPS 	= 000074  G	#51-2363    72-3323
H.ISP 	= 000100  G	#51-2365    72-3330
H.KCAC	= 000020  G	#41-1703
H.KCHN	= 000010  G	#41-1702
H.KEXT	= 000004  G	#41-1701
RSXTOPS10  CREATED BY  MACRO  ON 16-MAY-88 AT 15:48	PAGE 14

SYMBOL CROSS REFERENCE                                  CREF   04.00

SYMBOL	VALUE		REFERENCES

H.KMOS	= 000002  G	#41-1700
H.KPWR	= 000040  G	#41-1704
H.KUDF	= 000001  G	#41-1699
H.LUT 	= 000130  G	#51-2367    72-3324    72-3327    78-3894    139-7858   288-15977
H.OVL 	= 000054  G	#51-2362
H.TKVA	= 000106  G	#51-2366    72-3321    139-7855
IE.ABO	= 177761	 212-11452
IFLOP 	= 100000	#7-288     #48-2204   #80-4024   #82-4348   #86-4617   #145-8240  #176-9383   179-9667   181-9879
                         182-9946  #190-10386 #253-13880
IGNO  	  012364 RG	 39-1530    39-1530    39-1534    39-1534    39-1538    39-1538    39-1542    39-1542    39-1546
                         39-1550    39-1550    39-1553    39-1553    39-1553    39-1553    39-1556    39-1556    44-1982
                        #44-1986
INIAN 	  047356 RG	 42-1771   #279-15293
INITLM	  011454 RG	#42-1752    291-16141
INPPT 	  035576 R	 210-11269 #211-11315
INPT0 	  035604 R	#211-11318
INPT1 	  036142 R	 211-11317 #212-11441
INSHD 	= ******  GX	 36-1369    38-1469
INSTAL	= ******  GX	 36-1369
INSTK 	= ******  GX	 36-1369
INSTPD	  007602 RG	 36-1369   #38-1468
INTLPS	  030446 R	#177-9430   178-9523   178-9525   178-9562   179-9678   180-9815
INTROF	= 000010	#7-288     #48-2204   #80-4024    81-4061   #82-4348   #86-4617   #145-8240  #176-9383  #190-10386
                        #253-13880  283-15627  284-15654
INTRON	= 000040	#7-288     #48-2204   #80-4024    81-4287   #82-4348   #86-4617    90-4856   #145-8240  #176-9383
                        #190-10386 #253-13880
INTSON	= 000001	#7-288     #48-2204   #80-4024   #82-4348   #86-4617   #145-8240  #176-9383  #190-10386 #253-13880
INT10S	= 000400	#7-288     #48-2204   #80-4024   #82-4348   #86-4617   #145-8240  #176-9383  #190-10386 #253-13880
INT11C	= 002000	#7-288     #48-2204   #80-4024    81-4105    81-4180    81-4191   #82-4348   #86-4617   #145-8240
                        #176-9383   180-9714  #190-10386 #253-13880
INT11S	= 004000	#7-288     #48-2204   #80-4024   #82-4348   #86-4617   #145-8240  #176-9383  #190-10386 #253-13880
                         284-15654
IOPSIZ	= 007777	#45-2024    45-2034
IOTTRP	  012070 R	 43-1861   #44-1909
IO.ATT	= 001400	 260-14233
IO.DET	= 002000	 260-14235
IO.LOV	= 001010	 260-14237
IO.LTK	= 000050	 76-3738    260-14245
IO.RLB	= 001000	 124-6823   198-10870  260-14243  288-15984
IO.RVB	= 010400	 124-6821   124-6829   288-15985
IO.STC	= 002500	 124-6811
IO.WLB	= 000400	 81-4294    124-6820   198-10867  288-15987
IO.WVB	= 011000	 124-6818   124-6831
IS.SUC	= 000001	 198-10872  210-11288  212-11446
KBB0  	= 177562  G	#49-2213
KBB1  	= 175612  G	#49-2217
KBS0  	= 177560  G	#49-2212
KBS1  	= 175610  G	#49-2216
KLCST 	  021654 R	#97-5156    97-5200    97-5210
KLNLGL	= 000016  G	#10-621
KLNPLN	= 000026  G	 10-603     10-607    #10-626     162-8767
KLNPTR	  002644 RG	#17-889     154-8516   158-8647   170-9023   198-10842  210-11246  210-11296  212-11410  217-11815
RSXTOPS10  CREATED BY  MACRO  ON 16-MAY-88 AT 15:48	PAGE 15

SYMBOL CROSS REFERENCE                                  CREF   04.00

SYMBOL	VALUE		REFERENCES

                         218-11903  218-11922  231-12598  237-13173  239-13251  273-14874  274-14975
KLPWRF	= 000010	#7-288     #48-2204   #80-4024   #82-4348   #86-4617   #145-8240  #176-9383   180-9735  #190-10386
                        #253-13880
KL.ABO	= 010000  G	#56-2524
KL.CFL	= 000400  G	#56-2520
KL.CFM	= 000002  G	#56-2511
KL.DEF	= 002000  G	#56-2522
KL.KAC	= 001000  G	#56-2521
KL.LCA	= 000100  G	#56-2516
KL.LRM	= 000001  G	#56-2510
KL.LVB	= 000004  G	#56-2512
KL.REQ	= 004000  G	#56-2523
KL.SPF	= 000040  G	#56-2515
KL.SSC	= 000200  G	#56-2518
KL.VBD	= 000020  G	#56-2514
KL.VBN	= 000010  G	#56-2513
KPAL0 	  001404 RG	#13-773     90-4889    191-10559  196-10775  196-10804
KPAL1 	  001414 RG	#13-777    *183-9980   183-9983
KPAR0 	= 172360	#49-2227
KPAR1 	= 172362	#49-2228
KPAR2 	= 172364	#49-2229
KPAR3 	= 172366	#49-2230
KPAR4 	= 172370	#49-2231
KPAR5 	= 172372	#49-2232
KPAR6 	= 172374	#49-2233
KPAR7 	= 172376	#49-2234
KPDR0 	= 172300	#49-2236
KPDR1 	= 172302	#49-2237
KPDR2 	= 172304	#49-2238
KPDR3 	= 172306	#49-2239
KPDR4 	= 172310	#49-2240
KPDR5 	= 172312	#49-2241
KPDR6 	= 172314	#49-2242
KPDR7 	= 172316	#49-2243
KS.CES	= 000002  G	#56-2532    280-15413
KS.CPE	= 001000  G	#56-2540
KS.CST	= 000020  G	#56-2535    196-10796
KS.DEX	= 000010  G	#56-2534    280-15417
KS.DPE	= 002000  G	#56-2541
KS.EPE	= 000004  G	#56-2533    280-15434  280-15473
KS.FCF	= 004000  G	#56-2542
KS.FME	= 000400  G	#56-2539
KS.PFT	= 000100  G	#56-2537    84-4467
KS.PTO	= 000200  G	#56-2538    81-4092
KS.TRR	= 000040  G	#56-2536    180-9751
KS.TSP	= 000001  G	#56-2531    280-15459
KT11  	= ******	 67-2937    67-2940    67-3033    67-3113    67-3116    67-3125    67-3129    74-3446    74-3485
                         74-3526    75-3632    78-3883    79-3943    124-6826   137-7737   141-8010   286-15716  286-15722
                         287-15881  287-15894  287-15897  287-15916  287-15927
K.LBPW	= 000005  G	#61-2702
K.LCKL	= 177777  G	#61-2686
K.LCON	= 000004  G	#61-2696
RSXTOPS10  CREATED BY  MACRO  ON 16-MAY-88 AT 15:48	PAGE 16

SYMBOL CROSS REFERENCE                                  CREF   04.00

SYMBOL	VALUE		REFERENCES

K.LDCM	= 000001  G	#61-2693
K.LDRP	= 177777  G	#61-2694
K.LDSC	= 000003  G	#61-2692
K.LLTO	= 000006  G	#61-2704
K.LRAC	= 000001  G	#61-2689
K.LRBA	= 000007  G	#61-2706
K.LRMN	= 000003  G	#61-2699
K.LRNG	= 000002  G	#61-2688
K.LROP	= 000001  G	#61-2697
K.LRPR	= 000002  G	#61-2698
K.LRRJ	= 177777  G	#61-2690
K.LSCK	= 000001  G	#61-2684
K.LSKL	= 000001  G	#61-2685
K.LUND	= 000000  G	#61-2682
K.LUSR	= 177777  G	#61-2700
LDLPR 	  027226 RG	 148-8409  #164-8817
LDLPV 	  027226 RG	 148-8410  #164-8818
LFBT  	= 004000	#190-10410  200-10904  211-11324
LFCT  	= 074000	#190-10409  201-10918  210-11264  219-12080
LINCHR	  027272 RG	 148-8389  #165-8844
LKS   	= 177546  G	#49-2211    84-4477   *84-4479   *85-4540
LOAD11	= 000004	#7-288      44-1959   #48-2204   #80-4024   #82-4348   #86-4617   #145-8240  #176-9383   180-9733
                        #190-10386 #253-13880
LODNOD	  032520 R	 179-9655   179-9655   182-9932   182-9932  #188-10181
LOWCOD	= 000000 RG	#8-344      8-345      8-364      8-364      8-364      8-364      8-371      8-371      8-377
                         8-377      8-384      8-384      8-384      8-384      8-384      8-384      8-384      8-384
                         8-384      8-384      8-384      8-384      8-384      8-384      8-384      8-394      8-394
                         8-401      8-401      8-401      8-401      8-405      8-410      8-413      8-414      8-419
                         8-420      8-426      8-426      8-426      8-426      8-426      8-426      8-426      8-426
                         8-432      8-432      8-432      8-432      8-432      8-432      8-432      8-432      8-432
                         8-432      8-432      8-432      8-432      8-432      8-432      8-432      8-432      8-432
                         8-432      8-432      8-432      8-432      8-432      8-432      8-432      8-432      8-432
                         8-432      8-432      8-432      8-432      8-432
LPCEVF	  006240 RG	 35-1191   #35-1193
LPCSA 	= 000002  G	#35-1230   #35-1230
LPCSM 	= 000022  G	#35-1241
LPEVFG	  006236 RG	#35-1190
LPEXPA	= 175400  G	#35-1181    35-1230    35-1230
LPEXPZ	= 000020  G	#35-1182    35-1205
LPHD  	= ******  GX	 36-1374    37-1416    38-1485
LPHUNG	  006242 RG	#35-1196
LPITH 	= 000006  G	#35-1230   #35-1230
LPMCB 	= 000020  G	#35-1240
LPRMA 	= 000040  G	#35-1251
LPRMC 	= 000044  G	#35-1253
LPRMZ 	= 000042  G	#35-1252
LPRTY 	= 000024  G	#35-1242
LPSIZE	= 000010  G	#35-1231    35-1236    35-1247    35-1262    35-1262
LPSTBH	  006246 RG	#35-1202
LPSTBK	  006250 RG	#35-1204    35-1207
LPSTK 	= ******  GX	 37-1416
LPSTLN	= 000030  G	#35-1207
RSXTOPS10  CREATED BY  MACRO  ON 16-MAY-88 AT 15:48	PAGE 17

SYMBOL CROSS REFERENCE                                  CREF   04.00

SYMBOL	VALUE		REFERENCES

LPSTS 	= 000000  G	#35-1230   #35-1230
LPTBL 	  006300 RG	#35-1213    35-1231    35-1240    35-1241    35-1242    35-1251    35-1252    35-1253    35-1262
                         35-1262    39-1546
LPTBL2	  006320 RG	#35-1235    35-1240    35-1241    35-1242
LPTBL3	  006340 RG	#35-1246    35-1251    35-1252    35-1253
LPTHD 	= 000004  G	#35-1230   #35-1230
LPTPD 	  007702 RG	 36-1374   #38-1484
LPTSK 	  007302 RG	 37-1408   #37-1415    37-1417    40-1665
LPUNIT	  006234 RG	#35-1187
LPUTBL	  006360 RG	#35-1257
LP0PUD	  011152 RG	#40-1664    40-1665
LSPCHR	= 000000	#192-10571  214-11632
LSPSPD	  033177 RG	#192-10608  214-11656
LSPTAB	  033152 RG	#192-10573  192-10583  214-11639  214-11642
LSPTLN	= 000011	#192-10583  214-11628
LSP.IG	= 000200	#192-10605  192-10610  192-10611  192-10612  192-10624
LSP.SP	= 000017	#192-10606  214-11660
L$$P20	= 000002	#1-38       35-1215    35-1231    35-1236    35-1247    35-1259
L.DT0 	= 000003  G	#40-1638
L.RP4 	= 000002  G	#40-1585
L.TTY 	= 000001  G	#40-1581
MACY11	= ******	 48-2196    82-4346
MBUFR 	= 000014	#190-10402 *219-12029 *219-12085  219-12089
MEBUF 	= 000012	#190-10401  211-11332 *211-11333 *219-12091
MECNT 	= 000010	#190-10399  210-11266 *211-11334 *219-12092
MF2NUM	= 000004  G	#9-588      9-591
MF2RTY	= 000001	#9-587      9-593      9-593      9-593      9-593
MODE  	= 100000	#190-10408  200-10897  201-10919
MPE11 	= 001000	#7-288     #48-2204   #80-4024   #82-4348   #86-4617   #145-8240  #176-9383   177-9434  #190-10386
                        #253-13880
MSETRP	= ******	 270-14632  270-14669  271-14739  271-14791  273-14891  273-14907
M.PARQ	= 000002  G	#41-1732    193-10668  198-10838
NODADR	  005602 RG	#33-1102
NOSNDA	  026060 RG	 148-8411  #152-8461
NTKXEN	  012772 R	#66-2809    66-2835
NTKXEP	  012776 R	 65-2807    65-2807   #66-2811    66-2828    66-2839
NTKXSP	  012752 RG	 37-1458    65-2807   #65-2807
NULHD 	  012472 RG	 37-1458   #65-2807
NULSTP	= 000040	#7-288     #48-2204   #80-4024   #82-4348   #86-4617   #145-8240  #176-9383  #190-10386 #253-13880
NULTSK	  007542 RG	 37-1395    37-1454   #37-1457
NUPE  	= 000002	#7-288     #48-2204   #80-4024   #82-4348   #86-4617   #145-8240  #176-9383  #190-10386 #253-13880
N.BP  	= 000002  G	#49-2328    265-14433
N.FP  	= 000000  G	#49-2327
N.OVPT	= 000054  G	#49-2265
N.PR  	= 000010  G	#49-2329    265-14430  265-14430
OKPAL0	  001412 RG	#13-775    *90-4889    196-10775 *196-10804
OUTPT 	  035406 R	 201-10929  201-10929  210-11236 #210-11259  212-11372  219-12093
OUTPT3	  035326 R	 202-10974  202-10974  207-11141 #210-11234
PARLOA	  020670 R	#85-4528    85-4531
PARLOT	  020742 R	 85-4524   #85-4548
PARSAV	  001022 RG	#9-481      43-1887    44-1932
PB    	= 000200  G	#66-2883    66-2883   #66-2883    66-2883   #66-2883    66-2883   #66-2883    66-2883   #66-2883
RSXTOPS10  CREATED BY  MACRO  ON 16-MAY-88 AT 15:48	PAGE 18

SYMBOL CROSS REFERENCE                                  CREF   04.00

SYMBOL	VALUE		REFERENCES

                         66-2883   #66-2883    66-2883   #66-2883    66-2883   #66-2883    66-2883   #66-2883    66-2883
                        #66-2883    66-2883   #66-2883    66-2883   #66-2883    66-2883   #66-2883    66-2883   #66-2883
                         66-2883   #66-2883    66-2883   #66-2883    66-2883   #66-2883    66-2883   #66-2883    66-2883
                        #66-2883    66-2883   #66-2883    66-2883   #66-2883    66-2883   #66-2883    66-2883   #66-2883
                         66-2883   #66-2883    66-2883   #66-2883    66-2883   #66-2883    66-2883   #66-2883    66-2883
                        #66-2883    66-2883   #66-2883    66-2883   #66-2883    66-2883   #66-2883    66-2883   #66-2883
                         66-2883   #66-2883    66-2883   #66-2883    66-2883   #66-2883    66-2883   #66-2883    66-2883
                        #66-2883    66-2883   #66-2883    66-2883   #66-2883    66-2883   #66-2883    66-2883   #66-2883
                         66-2883   #66-2883    66-2883   #66-2883    66-2883   #66-2883    66-2883   #66-2883    66-2883
                        #66-2883    66-2883   #66-2883    66-2883   #66-2883    66-2883   #66-2883    66-2883   #66-2883
                         66-2883   #66-2883    66-2883   #66-2883    66-2883   #66-2883    66-2883   #66-2883    66-2883
                        #66-2883    66-2883   #66-2883    66-2883   #66-2883    66-2883   #66-2883    66-2883   #66-2883
                         66-2883   #66-2883    66-2883   #66-2883    66-2883   #66-2883    66-2883   #66-2883    66-2883
                        #66-2883    66-2883   #66-2883    66-2883   #66-2883    66-2883   #66-2883    66-2883   #66-2883
                         66-2883   #66-2883    66-2883   #66-2883    66-2883   #66-2883    66-2883   #66-2883    66-2883
                        #66-2883    66-2883   #66-2883    66-2883   #66-2883    66-2883   #66-2883    66-2883   #66-2883
                         66-2883   #66-2883    66-2883   #66-2883    66-2883   #66-2883    66-2883   #66-2883    66-2883
                        #66-2883    66-2883   #66-2883    66-2883   #66-2883    66-2883   #66-2883    66-2883   #66-2883
                         66-2883   #66-2883    66-2883   #66-2883    66-2883   #66-2883    66-2883   #66-2883    66-2883
                        #66-2883    66-2883   #66-2883    66-2883   #66-2883    66-2883   #66-2883    66-2883   #66-2883
                         66-2883   #66-2883    66-2883   #66-2883    66-2883   #66-2883    66-2883   #66-2883    66-2883
                        #66-2883    66-2883   #66-2883    66-2883   #66-2883    66-2883   #66-2883    66-2883   #66-2883
                         66-2883   #66-2883    66-2883   #66-2883    66-2883   #66-2883    66-2883   #66-2883    66-2883
                        #66-2883    66-2883   #66-2883    66-2883   #66-2883    66-2883   #66-2883    66-2883   #66-2883
                         66-2883   #66-2883    66-2883   #66-2883    66-2883   #66-2883    66-2883   #66-2883    66-2883
                        #66-2883    66-2883   #66-2883    66-2883   #66-2883    66-2883   #66-2883    66-2883   #66-2883
                         66-2883   #66-2883    66-2883   #66-2883    66-2883   #66-2883    66-2883   #66-2883    66-2883
                        #66-2883    66-2883   #66-2883    66-2883   #66-2883    66-2883   #66-2883    66-2883   #66-2883
                         66-2883   #66-2883    66-2883   #66-2883    66-2883   #66-2883    66-2883   #66-2883    66-2883
                        #66-2883    66-2883   #66-2883    66-2883   #66-2883    66-2883   #66-2883    66-2883   #66-2883
                         66-2883   #66-2883    66-2883   #66-2883    66-2883   #66-2883    66-2883   #66-2883    66-2883
                        #66-2883    66-2883   #66-2883    66-2883   #66-2883    66-2883   #66-2883    66-2883   #66-2883
                         66-2883   #66-2883    66-2883   #66-2883    66-2883   #66-2883    66-2883   #66-2883    66-2883
                        #66-2883    66-2883   #66-2883    66-2883   #66-2883    66-2883   #66-2883    66-2883   #66-2883
                         66-2883   #66-2883    66-2883   #66-2883    66-2883   #66-2883    66-2883   #66-2883    66-2883
                        #66-2883    66-2883   #66-2883    66-2883   #66-2883    66-2883   #66-2883    66-2883   #66-2883
                         66-2883   #66-2883    66-2883   #66-2883    66-2883   #66-2883    66-2883   #66-2883    66-2883
                        #66-2883    66-2883   #66-2883    66-2883   #66-2883    66-2883   #66-2883    66-2883   #66-2883
                         66-2883   #66-2883    66-2883   #66-2883    66-2883   #66-2883    66-2883   #66-2883    66-2883
                        #66-2883    66-2883   #66-2883    66-2883   #66-2883    66-2883   #66-2883    66-2883   #66-2883
                         66-2883   #66-2883    66-2883   #66-2883    66-2883   #66-2883    66-2883   #66-2883    66-2883
                        #66-2883    66-2883   #66-2883    66-2883   #66-2883    66-2883   #66-2883    66-2883   #66-2883
                         66-2883   #66-2883    66-2883   #66-2883    66-2883   #66-2883    66-2883   #66-2883    66-2883
                        #66-2883    66-2883   #66-2883    66-2883   #66-2883    66-2883   #66-2883    66-2883   #66-2883
                         66-2883   #66-2883    66-2883   #66-2883    66-2883   #66-2883    66-2883   #66-2883    66-2883
                        #66-2883    66-2883   #66-2883    66-2883   #66-2883    66-2883   #66-2883    66-2883   #66-2883
                         66-2883   #66-2883    66-2883   #66-2883    66-2883   #66-2883    66-2883   #66-2883    66-2883
                        #66-2883    66-2883   #66-2883    66-2883   #66-2883    66-2883   #66-2883    66-2883   #66-2883
                         66-2883   #66-2883    66-2883   #66-2883    66-2883   #66-2883    66-2883   #66-2883    66-2883
PERCLR	= 001000	#7-288     #48-2204   #80-4024   #82-4348   #86-4617   #145-8240  #176-9383  #190-10386 #253-13880
PHYS  	= 100000	#7-288     #48-2204   #80-4024   #82-4348   #86-4617   #145-8240  #176-9383  #190-10386 #253-13880
PIDENT	= 000000	#7-288     #48-2204   #80-4024   #82-4348   #86-4617   #145-8240  #176-9383  #190-10386 #253-13880
RSXTOPS10  CREATED BY  MACRO  ON 16-MAY-88 AT 15:48	PAGE 19

SYMBOL CROSS REFERENCE                                  CREF   04.00

SYMBOL	VALUE		REFERENCES

PRB0  	= 177566  G	*44-1970   *44-1983   #49-2215
PRB1  	= 175616  G	*44-1968   #49-2219
PRI7  	= 000340  G	#7-288     #48-2204   #49-2224    67-3146   #80-4024   #82-4348   #86-4617   #145-8240   162-8771
                         162-8781   165-8854   171-9133  #176-9383  #190-10386 #253-13880
PRMBLK	  023634 R	 124-6837  #124-6867
PRMEMN	  001240 RG	#11-637    *90-4801    90-4872
PROPNT	= 000021	#7-288     #48-2204   #80-4024   #82-4348   #86-4617    90-4862   #145-8240  #176-9383  #190-10386
                        #253-13880
PROTBL	  001244 RG	#11-658     87-4672    90-4826
PRS0  	= 177564  G	 44-1972    44-1984   #49-2214
PRS1  	= 175614  G	 44-1976   #49-2218
PRTOFF	= 004000	#7-288     #48-2204   #80-4024    81-4100    81-4114    81-4141    81-4152    81-4158    81-4177
                         81-4202    81-4229    81-4283   #82-4348   #86-4617    99-5272   #145-8240  #176-9383  #190-10386
                        #253-13880
PRVCM 	  022114 R	 98-5241   #99-5271
PRVTSK	= 007502 RG	#37-1400    37-1403   #37-1404    37-1408   #37-1409    37-1416   #37-1417    37-1423   #37-1424
                         37-1431   #37-1432    37-1439   #37-1440    37-1454   #37-1455    37-1458
PR0   	= 000000	#7-288     #48-2204   #80-4024   #82-4348   #86-4617   #145-8240  #176-9383  #190-10386 #253-13880
PR1   	= 000040	#7-288     #48-2204   #80-4024   #82-4348   #86-4617   #145-8240  #176-9383  #190-10386 #253-13880
PR2   	= 000100	#7-288     #48-2204   #80-4024   #82-4348   #86-4617   #145-8240  #176-9383  #190-10386 #253-13880
PR3   	= 000140	#7-288     #48-2204   #80-4024   #82-4348   #86-4617   #145-8240  #176-9383  #190-10386 #253-13880
PR4   	= 000200	#7-288     #48-2204   #80-4024   #82-4348   #86-4617   #145-8240  #176-9383  #190-10386 #253-13880
PR5   	= 000240	#7-288     #48-2204   #80-4024   #82-4348   #86-4617   #145-8240  #176-9383  #190-10386 #253-13880
PR6   	= 000300	#7-288     #48-2204   #80-4024   #82-4348   #86-4617   #145-8240  #176-9383  #190-10386 #253-13880
PR7   	= 000340  G	#7-288     #48-2204   #49-2223   #80-4024   #82-4348   #86-4617   #145-8240  #176-9383  #190-10386
                        #253-13880
PS    	= 177776  G	#7-288     *42-1768    43-1815   #48-2204   #49-2210   *66-2810    66-2815   *66-2815   *66-2826
                        *66-2837   *74-3440   *74-3523   *75-3578    79-3938   *79-3938   #80-4024   *81-4065    81-4068
                        *81-4068   *81-4094   *81-4127    81-4129   *81-4129   *81-4198    81-4200   *81-4200   #82-4348
                        #86-4617   #145-8240  *147-8352   147-8356  *147-8356  *147-8369   147-8373  *147-8373   162-8771
                        *162-8771  *162-8773   162-8781  *162-8781  *162-8783   165-8854  *165-8854  *165-8856   171-9133
                        *171-9133  *171-9135  #176-9383  #190-10386  193-10660 *193-10660 *193-10664  194-10695 *194-10695
                        *194-10707  196-10811 *196-10811 *196-10814  198-10837 *198-10837 *198-10854  201-10928 *201-10928
                        *201-10931  202-10942  207-11133  214-11578  216-11766  226-12370 #253-13880  260-14216 *260-14216
                         264-14392 *264-14392 *264-14396  265-14425 *265-14425  266-14459 *266-14459 *266-14464  267-14499
                        *267-14499 *267-14505 *268-14553  270-14640 *270-14640 *270-14686  271-14738 *271-14738 *271-14783
                         277-15128 *277-15128 *277-15143  278-15233 *278-15233 *278-15242  289-16051 *289-16051
PSWW1 	= 000005	#7-288     #48-2204   #80-4024   #82-4348   #86-4617   #145-8240  #176-9383   183-9987  #190-10386
                         191-10559 #253-13880
PSWW10	= 000014	#7-288     #48-2204   #80-4024   #82-4348   #86-4617   #145-8240  #176-9383  #190-10386 #253-13880
PSWW11	= 000015	#7-288     #48-2204   #80-4024   #82-4348   #86-4617   #145-8240  #176-9383  #190-10386 #253-13880
PSWW12	= 000016	#7-288     #48-2204   #80-4024   #82-4348   #86-4617   #145-8240  #176-9383  #190-10386 #253-13880
PSWW13	= 000017	#7-288     #48-2204   #80-4024   #82-4348   #86-4617   #145-8240  #176-9383  #190-10386 #253-13880
PSWW2 	= 000006	#7-288     #48-2204   #80-4024   #82-4348   #86-4617   #145-8240  #176-9383  #190-10386 #253-13880
PSWW3 	= 000007	#7-288     #48-2204   #80-4024   #82-4348   #86-4617   #145-8240  #176-9383  #190-10386 #253-13880
PSWW4 	= 000010	#7-288     #48-2204   #80-4024   #82-4348   #86-4617   #145-8240  #176-9383  #190-10386 #253-13880
PSWW5 	= 000011	#7-288     #48-2204   #80-4024   #82-4348   #86-4617   #145-8240  #176-9383  #190-10386 #253-13880
PSWW6 	= 000012	#7-288     #48-2204   #80-4024   #82-4348   #86-4617   #145-8240  #176-9383  #190-10386 #253-13880
PSWW7 	= 000013	#7-288     #48-2204   #80-4024   #82-4348   #86-4617   #145-8240  #176-9383  #190-10386 #253-13880
PULSE 	= 000020	#7-288     #48-2204   #80-4024   #82-4348   #86-4617   #145-8240  #176-9383  #190-10386 #253-13880
PWRXSP	  001032 RG	#9-494     *83-4420    84-4444
PWR.UP	  020314 RG	 83-4421   #84-4443    84-4445
RSXTOPS10  CREATED BY  MACRO  ON 16-MAY-88 AT 15:48	PAGE 20

SYMBOL CROSS REFERENCE                                  CREF   04.00

SYMBOL	VALUE		REFERENCES

QNDSV 	  023626 R	*124-6809  *124-6835  *124-6836  #124-6865   124-6867
QPRDTC	  025604 RG	#147-8351   147-8361
QPRDTE	  025610 RG	 147-8347   147-8347  #147-8353
QPRDTF	  027466 R	 164-8835  #166-8903   170-8969
QPRDTL	  025666 R	#147-8368   166-8904
QPROAD	  020162 R	*81-4197    81-4294   #81-4295
QPROMS	  020140 R	 81-4199   #81-4293
QPRTPD	  007742 RG	 36-1386   #38-1493
QPRTSK	  007502 RG	#37-1453    37-1455
QSIZE 	= 000023	#7-288     #48-2204   #80-4024   #82-4348   #86-4617   #145-8240  #176-9383   178-9545   180-9797
                         182-9917   184-10039 #190-10386 #253-13880
Q.AK  	= 000012  G	#59-2647    155-8558   155-8558
Q.DA  	= 000000  G	#59-2642    167-8918   175-9290
Q.DZ  	= 000016  G	#59-2649    170-9017   175-9294
Q.D1  	= 000006  G	#58-2636    128-7170
Q.IOAE	= 000012	#81-4294
Q.IOEF	= 000006	#81-4294
Q.IOFN	= 000002	#81-4294
Q.IOLU	= 000004	#81-4294
Q.IOPL	= 000014	#81-4294
Q.IOPR	= 000007	#81-4294
Q.IOSB	= 000010	#81-4294
Q.SI  	= 000004  G	#58-2635   *128-7178   131-7363   131-7373
Q.SP  	= 000006  G	#59-2645    167-8916   167-8916
Q.ST  	= 000004  G	#59-2644    164-8834   164-8834   165-8870   165-8870
Q.SZ  	= 000020  G	#39-1526    39-1560   #59-2650
Q.TS  	= 000002  G	#59-2643    175-9289
RAMIS0	= 010000	#7-288     #48-2204   #80-4024   #82-4348   #86-4617   #145-8240  #176-9383  #190-10386 #253-13880
RCVKLP	  027530 RG	 148-8412  #168-8932
RESERV	  012024 R	 43-1859   #43-1878
RETTOD	  027434 RG	 148-8395  #166-8889
RFMAD0	= 100000	#7-288     #48-2204   #80-4024   #82-4348   #86-4617   #145-8240  #176-9383  #190-10386 #253-13880
RFMAD1	= 040000	#7-288     #48-2204   #80-4024   #82-4348   #86-4617   #145-8240  #176-9383  #190-10386 #253-13880
RFMAD2	= 020000	#7-288     #48-2204   #80-4024   #82-4348   #86-4617   #145-8240  #176-9383  #190-10386 #253-13880
RFMAD3	= 010000	#7-288     #48-2204   #80-4024   #82-4348   #86-4617   #145-8240  #176-9383  #190-10386 #253-13880
RF.XR 	= 000002  G	#63-2756
RM    	= 000010	#7-288     #48-2204   #80-4024   #82-4348   #86-4617   #145-8240  #176-9383  #190-10386 #253-13880
RMBYT 	= 000004	#190-10396 *200-10899 *219-12004 *219-12022 *219-12040
RPBUF 	  005532 RG	#32-1080
RPCNT 	  005536 RG	#32-1082
RPCW2 	  005542 RG	#32-1086
RPHD  	= ******  GX	 36-1364    37-1408    38-1508
RPPEN 	  010332 RG	#40-1596    40-1597
RPRNA 	  005530 RG	#32-1078
RPRTC 	  005526 RG	#32-1076
RPSTK 	= ******  GX	 37-1408
RPTPD 	  010002 RG	 36-1364   #38-1507
RPTSK 	  007242 RG	 37-1403   #37-1407    37-1409    40-1597    40-1603    40-1608    40-1613    40-1618    40-1623
                         40-1628    40-1633
RPUNIT	  005540 RG	#32-1084
RQKLD 	  033134 R	#191-10564  193-10677
RQKLR 	  033116 R	#191-10562  193-10673
RSXTOPS10  CREATED BY  MACRO  ON 16-MAY-88 AT 15:48	PAGE 21

SYMBOL CROSS REFERENCE                                  CREF   04.00

SYMBOL	VALUE		REFERENCES

RQMCR 	  033100 R	#191-10560  193-10669
RQSPB 	  024522 R	 137-7699   137-7720   137-7748  #137-7750
RQSPT 	  024516 RG	 137-7741  #137-7748
RQSTD 	  024534 R	*137-7718   137-7728  #137-7751
RSX$$E	= 000000	#3-101      9-499      86-4559
RSX$$F	= 000101	#3-109     #3-112      3-120      6-192      9-499      46-2053    86-4559    144-8128   189-10192
                         252-13800
RSX$$K	= 000126	#3-105      9-499
RSX$$V	= 000016	#3-100      9-499      86-4559
RTDVST	  027226 RG	 148-8390  #164-8820
RTNTOD	  027202 RG	 148-8394  #163-8796
RUBP  	= 000020	#190-10415  201-10918  219-12009  219-12011  219-12023  219-12025  219-12039
R$$11D	= 000001	#1-47
R.AS  	= 000020  G	#63-2743    259-14154
R.AT  	= 000006  G	#63-2736    259-14150  259-14157  260-14255  260-14272  288-15972
R.DP  	= 000011  G	#63-2738
R.FC  	= 000014  G	#63-2741    124-6810  *124-6820  *124-6823   124-6836   198-10867  198-10870  260-14232 *260-14243
                         260-14245  288-15985 *288-16006
R.FN  	= 000013  G	#63-2740    259-14148
R.LU  	= 000012  G	#63-2739    288-15973
R.PB  	= 000024  G	#63-2745    199-10882  201-10920  201-10922 *212-11456 *260-14239 *260-14240 *260-14241 *260-14254
                         260-14262  260-14263  288-15994  288-15995  288-15996 *288-16004 *288-16005
R.PR  	= 000010  G	#63-2737
R.QSGC	= 000015	#66-2854   #66-2858   #146-8318  #191-10561 #191-10563 #191-10565
R.QSPC	= 000014	#66-2854   #66-2858   #146-8318  #191-10561 #191-10563 #191-10565
R.QSPN	= 000006	#66-2854   #66-2858   #146-8318  #191-10561 #191-10563 #191-10565
R.QSPR	= 000012	#66-2854   #66-2858   #146-8318  #191-10561 #191-10563 #191-10565
R.QSTN	= 000002	#66-2854   #66-2858   #146-8318  #191-10561 #191-10563 #191-10565
R.SB  	= 000016  G	#63-2742    259-14142 *260-14257
R.TD  	= 000004  G	#63-2735    260-14230
R.UI  	= 000022  G	#63-2744
SCD   	= 000040	#7-288     #48-2204   #80-4024   #82-4348   #86-4617   #145-8240  #176-9383  #190-10386 #253-13880
SETDEB	  027570 RG	 148-8415  #169-8953
SETLIN	  026356 RG	 148-8404  #156-8568
SETSPD	  026376 RG	 148-8403  #157-8583
SEXCM 	  022506 R	#110-5839   111-5903
SEXP0 	  022514 R	 109-5790  #110-5842
SEXP1 	  022574 R	 111-5902  #113-5992
SEXP2 	  022476 R	#109-5792   110-5840   112-5950
SEX97 	  022576 R	 109-5788   110-5838   112-5948  #113-5994   114-6036   114-6038   115-6131
SF.EX 	= 000004  G	#52-2409    73-3367    137-7724
SF.FX 	= 000002  G	 36-1332    36-1336    36-1341    36-1364    36-1369    36-1374    36-1379    36-1383    36-1386
                        #52-2408    73-3351    76-3698
SF.IR 	= 040000  G	#52-2410    137-7724
SF.PT 	= 000001  G	#52-2407
SF.ST 	= 100000  G	 36-1332    36-1336    36-1341    36-1355    36-1364    36-1369    36-1374    36-1379    36-1383
                         36-1386   #52-2411
SF.TA 	= 000001  G	 36-1332    36-1336    36-1341    36-1364    36-1374    36-1379    36-1383    36-1386   #52-2406
                         73-3349    73-3402    76-3678    76-3716    76-3776    137-7724
SKX   	  023664 R	 127-7044  #127-7047
SNDALL	  027606 RG	 148-8397  #170-8967
SNDBEL	  037134 RG	 214-11686 #215-11728  217-11831
RSXTOPS10  CREATED BY  MACRO  ON 16-MAY-88 AT 15:48	PAGE 22

SYMBOL CROSS REFERENCE                                  CREF   04.00

SYMBOL	VALUE		REFERENCES

SNDMSG	  013264 RG	*66-2820    66-2844   *66-2850   #66-2889   *169-8954  *169-8958
SNDSTS	  032344 R	 178-9555   178-9555   179-9676   179-9676   180-9813   180-9813   182-9951   182-9951   184-10044
                         184-10044 #185-10069
SPDPAR	  033224 RG	#192-10639  214-11662
SPDTBL	  025244 RG	#146-8324   146-8342   173-9202
SPDTBZ	= 000020	#146-8342   173-9203
SPSAV 	  001020 RG	#9-478     *44-1921
STAT  	= 174434	#7-288     #48-2204   #80-4024   #82-4348   #86-4617   #145-8240  #176-9383  #190-10386 #253-13880
STATD 	= 000034	#3-127     *90-4856    280-15401  280-15428
STATI 	  001344 RG	#12-726     180-9721   182-9940
STATS 	= 000000	#190-10394
STATUS	= 000022	#7-288     #48-2204   #80-4024   #82-4348   #86-4617   #145-8240  #176-9383   180-9716   185-10075
                        #190-10386 #253-13880
STBXFR	  032476 R	 179-9668   179-9668   182-9949   182-9949  #187-10157
STCM  	  046604 R	#275-15057  276-15089
STDCDR	  006776 RG	 36-1280   #36-1378    37-1423
STDDTE	  006436 RG	 36-1282   #36-1331    37-1399
STDDTP	  006536 RG	 36-1284   #36-1340    37-1431
STDFED	  006476 RG	 36-1287   #36-1335    37-1439
STDF11	  006576 RG	 36-1293   #36-1350
STDINS	  006676 RG	 36-1304   #36-1368    137-7740
STDLPT	  006736 RG	 36-1296   #36-1373    37-1416
STDQPR	  007076 RG	 36-1298   #36-1385    37-1454
STDRPT	  006636 RG	 36-1300   #36-1363    37-1408
STDTTY	  007036 RG	 36-1302   #36-1382    37-1403
STDVST	  027226 RG	 148-8391  #164-8819
STELIG	  032110 R	 181-9883  #182-9948
STELIX	  032132 R	 181-9866   182-9927  #182-9953
STIND2	  030710 R	 178-9504  #178-9530
STLN  	  046640 R	 275-15050  275-15050  276-15087  276-15087 #276-15094
STNXT 	  034722 R	 203-11012  203-11024  204-11036  204-11045 #205-11071
STPLIN	  026604 RG	 148-8407  #158-8638
STRBF 	= 000002	#190-10395 *200-10900  219-12018  219-12041
STRDAT	  027226 RG	 148-8388  #164-8821
STSTT 	  001326 RG	#12-712     12-715     12-716    *178-9511  *178-9553  *179-9675  *180-9812  *182-9950   185-10071
STSWD 	  005610 RG	#33-1108
STSW0 	= 000004  G	#190-10423  214-11666  216-11776  222-12211  223-12249 *224-12284 *225-12326 *225-12327  226-12415
                        *227-12468 *227-12474 *231-12611 *232-12716  232-12724  232-12752  233-12880 *240-13314 *245-13554
                         246-13605 *246-13611
STSW1 	= 000006  G	*152-8466  *152-8469  *152-8472   154-8508   154-8532  *154-8534   154-8535  *154-8537  *157-8620
                        *157-8625  *157-8626   158-8642   170-9030   170-9043   170-9045   170-9050  *170-9055  *170-9106
                        #190-10428  198-10843  198-10847  202-10948 *202-10960  202-10961  203-11001 *203-11003  203-11004
                        *203-11005 *203-11022 *203-11023  205-11073  205-11075  205-11082 *205-11087  205-11093  207-11135
                        *207-11137  207-11138  207-11150  207-11155 *208-11181  209-11206  210-11240  210-11248 *212-11415
                         214-11607  214-11612 *214-11614  214-11621  214-11624 *214-11626 *214-11634 *214-11655 *214-11658
                         214-11677 *214-11680 *214-11687  214-11695  214-11699 *214-11701 *214-11702 *214-11707  214-11711
                        *214-11713  214-11716  215-11729  217-11820  217-11823  217-11834  218-11897 *218-11920 *218-11947
                         223-12241 *223-12243  223-12247  223-12251  226-12385 *226-12414  226-12417 *226-12423 *226-12430
                         228-12510  229-12538  231-12595 *231-12615  232-12688  232-12690 *232-12692  233-12868  233-12873
                        *233-12883  233-12894  234-13000  234-13002 *234-13009  234-13011  237-13162  237-13164  237-13166
                        *237-13186  239-13239  239-13241  239-13244 *239-13278 *240-13312 *240-13325  242-13394  245-13517
                         246-13617  247-13668  273-14868  273-14906  273-14919  273-14926  274-14970  274-15001  274-15006
RSXTOPS10  CREATED BY  MACRO  ON 16-MAY-88 AT 15:48	PAGE 23

SYMBOL CROSS REFERENCE                                  CREF   04.00

SYMBOL	VALUE		REFERENCES

                         274-15008
STSW2 	  005066 RG	#29-1037    249-13751
STTYDN	  034536 R	 202-10964  202-10964 #203-11000  210-11304
STTYO 	  035132 R	 207-11139 #207-11142  210-11298  210-11298  210-11307
STXAS 	= 000000  G	#49-2272    67-3155
STXCS 	= 000000  G	#49-2273
STXDX 	= 000000  G	 8-357     #49-2274
SWR   	= 177570	#7-288     #48-2204   #80-4024   #82-4348   #86-4617   #145-8240  #176-9383  #190-10386 #253-13880
SWSLLT	= 100000	#7-288     #48-2204   #80-4024   #82-4348   #86-4617   #145-8240  #176-9383  #190-10386 #253-13880
SY0PUD	  011272 RG	#40-1673
S.BA  	= 000012  G	#52-2389    76-3711    260-14247
S.DI  	= 000011  G	#52-2388    76-3759
S.DL  	= 000032  G	#52-2397    76-3744    76-3745    260-14239  260-14241
S.DP  	= 000010  G	#52-2387    76-3688    137-7725
S.FW  	= 000006  G	#52-2386   *73-3349    73-3351    73-3367   *73-3402    76-3678    76-3698   *76-3716   *76-3776
                         139-7856
S.LZ  	= 000014  G	#52-2390    76-3742
S.PC  	= 000020  G	#52-2392    76-3703
S.RB  	= 000026  G	#52-2395    128-7180
S.RF  	= 000024  G	#52-2394    131-7331   137-7725
S.SP  	= 000022  G	#52-2393    76-3701    76-3708
S.SS  	= 000030  G	 43-1830   #52-2396    67-2921    67-3089   *72-3336   *133-7495
S.SZ  	= 000036  G	#52-2400
S.TD  	= 000004  G	#52-2385    76-3685
S.TN  	= 000000  G	#52-2383    131-7378   131-7379   139-7866   139-7867
S.TZ  	= 000016  G	#52-2391    77-3833
S0.ABR	= 100000  G	#190-10432  190-10436  224-12284
S0.CON	= 040000  G	#190-10433  190-10436  214-11666  226-12415  227-12468  227-12474
S0.ISP	= 001700  G	#190-10434  190-10437  222-12212
S0.MSK	= 140000  G	#190-10436  225-12318  225-12326  233-12881  240-13314  246-13606
S0.OSP	= 036000  G	#190-10435  190-10437
S0.SPD	= 037700  G	#190-10437
S2.CHR	= 000377  G	#190-10486
S2.CNT	= 001400  G	#190-10484  245-13557  246-13628
S2.DDN	= 100000  G	#190-10477  233-12878  240-13317  240-13320  242-13398  243-13438  245-13511  245-13558  246-13592
                         246-13628
S2.DIP	= 040000  G	#190-10478  213-11492  217-11848  233-12878  240-13317  242-13398  243-13438  245-13511  245-13536
                         245-13557  246-13592  246-13595
S2.DIS	= 020000  G	#190-10479  240-13317  244-13471  245-13522  245-13534  246-13636
S2.ENB	= 010000  G	#190-10480  240-13317  244-13468  245-13523  246-13628  246-13635
S2.LCL	= 004000  G	#190-10481  235-13070  242-13400  243-13429  243-13434  243-13443  245-13530  245-13548  245-13559
                         246-13619  246-13625  246-13628
S2.RES	= 002000  G	#190-10482
S2.SSZ	= 001000  G	#190-10483  241-13362  245-13544
TBIT  	= 000020  G	#49-2270
TEDXIT	  031342 R	 179-9669  #179-9677
TENAD1	= 174410	#7-288     #48-2204   #80-4024   #82-4348   #86-4617   #145-8240  #176-9383  #190-10386 #253-13880
TENAD2	= 174412	#7-288     #48-2204   #80-4024   #82-4348   #86-4617   #145-8240  #176-9383  #190-10386 #253-13880
TF.OU 	= 000002  G	 38-1469    38-1473    38-1477    38-1481    38-1485    38-1490    38-1494    38-1498    38-1508
                        #50-2351    73-3358    73-3388    76-3720    76-3748    76-3757
THRED 	= 000000  G	#190-10421
TMOCNT	  002670 RG	#17-915    *194-10696 *194-10698 *194-10702 *194-10704
RSXTOPS10  CREATED BY  MACRO  ON 16-MAY-88 AT 15:48	PAGE 24

SYMBOL CROSS REFERENCE                                  CREF   04.00

SYMBOL	VALUE		REFERENCES

TNAD1 	= 000010	#3-133     *81-4072   *81-4100   *81-4114   *81-4141   *81-4152   *81-4158   *81-4177   *81-4202
                        *81-4229   *81-4283   *97-5203   *178-9547  *180-9715  *180-9799  *182-9919  *184-10040 *185-10077
                         281-15550 *282-15584 *282-15600
TNAD2 	= 000012	#3-134     *81-4073   *81-4101   *81-4115   *81-4142   *81-4153   *81-4159   *81-4178   *81-4203
                        *81-4230   *81-4284   *97-5204   *178-9548  *180-9718  *180-9800  *182-9920  *184-10041 *185-10078
                        *282-15585 *282-15601
TN.EMT	= 000012  G	#58-2629    67-2926
TN.LRF	= 000040  G	#58-2631    71-3299
TN.TRP	= 000014  G	#58-2630    67-3093
TOBM  	= 000004	#7-288     #48-2204   #80-4024   #82-4348   #86-4617   #145-8240  #176-9383   178-9511   178-9553
                         182-9940  #190-10386 #253-13880
TOIP  	= 000002	#7-288     #48-2204   #80-4024   #82-4348   #86-4617   #145-8240  #176-9383   178-9511   178-9553
                         180-9770  #190-10386 #253-13880
TOIT  	= 000001	#7-288     #48-2204   #80-4024   #82-4348   #86-4617   #145-8240  #176-9383   179-9675   180-9812
                         182-9950  #190-10386 #253-13880
TOITDN	  031330 R	 179-9627   179-9651  #179-9674
TOXQIP	  001401 RG	#12-765    *81-4274   *178-9520   184-10022 *184-10046
TO10  	= 000200	#7-288     #48-2204   #80-4024   #82-4348   #86-4617   #145-8240  #176-9383  #190-10386 #253-13880
TO10AD	= 174420	#7-288     #48-2204   #80-4024   #82-4348   #86-4617   #145-8240  #176-9383  #190-10386 #253-13880
TO10AS	  001324 RG	#12-708     178-9492  *178-9501  *178-9543  *184-10036
TO10BC	= 174414	#7-288     #48-2204   #80-4024   #82-4348   #86-4617   #145-8240  #176-9383  #190-10386 #253-13880
TO10BM	= 000001	#7-288     #48-2204   #80-4024   #82-4348   #86-4617   #145-8240  #176-9383  #190-10386 #253-13880
TO10DB	= 000400	#7-288      44-1962   #48-2204   #80-4024    81-4118    81-4162    81-4206    81-4287   #82-4348
                         85-4542   #86-4617   #145-8240  #176-9383   178-9561   184-10045 #190-10386 #253-13880
TO10DN	= 100000	#7-288     #48-2204   #80-4024   #82-4348   #86-4617   #145-8240  #176-9383   177-9434  #190-10386
                        #253-13880
TO10DT	= 174424	#7-288     #48-2204   #80-4024   #82-4348   #86-4617   #145-8240  #176-9383  #190-10386 #253-13880
TO10ER	= 020000	#7-288     #48-2204   #80-4024   #82-4348   #86-4617   #145-8240  #176-9383   177-9434  #190-10386
                        #253-13880
TO10PK	  005614 RG	#33-1110
TO10Q 	  001334 RG	#12-718     81-4248    81-4249    147-8374   147-8375   178-9502   178-9521   178-9522   278-15234
                         278-15240  279-15280  279-15291
TO10QC	= 001332 RG	#12-715    *81-4262    180-9789  *180-9791   180-9792   181-9869
TO10SZ	  001322 RG	#12-706     178-9491  *178-9541  *184-10033
TO11  	= 000100	#7-288     #48-2204   #80-4024   #82-4348   #86-4617   #145-8240  #176-9383  #190-10386 #253-13880
TO11AD	= 174422	#7-288     #48-2204   #80-4024   #82-4348   #86-4617   #145-8240  #176-9383  #190-10386 #253-13880
TO11AS	  001316 RG	#12-702     179-9603  *187-10159
TO11BC	= 174416	#7-288     #48-2204   #80-4024   #82-4348   #86-4617   #145-8240  #176-9383  #190-10386 #253-13880
TO11BM	= 020000	#7-288     #48-2204   #80-4024   #82-4348   #86-4617   #145-8240  #176-9383   179-9599   179-9667
                         181-9882   182-9944  #190-10386 #253-13880
TO11BS	  001320 RG	#12-704     179-9596   179-9599  *187-10158
TO11DB	= 004000	#7-288     #48-2204   #80-4024    81-4085    81-4130   #82-4348   #86-4617   #145-8240  #176-9383
                         177-9446  #190-10386 #253-13880
TO11DN	= 000200	#7-288     #48-2204   #80-4024   #82-4348   #86-4617   #145-8240  #176-9383   177-9440  #190-10386
                        #253-13880
TO11DT	= 174426	#7-288     #48-2204   #80-4024   #82-4348   #86-4617   #145-8240  #176-9383  #190-10386 #253-13880
TO11DV	  001306 RG	#12-693    *179-9634   179-9635   188-10185
TO11ER	= 000002	#7-288     #48-2204   #80-4024   #82-4348   #86-4617   #145-8240  #176-9383   177-9440  #190-10386
                        #253-13880
TO11FN	  001304 RG	#12-691    *179-9611   179-9640   179-9645  *179-9657   180-9772  *182-9947   188-10183
TO11FW	  001312 RG	#12-697     188-10186
TO11GW	  001314 RG	#12-700
RSXTOPS10  CREATED BY  MACRO  ON 16-MAY-88 AT 15:48	PAGE 25

SYMBOL CROSS REFERENCE                                  CREF   04.00

SYMBOL	VALUE		REFERENCES

TO11HD	  001302 RG	#12-689    *179-9633   179-9658   181-9881   188-10184
TO11NP	  001300 RG	#12-687     179-9617   179-9648   179-9654   182-9931  *186-10133
TO11Q 	  001342 RG	#12-724     147-8360  *147-8362   179-9618   184-10019  186-10114
TO11QC	= 001333 RG	#12-716    *184-10043
TO11SP	  001310 RG	#12-695
TRPASV	  001120 RG	#9-512     *43-1815   *43-1816    43-1832    43-1840    43-1853   *67-2926   *67-3093
TRPXIT	  011726 R	#43-1847    43-1875
TRP4  	  011754 R	 43-1858   #43-1863
TS.EXT	= 000026  G	#69-3252    122-6498
TS.LRF	= 000006  G	#69-3234
TS.LRQ	= 000002  G	#69-3230    76-3753    76-3772
TS.RUN	= 000010  G	 37-1399    37-1403    37-1408    37-1416    37-1423    37-1431    37-1439    37-1454    37-1458
                        #69-3236    70-3293    72-3313    76-3705    127-7110
TS.SUS	= 000012  G	#69-3238    127-7108
TS.TKN	= 000004  G	 43-1841   #69-3232    71-3300
TS.WF0	= 000014  G	#69-3240    114-6052   115-6144
TS.WF1	= 000016  G	#69-3244
TS.WF2	= 000020  G	#69-3246
TS.WF3	= 000022  G	#69-3248
TS.WF4	= 000024  G	#69-3250    115-6133
TTCNT 	= 000205  G	#28-1021    29-1038    39-1530    39-1542    213-11489
TTCTY 	  037716 R	 217-11875 #219-11953
TTINI 	  033244 RG	 191-10542  191-10542 #193-10658  201-10933
TTINO 	  034406 R	 198-10835 #201-10932
TTINPA	  037230 R	#216-11771  218-11934
TTINPB	  037430 R	 214-11649  214-11704  214-11708  214-11712  215-11730  215-11739  216-11775  216-11777  217-11818
                         217-11824  217-11828  217-11851 #217-11855  217-11871
TTINX 	  034402 R	 198-10844  198-10848  198-10852 #201-10930
TTOUTR	  035226 R	 205-11074  205-11094  207-11151  207-11156 #208-11182
TTOUTX	  035220 R	 206-11124 #208-11180  212-11436
TTPEN 	  010262 RG	#40-1582    40-1583    65-2807    81-4048    147-8347   191-10542  201-10914
TTPKT 	  002740 RG	#18-932     198-10834 *198-10861  199-10880 *199-10887  212-11454
TTSAV 	  040402 R	 207-11134  216-11767 #220-12129  226-12371
TTSTCH	  037254 R	 214-11669  214-11681  214-11688  214-11718  214-11725 #217-11814
TTTBL 	  003004 RG	#20-974     28-1021    29-1032    39-1530    39-1542    162-8758   213-11488  220-12141  227-12479
                         232-12741  232-12757  235-13076  249-13748
TTTMSG	  012402 R	 44-1915   #44-1997
TTWLO 	  033060 R	#191-10556  193-10659
TTYDNE	  035514 R	#210-11289  212-11458
TTYDNX	  035560 R	 210-11293 #210-11301
TTYEND	= 005054 RG	#28-1022    170-9058   233-12913  235-13074
TTYEXP	= 000002  G	 170-9028   170-9052   175-9305  #190-10422  202-10955  210-11297  212-11411  212-11419  220-12143
                         221-12174  231-12597  232-12656  232-12667 *232-12707  233-12839 *233-12928  234-12992  273-14890
                         273-14934
TTYHD 	  032544 RG	 36-1383    37-1403    38-1481   #191-10541
TTYSP 	  033024 RG	 37-1403    191-10542 #191-10542
TTYTPD	  007662 RG	 36-1383   #38-1480
TTYTSK	  007202 RG	 15-831     15-836     37-1399   #37-1402    37-1404    40-1583   *210-11290 *217-11869 *218-11911
                        *224-12290 *231-12603
TT.ABL	= 000040  G	 154-8532   157-8625  #190-10468  214-11607  214-11677  214-11695  223-12241  223-12247  226-12417
                         233-12868
TT.ABW	= 000010  G	 154-8537   157-8625   170-9043  #190-10470  214-11621  214-11655  214-11702  226-12423  231-12615
RSXTOPS10  CREATED BY  MACRO  ON 16-MAY-88 AT 15:48	PAGE 26

SYMBOL CROSS REFERENCE                                  CREF   04.00

SYMBOL	VALUE		REFERENCES

                         234-13000  240-13312  273-14906
TT.BRK	= 004000  G	 157-8626  #190-10457  214-11680  214-11699  214-11701  214-11707
TT.CRW	= 000004  G	#190-10471  217-11823  218-11920  218-11947  226-12414  226-12430  231-12615  232-12688  234-13000
TT.CTY	= 000002  G	 20-976     154-8508   158-8642   170-9045  #190-10472  202-10961  207-11138  209-11206  217-11820
                         237-13166  239-13244  242-13394  273-14868  273-14926  274-14970  274-15001
TT.FEC	= 014000  G	#190-10450  214-11687  214-11717  240-13325
TT.FEI	= 004000  G	#190-10451  214-11713
TT.IGN	= 010000  G	 154-8534   157-8626  #190-10456  214-11612  214-11614  214-11634  214-11655  214-11658
TT.LSP	= 020000  G	 154-8534   157-8626  #190-10455  214-11624  214-11626  214-11634  214-11701  223-12243  223-12251
                         233-12894
TT.NSA	= 000400  G	 152-8462   170-9030   170-9043  #190-10461  205-11082  231-12615  240-13312
TT.OUT	= 000001  G	 170-9050  #190-10473  198-10843  198-10847  202-10948  202-10960  205-11073  207-11135  207-11137
                         207-11150  208-11181  210-11240  210-11248  212-11415  215-11729  239-13241  240-13312  245-13517
                         246-13617  247-13668  273-14919  274-15006
TT.RIP	= 002000  G	#190-10459  218-11920  218-11947  226-12414  226-12423  226-12430  231-12615  232-12690  232-12692
                         234-13002  234-13009
TT.RMT	= 000100  G	 20-978     20-979     20-980     20-981     154-8535   157-8620  #190-10467  218-11897  226-12385
                         228-12510  229-12538  231-12595  234-13011
TT.RSI	= 020000  G	#190-10449  214-11711  233-12873  233-12883  240-13312
TT.SIP	= 001000  G	 170-9055  #190-10460  203-11001  203-11003  205-11087  237-13164  239-13241  240-13312  274-15008
TT.SND	= 140000  G	#190-10443  240-13312
TT.SNI	= 040000  G	 170-9106  #190-10444  203-11005
TT.XEN	= 000020  G	 151-8451   152-8467  #190-10469  217-11834  240-13325
TT.XOF	= 000200  G	 152-8469  #190-10465  237-13186  239-13278  240-13325  273-14919
T.BA  	= 000004  G	#50-2339
T.FW  	= 000010  G	#50-2341   *73-3358    73-3388    76-3720    76-3748   *76-3757
T.HBCT	= 000002  G	*186-10132 #190-10491 *236-13113  271-14728
T.HCAD	= 000004  G	*171-9142  *171-9143  #190-10492  204-11040 *204-11041  206-11117  208-11177 *208-11178 *239-13262
                         239-13263
T.HCBC	= 000006  G	#190-10493  204-11039 *204-11044  206-11118 *207-11145  239-13260 *239-13264 *274-14992
T.HFCN	= 000007  G	#190-10494 *273-14900
T.HHDS	= 000010  G	 165-8853   165-8861   171-9143  #190-10495
T.HP  	= 000012  G	#50-2342
T.HRED	= 000000  G	#190-10490
T.PN  	= 000000  G	#50-2337    139-7864   139-7865   141-7975   141-7976
T.PZ  	= 000006  G	#50-2340    77-3835    139-7853
T.RAPB	= 000004  G	#62-2713
T.RAPE	= 000012  G	#62-2716    67-2923
T.RAPF	= 000016  G	#62-2718
T.RAPI	= 000006  G	#62-2714
T.RAPM	= 000002  G	#62-2712
T.RAPR	= 000010  G	#62-2715
T.RAPT	= 000014  G	#62-2717    67-3091
T.RAP4	= 000000  G	#62-2711
T.RB  	= 000016  G	#50-2344
T.RF  	= 000014  G	#50-2343    73-3391    76-3782
T.SZ  	= 000020  G	#50-2346    77-3828    141-7984
T10AD 	= 000020	#3-131      178-9493  *178-9544  *184-10035
T11AD 	= 000022	#3-130      179-9604   179-9606  *187-10160
T11BC 	= 000016	#3-132     *187-10161
U     	= 000040	#8-422     #8-427      8-430
UC.CCL	= 000002  G	 40-1583    40-1665   #57-2595
RSXTOPS10  CREATED BY  MACRO  ON 16-MAY-88 AT 15:48	PAGE 27

SYMBOL CROSS REFERENCE                                  CREF   04.00

SYMBOL	VALUE		REFERENCES

UC.COM	= 020000  G	#57-2606
UC.DIR	= 000010  G	#57-2597
UC.ETB	= 000100  G	#57-2600
UC.F11	= 040000  G	#57-2607
UC.INB	= 000400  G	#57-2601
UC.ISP	= 002000  G	#57-2603
UC.MNT	= 100000  G	#57-2608
UC.PSE	= 010000  G	#57-2605
UC.REC	= 000001  G	 40-1583    40-1665   #57-2594
UC.SDI	= 000020  G	#57-2598
UC.SQD	= 000040  G	#57-2599
UC.SWL	= 001000  G	#57-2602
UC.TTY	= 000004  G	 40-1583   #57-2596
UC.0SP	= 004000  G	#57-2604
UF.OFL	= 000040  G	#57-2590
UF.RD 	= 000040  G	#57-2587
UF.RH 	= 000200  G	 40-1670   #57-2588
UF.TL 	= 000100  G	#57-2589
UNASG1	= 000032	#7-288     #48-2204   #80-4024   #82-4348   #86-4617   #145-8240  #176-9383  #190-10386 #253-13880
UNASG2	= 000033	#7-288     #48-2204   #80-4024   #82-4348   #86-4617   #145-8240  #176-9383  #190-10386 #253-13880
UNASG3	= 000034	#7-288     #48-2204   #80-4024   #82-4348   #86-4617   #145-8240  #176-9383  #190-10386 #253-13880
UNASG4	= 000035	#7-288     #48-2204   #80-4024   #82-4348   #86-4617   #145-8240  #176-9383  #190-10386 #253-13880
UNASG5	= 000036	#7-288     #48-2204   #80-4024   #82-4348   #86-4617   #145-8240  #176-9383  #190-10386 #253-13880
UNASG6	= 000037	#7-288     #48-2204   #80-4024   #82-4348   #86-4617   #145-8240  #176-9383  #190-10386 #253-13880
UNRGFN	  026034 RG	 148-8387   148-8393   148-8405  #149-8427
UPAR0 	= 177640	#49-2245
UPAR1 	= 177642	#49-2246
UPAR2 	= 177644	#49-2247
UPAR3 	= 177646	#49-2248
UPAR4 	= 177650	#49-2249
UPAR5 	= 177652	#49-2250
UPAR6 	= 177654	#49-2251
UPAR7 	= 177656	#49-2252
UPDR0 	= 177600	#49-2254
UPDR1 	= 177602	#49-2255
UPDR2 	= 177604	#49-2256
UPDR3 	= 177606	#49-2257
UPDR4 	= 177610	#49-2258
UPDR5 	= 177612	#49-2259
UPDR6 	= 177614	#49-2260
UPDR7 	= 177616	#49-2261
UT.LG 	= 000004  G	#57-2623
UT.PR 	= 000001  G	#57-2621
UT.SL 	= 000002  G	#57-2622
U.ACP 	= 000040  G	#57-2577    124-6816
U.AF  	= 000014  G	#57-2559    201-10914 *260-14272 *260-14282
U.AR  	= 000034  G	#57-2575
U.CH  	= 000032  G	#57-2573
U.C1  	= 000004  G	#57-2555
U.C2  	= 000006  G	#57-2556
U.C3  	= 000010  G	#57-2557
U.C4  	= 000012  G	#57-2558
RSXTOPS10  CREATED BY  MACRO  ON 16-MAY-88 AT 15:48	PAGE 28

SYMBOL CROSS REFERENCE                                  CREF   04.00

SYMBOL	VALUE		REFERENCES

U.DACP	= 000036  G	#57-2576
U.DN  	= 000000  G	#57-2552
U.FB  	= 000003  G	#57-2554
U.FO  	= 000043  G	#57-2580
U.GC  	= 000031  G	#57-2571
U.HA  	= 000020  G	#57-2561    124-6803
U.LBH 	= 000044  G	#57-2581
U.LBN 	= 000046  G	#57-2582
U.PC  	= 000030  G	#57-2570
U.PR  	= 000042  G	#57-2579
U.RB  	= 000024  G	#57-2563
U.RF  	= 000022  G	#57-2562    76-3764    124-6850   260-14215  260-14223  260-14223  260-14266 *260-14272 *260-14282
U.RP  	= 000016  G	#57-2560    78-3904
U.SZ  	= 000050  G	 36-1355   #57-2583    76-3761    103-5465   260-14211  260-14222  260-14223
U.TF  	= 000042  G	#57-2578
U.UI  	= 000030  G	#57-2569
U.UN  	= 000002  G	#57-2553    103-5461   260-14266
U.VA  	= 000026  G	#57-2568
U.VP  	= 000032  G	#57-2572
WEP   	= 000010	#7-288     #48-2204   #80-4024   #82-4348   #86-4617   #145-8240  #176-9383  #190-10386 #253-13880
WFXSET	  014212 R	 70-3285    70-3287    70-3289   #70-3292
WI.WRV	= 001000	 288-15988
WTLODT	  025220 R	#146-8314   147-8354
W.VBN 	  000006	 289-16061
XOFF  	  026730 RG	 148-8401  #160-8702
XON   	  026744 RG	 148-8402  #161-8731
X.X94 	  016100 R	 77-3827   #77-3846
X.X95 	  016102 R	 77-3842   #77-3847
X8X97 	  044374 RG	 255-13954 #255-13973
X9X96 	  016156 R	 78-3898   #78-3914
ZSTOP 	= 040000	#7-288     #48-2204   #80-4024   #82-4348   #86-4617   #145-8240  #176-9383  #190-10386 #253-13880
$BTMSK	  002650 RG	#17-893     212-11429
$CDINT	= ******  GX	 8-396
$CD11 	= 000001	#1-39       33-1132    36-1279    36-1316    36-1376    37-1421    38-1487
$DBDTE	= 000001	#1-45       12-699
$DHINP	  036370 RG	 8-426      8-426      8-426      8-426      8-426      8-426      8-426      8-426     #214-11577
$DHOUT	  034412 RG	 8-426      8-426      8-426      8-426      8-426      8-426      8-426      8-426     #202-10941
$DH11 	= 000001	#1-43
$DIV  	= ******  GX	 107-5666   107-5666   107-5670   107-5670
$DMINT	  040756 RG	 8-426      8-426      8-426      8-426      8-426      8-426      8-426      8-426     #226-12369
$DORBL	  021104 RG	 87-4678   #88-4707
$DPMYG	  021536 RG	 87-4681   #91-4924
$DPMYN	  021606 RG	 87-4684   #94-5042
$DSW  	= 000046  G	#49-2263   *67-3108    74-3459    74-3474
$DTA  	= 000001	#1-55       8-386      29-1039    36-1283    36-1325    36-1338    36-1354    37-1429    38-1495
                         40-1639
$DTE  	= 000001	#1-46       85-4541
$DTEDR	= ******	 15-843     67-3013    88-4708    256-14013
$DTEOF	  021106 RG	 87-4679   #89-4748
$DTEON	  021114 RG	 87-4680   #90-4789
$DTINT	= ******  GX	 8-387
$EXHSG	  021614 RG	 87-4685   #95-5077
RSXTOPS10  CREATED BY  MACRO  ON 16-MAY-88 AT 15:48	PAGE 29

SYMBOL CROSS REFERENCE                                  CREF   04.00

SYMBOL	VALUE		REFERENCES

$EXHSM	  021622 RG	 87-4686   #96-5111
$EXMYG	  021570 RG	 87-4682   #92-4972
$EXMYN	  021600 RG	 87-4683   #93-5008
$FE   	= 000001	#1-41       36-1286    36-1322    36-1333    37-1437    38-1474    40-1667
$F11  	= 000001	#1-42       36-1292    36-1303    36-1307    36-1348    36-1366    38-1466    38-1510    66-2825
                         288-15935
$KLDFC	  022010 RG	 97-5187   #97-5195
$KLDFR	  021630 RG	 87-4687   #97-5149
$KLDFW	  021770 RG	 87-4688   #97-5189
$KLDFX	  021746 RG	 87-4689   #97-5181
$LPINT	= ******  GX	 8-444      8-445
$LP20 	= 000001	#1-37       8-443      34-1177    36-1295    36-1310    36-1371    37-1414    38-1482    40-1662
$MUL  	= ******  GX	 81-4057    81-4057
$PRVDP	  022066 RG	 87-4691   #98-5237
$PRVEX	  022102 RG	 87-4690   #99-5267
$RP04 	= 000001	#1-40       36-1299    36-1313    36-1361    37-1406    38-1505    40-1595
$RWDRG	  022136 RG	 87-4692   #100-5307
$RX11 	= ******	 8-407      30-1056    36-1289    36-1319    36-1343    36-1351    37-1445    38-1500    40-1649
$TOP10	= 000001	#1-35       1-53       3-110      40-1678    56-2517    66-2880
$TOP20	= ******	 1-61       3-117      40-1674
$TTINP	  037210 RG	 8-366      8-416      8-434      8-437      8-440     #216-11765
$TTOUT	  035064 RG	 8-367      8-417      8-435      8-438      8-441     #207-11132
$T1091	= ******	 1-49       1-54       3-111      40-1679
$UNIT 	  002646 RG	#17-891     212-11424
$$    	= 000037	#44-1914    44-1914   #44-1916    44-1916   #44-1923    44-1923   #44-1926    44-1926   #44-1941
                         44-1941   #66-2847    66-2847   #66-2849    66-2849   #73-3364    73-3364   #73-3366    73-3366
                        #73-3386    73-3386   #73-3392    73-3392   #73-3400    73-3400   #73-3403    73-3403   #75-3650
                         75-3650   #76-3692    76-3692   #76-3724    76-3724   #76-3729    76-3729   #76-3765    76-3765
                        #76-3768    76-3768   #76-3783    76-3783   #79-3935    79-3935   #79-3950    79-3950   #81-4057
                         81-4057   #81-4074    81-4074   #81-4093    81-4093   #81-4102    81-4102   #81-4116    81-4116
                        #81-4144    81-4144   #81-4154    81-4154   #81-4160    81-4160   #81-4168    81-4168   #81-4170
                         81-4170   #81-4179    81-4179   #81-4204    81-4204   #81-4217    81-4217   #81-4221    81-4221
                        #81-4225    81-4225   #81-4231    81-4231   #81-4251    81-4251   #81-4258    81-4258   #81-4285
                         81-4285   #81-4288    81-4288   #84-4453    84-4453   #84-4454    84-4454   #84-4469    84-4469
                        #85-4509    85-4509   #85-4512    85-4512   #85-4513    85-4513   #85-4514    85-4514   #89-4761
                         89-4761   #90-4795    90-4795   #90-4806    90-4806   #90-4816    90-4816   #90-4823    90-4823
                        #90-4863    90-4863   #90-4870    90-4870   #90-4890    90-4890   #91-4932    91-4932   #97-5152
                         97-5152   #97-5184    97-5184   #97-5192    97-5192   #97-5208    97-5208   #99-5275    99-5275
                        #103-5434   103-5434  #105-5575   105-5575  #107-5666   107-5666  #107-5670   107-5670  #109-5780
                         109-5780  #110-5830   110-5830  #111-5889   111-5889  #111-5893   111-5893  #112-5940   112-5940
                        #114-6042   114-6042  #118-6270   118-6270  #120-6410   120-6410  #124-6683   124-6683  #124-6706
                         124-6706  #124-6751   124-6751  #124-6833   124-6833  #124-6838   124-6838  #124-6842   124-6842
                        #124-6852   124-6852  #124-6854   124-6854  #126-6955   126-6955  #126-6965   126-6965  #127-7038
                         127-7038  #127-7053   127-7053  #127-7059   127-7059  #127-7084   127-7084  #128-7154   128-7154
                        #128-7165   128-7165  #128-7181   128-7181  #131-7339   131-7339  #131-7348   131-7348  #131-7365
                         131-7365  #131-7387   131-7387  #137-7665   137-7665  #137-7673   137-7673  #137-7693   137-7693
                        #137-7707   137-7707  #137-7715   137-7715  #137-7742   137-7742  #143-8100   143-8100  #143-8106
                         143-8106  #143-8113   143-8113  #147-8377   147-8377  #152-8465   152-8465  #153-8486   153-8486
                        #153-8494   153-8494  #153-8496   153-8496  #154-8506   154-8506  #154-8517   154-8517  #154-8529
                         154-8529  #154-8531   154-8531  #154-8539   154-8539  #154-8546   154-8546  #155-8557   155-8557
                        #155-8558   155-8558  #156-8570   156-8570  #157-8585   157-8585  #157-8590   157-8590  #157-8611
                         157-8611  #157-8618   157-8618  #157-8621   157-8621  #157-8629   157-8629  #158-8640   158-8640
RSXTOPS10  CREATED BY  MACRO  ON 16-MAY-88 AT 15:48	PAGE 30

SYMBOL CROSS REFERENCE                                  CREF   04.00

SYMBOL	VALUE		REFERENCES

                        #158-8648   158-8648  #158-8651   158-8651  #158-8655   158-8655  #159-8672   159-8672  #159-8677
                         159-8677  #160-8703   160-8703  #160-8705   160-8705  #161-8732   161-8732  #161-8735   161-8735
                        #162-8762   162-8762  #162-8772   162-8772  #162-8782   162-8782  #162-8787   162-8787  #164-8832
                         164-8832  #164-8834   164-8834  #165-8855   165-8855  #165-8868   165-8868  #165-8870   165-8870
                        #165-8879   165-8879  #166-8902   166-8902  #167-8914   167-8914  #167-8916   167-8916  #167-8921
                         167-8921  #170-8968   170-8968  #170-9033   170-9033  #170-9035   170-9035  #170-9054   170-9054
                        #170-9104   170-9104  #171-9134   171-9134  #175-9332   175-9332  #178-9510   178-9510  #178-9516
                         178-9516  #178-9519   178-9519  #178-9524   178-9524  #178-9549   178-9549  #178-9555   178-9555
                        #179-9626   179-9626  #179-9649   179-9649  #179-9655   179-9655  #179-9668   179-9668  #179-9676
                         179-9676  #180-9719   180-9719  #180-9743   180-9743  #180-9753   180-9753  #180-9780   180-9780
                        #180-9801   180-9801  #180-9808   180-9808  #180-9813   180-9813  #181-9863   181-9863  #181-9871
                         181-9871  #182-9921   182-9921  #182-9924   182-9924  #182-9932   182-9932  #182-9949   182-9949
                        #182-9951   182-9951  #184-10042  184-10042 #184-10044  184-10044 #185-10079  185-10079 #186-10130
                         186-10130 #194-10699  194-10699 #194-10700  194-10700 #194-10705  194-10705 #195-10718  195-10718
                        #195-10720  195-10720 #195-10724  195-10724 #196-10790  196-10790 #196-10813  196-10813 #197-10821
                         197-10821 #197-10824  197-10824 #197-10827  197-10827 #198-10851  198-10851 #199-10885  199-10885
                        #201-10929  201-10929 #202-10943  202-10943 #202-10964  202-10964 #202-10974  202-10974 #202-10976
                         202-10976 #204-11048  204-11048 #205-11072  205-11072 #207-11134  207-11134 #207-11148  207-11148
                        #207-11149  207-11149 #209-11220  209-11220 #209-11226  209-11226 #210-11291  210-11291 #210-11298
                         210-11298 #213-11481  213-11481 #213-11491  213-11491 #213-11494  213-11494 #213-11507  213-11507
                        #213-11508  213-11508 #213-11517  213-11517 #213-11519  213-11519 #214-11579  214-11579 #214-11591
                         214-11591 #214-11647  214-11647 #214-11663  214-11663 #214-11664  214-11664 #214-11665  214-11665
                        #214-11684  214-11684 #214-11703  214-11703 #214-11721  214-11721 #214-11724  214-11724 #216-11767
                         216-11767 #217-11840  217-11840 #217-11844  217-11844 #217-11846  217-11846 #217-11847  217-11847
                        #217-11850  217-11850 #217-11854  217-11854 #217-11865  217-11865 #217-11870  217-11870 #218-11905
                         218-11905 #218-11912  218-11912 #218-11924  218-11924 #218-11930  218-11930 #218-11942  218-11942
                        #220-12144  220-12144 #223-12259  223-12259 #225-12319  225-12319 #225-12320  225-12320 #226-12371
                         226-12371 #226-12406  226-12406 #226-12419  226-12419 #227-12473  227-12473 #227-12484  227-12484
                        #228-12512  228-12512 #229-12540  229-12540 #231-12618  231-12618 #232-12658  232-12658 #232-12670
                         232-12670 #232-12696  232-12696 #232-12717  232-12717 #232-12747  232-12747 #233-12850  233-12850
                        #233-12864  233-12864 #233-12877  233-12877 #233-12896  233-12896 #233-12946  233-12946 #234-13004
                         234-13004 #234-13005  234-13005 #234-13013  234-13013 #234-13022  234-13022 #235-13069  235-13069
                        #236-13111  236-13111 #237-13174  237-13174 #237-13180  237-13180 #238-13209  238-13209 #239-13252
                         239-13252 #239-13266  239-13266 #239-13269  239-13269 #239-13276  239-13276 #240-13315  240-13315
                        #240-13321  240-13321 #240-13324  240-13324 #241-13364  241-13364 #244-13467  244-13467 #244-13477
                         244-13477 #245-13532  245-13532 #245-13546  245-13546 #245-13550  245-13550 #246-13603  246-13603
                        #246-13621  246-13621 #247-13667  247-13667 #247-13670  247-13670 #247-13675  247-13675 #247-13677
                         247-13677 #247-13681  247-13681 #247-13687  247-13687 #248-13716  248-13716 #250-13788  250-13788
                        #255-13957  255-13957 #258-14091  258-14091 #258-14106  258-14106 #259-14144  259-14144 #259-14151
                         259-14151 #259-14153  259-14153 #259-14158  259-14158 #259-14163  259-14163 #260-14219  260-14219
                        #260-14264  260-14264 #260-14268  260-14268 #260-14274  260-14274 #260-14277  260-14277 #261-14309
                         261-14309 #265-14434  265-14434 #265-14435  265-14435 #267-14503  267-14503 #272-14809  272-14809
                        #273-14873  273-14873 #273-14875  273-14875 #273-14879  273-14879 #273-14935  273-14935 #274-14976
                         274-14976 #274-14979  274-14979 #274-14995  274-14995 #274-15020  274-15020 #275-15050  275-15050
                        #275-15058  275-15058 #276-15087  276-15087 #277-15141  277-15141 #277-15151  277-15151 #278-15207
                         278-15207 #278-15225  278-15225 #278-15238  278-15238 #278-15241  278-15241 #279-15283  279-15283
                        #279-15292  279-15292 #279-15295  279-15295 #280-15419  280-15419 #280-15435  280-15435 #280-15472
                         280-15472 #280-15482  280-15482 #281-15522  281-15522 #282-15586  282-15586 #282-15602  282-15602
                        #284-15652  284-15652 #285-15678  285-15678 #287-15880  287-15880 #288-15997  288-15997 #289-16078
                         289-16078 #289-16112  289-16112
$$$   	= 010046 R	#38-1469    38-1469   #38-1473    38-1473   #38-1477    38-1477   #38-1481    38-1481   #38-1485
                         38-1485   #38-1490    38-1490   #38-1494    38-1494   #38-1498    38-1498   #38-1508    38-1508
RSXTOPS10  CREATED BY  MACRO  ON 16-MAY-88 AT 15:48	PAGE 31

SYMBOL CROSS REFERENCE                                  CREF   04.00

SYMBOL	VALUE		REFERENCES

                        #38-1513    38-1513   #38-1517    38-1517
$$$ARG	= 000011	#81-4294    81-4294   #81-4294    81-4294   #81-4294    81-4294   #81-4294    81-4294
$$$GLB	= ******	 66-2854    66-2854    66-2854    66-2854    66-2854    66-2854    66-2858    66-2858    66-2858
                         66-2858    66-2858    66-2858    81-4294    81-4294    81-4294    81-4294    81-4294    81-4294
                         81-4294    81-4294    146-8315   146-8318   146-8318   146-8318   146-8318   146-8318   146-8318
                         191-10557  191-10561  191-10561  191-10561  191-10561  191-10561  191-10561  191-10563  191-10563
                         191-10563  191-10563  191-10563  191-10563  191-10565  191-10565  191-10565  191-10565  191-10565
                         191-10565
$$$OST	= 000016	#66-2854    66-2854    66-2854   #66-2854    66-2854    66-2854   #66-2854    66-2854    66-2854
                        #66-2854    66-2854    66-2854   #66-2854    66-2854    66-2854   #66-2854   #66-2858    66-2858
                         66-2858   #66-2858    66-2858    66-2858   #66-2858    66-2858    66-2858   #66-2858    66-2858
                         66-2858   #66-2858    66-2858    66-2858   #66-2858   #81-4294    81-4294    81-4294   #81-4294
                         81-4294    81-4294   #81-4294    81-4294    81-4294   #81-4294    81-4294    81-4294   #81-4294
                         81-4294    81-4294   #81-4294    81-4294    81-4294   #81-4294    81-4294   #146-8318   146-8318
                         146-8318  #146-8318   146-8318   146-8318  #146-8318   146-8318   146-8318  #146-8318   146-8318
                         146-8318  #146-8318   146-8318   146-8318  #146-8318  #191-10561  191-10561  191-10561 #191-10561
                         191-10561  191-10561 #191-10561  191-10561  191-10561 #191-10561  191-10561  191-10561 #191-10561
                         191-10561  191-10561 #191-10561 #191-10563  191-10563  191-10563 #191-10563  191-10563  191-10563
                        #191-10563  191-10563  191-10563 #191-10563  191-10563  191-10563 #191-10563  191-10563  191-10563
                        #191-10563 #191-10565  191-10565  191-10565 #191-10565  191-10565  191-10565 #191-10565  191-10565
                         191-10565 #191-10565  191-10565  191-10565 #191-10565  191-10565  191-10565 #191-10565
$$$T1 	= 000000	#66-2854    66-2854    66-2854    66-2854   #66-2854    66-2854   #66-2858    66-2858    66-2858
                         66-2858   #66-2858    66-2858   #146-8318   146-8318   146-8318   146-8318  #146-8318   146-8318
                        #191-10561  191-10561  191-10561  191-10561 #191-10561  191-10561 #191-10563  191-10563  191-10563
                         191-10563 #191-10563  191-10563 #191-10565  191-10565  191-10565  191-10565 #191-10565  191-10565
$$$UNI	= 000002	#35-1214    35-1230    35-1230    35-1230   #35-1230    35-1230    35-1230    35-1230   #35-1230
                        #35-1258    35-1262    35-1262   #35-1262    35-1262    35-1262   #35-1262
.ABCNT	  002606 RG	#17-866    *85-4517    193-10683 *224-12283
.ABFLG	  002610 RG	#17-868    *85-4518   *163-8799   193-10681 *193-10683
.ACKAL	  001164 RG	#9-563      66-2818   *81-4289    195-10712 *195-10714
.ATLLH	  007136 RG	#37-1393    37-1399    37-1458    69-3210    76-3717    127-7100   127-7103
.BGBST	= 076000  G	#14-787     14-794     42-1757
.BGBUF	  001422 RG	#14-793     42-1762
.BGLEN	= 002000  G	#14-788     14-795     42-1764
.BM873	= 173000  G	#49-2220    83-4411
.BRCLK	= 005000	#7-288     #48-2204   #80-4024   #82-4348   #86-4617   #145-8240  #176-9383  #190-10386 #253-13880
.BRKCH	  002636 RG	#17-881     217-11867
.BTPRM	  001160 RG	#9-559      162-8785
.BTSCH	  001162 RG	#9-561     *81-4119    81-4135   *81-4156   *217-11878
.BTSTK	  016542 RG	 37-1454    81-4048   #81-4048
.CECLK	= 004000	#7-288     #48-2204   #80-4024   #82-4348   #86-4617   #145-8240  #176-9383  #190-10386 #253-13880
.CEFN 	  044310 RG	 109-5780   109-5780   110-5830   110-5830   111-5893   111-5893   112-5940   112-5940   118-6270
                         118-6270   124-6706   124-6706   128-7154   128-7154  #255-13947
.CEFN3	  044314 RG	#255-13950  278-15225  278-15225
.CKASS	  001050 RG	#9-501      75-3637   *75-3639   *143-8108
.CKDEL	  044376 RG	 120-6410   120-6410   143-8113   143-8113  #256-13998
.CLKBA	  002376 RG	#15-830     118-6303   120-6400   143-8091
.CLKEA	  002602 RG	#15-840     118-6304   120-6402
.CLKSW	  001136 RG	#9-536      66-2834   *66-2836   *143-8078  *143-8081
.CLKSZ	= 000007  G	#15-827     15-837
.CLRMR	= 006000	#7-288     #48-2204   #80-4024   #82-4348   #86-4617   #145-8240  #176-9383  #190-10386 #253-13880
.CLRUN	= 010000	#7-288     #48-2204   #80-4024   #82-4348   #86-4617   #145-8240  #176-9383  #190-10386 #253-13880
RSXTOPS10  CREATED BY  MACRO  ON 16-MAY-88 AT 15:48	PAGE 32

SYMBOL CROSS REFERENCE                                  CREF   04.00

SYMBOL	VALUE		REFERENCES

.COMEF	  001010 RG	#9-471      43-1874    66-2816    70-3274    70-3279    70-3288    70-3290    81-4069    81-4087
                        *81-4098   *81-4241   *83-4388   *85-4539    91-4929    113-5989   113-5990   147-8371  *168-8938
                        *168-8942  *180-9761   196-10769  213-11511  214-11589  214-11605  217-11825 *217-11864  217-11876
                         224-12286  226-12387  231-12613  236-13102  255-13963  258-14084  261-14314  278-15197  281-15514
                        *283-15628  284-15650 *284-15655 *285-15676
.CONBT	= 012000	#7-288     #48-2204   #80-4024   #82-4348   #86-4617   #145-8240  #176-9383  #190-10386 #253-13880
.CPDV 	  001262 RG	#12-671    *81-4263    277-15131 *277-15163 *279-15301
.CPFN 	  001260 RG	#12-669     277-15129 *277-15161
.CPUSN	  011342 RG	#41-1691
.CRHD 	  001270 RG	#12-677     81-4264    279-15276 *279-15300
.CRPB 	  001266 RG	#12-675    *81-4266    277-15134 *277-15136  277-15155 *277-15165 *279-15305
.CRPFL	  005736 RG	#34-1147   *85-4516
.CRQZ 	  001256 RG	#12-667    *81-4271   *277-15138 *277-15156  279-15277 *279-15308
.CRSB 	  001272 RG	#12-679     277-15137 *277-15158
.CRSND	  002634 RG	#17-879    *170-9041  *170-9061   273-14901
.CRSZ 	  001264 RG	#12-673    *81-4270   *277-15139  277-15148 *277-15157  279-15287 *279-15307
.CRTSK	  001006 RG	#9-468      43-1827    43-1839    67-2919    67-2981    67-3087    73-3418   *73-3421    74-3434
                         74-3441   *74-3522    79-3939    147-8357   193-10661  258-14093  260-14205  260-14231  278-15223
.CSHRG	= 164000	#7-288     #48-2204   #80-4024   #82-4348   #86-4617   #145-8240  #176-9383  #190-10386 #253-13880
.CTYPT	  002642 RG	#17-885
.CYLTM	= 000074  G	 9-555      15-833     15-834    #54-2487
.DATE 	  001140 RG	#9-538      81-4215    166-8893
.DATE3	  001140 RG	#9-539      163-8797   224-12288
.DAY  	  001144 RG	#9-544      81-4219    107-5677
.DBINT	= ******  GX	 8-403
.DHSPA	  040552 RG	#223-12240  227-12473  227-12473  233-12896  233-12896  234-13005  234-13005
.DHSPC	  040656 R	 223-12262 #224-12285
.DHSPD	  040704 RG	 157-8629   157-8629   214-11663  214-11663  223-12259  223-12259 #225-12315
.DHSPF	  040644 RG	 214-11664  214-11664 #224-12282
.DHSPR	  040572 RG	 154-8539   154-8539   214-11647  214-11647  214-11703  214-11703 #223-12246
.DHSPZ	  040530 RG	 214-11721  214-11721 #222-12209  245-13550  245-13550
.DHSTO	  035024 RG	 205-11088 #206-11116  239-13269  239-13269  247-13677  247-13677  273-14937
.DHTMO	  042020 RG	 85-4512    85-4512    194-10699  194-10699 #233-12811
.DHXOF	  043030 RG	 237-13167  237-13171  237-13174  237-13174 #237-13179
.DHXON	  043152 RG	 239-13245  239-13249  239-13252  239-13252 #239-13257
.DLHUP	  041366 RG	 154-8517   154-8517   154-8546   154-8546  #231-12594  232-12696  232-12696
.DLINT	  037534 RG	 216-11770 #218-11896
.DLSTO	  035200 RG	#208-11176  239-13276  239-13276  247-13681  247-13681  273-14945
.DLTMO	  041510 RG	 85-4513    85-4513    194-10700  194-10700 #232-12654
.DLXOF	  043036 RG	 237-13165 #237-13185
.DLXON	  043216 RG	 239-13267 #239-13275
.DMHUP	  041266 RG	 154-8531   154-8531   157-8621   157-8621  #228-12509  234-13004  234-13004
.DMTMO	  042326 RG	 85-4514    85-4514    194-10705  194-10705 #234-12975
.DMUHU	  041316 RG	 153-8496   153-8496  #229-12537
.DOW  	  001147 RG	#9-550
.DQCDR	  010202 RG	#39-1549
.DQDH0	  010122 RG	#39-1537    170-9017
.DQDLS	  010142 RG	#39-1541
.DQDL1	  010102 RG	#39-1533
.DQLPT	  010162 RG	#39-1545
.DQPBA	  010062 RG	#39-1529    39-1560    155-8558   155-8558  *156-8571   164-8834   164-8834   165-8870   165-8870
                         167-8916   167-8916   167-8918   175-9289   175-9290   175-9294   276-15103  276-15105
RSXTOPS10  CREATED BY  MACRO  ON 16-MAY-88 AT 15:48	PAGE 33

SYMBOL CROSS REFERENCE                                  CREF   04.00

SYMBOL	VALUE		REFERENCES

.DQPEA	  010262 RG	#39-1559    39-1560
.DQPSZ	= 000010  G	#39-1560    179-9635
.DRBEL	  031346 RG	 177-9449  #180-9713
.DRLTC	= 015000	#7-288     #48-2204   #80-4024   #82-4348   #86-4617   #145-8240  #176-9383  #190-10386 #253-13880
.DRSRN	  013602 RG	 8-359     #67-3081
.DR.NS	  013710 RG	#67-3104    90-4893    141-8013
.DSACF	= 066000	#7-288     #48-2204   #80-4024   #82-4348   #86-4617   #145-8240  #176-9383  #190-10386 #253-13880
.DSIOJ	= 065000	#7-288     #48-2204   #80-4024   #82-4348   #86-4617   #145-8240  #176-9383  #190-10386 #253-13880
.DST  	  001146 RG	#9-548      81-4220
.DTBLK	  001402 RG	#12-768    *81-4239   *181-9865  *182-9926  *182-9952   196-10809  213-11513  213-11517  213-11517
.DTINT	  030432 RG	 8-453      8-453      8-453      8-453     #177-9423
.DXRTY	  001372 RG	#12-747     280-15385 *280-15418  280-15439  280-15493
.D.ASS	  022212 RG	 67-2990   #103-5431
.D.CEF	  022462 RG	 67-3002   #109-5780
.D.CMT	  023100 RG	 67-3000   #120-6399
.D.DSE	  022516 RG	 67-3004   #111-5889
.D.DTE	  020746 RG	 67-2991   #87-4651
.D.EXT	  023146 RG	 67-3012   #122-6494   131-7402
.D.GLI	  022316 RG	 67-2989   #105-5566
.D.GMP	  024660 RG	 67-3024   #141-7968
.D.GPP	  024536 RG	 67-3023   #139-7848
.D.GTP	  022346 RG	 67-3021   #107-5662
.D.MKT	  022776 RG	 67-2998   #118-6270
.D.PUT	  024266 RG	 67-2999   #135-7583
.D.QIO	  023170 RG	 67-2987    67-2988   #124-6677
.D.RAF	  022554 RG	 67-3006   #113-5987
.D.REC	  024106 RG	 67-2995   #131-7327
.D.REF	  022540 RG	 67-3005   #112-5940
.D.REQ	  024310 RG	 67-2992   #137-7665
.D.ROE	  024106 RG	 67-2996   #131-7328
.D.ROS	  024106 RG	 67-2997   #131-7329
.D.SAR	  023654 RG	 67-2994   #127-7038
.D.SEF	  022500 RG	 67-3003   #110-5830
.D.SEN	  023640 RG	 67-2993   #126-6955
.D.STV	  024254 RG	 67-3020   #133-7494
.D.WFL	  022656 RG	 67-3008   #115-6117
.D.WFO	  022602 RG	#114-6035   124-6863
.D.WFS	  022600 RG	 67-3007   #114-6033
.D.WSE	  022764 RG	 67-3011   #116-6181
.EBPEC	  001376 RG	#12-760     281-15518 *281-15520
.EBPEQ	  001374 RG	#12-757     197-10823  281-15525
.EBRTY	  001373 RG	#12-749    *280-15437  280-15466  280-15494  281-15516
.EIOJA	= 067000	#7-288     #48-2204   #80-4024   #82-4348   #86-4617   #145-8240  #176-9383  #190-10386 #253-13880
.ELEDN	  031042 RG	 177-9441  #179-9594
.ERRCD	  011354 RG	#41-1713
.ERRPC	  011346 RG	#41-1711
.EXEND	  001002 RG	#9-460      42-1753
.FEACK	= ******  GX	 39-1556
.FEACT	  005716 RG	#33-1125   *81-4290
.FEMOD	  001170 RG	#9-567
.FEPPU	  016000 RG	#77-3820    127-7059   127-7059   137-7673   137-7673
.FEST 	= ******  GX	 39-1556
RSXTOPS10  CREATED BY  MACRO  ON 16-MAY-88 AT 15:48	PAGE 34

SYMBOL CROSS REFERENCE                                  CREF   04.00

SYMBOL	VALUE		REFERENCES

.FESTB	  001000 RG	#9-458      9-459
.FREPL	  001426 RG	#14-797    *42-1756   *42-1761    186-10128  213-11505  217-11829  242-13396  243-13436  270-14635
                         271-14733
.FSRPT	= 000050  G	#49-2264
.GFNR 	= 102000	#7-288     #48-2204   #80-4024   #82-4348   #86-4617   #145-8240  #176-9383  #190-10386 #253-13880
.HRDWR	  011344 RG	#41-1696
.IBFLO	  005062 RG	#29-1033    242-13396
.IBFOK	  005064 RG	#29-1035    213-11505  243-13436
.INHDM	  002604 RG	#17-864    *150-8438   226-12389
.INICL	= 070000	#7-288     #48-2204   #80-4024   #82-4348   #86-4617   #145-8240  #176-9383  #190-10386 #253-13880
.INTEN	= 000100  G	#49-2225    85-4540
.IODBG	  011372 RG	#41-1739    44-1910   *44-1919   *44-1953
.IOSNP	  012406 R	 44-1923    44-1923   #45-2026
.IRLTC	= 014000	#7-288     #48-2204   #80-4024   #82-4348   #86-4617   #145-8240  #176-9383  #190-10386 #253-13880
.KACFL	  001420 RG	#13-781     196-10782
.KALSC	= 000005  G	#54-2489    90-4887    196-10802
.KLCPU	  001176 RG	#9-575     *90-4817
.KLERQ	  001130 RG	#9-528
.KLERW	  001166 RG	#9-565
.KLFCF	  001173 RG	#9-571
.KLFLG	  001174 RG	#9-573
.KLITK	  001126 RG	#9-525     *81-4092   *84-4467   *180-9751  *196-10796 *280-15413 *280-15417 *280-15434 *280-15459
                        *280-15473
.KLIWD	  001132 RG	#9-531
.KLMF2	  001200 RG	#9-590
.KLMON	  001177 RG	#9-577     *90-4818
.KLNBC	  001206 RG	#10-606     10-626
.KLNFD	  001212 RG	#10-611
.KLNFT	  001210 RG	#10-608     10-621     168-8937
.KLNLB	  001206 RG	#10-605
.KLNMD	  001224 RG	#10-618     162-8763
.KLNPB	  001204 RG	#10-602     162-8766
.KLNPE	= 001226 RG	#10-622
.KLNPT	  002644 RG	#17-888
.KLNPW	  001226 RG	#10-623
.KLNSW	  001234 RG	#10-627     44-1966    44-1974    154-8510   158-8644   170-9025   198-10840  209-11210  209-11214
                         210-11235  210-11292  212-11407  217-11817  218-11909  231-12600 *231-12602  237-13170  239-13248
                         273-14870  274-14972
.KLNTD	  001220 RG	#10-616
.KLNTT	  001216 RG	#10-613
.KLRLD	  001172 RG	#9-569
.KPAC 	  001416 RG	#13-779    *90-4887   *90-4888   *196-10777 *196-10780 *196-10802
.KPALV	  032134 RG	 181-9871   181-9871  #183-9979   196-10813  196-10813  213-11519  213-11519
.KW11S	  036226 RG	 8-373     #213-11480
.LCEND	= 011374 RG	 9-459     #41-1741
.LCRDL	= 052000	#7-288     #48-2204   #80-4024   #82-4348   #86-4617   #145-8240  #176-9383  #190-10386 #253-13880
.LCRDR	= 051000	#7-288     #48-2204   #80-4024   #82-4348   #86-4617   #145-8240  #176-9383  #190-10386 #253-13880
.LCRM1	= 057000	#7-288     #48-2204   #80-4024   #82-4348   #86-4617   #145-8240  #176-9383  #190-10386 #253-13880
.LCRM2	= 056000	#7-288     #48-2204   #80-4024   #82-4348   #86-4617   #145-8240  #176-9383  #190-10386 #253-13880
.LCRM3	= 055000	#7-288     #48-2204   #80-4024   #82-4348   #86-4617   #145-8240  #176-9383  #190-10386 #253-13880
.LCRM4	= 054000	#7-288     #48-2204   #80-4024   #82-4348   #86-4617   #145-8240  #176-9383  #190-10386 #253-13880
.LCRM5	= 053000	#7-288     #48-2204   #80-4024   #82-4348   #86-4617   #145-8240  #176-9383  #190-10386 #253-13880
RSXTOPS10  CREATED BY  MACRO  ON 16-MAY-88 AT 15:48	PAGE 35

SYMBOL CROSS REFERENCE                                  CREF   04.00

SYMBOL	VALUE		REFERENCES

.LDAR 	= 077000	#7-288     #48-2204   #80-4024   #82-4348   #86-4617   #145-8240  #176-9383  #190-10386 #253-13880
.LDBRL	= 043000	#7-288     #48-2204   #80-4024   #82-4348   #86-4617   #145-8240  #176-9383  #190-10386 #253-13880
.LDBRR	= 042000	#7-288     #48-2204   #80-4024   #82-4348   #86-4617   #145-8240  #176-9383  #190-10386 #253-13880
.LDCK1	= 046000	#7-288     #48-2204   #80-4024   #82-4348   #86-4617   #145-8240  #176-9383  #190-10386 #253-13880
.LDCK2	= 047000	#7-288     #48-2204   #80-4024   #82-4348   #86-4617   #145-8240  #176-9383  #190-10386 #253-13880
.LDDIS	= 045000	#7-288     #48-2204   #80-4024   #82-4348   #86-4617   #145-8240  #176-9383  #190-10386 #253-13880
.LDRJD	= 064000	#7-288     #48-2204   #80-4024   #82-4348   #86-4617   #145-8240  #176-9383  #190-10386 #253-13880
.LDRJV	= 063000	#7-288     #48-2204   #80-4024   #82-4348   #86-4617   #145-8240  #176-9383  #190-10386 #253-13880
.LDRM1	= 060000	#7-288     #48-2204   #80-4024   #82-4348   #86-4617   #145-8240  #176-9383  #190-10386 #253-13880
.LDRM2	= 061000	#7-288     #48-2204   #80-4024   #82-4348   #86-4617   #145-8240  #176-9383  #190-10386 #253-13880
.LDRM3	= 062000	#7-288     #48-2204   #80-4024   #82-4348   #86-4617   #145-8240  #176-9383  #190-10386 #253-13880
.LDSEL	= 044000	#7-288     #48-2204   #80-4024   #82-4348   #86-4617   #145-8240  #176-9383  #190-10386 #253-13880
.LPPFL	  006244 RG	#35-1199   *85-4515
.MEMRS	= 076000	#7-288     #48-2204   #80-4024   #82-4348   #86-4617   #145-8240  #176-9383  #190-10386 #253-13880
.MISC 	  011362 RG	#41-1729   *193-10668  198-10838
.MNITS	= 000002	#9-583
.MNTNX	= 000003	#9-584
.MNT10	= 000001	#9-582
.MNT20	= 000004	#9-585
.MON  	  001145 RG	#9-546      107-5680
.MSIZE	  001114 RG	#9-508
.NOERR	  001122 RG	#9-519      9-521     *42-1765   *81-4091   *84-4468   *180-9752   196-10771 *196-10791  280-15409
                         280-15426 *280-15481
.NOHLT	= 001123 RG	#9-521      280-15455
.OBFLO	= 001200  G	#186-10109  186-10128
.PARER	  012040 R	 8-379     #43-1884
.PARRG	= 172100  G	 43-1885   #49-2221    85-4523
.PAT1.	  000040 RG	#8-361
.PAT2.	  000120 RG	#8-381
.PAT3.	  000234 RG	#8-398
.PAT4.	  000520 RG	#8-429
.PCAB1	= 150000	#7-288     #48-2204   #80-4024   #82-4348   #86-4617   #145-8240  #176-9383  #190-10386 #253-13880
.PCAB2	= 151000	#7-288     #48-2204   #80-4024   #82-4348   #86-4617   #145-8240  #176-9383  #190-10386 #253-13880
.PCAB3	= 152000	#7-288     #48-2204   #80-4024   #82-4348   #86-4617   #145-8240  #176-9383  #190-10386 #253-13880
.PCAB4	= 153000	#7-288     #48-2204   #80-4024   #82-4348   #86-4617   #145-8240  #176-9383  #190-10386 #253-13880
.PDP11	= 000050	#139-7834   139-7857
.PFAIL	  001026 RG	#9-490      75-3582   *83-4394   *84-4456
.PFASS	  001052 RG	#9-503      75-3640    75-3645   *75-3646
.PFDBG	  011370 RG	#41-1737    44-1981   *83-4389   *85-4521
.PFIOW	  001030 RG	#9-492     *84-4457   *85-4501   *85-4520    232-12660  232-12714  233-12813  233-12862  233-12943
                         234-12977  234-12994  240-13307
.PFRST	  020522 RG	 75-3650    75-3650   #85-4492
.POLLH	  001432 RG	#14-801     14-807     14-817     73-3365    73-3399    76-3691    76-3728    128-7164   131-7386
                         137-7706   137-7712
.POLND	  002336 RG	 14-803    #14-816
.POLST	  001436 RG	 14-802    #14-805
.PRADR	  001362 RG	#12-736    *90-4852    177-9432   184-10028  213-11516
.PRDCT	  001370 RG	#12-742    *81-4099   *81-4176   *177-9448
.PRDTE	  001366 RG	#12-740     44-1957    81-4059    84-4452    90-4850    177-9431   184-10027  196-10812  213-11515
.PRPSE	  001400 RG	#12-763     66-2842   *81-4051   *81-4071   *81-4112   *85-4519    217-11827
.PRSTA	  001364 RG	#12-738     43-1867    44-1962    81-4060    84-4481    85-4542    177-9433   178-9561   184-10045
                         283-15627  284-15654
RSXTOPS10  CREATED BY  MACRO  ON 16-MAY-88 AT 15:48	PAGE 36

SYMBOL CROSS REFERENCE                                  CREF   04.00

SYMBOL	VALUE		REFERENCES

.PUDBA	  010262 RG	 36-1355   #40-1579    76-3760    103-5454   260-14207
.PUDEA	  011342 RG	#40-1685    103-5456
.PWRDN	  020164 RG	 8-355      75-3584   #83-4387    84-4466
.RCRM1	= 147000	#7-288     #48-2204   #80-4024   #82-4348   #86-4617   #145-8240  #176-9383  #190-10386 #253-13880
.RCRM2	= 146000	#7-288     #48-2204   #80-4024   #82-4348   #86-4617   #145-8240  #176-9383  #190-10386 #253-13880
.RCRM3	= 145000	#7-288     #48-2204   #80-4024   #82-4348   #86-4617   #145-8240  #176-9383  #190-10386 #253-13880
.RCRM4	= 144000	#7-288     #48-2204   #80-4024   #82-4348   #86-4617   #145-8240  #176-9383  #190-10386 #253-13880
.RCSPF	= 141000	#7-288     #48-2204   #80-4024   #82-4348   #86-4617   #145-8240  #176-9383  #190-10386 #253-13880
.RDJ14	= 134000	#7-288     #48-2204   #80-4024   #82-4348   #86-4617   #145-8240  #176-9383  #190-10386 #253-13880
.RDJ71	= 135000	#7-288     #48-2204   #80-4024   #82-4348   #86-4617   #145-8240  #176-9383  #190-10386 #253-13880
.RDMAB	= 133000	#7-288     #48-2204   #80-4024   #82-4348   #86-4617   #145-8240  #176-9383  #190-10386 #253-13880
.REQS 	  015276 RG	 73-3403    73-3403   #76-3678    124-6842   124-6842   127-7084   127-7084   137-7693   137-7693
.RHPB 	  005550 RG	#32-1092    162-8777
.RHPD 	  011366 RG	#41-1736
.RHSN 	  005552 RG	#32-1093
.RPADR	  005720 RG	#33-1127
.RPELC	  005546 RG	#32-1090
.RPELQ	  005544 RG	#32-1088    197-10826
.RPSIZ	  005724 RG	#33-1129
.RPUNT	  005714 RG	#33-1123
.RP1PE	  010402 RG	#40-1602    40-1603
.RP2PE	  010452 RG	#40-1607    40-1608
.RP3PE	  010522 RG	#40-1612    40-1613
.RP4PE	  010572 RG	#40-1617    40-1618
.RP5PE	  010642 RG	#40-1622    40-1623
.RP6PE	  010712 RG	#40-1627    40-1628
.RP7PE	  010762 RG	#40-1632    40-1633
.RQESD	  015770 RG	#76-3787    127-7090   137-7696
.RQSPD	  025226 RG	#146-8317   163-8801   193-10685
.SECLK	= 003000	#7-288     #48-2204   #80-4024   #82-4348   #86-4617   #145-8240  #176-9383  #190-10386 #253-13880
.SEND 	  024006 RG	 124-6838   124-6838   126-6965   126-6965   127-7053   127-7053  #128-7147   137-7742   137-7742
.SERFG	  001014 RG	#9-474     *42-1767   *69-3209    74-3436    75-3586    75-3614    75-3619    75-3626   *75-3642
                        *75-3649   *79-3956   *83-4395   *84-4471   *143-8116  *143-8120  *213-11482 *262-14342
.SETMR	= 007000	#7-288     #48-2204   #80-4024   #82-4348   #86-4617   #145-8240  #176-9383  #190-10386 #253-13880
.SETRN	= 011000	#7-288     #48-2204   #80-4024   #82-4348   #86-4617   #145-8240  #176-9383  #190-10386 #253-13880
.SEWFL	  001016 RG	#9-476     *116-6182   143-8120  *143-8121
.SNDAL	  027614 RG	 66-2849    66-2849    170-8968   170-8968  #170-9004
.SNDBF	  002614 RG	#17-875    *170-9019  *170-9103   203-11027 *203-11028  205-11085
.SNDCN	  002624 RG	#17-877    *170-9017  *170-9099  *203-11011
.SNDLP	  002612 RG	#17-873     85-4502    170-9011  *170-9016   170-9095   203-11017  205-11080
.SSCLK	= 002000	#7-288     #48-2204   #80-4024   #82-4348   #86-4617   #145-8240  #176-9383  #190-10386 #253-13880
.SSM  	  001150 RG	#9-552      81-4223    81-4224    107-5664  *143-8073  *143-8075   143-8076
.SSTCO	  013556 RG	 43-1836   #67-3032
.SSTET	  013550 RG	 67-2924   #67-3029    67-3092
.STAST	  016160 RG	#79-3933    143-8106   143-8106   259-14158  259-14158
.STDHL	  040466 RG	#221-12173  225-12320  225-12320  238-13209  238-13209  239-13266  239-13266  245-13546  245-13546
                         246-13603  246-13603  247-13675  247-13675  273-14935  273-14935
.STDTA	  006364 RG	#36-1271    73-3370    269-14582
.STDTB	  006372 RG	 36-1272   #36-1278
.STDTC	  006366 RG	#36-1273
.STDTZ	  006370 RG	#36-1275    73-3371   *73-3372   *137-7736   269-14584
.STELD	  031670 RG	 180-9808   180-9808  #181-9860   181-9865
RSXTOPS10  CREATED BY  MACRO  ON 16-MAY-88 AT 15:48	PAGE 37

SYMBOL CROSS REFERENCE                                  CREF   04.00

SYMBOL	VALUE		REFERENCES

.STELI	  031756 RG	 180-9780   180-9780  #182-9916   182-9926
.STPCL	= 000000	#7-288     #48-2204   #80-4024   #82-4348   #86-4617   #145-8240  #176-9383  #190-10386 #253-13880
.STPDM	  041346 RG	 228-12512  228-12512  229-12540  229-12540 #230-12564  234-13013  234-13013
.STRCL	= 001000	#7-288     #48-2204   #80-4024   #82-4348   #86-4617   #145-8240  #176-9383  #190-10386 #253-13880
.STTNF	  032176 RG	 147-8377   147-8377  #184-10021
.STTNQ	  032170 RG	 178-9524   178-9524  #184-10018  278-15238  278-15238  279-15283  279-15283
.STTYD	  041202 RG	 214-11665  214-11665  218-11924  218-11924  226-12419  226-12419 #227-12467
.STTYH	  041216 RG	 218-11942  218-11942  226-12406  226-12406 #227-12472  231-12618  231-12618
.SYUIC	  001156 RG	#9-557      124-6791   139-7859
.S2IDC	  005056 RG	#29-1029    213-11500 *243-13441 *245-13561 *246-13627
.S2ITP	  005060 RG	#29-1031    235-13065 *235-13080
.TENDN	  030554 RG	 177-9435  #178-9489
.TFXOF	  044232 RG	 245-13532  245-13532 #250-13784
.TFXON	  044222 RG	 246-13621  246-13621 #250-13779
.TICK 	  025012 RG	 75-3617   #143-8065   143-8117
.TICKS	  001134 RG	#9-534      143-8065
.TKPS 	  001154 RG	#9-554      81-4054    107-5662   143-8067  *162-8750  *162-8753
.TKTN 	  001124 RG	#9-523     *43-1842    66-2822   *66-2824   *71-3301   *81-4090   *84-4470   *180-9754  *196-10797
                        *280-15483
.TKTN.	  013170 R	 66-2827   #66-2857
.TOD. 	  013152 R	 66-2838   #66-2853
.TPDBA	  007602 RG	#38-1465    77-3825    77-3826    141-7980
.TPDEA	  010062 RG	#38-1519    141-7978
.TTACK	  035230 RG	 205-11092  207-11136  207-11144  207-11154 #209-11205
.TTBTW	  044032 RG	 159-8677   159-8677   244-13477  244-13477 #247-13663  250-13788  250-13788
.TTCHK	  043322 RG	 213-11494  213-11494  217-11850  217-11850 #241-13360
.TTDIS	  043510 RG	 241-13364  241-13364  242-13401  243-13431  244-13472 #245-13507
.TTELB	  002666 RG	#17-910    *214-11723 *232-12746 *234-13021  236-13130 *236-13132
.TTELC	  002664 RG	#17-908     236-13104
.TTELQ	  002662 RG	#17-903     197-10819  236-13114
.TTENB	  043666 RG	 213-11508  213-11508  240-13321  240-13321  243-13437  244-13469 #246-13588
.TTERL	  042624 RG	 214-11724  214-11724  233-12946  233-12946 #236-13101
.TTFDI	  042556 RG	 213-11507  213-11507 #235-13064
.TTICK	  043346 RG	 217-11854  217-11854 #242-13393
.TTIXC	  043452 RG	 202-10976  202-10976  205-11072  205-11072  207-11149  207-11149 #244-13466
.TTP11	  002640 RG	#17-883     170-9047  *198-10853 *199-10886  202-10971  207-11140  209-11208  217-11874  237-13168
                         239-13246  273-14928  274-15003
.TTQDS	  043402 RG	 158-8656  #243-13428
.TTQEN	  043412 RG	 158-8659  #243-13433
.TTRNG	  037702 R	 218-11905  218-11905 #218-11941
.TTRST	  043232 RG	 231-12622  232-12717  232-12717  233-12864  233-12864 #240-13305
.TTSCW	  037706 R	 218-11930  218-11930 #218-11946
.TTSTP	  043046 RG	 237-13180  237-13180 #238-13208  247-13687  247-13687  274-15010
.TTSW2	  044202 RG	 158-8655   158-8655   213-11491  213-11491  214-11684  214-11684  217-11847  217-11847  225-12319
                         225-12319  233-12877  233-12877  235-13069  235-13069  240-13315  240-13315  244-13467  244-13467
                         247-13667  247-13667 #249-13746
.TTS2F	  005054 RG	#29-1027    213-11483 *241-13365 *245-13537 *246-13596
.TTXOF	  042752 RG	 160-8705   160-8705   217-11844  217-11844 #237-13161
.TTXON	  043074 RG	 161-8735   161-8735   217-11840  217-11840 #239-13238
.VCLUN	  016104 RG	#78-3879    103-5434   103-5434   105-5575   105-5575   124-6683   124-6683
.VERNO	  001036 RG	#9-498
.WRMBX	= 071000	#7-288     #48-2204   #80-4024   #82-4348   #86-4617   #145-8240  #176-9383  #190-10386 #253-13880
RSXTOPS10  CREATED BY  MACRO  ON 16-MAY-88 AT 15:48	PAGE 38

SYMBOL CROSS REFERENCE                                  CREF   04.00

SYMBOL	VALUE		REFERENCES

.X.02 	  023662 R	 126-6961  #127-7045
.YEAR 	  001142 RG	#9-542      81-4216    107-5682
..AKCR	= ******  GX	 39-1550
..AKLP	= ******  GX	 39-1546
..ALCB	  045644 RG	 76-3724    76-3724    124-6751   124-6751   186-10130  186-10130  236-13111  236-13111  248-13716
                         248-13716 #270-14629  272-14809  272-14809  279-15295  279-15295  281-15522  281-15522
..ALC2	  045660 RG	#270-14636
..ALOW	  046134 RG	 165-8855   165-8855   171-9134   171-9134  #272-14808  272-14812  278-15207  278-15207
..BLXI	  050310 RG	#287-15868
..BLXO	  050322 RG	 259-14144  259-14144 #287-15874
..DECB	  046000 RG	 81-4258    81-4258    178-9519   178-9519   259-14163  259-14163 #271-14729
..DECN	  045774 RG	 85-4509    85-4509    165-8879   165-8879   166-8902   166-8902   170-9104   170-9104   179-9649
                         179-9649   204-11048  204-11048  207-11148  207-11148  258-14106  258-14106 #271-14727  273-14898
                         273-14910  274-15020  274-15020
..DEC2	  045770 RG	#271-14723
..DQRN	  044660 RG	 198-10851  198-10851 #260-14204  260-14278
..DSEV	  045254 RG	 76-3768    76-3768    79-3935    79-3935    111-5889   111-5889   124-6854   124-6854   128-7187
                         143-8100   143-8100   178-9510   178-9510   179-9626   179-9626   210-11291  210-11291  217-11865
                         217-11865  217-11870  217-11870  218-11912  218-11912  224-12291  231-12604  259-14153  259-14153
                        #262-14341  285-15678  285-15678
..DTP1	  050264 RG	 90-4890    90-4890   #285-15675
..DTP2	  050234 RG	 89-4761    89-4761    180-9743   180-9743  #284-15649
..DTSP	  050216 RG	 81-4093    81-4093    84-4469    84-4469    180-9753   180-9753   196-10790  196-10790  280-15482
                         280-15482 #283-15626  284-15652  284-15652
..ENB0	  045530 RG	 79-3950    79-3950    81-4170    81-4170    81-4288    81-4288    260-14268  260-14268  260-14274
                         260-14274  265-14435  265-14435 #268-14541  289-16078  289-16078  289-16112  289-16112
..ERLG	  044440 RG	 197-10821  197-10821  197-10824  197-10824  197-10827  197-10827 #258-14083  258-14107
..FSTD	  045564 RG	 126-6955   126-6955   127-7038   127-7038   131-7348   131-7348   137-7665   137-7665  #269-14580
..INTX	  015062 RG	 43-1850   #75-3577    84-4472    143-8122   177-9458   220-12151  268-14550
..IODN	  044540 RG	 199-10885  199-10885 #259-14134  260-14277  260-14277
..IPRI	  045350 RG	 76-3765    76-3765    76-3783    76-3783    124-6852   124-6852  #265-14422
..NADD	  045424 RG	 73-3366    73-3366    73-3386    73-3386    73-3400    73-3400    76-3729    76-3729    128-7181
                         128-7181   131-7387   131-7387   137-7715   137-7715   265-14434  265-14434 #266-14456  278-15241
                         278-15241  279-15292  279-15292
..NDEL	  045310 RG	 73-3364    73-3364    81-4251    81-4251    131-7365   131-7365   178-9516   178-9516  #264-14390
                         267-14503  267-14503
..PICK	  045466 RG	 73-3392    73-3392    76-3692    76-3692    128-7165   128-7165   131-7339   131-7339   137-7707
                         137-7707   260-14219  260-14219 #267-14497
..SACK	  046620 RG	 167-8921   167-8921   209-11226  209-11226 #276-15083
..SEFN	  045202 RG	 259-14151  259-14151 #261-14303
..SPLP	= ******  GX	 39-1546
..STCH	  046554 RG	 217-11846  217-11846 #275-15045
..STCR	= ******  GX	 39-1550
..STFC	  046704 RG	 162-8762   162-8762   162-8787   162-8787   175-9332   175-9332   195-10718  195-10718  195-10720
                         195-10720  195-10724  195-10724  227-12484  227-12484  275-15058  275-15058 #277-15126
..STIN	  047074 RG	 162-8772   162-8772   162-8782   162-8782   258-14091  258-14091 #278-15196
..STLP	= ******  GX	 39-1546
..STPT	  046370 RG	 39-1530    39-1534    39-1538    39-1542    240-13324  240-13324 #274-14965
..STQ 	  047274 RG	 214-11591  214-11591  277-15141  277-15141  277-15151  277-15151 #279-15272
..STTY	  046154 RG	 39-1530    39-1534    39-1538    39-1542    170-9035   170-9035   170-9054   170-9054  #273-14861
..SWED	  050116 RG	 90-4795    90-4795    90-4806    90-4806    90-4816    90-4816    90-4823    90-4823    90-4863
                         90-4863    90-4870    90-4870    91-4932    91-4932    99-5275    99-5275   #282-15577
RSXTOPS10  CREATED BY  MACRO  ON 16-MAY-88 AT 15:48	PAGE 39

SYMBOL CROSS REFERENCE                                  CREF   04.00

SYMBOL	VALUE		REFERENCES

..VTOL	  050376 RG	 124-6833   124-6833  #288-15962
..VVLL	  050560 RG	 288-15997  288-15997 #289-16047
..VXFR	  050302 RG	 260-14264  260-14264 #286-15717  287-15880  287-15880
..WFED	  047444 RG	 81-4074    81-4074    81-4102    81-4102    81-4116    81-4116    81-4144    81-4144    81-4154
                         81-4154    81-4160    81-4160    81-4168    81-4168    81-4179    81-4179    81-4204    81-4204
                         81-4231    81-4231    81-4285    81-4285    97-5208    97-5208    178-9549   178-9549   180-9719
                         180-9719   180-9801   180-9801   182-9921   182-9921   183-9988   184-10042  184-10042  185-10079
                         185-10079 #280-15381  282-15586  282-15586  282-15602  282-15602
RSXTOPS10  CREATED BY  MACRO  ON 16-MAY-88 AT 15:48	PAGE 40

MACRO CROSS REFERENCE                                   CREF   04.00

MACRO NAME	REFERENCES

CALL  		#7-283      44-1914    44-1916    44-1923    44-1926    44-1941   #48-2201    66-2847    66-2849    73-3364
                 73-3366    73-3386    73-3392    73-3400    73-3403    75-3650    76-3692    76-3724    76-3729    76-3765
                 76-3768    76-3783    79-3935    79-3950   #80-4022    81-4057    81-4074    81-4093    81-4102    81-4116
                 81-4144    81-4154    81-4160    81-4168    81-4170    81-4179    81-4204    81-4217    81-4221    81-4225
                 81-4231    81-4251    81-4258    81-4285    81-4288   #82-4347    84-4453    84-4454    84-4469    85-4509
                 85-4512    85-4513    85-4514   #86-4615    89-4761    90-4795    90-4806    90-4816    90-4823    90-4863
                 90-4870    90-4890    91-4932    97-5152    97-5184    97-5192    97-5208    99-5275   #102-5379   103-5434
                #104-5522   105-5575  #106-5627   107-5666   107-5670  #108-5742   109-5780   110-5830   111-5889   111-5893
                 112-5940   114-6042  #117-6223   118-6270  #119-6361   120-6410  #121-6459  #123-6542   124-6683   124-6706
                 124-6751   124-6833   124-6838   124-6842   124-6852   124-6854  #125-6911   126-6955   126-6965   127-7038
                 127-7053   127-7059   127-7084   128-7154   128-7165   128-7181   131-7339   131-7348   131-7365   131-7387
                #132-7444  #134-7535  #136-7629   137-7665   137-7673   137-7693   137-7707   137-7715   137-7742  #142-8059
                 143-8100   143-8106   143-8113  #145-8238   147-8377   152-8465   153-8486   153-8494   153-8496   154-8506
                 154-8517   154-8529   154-8531   154-8539   154-8546   155-8557   155-8558   156-8570   157-8585   157-8590
                 157-8611   157-8618   157-8621   157-8629   158-8640   158-8648   158-8651   158-8655   159-8672   159-8677
                 160-8703   160-8705   161-8732   161-8735   162-8762   162-8772   162-8782   162-8787   164-8832   164-8834
                 165-8855   165-8868   165-8870   165-8879   166-8902   167-8914   167-8916   167-8921   170-8968   170-9033
                 170-9035   170-9054   170-9104   171-9134   175-9332  #176-9381   178-9510   178-9516   178-9519   178-9524
                 178-9549   178-9555   179-9626   179-9649   179-9655   179-9668   179-9676   180-9719   180-9743   180-9753
                 180-9780   180-9801   180-9808   180-9813   181-9863   181-9871   182-9921   182-9924   182-9932   182-9949
                 182-9951   184-10042  184-10044  185-10079  186-10130 #190-10384  194-10699  194-10700  194-10705  195-10718
                 195-10720  195-10724  196-10790  196-10813  197-10821  197-10824  197-10827  198-10851  199-10885  201-10929
                 202-10943  202-10964  202-10974  202-10976  204-11048  205-11072  207-11134  207-11148  207-11149  209-11220
                 209-11226  210-11291  210-11298  213-11481  213-11491  213-11494  213-11507  213-11508  213-11517  213-11519
                 214-11579  214-11591  214-11647  214-11663  214-11664  214-11665  214-11684  214-11703  214-11721  214-11724
                 216-11767  217-11840  217-11844  217-11846  217-11847  217-11850  217-11854  217-11865  217-11870  218-11905
                 218-11912  218-11924  218-11930  218-11942  220-12144  223-12259  225-12319  225-12320  226-12371  226-12406
                 226-12419  227-12473  227-12484  228-12512  229-12540  231-12618  232-12658  232-12670  232-12696  232-12717
                 232-12747  233-12850  233-12864  233-12877  233-12896  233-12946  234-13004  234-13005  234-13013  234-13022
                 235-13069  236-13111  237-13174  237-13180  238-13209  239-13252  239-13266  239-13269  239-13276  240-13315
                 240-13321  240-13324  241-13364  244-13467  244-13477  245-13532  245-13546  245-13550  246-13603  246-13621
                 247-13667  247-13670  247-13675  247-13677  247-13681  247-13687  248-13716  250-13788 #253-13876  255-13957
                 258-14091  258-14106  259-14144  259-14151  259-14153  259-14158  259-14163  260-14219  260-14264  260-14268
                 260-14274  260-14277  261-14309  265-14434  265-14435  267-14503  272-14809  273-14873  273-14875  273-14879
                 273-14935  274-14976  274-14979  274-14995  274-15020  275-15050  275-15058  276-15087  277-15141  277-15151
                 278-15207  278-15225  278-15238  278-15241  279-15283  279-15292  279-15295  280-15419  280-15435  280-15472
                 280-15482  281-15522  282-15586  282-15602  284-15652  285-15678  287-15880  288-15997  289-16078  289-16112
CLEF$ 		#190-10384
CLEF$C		#48-2202
CLEF$S		#48-2200   #80-4022    81-4275
CMKT$S		#48-2201
DECL$S		#48-2201
DHPSW 		#7-331      8-426      8-426      8-426      8-426      8-426      8-426      8-426      8-426
DIR$  		#48-2200    66-2827    66-2838   #81-4052    81-4052   #81-4066    81-4066   #81-4128    81-4128    81-4199
                #81-4275    81-4275   #81-4276    81-4276   #142-8059  #145-8238   147-8354   163-8801  #190-10385  193-10659
                 193-10669  193-10673  193-10677  193-10685 #193-10687  193-10687  196-10773 #253-13875 #258-14097  258-14097
                #272-14811  272-14811
DMYG$ 		#253-13875
DTON$S		#48-2201   #80-4022    81-4276
EHSG$ 		#190-10385  191-10559
EPASCI		#66-2862    66-2883
ERR$  		#66-2827   #66-2838   #81-4052   #81-4066   #81-4128   #81-4199   #81-4275   #81-4276   #147-8354  #163-8801
RSXTOPS10  CREATED BY  MACRO  ON 16-MAY-88 AT 15:48	PAGE 41

MACRO CROSS REFERENCE                                   CREF   04.00

MACRO NAME	REFERENCES

                #193-10659 #193-10669 #193-10673 #193-10677 #193-10685 #193-10687 #196-10773 #258-14097 #272-14811
F11DF$		#7-285      7-289     #253-13877  253-13881
IDENT$		#4-148      6-192      6-192      46-2053    46-2053    80-3964    80-3964    82-4301    82-4301    86-4559
                 86-4559    102-5346   102-5346   104-5489   104-5489   106-5594   106-5594   108-5703   108-5703   117-6190
                 117-6190   119-6327   119-6327   121-6425   121-6425   123-6507   123-6507   125-6873   125-6873   132-7411
                 132-7411   134-7502   134-7502   136-7596   136-7596   138-7758   138-7758   140-7883   140-7883   144-8128
                 144-8128   176-9342   176-9342   189-10192  189-10192  252-13800  252-13800
MFPI  		#48-2201    77-3820    77-3821   #86-4615   #102-5380   103-5431   103-5446  #104-5522   105-5574  #108-5742
                #117-6223   118-6285   118-6286   118-6287  #123-6542   124-6682   124-6692   124-6694   124-6726  #125-6911
                 128-7147   128-7173   131-7333   131-7334  #132-7444  #134-7535  #140-7917   141-7968   141-7969  #253-13876
                 269-14585  269-14586
MFPS  		#7-283      43-1833   #48-2201    67-2923    67-2957    67-3091    77-3840   #86-4615    87-4655    87-4663
                 87-4664    87-4667    97-5196    97-5197    97-5198    98-5238    99-5268    99-5273    100-5313  #102-5380
                 103-5448   103-5450  #104-5522   105-5582  #106-5627   107-5691  #108-5742   115-6121   115-6124   115-6127
                 115-6129   115-6137   115-6139  #117-6223  #123-6542   124-6679   124-6713   124-6797  #125-6911   131-7371
                #132-7444   133-7495  #134-7535   135-7583  #136-7629   137-7701   137-7702   137-7703   137-7704   137-7705
                #138-7791   139-7870  #140-7917   141-7992  #253-13876  255-13949  282-15597  282-15598  282-15599
MOV$  		#81-4052    81-4052   #81-4275    81-4275
MRKT$ 		#48-2202   #145-8238
MRKT$S		#48-2202
MTPI  		#48-2201   #86-4615   #104-5522   105-5584  #106-5627   107-5693  #108-5742  #117-6223  #123-6542   124-6698
                 124-6700  #125-6911  #132-7444  #134-7535  #140-7917   141-8005  #253-13876
MTPS  		#48-2201   #86-4615    97-5167    97-5168    97-5169    97-5174    97-5175    97-5176    97-5177    100-5317
                #108-5742   113-5987   113-5988   113-5989   113-5990  #117-6223  #123-6542  #125-6911   131-7378   131-7379
                 131-7383  #132-7444  #134-7535  #138-7791   139-7874  #140-7917   141-8008  #253-13876  282-15588  282-15589
                 282-15590
OFF$  		#66-2854    66-2854    66-2854    66-2854    66-2854    66-2854    66-2854   #66-2858    66-2858    66-2858
                 66-2858    66-2858    66-2858    66-2858   #81-4294    81-4294    81-4294    81-4294    81-4294    81-4294
                 81-4294    81-4294    81-4294   #146-8318   146-8318   146-8318   146-8318   146-8318   146-8318   146-8318
                #191-10561  191-10561  191-10561  191-10561  191-10561  191-10561  191-10561 #191-10563  191-10563  191-10563
                 191-10563  191-10563  191-10563  191-10563 #191-10565  191-10565  191-10565  191-10565  191-10565  191-10565
                 191-10565
PSW   		#7-318      8-345      8-347      8-349      8-351      8-353      8-355      8-357      8-359      8-364
                 8-364      8-364      8-364      8-366      8-367      8-371      8-371      8-373      8-377      8-377
                 8-379      8-384      8-384      8-384      8-384      8-384      8-384      8-384      8-384      8-384
                 8-384      8-384      8-384      8-384      8-384      8-384      8-387      8-394      8-394      8-396
                 8-401      8-401      8-401      8-401      8-403      8-405      8-410      8-413      8-414      8-416
                 8-417      8-419      8-420      8-432      8-432      8-432      8-432      8-432      8-432      8-432
                 8-432      8-432      8-432      8-432      8-432      8-432      8-432      8-432      8-432      8-432
                 8-432      8-432      8-432      8-432      8-432      8-432      8-432      8-432      8-432      8-432
                 8-432      8-432      8-432      8-432      8-432      8-434      8-435      8-437      8-438      8-440
                 8-441      8-444      8-445      8-453      8-453      8-453      8-453
QDPB$ 		#81-4294    81-4294
QIOSY$		#48-2202    48-2203
QIOW$ 		#48-2200   #80-4022    81-4294
RETURN		 44-1987    45-2043   #48-2201    76-3681    76-3696    76-3785    77-3844    78-3910    79-3953   #80-4022
                 81-4233    84-4484    85-4544   #86-4615    101-5340  #102-5379  #104-5522  #106-5627  #108-5742  #117-6223
                #119-6361  #121-6459  #123-6542  #125-6911  #132-7444  #134-7535  #136-7629  #142-8059  #145-8238   170-9065
                 171-9144   172-9181   173-9214   175-9316  #176-9381   182-9954   185-10083  186-10136  187-10162  188-10187
                #190-10384  202-10958  208-11183  209-11222  209-11229  210-11252  211-11319  214-11593  217-11857  217-11880
                 218-11937  218-11948  219-11970  221-12188  222-12215  225-12332  226-12434  227-12486  229-12544  230-12571
                 231-12607  232-12701  232-12761  233-12915  233-12948  234-13034  235-13081  236-13138  237-13188  238-13215
RSXTOPS10  CREATED BY  MACRO  ON 16-MAY-88 AT 15:48	PAGE 42

MACRO CROSS REFERENCE                                   CREF   04.00

MACRO NAME	REFERENCES

                 239-13280  240-13339  241-13367  243-13445  244-13480  247-13692  248-13727  249-13752  250-13790 #253-13876
                 255-13971  257-14053  258-14110  259-14166  260-14269  262-14343  263-14371  264-14398  265-14437  266-14466
                 267-14506  269-14605  270-14689  271-14788  272-14815  273-14885  273-14940  274-14983  274-15024  275-15063
                 276-15112  277-15145  278-15249  279-15313  280-15498  281-15552  282-15605  285-15681  286-15720  287-15925
                 288-16019  289-16118
RQST$ 		#48-2199    66-2854    66-2858   #145-8237   146-8318  #190-10385  191-10561  191-10563  191-10565
RSXVR$		#7-291      9-499      9-499
R50$  		#66-2854    66-2854    66-2854   #66-2858    66-2858    66-2858   #146-8318   146-8318   146-8318  #191-10561
                 191-10561  191-10561 #191-10563  191-10563  191-10563 #191-10565  191-10565  191-10565
WSIG$S		#48-2202   #80-4023    81-4066    81-4128   #145-8237  #190-10384  193-10687 #253-13878  258-14097  272-14811
WTLO$ 		#48-2202   #145-8238   146-8315  #190-10384  191-10557
WTLO$C		#48-2202
WTSE$ 		#48-2200   #145-8238
WTSE$S		#48-2200   #80-4022    81-4052   #145-8237
$DEF  		#7-285      7-288     #48-2200    48-2204   #80-4023    80-4024   #82-4347    82-4348   #86-4615    86-4617
                #145-8237   145-8240  #176-9381   176-9383  #190-10385  190-10386 #253-13877  253-13880
.ATLEN		#7-284      37-1399    37-1403    37-1408    37-1416    37-1423    37-1431    37-1439    37-1454    37-1458
.CRASH		#7-283      43-1845    43-1869    43-1876    43-1879    43-1882    43-1893   #48-2199    71-3304    75-3653
                #80-4022   #82-4347    84-4449   #86-4615   #142-8059  #145-8238   149-8428  #176-9381   177-9437   177-9443
                 178-9495   179-9608   179-9637   179-9642   180-9737   180-9774   180-9794   180-9805  #190-10385  248-13729
                #253-13875  279-15297
.DQPEN		#7-286      39-1530    39-1534    39-1538    39-1542    39-1546    39-1550    39-1553    39-1556   #48-2201
                #145-8238
.ENB  		#48-2199   #86-4615   #253-13879
.ENBT 		#145-8247   162-8771   162-8781   165-8854   171-9133
.ENB0 		#48-2199    79-3950   #80-4023    81-4170    81-4288   #253-13878  260-14268  260-14274  265-14435  289-16078
                 289-16112
.ENB5 		#48-2199   #145-8237  #190-10384  194-10707 #253-13876
.ENB6 		#48-2199    66-2810    66-2826    66-2837   #80-4023    81-4065    81-4094    81-4127    81-4198   #145-8238
                 147-8352   147-8369  #190-10384  193-10664  196-10814  198-10854  201-10931 #253-13879  264-14396  266-14464
                 267-14505  270-14686  271-14783  277-15143  278-15242
.INH  		#48-2199   #86-4615   #253-13879
.INHT 		#145-8254   162-8773   162-8783   165-8856   171-9135
.INH0 		#48-2199    79-3938   #253-13878  260-14216  265-14425  289-16051
.INH5 		#48-2199   #145-8237  #190-10384  194-10695 #253-13876
.INH6 		#48-2199    66-2815   #80-4023    81-4068    81-4129    81-4200   #145-8238   147-8356   147-8373  #190-10384
                 193-10660  196-10811  198-10837  201-10928 #253-13879  264-14392  266-14459  267-14499  270-14640  271-14738
                 277-15128  278-15233
.PUDEN		#7-284     #7-286      40-1583    40-1597    40-1603    40-1608    40-1613    40-1618    40-1623    40-1628
                 40-1633    40-1641    40-1645    40-1665    40-1670    40-1680
.STDEN		#7-284      36-1332    36-1336    36-1341    36-1355    36-1364    36-1369    36-1374    36-1379    36-1383
                 36-1386
.STKM 		#48-2200    65-2807   #80-4022    81-4048   #142-8059  #145-8238   147-8347  #190-10384  191-10542
.TPDEN		#7-286      38-1469    38-1473    38-1477    38-1481    38-1485    38-1490    38-1494    38-1498    38-1508
                 38-1513    38-1517
